{
  "data": {
    "bytecode": {
      "linkReferences": {},
      "object": "60806040526000600b557f052196409d8edbeb0e7b3a27fe529115aa12af80dbc468a3e6a112a265b11eb1600c556000600d553480156200003f57600080fd5b506040518060400160405280600381526020017f4e465400000000000000000000000000000000000000000000000000000000008152506040518060400160405280600281526020017f43430000000000000000000000000000000000000000000000000000000000008152508160009080519060200190620000c49291906200013b565b508060019080519060200190620000dd9291906200013b565b50505073de29d060d45901fb19ed6c6e959eb22d8626708e600a60006101000a81548173ffffffffffffffffffffffffffffffffffffffff021916908373ffffffffffffffffffffffffffffffffffffffff16021790555062000250565b8280546200014990620001eb565b90600052602060002090601f0160209004810192826200016d5760008555620001b9565b82601f106200018857805160ff1916838001178555620001b9565b82800160010185558215620001b9579182015b82811115620001b85782518255916020019190600101906200019b565b5b509050620001c89190620001cc565b5090565b5b80821115620001e7576000816000905550600101620001cd565b5090565b600060028204905060018216806200020457607f821691505b602082108114156200021b576200021a62000221565b5b50919050565b7f4e487b7100000000000000000000000000000000000000000000000000000000600052602260045260246000fd5b615b9d80620002606000396000f3fe60806040526004361061014b5760003560e01c806370a08231116100b6578063b88d4fde1161006f578063b88d4fde146104d7578063c87b56dd14610500578063d5f39a5b1461053d578063d82fe3b71461057a578063e985e9c5146105c2578063f383b07e146105ff5761014b565b806370a08231146103b957806385831079146103f657806385b1c79d1461043e57806395d89b411461045a578063a0712d6814610485578063a22cb465146104ae5761014b565b806323b872dd1161010857806323b872dd146102875780632f745c59146102b057806342842e0e146102ed5780634c64c94d146103165780634f6ccce71461033f5780636352211e1461037c5761014b565b806301ffc9a71461015057806306fdde031461018d578063081812fc146101b8578063095ea7b3146101f557806318160ddd1461021e5780631992f36d14610249575b600080fd5b34801561015c57600080fd5b5061017760048036038101906101729190614556565b61061b565b6040516101849190614c3d565b60405180910390f35b34801561019957600080fd5b506101a261062d565b6040516101af9190614cc4565b60405180910390f35b3480156101c457600080fd5b506101df60048036038101906101da91906145b0565b6106bf565b6040516101ec9190614bd6565b60405180910390f35b34801561020157600080fd5b5061021c600480360381019061021791906144e9565b610744565b005b34801561022a57600080fd5b5061023361085c565b6040516102409190614f31565b60405180910390f35b34801561025557600080fd5b50610270600480360381019061026b91906145b0565b610869565b60405161027e929190614f06565b60405180910390f35b34801561029357600080fd5b506102ae60048036038101906102a991906143d3565b610993565b005b3480156102bc57600080fd5b506102d760048036038101906102d291906144e9565b6109f3565b6040516102e49190614f31565b60405180910390f35b3480156102f957600080fd5b50610314600480360381019061030f91906143d3565b610a98565b005b34801561032257600080fd5b5061033d6004803603810190610338919061461d565b610ab8565b005b34801561034b57600080fd5b50610366600480360381019061036191906145b0565b610dec565b6040516103739190614f31565b60405180910390f35b34801561038857600080fd5b506103a3600480360381019061039e91906145b0565b610e5d565b6040516103b09190614bd6565b60405180910390f35b3480156103c557600080fd5b506103e060048036038101906103db9190614366565b610f0f565b6040516103ed9190614f31565b60405180910390f35b34801561040257600080fd5b5061041d600480360381019061041891906145b0565b610fc7565b6040516104359c9b9a999897969594939291906150b2565b60405180910390f35b610458600480360381019061045391906145dd565b611037565b005b34801561046657600080fd5b5061046f61191c565b60405161047c9190614cc4565b60405180910390f35b34801561049157600080fd5b506104ac60048036038101906104a791906145b0565b6119ae565b005b3480156104ba57600080fd5b506104d560048036038101906104d091906144a9565b611b1e565b005b3480156104e357600080fd5b506104fe60048036038101906104f99190614426565b611b34565b005b34801561050c57600080fd5b50610527600480360381019061052291906145b0565b611b96565b6040516105349190614cc4565b60405180910390f35b34801561054957600080fd5b50610564600480360381019061055f91906145b0565b611c3d565b6040516105719190614f31565b60405180910390f35b34801561058657600080fd5b506105a1600480360381019061059c91906145b0565b611c55565b6040516105b99c9b9a999897969594939291906150b2565b60405180910390f35b3480156105ce57600080fd5b506105e960048036038101906105e49190614393565b611cb5565b6040516105f69190614c3d565b60405180910390f35b610619600480360381019061061491906145dd565b611d49565b005b60006106268261262e565b9050919050565b60606000805461063c90615401565b80601f016020809104026020016040519081016040528092919081815260200182805461066890615401565b80156106b55780601f1061068a576101008083540402835291602001916106b5565b820191906000526020600020905b81548152906001019060200180831161069857829003601f168201915b5050505050905090565b60006106ca826126a8565b610709576040517f08c379a000000000000000000000000000000000000000000000000000000000815260040161070090614e46565b60405180910390fd5b6004600083815260200190815260200160002060009054906101000a900473ffffffffffffffffffffffffffffffffffffffff169050919050565b600061074f82610e5d565b90508073ffffffffffffffffffffffffffffffffffffffff168373ffffffffffffffffffffffffffffffffffffffff1614156107c0576040517f08c379a00000000000000000000000000000000000000000000000000000000081526004016107b790614e86565b60405180910390fd5b8073ffffffffffffffffffffffffffffffffffffffff166107df612714565b73ffffffffffffffffffffffffffffffffffffffff16148061080e575061080d81610808612714565b611cb5565b5b61084d576040517f08c379a000000000000000000000000000000000000000000000000000000000815260040161084490614dc6565b60405180910390fd5b610857838361271c565b505050565b6000600880549050905090565b6010602052806000526040600020600091509050806000016040518061018001604052908160008201548152602001600182015481526020016002820154815260200160038201548152602001600482015481526020016005820154815260200160068201548152602001600782015481526020016008820154815260200160098201548152602001600a8201548152602001600b820154815250509080600c016040518061018001604052908160008201548152602001600182015481526020016002820154815260200160038201548152602001600482015481526020016005820154815260200160068201548152602001600782015481526020016008820154815260200160098201548152602001600a8201548152602001600b82015481525050905082565b6109a461099e612714565b826127d5565b6109e3576040517f08c379a00000000000000000000000000000000000000000000000000000000081526004016109da90614ea6565b60405180910390fd5b6109ee8383836128b3565b505050565b60006109fe83610f0f565b8210610a3f576040517f08c379a0000000000000000000000000000000000000000000000000000000008152600401610a3690614ce6565b60405180910390fd5b600660008473ffffffffffffffffffffffffffffffffffffffff1673ffffffffffffffffffffffffffffffffffffffff168152602001908152602001600020600083815260200190815260200160002054905092915050565b610ab383838360405180602001604052806000815250611b34565b505050565b7f0ed9918e573b159b62731bc88263b9ce84e79c6335fbba2b28f981840126e16f612b67604051610ae99190614c58565b60405180910390a16000600467ffffffffffffffff811115610b0e57610b0d6155d3565b5b604051908082528060200260200182016040528015610b3c5781602001602082028036833780820191505090505b5090508481600081518110610b5457610b536155a4565b5b6020026020010181815250508381600181518110610b7557610b746155a4565b5b6020026020010181815250508281600281518110610b9657610b956155a4565b5b6020026020010181815250508181600381518110610bb757610bb66155a4565b5b602002602001018181525050600a60009054906101000a900473ffffffffffffffffffffffffffffffffffffffff1673ffffffffffffffffffffffffffffffffffffffff16632c9dd5c0600c54836040518363ffffffff1660e01b8152600401610c22929190614f4c565b602060405180830381600087803b158015610c3c57600080fd5b505af1158015610c50573d6000803e3d6000fd5b505050506040513d601f19601f82011682018060405250810190610c749190614529565b50600e8581548110610c8957610c886155a4565b5b90600052602060002090600c0201600f600086815260200190815260200160002060008201548160000155600182015481600101556002820154816002015560038201548160030155600482015481600401556005820154816005015560068201548160060155600782015481600701556008820154816008015560098201548160090155600a82015481600a0155600b82015481600b015590505060016011600087815260200190815260200160002054610d45919061523e565b60116000878152602001908152602001600020819055507f510a8d0a61f3ec9ef2328338cfc3429d30261d8781d56dd0507cb19e2ed63a9c856011600088815260200190815260200160002054604051610da0929190614f7c565b60405180910390a17fb8d7090364da4a6371334296aaf588e8d119f8490ac61ce968a539406164f5fb600c548686604051610ddd93929190614fe3565b60405180910390a15050505050565b6000610df661085c565b8210610e37576040517f08c379a0000000000000000000000000000000000000000000000000000000008152600401610e2e90614ee6565b60405180910390fd5b60088281548110610e4b57610e4a6155a4565b5b90600052602060002001549050919050565b6000806002600084815260200190815260200160002060009054906101000a900473ffffffffffffffffffffffffffffffffffffffff169050600073ffffffffffffffffffffffffffffffffffffffff168173ffffffffffffffffffffffffffffffffffffffff161415610f06576040517f08c379a0000000000000000000000000000000000000000000000000000000008152600401610efd90614e06565b60405180910390fd5b80915050919050565b60008073ffffffffffffffffffffffffffffffffffffffff168273ffffffffffffffffffffffffffffffffffffffff161415610f80576040517f08c379a0000000000000000000000000000000000000000000000000000000008152600401610f7790614de6565b60405180910390fd5b600360008373ffffffffffffffffffffffffffffffffffffffff1673ffffffffffffffffffffffffffffffffffffffff168152602001908152602001600020549050919050565b600e8181548110610fd757600080fd5b90600052602060002090600c020160009150905080600001549080600101549080600201549080600301549080600401549080600501549080600601549080600701549080600801549080600901549080600a01549080600b015490508c565b66470de4df82000034101561104b57600080fd5b3373ffffffffffffffffffffffffffffffffffffffff1661106b83610e5d565b73ffffffffffffffffffffffffffffffffffffffff161461108b57600080fd5b61109361085c565b821061109e57600080fd5b6110a661085c565b81106110b157600080fd5b7f3593df2963c20760afeec7bc9ae99f0ad8227ec08877590930b113d33df9c06760016040516110e19190614c73565b60405180910390a16000600e83815481106110ff576110fe6155a4565b5b90600052602060002090600c02016040518061018001604052908160008201548152602001600182015481526020016002820154815260200160038201548152602001600482015481526020016005820154815260200160068201548152602001600782015481526020016008820154815260200160098201548152602001600a8201548152602001600b8201548152505090506000600e83815481106111a9576111a86155a4565b5b90600052602060002090600c02016040518061018001604052908160008201548152602001600182015481526020016002820154815260200160038201548152602001600482015481526020016005820154815260200160068201548152602001600782015481526020016008820154815260200160098201548152602001600a8201548152602001600b8201548152505090506000611247612b1a565b90507f3593df2963c20760afeec7bc9ae99f0ad8227ec08877590930b113d33df9c06760026040516112799190614c8e565b60405180910390a16000601967ffffffffffffffff81111561129e5761129d6155d3565b5b6040519080825280602002602001820160405280156112cc5781602001602082028036833780820191505090505b5090508360000151816000815181106112e8576112e76155a4565b5b60200260200101818152505083602001518160018151811061130d5761130c6155a4565b5b602002602001018181525050836040015181600281518110611332576113316155a4565b5b602002602001018181525050836060015181600381518110611357576113566155a4565b5b60200260200101818152505083608001518160048151811061137c5761137b6155a4565b5b6020026020010181815250508360a00151816005815181106113a1576113a06155a4565b5b6020026020010181815250508360c00151816006815181106113c6576113c56155a4565b5b6020026020010181815250508360e00151816007815181106113eb576113ea6155a4565b5b60200260200101818152505083610100015181600881518110611411576114106155a4565b5b60200260200101818152505083610120015181600981518110611437576114366155a4565b5b60200260200101818152505083610140015181600a8151811061145d5761145c6155a4565b5b60200260200101818152505083610160015181600b81518110611483576114826155a4565b5b602002602001018181525050826000015181600c815181106114a8576114a76155a4565b5b602002602001018181525050826020015181600d815181106114cd576114cc6155a4565b5b602002602001018181525050826040015181600e815181106114f2576114f16155a4565b5b602002602001018181525050826060015181600f81518110611517576115166155a4565b5b60200260200101818152505082608001518160108151811061153c5761153b6155a4565b5b6020026020010181815250508260a0015181601181518110611561576115606155a4565b5b6020026020010181815250508260c0015181601281518110611586576115856155a4565b5b6020026020010181815250508260e00151816013815181106115ab576115aa6155a4565b5b602002602001018181525050826101000151816014815181106115d1576115d06155a4565b5b602002602001018181525050826101200151816015815181106115f7576115f66155a4565b5b6020026020010181815250508261014001518160168151811061161d5761161c6155a4565b5b60200260200101818152505082610160015181601781518110611643576116426155a4565b5b6020026020010181815250508181601881518110611664576116636155a4565b5b6020026020010181815250507f3593df2963c20760afeec7bc9ae99f0ad8227ec08877590930b113d33df9c06760036040516116a09190614ca9565b60405180910390a1600a60009054906101000a900473ffffffffffffffffffffffffffffffffffffffff1673ffffffffffffffffffffffffffffffffffffffff16633e3aa6c534600c547f0397f7783310f752c90187fffbd53489b1ff1f87fcf4636e32dc6bcbbf0b224f856040518563ffffffff1660e01b815260040161172a93929190614fa5565b6020604051808303818588803b15801561174357600080fd5b505af1158015611757573d6000803e3d6000fd5b50505050506040513d601f19601f8201168201806040525081019061177c9190614529565b5060405180604001604052808581526020018481525060106000848152602001908152602001600020600082015181600001600082015181600001556020820151816001015560408201518160020155606082015181600301556080820151816004015560a0820151816005015560c0820151816006015560e082015181600701556101008201518160080155610120820151816009015561014082015181600a015561016082015181600b01555050602082015181600c01600082015181600001556020820151816001015560408201518160020155606082015181600301556080820151816004015560a0820151816005015560c0820151816006015560e082015181600701556101008201518160080155610120820151816009015561014082015181600a015561016082015181600b015550509050503373ffffffffffffffffffffffffffffffffffffffff167fd02fce1acafa0b604f24aaad2d7c0a36c749f4b333abc05fc83ba197d5e0705c85600001518560000151600c543460405161190c949392919061501a565b60405180910390a2505050505050565b60606001805461192b90615401565b80601f016020809104026020016040519081016040528092919081815260200182805461195790615401565b80156119a45780601f10611979576101008083540402835291602001916119a4565b820191906000526020600020905b81548152906001019060200180831161198757829003601f168201915b5050505050905090565b6000811180156119bf575061028a81105b6119fe576040517f08c379a00000000000000000000000000000000000000000000000000000000081526004016119f590614ec6565b60405180910390fd5b6000600e8054905090506000611a148383612b38565b9050600e8190806001815401808255809150506001900390600052602060002090600c0201600090919091909150600082015181600001556020820151816001015560408201518160020155606082015181600301556080820151816004015560a0820151816005015560c0820151816006015560e082015181600701556101008201518160080155610120820151816009015561014082015181600a015561016082015181600b015550507f4e55bd6db2c9ffa320eac64df3b7d1a3ba28ee53ce174854fc3a1918243aa01c828260200151836040015184606001518560800151604051611b0795949392919061505f565b60405180910390a1611b1933836132c9565b505050565b611b30611b29612714565b83836132e7565b5050565b611b45611b3f612714565b836127d5565b611b84576040517f08c379a0000000000000000000000000000000000000000000000000000000008152600401611b7b90614ea6565b60405180910390fd5b611b9084848484613454565b50505050565b6060611ba1826126a8565b611be0576040517f08c379a0000000000000000000000000000000000000000000000000000000008152600401611bd790614e66565b60405180910390fd5b6000611bea6134b0565b90506000815111611c0a5760405180602001604052806000815250611c35565b80611c14846134c7565b604051602001611c25929190614b75565b6040516020818303038152906040525b915050919050565b60116020528060005260406000206000915090505481565b600f60205280600052604060002060009150905080600001549080600101549080600201549080600301549080600401549080600501549080600601549080600701549080600801549080600901549080600a01549080600b015490508c565b6000600560008473ffffffffffffffffffffffffffffffffffffffff1673ffffffffffffffffffffffffffffffffffffffff16815260200190815260200160002060008373ffffffffffffffffffffffffffffffffffffffff1673ffffffffffffffffffffffffffffffffffffffff16815260200190815260200160002060009054906101000a900460ff16905092915050565b66470de4df820000341015611d5d57600080fd5b3373ffffffffffffffffffffffffffffffffffffffff16611d7d83610e5d565b73ffffffffffffffffffffffffffffffffffffffff1614611d9d57600080fd5b611da561085c565b8210611db057600080fd5b611db861085c565b8110611dc357600080fd5b7f3593df2963c20760afeec7bc9ae99f0ad8227ec08877590930b113d33df9c0676001604051611df39190614c73565b60405180910390a16000600e8381548110611e1157611e106155a4565b5b90600052602060002090600c02016040518061018001604052908160008201548152602001600182015481526020016002820154815260200160038201548152602001600482015481526020016005820154815260200160068201548152602001600782015481526020016008820154815260200160098201548152602001600a8201548152602001600b8201548152505090506000600e8381548110611ebb57611eba6155a4565b5b90600052602060002090600c02016040518061018001604052908160008201548152602001600182015481526020016002820154815260200160038201548152602001600482015481526020016005820154815260200160068201548152602001600782015481526020016008820154815260200160098201548152602001600a8201548152602001600b8201548152505090506000611f59612b1a565b90507f3593df2963c20760afeec7bc9ae99f0ad8227ec08877590930b113d33df9c0676002604051611f8b9190614c8e565b60405180910390a16000601967ffffffffffffffff811115611fb057611faf6155d3565b5b604051908082528060200260200182016040528015611fde5781602001602082028036833780820191505090505b509050836000015181600081518110611ffa57611ff96155a4565b5b60200260200101818152505083602001518160018151811061201f5761201e6155a4565b5b602002602001018181525050836040015181600281518110612044576120436155a4565b5b602002602001018181525050836060015181600381518110612069576120686155a4565b5b60200260200101818152505083608001518160048151811061208e5761208d6155a4565b5b6020026020010181815250508360a00151816005815181106120b3576120b26155a4565b5b6020026020010181815250508360c00151816006815181106120d8576120d76155a4565b5b6020026020010181815250508360e00151816007815181106120fd576120fc6155a4565b5b60200260200101818152505083610100015181600881518110612123576121226155a4565b5b60200260200101818152505083610120015181600981518110612149576121486155a4565b5b60200260200101818152505083610140015181600a8151811061216f5761216e6155a4565b5b60200260200101818152505083610160015181600b81518110612195576121946155a4565b5b602002602001018181525050826000015181600c815181106121ba576121b96155a4565b5b602002602001018181525050826020015181600d815181106121df576121de6155a4565b5b602002602001018181525050826040015181600e81518110612204576122036155a4565b5b602002602001018181525050826060015181600f81518110612229576122286155a4565b5b60200260200101818152505082608001518160108151811061224e5761224d6155a4565b5b6020026020010181815250508260a0015181601181518110612273576122726155a4565b5b6020026020010181815250508260c0015181601281518110612298576122976155a4565b5b6020026020010181815250508260e00151816013815181106122bd576122bc6155a4565b5b602002602001018181525050826101000151816014815181106122e3576122e26155a4565b5b60200260200101818152505082610120015181601581518110612309576123086155a4565b5b6020026020010181815250508261014001518160168151811061232f5761232e6155a4565b5b60200260200101818152505082610160015181601781518110612355576123546155a4565b5b6020026020010181815250508181601881518110612376576123756155a4565b5b6020026020010181815250507f3593df2963c20760afeec7bc9ae99f0ad8227ec08877590930b113d33df9c06760036040516123b29190614ca9565b60405180910390a1600a60009054906101000a900473ffffffffffffffffffffffffffffffffffffffff1673ffffffffffffffffffffffffffffffffffffffff16633e3aa6c534600c547f02d8dd67d94ff9987fba396772e78af45776e50ec5231a489977b2973c8ad302856040518563ffffffff1660e01b815260040161243c93929190614fa5565b6020604051808303818588803b15801561245557600080fd5b505af1158015612469573d6000803e3d6000fd5b50505050506040513d601f19601f8201168201806040525081019061248e9190614529565b5060405180604001604052808581526020018481525060106000848152602001908152602001600020600082015181600001600082015181600001556020820151816001015560408201518160020155606082015181600301556080820151816004015560a0820151816005015560c0820151816006015560e082015181600701556101008201518160080155610120820151816009015561014082015181600a015561016082015181600b01555050602082015181600c01600082015181600001556020820151816001015560408201518160020155606082015181600301556080820151816004015560a0820151816005015560c0820151816006015560e082015181600701556101008201518160080155610120820151816009015561014082015181600a015561016082015181600b015550509050503373ffffffffffffffffffffffffffffffffffffffff167fd02fce1acafa0b604f24aaad2d7c0a36c749f4b333abc05fc83ba197d5e0705c85600001518560000151600c543460405161261e949392919061501a565b60405180910390a2505050505050565b60007f780e9d63000000000000000000000000000000000000000000000000000000007bffffffffffffffffffffffffffffffffffffffffffffffffffffffff1916827bffffffffffffffffffffffffffffffffffffffffffffffffffffffff191614806126a157506126a082613628565b5b9050919050565b60008073ffffffffffffffffffffffffffffffffffffffff166002600084815260200190815260200160002060009054906101000a900473ffffffffffffffffffffffffffffffffffffffff1673ffffffffffffffffffffffffffffffffffffffff1614159050919050565b600033905090565b816004600083815260200190815260200160002060006101000a81548173ffffffffffffffffffffffffffffffffffffffff021916908373ffffffffffffffffffffffffffffffffffffffff160217905550808273ffffffffffffffffffffffffffffffffffffffff1661278f83610e5d565b73ffffffffffffffffffffffffffffffffffffffff167f8c5be1e5ebec7d5bd14f71427d1e84f3dd0314c0f7b2291e5b200ac8c7c3b92560405160405180910390a45050565b60006127e0826126a8565b61281f576040517f08c379a000000000000000000000000000000000000000000000000000000000815260040161281690614da6565b60405180910390fd5b600061282a83610e5d565b90508073ffffffffffffffffffffffffffffffffffffffff168473ffffffffffffffffffffffffffffffffffffffff16148061286c575061286b8185611cb5565b5b806128aa57508373ffffffffffffffffffffffffffffffffffffffff16612892846106bf565b73ffffffffffffffffffffffffffffffffffffffff16145b91505092915050565b8273ffffffffffffffffffffffffffffffffffffffff166128d382610e5d565b73ffffffffffffffffffffffffffffffffffffffff1614612929576040517f08c379a000000000000000000000000000000000000000000000000000000000815260040161292090614d26565b60405180910390fd5b600073ffffffffffffffffffffffffffffffffffffffff168273ffffffffffffffffffffffffffffffffffffffff161415612999576040517f08c379a000000000000000000000000000000000000000000000000000000000815260040161299090614d66565b60405180910390fd5b6129a483838361370a565b6129af60008261271c565b6001600360008573ffffffffffffffffffffffffffffffffffffffff1673ffffffffffffffffffffffffffffffffffffffff16815260200190815260200160002060008282546129ff91906152c5565b925050819055506001600360008473ffffffffffffffffffffffffffffffffffffffff1673ffffffffffffffffffffffffffffffffffffffff1681526020019081526020016000206000828254612a56919061523e565b92505081905550816002600083815260200190815260200160002060006101000a81548173ffffffffffffffffffffffffffffffffffffffff021916908373ffffffffffffffffffffffffffffffffffffffff160217905550808273ffffffffffffffffffffffffffffffffffffffff168473ffffffffffffffffffffffffffffffffffffffff167fddf252ad1be2c89b69c2b068fc378daa952ba7f163c4a11628f55a4df523b3ef60405160405180910390a4612b1583838361371a565b505050565b6000600d6000815480929190612b2f90615464565b91905055905090565b612b40614217565b6001831415612b7a57612b73826098606f606a606f600360636003601e612b6561371f565b612b6d613730565b8e61374d565b90506132c3565b6002831415612bb457612bad8260a7607d607b607e6003600760036028612b9f61371f565b612ba7613730565b8e61374d565b90506132c3565b6003831415612bee57612be78260bb60a7609160c06003600760036032612bd961371f565b612be1613730565b8e61374d565b90506132c3565b6004831415612c2857612c218260926072608060686001606360016028612c1361371f565b612c1b613730565b8e61374d565b90506132c3565b6005831415612c6257612c5b8260a5607f609160796001606360016028612c4d61371f565b612c55613730565b8e61374d565b90506132c3565b6006831415612c9c57612c958260b960c860a760b36001600960016032612c8761371f565b612c8f613730565b8e61374d565b90506132c3565b6007831415612cd657612ccf826097606e60686080600260636002601e612cc161371f565b612cc9613730565b8e61374d565b90506132c3565b6008831415612d1057612d098260a6607e607960916002606360026028612cfb61371f565b612d03613730565b8e61374d565b90506132c3565b6009831415612d4a57612d438260ba6094608f60a76002606360026032612d3561371f565b612d3d613730565b8e61374d565b90506132c3565b600a831415612d6a57612d6382600b6063866001613801565b90506132c3565b600b831415612d8a57612d8382600b6063866002613801565b90506132c3565b600c831415612daa57612da382600b6009866003613801565b90506132c3565b600d831415612dca57612dc382600b6007866001613801565b90506132c3565b600e831415612dea57612de382600b6007866002613801565b90506132c3565b600f831415612e0a57612e0382600b6007866003613801565b90506132c3565b6010831415612e2a57612e238260006009866001613801565b90506132c3565b6011831415612e4a57612e438260006009866002613801565b90506132c3565b6012831415612e6a57612e638260006009866003613801565b90506132c3565b6013831415612e8a57612e838260006063866001613801565b90506132c3565b6014831415612eaa57612ea38260006063866002613801565b90506132c3565b6015831415612eca57612ec38260006009866001613801565b90506132c3565b6016831415612eea57612ee38260006009866002613801565b90506132c3565b6017831415612f0a57612f038260076063866001613801565b90506132c3565b6018831415612f2a57612f238260076063866002613801565b90506132c3565b6019831415612f4a57612f438260046063866002613801565b90506132c3565b601a831415612f6a57612f638260046063866003613801565b90506132c3565b601b831415612f8a57612f838260086063866001613801565b90506132c3565b601c831415612faa57612fa38260086063866002613801565b90506132c3565b601d831415612fca57612fc38260076063866001613801565b90506132c3565b601e831415612fea57612fe38260076063866001613801565b90506132c3565b601f83141561300a576130038260076008866003613801565b90506132c3565b602083141561302a576130238260076063866001613801565b90506132c3565b602183141561304a576130438260076063866002613801565b90506132c3565b602283141561306a576130638260076008866003613801565b90506132c3565b602383141561308a576130838260116063866001613801565b90506132c3565b60248314156130aa576130a38260116063866002613801565b90506132c3565b60258314156130ca576130c38260016063866002613801565b90506132c3565b60268314156130ea576130e38260016063866003613801565b90506132c3565b602783141561310a576131038260006011866001613801565b90506132c3565b602883141561312a576131238260006011866002613801565b90506132c3565b602983141561314a576131438260076009866001613801565b90506132c3565b602a83141561316a576131638260076009866002613801565b90506132c3565b602b83141561318a576131838260036007866001613801565b90506132c3565b602c8314156131aa576131a38260036007866002613801565b90506132c3565b602d8314156131ca576131c38260036007866003613801565b90506132c3565b602e8314156131ea576131e382600b6003866001613801565b90506132c3565b602f83141561320a5761320382600b6003866002613801565b90506132c3565b603083141561322a5761322382600b6007866001613801565b90506132c3565b603183141561324a5761324382600b6007866003613801565b90506132c3565b603283141561326a576132638260086063866002613801565b90506132c3565b603383141561328a576132838260086063866003613801565b90506132c3565b60348314156132aa576132a38260006063866002613801565b90506132c3565b6132c08260006063866132bb613915565b613801565b90505b92915050565b6132e3828260405180602001604052806000815250613932565b5050565b8173ffffffffffffffffffffffffffffffffffffffff168373ffffffffffffffffffffffffffffffffffffffff161415613356576040517f08c379a000000000000000000000000000000000000000000000000000000000815260040161334d90614d86565b60405180910390fd5b80600560008573ffffffffffffffffffffffffffffffffffffffff1673ffffffffffffffffffffffffffffffffffffffff16815260200190815260200160002060008473ffffffffffffffffffffffffffffffffffffffff1673ffffffffffffffffffffffffffffffffffffffff16815260200190815260200160002060006101000a81548160ff0219169083151502179055508173ffffffffffffffffffffffffffffffffffffffff168373ffffffffffffffffffffffffffffffffffffffff167f17307eab39ab6107e8899845ad3d59bd9653f200f220920489ca2b5937696c31836040516134479190614c3d565b60405180910390a3505050565b61345f8484846128b3565b61346b8484848461398d565b6134aa576040517f08c379a00000000000000000000000000000000000000000000000000000000081526004016134a190614d06565b60405180910390fd5b50505050565b606060405180602001604052806000815250905090565b6060600082141561350f576040518060400160405280600181526020017f30000000000000000000000000000000000000000000000000000000000000008152509050613623565b600082905060005b6000821461354157808061352a90615464565b915050600a8261353a9190615294565b9150613517565b60008167ffffffffffffffff81111561355d5761355c6155d3565b5b6040519080825280601f01601f19166020018201604052801561358f5781602001600182028036833780820191505090505b5090505b6000851461361c576001826135a891906152c5565b9150600a856135b791906154b7565b60306135c3919061523e565b60f81b8183815181106135d9576135d86155a4565b5b60200101907effffffffffffffffffffffffffffffffffffffffffffffffffffffffffffff1916908160001a905350600a856136159190615294565b9450613593565b8093505050505b919050565b60007f80ac58cd000000000000000000000000000000000000000000000000000000007bffffffffffffffffffffffffffffffffffffffffffffffffffffffff1916827bffffffffffffffffffffffffffffffffffffffffffffffffffffffff191614806136f357507f5b5e139f000000000000000000000000000000000000000000000000000000007bffffffffffffffffffffffffffffffffffffffffffffffffffffffff1916827bffffffffffffffffffffffffffffffffffffffffffffffffffffffff1916145b80613703575061370282613b24565b5b9050919050565b613715838383613b8e565b505050565b505050565b600061372b6011613ca2565b905090565b6000602861373e6032613ca2565b613748919061523e565b905090565b613755614217565b6040518061018001604052808e815260200161376f613cfe565b8e61377a919061523e565b8152602001613787613cfe565b8d613792919061523e565b815260200161379f613cfe565b8c6137aa919061523e565b81526020016137b7613cfe565b8b6137c2919061523e565b81526020018981526020018881526020018781526020018681526020018581526020018481526020018381525090509c9b505050505050505050505050565b613809614217565b600060649050600283141561382857601481613825919061523e565b90505b60038314156138415760328161383e919061523e565b90505b600483141561385a57604681613857919061523e565b90505b604051806101800160405280888152602001613874613cfe565b8361387f919061523e565b815260200161388c613cfe565b83613897919061523e565b81526020016138a4613cfe565b836138af919061523e565b81526020016138bc613cfe565b836138c7919061523e565b81526020018781526020018681526020018781526020016138e6613730565b81526020016138f361371f565b8152602001613900613730565b81526020018581525091505095945050505050565b600060016139236002613ca2565b61392d919061523e565b905090565b61393c8383613d0f565b613949600084848461398d565b613988576040517f08c379a000000000000000000000000000000000000000000000000000000000815260040161397f90614d06565b60405180910390fd5b505050565b60006139ae8473ffffffffffffffffffffffffffffffffffffffff16613ee9565b15613b17578373ffffffffffffffffffffffffffffffffffffffff1663150b7a026139d7612714565b8786866040518563ffffffff1660e01b81526004016139f99493929190614bf1565b602060405180830381600087803b158015613a1357600080fd5b505af1925050508015613a4457506040513d601f19601f82011682018060405250810190613a419190614583565b60015b613ac7573d8060008114613a74576040519150601f19603f3d011682016040523d82523d6000602084013e613a79565b606091505b50600081511415613abf576040517f08c379a0000000000000000000000000000000000000000000000000000000008152600401613ab690614d06565b60405180910390fd5b805181602001fd5b63150b7a0260e01b7bffffffffffffffffffffffffffffffffffffffffffffffffffffffff1916817bffffffffffffffffffffffffffffffffffffffffffffffffffffffff191614915050613b1c565b600190505b949350505050565b60007f01ffc9a7000000000000000000000000000000000000000000000000000000007bffffffffffffffffffffffffffffffffffffffffffffffffffffffff1916827bffffffffffffffffffffffffffffffffffffffffffffffffffffffff1916149050919050565b613b99838383613f0c565b600073ffffffffffffffffffffffffffffffffffffffff168373ffffffffffffffffffffffffffffffffffffffff161415613bdc57613bd781613f11565b613c1b565b8173ffffffffffffffffffffffffffffffffffffffff168373ffffffffffffffffffffffffffffffffffffffff1614613c1a57613c198382613f5a565b5b5b600073ffffffffffffffffffffffffffffffffffffffff168273ffffffffffffffffffffffffffffffffffffffff161415613c5e57613c59816140c7565b613c9d565b8273ffffffffffffffffffffffffffffffffffffffff168273ffffffffffffffffffffffffffffffffffffffff1614613c9c57613c9b8282614198565b5b5b505050565b6000600b6000815480929190613cb790615464565b9190505550814442600b54604051602001613cd493929190614b99565b6040516020818303038152906040528051906020012060001c613cf791906154b7565b9050919050565b6000613d0a6014613ca2565b905090565b600073ffffffffffffffffffffffffffffffffffffffff168273ffffffffffffffffffffffffffffffffffffffff161415613d7f576040517f08c379a0000000000000000000000000000000000000000000000000000000008152600401613d7690614e26565b60405180910390fd5b613d88816126a8565b15613dc8576040517f08c379a0000000000000000000000000000000000000000000000000000000008152600401613dbf90614d46565b60405180910390fd5b613dd46000838361370a565b6001600360008473ffffffffffffffffffffffffffffffffffffffff1673ffffffffffffffffffffffffffffffffffffffff1681526020019081526020016000206000828254613e24919061523e565b92505081905550816002600083815260200190815260200160002060006101000a81548173ffffffffffffffffffffffffffffffffffffffff021916908373ffffffffffffffffffffffffffffffffffffffff160217905550808273ffffffffffffffffffffffffffffffffffffffff16600073ffffffffffffffffffffffffffffffffffffffff167fddf252ad1be2c89b69c2b068fc378daa952ba7f163c4a11628f55a4df523b3ef60405160405180910390a4613ee56000838361371a565b5050565b6000808273ffffffffffffffffffffffffffffffffffffffff163b119050919050565b505050565b6008805490506009600083815260200190815260200160002081905550600881908060018154018082558091505060019003906000526020600020016000909190919091505550565b60006001613f6784610f0f565b613f7191906152c5565b9050600060076000848152602001908152602001600020549050818114614056576000600660008673ffffffffffffffffffffffffffffffffffffffff1673ffffffffffffffffffffffffffffffffffffffff168152602001908152602001600020600084815260200190815260200160002054905080600660008773ffffffffffffffffffffffffffffffffffffffff1673ffffffffffffffffffffffffffffffffffffffff168152602001908152602001600020600084815260200190815260200160002081905550816007600083815260200190815260200160002081905550505b6007600084815260200190815260200160002060009055600660008573ffffffffffffffffffffffffffffffffffffffff1673ffffffffffffffffffffffffffffffffffffffff16815260200190815260200160002060008381526020019081526020016000206000905550505050565b600060016008805490506140db91906152c5565b905060006009600084815260200190815260200160002054905060006008838154811061410b5761410a6155a4565b5b90600052602060002001549050806008838154811061412d5761412c6155a4565b5b90600052602060002001819055508160096000838152602001908152602001600020819055506009600085815260200190815260200160002060009055600880548061417c5761417b615575565b5b6001900381819060005260206000200160009055905550505050565b60006141a383610f0f565b905081600660008573ffffffffffffffffffffffffffffffffffffffff1673ffffffffffffffffffffffffffffffffffffffff168152602001908152602001600020600083815260200190815260200160002081905550806007600084815260200190815260200160002081905550505050565b6040518061018001604052806000815260200160008152602001600081526020016000815260200160008152602001600081526020016000815260200160008152602001600081526020016000815260200160008152602001600081525090565b600061428b61428684615191565b61516c565b9050828152602081018484840111156142a7576142a6615607565b5b6142b28482856153bf565b509392505050565b6000813590506142c981615af4565b92915050565b6000813590506142de81615b0b565b92915050565b6000815190506142f381615b22565b92915050565b60008135905061430881615b39565b92915050565b60008151905061431d81615b39565b92915050565b600082601f83011261433857614337615602565b5b8135614348848260208601614278565b91505092915050565b60008135905061436081615b50565b92915050565b60006020828403121561437c5761437b615611565b5b600061438a848285016142ba565b91505092915050565b600080604083850312156143aa576143a9615611565b5b60006143b8858286016142ba565b92505060206143c9858286016142ba565b9150509250929050565b6000806000606084860312156143ec576143eb615611565b5b60006143fa868287016142ba565b935050602061440b868287016142ba565b925050604061441c86828701614351565b9150509250925092565b600080600080608085870312156144405761443f615611565b5b600061444e878288016142ba565b945050602061445f878288016142ba565b935050604061447087828801614351565b925050606085013567ffffffffffffffff8111156144915761449061560c565b5b61449d87828801614323565b91505092959194509250565b600080604083850312156144c0576144bf615611565b5b60006144ce858286016142ba565b92505060206144df858286016142cf565b9150509250929050565b60008060408385031215614500576144ff615611565b5b600061450e858286016142ba565b925050602061451f85828601614351565b9150509250929050565b60006020828403121561453f5761453e615611565b5b600061454d848285016142e4565b91505092915050565b60006020828403121561456c5761456b615611565b5b600061457a848285016142f9565b91505092915050565b60006020828403121561459957614598615611565b5b60006145a78482850161430e565b91505092915050565b6000602082840312156145c6576145c5615611565b5b60006145d484828501614351565b91505092915050565b600080604083850312156145f4576145f3615611565b5b600061460285828601614351565b925050602061461385828601614351565b9150509250929050565b6000806000806080858703121561463757614636615611565b5b600061464587828801614351565b945050602061465687828801614351565b935050604061466787828801614351565b925050606061467887828801614351565b91505092959194509250565b60006146908383614b40565b60208301905092915050565b6146a5816152f9565b82525050565b60006146b6826151d2565b6146c08185615200565b93506146cb836151c2565b8060005b838110156146fc5781516146e38882614684565b97506146ee836151f3565b9250506001810190506146cf565b5085935050505092915050565b6147128161530b565b82525050565b6000614723826151dd565b61472d8185615211565b935061473d8185602086016153ce565b61474681615616565b840191505092915050565b61475a81615377565b82525050565b61476981615389565b82525050565b6147788161539b565b82525050565b614787816153ad565b82525050565b6000614798826151e8565b6147a28185615222565b93506147b28185602086016153ce565b6147bb81615616565b840191505092915050565b60006147d1826151e8565b6147db8185615233565b93506147eb8185602086016153ce565b80840191505092915050565b6000614804602b83615222565b915061480f82615627565b604082019050919050565b6000614827603283615222565b915061483282615676565b604082019050919050565b600061484a602583615222565b9150614855826156c5565b604082019050919050565b600061486d601c83615222565b915061487882615714565b602082019050919050565b6000614890602483615222565b915061489b8261573d565b604082019050919050565b60006148b3601983615222565b91506148be8261578c565b602082019050919050565b60006148d6602c83615222565b91506148e1826157b5565b604082019050919050565b60006148f9603883615222565b915061490482615804565b604082019050919050565b600061491c602a83615222565b915061492782615853565b604082019050919050565b600061493f602983615222565b915061494a826158a2565b604082019050919050565b6000614962602083615222565b915061496d826158f1565b602082019050919050565b6000614985602c83615222565b91506149908261591a565b604082019050919050565b60006149a8602f83615222565b91506149b382615969565b604082019050919050565b60006149cb602183615222565b91506149d6826159b8565b604082019050919050565b60006149ee603183615222565b91506149f982615a07565b604082019050919050565b6000614a11603183615222565b9150614a1c82615a56565b604082019050919050565b6000614a34602c83615222565b9150614a3f82615aa5565b604082019050919050565b61018082016000820151614a616000850182614b40565b506020820151614a746020850182614b40565b506040820151614a876040850182614b40565b506060820151614a9a6060850182614b40565b506080820151614aad6080850182614b40565b5060a0820151614ac060a0850182614b40565b5060c0820151614ad360c0850182614b40565b5060e0820151614ae660e0850182614b40565b50610100820151614afb610100850182614b40565b50610120820151614b10610120850182614b40565b50610140820151614b25610140850182614b40565b50610160820151614b3a610160850182614b40565b50505050565b614b498161536d565b82525050565b614b588161536d565b82525050565b614b6f614b6a8261536d565b6154ad565b82525050565b6000614b8182856147c6565b9150614b8d82846147c6565b91508190509392505050565b6000614ba58286614b5e565b602082019150614bb58285614b5e565b602082019150614bc58284614b5e565b602082019150819050949350505050565b6000602082019050614beb600083018461469c565b92915050565b6000608082019050614c06600083018761469c565b614c13602083018661469c565b614c206040830185614b4f565b8181036060830152614c328184614718565b905095945050505050565b6000602082019050614c526000830184614709565b92915050565b6000602082019050614c6d6000830184614751565b92915050565b6000602082019050614c886000830184614760565b92915050565b6000602082019050614ca3600083018461476f565b92915050565b6000602082019050614cbe600083018461477e565b92915050565b60006020820190508181036000830152614cde818461478d565b905092915050565b60006020820190508181036000830152614cff816147f7565b9050919050565b60006020820190508181036000830152614d1f8161481a565b9050919050565b60006020820190508181036000830152614d3f8161483d565b9050919050565b60006020820190508181036000830152614d5f81614860565b9050919050565b60006020820190508181036000830152614d7f81614883565b9050919050565b60006020820190508181036000830152614d9f816148a6565b9050919050565b60006020820190508181036000830152614dbf816148c9565b9050919050565b60006020820190508181036000830152614ddf816148ec565b9050919050565b60006020820190508181036000830152614dff8161490f565b9050919050565b60006020820190508181036000830152614e1f81614932565b9050919050565b60006020820190508181036000830152614e3f81614955565b9050919050565b60006020820190508181036000830152614e5f81614978565b9050919050565b60006020820190508181036000830152614e7f8161499b565b9050919050565b60006020820190508181036000830152614e9f816149be565b9050919050565b60006020820190508181036000830152614ebf816149e1565b9050919050565b60006020820190508181036000830152614edf81614a04565b9050919050565b60006020820190508181036000830152614eff81614a27565b9050919050565b600061030082019050614f1c6000830185614a4a565b614f2a610180830184614a4a565b9392505050565b6000602082019050614f466000830184614b4f565b92915050565b6000604082019050614f616000830185614b4f565b8181036020830152614f7381846146ab565b90509392505050565b6000604082019050614f916000830185614b4f565b614f9e6020830184614b4f565b9392505050565b6000606082019050614fba6000830186614b4f565b614fc76020830185614b4f565b8181036040830152614fd981846146ab565b9050949350505050565b6000606082019050614ff86000830186614b4f565b6150056020830185614b4f565b6150126040830184614b4f565b949350505050565b600060808201905061502f6000830187614b4f565b61503c6020830186614b4f565b6150496040830185614b4f565b6150566060830184614b4f565b95945050505050565b600060a0820190506150746000830188614b4f565b6150816020830187614b4f565b61508e6040830186614b4f565b61509b6060830185614b4f565b6150a86080830184614b4f565b9695505050505050565b6000610180820190506150c8600083018f614b4f565b6150d5602083018e614b4f565b6150e2604083018d614b4f565b6150ef606083018c614b4f565b6150fc608083018b614b4f565b61510960a083018a614b4f565b61511660c0830189614b4f565b61512360e0830188614b4f565b615131610100830187614b4f565b61513f610120830186614b4f565b61514d610140830185614b4f565b61515b610160830184614b4f565b9d9c50505050505050505050505050565b6000615176615187565b90506151828282615433565b919050565b6000604051905090565b600067ffffffffffffffff8211156151ac576151ab6155d3565b5b6151b582615616565b9050602081019050919050565b6000819050602082019050919050565b600081519050919050565b600081519050919050565b600081519050919050565b6000602082019050919050565b600082825260208201905092915050565b600082825260208201905092915050565b600082825260208201905092915050565b600081905092915050565b60006152498261536d565b91506152548361536d565b9250827fffffffffffffffffffffffffffffffffffffffffffffffffffffffffffffffff03821115615289576152886154e8565b5b828201905092915050565b600061529f8261536d565b91506152aa8361536d565b9250826152ba576152b9615517565b5b828204905092915050565b60006152d08261536d565b91506152db8361536d565b9250828210156152ee576152ed6154e8565b5b828203905092915050565b60006153048261534d565b9050919050565b60008115159050919050565b6000819050919050565b60007fffffffff0000000000000000000000000000000000000000000000000000000082169050919050565b600073ffffffffffffffffffffffffffffffffffffffff82169050919050565b6000819050919050565b60006153828261536d565b9050919050565b60006153948261536d565b9050919050565b60006153a68261536d565b9050919050565b60006153b88261536d565b9050919050565b82818337600083830152505050565b60005b838110156153ec5780820151818401526020810190506153d1565b838111156153fb576000848401525b50505050565b6000600282049050600182168061541957607f821691505b6020821081141561542d5761542c615546565b5b50919050565b61543c82615616565b810181811067ffffffffffffffff8211171561545b5761545a6155d3565b5b80604052505050565b600061546f8261536d565b91507fffffffffffffffffffffffffffffffffffffffffffffffffffffffffffffffff8214156154a2576154a16154e8565b5b600182019050919050565b6000819050919050565b60006154c28261536d565b91506154cd8361536d565b9250826154dd576154dc615517565b5b828206905092915050565b7f4e487b7100000000000000000000000000000000000000000000000000000000600052601160045260246000fd5b7f4e487b7100000000000000000000000000000000000000000000000000000000600052601260045260246000fd5b7f4e487b7100000000000000000000000000000000000000000000000000000000600052602260045260246000fd5b7f4e487b7100000000000000000000000000000000000000000000000000000000600052603160045260246000fd5b7f4e487b7100000000000000000000000000000000000000000000000000000000600052603260045260246000fd5b7f4e487b7100000000000000000000000000000000000000000000000000000000600052604160045260246000fd5b600080fd5b600080fd5b600080fd5b600080fd5b6000601f19601f8301169050919050565b7f455243373231456e756d657261626c653a206f776e657220696e646578206f7560008201527f74206f6620626f756e6473000000000000000000000000000000000000000000602082015250565b7f4552433732313a207472616e7366657220746f206e6f6e20455243373231526560008201527f63656976657220696d706c656d656e7465720000000000000000000000000000602082015250565b7f4552433732313a207472616e736665722066726f6d20696e636f72726563742060008201527f6f776e6572000000000000000000000000000000000000000000000000000000602082015250565b7f4552433732313a20746f6b656e20616c7265616479206d696e74656400000000600082015250565b7f4552433732313a207472616e7366657220746f20746865207a65726f2061646460008201527f7265737300000000000000000000000000000000000000000000000000000000602082015250565b7f4552433732313a20617070726f766520746f2063616c6c657200000000000000600082015250565b7f4552433732313a206f70657261746f7220717565727920666f72206e6f6e657860008201527f697374656e7420746f6b656e0000000000000000000000000000000000000000602082015250565b7f4552433732313a20617070726f76652063616c6c6572206973206e6f74206f7760008201527f6e6572206e6f7220617070726f76656420666f7220616c6c0000000000000000602082015250565b7f4552433732313a2062616c616e636520717565727920666f7220746865207a6560008201527f726f206164647265737300000000000000000000000000000000000000000000602082015250565b7f4552433732313a206f776e657220717565727920666f72206e6f6e657869737460008201527f656e7420746f6b656e0000000000000000000000000000000000000000000000602082015250565b7f4552433732313a206d696e7420746f20746865207a65726f2061646472657373600082015250565b7f4552433732313a20617070726f76656420717565727920666f72206e6f6e657860008201527f697374656e7420746f6b656e0000000000000000000000000000000000000000602082015250565b7f4552433732314d657461646174613a2055524920717565727920666f72206e6f60008201527f6e6578697374656e7420746f6b656e0000000000000000000000000000000000602082015250565b7f4552433732313a20617070726f76616c20746f2063757272656e74206f776e6560008201527f7200000000000000000000000000000000000000000000000000000000000000602082015250565b7f4552433732313a207472616e736665722063616c6c6572206973206e6f74206f60008201527f776e6572206e6f7220617070726f766564000000000000000000000000000000602082015250565b7f4f6e6c792076616c696420646578206e756d626572732e204d7573742062652060008201527f6265747765656e203120616e6420363439000000000000000000000000000000602082015250565b7f455243373231456e756d657261626c653a20676c6f62616c20696e646578206f60008201527f7574206f6620626f756e64730000000000000000000000000000000000000000602082015250565b615afd816152f9565b8114615b0857600080fd5b50565b615b148161530b565b8114615b1f57600080fd5b50565b615b2b81615317565b8114615b3657600080fd5b50565b615b4281615321565b8114615b4d57600080fd5b50565b615b598161536d565b8114615b6457600080fd5b5056fea2646970667358221220bc8fee840db6bb1dbb99972366b63c814bff99ea2056fb32fb83ecd17c952ca064736f6c63430008070033",
      "opcodes": "PUSH1 0x80 PUSH1 0x40 MSTORE PUSH1 0x0 PUSH1 0xB SSTORE PUSH32 0x52196409D8EDBEB0E7B3A27FE529115AA12AF80DBC468A3E6A112A265B11EB1 PUSH1 0xC SSTORE PUSH1 0x0 PUSH1 0xD SSTORE CALLVALUE DUP1 ISZERO PUSH3 0x3F JUMPI PUSH1 0x0 DUP1 REVERT JUMPDEST POP PUSH1 0x40 MLOAD DUP1 PUSH1 0x40 ADD PUSH1 0x40 MSTORE DUP1 PUSH1 0x3 DUP2 MSTORE PUSH1 0x20 ADD PUSH32 0x4E46540000000000000000000000000000000000000000000000000000000000 DUP2 MSTORE POP PUSH1 0x40 MLOAD DUP1 PUSH1 0x40 ADD PUSH1 0x40 MSTORE DUP1 PUSH1 0x2 DUP2 MSTORE PUSH1 0x20 ADD PUSH32 0x4343000000000000000000000000000000000000000000000000000000000000 DUP2 MSTORE POP DUP2 PUSH1 0x0 SWAP1 DUP1 MLOAD SWAP1 PUSH1 0x20 ADD SWAP1 PUSH3 0xC4 SWAP3 SWAP2 SWAP1 PUSH3 0x13B JUMP JUMPDEST POP DUP1 PUSH1 0x1 SWAP1 DUP1 MLOAD SWAP1 PUSH1 0x20 ADD SWAP1 PUSH3 0xDD SWAP3 SWAP2 SWAP1 PUSH3 0x13B JUMP JUMPDEST POP POP POP PUSH20 0xDE29D060D45901FB19ED6C6E959EB22D8626708E PUSH1 0xA PUSH1 0x0 PUSH2 0x100 EXP DUP2 SLOAD DUP2 PUSH20 0xFFFFFFFFFFFFFFFFFFFFFFFFFFFFFFFFFFFFFFFF MUL NOT AND SWAP1 DUP4 PUSH20 0xFFFFFFFFFFFFFFFFFFFFFFFFFFFFFFFFFFFFFFFF AND MUL OR SWAP1 SSTORE POP PUSH3 0x250 JUMP JUMPDEST DUP3 DUP1 SLOAD PUSH3 0x149 SWAP1 PUSH3 0x1EB JUMP JUMPDEST SWAP1 PUSH1 0x0 MSTORE PUSH1 0x20 PUSH1 0x0 KECCAK256 SWAP1 PUSH1 0x1F ADD PUSH1 0x20 SWAP1 DIV DUP2 ADD SWAP3 DUP3 PUSH3 0x16D JUMPI PUSH1 0x0 DUP6 SSTORE PUSH3 0x1B9 JUMP JUMPDEST DUP3 PUSH1 0x1F LT PUSH3 0x188 JUMPI DUP1 MLOAD PUSH1 0xFF NOT AND DUP4 DUP1 ADD OR DUP6 SSTORE PUSH3 0x1B9 JUMP JUMPDEST DUP3 DUP1 ADD PUSH1 0x1 ADD DUP6 SSTORE DUP3 ISZERO PUSH3 0x1B9 JUMPI SWAP2 DUP3 ADD JUMPDEST DUP3 DUP2 GT ISZERO PUSH3 0x1B8 JUMPI DUP3 MLOAD DUP3 SSTORE SWAP2 PUSH1 0x20 ADD SWAP2 SWAP1 PUSH1 0x1 ADD SWAP1 PUSH3 0x19B JUMP JUMPDEST JUMPDEST POP SWAP1 POP PUSH3 0x1C8 SWAP2 SWAP1 PUSH3 0x1CC JUMP JUMPDEST POP SWAP1 JUMP JUMPDEST JUMPDEST DUP1 DUP3 GT ISZERO PUSH3 0x1E7 JUMPI PUSH1 0x0 DUP2 PUSH1 0x0 SWAP1 SSTORE POP PUSH1 0x1 ADD PUSH3 0x1CD JUMP JUMPDEST POP SWAP1 JUMP JUMPDEST PUSH1 0x0 PUSH1 0x2 DUP3 DIV SWAP1 POP PUSH1 0x1 DUP3 AND DUP1 PUSH3 0x204 JUMPI PUSH1 0x7F DUP3 AND SWAP2 POP JUMPDEST PUSH1 0x20 DUP3 LT DUP2 EQ ISZERO PUSH3 0x21B JUMPI PUSH3 0x21A PUSH3 0x221 JUMP JUMPDEST JUMPDEST POP SWAP2 SWAP1 POP JUMP JUMPDEST PUSH32 0x4E487B7100000000000000000000000000000000000000000000000000000000 PUSH1 0x0 MSTORE PUSH1 0x22 PUSH1 0x4 MSTORE PUSH1 0x24 PUSH1 0x0 REVERT JUMPDEST PUSH2 0x5B9D DUP1 PUSH3 0x260 PUSH1 0x0 CODECOPY PUSH1 0x0 RETURN INVALID PUSH1 0x80 PUSH1 0x40 MSTORE PUSH1 0x4 CALLDATASIZE LT PUSH2 0x14B JUMPI PUSH1 0x0 CALLDATALOAD PUSH1 0xE0 SHR DUP1 PUSH4 0x70A08231 GT PUSH2 0xB6 JUMPI DUP1 PUSH4 0xB88D4FDE GT PUSH2 0x6F JUMPI DUP1 PUSH4 0xB88D4FDE EQ PUSH2 0x4D7 JUMPI DUP1 PUSH4 0xC87B56DD EQ PUSH2 0x500 JUMPI DUP1 PUSH4 0xD5F39A5B EQ PUSH2 0x53D JUMPI DUP1 PUSH4 0xD82FE3B7 EQ PUSH2 0x57A JUMPI DUP1 PUSH4 0xE985E9C5 EQ PUSH2 0x5C2 JUMPI DUP1 PUSH4 0xF383B07E EQ PUSH2 0x5FF JUMPI PUSH2 0x14B JUMP JUMPDEST DUP1 PUSH4 0x70A08231 EQ PUSH2 0x3B9 JUMPI DUP1 PUSH4 0x85831079 EQ PUSH2 0x3F6 JUMPI DUP1 PUSH4 0x85B1C79D EQ PUSH2 0x43E JUMPI DUP1 PUSH4 0x95D89B41 EQ PUSH2 0x45A JUMPI DUP1 PUSH4 0xA0712D68 EQ PUSH2 0x485 JUMPI DUP1 PUSH4 0xA22CB465 EQ PUSH2 0x4AE JUMPI PUSH2 0x14B JUMP JUMPDEST DUP1 PUSH4 0x23B872DD GT PUSH2 0x108 JUMPI DUP1 PUSH4 0x23B872DD EQ PUSH2 0x287 JUMPI DUP1 PUSH4 0x2F745C59 EQ PUSH2 0x2B0 JUMPI DUP1 PUSH4 0x42842E0E EQ PUSH2 0x2ED JUMPI DUP1 PUSH4 0x4C64C94D EQ PUSH2 0x316 JUMPI DUP1 PUSH4 0x4F6CCCE7 EQ PUSH2 0x33F JUMPI DUP1 PUSH4 0x6352211E EQ PUSH2 0x37C JUMPI PUSH2 0x14B JUMP JUMPDEST DUP1 PUSH4 0x1FFC9A7 EQ PUSH2 0x150 JUMPI DUP1 PUSH4 0x6FDDE03 EQ PUSH2 0x18D JUMPI DUP1 PUSH4 0x81812FC EQ PUSH2 0x1B8 JUMPI DUP1 PUSH4 0x95EA7B3 EQ PUSH2 0x1F5 JUMPI DUP1 PUSH4 0x18160DDD EQ PUSH2 0x21E JUMPI DUP1 PUSH4 0x1992F36D EQ PUSH2 0x249 JUMPI JUMPDEST PUSH1 0x0 DUP1 REVERT JUMPDEST CALLVALUE DUP1 ISZERO PUSH2 0x15C JUMPI PUSH1 0x0 DUP1 REVERT JUMPDEST POP PUSH2 0x177 PUSH1 0x4 DUP1 CALLDATASIZE SUB DUP2 ADD SWAP1 PUSH2 0x172 SWAP2 SWAP1 PUSH2 0x4556 JUMP JUMPDEST PUSH2 0x61B JUMP JUMPDEST PUSH1 0x40 MLOAD PUSH2 0x184 SWAP2 SWAP1 PUSH2 0x4C3D JUMP JUMPDEST PUSH1 0x40 MLOAD DUP1 SWAP2 SUB SWAP1 RETURN JUMPDEST CALLVALUE DUP1 ISZERO PUSH2 0x199 JUMPI PUSH1 0x0 DUP1 REVERT JUMPDEST POP PUSH2 0x1A2 PUSH2 0x62D JUMP JUMPDEST PUSH1 0x40 MLOAD PUSH2 0x1AF SWAP2 SWAP1 PUSH2 0x4CC4 JUMP JUMPDEST PUSH1 0x40 MLOAD DUP1 SWAP2 SUB SWAP1 RETURN JUMPDEST CALLVALUE DUP1 ISZERO PUSH2 0x1C4 JUMPI PUSH1 0x0 DUP1 REVERT JUMPDEST POP PUSH2 0x1DF PUSH1 0x4 DUP1 CALLDATASIZE SUB DUP2 ADD SWAP1 PUSH2 0x1DA SWAP2 SWAP1 PUSH2 0x45B0 JUMP JUMPDEST PUSH2 0x6BF JUMP JUMPDEST PUSH1 0x40 MLOAD PUSH2 0x1EC SWAP2 SWAP1 PUSH2 0x4BD6 JUMP JUMPDEST PUSH1 0x40 MLOAD DUP1 SWAP2 SUB SWAP1 RETURN JUMPDEST CALLVALUE DUP1 ISZERO PUSH2 0x201 JUMPI PUSH1 0x0 DUP1 REVERT JUMPDEST POP PUSH2 0x21C PUSH1 0x4 DUP1 CALLDATASIZE SUB DUP2 ADD SWAP1 PUSH2 0x217 SWAP2 SWAP1 PUSH2 0x44E9 JUMP JUMPDEST PUSH2 0x744 JUMP JUMPDEST STOP JUMPDEST CALLVALUE DUP1 ISZERO PUSH2 0x22A JUMPI PUSH1 0x0 DUP1 REVERT JUMPDEST POP PUSH2 0x233 PUSH2 0x85C JUMP JUMPDEST PUSH1 0x40 MLOAD PUSH2 0x240 SWAP2 SWAP1 PUSH2 0x4F31 JUMP JUMPDEST PUSH1 0x40 MLOAD DUP1 SWAP2 SUB SWAP1 RETURN JUMPDEST CALLVALUE DUP1 ISZERO PUSH2 0x255 JUMPI PUSH1 0x0 DUP1 REVERT JUMPDEST POP PUSH2 0x270 PUSH1 0x4 DUP1 CALLDATASIZE SUB DUP2 ADD SWAP1 PUSH2 0x26B SWAP2 SWAP1 PUSH2 0x45B0 JUMP JUMPDEST PUSH2 0x869 JUMP JUMPDEST PUSH1 0x40 MLOAD PUSH2 0x27E SWAP3 SWAP2 SWAP1 PUSH2 0x4F06 JUMP JUMPDEST PUSH1 0x40 MLOAD DUP1 SWAP2 SUB SWAP1 RETURN JUMPDEST CALLVALUE DUP1 ISZERO PUSH2 0x293 JUMPI PUSH1 0x0 DUP1 REVERT JUMPDEST POP PUSH2 0x2AE PUSH1 0x4 DUP1 CALLDATASIZE SUB DUP2 ADD SWAP1 PUSH2 0x2A9 SWAP2 SWAP1 PUSH2 0x43D3 JUMP JUMPDEST PUSH2 0x993 JUMP JUMPDEST STOP JUMPDEST CALLVALUE DUP1 ISZERO PUSH2 0x2BC JUMPI PUSH1 0x0 DUP1 REVERT JUMPDEST POP PUSH2 0x2D7 PUSH1 0x4 DUP1 CALLDATASIZE SUB DUP2 ADD SWAP1 PUSH2 0x2D2 SWAP2 SWAP1 PUSH2 0x44E9 JUMP JUMPDEST PUSH2 0x9F3 JUMP JUMPDEST PUSH1 0x40 MLOAD PUSH2 0x2E4 SWAP2 SWAP1 PUSH2 0x4F31 JUMP JUMPDEST PUSH1 0x40 MLOAD DUP1 SWAP2 SUB SWAP1 RETURN JUMPDEST CALLVALUE DUP1 ISZERO PUSH2 0x2F9 JUMPI PUSH1 0x0 DUP1 REVERT JUMPDEST POP PUSH2 0x314 PUSH1 0x4 DUP1 CALLDATASIZE SUB DUP2 ADD SWAP1 PUSH2 0x30F SWAP2 SWAP1 PUSH2 0x43D3 JUMP JUMPDEST PUSH2 0xA98 JUMP JUMPDEST STOP JUMPDEST CALLVALUE DUP1 ISZERO PUSH2 0x322 JUMPI PUSH1 0x0 DUP1 REVERT JUMPDEST POP PUSH2 0x33D PUSH1 0x4 DUP1 CALLDATASIZE SUB DUP2 ADD SWAP1 PUSH2 0x338 SWAP2 SWAP1 PUSH2 0x461D JUMP JUMPDEST PUSH2 0xAB8 JUMP JUMPDEST STOP JUMPDEST CALLVALUE DUP1 ISZERO PUSH2 0x34B JUMPI PUSH1 0x0 DUP1 REVERT JUMPDEST POP PUSH2 0x366 PUSH1 0x4 DUP1 CALLDATASIZE SUB DUP2 ADD SWAP1 PUSH2 0x361 SWAP2 SWAP1 PUSH2 0x45B0 JUMP JUMPDEST PUSH2 0xDEC JUMP JUMPDEST PUSH1 0x40 MLOAD PUSH2 0x373 SWAP2 SWAP1 PUSH2 0x4F31 JUMP JUMPDEST PUSH1 0x40 MLOAD DUP1 SWAP2 SUB SWAP1 RETURN JUMPDEST CALLVALUE DUP1 ISZERO PUSH2 0x388 JUMPI PUSH1 0x0 DUP1 REVERT JUMPDEST POP PUSH2 0x3A3 PUSH1 0x4 DUP1 CALLDATASIZE SUB DUP2 ADD SWAP1 PUSH2 0x39E SWAP2 SWAP1 PUSH2 0x45B0 JUMP JUMPDEST PUSH2 0xE5D JUMP JUMPDEST PUSH1 0x40 MLOAD PUSH2 0x3B0 SWAP2 SWAP1 PUSH2 0x4BD6 JUMP JUMPDEST PUSH1 0x40 MLOAD DUP1 SWAP2 SUB SWAP1 RETURN JUMPDEST CALLVALUE DUP1 ISZERO PUSH2 0x3C5 JUMPI PUSH1 0x0 DUP1 REVERT JUMPDEST POP PUSH2 0x3E0 PUSH1 0x4 DUP1 CALLDATASIZE SUB DUP2 ADD SWAP1 PUSH2 0x3DB SWAP2 SWAP1 PUSH2 0x4366 JUMP JUMPDEST PUSH2 0xF0F JUMP JUMPDEST PUSH1 0x40 MLOAD PUSH2 0x3ED SWAP2 SWAP1 PUSH2 0x4F31 JUMP JUMPDEST PUSH1 0x40 MLOAD DUP1 SWAP2 SUB SWAP1 RETURN JUMPDEST CALLVALUE DUP1 ISZERO PUSH2 0x402 JUMPI PUSH1 0x0 DUP1 REVERT JUMPDEST POP PUSH2 0x41D PUSH1 0x4 DUP1 CALLDATASIZE SUB DUP2 ADD SWAP1 PUSH2 0x418 SWAP2 SWAP1 PUSH2 0x45B0 JUMP JUMPDEST PUSH2 0xFC7 JUMP JUMPDEST PUSH1 0x40 MLOAD PUSH2 0x435 SWAP13 SWAP12 SWAP11 SWAP10 SWAP9 SWAP8 SWAP7 SWAP6 SWAP5 SWAP4 SWAP3 SWAP2 SWAP1 PUSH2 0x50B2 JUMP JUMPDEST PUSH1 0x40 MLOAD DUP1 SWAP2 SUB SWAP1 RETURN JUMPDEST PUSH2 0x458 PUSH1 0x4 DUP1 CALLDATASIZE SUB DUP2 ADD SWAP1 PUSH2 0x453 SWAP2 SWAP1 PUSH2 0x45DD JUMP JUMPDEST PUSH2 0x1037 JUMP JUMPDEST STOP JUMPDEST CALLVALUE DUP1 ISZERO PUSH2 0x466 JUMPI PUSH1 0x0 DUP1 REVERT JUMPDEST POP PUSH2 0x46F PUSH2 0x191C JUMP JUMPDEST PUSH1 0x40 MLOAD PUSH2 0x47C SWAP2 SWAP1 PUSH2 0x4CC4 JUMP JUMPDEST PUSH1 0x40 MLOAD DUP1 SWAP2 SUB SWAP1 RETURN JUMPDEST CALLVALUE DUP1 ISZERO PUSH2 0x491 JUMPI PUSH1 0x0 DUP1 REVERT JUMPDEST POP PUSH2 0x4AC PUSH1 0x4 DUP1 CALLDATASIZE SUB DUP2 ADD SWAP1 PUSH2 0x4A7 SWAP2 SWAP1 PUSH2 0x45B0 JUMP JUMPDEST PUSH2 0x19AE JUMP JUMPDEST STOP JUMPDEST CALLVALUE DUP1 ISZERO PUSH2 0x4BA JUMPI PUSH1 0x0 DUP1 REVERT JUMPDEST POP PUSH2 0x4D5 PUSH1 0x4 DUP1 CALLDATASIZE SUB DUP2 ADD SWAP1 PUSH2 0x4D0 SWAP2 SWAP1 PUSH2 0x44A9 JUMP JUMPDEST PUSH2 0x1B1E JUMP JUMPDEST STOP JUMPDEST CALLVALUE DUP1 ISZERO PUSH2 0x4E3 JUMPI PUSH1 0x0 DUP1 REVERT JUMPDEST POP PUSH2 0x4FE PUSH1 0x4 DUP1 CALLDATASIZE SUB DUP2 ADD SWAP1 PUSH2 0x4F9 SWAP2 SWAP1 PUSH2 0x4426 JUMP JUMPDEST PUSH2 0x1B34 JUMP JUMPDEST STOP JUMPDEST CALLVALUE DUP1 ISZERO PUSH2 0x50C JUMPI PUSH1 0x0 DUP1 REVERT JUMPDEST POP PUSH2 0x527 PUSH1 0x4 DUP1 CALLDATASIZE SUB DUP2 ADD SWAP1 PUSH2 0x522 SWAP2 SWAP1 PUSH2 0x45B0 JUMP JUMPDEST PUSH2 0x1B96 JUMP JUMPDEST PUSH1 0x40 MLOAD PUSH2 0x534 SWAP2 SWAP1 PUSH2 0x4CC4 JUMP JUMPDEST PUSH1 0x40 MLOAD DUP1 SWAP2 SUB SWAP1 RETURN JUMPDEST CALLVALUE DUP1 ISZERO PUSH2 0x549 JUMPI PUSH1 0x0 DUP1 REVERT JUMPDEST POP PUSH2 0x564 PUSH1 0x4 DUP1 CALLDATASIZE SUB DUP2 ADD SWAP1 PUSH2 0x55F SWAP2 SWAP1 PUSH2 0x45B0 JUMP JUMPDEST PUSH2 0x1C3D JUMP JUMPDEST PUSH1 0x40 MLOAD PUSH2 0x571 SWAP2 SWAP1 PUSH2 0x4F31 JUMP JUMPDEST PUSH1 0x40 MLOAD DUP1 SWAP2 SUB SWAP1 RETURN JUMPDEST CALLVALUE DUP1 ISZERO PUSH2 0x586 JUMPI PUSH1 0x0 DUP1 REVERT JUMPDEST POP PUSH2 0x5A1 PUSH1 0x4 DUP1 CALLDATASIZE SUB DUP2 ADD SWAP1 PUSH2 0x59C SWAP2 SWAP1 PUSH2 0x45B0 JUMP JUMPDEST PUSH2 0x1C55 JUMP JUMPDEST PUSH1 0x40 MLOAD PUSH2 0x5B9 SWAP13 SWAP12 SWAP11 SWAP10 SWAP9 SWAP8 SWAP7 SWAP6 SWAP5 SWAP4 SWAP3 SWAP2 SWAP1 PUSH2 0x50B2 JUMP JUMPDEST PUSH1 0x40 MLOAD DUP1 SWAP2 SUB SWAP1 RETURN JUMPDEST CALLVALUE DUP1 ISZERO PUSH2 0x5CE JUMPI PUSH1 0x0 DUP1 REVERT JUMPDEST POP PUSH2 0x5E9 PUSH1 0x4 DUP1 CALLDATASIZE SUB DUP2 ADD SWAP1 PUSH2 0x5E4 SWAP2 SWAP1 PUSH2 0x4393 JUMP JUMPDEST PUSH2 0x1CB5 JUMP JUMPDEST PUSH1 0x40 MLOAD PUSH2 0x5F6 SWAP2 SWAP1 PUSH2 0x4C3D JUMP JUMPDEST PUSH1 0x40 MLOAD DUP1 SWAP2 SUB SWAP1 RETURN JUMPDEST PUSH2 0x619 PUSH1 0x4 DUP1 CALLDATASIZE SUB DUP2 ADD SWAP1 PUSH2 0x614 SWAP2 SWAP1 PUSH2 0x45DD JUMP JUMPDEST PUSH2 0x1D49 JUMP JUMPDEST STOP JUMPDEST PUSH1 0x0 PUSH2 0x626 DUP3 PUSH2 0x262E JUMP JUMPDEST SWAP1 POP SWAP2 SWAP1 POP JUMP JUMPDEST PUSH1 0x60 PUSH1 0x0 DUP1 SLOAD PUSH2 0x63C SWAP1 PUSH2 0x5401 JUMP JUMPDEST DUP1 PUSH1 0x1F ADD PUSH1 0x20 DUP1 SWAP2 DIV MUL PUSH1 0x20 ADD PUSH1 0x40 MLOAD SWAP1 DUP2 ADD PUSH1 0x40 MSTORE DUP1 SWAP3 SWAP2 SWAP1 DUP2 DUP2 MSTORE PUSH1 0x20 ADD DUP3 DUP1 SLOAD PUSH2 0x668 SWAP1 PUSH2 0x5401 JUMP JUMPDEST DUP1 ISZERO PUSH2 0x6B5 JUMPI DUP1 PUSH1 0x1F LT PUSH2 0x68A JUMPI PUSH2 0x100 DUP1 DUP4 SLOAD DIV MUL DUP4 MSTORE SWAP2 PUSH1 0x20 ADD SWAP2 PUSH2 0x6B5 JUMP JUMPDEST DUP3 ADD SWAP2 SWAP1 PUSH1 0x0 MSTORE PUSH1 0x20 PUSH1 0x0 KECCAK256 SWAP1 JUMPDEST DUP2 SLOAD DUP2 MSTORE SWAP1 PUSH1 0x1 ADD SWAP1 PUSH1 0x20 ADD DUP1 DUP4 GT PUSH2 0x698 JUMPI DUP3 SWAP1 SUB PUSH1 0x1F AND DUP3 ADD SWAP2 JUMPDEST POP POP POP POP POP SWAP1 POP SWAP1 JUMP JUMPDEST PUSH1 0x0 PUSH2 0x6CA DUP3 PUSH2 0x26A8 JUMP JUMPDEST PUSH2 0x709 JUMPI PUSH1 0x40 MLOAD PUSH32 0x8C379A000000000000000000000000000000000000000000000000000000000 DUP2 MSTORE PUSH1 0x4 ADD PUSH2 0x700 SWAP1 PUSH2 0x4E46 JUMP JUMPDEST PUSH1 0x40 MLOAD DUP1 SWAP2 SUB SWAP1 REVERT JUMPDEST PUSH1 0x4 PUSH1 0x0 DUP4 DUP2 MSTORE PUSH1 0x20 ADD SWAP1 DUP2 MSTORE PUSH1 0x20 ADD PUSH1 0x0 KECCAK256 PUSH1 0x0 SWAP1 SLOAD SWAP1 PUSH2 0x100 EXP SWAP1 DIV PUSH20 0xFFFFFFFFFFFFFFFFFFFFFFFFFFFFFFFFFFFFFFFF AND SWAP1 POP SWAP2 SWAP1 POP JUMP JUMPDEST PUSH1 0x0 PUSH2 0x74F DUP3 PUSH2 0xE5D JUMP JUMPDEST SWAP1 POP DUP1 PUSH20 0xFFFFFFFFFFFFFFFFFFFFFFFFFFFFFFFFFFFFFFFF AND DUP4 PUSH20 0xFFFFFFFFFFFFFFFFFFFFFFFFFFFFFFFFFFFFFFFF AND EQ ISZERO PUSH2 0x7C0 JUMPI PUSH1 0x40 MLOAD PUSH32 0x8C379A000000000000000000000000000000000000000000000000000000000 DUP2 MSTORE PUSH1 0x4 ADD PUSH2 0x7B7 SWAP1 PUSH2 0x4E86 JUMP JUMPDEST PUSH1 0x40 MLOAD DUP1 SWAP2 SUB SWAP1 REVERT JUMPDEST DUP1 PUSH20 0xFFFFFFFFFFFFFFFFFFFFFFFFFFFFFFFFFFFFFFFF AND PUSH2 0x7DF PUSH2 0x2714 JUMP JUMPDEST PUSH20 0xFFFFFFFFFFFFFFFFFFFFFFFFFFFFFFFFFFFFFFFF AND EQ DUP1 PUSH2 0x80E JUMPI POP PUSH2 0x80D DUP2 PUSH2 0x808 PUSH2 0x2714 JUMP JUMPDEST PUSH2 0x1CB5 JUMP JUMPDEST JUMPDEST PUSH2 0x84D JUMPI PUSH1 0x40 MLOAD PUSH32 0x8C379A000000000000000000000000000000000000000000000000000000000 DUP2 MSTORE PUSH1 0x4 ADD PUSH2 0x844 SWAP1 PUSH2 0x4DC6 JUMP JUMPDEST PUSH1 0x40 MLOAD DUP1 SWAP2 SUB SWAP1 REVERT JUMPDEST PUSH2 0x857 DUP4 DUP4 PUSH2 0x271C JUMP JUMPDEST POP POP POP JUMP JUMPDEST PUSH1 0x0 PUSH1 0x8 DUP1 SLOAD SWAP1 POP SWAP1 POP SWAP1 JUMP JUMPDEST PUSH1 0x10 PUSH1 0x20 MSTORE DUP1 PUSH1 0x0 MSTORE PUSH1 0x40 PUSH1 0x0 KECCAK256 PUSH1 0x0 SWAP2 POP SWAP1 POP DUP1 PUSH1 0x0 ADD PUSH1 0x40 MLOAD DUP1 PUSH2 0x180 ADD PUSH1 0x40 MSTORE SWAP1 DUP2 PUSH1 0x0 DUP3 ADD SLOAD DUP2 MSTORE PUSH1 0x20 ADD PUSH1 0x1 DUP3 ADD SLOAD DUP2 MSTORE PUSH1 0x20 ADD PUSH1 0x2 DUP3 ADD SLOAD DUP2 MSTORE PUSH1 0x20 ADD PUSH1 0x3 DUP3 ADD SLOAD DUP2 MSTORE PUSH1 0x20 ADD PUSH1 0x4 DUP3 ADD SLOAD DUP2 MSTORE PUSH1 0x20 ADD PUSH1 0x5 DUP3 ADD SLOAD DUP2 MSTORE PUSH1 0x20 ADD PUSH1 0x6 DUP3 ADD SLOAD DUP2 MSTORE PUSH1 0x20 ADD PUSH1 0x7 DUP3 ADD SLOAD DUP2 MSTORE PUSH1 0x20 ADD PUSH1 0x8 DUP3 ADD SLOAD DUP2 MSTORE PUSH1 0x20 ADD PUSH1 0x9 DUP3 ADD SLOAD DUP2 MSTORE PUSH1 0x20 ADD PUSH1 0xA DUP3 ADD SLOAD DUP2 MSTORE PUSH1 0x20 ADD PUSH1 0xB DUP3 ADD SLOAD DUP2 MSTORE POP POP SWAP1 DUP1 PUSH1 0xC ADD PUSH1 0x40 MLOAD DUP1 PUSH2 0x180 ADD PUSH1 0x40 MSTORE SWAP1 DUP2 PUSH1 0x0 DUP3 ADD SLOAD DUP2 MSTORE PUSH1 0x20 ADD PUSH1 0x1 DUP3 ADD SLOAD DUP2 MSTORE PUSH1 0x20 ADD PUSH1 0x2 DUP3 ADD SLOAD DUP2 MSTORE PUSH1 0x20 ADD PUSH1 0x3 DUP3 ADD SLOAD DUP2 MSTORE PUSH1 0x20 ADD PUSH1 0x4 DUP3 ADD SLOAD DUP2 MSTORE PUSH1 0x20 ADD PUSH1 0x5 DUP3 ADD SLOAD DUP2 MSTORE PUSH1 0x20 ADD PUSH1 0x6 DUP3 ADD SLOAD DUP2 MSTORE PUSH1 0x20 ADD PUSH1 0x7 DUP3 ADD SLOAD DUP2 MSTORE PUSH1 0x20 ADD PUSH1 0x8 DUP3 ADD SLOAD DUP2 MSTORE PUSH1 0x20 ADD PUSH1 0x9 DUP3 ADD SLOAD DUP2 MSTORE PUSH1 0x20 ADD PUSH1 0xA DUP3 ADD SLOAD DUP2 MSTORE PUSH1 0x20 ADD PUSH1 0xB DUP3 ADD SLOAD DUP2 MSTORE POP POP SWAP1 POP DUP3 JUMP JUMPDEST PUSH2 0x9A4 PUSH2 0x99E PUSH2 0x2714 JUMP JUMPDEST DUP3 PUSH2 0x27D5 JUMP JUMPDEST PUSH2 0x9E3 JUMPI PUSH1 0x40 MLOAD PUSH32 0x8C379A000000000000000000000000000000000000000000000000000000000 DUP2 MSTORE PUSH1 0x4 ADD PUSH2 0x9DA SWAP1 PUSH2 0x4EA6 JUMP JUMPDEST PUSH1 0x40 MLOAD DUP1 SWAP2 SUB SWAP1 REVERT JUMPDEST PUSH2 0x9EE DUP4 DUP4 DUP4 PUSH2 0x28B3 JUMP JUMPDEST POP POP POP JUMP JUMPDEST PUSH1 0x0 PUSH2 0x9FE DUP4 PUSH2 0xF0F JUMP JUMPDEST DUP3 LT PUSH2 0xA3F JUMPI PUSH1 0x40 MLOAD PUSH32 0x8C379A000000000000000000000000000000000000000000000000000000000 DUP2 MSTORE PUSH1 0x4 ADD PUSH2 0xA36 SWAP1 PUSH2 0x4CE6 JUMP JUMPDEST PUSH1 0x40 MLOAD DUP1 SWAP2 SUB SWAP1 REVERT JUMPDEST PUSH1 0x6 PUSH1 0x0 DUP5 PUSH20 0xFFFFFFFFFFFFFFFFFFFFFFFFFFFFFFFFFFFFFFFF AND PUSH20 0xFFFFFFFFFFFFFFFFFFFFFFFFFFFFFFFFFFFFFFFF AND DUP2 MSTORE PUSH1 0x20 ADD SWAP1 DUP2 MSTORE PUSH1 0x20 ADD PUSH1 0x0 KECCAK256 PUSH1 0x0 DUP4 DUP2 MSTORE PUSH1 0x20 ADD SWAP1 DUP2 MSTORE PUSH1 0x20 ADD PUSH1 0x0 KECCAK256 SLOAD SWAP1 POP SWAP3 SWAP2 POP POP JUMP JUMPDEST PUSH2 0xAB3 DUP4 DUP4 DUP4 PUSH1 0x40 MLOAD DUP1 PUSH1 0x20 ADD PUSH1 0x40 MSTORE DUP1 PUSH1 0x0 DUP2 MSTORE POP PUSH2 0x1B34 JUMP JUMPDEST POP POP POP JUMP JUMPDEST PUSH32 0xED9918E573B159B62731BC88263B9CE84E79C6335FBBA2B28F981840126E16F PUSH2 0x2B67 PUSH1 0x40 MLOAD PUSH2 0xAE9 SWAP2 SWAP1 PUSH2 0x4C58 JUMP JUMPDEST PUSH1 0x40 MLOAD DUP1 SWAP2 SUB SWAP1 LOG1 PUSH1 0x0 PUSH1 0x4 PUSH8 0xFFFFFFFFFFFFFFFF DUP2 GT ISZERO PUSH2 0xB0E JUMPI PUSH2 0xB0D PUSH2 0x55D3 JUMP JUMPDEST JUMPDEST PUSH1 0x40 MLOAD SWAP1 DUP1 DUP3 MSTORE DUP1 PUSH1 0x20 MUL PUSH1 0x20 ADD DUP3 ADD PUSH1 0x40 MSTORE DUP1 ISZERO PUSH2 0xB3C JUMPI DUP2 PUSH1 0x20 ADD PUSH1 0x20 DUP3 MUL DUP1 CALLDATASIZE DUP4 CALLDATACOPY DUP1 DUP3 ADD SWAP2 POP POP SWAP1 POP JUMPDEST POP SWAP1 POP DUP5 DUP2 PUSH1 0x0 DUP2 MLOAD DUP2 LT PUSH2 0xB54 JUMPI PUSH2 0xB53 PUSH2 0x55A4 JUMP JUMPDEST JUMPDEST PUSH1 0x20 MUL PUSH1 0x20 ADD ADD DUP2 DUP2 MSTORE POP POP DUP4 DUP2 PUSH1 0x1 DUP2 MLOAD DUP2 LT PUSH2 0xB75 JUMPI PUSH2 0xB74 PUSH2 0x55A4 JUMP JUMPDEST JUMPDEST PUSH1 0x20 MUL PUSH1 0x20 ADD ADD DUP2 DUP2 MSTORE POP POP DUP3 DUP2 PUSH1 0x2 DUP2 MLOAD DUP2 LT PUSH2 0xB96 JUMPI PUSH2 0xB95 PUSH2 0x55A4 JUMP JUMPDEST JUMPDEST PUSH1 0x20 MUL PUSH1 0x20 ADD ADD DUP2 DUP2 MSTORE POP POP DUP2 DUP2 PUSH1 0x3 DUP2 MLOAD DUP2 LT PUSH2 0xBB7 JUMPI PUSH2 0xBB6 PUSH2 0x55A4 JUMP JUMPDEST JUMPDEST PUSH1 0x20 MUL PUSH1 0x20 ADD ADD DUP2 DUP2 MSTORE POP POP PUSH1 0xA PUSH1 0x0 SWAP1 SLOAD SWAP1 PUSH2 0x100 EXP SWAP1 DIV PUSH20 0xFFFFFFFFFFFFFFFFFFFFFFFFFFFFFFFFFFFFFFFF AND PUSH20 0xFFFFFFFFFFFFFFFFFFFFFFFFFFFFFFFFFFFFFFFF AND PUSH4 0x2C9DD5C0 PUSH1 0xC SLOAD DUP4 PUSH1 0x40 MLOAD DUP4 PUSH4 0xFFFFFFFF AND PUSH1 0xE0 SHL DUP2 MSTORE PUSH1 0x4 ADD PUSH2 0xC22 SWAP3 SWAP2 SWAP1 PUSH2 0x4F4C JUMP JUMPDEST PUSH1 0x20 PUSH1 0x40 MLOAD DUP1 DUP4 SUB DUP2 PUSH1 0x0 DUP8 DUP1 EXTCODESIZE ISZERO DUP1 ISZERO PUSH2 0xC3C JUMPI PUSH1 0x0 DUP1 REVERT JUMPDEST POP GAS CALL ISZERO DUP1 ISZERO PUSH2 0xC50 JUMPI RETURNDATASIZE PUSH1 0x0 DUP1 RETURNDATACOPY RETURNDATASIZE PUSH1 0x0 REVERT JUMPDEST POP POP POP POP PUSH1 0x40 MLOAD RETURNDATASIZE PUSH1 0x1F NOT PUSH1 0x1F DUP3 ADD AND DUP3 ADD DUP1 PUSH1 0x40 MSTORE POP DUP2 ADD SWAP1 PUSH2 0xC74 SWAP2 SWAP1 PUSH2 0x4529 JUMP JUMPDEST POP PUSH1 0xE DUP6 DUP2 SLOAD DUP2 LT PUSH2 0xC89 JUMPI PUSH2 0xC88 PUSH2 0x55A4 JUMP JUMPDEST JUMPDEST SWAP1 PUSH1 0x0 MSTORE PUSH1 0x20 PUSH1 0x0 KECCAK256 SWAP1 PUSH1 0xC MUL ADD PUSH1 0xF PUSH1 0x0 DUP7 DUP2 MSTORE PUSH1 0x20 ADD SWAP1 DUP2 MSTORE PUSH1 0x20 ADD PUSH1 0x0 KECCAK256 PUSH1 0x0 DUP3 ADD SLOAD DUP2 PUSH1 0x0 ADD SSTORE PUSH1 0x1 DUP3 ADD SLOAD DUP2 PUSH1 0x1 ADD SSTORE PUSH1 0x2 DUP3 ADD SLOAD DUP2 PUSH1 0x2 ADD SSTORE PUSH1 0x3 DUP3 ADD SLOAD DUP2 PUSH1 0x3 ADD SSTORE PUSH1 0x4 DUP3 ADD SLOAD DUP2 PUSH1 0x4 ADD SSTORE PUSH1 0x5 DUP3 ADD SLOAD DUP2 PUSH1 0x5 ADD SSTORE PUSH1 0x6 DUP3 ADD SLOAD DUP2 PUSH1 0x6 ADD SSTORE PUSH1 0x7 DUP3 ADD SLOAD DUP2 PUSH1 0x7 ADD SSTORE PUSH1 0x8 DUP3 ADD SLOAD DUP2 PUSH1 0x8 ADD SSTORE PUSH1 0x9 DUP3 ADD SLOAD DUP2 PUSH1 0x9 ADD SSTORE PUSH1 0xA DUP3 ADD SLOAD DUP2 PUSH1 0xA ADD SSTORE PUSH1 0xB DUP3 ADD SLOAD DUP2 PUSH1 0xB ADD SSTORE SWAP1 POP POP PUSH1 0x1 PUSH1 0x11 PUSH1 0x0 DUP8 DUP2 MSTORE PUSH1 0x20 ADD SWAP1 DUP2 MSTORE PUSH1 0x20 ADD PUSH1 0x0 KECCAK256 SLOAD PUSH2 0xD45 SWAP2 SWAP1 PUSH2 0x523E JUMP JUMPDEST PUSH1 0x11 PUSH1 0x0 DUP8 DUP2 MSTORE PUSH1 0x20 ADD SWAP1 DUP2 MSTORE PUSH1 0x20 ADD PUSH1 0x0 KECCAK256 DUP2 SWAP1 SSTORE POP PUSH32 0x510A8D0A61F3EC9EF2328338CFC3429D30261D8781D56DD0507CB19E2ED63A9C DUP6 PUSH1 0x11 PUSH1 0x0 DUP9 DUP2 MSTORE PUSH1 0x20 ADD SWAP1 DUP2 MSTORE PUSH1 0x20 ADD PUSH1 0x0 KECCAK256 SLOAD PUSH1 0x40 MLOAD PUSH2 0xDA0 SWAP3 SWAP2 SWAP1 PUSH2 0x4F7C JUMP JUMPDEST PUSH1 0x40 MLOAD DUP1 SWAP2 SUB SWAP1 LOG1 PUSH32 0xB8D7090364DA4A6371334296AAF588E8D119F8490AC61CE968A539406164F5FB PUSH1 0xC SLOAD DUP7 DUP7 PUSH1 0x40 MLOAD PUSH2 0xDDD SWAP4 SWAP3 SWAP2 SWAP1 PUSH2 0x4FE3 JUMP JUMPDEST PUSH1 0x40 MLOAD DUP1 SWAP2 SUB SWAP1 LOG1 POP POP POP POP POP JUMP JUMPDEST PUSH1 0x0 PUSH2 0xDF6 PUSH2 0x85C JUMP JUMPDEST DUP3 LT PUSH2 0xE37 JUMPI PUSH1 0x40 MLOAD PUSH32 0x8C379A000000000000000000000000000000000000000000000000000000000 DUP2 MSTORE PUSH1 0x4 ADD PUSH2 0xE2E SWAP1 PUSH2 0x4EE6 JUMP JUMPDEST PUSH1 0x40 MLOAD DUP1 SWAP2 SUB SWAP1 REVERT JUMPDEST PUSH1 0x8 DUP3 DUP2 SLOAD DUP2 LT PUSH2 0xE4B JUMPI PUSH2 0xE4A PUSH2 0x55A4 JUMP JUMPDEST JUMPDEST SWAP1 PUSH1 0x0 MSTORE PUSH1 0x20 PUSH1 0x0 KECCAK256 ADD SLOAD SWAP1 POP SWAP2 SWAP1 POP JUMP JUMPDEST PUSH1 0x0 DUP1 PUSH1 0x2 PUSH1 0x0 DUP5 DUP2 MSTORE PUSH1 0x20 ADD SWAP1 DUP2 MSTORE PUSH1 0x20 ADD PUSH1 0x0 KECCAK256 PUSH1 0x0 SWAP1 SLOAD SWAP1 PUSH2 0x100 EXP SWAP1 DIV PUSH20 0xFFFFFFFFFFFFFFFFFFFFFFFFFFFFFFFFFFFFFFFF AND SWAP1 POP PUSH1 0x0 PUSH20 0xFFFFFFFFFFFFFFFFFFFFFFFFFFFFFFFFFFFFFFFF AND DUP2 PUSH20 0xFFFFFFFFFFFFFFFFFFFFFFFFFFFFFFFFFFFFFFFF AND EQ ISZERO PUSH2 0xF06 JUMPI PUSH1 0x40 MLOAD PUSH32 0x8C379A000000000000000000000000000000000000000000000000000000000 DUP2 MSTORE PUSH1 0x4 ADD PUSH2 0xEFD SWAP1 PUSH2 0x4E06 JUMP JUMPDEST PUSH1 0x40 MLOAD DUP1 SWAP2 SUB SWAP1 REVERT JUMPDEST DUP1 SWAP2 POP POP SWAP2 SWAP1 POP JUMP JUMPDEST PUSH1 0x0 DUP1 PUSH20 0xFFFFFFFFFFFFFFFFFFFFFFFFFFFFFFFFFFFFFFFF AND DUP3 PUSH20 0xFFFFFFFFFFFFFFFFFFFFFFFFFFFFFFFFFFFFFFFF AND EQ ISZERO PUSH2 0xF80 JUMPI PUSH1 0x40 MLOAD PUSH32 0x8C379A000000000000000000000000000000000000000000000000000000000 DUP2 MSTORE PUSH1 0x4 ADD PUSH2 0xF77 SWAP1 PUSH2 0x4DE6 JUMP JUMPDEST PUSH1 0x40 MLOAD DUP1 SWAP2 SUB SWAP1 REVERT JUMPDEST PUSH1 0x3 PUSH1 0x0 DUP4 PUSH20 0xFFFFFFFFFFFFFFFFFFFFFFFFFFFFFFFFFFFFFFFF AND PUSH20 0xFFFFFFFFFFFFFFFFFFFFFFFFFFFFFFFFFFFFFFFF AND DUP2 MSTORE PUSH1 0x20 ADD SWAP1 DUP2 MSTORE PUSH1 0x20 ADD PUSH1 0x0 KECCAK256 SLOAD SWAP1 POP SWAP2 SWAP1 POP JUMP JUMPDEST PUSH1 0xE DUP2 DUP2 SLOAD DUP2 LT PUSH2 0xFD7 JUMPI PUSH1 0x0 DUP1 REVERT JUMPDEST SWAP1 PUSH1 0x0 MSTORE PUSH1 0x20 PUSH1 0x0 KECCAK256 SWAP1 PUSH1 0xC MUL ADD PUSH1 0x0 SWAP2 POP SWAP1 POP DUP1 PUSH1 0x0 ADD SLOAD SWAP1 DUP1 PUSH1 0x1 ADD SLOAD SWAP1 DUP1 PUSH1 0x2 ADD SLOAD SWAP1 DUP1 PUSH1 0x3 ADD SLOAD SWAP1 DUP1 PUSH1 0x4 ADD SLOAD SWAP1 DUP1 PUSH1 0x5 ADD SLOAD SWAP1 DUP1 PUSH1 0x6 ADD SLOAD SWAP1 DUP1 PUSH1 0x7 ADD SLOAD SWAP1 DUP1 PUSH1 0x8 ADD SLOAD SWAP1 DUP1 PUSH1 0x9 ADD SLOAD SWAP1 DUP1 PUSH1 0xA ADD SLOAD SWAP1 DUP1 PUSH1 0xB ADD SLOAD SWAP1 POP DUP13 JUMP JUMPDEST PUSH7 0x470DE4DF820000 CALLVALUE LT ISZERO PUSH2 0x104B JUMPI PUSH1 0x0 DUP1 REVERT JUMPDEST CALLER PUSH20 0xFFFFFFFFFFFFFFFFFFFFFFFFFFFFFFFFFFFFFFFF AND PUSH2 0x106B DUP4 PUSH2 0xE5D JUMP JUMPDEST PUSH20 0xFFFFFFFFFFFFFFFFFFFFFFFFFFFFFFFFFFFFFFFF AND EQ PUSH2 0x108B JUMPI PUSH1 0x0 DUP1 REVERT JUMPDEST PUSH2 0x1093 PUSH2 0x85C JUMP JUMPDEST DUP3 LT PUSH2 0x109E JUMPI PUSH1 0x0 DUP1 REVERT JUMPDEST PUSH2 0x10A6 PUSH2 0x85C JUMP JUMPDEST DUP2 LT PUSH2 0x10B1 JUMPI PUSH1 0x0 DUP1 REVERT JUMPDEST PUSH32 0x3593DF2963C20760AFEEC7BC9AE99F0AD8227EC08877590930B113D33DF9C067 PUSH1 0x1 PUSH1 0x40 MLOAD PUSH2 0x10E1 SWAP2 SWAP1 PUSH2 0x4C73 JUMP JUMPDEST PUSH1 0x40 MLOAD DUP1 SWAP2 SUB SWAP1 LOG1 PUSH1 0x0 PUSH1 0xE DUP4 DUP2 SLOAD DUP2 LT PUSH2 0x10FF JUMPI PUSH2 0x10FE PUSH2 0x55A4 JUMP JUMPDEST JUMPDEST SWAP1 PUSH1 0x0 MSTORE PUSH1 0x20 PUSH1 0x0 KECCAK256 SWAP1 PUSH1 0xC MUL ADD PUSH1 0x40 MLOAD DUP1 PUSH2 0x180 ADD PUSH1 0x40 MSTORE SWAP1 DUP2 PUSH1 0x0 DUP3 ADD SLOAD DUP2 MSTORE PUSH1 0x20 ADD PUSH1 0x1 DUP3 ADD SLOAD DUP2 MSTORE PUSH1 0x20 ADD PUSH1 0x2 DUP3 ADD SLOAD DUP2 MSTORE PUSH1 0x20 ADD PUSH1 0x3 DUP3 ADD SLOAD DUP2 MSTORE PUSH1 0x20 ADD PUSH1 0x4 DUP3 ADD SLOAD DUP2 MSTORE PUSH1 0x20 ADD PUSH1 0x5 DUP3 ADD SLOAD DUP2 MSTORE PUSH1 0x20 ADD PUSH1 0x6 DUP3 ADD SLOAD DUP2 MSTORE PUSH1 0x20 ADD PUSH1 0x7 DUP3 ADD SLOAD DUP2 MSTORE PUSH1 0x20 ADD PUSH1 0x8 DUP3 ADD SLOAD DUP2 MSTORE PUSH1 0x20 ADD PUSH1 0x9 DUP3 ADD SLOAD DUP2 MSTORE PUSH1 0x20 ADD PUSH1 0xA DUP3 ADD SLOAD DUP2 MSTORE PUSH1 0x20 ADD PUSH1 0xB DUP3 ADD SLOAD DUP2 MSTORE POP POP SWAP1 POP PUSH1 0x0 PUSH1 0xE DUP4 DUP2 SLOAD DUP2 LT PUSH2 0x11A9 JUMPI PUSH2 0x11A8 PUSH2 0x55A4 JUMP JUMPDEST JUMPDEST SWAP1 PUSH1 0x0 MSTORE PUSH1 0x20 PUSH1 0x0 KECCAK256 SWAP1 PUSH1 0xC MUL ADD PUSH1 0x40 MLOAD DUP1 PUSH2 0x180 ADD PUSH1 0x40 MSTORE SWAP1 DUP2 PUSH1 0x0 DUP3 ADD SLOAD DUP2 MSTORE PUSH1 0x20 ADD PUSH1 0x1 DUP3 ADD SLOAD DUP2 MSTORE PUSH1 0x20 ADD PUSH1 0x2 DUP3 ADD SLOAD DUP2 MSTORE PUSH1 0x20 ADD PUSH1 0x3 DUP3 ADD SLOAD DUP2 MSTORE PUSH1 0x20 ADD PUSH1 0x4 DUP3 ADD SLOAD DUP2 MSTORE PUSH1 0x20 ADD PUSH1 0x5 DUP3 ADD SLOAD DUP2 MSTORE PUSH1 0x20 ADD PUSH1 0x6 DUP3 ADD SLOAD DUP2 MSTORE PUSH1 0x20 ADD PUSH1 0x7 DUP3 ADD SLOAD DUP2 MSTORE PUSH1 0x20 ADD PUSH1 0x8 DUP3 ADD SLOAD DUP2 MSTORE PUSH1 0x20 ADD PUSH1 0x9 DUP3 ADD SLOAD DUP2 MSTORE PUSH1 0x20 ADD PUSH1 0xA DUP3 ADD SLOAD DUP2 MSTORE PUSH1 0x20 ADD PUSH1 0xB DUP3 ADD SLOAD DUP2 MSTORE POP POP SWAP1 POP PUSH1 0x0 PUSH2 0x1247 PUSH2 0x2B1A JUMP JUMPDEST SWAP1 POP PUSH32 0x3593DF2963C20760AFEEC7BC9AE99F0AD8227EC08877590930B113D33DF9C067 PUSH1 0x2 PUSH1 0x40 MLOAD PUSH2 0x1279 SWAP2 SWAP1 PUSH2 0x4C8E JUMP JUMPDEST PUSH1 0x40 MLOAD DUP1 SWAP2 SUB SWAP1 LOG1 PUSH1 0x0 PUSH1 0x19 PUSH8 0xFFFFFFFFFFFFFFFF DUP2 GT ISZERO PUSH2 0x129E JUMPI PUSH2 0x129D PUSH2 0x55D3 JUMP JUMPDEST JUMPDEST PUSH1 0x40 MLOAD SWAP1 DUP1 DUP3 MSTORE DUP1 PUSH1 0x20 MUL PUSH1 0x20 ADD DUP3 ADD PUSH1 0x40 MSTORE DUP1 ISZERO PUSH2 0x12CC JUMPI DUP2 PUSH1 0x20 ADD PUSH1 0x20 DUP3 MUL DUP1 CALLDATASIZE DUP4 CALLDATACOPY DUP1 DUP3 ADD SWAP2 POP POP SWAP1 POP JUMPDEST POP SWAP1 POP DUP4 PUSH1 0x0 ADD MLOAD DUP2 PUSH1 0x0 DUP2 MLOAD DUP2 LT PUSH2 0x12E8 JUMPI PUSH2 0x12E7 PUSH2 0x55A4 JUMP JUMPDEST JUMPDEST PUSH1 0x20 MUL PUSH1 0x20 ADD ADD DUP2 DUP2 MSTORE POP POP DUP4 PUSH1 0x20 ADD MLOAD DUP2 PUSH1 0x1 DUP2 MLOAD DUP2 LT PUSH2 0x130D JUMPI PUSH2 0x130C PUSH2 0x55A4 JUMP JUMPDEST JUMPDEST PUSH1 0x20 MUL PUSH1 0x20 ADD ADD DUP2 DUP2 MSTORE POP POP DUP4 PUSH1 0x40 ADD MLOAD DUP2 PUSH1 0x2 DUP2 MLOAD DUP2 LT PUSH2 0x1332 JUMPI PUSH2 0x1331 PUSH2 0x55A4 JUMP JUMPDEST JUMPDEST PUSH1 0x20 MUL PUSH1 0x20 ADD ADD DUP2 DUP2 MSTORE POP POP DUP4 PUSH1 0x60 ADD MLOAD DUP2 PUSH1 0x3 DUP2 MLOAD DUP2 LT PUSH2 0x1357 JUMPI PUSH2 0x1356 PUSH2 0x55A4 JUMP JUMPDEST JUMPDEST PUSH1 0x20 MUL PUSH1 0x20 ADD ADD DUP2 DUP2 MSTORE POP POP DUP4 PUSH1 0x80 ADD MLOAD DUP2 PUSH1 0x4 DUP2 MLOAD DUP2 LT PUSH2 0x137C JUMPI PUSH2 0x137B PUSH2 0x55A4 JUMP JUMPDEST JUMPDEST PUSH1 0x20 MUL PUSH1 0x20 ADD ADD DUP2 DUP2 MSTORE POP POP DUP4 PUSH1 0xA0 ADD MLOAD DUP2 PUSH1 0x5 DUP2 MLOAD DUP2 LT PUSH2 0x13A1 JUMPI PUSH2 0x13A0 PUSH2 0x55A4 JUMP JUMPDEST JUMPDEST PUSH1 0x20 MUL PUSH1 0x20 ADD ADD DUP2 DUP2 MSTORE POP POP DUP4 PUSH1 0xC0 ADD MLOAD DUP2 PUSH1 0x6 DUP2 MLOAD DUP2 LT PUSH2 0x13C6 JUMPI PUSH2 0x13C5 PUSH2 0x55A4 JUMP JUMPDEST JUMPDEST PUSH1 0x20 MUL PUSH1 0x20 ADD ADD DUP2 DUP2 MSTORE POP POP DUP4 PUSH1 0xE0 ADD MLOAD DUP2 PUSH1 0x7 DUP2 MLOAD DUP2 LT PUSH2 0x13EB JUMPI PUSH2 0x13EA PUSH2 0x55A4 JUMP JUMPDEST JUMPDEST PUSH1 0x20 MUL PUSH1 0x20 ADD ADD DUP2 DUP2 MSTORE POP POP DUP4 PUSH2 0x100 ADD MLOAD DUP2 PUSH1 0x8 DUP2 MLOAD DUP2 LT PUSH2 0x1411 JUMPI PUSH2 0x1410 PUSH2 0x55A4 JUMP JUMPDEST JUMPDEST PUSH1 0x20 MUL PUSH1 0x20 ADD ADD DUP2 DUP2 MSTORE POP POP DUP4 PUSH2 0x120 ADD MLOAD DUP2 PUSH1 0x9 DUP2 MLOAD DUP2 LT PUSH2 0x1437 JUMPI PUSH2 0x1436 PUSH2 0x55A4 JUMP JUMPDEST JUMPDEST PUSH1 0x20 MUL PUSH1 0x20 ADD ADD DUP2 DUP2 MSTORE POP POP DUP4 PUSH2 0x140 ADD MLOAD DUP2 PUSH1 0xA DUP2 MLOAD DUP2 LT PUSH2 0x145D JUMPI PUSH2 0x145C PUSH2 0x55A4 JUMP JUMPDEST JUMPDEST PUSH1 0x20 MUL PUSH1 0x20 ADD ADD DUP2 DUP2 MSTORE POP POP DUP4 PUSH2 0x160 ADD MLOAD DUP2 PUSH1 0xB DUP2 MLOAD DUP2 LT PUSH2 0x1483 JUMPI PUSH2 0x1482 PUSH2 0x55A4 JUMP JUMPDEST JUMPDEST PUSH1 0x20 MUL PUSH1 0x20 ADD ADD DUP2 DUP2 MSTORE POP POP DUP3 PUSH1 0x0 ADD MLOAD DUP2 PUSH1 0xC DUP2 MLOAD DUP2 LT PUSH2 0x14A8 JUMPI PUSH2 0x14A7 PUSH2 0x55A4 JUMP JUMPDEST JUMPDEST PUSH1 0x20 MUL PUSH1 0x20 ADD ADD DUP2 DUP2 MSTORE POP POP DUP3 PUSH1 0x20 ADD MLOAD DUP2 PUSH1 0xD DUP2 MLOAD DUP2 LT PUSH2 0x14CD JUMPI PUSH2 0x14CC PUSH2 0x55A4 JUMP JUMPDEST JUMPDEST PUSH1 0x20 MUL PUSH1 0x20 ADD ADD DUP2 DUP2 MSTORE POP POP DUP3 PUSH1 0x40 ADD MLOAD DUP2 PUSH1 0xE DUP2 MLOAD DUP2 LT PUSH2 0x14F2 JUMPI PUSH2 0x14F1 PUSH2 0x55A4 JUMP JUMPDEST JUMPDEST PUSH1 0x20 MUL PUSH1 0x20 ADD ADD DUP2 DUP2 MSTORE POP POP DUP3 PUSH1 0x60 ADD MLOAD DUP2 PUSH1 0xF DUP2 MLOAD DUP2 LT PUSH2 0x1517 JUMPI PUSH2 0x1516 PUSH2 0x55A4 JUMP JUMPDEST JUMPDEST PUSH1 0x20 MUL PUSH1 0x20 ADD ADD DUP2 DUP2 MSTORE POP POP DUP3 PUSH1 0x80 ADD MLOAD DUP2 PUSH1 0x10 DUP2 MLOAD DUP2 LT PUSH2 0x153C JUMPI PUSH2 0x153B PUSH2 0x55A4 JUMP JUMPDEST JUMPDEST PUSH1 0x20 MUL PUSH1 0x20 ADD ADD DUP2 DUP2 MSTORE POP POP DUP3 PUSH1 0xA0 ADD MLOAD DUP2 PUSH1 0x11 DUP2 MLOAD DUP2 LT PUSH2 0x1561 JUMPI PUSH2 0x1560 PUSH2 0x55A4 JUMP JUMPDEST JUMPDEST PUSH1 0x20 MUL PUSH1 0x20 ADD ADD DUP2 DUP2 MSTORE POP POP DUP3 PUSH1 0xC0 ADD MLOAD DUP2 PUSH1 0x12 DUP2 MLOAD DUP2 LT PUSH2 0x1586 JUMPI PUSH2 0x1585 PUSH2 0x55A4 JUMP JUMPDEST JUMPDEST PUSH1 0x20 MUL PUSH1 0x20 ADD ADD DUP2 DUP2 MSTORE POP POP DUP3 PUSH1 0xE0 ADD MLOAD DUP2 PUSH1 0x13 DUP2 MLOAD DUP2 LT PUSH2 0x15AB JUMPI PUSH2 0x15AA PUSH2 0x55A4 JUMP JUMPDEST JUMPDEST PUSH1 0x20 MUL PUSH1 0x20 ADD ADD DUP2 DUP2 MSTORE POP POP DUP3 PUSH2 0x100 ADD MLOAD DUP2 PUSH1 0x14 DUP2 MLOAD DUP2 LT PUSH2 0x15D1 JUMPI PUSH2 0x15D0 PUSH2 0x55A4 JUMP JUMPDEST JUMPDEST PUSH1 0x20 MUL PUSH1 0x20 ADD ADD DUP2 DUP2 MSTORE POP POP DUP3 PUSH2 0x120 ADD MLOAD DUP2 PUSH1 0x15 DUP2 MLOAD DUP2 LT PUSH2 0x15F7 JUMPI PUSH2 0x15F6 PUSH2 0x55A4 JUMP JUMPDEST JUMPDEST PUSH1 0x20 MUL PUSH1 0x20 ADD ADD DUP2 DUP2 MSTORE POP POP DUP3 PUSH2 0x140 ADD MLOAD DUP2 PUSH1 0x16 DUP2 MLOAD DUP2 LT PUSH2 0x161D JUMPI PUSH2 0x161C PUSH2 0x55A4 JUMP JUMPDEST JUMPDEST PUSH1 0x20 MUL PUSH1 0x20 ADD ADD DUP2 DUP2 MSTORE POP POP DUP3 PUSH2 0x160 ADD MLOAD DUP2 PUSH1 0x17 DUP2 MLOAD DUP2 LT PUSH2 0x1643 JUMPI PUSH2 0x1642 PUSH2 0x55A4 JUMP JUMPDEST JUMPDEST PUSH1 0x20 MUL PUSH1 0x20 ADD ADD DUP2 DUP2 MSTORE POP POP DUP2 DUP2 PUSH1 0x18 DUP2 MLOAD DUP2 LT PUSH2 0x1664 JUMPI PUSH2 0x1663 PUSH2 0x55A4 JUMP JUMPDEST JUMPDEST PUSH1 0x20 MUL PUSH1 0x20 ADD ADD DUP2 DUP2 MSTORE POP POP PUSH32 0x3593DF2963C20760AFEEC7BC9AE99F0AD8227EC08877590930B113D33DF9C067 PUSH1 0x3 PUSH1 0x40 MLOAD PUSH2 0x16A0 SWAP2 SWAP1 PUSH2 0x4CA9 JUMP JUMPDEST PUSH1 0x40 MLOAD DUP1 SWAP2 SUB SWAP1 LOG1 PUSH1 0xA PUSH1 0x0 SWAP1 SLOAD SWAP1 PUSH2 0x100 EXP SWAP1 DIV PUSH20 0xFFFFFFFFFFFFFFFFFFFFFFFFFFFFFFFFFFFFFFFF AND PUSH20 0xFFFFFFFFFFFFFFFFFFFFFFFFFFFFFFFFFFFFFFFF AND PUSH4 0x3E3AA6C5 CALLVALUE PUSH1 0xC SLOAD PUSH32 0x397F7783310F752C90187FFFBD53489B1FF1F87FCF4636E32DC6BCBBF0B224F DUP6 PUSH1 0x40 MLOAD DUP6 PUSH4 0xFFFFFFFF AND PUSH1 0xE0 SHL DUP2 MSTORE PUSH1 0x4 ADD PUSH2 0x172A SWAP4 SWAP3 SWAP2 SWAP1 PUSH2 0x4FA5 JUMP JUMPDEST PUSH1 0x20 PUSH1 0x40 MLOAD DUP1 DUP4 SUB DUP2 DUP6 DUP9 DUP1 EXTCODESIZE ISZERO DUP1 ISZERO PUSH2 0x1743 JUMPI PUSH1 0x0 DUP1 REVERT JUMPDEST POP GAS CALL ISZERO DUP1 ISZERO PUSH2 0x1757 JUMPI RETURNDATASIZE PUSH1 0x0 DUP1 RETURNDATACOPY RETURNDATASIZE PUSH1 0x0 REVERT JUMPDEST POP POP POP POP POP PUSH1 0x40 MLOAD RETURNDATASIZE PUSH1 0x1F NOT PUSH1 0x1F DUP3 ADD AND DUP3 ADD DUP1 PUSH1 0x40 MSTORE POP DUP2 ADD SWAP1 PUSH2 0x177C SWAP2 SWAP1 PUSH2 0x4529 JUMP JUMPDEST POP PUSH1 0x40 MLOAD DUP1 PUSH1 0x40 ADD PUSH1 0x40 MSTORE DUP1 DUP6 DUP2 MSTORE PUSH1 0x20 ADD DUP5 DUP2 MSTORE POP PUSH1 0x10 PUSH1 0x0 DUP5 DUP2 MSTORE PUSH1 0x20 ADD SWAP1 DUP2 MSTORE PUSH1 0x20 ADD PUSH1 0x0 KECCAK256 PUSH1 0x0 DUP3 ADD MLOAD DUP2 PUSH1 0x0 ADD PUSH1 0x0 DUP3 ADD MLOAD DUP2 PUSH1 0x0 ADD SSTORE PUSH1 0x20 DUP3 ADD MLOAD DUP2 PUSH1 0x1 ADD SSTORE PUSH1 0x40 DUP3 ADD MLOAD DUP2 PUSH1 0x2 ADD SSTORE PUSH1 0x60 DUP3 ADD MLOAD DUP2 PUSH1 0x3 ADD SSTORE PUSH1 0x80 DUP3 ADD MLOAD DUP2 PUSH1 0x4 ADD SSTORE PUSH1 0xA0 DUP3 ADD MLOAD DUP2 PUSH1 0x5 ADD SSTORE PUSH1 0xC0 DUP3 ADD MLOAD DUP2 PUSH1 0x6 ADD SSTORE PUSH1 0xE0 DUP3 ADD MLOAD DUP2 PUSH1 0x7 ADD SSTORE PUSH2 0x100 DUP3 ADD MLOAD DUP2 PUSH1 0x8 ADD SSTORE PUSH2 0x120 DUP3 ADD MLOAD DUP2 PUSH1 0x9 ADD SSTORE PUSH2 0x140 DUP3 ADD MLOAD DUP2 PUSH1 0xA ADD SSTORE PUSH2 0x160 DUP3 ADD MLOAD DUP2 PUSH1 0xB ADD SSTORE POP POP PUSH1 0x20 DUP3 ADD MLOAD DUP2 PUSH1 0xC ADD PUSH1 0x0 DUP3 ADD MLOAD DUP2 PUSH1 0x0 ADD SSTORE PUSH1 0x20 DUP3 ADD MLOAD DUP2 PUSH1 0x1 ADD SSTORE PUSH1 0x40 DUP3 ADD MLOAD DUP2 PUSH1 0x2 ADD SSTORE PUSH1 0x60 DUP3 ADD MLOAD DUP2 PUSH1 0x3 ADD SSTORE PUSH1 0x80 DUP3 ADD MLOAD DUP2 PUSH1 0x4 ADD SSTORE PUSH1 0xA0 DUP3 ADD MLOAD DUP2 PUSH1 0x5 ADD SSTORE PUSH1 0xC0 DUP3 ADD MLOAD DUP2 PUSH1 0x6 ADD SSTORE PUSH1 0xE0 DUP3 ADD MLOAD DUP2 PUSH1 0x7 ADD SSTORE PUSH2 0x100 DUP3 ADD MLOAD DUP2 PUSH1 0x8 ADD SSTORE PUSH2 0x120 DUP3 ADD MLOAD DUP2 PUSH1 0x9 ADD SSTORE PUSH2 0x140 DUP3 ADD MLOAD DUP2 PUSH1 0xA ADD SSTORE PUSH2 0x160 DUP3 ADD MLOAD DUP2 PUSH1 0xB ADD SSTORE POP POP SWAP1 POP POP CALLER PUSH20 0xFFFFFFFFFFFFFFFFFFFFFFFFFFFFFFFFFFFFFFFF AND PUSH32 0xD02FCE1ACAFA0B604F24AAAD2D7C0A36C749F4B333ABC05FC83BA197D5E0705C DUP6 PUSH1 0x0 ADD MLOAD DUP6 PUSH1 0x0 ADD MLOAD PUSH1 0xC SLOAD CALLVALUE PUSH1 0x40 MLOAD PUSH2 0x190C SWAP5 SWAP4 SWAP3 SWAP2 SWAP1 PUSH2 0x501A JUMP JUMPDEST PUSH1 0x40 MLOAD DUP1 SWAP2 SUB SWAP1 LOG2 POP POP POP POP POP POP JUMP JUMPDEST PUSH1 0x60 PUSH1 0x1 DUP1 SLOAD PUSH2 0x192B SWAP1 PUSH2 0x5401 JUMP JUMPDEST DUP1 PUSH1 0x1F ADD PUSH1 0x20 DUP1 SWAP2 DIV MUL PUSH1 0x20 ADD PUSH1 0x40 MLOAD SWAP1 DUP2 ADD PUSH1 0x40 MSTORE DUP1 SWAP3 SWAP2 SWAP1 DUP2 DUP2 MSTORE PUSH1 0x20 ADD DUP3 DUP1 SLOAD PUSH2 0x1957 SWAP1 PUSH2 0x5401 JUMP JUMPDEST DUP1 ISZERO PUSH2 0x19A4 JUMPI DUP1 PUSH1 0x1F LT PUSH2 0x1979 JUMPI PUSH2 0x100 DUP1 DUP4 SLOAD DIV MUL DUP4 MSTORE SWAP2 PUSH1 0x20 ADD SWAP2 PUSH2 0x19A4 JUMP JUMPDEST DUP3 ADD SWAP2 SWAP1 PUSH1 0x0 MSTORE PUSH1 0x20 PUSH1 0x0 KECCAK256 SWAP1 JUMPDEST DUP2 SLOAD DUP2 MSTORE SWAP1 PUSH1 0x1 ADD SWAP1 PUSH1 0x20 ADD DUP1 DUP4 GT PUSH2 0x1987 JUMPI DUP3 SWAP1 SUB PUSH1 0x1F AND DUP3 ADD SWAP2 JUMPDEST POP POP POP POP POP SWAP1 POP SWAP1 JUMP JUMPDEST PUSH1 0x0 DUP2 GT DUP1 ISZERO PUSH2 0x19BF JUMPI POP PUSH2 0x28A DUP2 LT JUMPDEST PUSH2 0x19FE JUMPI PUSH1 0x40 MLOAD PUSH32 0x8C379A000000000000000000000000000000000000000000000000000000000 DUP2 MSTORE PUSH1 0x4 ADD PUSH2 0x19F5 SWAP1 PUSH2 0x4EC6 JUMP JUMPDEST PUSH1 0x40 MLOAD DUP1 SWAP2 SUB SWAP1 REVERT JUMPDEST PUSH1 0x0 PUSH1 0xE DUP1 SLOAD SWAP1 POP SWAP1 POP PUSH1 0x0 PUSH2 0x1A14 DUP4 DUP4 PUSH2 0x2B38 JUMP JUMPDEST SWAP1 POP PUSH1 0xE DUP2 SWAP1 DUP1 PUSH1 0x1 DUP2 SLOAD ADD DUP1 DUP3 SSTORE DUP1 SWAP2 POP POP PUSH1 0x1 SWAP1 SUB SWAP1 PUSH1 0x0 MSTORE PUSH1 0x20 PUSH1 0x0 KECCAK256 SWAP1 PUSH1 0xC MUL ADD PUSH1 0x0 SWAP1 SWAP2 SWAP1 SWAP2 SWAP1 SWAP2 POP PUSH1 0x0 DUP3 ADD MLOAD DUP2 PUSH1 0x0 ADD SSTORE PUSH1 0x20 DUP3 ADD MLOAD DUP2 PUSH1 0x1 ADD SSTORE PUSH1 0x40 DUP3 ADD MLOAD DUP2 PUSH1 0x2 ADD SSTORE PUSH1 0x60 DUP3 ADD MLOAD DUP2 PUSH1 0x3 ADD SSTORE PUSH1 0x80 DUP3 ADD MLOAD DUP2 PUSH1 0x4 ADD SSTORE PUSH1 0xA0 DUP3 ADD MLOAD DUP2 PUSH1 0x5 ADD SSTORE PUSH1 0xC0 DUP3 ADD MLOAD DUP2 PUSH1 0x6 ADD SSTORE PUSH1 0xE0 DUP3 ADD MLOAD DUP2 PUSH1 0x7 ADD SSTORE PUSH2 0x100 DUP3 ADD MLOAD DUP2 PUSH1 0x8 ADD SSTORE PUSH2 0x120 DUP3 ADD MLOAD DUP2 PUSH1 0x9 ADD SSTORE PUSH2 0x140 DUP3 ADD MLOAD DUP2 PUSH1 0xA ADD SSTORE PUSH2 0x160 DUP3 ADD MLOAD DUP2 PUSH1 0xB ADD SSTORE POP POP PUSH32 0x4E55BD6DB2C9FFA320EAC64DF3B7D1A3BA28EE53CE174854FC3A1918243AA01C DUP3 DUP3 PUSH1 0x20 ADD MLOAD DUP4 PUSH1 0x40 ADD MLOAD DUP5 PUSH1 0x60 ADD MLOAD DUP6 PUSH1 0x80 ADD MLOAD PUSH1 0x40 MLOAD PUSH2 0x1B07 SWAP6 SWAP5 SWAP4 SWAP3 SWAP2 SWAP1 PUSH2 0x505F JUMP JUMPDEST PUSH1 0x40 MLOAD DUP1 SWAP2 SUB SWAP1 LOG1 PUSH2 0x1B19 CALLER DUP4 PUSH2 0x32C9 JUMP JUMPDEST POP POP POP JUMP JUMPDEST PUSH2 0x1B30 PUSH2 0x1B29 PUSH2 0x2714 JUMP JUMPDEST DUP4 DUP4 PUSH2 0x32E7 JUMP JUMPDEST POP POP JUMP JUMPDEST PUSH2 0x1B45 PUSH2 0x1B3F PUSH2 0x2714 JUMP JUMPDEST DUP4 PUSH2 0x27D5 JUMP JUMPDEST PUSH2 0x1B84 JUMPI PUSH1 0x40 MLOAD PUSH32 0x8C379A000000000000000000000000000000000000000000000000000000000 DUP2 MSTORE PUSH1 0x4 ADD PUSH2 0x1B7B SWAP1 PUSH2 0x4EA6 JUMP JUMPDEST PUSH1 0x40 MLOAD DUP1 SWAP2 SUB SWAP1 REVERT JUMPDEST PUSH2 0x1B90 DUP5 DUP5 DUP5 DUP5 PUSH2 0x3454 JUMP JUMPDEST POP POP POP POP JUMP JUMPDEST PUSH1 0x60 PUSH2 0x1BA1 DUP3 PUSH2 0x26A8 JUMP JUMPDEST PUSH2 0x1BE0 JUMPI PUSH1 0x40 MLOAD PUSH32 0x8C379A000000000000000000000000000000000000000000000000000000000 DUP2 MSTORE PUSH1 0x4 ADD PUSH2 0x1BD7 SWAP1 PUSH2 0x4E66 JUMP JUMPDEST PUSH1 0x40 MLOAD DUP1 SWAP2 SUB SWAP1 REVERT JUMPDEST PUSH1 0x0 PUSH2 0x1BEA PUSH2 0x34B0 JUMP JUMPDEST SWAP1 POP PUSH1 0x0 DUP2 MLOAD GT PUSH2 0x1C0A JUMPI PUSH1 0x40 MLOAD DUP1 PUSH1 0x20 ADD PUSH1 0x40 MSTORE DUP1 PUSH1 0x0 DUP2 MSTORE POP PUSH2 0x1C35 JUMP JUMPDEST DUP1 PUSH2 0x1C14 DUP5 PUSH2 0x34C7 JUMP JUMPDEST PUSH1 0x40 MLOAD PUSH1 0x20 ADD PUSH2 0x1C25 SWAP3 SWAP2 SWAP1 PUSH2 0x4B75 JUMP JUMPDEST PUSH1 0x40 MLOAD PUSH1 0x20 DUP2 DUP4 SUB SUB DUP2 MSTORE SWAP1 PUSH1 0x40 MSTORE JUMPDEST SWAP2 POP POP SWAP2 SWAP1 POP JUMP JUMPDEST PUSH1 0x11 PUSH1 0x20 MSTORE DUP1 PUSH1 0x0 MSTORE PUSH1 0x40 PUSH1 0x0 KECCAK256 PUSH1 0x0 SWAP2 POP SWAP1 POP SLOAD DUP2 JUMP JUMPDEST PUSH1 0xF PUSH1 0x20 MSTORE DUP1 PUSH1 0x0 MSTORE PUSH1 0x40 PUSH1 0x0 KECCAK256 PUSH1 0x0 SWAP2 POP SWAP1 POP DUP1 PUSH1 0x0 ADD SLOAD SWAP1 DUP1 PUSH1 0x1 ADD SLOAD SWAP1 DUP1 PUSH1 0x2 ADD SLOAD SWAP1 DUP1 PUSH1 0x3 ADD SLOAD SWAP1 DUP1 PUSH1 0x4 ADD SLOAD SWAP1 DUP1 PUSH1 0x5 ADD SLOAD SWAP1 DUP1 PUSH1 0x6 ADD SLOAD SWAP1 DUP1 PUSH1 0x7 ADD SLOAD SWAP1 DUP1 PUSH1 0x8 ADD SLOAD SWAP1 DUP1 PUSH1 0x9 ADD SLOAD SWAP1 DUP1 PUSH1 0xA ADD SLOAD SWAP1 DUP1 PUSH1 0xB ADD SLOAD SWAP1 POP DUP13 JUMP JUMPDEST PUSH1 0x0 PUSH1 0x5 PUSH1 0x0 DUP5 PUSH20 0xFFFFFFFFFFFFFFFFFFFFFFFFFFFFFFFFFFFFFFFF AND PUSH20 0xFFFFFFFFFFFFFFFFFFFFFFFFFFFFFFFFFFFFFFFF AND DUP2 MSTORE PUSH1 0x20 ADD SWAP1 DUP2 MSTORE PUSH1 0x20 ADD PUSH1 0x0 KECCAK256 PUSH1 0x0 DUP4 PUSH20 0xFFFFFFFFFFFFFFFFFFFFFFFFFFFFFFFFFFFFFFFF AND PUSH20 0xFFFFFFFFFFFFFFFFFFFFFFFFFFFFFFFFFFFFFFFF AND DUP2 MSTORE PUSH1 0x20 ADD SWAP1 DUP2 MSTORE PUSH1 0x20 ADD PUSH1 0x0 KECCAK256 PUSH1 0x0 SWAP1 SLOAD SWAP1 PUSH2 0x100 EXP SWAP1 DIV PUSH1 0xFF AND SWAP1 POP SWAP3 SWAP2 POP POP JUMP JUMPDEST PUSH7 0x470DE4DF820000 CALLVALUE LT ISZERO PUSH2 0x1D5D JUMPI PUSH1 0x0 DUP1 REVERT JUMPDEST CALLER PUSH20 0xFFFFFFFFFFFFFFFFFFFFFFFFFFFFFFFFFFFFFFFF AND PUSH2 0x1D7D DUP4 PUSH2 0xE5D JUMP JUMPDEST PUSH20 0xFFFFFFFFFFFFFFFFFFFFFFFFFFFFFFFFFFFFFFFF AND EQ PUSH2 0x1D9D JUMPI PUSH1 0x0 DUP1 REVERT JUMPDEST PUSH2 0x1DA5 PUSH2 0x85C JUMP JUMPDEST DUP3 LT PUSH2 0x1DB0 JUMPI PUSH1 0x0 DUP1 REVERT JUMPDEST PUSH2 0x1DB8 PUSH2 0x85C JUMP JUMPDEST DUP2 LT PUSH2 0x1DC3 JUMPI PUSH1 0x0 DUP1 REVERT JUMPDEST PUSH32 0x3593DF2963C20760AFEEC7BC9AE99F0AD8227EC08877590930B113D33DF9C067 PUSH1 0x1 PUSH1 0x40 MLOAD PUSH2 0x1DF3 SWAP2 SWAP1 PUSH2 0x4C73 JUMP JUMPDEST PUSH1 0x40 MLOAD DUP1 SWAP2 SUB SWAP1 LOG1 PUSH1 0x0 PUSH1 0xE DUP4 DUP2 SLOAD DUP2 LT PUSH2 0x1E11 JUMPI PUSH2 0x1E10 PUSH2 0x55A4 JUMP JUMPDEST JUMPDEST SWAP1 PUSH1 0x0 MSTORE PUSH1 0x20 PUSH1 0x0 KECCAK256 SWAP1 PUSH1 0xC MUL ADD PUSH1 0x40 MLOAD DUP1 PUSH2 0x180 ADD PUSH1 0x40 MSTORE SWAP1 DUP2 PUSH1 0x0 DUP3 ADD SLOAD DUP2 MSTORE PUSH1 0x20 ADD PUSH1 0x1 DUP3 ADD SLOAD DUP2 MSTORE PUSH1 0x20 ADD PUSH1 0x2 DUP3 ADD SLOAD DUP2 MSTORE PUSH1 0x20 ADD PUSH1 0x3 DUP3 ADD SLOAD DUP2 MSTORE PUSH1 0x20 ADD PUSH1 0x4 DUP3 ADD SLOAD DUP2 MSTORE PUSH1 0x20 ADD PUSH1 0x5 DUP3 ADD SLOAD DUP2 MSTORE PUSH1 0x20 ADD PUSH1 0x6 DUP3 ADD SLOAD DUP2 MSTORE PUSH1 0x20 ADD PUSH1 0x7 DUP3 ADD SLOAD DUP2 MSTORE PUSH1 0x20 ADD PUSH1 0x8 DUP3 ADD SLOAD DUP2 MSTORE PUSH1 0x20 ADD PUSH1 0x9 DUP3 ADD SLOAD DUP2 MSTORE PUSH1 0x20 ADD PUSH1 0xA DUP3 ADD SLOAD DUP2 MSTORE PUSH1 0x20 ADD PUSH1 0xB DUP3 ADD SLOAD DUP2 MSTORE POP POP SWAP1 POP PUSH1 0x0 PUSH1 0xE DUP4 DUP2 SLOAD DUP2 LT PUSH2 0x1EBB JUMPI PUSH2 0x1EBA PUSH2 0x55A4 JUMP JUMPDEST JUMPDEST SWAP1 PUSH1 0x0 MSTORE PUSH1 0x20 PUSH1 0x0 KECCAK256 SWAP1 PUSH1 0xC MUL ADD PUSH1 0x40 MLOAD DUP1 PUSH2 0x180 ADD PUSH1 0x40 MSTORE SWAP1 DUP2 PUSH1 0x0 DUP3 ADD SLOAD DUP2 MSTORE PUSH1 0x20 ADD PUSH1 0x1 DUP3 ADD SLOAD DUP2 MSTORE PUSH1 0x20 ADD PUSH1 0x2 DUP3 ADD SLOAD DUP2 MSTORE PUSH1 0x20 ADD PUSH1 0x3 DUP3 ADD SLOAD DUP2 MSTORE PUSH1 0x20 ADD PUSH1 0x4 DUP3 ADD SLOAD DUP2 MSTORE PUSH1 0x20 ADD PUSH1 0x5 DUP3 ADD SLOAD DUP2 MSTORE PUSH1 0x20 ADD PUSH1 0x6 DUP3 ADD SLOAD DUP2 MSTORE PUSH1 0x20 ADD PUSH1 0x7 DUP3 ADD SLOAD DUP2 MSTORE PUSH1 0x20 ADD PUSH1 0x8 DUP3 ADD SLOAD DUP2 MSTORE PUSH1 0x20 ADD PUSH1 0x9 DUP3 ADD SLOAD DUP2 MSTORE PUSH1 0x20 ADD PUSH1 0xA DUP3 ADD SLOAD DUP2 MSTORE PUSH1 0x20 ADD PUSH1 0xB DUP3 ADD SLOAD DUP2 MSTORE POP POP SWAP1 POP PUSH1 0x0 PUSH2 0x1F59 PUSH2 0x2B1A JUMP JUMPDEST SWAP1 POP PUSH32 0x3593DF2963C20760AFEEC7BC9AE99F0AD8227EC08877590930B113D33DF9C067 PUSH1 0x2 PUSH1 0x40 MLOAD PUSH2 0x1F8B SWAP2 SWAP1 PUSH2 0x4C8E JUMP JUMPDEST PUSH1 0x40 MLOAD DUP1 SWAP2 SUB SWAP1 LOG1 PUSH1 0x0 PUSH1 0x19 PUSH8 0xFFFFFFFFFFFFFFFF DUP2 GT ISZERO PUSH2 0x1FB0 JUMPI PUSH2 0x1FAF PUSH2 0x55D3 JUMP JUMPDEST JUMPDEST PUSH1 0x40 MLOAD SWAP1 DUP1 DUP3 MSTORE DUP1 PUSH1 0x20 MUL PUSH1 0x20 ADD DUP3 ADD PUSH1 0x40 MSTORE DUP1 ISZERO PUSH2 0x1FDE JUMPI DUP2 PUSH1 0x20 ADD PUSH1 0x20 DUP3 MUL DUP1 CALLDATASIZE DUP4 CALLDATACOPY DUP1 DUP3 ADD SWAP2 POP POP SWAP1 POP JUMPDEST POP SWAP1 POP DUP4 PUSH1 0x0 ADD MLOAD DUP2 PUSH1 0x0 DUP2 MLOAD DUP2 LT PUSH2 0x1FFA JUMPI PUSH2 0x1FF9 PUSH2 0x55A4 JUMP JUMPDEST JUMPDEST PUSH1 0x20 MUL PUSH1 0x20 ADD ADD DUP2 DUP2 MSTORE POP POP DUP4 PUSH1 0x20 ADD MLOAD DUP2 PUSH1 0x1 DUP2 MLOAD DUP2 LT PUSH2 0x201F JUMPI PUSH2 0x201E PUSH2 0x55A4 JUMP JUMPDEST JUMPDEST PUSH1 0x20 MUL PUSH1 0x20 ADD ADD DUP2 DUP2 MSTORE POP POP DUP4 PUSH1 0x40 ADD MLOAD DUP2 PUSH1 0x2 DUP2 MLOAD DUP2 LT PUSH2 0x2044 JUMPI PUSH2 0x2043 PUSH2 0x55A4 JUMP JUMPDEST JUMPDEST PUSH1 0x20 MUL PUSH1 0x20 ADD ADD DUP2 DUP2 MSTORE POP POP DUP4 PUSH1 0x60 ADD MLOAD DUP2 PUSH1 0x3 DUP2 MLOAD DUP2 LT PUSH2 0x2069 JUMPI PUSH2 0x2068 PUSH2 0x55A4 JUMP JUMPDEST JUMPDEST PUSH1 0x20 MUL PUSH1 0x20 ADD ADD DUP2 DUP2 MSTORE POP POP DUP4 PUSH1 0x80 ADD MLOAD DUP2 PUSH1 0x4 DUP2 MLOAD DUP2 LT PUSH2 0x208E JUMPI PUSH2 0x208D PUSH2 0x55A4 JUMP JUMPDEST JUMPDEST PUSH1 0x20 MUL PUSH1 0x20 ADD ADD DUP2 DUP2 MSTORE POP POP DUP4 PUSH1 0xA0 ADD MLOAD DUP2 PUSH1 0x5 DUP2 MLOAD DUP2 LT PUSH2 0x20B3 JUMPI PUSH2 0x20B2 PUSH2 0x55A4 JUMP JUMPDEST JUMPDEST PUSH1 0x20 MUL PUSH1 0x20 ADD ADD DUP2 DUP2 MSTORE POP POP DUP4 PUSH1 0xC0 ADD MLOAD DUP2 PUSH1 0x6 DUP2 MLOAD DUP2 LT PUSH2 0x20D8 JUMPI PUSH2 0x20D7 PUSH2 0x55A4 JUMP JUMPDEST JUMPDEST PUSH1 0x20 MUL PUSH1 0x20 ADD ADD DUP2 DUP2 MSTORE POP POP DUP4 PUSH1 0xE0 ADD MLOAD DUP2 PUSH1 0x7 DUP2 MLOAD DUP2 LT PUSH2 0x20FD JUMPI PUSH2 0x20FC PUSH2 0x55A4 JUMP JUMPDEST JUMPDEST PUSH1 0x20 MUL PUSH1 0x20 ADD ADD DUP2 DUP2 MSTORE POP POP DUP4 PUSH2 0x100 ADD MLOAD DUP2 PUSH1 0x8 DUP2 MLOAD DUP2 LT PUSH2 0x2123 JUMPI PUSH2 0x2122 PUSH2 0x55A4 JUMP JUMPDEST JUMPDEST PUSH1 0x20 MUL PUSH1 0x20 ADD ADD DUP2 DUP2 MSTORE POP POP DUP4 PUSH2 0x120 ADD MLOAD DUP2 PUSH1 0x9 DUP2 MLOAD DUP2 LT PUSH2 0x2149 JUMPI PUSH2 0x2148 PUSH2 0x55A4 JUMP JUMPDEST JUMPDEST PUSH1 0x20 MUL PUSH1 0x20 ADD ADD DUP2 DUP2 MSTORE POP POP DUP4 PUSH2 0x140 ADD MLOAD DUP2 PUSH1 0xA DUP2 MLOAD DUP2 LT PUSH2 0x216F JUMPI PUSH2 0x216E PUSH2 0x55A4 JUMP JUMPDEST JUMPDEST PUSH1 0x20 MUL PUSH1 0x20 ADD ADD DUP2 DUP2 MSTORE POP POP DUP4 PUSH2 0x160 ADD MLOAD DUP2 PUSH1 0xB DUP2 MLOAD DUP2 LT PUSH2 0x2195 JUMPI PUSH2 0x2194 PUSH2 0x55A4 JUMP JUMPDEST JUMPDEST PUSH1 0x20 MUL PUSH1 0x20 ADD ADD DUP2 DUP2 MSTORE POP POP DUP3 PUSH1 0x0 ADD MLOAD DUP2 PUSH1 0xC DUP2 MLOAD DUP2 LT PUSH2 0x21BA JUMPI PUSH2 0x21B9 PUSH2 0x55A4 JUMP JUMPDEST JUMPDEST PUSH1 0x20 MUL PUSH1 0x20 ADD ADD DUP2 DUP2 MSTORE POP POP DUP3 PUSH1 0x20 ADD MLOAD DUP2 PUSH1 0xD DUP2 MLOAD DUP2 LT PUSH2 0x21DF JUMPI PUSH2 0x21DE PUSH2 0x55A4 JUMP JUMPDEST JUMPDEST PUSH1 0x20 MUL PUSH1 0x20 ADD ADD DUP2 DUP2 MSTORE POP POP DUP3 PUSH1 0x40 ADD MLOAD DUP2 PUSH1 0xE DUP2 MLOAD DUP2 LT PUSH2 0x2204 JUMPI PUSH2 0x2203 PUSH2 0x55A4 JUMP JUMPDEST JUMPDEST PUSH1 0x20 MUL PUSH1 0x20 ADD ADD DUP2 DUP2 MSTORE POP POP DUP3 PUSH1 0x60 ADD MLOAD DUP2 PUSH1 0xF DUP2 MLOAD DUP2 LT PUSH2 0x2229 JUMPI PUSH2 0x2228 PUSH2 0x55A4 JUMP JUMPDEST JUMPDEST PUSH1 0x20 MUL PUSH1 0x20 ADD ADD DUP2 DUP2 MSTORE POP POP DUP3 PUSH1 0x80 ADD MLOAD DUP2 PUSH1 0x10 DUP2 MLOAD DUP2 LT PUSH2 0x224E JUMPI PUSH2 0x224D PUSH2 0x55A4 JUMP JUMPDEST JUMPDEST PUSH1 0x20 MUL PUSH1 0x20 ADD ADD DUP2 DUP2 MSTORE POP POP DUP3 PUSH1 0xA0 ADD MLOAD DUP2 PUSH1 0x11 DUP2 MLOAD DUP2 LT PUSH2 0x2273 JUMPI PUSH2 0x2272 PUSH2 0x55A4 JUMP JUMPDEST JUMPDEST PUSH1 0x20 MUL PUSH1 0x20 ADD ADD DUP2 DUP2 MSTORE POP POP DUP3 PUSH1 0xC0 ADD MLOAD DUP2 PUSH1 0x12 DUP2 MLOAD DUP2 LT PUSH2 0x2298 JUMPI PUSH2 0x2297 PUSH2 0x55A4 JUMP JUMPDEST JUMPDEST PUSH1 0x20 MUL PUSH1 0x20 ADD ADD DUP2 DUP2 MSTORE POP POP DUP3 PUSH1 0xE0 ADD MLOAD DUP2 PUSH1 0x13 DUP2 MLOAD DUP2 LT PUSH2 0x22BD JUMPI PUSH2 0x22BC PUSH2 0x55A4 JUMP JUMPDEST JUMPDEST PUSH1 0x20 MUL PUSH1 0x20 ADD ADD DUP2 DUP2 MSTORE POP POP DUP3 PUSH2 0x100 ADD MLOAD DUP2 PUSH1 0x14 DUP2 MLOAD DUP2 LT PUSH2 0x22E3 JUMPI PUSH2 0x22E2 PUSH2 0x55A4 JUMP JUMPDEST JUMPDEST PUSH1 0x20 MUL PUSH1 0x20 ADD ADD DUP2 DUP2 MSTORE POP POP DUP3 PUSH2 0x120 ADD MLOAD DUP2 PUSH1 0x15 DUP2 MLOAD DUP2 LT PUSH2 0x2309 JUMPI PUSH2 0x2308 PUSH2 0x55A4 JUMP JUMPDEST JUMPDEST PUSH1 0x20 MUL PUSH1 0x20 ADD ADD DUP2 DUP2 MSTORE POP POP DUP3 PUSH2 0x140 ADD MLOAD DUP2 PUSH1 0x16 DUP2 MLOAD DUP2 LT PUSH2 0x232F JUMPI PUSH2 0x232E PUSH2 0x55A4 JUMP JUMPDEST JUMPDEST PUSH1 0x20 MUL PUSH1 0x20 ADD ADD DUP2 DUP2 MSTORE POP POP DUP3 PUSH2 0x160 ADD MLOAD DUP2 PUSH1 0x17 DUP2 MLOAD DUP2 LT PUSH2 0x2355 JUMPI PUSH2 0x2354 PUSH2 0x55A4 JUMP JUMPDEST JUMPDEST PUSH1 0x20 MUL PUSH1 0x20 ADD ADD DUP2 DUP2 MSTORE POP POP DUP2 DUP2 PUSH1 0x18 DUP2 MLOAD DUP2 LT PUSH2 0x2376 JUMPI PUSH2 0x2375 PUSH2 0x55A4 JUMP JUMPDEST JUMPDEST PUSH1 0x20 MUL PUSH1 0x20 ADD ADD DUP2 DUP2 MSTORE POP POP PUSH32 0x3593DF2963C20760AFEEC7BC9AE99F0AD8227EC08877590930B113D33DF9C067 PUSH1 0x3 PUSH1 0x40 MLOAD PUSH2 0x23B2 SWAP2 SWAP1 PUSH2 0x4CA9 JUMP JUMPDEST PUSH1 0x40 MLOAD DUP1 SWAP2 SUB SWAP1 LOG1 PUSH1 0xA PUSH1 0x0 SWAP1 SLOAD SWAP1 PUSH2 0x100 EXP SWAP1 DIV PUSH20 0xFFFFFFFFFFFFFFFFFFFFFFFFFFFFFFFFFFFFFFFF AND PUSH20 0xFFFFFFFFFFFFFFFFFFFFFFFFFFFFFFFFFFFFFFFF AND PUSH4 0x3E3AA6C5 CALLVALUE PUSH1 0xC SLOAD PUSH32 0x2D8DD67D94FF9987FBA396772E78AF45776E50EC5231A489977B2973C8AD302 DUP6 PUSH1 0x40 MLOAD DUP6 PUSH4 0xFFFFFFFF AND PUSH1 0xE0 SHL DUP2 MSTORE PUSH1 0x4 ADD PUSH2 0x243C SWAP4 SWAP3 SWAP2 SWAP1 PUSH2 0x4FA5 JUMP JUMPDEST PUSH1 0x20 PUSH1 0x40 MLOAD DUP1 DUP4 SUB DUP2 DUP6 DUP9 DUP1 EXTCODESIZE ISZERO DUP1 ISZERO PUSH2 0x2455 JUMPI PUSH1 0x0 DUP1 REVERT JUMPDEST POP GAS CALL ISZERO DUP1 ISZERO PUSH2 0x2469 JUMPI RETURNDATASIZE PUSH1 0x0 DUP1 RETURNDATACOPY RETURNDATASIZE PUSH1 0x0 REVERT JUMPDEST POP POP POP POP POP PUSH1 0x40 MLOAD RETURNDATASIZE PUSH1 0x1F NOT PUSH1 0x1F DUP3 ADD AND DUP3 ADD DUP1 PUSH1 0x40 MSTORE POP DUP2 ADD SWAP1 PUSH2 0x248E SWAP2 SWAP1 PUSH2 0x4529 JUMP JUMPDEST POP PUSH1 0x40 MLOAD DUP1 PUSH1 0x40 ADD PUSH1 0x40 MSTORE DUP1 DUP6 DUP2 MSTORE PUSH1 0x20 ADD DUP5 DUP2 MSTORE POP PUSH1 0x10 PUSH1 0x0 DUP5 DUP2 MSTORE PUSH1 0x20 ADD SWAP1 DUP2 MSTORE PUSH1 0x20 ADD PUSH1 0x0 KECCAK256 PUSH1 0x0 DUP3 ADD MLOAD DUP2 PUSH1 0x0 ADD PUSH1 0x0 DUP3 ADD MLOAD DUP2 PUSH1 0x0 ADD SSTORE PUSH1 0x20 DUP3 ADD MLOAD DUP2 PUSH1 0x1 ADD SSTORE PUSH1 0x40 DUP3 ADD MLOAD DUP2 PUSH1 0x2 ADD SSTORE PUSH1 0x60 DUP3 ADD MLOAD DUP2 PUSH1 0x3 ADD SSTORE PUSH1 0x80 DUP3 ADD MLOAD DUP2 PUSH1 0x4 ADD SSTORE PUSH1 0xA0 DUP3 ADD MLOAD DUP2 PUSH1 0x5 ADD SSTORE PUSH1 0xC0 DUP3 ADD MLOAD DUP2 PUSH1 0x6 ADD SSTORE PUSH1 0xE0 DUP3 ADD MLOAD DUP2 PUSH1 0x7 ADD SSTORE PUSH2 0x100 DUP3 ADD MLOAD DUP2 PUSH1 0x8 ADD SSTORE PUSH2 0x120 DUP3 ADD MLOAD DUP2 PUSH1 0x9 ADD SSTORE PUSH2 0x140 DUP3 ADD MLOAD DUP2 PUSH1 0xA ADD SSTORE PUSH2 0x160 DUP3 ADD MLOAD DUP2 PUSH1 0xB ADD SSTORE POP POP PUSH1 0x20 DUP3 ADD MLOAD DUP2 PUSH1 0xC ADD PUSH1 0x0 DUP3 ADD MLOAD DUP2 PUSH1 0x0 ADD SSTORE PUSH1 0x20 DUP3 ADD MLOAD DUP2 PUSH1 0x1 ADD SSTORE PUSH1 0x40 DUP3 ADD MLOAD DUP2 PUSH1 0x2 ADD SSTORE PUSH1 0x60 DUP3 ADD MLOAD DUP2 PUSH1 0x3 ADD SSTORE PUSH1 0x80 DUP3 ADD MLOAD DUP2 PUSH1 0x4 ADD SSTORE PUSH1 0xA0 DUP3 ADD MLOAD DUP2 PUSH1 0x5 ADD SSTORE PUSH1 0xC0 DUP3 ADD MLOAD DUP2 PUSH1 0x6 ADD SSTORE PUSH1 0xE0 DUP3 ADD MLOAD DUP2 PUSH1 0x7 ADD SSTORE PUSH2 0x100 DUP3 ADD MLOAD DUP2 PUSH1 0x8 ADD SSTORE PUSH2 0x120 DUP3 ADD MLOAD DUP2 PUSH1 0x9 ADD SSTORE PUSH2 0x140 DUP3 ADD MLOAD DUP2 PUSH1 0xA ADD SSTORE PUSH2 0x160 DUP3 ADD MLOAD DUP2 PUSH1 0xB ADD SSTORE POP POP SWAP1 POP POP CALLER PUSH20 0xFFFFFFFFFFFFFFFFFFFFFFFFFFFFFFFFFFFFFFFF AND PUSH32 0xD02FCE1ACAFA0B604F24AAAD2D7C0A36C749F4B333ABC05FC83BA197D5E0705C DUP6 PUSH1 0x0 ADD MLOAD DUP6 PUSH1 0x0 ADD MLOAD PUSH1 0xC SLOAD CALLVALUE PUSH1 0x40 MLOAD PUSH2 0x261E SWAP5 SWAP4 SWAP3 SWAP2 SWAP1 PUSH2 0x501A JUMP JUMPDEST PUSH1 0x40 MLOAD DUP1 SWAP2 SUB SWAP1 LOG2 POP POP POP POP POP POP JUMP JUMPDEST PUSH1 0x0 PUSH32 0x780E9D6300000000000000000000000000000000000000000000000000000000 PUSH28 0xFFFFFFFFFFFFFFFFFFFFFFFFFFFFFFFFFFFFFFFFFFFFFFFFFFFFFFFF NOT AND DUP3 PUSH28 0xFFFFFFFFFFFFFFFFFFFFFFFFFFFFFFFFFFFFFFFFFFFFFFFFFFFFFFFF NOT AND EQ DUP1 PUSH2 0x26A1 JUMPI POP PUSH2 0x26A0 DUP3 PUSH2 0x3628 JUMP JUMPDEST JUMPDEST SWAP1 POP SWAP2 SWAP1 POP JUMP JUMPDEST PUSH1 0x0 DUP1 PUSH20 0xFFFFFFFFFFFFFFFFFFFFFFFFFFFFFFFFFFFFFFFF AND PUSH1 0x2 PUSH1 0x0 DUP5 DUP2 MSTORE PUSH1 0x20 ADD SWAP1 DUP2 MSTORE PUSH1 0x20 ADD PUSH1 0x0 KECCAK256 PUSH1 0x0 SWAP1 SLOAD SWAP1 PUSH2 0x100 EXP SWAP1 DIV PUSH20 0xFFFFFFFFFFFFFFFFFFFFFFFFFFFFFFFFFFFFFFFF AND PUSH20 0xFFFFFFFFFFFFFFFFFFFFFFFFFFFFFFFFFFFFFFFF AND EQ ISZERO SWAP1 POP SWAP2 SWAP1 POP JUMP JUMPDEST PUSH1 0x0 CALLER SWAP1 POP SWAP1 JUMP JUMPDEST DUP2 PUSH1 0x4 PUSH1 0x0 DUP4 DUP2 MSTORE PUSH1 0x20 ADD SWAP1 DUP2 MSTORE PUSH1 0x20 ADD PUSH1 0x0 KECCAK256 PUSH1 0x0 PUSH2 0x100 EXP DUP2 SLOAD DUP2 PUSH20 0xFFFFFFFFFFFFFFFFFFFFFFFFFFFFFFFFFFFFFFFF MUL NOT AND SWAP1 DUP4 PUSH20 0xFFFFFFFFFFFFFFFFFFFFFFFFFFFFFFFFFFFFFFFF AND MUL OR SWAP1 SSTORE POP DUP1 DUP3 PUSH20 0xFFFFFFFFFFFFFFFFFFFFFFFFFFFFFFFFFFFFFFFF AND PUSH2 0x278F DUP4 PUSH2 0xE5D JUMP JUMPDEST PUSH20 0xFFFFFFFFFFFFFFFFFFFFFFFFFFFFFFFFFFFFFFFF AND PUSH32 0x8C5BE1E5EBEC7D5BD14F71427D1E84F3DD0314C0F7B2291E5B200AC8C7C3B925 PUSH1 0x40 MLOAD PUSH1 0x40 MLOAD DUP1 SWAP2 SUB SWAP1 LOG4 POP POP JUMP JUMPDEST PUSH1 0x0 PUSH2 0x27E0 DUP3 PUSH2 0x26A8 JUMP JUMPDEST PUSH2 0x281F JUMPI PUSH1 0x40 MLOAD PUSH32 0x8C379A000000000000000000000000000000000000000000000000000000000 DUP2 MSTORE PUSH1 0x4 ADD PUSH2 0x2816 SWAP1 PUSH2 0x4DA6 JUMP JUMPDEST PUSH1 0x40 MLOAD DUP1 SWAP2 SUB SWAP1 REVERT JUMPDEST PUSH1 0x0 PUSH2 0x282A DUP4 PUSH2 0xE5D JUMP JUMPDEST SWAP1 POP DUP1 PUSH20 0xFFFFFFFFFFFFFFFFFFFFFFFFFFFFFFFFFFFFFFFF AND DUP5 PUSH20 0xFFFFFFFFFFFFFFFFFFFFFFFFFFFFFFFFFFFFFFFF AND EQ DUP1 PUSH2 0x286C JUMPI POP PUSH2 0x286B DUP2 DUP6 PUSH2 0x1CB5 JUMP JUMPDEST JUMPDEST DUP1 PUSH2 0x28AA JUMPI POP DUP4 PUSH20 0xFFFFFFFFFFFFFFFFFFFFFFFFFFFFFFFFFFFFFFFF AND PUSH2 0x2892 DUP5 PUSH2 0x6BF JUMP JUMPDEST PUSH20 0xFFFFFFFFFFFFFFFFFFFFFFFFFFFFFFFFFFFFFFFF AND EQ JUMPDEST SWAP2 POP POP SWAP3 SWAP2 POP POP JUMP JUMPDEST DUP3 PUSH20 0xFFFFFFFFFFFFFFFFFFFFFFFFFFFFFFFFFFFFFFFF AND PUSH2 0x28D3 DUP3 PUSH2 0xE5D JUMP JUMPDEST PUSH20 0xFFFFFFFFFFFFFFFFFFFFFFFFFFFFFFFFFFFFFFFF AND EQ PUSH2 0x2929 JUMPI PUSH1 0x40 MLOAD PUSH32 0x8C379A000000000000000000000000000000000000000000000000000000000 DUP2 MSTORE PUSH1 0x4 ADD PUSH2 0x2920 SWAP1 PUSH2 0x4D26 JUMP JUMPDEST PUSH1 0x40 MLOAD DUP1 SWAP2 SUB SWAP1 REVERT JUMPDEST PUSH1 0x0 PUSH20 0xFFFFFFFFFFFFFFFFFFFFFFFFFFFFFFFFFFFFFFFF AND DUP3 PUSH20 0xFFFFFFFFFFFFFFFFFFFFFFFFFFFFFFFFFFFFFFFF AND EQ ISZERO PUSH2 0x2999 JUMPI PUSH1 0x40 MLOAD PUSH32 0x8C379A000000000000000000000000000000000000000000000000000000000 DUP2 MSTORE PUSH1 0x4 ADD PUSH2 0x2990 SWAP1 PUSH2 0x4D66 JUMP JUMPDEST PUSH1 0x40 MLOAD DUP1 SWAP2 SUB SWAP1 REVERT JUMPDEST PUSH2 0x29A4 DUP4 DUP4 DUP4 PUSH2 0x370A JUMP JUMPDEST PUSH2 0x29AF PUSH1 0x0 DUP3 PUSH2 0x271C JUMP JUMPDEST PUSH1 0x1 PUSH1 0x3 PUSH1 0x0 DUP6 PUSH20 0xFFFFFFFFFFFFFFFFFFFFFFFFFFFFFFFFFFFFFFFF AND PUSH20 0xFFFFFFFFFFFFFFFFFFFFFFFFFFFFFFFFFFFFFFFF AND DUP2 MSTORE PUSH1 0x20 ADD SWAP1 DUP2 MSTORE PUSH1 0x20 ADD PUSH1 0x0 KECCAK256 PUSH1 0x0 DUP3 DUP3 SLOAD PUSH2 0x29FF SWAP2 SWAP1 PUSH2 0x52C5 JUMP JUMPDEST SWAP3 POP POP DUP2 SWAP1 SSTORE POP PUSH1 0x1 PUSH1 0x3 PUSH1 0x0 DUP5 PUSH20 0xFFFFFFFFFFFFFFFFFFFFFFFFFFFFFFFFFFFFFFFF AND PUSH20 0xFFFFFFFFFFFFFFFFFFFFFFFFFFFFFFFFFFFFFFFF AND DUP2 MSTORE PUSH1 0x20 ADD SWAP1 DUP2 MSTORE PUSH1 0x20 ADD PUSH1 0x0 KECCAK256 PUSH1 0x0 DUP3 DUP3 SLOAD PUSH2 0x2A56 SWAP2 SWAP1 PUSH2 0x523E JUMP JUMPDEST SWAP3 POP POP DUP2 SWAP1 SSTORE POP DUP2 PUSH1 0x2 PUSH1 0x0 DUP4 DUP2 MSTORE PUSH1 0x20 ADD SWAP1 DUP2 MSTORE PUSH1 0x20 ADD PUSH1 0x0 KECCAK256 PUSH1 0x0 PUSH2 0x100 EXP DUP2 SLOAD DUP2 PUSH20 0xFFFFFFFFFFFFFFFFFFFFFFFFFFFFFFFFFFFFFFFF MUL NOT AND SWAP1 DUP4 PUSH20 0xFFFFFFFFFFFFFFFFFFFFFFFFFFFFFFFFFFFFFFFF AND MUL OR SWAP1 SSTORE POP DUP1 DUP3 PUSH20 0xFFFFFFFFFFFFFFFFFFFFFFFFFFFFFFFFFFFFFFFF AND DUP5 PUSH20 0xFFFFFFFFFFFFFFFFFFFFFFFFFFFFFFFFFFFFFFFF AND PUSH32 0xDDF252AD1BE2C89B69C2B068FC378DAA952BA7F163C4A11628F55A4DF523B3EF PUSH1 0x40 MLOAD PUSH1 0x40 MLOAD DUP1 SWAP2 SUB SWAP1 LOG4 PUSH2 0x2B15 DUP4 DUP4 DUP4 PUSH2 0x371A JUMP JUMPDEST POP POP POP JUMP JUMPDEST PUSH1 0x0 PUSH1 0xD PUSH1 0x0 DUP2 SLOAD DUP1 SWAP3 SWAP2 SWAP1 PUSH2 0x2B2F SWAP1 PUSH2 0x5464 JUMP JUMPDEST SWAP2 SWAP1 POP SSTORE SWAP1 POP SWAP1 JUMP JUMPDEST PUSH2 0x2B40 PUSH2 0x4217 JUMP JUMPDEST PUSH1 0x1 DUP4 EQ ISZERO PUSH2 0x2B7A JUMPI PUSH2 0x2B73 DUP3 PUSH1 0x98 PUSH1 0x6F PUSH1 0x6A PUSH1 0x6F PUSH1 0x3 PUSH1 0x63 PUSH1 0x3 PUSH1 0x1E PUSH2 0x2B65 PUSH2 0x371F JUMP JUMPDEST PUSH2 0x2B6D PUSH2 0x3730 JUMP JUMPDEST DUP15 PUSH2 0x374D JUMP JUMPDEST SWAP1 POP PUSH2 0x32C3 JUMP JUMPDEST PUSH1 0x2 DUP4 EQ ISZERO PUSH2 0x2BB4 JUMPI PUSH2 0x2BAD DUP3 PUSH1 0xA7 PUSH1 0x7D PUSH1 0x7B PUSH1 0x7E PUSH1 0x3 PUSH1 0x7 PUSH1 0x3 PUSH1 0x28 PUSH2 0x2B9F PUSH2 0x371F JUMP JUMPDEST PUSH2 0x2BA7 PUSH2 0x3730 JUMP JUMPDEST DUP15 PUSH2 0x374D JUMP JUMPDEST SWAP1 POP PUSH2 0x32C3 JUMP JUMPDEST PUSH1 0x3 DUP4 EQ ISZERO PUSH2 0x2BEE JUMPI PUSH2 0x2BE7 DUP3 PUSH1 0xBB PUSH1 0xA7 PUSH1 0x91 PUSH1 0xC0 PUSH1 0x3 PUSH1 0x7 PUSH1 0x3 PUSH1 0x32 PUSH2 0x2BD9 PUSH2 0x371F JUMP JUMPDEST PUSH2 0x2BE1 PUSH2 0x3730 JUMP JUMPDEST DUP15 PUSH2 0x374D JUMP JUMPDEST SWAP1 POP PUSH2 0x32C3 JUMP JUMPDEST PUSH1 0x4 DUP4 EQ ISZERO PUSH2 0x2C28 JUMPI PUSH2 0x2C21 DUP3 PUSH1 0x92 PUSH1 0x72 PUSH1 0x80 PUSH1 0x68 PUSH1 0x1 PUSH1 0x63 PUSH1 0x1 PUSH1 0x28 PUSH2 0x2C13 PUSH2 0x371F JUMP JUMPDEST PUSH2 0x2C1B PUSH2 0x3730 JUMP JUMPDEST DUP15 PUSH2 0x374D JUMP JUMPDEST SWAP1 POP PUSH2 0x32C3 JUMP JUMPDEST PUSH1 0x5 DUP4 EQ ISZERO PUSH2 0x2C62 JUMPI PUSH2 0x2C5B DUP3 PUSH1 0xA5 PUSH1 0x7F PUSH1 0x91 PUSH1 0x79 PUSH1 0x1 PUSH1 0x63 PUSH1 0x1 PUSH1 0x28 PUSH2 0x2C4D PUSH2 0x371F JUMP JUMPDEST PUSH2 0x2C55 PUSH2 0x3730 JUMP JUMPDEST DUP15 PUSH2 0x374D JUMP JUMPDEST SWAP1 POP PUSH2 0x32C3 JUMP JUMPDEST PUSH1 0x6 DUP4 EQ ISZERO PUSH2 0x2C9C JUMPI PUSH2 0x2C95 DUP3 PUSH1 0xB9 PUSH1 0xC8 PUSH1 0xA7 PUSH1 0xB3 PUSH1 0x1 PUSH1 0x9 PUSH1 0x1 PUSH1 0x32 PUSH2 0x2C87 PUSH2 0x371F JUMP JUMPDEST PUSH2 0x2C8F PUSH2 0x3730 JUMP JUMPDEST DUP15 PUSH2 0x374D JUMP JUMPDEST SWAP1 POP PUSH2 0x32C3 JUMP JUMPDEST PUSH1 0x7 DUP4 EQ ISZERO PUSH2 0x2CD6 JUMPI PUSH2 0x2CCF DUP3 PUSH1 0x97 PUSH1 0x6E PUSH1 0x68 PUSH1 0x80 PUSH1 0x2 PUSH1 0x63 PUSH1 0x2 PUSH1 0x1E PUSH2 0x2CC1 PUSH2 0x371F JUMP JUMPDEST PUSH2 0x2CC9 PUSH2 0x3730 JUMP JUMPDEST DUP15 PUSH2 0x374D JUMP JUMPDEST SWAP1 POP PUSH2 0x32C3 JUMP JUMPDEST PUSH1 0x8 DUP4 EQ ISZERO PUSH2 0x2D10 JUMPI PUSH2 0x2D09 DUP3 PUSH1 0xA6 PUSH1 0x7E PUSH1 0x79 PUSH1 0x91 PUSH1 0x2 PUSH1 0x63 PUSH1 0x2 PUSH1 0x28 PUSH2 0x2CFB PUSH2 0x371F JUMP JUMPDEST PUSH2 0x2D03 PUSH2 0x3730 JUMP JUMPDEST DUP15 PUSH2 0x374D JUMP JUMPDEST SWAP1 POP PUSH2 0x32C3 JUMP JUMPDEST PUSH1 0x9 DUP4 EQ ISZERO PUSH2 0x2D4A JUMPI PUSH2 0x2D43 DUP3 PUSH1 0xBA PUSH1 0x94 PUSH1 0x8F PUSH1 0xA7 PUSH1 0x2 PUSH1 0x63 PUSH1 0x2 PUSH1 0x32 PUSH2 0x2D35 PUSH2 0x371F JUMP JUMPDEST PUSH2 0x2D3D PUSH2 0x3730 JUMP JUMPDEST DUP15 PUSH2 0x374D JUMP JUMPDEST SWAP1 POP PUSH2 0x32C3 JUMP JUMPDEST PUSH1 0xA DUP4 EQ ISZERO PUSH2 0x2D6A JUMPI PUSH2 0x2D63 DUP3 PUSH1 0xB PUSH1 0x63 DUP7 PUSH1 0x1 PUSH2 0x3801 JUMP JUMPDEST SWAP1 POP PUSH2 0x32C3 JUMP JUMPDEST PUSH1 0xB DUP4 EQ ISZERO PUSH2 0x2D8A JUMPI PUSH2 0x2D83 DUP3 PUSH1 0xB PUSH1 0x63 DUP7 PUSH1 0x2 PUSH2 0x3801 JUMP JUMPDEST SWAP1 POP PUSH2 0x32C3 JUMP JUMPDEST PUSH1 0xC DUP4 EQ ISZERO PUSH2 0x2DAA JUMPI PUSH2 0x2DA3 DUP3 PUSH1 0xB PUSH1 0x9 DUP7 PUSH1 0x3 PUSH2 0x3801 JUMP JUMPDEST SWAP1 POP PUSH2 0x32C3 JUMP JUMPDEST PUSH1 0xD DUP4 EQ ISZERO PUSH2 0x2DCA JUMPI PUSH2 0x2DC3 DUP3 PUSH1 0xB PUSH1 0x7 DUP7 PUSH1 0x1 PUSH2 0x3801 JUMP JUMPDEST SWAP1 POP PUSH2 0x32C3 JUMP JUMPDEST PUSH1 0xE DUP4 EQ ISZERO PUSH2 0x2DEA JUMPI PUSH2 0x2DE3 DUP3 PUSH1 0xB PUSH1 0x7 DUP7 PUSH1 0x2 PUSH2 0x3801 JUMP JUMPDEST SWAP1 POP PUSH2 0x32C3 JUMP JUMPDEST PUSH1 0xF DUP4 EQ ISZERO PUSH2 0x2E0A JUMPI PUSH2 0x2E03 DUP3 PUSH1 0xB PUSH1 0x7 DUP7 PUSH1 0x3 PUSH2 0x3801 JUMP JUMPDEST SWAP1 POP PUSH2 0x32C3 JUMP JUMPDEST PUSH1 0x10 DUP4 EQ ISZERO PUSH2 0x2E2A JUMPI PUSH2 0x2E23 DUP3 PUSH1 0x0 PUSH1 0x9 DUP7 PUSH1 0x1 PUSH2 0x3801 JUMP JUMPDEST SWAP1 POP PUSH2 0x32C3 JUMP JUMPDEST PUSH1 0x11 DUP4 EQ ISZERO PUSH2 0x2E4A JUMPI PUSH2 0x2E43 DUP3 PUSH1 0x0 PUSH1 0x9 DUP7 PUSH1 0x2 PUSH2 0x3801 JUMP JUMPDEST SWAP1 POP PUSH2 0x32C3 JUMP JUMPDEST PUSH1 0x12 DUP4 EQ ISZERO PUSH2 0x2E6A JUMPI PUSH2 0x2E63 DUP3 PUSH1 0x0 PUSH1 0x9 DUP7 PUSH1 0x3 PUSH2 0x3801 JUMP JUMPDEST SWAP1 POP PUSH2 0x32C3 JUMP JUMPDEST PUSH1 0x13 DUP4 EQ ISZERO PUSH2 0x2E8A JUMPI PUSH2 0x2E83 DUP3 PUSH1 0x0 PUSH1 0x63 DUP7 PUSH1 0x1 PUSH2 0x3801 JUMP JUMPDEST SWAP1 POP PUSH2 0x32C3 JUMP JUMPDEST PUSH1 0x14 DUP4 EQ ISZERO PUSH2 0x2EAA JUMPI PUSH2 0x2EA3 DUP3 PUSH1 0x0 PUSH1 0x63 DUP7 PUSH1 0x2 PUSH2 0x3801 JUMP JUMPDEST SWAP1 POP PUSH2 0x32C3 JUMP JUMPDEST PUSH1 0x15 DUP4 EQ ISZERO PUSH2 0x2ECA JUMPI PUSH2 0x2EC3 DUP3 PUSH1 0x0 PUSH1 0x9 DUP7 PUSH1 0x1 PUSH2 0x3801 JUMP JUMPDEST SWAP1 POP PUSH2 0x32C3 JUMP JUMPDEST PUSH1 0x16 DUP4 EQ ISZERO PUSH2 0x2EEA JUMPI PUSH2 0x2EE3 DUP3 PUSH1 0x0 PUSH1 0x9 DUP7 PUSH1 0x2 PUSH2 0x3801 JUMP JUMPDEST SWAP1 POP PUSH2 0x32C3 JUMP JUMPDEST PUSH1 0x17 DUP4 EQ ISZERO PUSH2 0x2F0A JUMPI PUSH2 0x2F03 DUP3 PUSH1 0x7 PUSH1 0x63 DUP7 PUSH1 0x1 PUSH2 0x3801 JUMP JUMPDEST SWAP1 POP PUSH2 0x32C3 JUMP JUMPDEST PUSH1 0x18 DUP4 EQ ISZERO PUSH2 0x2F2A JUMPI PUSH2 0x2F23 DUP3 PUSH1 0x7 PUSH1 0x63 DUP7 PUSH1 0x2 PUSH2 0x3801 JUMP JUMPDEST SWAP1 POP PUSH2 0x32C3 JUMP JUMPDEST PUSH1 0x19 DUP4 EQ ISZERO PUSH2 0x2F4A JUMPI PUSH2 0x2F43 DUP3 PUSH1 0x4 PUSH1 0x63 DUP7 PUSH1 0x2 PUSH2 0x3801 JUMP JUMPDEST SWAP1 POP PUSH2 0x32C3 JUMP JUMPDEST PUSH1 0x1A DUP4 EQ ISZERO PUSH2 0x2F6A JUMPI PUSH2 0x2F63 DUP3 PUSH1 0x4 PUSH1 0x63 DUP7 PUSH1 0x3 PUSH2 0x3801 JUMP JUMPDEST SWAP1 POP PUSH2 0x32C3 JUMP JUMPDEST PUSH1 0x1B DUP4 EQ ISZERO PUSH2 0x2F8A JUMPI PUSH2 0x2F83 DUP3 PUSH1 0x8 PUSH1 0x63 DUP7 PUSH1 0x1 PUSH2 0x3801 JUMP JUMPDEST SWAP1 POP PUSH2 0x32C3 JUMP JUMPDEST PUSH1 0x1C DUP4 EQ ISZERO PUSH2 0x2FAA JUMPI PUSH2 0x2FA3 DUP3 PUSH1 0x8 PUSH1 0x63 DUP7 PUSH1 0x2 PUSH2 0x3801 JUMP JUMPDEST SWAP1 POP PUSH2 0x32C3 JUMP JUMPDEST PUSH1 0x1D DUP4 EQ ISZERO PUSH2 0x2FCA JUMPI PUSH2 0x2FC3 DUP3 PUSH1 0x7 PUSH1 0x63 DUP7 PUSH1 0x1 PUSH2 0x3801 JUMP JUMPDEST SWAP1 POP PUSH2 0x32C3 JUMP JUMPDEST PUSH1 0x1E DUP4 EQ ISZERO PUSH2 0x2FEA JUMPI PUSH2 0x2FE3 DUP3 PUSH1 0x7 PUSH1 0x63 DUP7 PUSH1 0x1 PUSH2 0x3801 JUMP JUMPDEST SWAP1 POP PUSH2 0x32C3 JUMP JUMPDEST PUSH1 0x1F DUP4 EQ ISZERO PUSH2 0x300A JUMPI PUSH2 0x3003 DUP3 PUSH1 0x7 PUSH1 0x8 DUP7 PUSH1 0x3 PUSH2 0x3801 JUMP JUMPDEST SWAP1 POP PUSH2 0x32C3 JUMP JUMPDEST PUSH1 0x20 DUP4 EQ ISZERO PUSH2 0x302A JUMPI PUSH2 0x3023 DUP3 PUSH1 0x7 PUSH1 0x63 DUP7 PUSH1 0x1 PUSH2 0x3801 JUMP JUMPDEST SWAP1 POP PUSH2 0x32C3 JUMP JUMPDEST PUSH1 0x21 DUP4 EQ ISZERO PUSH2 0x304A JUMPI PUSH2 0x3043 DUP3 PUSH1 0x7 PUSH1 0x63 DUP7 PUSH1 0x2 PUSH2 0x3801 JUMP JUMPDEST SWAP1 POP PUSH2 0x32C3 JUMP JUMPDEST PUSH1 0x22 DUP4 EQ ISZERO PUSH2 0x306A JUMPI PUSH2 0x3063 DUP3 PUSH1 0x7 PUSH1 0x8 DUP7 PUSH1 0x3 PUSH2 0x3801 JUMP JUMPDEST SWAP1 POP PUSH2 0x32C3 JUMP JUMPDEST PUSH1 0x23 DUP4 EQ ISZERO PUSH2 0x308A JUMPI PUSH2 0x3083 DUP3 PUSH1 0x11 PUSH1 0x63 DUP7 PUSH1 0x1 PUSH2 0x3801 JUMP JUMPDEST SWAP1 POP PUSH2 0x32C3 JUMP JUMPDEST PUSH1 0x24 DUP4 EQ ISZERO PUSH2 0x30AA JUMPI PUSH2 0x30A3 DUP3 PUSH1 0x11 PUSH1 0x63 DUP7 PUSH1 0x2 PUSH2 0x3801 JUMP JUMPDEST SWAP1 POP PUSH2 0x32C3 JUMP JUMPDEST PUSH1 0x25 DUP4 EQ ISZERO PUSH2 0x30CA JUMPI PUSH2 0x30C3 DUP3 PUSH1 0x1 PUSH1 0x63 DUP7 PUSH1 0x2 PUSH2 0x3801 JUMP JUMPDEST SWAP1 POP PUSH2 0x32C3 JUMP JUMPDEST PUSH1 0x26 DUP4 EQ ISZERO PUSH2 0x30EA JUMPI PUSH2 0x30E3 DUP3 PUSH1 0x1 PUSH1 0x63 DUP7 PUSH1 0x3 PUSH2 0x3801 JUMP JUMPDEST SWAP1 POP PUSH2 0x32C3 JUMP JUMPDEST PUSH1 0x27 DUP4 EQ ISZERO PUSH2 0x310A JUMPI PUSH2 0x3103 DUP3 PUSH1 0x0 PUSH1 0x11 DUP7 PUSH1 0x1 PUSH2 0x3801 JUMP JUMPDEST SWAP1 POP PUSH2 0x32C3 JUMP JUMPDEST PUSH1 0x28 DUP4 EQ ISZERO PUSH2 0x312A JUMPI PUSH2 0x3123 DUP3 PUSH1 0x0 PUSH1 0x11 DUP7 PUSH1 0x2 PUSH2 0x3801 JUMP JUMPDEST SWAP1 POP PUSH2 0x32C3 JUMP JUMPDEST PUSH1 0x29 DUP4 EQ ISZERO PUSH2 0x314A JUMPI PUSH2 0x3143 DUP3 PUSH1 0x7 PUSH1 0x9 DUP7 PUSH1 0x1 PUSH2 0x3801 JUMP JUMPDEST SWAP1 POP PUSH2 0x32C3 JUMP JUMPDEST PUSH1 0x2A DUP4 EQ ISZERO PUSH2 0x316A JUMPI PUSH2 0x3163 DUP3 PUSH1 0x7 PUSH1 0x9 DUP7 PUSH1 0x2 PUSH2 0x3801 JUMP JUMPDEST SWAP1 POP PUSH2 0x32C3 JUMP JUMPDEST PUSH1 0x2B DUP4 EQ ISZERO PUSH2 0x318A JUMPI PUSH2 0x3183 DUP3 PUSH1 0x3 PUSH1 0x7 DUP7 PUSH1 0x1 PUSH2 0x3801 JUMP JUMPDEST SWAP1 POP PUSH2 0x32C3 JUMP JUMPDEST PUSH1 0x2C DUP4 EQ ISZERO PUSH2 0x31AA JUMPI PUSH2 0x31A3 DUP3 PUSH1 0x3 PUSH1 0x7 DUP7 PUSH1 0x2 PUSH2 0x3801 JUMP JUMPDEST SWAP1 POP PUSH2 0x32C3 JUMP JUMPDEST PUSH1 0x2D DUP4 EQ ISZERO PUSH2 0x31CA JUMPI PUSH2 0x31C3 DUP3 PUSH1 0x3 PUSH1 0x7 DUP7 PUSH1 0x3 PUSH2 0x3801 JUMP JUMPDEST SWAP1 POP PUSH2 0x32C3 JUMP JUMPDEST PUSH1 0x2E DUP4 EQ ISZERO PUSH2 0x31EA JUMPI PUSH2 0x31E3 DUP3 PUSH1 0xB PUSH1 0x3 DUP7 PUSH1 0x1 PUSH2 0x3801 JUMP JUMPDEST SWAP1 POP PUSH2 0x32C3 JUMP JUMPDEST PUSH1 0x2F DUP4 EQ ISZERO PUSH2 0x320A JUMPI PUSH2 0x3203 DUP3 PUSH1 0xB PUSH1 0x3 DUP7 PUSH1 0x2 PUSH2 0x3801 JUMP JUMPDEST SWAP1 POP PUSH2 0x32C3 JUMP JUMPDEST PUSH1 0x30 DUP4 EQ ISZERO PUSH2 0x322A JUMPI PUSH2 0x3223 DUP3 PUSH1 0xB PUSH1 0x7 DUP7 PUSH1 0x1 PUSH2 0x3801 JUMP JUMPDEST SWAP1 POP PUSH2 0x32C3 JUMP JUMPDEST PUSH1 0x31 DUP4 EQ ISZERO PUSH2 0x324A JUMPI PUSH2 0x3243 DUP3 PUSH1 0xB PUSH1 0x7 DUP7 PUSH1 0x3 PUSH2 0x3801 JUMP JUMPDEST SWAP1 POP PUSH2 0x32C3 JUMP JUMPDEST PUSH1 0x32 DUP4 EQ ISZERO PUSH2 0x326A JUMPI PUSH2 0x3263 DUP3 PUSH1 0x8 PUSH1 0x63 DUP7 PUSH1 0x2 PUSH2 0x3801 JUMP JUMPDEST SWAP1 POP PUSH2 0x32C3 JUMP JUMPDEST PUSH1 0x33 DUP4 EQ ISZERO PUSH2 0x328A JUMPI PUSH2 0x3283 DUP3 PUSH1 0x8 PUSH1 0x63 DUP7 PUSH1 0x3 PUSH2 0x3801 JUMP JUMPDEST SWAP1 POP PUSH2 0x32C3 JUMP JUMPDEST PUSH1 0x34 DUP4 EQ ISZERO PUSH2 0x32AA JUMPI PUSH2 0x32A3 DUP3 PUSH1 0x0 PUSH1 0x63 DUP7 PUSH1 0x2 PUSH2 0x3801 JUMP JUMPDEST SWAP1 POP PUSH2 0x32C3 JUMP JUMPDEST PUSH2 0x32C0 DUP3 PUSH1 0x0 PUSH1 0x63 DUP7 PUSH2 0x32BB PUSH2 0x3915 JUMP JUMPDEST PUSH2 0x3801 JUMP JUMPDEST SWAP1 POP JUMPDEST SWAP3 SWAP2 POP POP JUMP JUMPDEST PUSH2 0x32E3 DUP3 DUP3 PUSH1 0x40 MLOAD DUP1 PUSH1 0x20 ADD PUSH1 0x40 MSTORE DUP1 PUSH1 0x0 DUP2 MSTORE POP PUSH2 0x3932 JUMP JUMPDEST POP POP JUMP JUMPDEST DUP2 PUSH20 0xFFFFFFFFFFFFFFFFFFFFFFFFFFFFFFFFFFFFFFFF AND DUP4 PUSH20 0xFFFFFFFFFFFFFFFFFFFFFFFFFFFFFFFFFFFFFFFF AND EQ ISZERO PUSH2 0x3356 JUMPI PUSH1 0x40 MLOAD PUSH32 0x8C379A000000000000000000000000000000000000000000000000000000000 DUP2 MSTORE PUSH1 0x4 ADD PUSH2 0x334D SWAP1 PUSH2 0x4D86 JUMP JUMPDEST PUSH1 0x40 MLOAD DUP1 SWAP2 SUB SWAP1 REVERT JUMPDEST DUP1 PUSH1 0x5 PUSH1 0x0 DUP6 PUSH20 0xFFFFFFFFFFFFFFFFFFFFFFFFFFFFFFFFFFFFFFFF AND PUSH20 0xFFFFFFFFFFFFFFFFFFFFFFFFFFFFFFFFFFFFFFFF AND DUP2 MSTORE PUSH1 0x20 ADD SWAP1 DUP2 MSTORE PUSH1 0x20 ADD PUSH1 0x0 KECCAK256 PUSH1 0x0 DUP5 PUSH20 0xFFFFFFFFFFFFFFFFFFFFFFFFFFFFFFFFFFFFFFFF AND PUSH20 0xFFFFFFFFFFFFFFFFFFFFFFFFFFFFFFFFFFFFFFFF AND DUP2 MSTORE PUSH1 0x20 ADD SWAP1 DUP2 MSTORE PUSH1 0x20 ADD PUSH1 0x0 KECCAK256 PUSH1 0x0 PUSH2 0x100 EXP DUP2 SLOAD DUP2 PUSH1 0xFF MUL NOT AND SWAP1 DUP4 ISZERO ISZERO MUL OR SWAP1 SSTORE POP DUP2 PUSH20 0xFFFFFFFFFFFFFFFFFFFFFFFFFFFFFFFFFFFFFFFF AND DUP4 PUSH20 0xFFFFFFFFFFFFFFFFFFFFFFFFFFFFFFFFFFFFFFFF AND PUSH32 0x17307EAB39AB6107E8899845AD3D59BD9653F200F220920489CA2B5937696C31 DUP4 PUSH1 0x40 MLOAD PUSH2 0x3447 SWAP2 SWAP1 PUSH2 0x4C3D JUMP JUMPDEST PUSH1 0x40 MLOAD DUP1 SWAP2 SUB SWAP1 LOG3 POP POP POP JUMP JUMPDEST PUSH2 0x345F DUP5 DUP5 DUP5 PUSH2 0x28B3 JUMP JUMPDEST PUSH2 0x346B DUP5 DUP5 DUP5 DUP5 PUSH2 0x398D JUMP JUMPDEST PUSH2 0x34AA JUMPI PUSH1 0x40 MLOAD PUSH32 0x8C379A000000000000000000000000000000000000000000000000000000000 DUP2 MSTORE PUSH1 0x4 ADD PUSH2 0x34A1 SWAP1 PUSH2 0x4D06 JUMP JUMPDEST PUSH1 0x40 MLOAD DUP1 SWAP2 SUB SWAP1 REVERT JUMPDEST POP POP POP POP JUMP JUMPDEST PUSH1 0x60 PUSH1 0x40 MLOAD DUP1 PUSH1 0x20 ADD PUSH1 0x40 MSTORE DUP1 PUSH1 0x0 DUP2 MSTORE POP SWAP1 POP SWAP1 JUMP JUMPDEST PUSH1 0x60 PUSH1 0x0 DUP3 EQ ISZERO PUSH2 0x350F JUMPI PUSH1 0x40 MLOAD DUP1 PUSH1 0x40 ADD PUSH1 0x40 MSTORE DUP1 PUSH1 0x1 DUP2 MSTORE PUSH1 0x20 ADD PUSH32 0x3000000000000000000000000000000000000000000000000000000000000000 DUP2 MSTORE POP SWAP1 POP PUSH2 0x3623 JUMP JUMPDEST PUSH1 0x0 DUP3 SWAP1 POP PUSH1 0x0 JUMPDEST PUSH1 0x0 DUP3 EQ PUSH2 0x3541 JUMPI DUP1 DUP1 PUSH2 0x352A SWAP1 PUSH2 0x5464 JUMP JUMPDEST SWAP2 POP POP PUSH1 0xA DUP3 PUSH2 0x353A SWAP2 SWAP1 PUSH2 0x5294 JUMP JUMPDEST SWAP2 POP PUSH2 0x3517 JUMP JUMPDEST PUSH1 0x0 DUP2 PUSH8 0xFFFFFFFFFFFFFFFF DUP2 GT ISZERO PUSH2 0x355D JUMPI PUSH2 0x355C PUSH2 0x55D3 JUMP JUMPDEST JUMPDEST PUSH1 0x40 MLOAD SWAP1 DUP1 DUP3 MSTORE DUP1 PUSH1 0x1F ADD PUSH1 0x1F NOT AND PUSH1 0x20 ADD DUP3 ADD PUSH1 0x40 MSTORE DUP1 ISZERO PUSH2 0x358F JUMPI DUP2 PUSH1 0x20 ADD PUSH1 0x1 DUP3 MUL DUP1 CALLDATASIZE DUP4 CALLDATACOPY DUP1 DUP3 ADD SWAP2 POP POP SWAP1 POP JUMPDEST POP SWAP1 POP JUMPDEST PUSH1 0x0 DUP6 EQ PUSH2 0x361C JUMPI PUSH1 0x1 DUP3 PUSH2 0x35A8 SWAP2 SWAP1 PUSH2 0x52C5 JUMP JUMPDEST SWAP2 POP PUSH1 0xA DUP6 PUSH2 0x35B7 SWAP2 SWAP1 PUSH2 0x54B7 JUMP JUMPDEST PUSH1 0x30 PUSH2 0x35C3 SWAP2 SWAP1 PUSH2 0x523E JUMP JUMPDEST PUSH1 0xF8 SHL DUP2 DUP4 DUP2 MLOAD DUP2 LT PUSH2 0x35D9 JUMPI PUSH2 0x35D8 PUSH2 0x55A4 JUMP JUMPDEST JUMPDEST PUSH1 0x20 ADD ADD SWAP1 PUSH31 0xFFFFFFFFFFFFFFFFFFFFFFFFFFFFFFFFFFFFFFFFFFFFFFFFFFFFFFFFFFFFFF NOT AND SWAP1 DUP2 PUSH1 0x0 BYTE SWAP1 MSTORE8 POP PUSH1 0xA DUP6 PUSH2 0x3615 SWAP2 SWAP1 PUSH2 0x5294 JUMP JUMPDEST SWAP5 POP PUSH2 0x3593 JUMP JUMPDEST DUP1 SWAP4 POP POP POP POP JUMPDEST SWAP2 SWAP1 POP JUMP JUMPDEST PUSH1 0x0 PUSH32 0x80AC58CD00000000000000000000000000000000000000000000000000000000 PUSH28 0xFFFFFFFFFFFFFFFFFFFFFFFFFFFFFFFFFFFFFFFFFFFFFFFFFFFFFFFF NOT AND DUP3 PUSH28 0xFFFFFFFFFFFFFFFFFFFFFFFFFFFFFFFFFFFFFFFFFFFFFFFFFFFFFFFF NOT AND EQ DUP1 PUSH2 0x36F3 JUMPI POP PUSH32 0x5B5E139F00000000000000000000000000000000000000000000000000000000 PUSH28 0xFFFFFFFFFFFFFFFFFFFFFFFFFFFFFFFFFFFFFFFFFFFFFFFFFFFFFFFF NOT AND DUP3 PUSH28 0xFFFFFFFFFFFFFFFFFFFFFFFFFFFFFFFFFFFFFFFFFFFFFFFFFFFFFFFF NOT AND EQ JUMPDEST DUP1 PUSH2 0x3703 JUMPI POP PUSH2 0x3702 DUP3 PUSH2 0x3B24 JUMP JUMPDEST JUMPDEST SWAP1 POP SWAP2 SWAP1 POP JUMP JUMPDEST PUSH2 0x3715 DUP4 DUP4 DUP4 PUSH2 0x3B8E JUMP JUMPDEST POP POP POP JUMP JUMPDEST POP POP POP JUMP JUMPDEST PUSH1 0x0 PUSH2 0x372B PUSH1 0x11 PUSH2 0x3CA2 JUMP JUMPDEST SWAP1 POP SWAP1 JUMP JUMPDEST PUSH1 0x0 PUSH1 0x28 PUSH2 0x373E PUSH1 0x32 PUSH2 0x3CA2 JUMP JUMPDEST PUSH2 0x3748 SWAP2 SWAP1 PUSH2 0x523E JUMP JUMPDEST SWAP1 POP SWAP1 JUMP JUMPDEST PUSH2 0x3755 PUSH2 0x4217 JUMP JUMPDEST PUSH1 0x40 MLOAD DUP1 PUSH2 0x180 ADD PUSH1 0x40 MSTORE DUP1 DUP15 DUP2 MSTORE PUSH1 0x20 ADD PUSH2 0x376F PUSH2 0x3CFE JUMP JUMPDEST DUP15 PUSH2 0x377A SWAP2 SWAP1 PUSH2 0x523E JUMP JUMPDEST DUP2 MSTORE PUSH1 0x20 ADD PUSH2 0x3787 PUSH2 0x3CFE JUMP JUMPDEST DUP14 PUSH2 0x3792 SWAP2 SWAP1 PUSH2 0x523E JUMP JUMPDEST DUP2 MSTORE PUSH1 0x20 ADD PUSH2 0x379F PUSH2 0x3CFE JUMP JUMPDEST DUP13 PUSH2 0x37AA SWAP2 SWAP1 PUSH2 0x523E JUMP JUMPDEST DUP2 MSTORE PUSH1 0x20 ADD PUSH2 0x37B7 PUSH2 0x3CFE JUMP JUMPDEST DUP12 PUSH2 0x37C2 SWAP2 SWAP1 PUSH2 0x523E JUMP JUMPDEST DUP2 MSTORE PUSH1 0x20 ADD DUP10 DUP2 MSTORE PUSH1 0x20 ADD DUP9 DUP2 MSTORE PUSH1 0x20 ADD DUP8 DUP2 MSTORE PUSH1 0x20 ADD DUP7 DUP2 MSTORE PUSH1 0x20 ADD DUP6 DUP2 MSTORE PUSH1 0x20 ADD DUP5 DUP2 MSTORE PUSH1 0x20 ADD DUP4 DUP2 MSTORE POP SWAP1 POP SWAP13 SWAP12 POP POP POP POP POP POP POP POP POP POP POP POP JUMP JUMPDEST PUSH2 0x3809 PUSH2 0x4217 JUMP JUMPDEST PUSH1 0x0 PUSH1 0x64 SWAP1 POP PUSH1 0x2 DUP4 EQ ISZERO PUSH2 0x3828 JUMPI PUSH1 0x14 DUP2 PUSH2 0x3825 SWAP2 SWAP1 PUSH2 0x523E JUMP JUMPDEST SWAP1 POP JUMPDEST PUSH1 0x3 DUP4 EQ ISZERO PUSH2 0x3841 JUMPI PUSH1 0x32 DUP2 PUSH2 0x383E SWAP2 SWAP1 PUSH2 0x523E JUMP JUMPDEST SWAP1 POP JUMPDEST PUSH1 0x4 DUP4 EQ ISZERO PUSH2 0x385A JUMPI PUSH1 0x46 DUP2 PUSH2 0x3857 SWAP2 SWAP1 PUSH2 0x523E JUMP JUMPDEST SWAP1 POP JUMPDEST PUSH1 0x40 MLOAD DUP1 PUSH2 0x180 ADD PUSH1 0x40 MSTORE DUP1 DUP9 DUP2 MSTORE PUSH1 0x20 ADD PUSH2 0x3874 PUSH2 0x3CFE JUMP JUMPDEST DUP4 PUSH2 0x387F SWAP2 SWAP1 PUSH2 0x523E JUMP JUMPDEST DUP2 MSTORE PUSH1 0x20 ADD PUSH2 0x388C PUSH2 0x3CFE JUMP JUMPDEST DUP4 PUSH2 0x3897 SWAP2 SWAP1 PUSH2 0x523E JUMP JUMPDEST DUP2 MSTORE PUSH1 0x20 ADD PUSH2 0x38A4 PUSH2 0x3CFE JUMP JUMPDEST DUP4 PUSH2 0x38AF SWAP2 SWAP1 PUSH2 0x523E JUMP JUMPDEST DUP2 MSTORE PUSH1 0x20 ADD PUSH2 0x38BC PUSH2 0x3CFE JUMP JUMPDEST DUP4 PUSH2 0x38C7 SWAP2 SWAP1 PUSH2 0x523E JUMP JUMPDEST DUP2 MSTORE PUSH1 0x20 ADD DUP8 DUP2 MSTORE PUSH1 0x20 ADD DUP7 DUP2 MSTORE PUSH1 0x20 ADD DUP8 DUP2 MSTORE PUSH1 0x20 ADD PUSH2 0x38E6 PUSH2 0x3730 JUMP JUMPDEST DUP2 MSTORE PUSH1 0x20 ADD PUSH2 0x38F3 PUSH2 0x371F JUMP JUMPDEST DUP2 MSTORE PUSH1 0x20 ADD PUSH2 0x3900 PUSH2 0x3730 JUMP JUMPDEST DUP2 MSTORE PUSH1 0x20 ADD DUP6 DUP2 MSTORE POP SWAP2 POP POP SWAP6 SWAP5 POP POP POP POP POP JUMP JUMPDEST PUSH1 0x0 PUSH1 0x1 PUSH2 0x3923 PUSH1 0x2 PUSH2 0x3CA2 JUMP JUMPDEST PUSH2 0x392D SWAP2 SWAP1 PUSH2 0x523E JUMP JUMPDEST SWAP1 POP SWAP1 JUMP JUMPDEST PUSH2 0x393C DUP4 DUP4 PUSH2 0x3D0F JUMP JUMPDEST PUSH2 0x3949 PUSH1 0x0 DUP5 DUP5 DUP5 PUSH2 0x398D JUMP JUMPDEST PUSH2 0x3988 JUMPI PUSH1 0x40 MLOAD PUSH32 0x8C379A000000000000000000000000000000000000000000000000000000000 DUP2 MSTORE PUSH1 0x4 ADD PUSH2 0x397F SWAP1 PUSH2 0x4D06 JUMP JUMPDEST PUSH1 0x40 MLOAD DUP1 SWAP2 SUB SWAP1 REVERT JUMPDEST POP POP POP JUMP JUMPDEST PUSH1 0x0 PUSH2 0x39AE DUP5 PUSH20 0xFFFFFFFFFFFFFFFFFFFFFFFFFFFFFFFFFFFFFFFF AND PUSH2 0x3EE9 JUMP JUMPDEST ISZERO PUSH2 0x3B17 JUMPI DUP4 PUSH20 0xFFFFFFFFFFFFFFFFFFFFFFFFFFFFFFFFFFFFFFFF AND PUSH4 0x150B7A02 PUSH2 0x39D7 PUSH2 0x2714 JUMP JUMPDEST DUP8 DUP7 DUP7 PUSH1 0x40 MLOAD DUP6 PUSH4 0xFFFFFFFF AND PUSH1 0xE0 SHL DUP2 MSTORE PUSH1 0x4 ADD PUSH2 0x39F9 SWAP5 SWAP4 SWAP3 SWAP2 SWAP1 PUSH2 0x4BF1 JUMP JUMPDEST PUSH1 0x20 PUSH1 0x40 MLOAD DUP1 DUP4 SUB DUP2 PUSH1 0x0 DUP8 DUP1 EXTCODESIZE ISZERO DUP1 ISZERO PUSH2 0x3A13 JUMPI PUSH1 0x0 DUP1 REVERT JUMPDEST POP GAS CALL SWAP3 POP POP POP DUP1 ISZERO PUSH2 0x3A44 JUMPI POP PUSH1 0x40 MLOAD RETURNDATASIZE PUSH1 0x1F NOT PUSH1 0x1F DUP3 ADD AND DUP3 ADD DUP1 PUSH1 0x40 MSTORE POP DUP2 ADD SWAP1 PUSH2 0x3A41 SWAP2 SWAP1 PUSH2 0x4583 JUMP JUMPDEST PUSH1 0x1 JUMPDEST PUSH2 0x3AC7 JUMPI RETURNDATASIZE DUP1 PUSH1 0x0 DUP2 EQ PUSH2 0x3A74 JUMPI PUSH1 0x40 MLOAD SWAP2 POP PUSH1 0x1F NOT PUSH1 0x3F RETURNDATASIZE ADD AND DUP3 ADD PUSH1 0x40 MSTORE RETURNDATASIZE DUP3 MSTORE RETURNDATASIZE PUSH1 0x0 PUSH1 0x20 DUP5 ADD RETURNDATACOPY PUSH2 0x3A79 JUMP JUMPDEST PUSH1 0x60 SWAP2 POP JUMPDEST POP PUSH1 0x0 DUP2 MLOAD EQ ISZERO PUSH2 0x3ABF JUMPI PUSH1 0x40 MLOAD PUSH32 0x8C379A000000000000000000000000000000000000000000000000000000000 DUP2 MSTORE PUSH1 0x4 ADD PUSH2 0x3AB6 SWAP1 PUSH2 0x4D06 JUMP JUMPDEST PUSH1 0x40 MLOAD DUP1 SWAP2 SUB SWAP1 REVERT JUMPDEST DUP1 MLOAD DUP2 PUSH1 0x20 ADD REVERT JUMPDEST PUSH4 0x150B7A02 PUSH1 0xE0 SHL PUSH28 0xFFFFFFFFFFFFFFFFFFFFFFFFFFFFFFFFFFFFFFFFFFFFFFFFFFFFFFFF NOT AND DUP2 PUSH28 0xFFFFFFFFFFFFFFFFFFFFFFFFFFFFFFFFFFFFFFFFFFFFFFFFFFFFFFFF NOT AND EQ SWAP2 POP POP PUSH2 0x3B1C JUMP JUMPDEST PUSH1 0x1 SWAP1 POP JUMPDEST SWAP5 SWAP4 POP POP POP POP JUMP JUMPDEST PUSH1 0x0 PUSH32 0x1FFC9A700000000000000000000000000000000000000000000000000000000 PUSH28 0xFFFFFFFFFFFFFFFFFFFFFFFFFFFFFFFFFFFFFFFFFFFFFFFFFFFFFFFF NOT AND DUP3 PUSH28 0xFFFFFFFFFFFFFFFFFFFFFFFFFFFFFFFFFFFFFFFFFFFFFFFFFFFFFFFF NOT AND EQ SWAP1 POP SWAP2 SWAP1 POP JUMP JUMPDEST PUSH2 0x3B99 DUP4 DUP4 DUP4 PUSH2 0x3F0C JUMP JUMPDEST PUSH1 0x0 PUSH20 0xFFFFFFFFFFFFFFFFFFFFFFFFFFFFFFFFFFFFFFFF AND DUP4 PUSH20 0xFFFFFFFFFFFFFFFFFFFFFFFFFFFFFFFFFFFFFFFF AND EQ ISZERO PUSH2 0x3BDC JUMPI PUSH2 0x3BD7 DUP2 PUSH2 0x3F11 JUMP JUMPDEST PUSH2 0x3C1B JUMP JUMPDEST DUP2 PUSH20 0xFFFFFFFFFFFFFFFFFFFFFFFFFFFFFFFFFFFFFFFF AND DUP4 PUSH20 0xFFFFFFFFFFFFFFFFFFFFFFFFFFFFFFFFFFFFFFFF AND EQ PUSH2 0x3C1A JUMPI PUSH2 0x3C19 DUP4 DUP3 PUSH2 0x3F5A JUMP JUMPDEST JUMPDEST JUMPDEST PUSH1 0x0 PUSH20 0xFFFFFFFFFFFFFFFFFFFFFFFFFFFFFFFFFFFFFFFF AND DUP3 PUSH20 0xFFFFFFFFFFFFFFFFFFFFFFFFFFFFFFFFFFFFFFFF AND EQ ISZERO PUSH2 0x3C5E JUMPI PUSH2 0x3C59 DUP2 PUSH2 0x40C7 JUMP JUMPDEST PUSH2 0x3C9D JUMP JUMPDEST DUP3 PUSH20 0xFFFFFFFFFFFFFFFFFFFFFFFFFFFFFFFFFFFFFFFF AND DUP3 PUSH20 0xFFFFFFFFFFFFFFFFFFFFFFFFFFFFFFFFFFFFFFFF AND EQ PUSH2 0x3C9C JUMPI PUSH2 0x3C9B DUP3 DUP3 PUSH2 0x4198 JUMP JUMPDEST JUMPDEST JUMPDEST POP POP POP JUMP JUMPDEST PUSH1 0x0 PUSH1 0xB PUSH1 0x0 DUP2 SLOAD DUP1 SWAP3 SWAP2 SWAP1 PUSH2 0x3CB7 SWAP1 PUSH2 0x5464 JUMP JUMPDEST SWAP2 SWAP1 POP SSTORE POP DUP2 DIFFICULTY TIMESTAMP PUSH1 0xB SLOAD PUSH1 0x40 MLOAD PUSH1 0x20 ADD PUSH2 0x3CD4 SWAP4 SWAP3 SWAP2 SWAP1 PUSH2 0x4B99 JUMP JUMPDEST PUSH1 0x40 MLOAD PUSH1 0x20 DUP2 DUP4 SUB SUB DUP2 MSTORE SWAP1 PUSH1 0x40 MSTORE DUP1 MLOAD SWAP1 PUSH1 0x20 ADD KECCAK256 PUSH1 0x0 SHR PUSH2 0x3CF7 SWAP2 SWAP1 PUSH2 0x54B7 JUMP JUMPDEST SWAP1 POP SWAP2 SWAP1 POP JUMP JUMPDEST PUSH1 0x0 PUSH2 0x3D0A PUSH1 0x14 PUSH2 0x3CA2 JUMP JUMPDEST SWAP1 POP SWAP1 JUMP JUMPDEST PUSH1 0x0 PUSH20 0xFFFFFFFFFFFFFFFFFFFFFFFFFFFFFFFFFFFFFFFF AND DUP3 PUSH20 0xFFFFFFFFFFFFFFFFFFFFFFFFFFFFFFFFFFFFFFFF AND EQ ISZERO PUSH2 0x3D7F JUMPI PUSH1 0x40 MLOAD PUSH32 0x8C379A000000000000000000000000000000000000000000000000000000000 DUP2 MSTORE PUSH1 0x4 ADD PUSH2 0x3D76 SWAP1 PUSH2 0x4E26 JUMP JUMPDEST PUSH1 0x40 MLOAD DUP1 SWAP2 SUB SWAP1 REVERT JUMPDEST PUSH2 0x3D88 DUP2 PUSH2 0x26A8 JUMP JUMPDEST ISZERO PUSH2 0x3DC8 JUMPI PUSH1 0x40 MLOAD PUSH32 0x8C379A000000000000000000000000000000000000000000000000000000000 DUP2 MSTORE PUSH1 0x4 ADD PUSH2 0x3DBF SWAP1 PUSH2 0x4D46 JUMP JUMPDEST PUSH1 0x40 MLOAD DUP1 SWAP2 SUB SWAP1 REVERT JUMPDEST PUSH2 0x3DD4 PUSH1 0x0 DUP4 DUP4 PUSH2 0x370A JUMP JUMPDEST PUSH1 0x1 PUSH1 0x3 PUSH1 0x0 DUP5 PUSH20 0xFFFFFFFFFFFFFFFFFFFFFFFFFFFFFFFFFFFFFFFF AND PUSH20 0xFFFFFFFFFFFFFFFFFFFFFFFFFFFFFFFFFFFFFFFF AND DUP2 MSTORE PUSH1 0x20 ADD SWAP1 DUP2 MSTORE PUSH1 0x20 ADD PUSH1 0x0 KECCAK256 PUSH1 0x0 DUP3 DUP3 SLOAD PUSH2 0x3E24 SWAP2 SWAP1 PUSH2 0x523E JUMP JUMPDEST SWAP3 POP POP DUP2 SWAP1 SSTORE POP DUP2 PUSH1 0x2 PUSH1 0x0 DUP4 DUP2 MSTORE PUSH1 0x20 ADD SWAP1 DUP2 MSTORE PUSH1 0x20 ADD PUSH1 0x0 KECCAK256 PUSH1 0x0 PUSH2 0x100 EXP DUP2 SLOAD DUP2 PUSH20 0xFFFFFFFFFFFFFFFFFFFFFFFFFFFFFFFFFFFFFFFF MUL NOT AND SWAP1 DUP4 PUSH20 0xFFFFFFFFFFFFFFFFFFFFFFFFFFFFFFFFFFFFFFFF AND MUL OR SWAP1 SSTORE POP DUP1 DUP3 PUSH20 0xFFFFFFFFFFFFFFFFFFFFFFFFFFFFFFFFFFFFFFFF AND PUSH1 0x0 PUSH20 0xFFFFFFFFFFFFFFFFFFFFFFFFFFFFFFFFFFFFFFFF AND PUSH32 0xDDF252AD1BE2C89B69C2B068FC378DAA952BA7F163C4A11628F55A4DF523B3EF PUSH1 0x40 MLOAD PUSH1 0x40 MLOAD DUP1 SWAP2 SUB SWAP1 LOG4 PUSH2 0x3EE5 PUSH1 0x0 DUP4 DUP4 PUSH2 0x371A JUMP JUMPDEST POP POP JUMP JUMPDEST PUSH1 0x0 DUP1 DUP3 PUSH20 0xFFFFFFFFFFFFFFFFFFFFFFFFFFFFFFFFFFFFFFFF AND EXTCODESIZE GT SWAP1 POP SWAP2 SWAP1 POP JUMP JUMPDEST POP POP POP JUMP JUMPDEST PUSH1 0x8 DUP1 SLOAD SWAP1 POP PUSH1 0x9 PUSH1 0x0 DUP4 DUP2 MSTORE PUSH1 0x20 ADD SWAP1 DUP2 MSTORE PUSH1 0x20 ADD PUSH1 0x0 KECCAK256 DUP2 SWAP1 SSTORE POP PUSH1 0x8 DUP2 SWAP1 DUP1 PUSH1 0x1 DUP2 SLOAD ADD DUP1 DUP3 SSTORE DUP1 SWAP2 POP POP PUSH1 0x1 SWAP1 SUB SWAP1 PUSH1 0x0 MSTORE PUSH1 0x20 PUSH1 0x0 KECCAK256 ADD PUSH1 0x0 SWAP1 SWAP2 SWAP1 SWAP2 SWAP1 SWAP2 POP SSTORE POP JUMP JUMPDEST PUSH1 0x0 PUSH1 0x1 PUSH2 0x3F67 DUP5 PUSH2 0xF0F JUMP JUMPDEST PUSH2 0x3F71 SWAP2 SWAP1 PUSH2 0x52C5 JUMP JUMPDEST SWAP1 POP PUSH1 0x0 PUSH1 0x7 PUSH1 0x0 DUP5 DUP2 MSTORE PUSH1 0x20 ADD SWAP1 DUP2 MSTORE PUSH1 0x20 ADD PUSH1 0x0 KECCAK256 SLOAD SWAP1 POP DUP2 DUP2 EQ PUSH2 0x4056 JUMPI PUSH1 0x0 PUSH1 0x6 PUSH1 0x0 DUP7 PUSH20 0xFFFFFFFFFFFFFFFFFFFFFFFFFFFFFFFFFFFFFFFF AND PUSH20 0xFFFFFFFFFFFFFFFFFFFFFFFFFFFFFFFFFFFFFFFF AND DUP2 MSTORE PUSH1 0x20 ADD SWAP1 DUP2 MSTORE PUSH1 0x20 ADD PUSH1 0x0 KECCAK256 PUSH1 0x0 DUP5 DUP2 MSTORE PUSH1 0x20 ADD SWAP1 DUP2 MSTORE PUSH1 0x20 ADD PUSH1 0x0 KECCAK256 SLOAD SWAP1 POP DUP1 PUSH1 0x6 PUSH1 0x0 DUP8 PUSH20 0xFFFFFFFFFFFFFFFFFFFFFFFFFFFFFFFFFFFFFFFF AND PUSH20 0xFFFFFFFFFFFFFFFFFFFFFFFFFFFFFFFFFFFFFFFF AND DUP2 MSTORE PUSH1 0x20 ADD SWAP1 DUP2 MSTORE PUSH1 0x20 ADD PUSH1 0x0 KECCAK256 PUSH1 0x0 DUP5 DUP2 MSTORE PUSH1 0x20 ADD SWAP1 DUP2 MSTORE PUSH1 0x20 ADD PUSH1 0x0 KECCAK256 DUP2 SWAP1 SSTORE POP DUP2 PUSH1 0x7 PUSH1 0x0 DUP4 DUP2 MSTORE PUSH1 0x20 ADD SWAP1 DUP2 MSTORE PUSH1 0x20 ADD PUSH1 0x0 KECCAK256 DUP2 SWAP1 SSTORE POP POP JUMPDEST PUSH1 0x7 PUSH1 0x0 DUP5 DUP2 MSTORE PUSH1 0x20 ADD SWAP1 DUP2 MSTORE PUSH1 0x20 ADD PUSH1 0x0 KECCAK256 PUSH1 0x0 SWAP1 SSTORE PUSH1 0x6 PUSH1 0x0 DUP6 PUSH20 0xFFFFFFFFFFFFFFFFFFFFFFFFFFFFFFFFFFFFFFFF AND PUSH20 0xFFFFFFFFFFFFFFFFFFFFFFFFFFFFFFFFFFFFFFFF AND DUP2 MSTORE PUSH1 0x20 ADD SWAP1 DUP2 MSTORE PUSH1 0x20 ADD PUSH1 0x0 KECCAK256 PUSH1 0x0 DUP4 DUP2 MSTORE PUSH1 0x20 ADD SWAP1 DUP2 MSTORE PUSH1 0x20 ADD PUSH1 0x0 KECCAK256 PUSH1 0x0 SWAP1 SSTORE POP POP POP POP JUMP JUMPDEST PUSH1 0x0 PUSH1 0x1 PUSH1 0x8 DUP1 SLOAD SWAP1 POP PUSH2 0x40DB SWAP2 SWAP1 PUSH2 0x52C5 JUMP JUMPDEST SWAP1 POP PUSH1 0x0 PUSH1 0x9 PUSH1 0x0 DUP5 DUP2 MSTORE PUSH1 0x20 ADD SWAP1 DUP2 MSTORE PUSH1 0x20 ADD PUSH1 0x0 KECCAK256 SLOAD SWAP1 POP PUSH1 0x0 PUSH1 0x8 DUP4 DUP2 SLOAD DUP2 LT PUSH2 0x410B JUMPI PUSH2 0x410A PUSH2 0x55A4 JUMP JUMPDEST JUMPDEST SWAP1 PUSH1 0x0 MSTORE PUSH1 0x20 PUSH1 0x0 KECCAK256 ADD SLOAD SWAP1 POP DUP1 PUSH1 0x8 DUP4 DUP2 SLOAD DUP2 LT PUSH2 0x412D JUMPI PUSH2 0x412C PUSH2 0x55A4 JUMP JUMPDEST JUMPDEST SWAP1 PUSH1 0x0 MSTORE PUSH1 0x20 PUSH1 0x0 KECCAK256 ADD DUP2 SWAP1 SSTORE POP DUP2 PUSH1 0x9 PUSH1 0x0 DUP4 DUP2 MSTORE PUSH1 0x20 ADD SWAP1 DUP2 MSTORE PUSH1 0x20 ADD PUSH1 0x0 KECCAK256 DUP2 SWAP1 SSTORE POP PUSH1 0x9 PUSH1 0x0 DUP6 DUP2 MSTORE PUSH1 0x20 ADD SWAP1 DUP2 MSTORE PUSH1 0x20 ADD PUSH1 0x0 KECCAK256 PUSH1 0x0 SWAP1 SSTORE PUSH1 0x8 DUP1 SLOAD DUP1 PUSH2 0x417C JUMPI PUSH2 0x417B PUSH2 0x5575 JUMP JUMPDEST JUMPDEST PUSH1 0x1 SWAP1 SUB DUP2 DUP2 SWAP1 PUSH1 0x0 MSTORE PUSH1 0x20 PUSH1 0x0 KECCAK256 ADD PUSH1 0x0 SWAP1 SSTORE SWAP1 SSTORE POP POP POP POP JUMP JUMPDEST PUSH1 0x0 PUSH2 0x41A3 DUP4 PUSH2 0xF0F JUMP JUMPDEST SWAP1 POP DUP2 PUSH1 0x6 PUSH1 0x0 DUP6 PUSH20 0xFFFFFFFFFFFFFFFFFFFFFFFFFFFFFFFFFFFFFFFF AND PUSH20 0xFFFFFFFFFFFFFFFFFFFFFFFFFFFFFFFFFFFFFFFF AND DUP2 MSTORE PUSH1 0x20 ADD SWAP1 DUP2 MSTORE PUSH1 0x20 ADD PUSH1 0x0 KECCAK256 PUSH1 0x0 DUP4 DUP2 MSTORE PUSH1 0x20 ADD SWAP1 DUP2 MSTORE PUSH1 0x20 ADD PUSH1 0x0 KECCAK256 DUP2 SWAP1 SSTORE POP DUP1 PUSH1 0x7 PUSH1 0x0 DUP5 DUP2 MSTORE PUSH1 0x20 ADD SWAP1 DUP2 MSTORE PUSH1 0x20 ADD PUSH1 0x0 KECCAK256 DUP2 SWAP1 SSTORE POP POP POP POP JUMP JUMPDEST PUSH1 0x40 MLOAD DUP1 PUSH2 0x180 ADD PUSH1 0x40 MSTORE DUP1 PUSH1 0x0 DUP2 MSTORE PUSH1 0x20 ADD PUSH1 0x0 DUP2 MSTORE PUSH1 0x20 ADD PUSH1 0x0 DUP2 MSTORE PUSH1 0x20 ADD PUSH1 0x0 DUP2 MSTORE PUSH1 0x20 ADD PUSH1 0x0 DUP2 MSTORE PUSH1 0x20 ADD PUSH1 0x0 DUP2 MSTORE PUSH1 0x20 ADD PUSH1 0x0 DUP2 MSTORE PUSH1 0x20 ADD PUSH1 0x0 DUP2 MSTORE PUSH1 0x20 ADD PUSH1 0x0 DUP2 MSTORE PUSH1 0x20 ADD PUSH1 0x0 DUP2 MSTORE PUSH1 0x20 ADD PUSH1 0x0 DUP2 MSTORE PUSH1 0x20 ADD PUSH1 0x0 DUP2 MSTORE POP SWAP1 JUMP JUMPDEST PUSH1 0x0 PUSH2 0x428B PUSH2 0x4286 DUP5 PUSH2 0x5191 JUMP JUMPDEST PUSH2 0x516C JUMP JUMPDEST SWAP1 POP DUP3 DUP2 MSTORE PUSH1 0x20 DUP2 ADD DUP5 DUP5 DUP5 ADD GT ISZERO PUSH2 0x42A7 JUMPI PUSH2 0x42A6 PUSH2 0x5607 JUMP JUMPDEST JUMPDEST PUSH2 0x42B2 DUP5 DUP3 DUP6 PUSH2 0x53BF JUMP JUMPDEST POP SWAP4 SWAP3 POP POP POP JUMP JUMPDEST PUSH1 0x0 DUP2 CALLDATALOAD SWAP1 POP PUSH2 0x42C9 DUP2 PUSH2 0x5AF4 JUMP JUMPDEST SWAP3 SWAP2 POP POP JUMP JUMPDEST PUSH1 0x0 DUP2 CALLDATALOAD SWAP1 POP PUSH2 0x42DE DUP2 PUSH2 0x5B0B JUMP JUMPDEST SWAP3 SWAP2 POP POP JUMP JUMPDEST PUSH1 0x0 DUP2 MLOAD SWAP1 POP PUSH2 0x42F3 DUP2 PUSH2 0x5B22 JUMP JUMPDEST SWAP3 SWAP2 POP POP JUMP JUMPDEST PUSH1 0x0 DUP2 CALLDATALOAD SWAP1 POP PUSH2 0x4308 DUP2 PUSH2 0x5B39 JUMP JUMPDEST SWAP3 SWAP2 POP POP JUMP JUMPDEST PUSH1 0x0 DUP2 MLOAD SWAP1 POP PUSH2 0x431D DUP2 PUSH2 0x5B39 JUMP JUMPDEST SWAP3 SWAP2 POP POP JUMP JUMPDEST PUSH1 0x0 DUP3 PUSH1 0x1F DUP4 ADD SLT PUSH2 0x4338 JUMPI PUSH2 0x4337 PUSH2 0x5602 JUMP JUMPDEST JUMPDEST DUP2 CALLDATALOAD PUSH2 0x4348 DUP5 DUP3 PUSH1 0x20 DUP7 ADD PUSH2 0x4278 JUMP JUMPDEST SWAP2 POP POP SWAP3 SWAP2 POP POP JUMP JUMPDEST PUSH1 0x0 DUP2 CALLDATALOAD SWAP1 POP PUSH2 0x4360 DUP2 PUSH2 0x5B50 JUMP JUMPDEST SWAP3 SWAP2 POP POP JUMP JUMPDEST PUSH1 0x0 PUSH1 0x20 DUP3 DUP5 SUB SLT ISZERO PUSH2 0x437C JUMPI PUSH2 0x437B PUSH2 0x5611 JUMP JUMPDEST JUMPDEST PUSH1 0x0 PUSH2 0x438A DUP5 DUP3 DUP6 ADD PUSH2 0x42BA JUMP JUMPDEST SWAP2 POP POP SWAP3 SWAP2 POP POP JUMP JUMPDEST PUSH1 0x0 DUP1 PUSH1 0x40 DUP4 DUP6 SUB SLT ISZERO PUSH2 0x43AA JUMPI PUSH2 0x43A9 PUSH2 0x5611 JUMP JUMPDEST JUMPDEST PUSH1 0x0 PUSH2 0x43B8 DUP6 DUP3 DUP7 ADD PUSH2 0x42BA JUMP JUMPDEST SWAP3 POP POP PUSH1 0x20 PUSH2 0x43C9 DUP6 DUP3 DUP7 ADD PUSH2 0x42BA JUMP JUMPDEST SWAP2 POP POP SWAP3 POP SWAP3 SWAP1 POP JUMP JUMPDEST PUSH1 0x0 DUP1 PUSH1 0x0 PUSH1 0x60 DUP5 DUP7 SUB SLT ISZERO PUSH2 0x43EC JUMPI PUSH2 0x43EB PUSH2 0x5611 JUMP JUMPDEST JUMPDEST PUSH1 0x0 PUSH2 0x43FA DUP7 DUP3 DUP8 ADD PUSH2 0x42BA JUMP JUMPDEST SWAP4 POP POP PUSH1 0x20 PUSH2 0x440B DUP7 DUP3 DUP8 ADD PUSH2 0x42BA JUMP JUMPDEST SWAP3 POP POP PUSH1 0x40 PUSH2 0x441C DUP7 DUP3 DUP8 ADD PUSH2 0x4351 JUMP JUMPDEST SWAP2 POP POP SWAP3 POP SWAP3 POP SWAP3 JUMP JUMPDEST PUSH1 0x0 DUP1 PUSH1 0x0 DUP1 PUSH1 0x80 DUP6 DUP8 SUB SLT ISZERO PUSH2 0x4440 JUMPI PUSH2 0x443F PUSH2 0x5611 JUMP JUMPDEST JUMPDEST PUSH1 0x0 PUSH2 0x444E DUP8 DUP3 DUP9 ADD PUSH2 0x42BA JUMP JUMPDEST SWAP5 POP POP PUSH1 0x20 PUSH2 0x445F DUP8 DUP3 DUP9 ADD PUSH2 0x42BA JUMP JUMPDEST SWAP4 POP POP PUSH1 0x40 PUSH2 0x4470 DUP8 DUP3 DUP9 ADD PUSH2 0x4351 JUMP JUMPDEST SWAP3 POP POP PUSH1 0x60 DUP6 ADD CALLDATALOAD PUSH8 0xFFFFFFFFFFFFFFFF DUP2 GT ISZERO PUSH2 0x4491 JUMPI PUSH2 0x4490 PUSH2 0x560C JUMP JUMPDEST JUMPDEST PUSH2 0x449D DUP8 DUP3 DUP9 ADD PUSH2 0x4323 JUMP JUMPDEST SWAP2 POP POP SWAP3 SWAP6 SWAP2 SWAP5 POP SWAP3 POP JUMP JUMPDEST PUSH1 0x0 DUP1 PUSH1 0x40 DUP4 DUP6 SUB SLT ISZERO PUSH2 0x44C0 JUMPI PUSH2 0x44BF PUSH2 0x5611 JUMP JUMPDEST JUMPDEST PUSH1 0x0 PUSH2 0x44CE DUP6 DUP3 DUP7 ADD PUSH2 0x42BA JUMP JUMPDEST SWAP3 POP POP PUSH1 0x20 PUSH2 0x44DF DUP6 DUP3 DUP7 ADD PUSH2 0x42CF JUMP JUMPDEST SWAP2 POP POP SWAP3 POP SWAP3 SWAP1 POP JUMP JUMPDEST PUSH1 0x0 DUP1 PUSH1 0x40 DUP4 DUP6 SUB SLT ISZERO PUSH2 0x4500 JUMPI PUSH2 0x44FF PUSH2 0x5611 JUMP JUMPDEST JUMPDEST PUSH1 0x0 PUSH2 0x450E DUP6 DUP3 DUP7 ADD PUSH2 0x42BA JUMP JUMPDEST SWAP3 POP POP PUSH1 0x20 PUSH2 0x451F DUP6 DUP3 DUP7 ADD PUSH2 0x4351 JUMP JUMPDEST SWAP2 POP POP SWAP3 POP SWAP3 SWAP1 POP JUMP JUMPDEST PUSH1 0x0 PUSH1 0x20 DUP3 DUP5 SUB SLT ISZERO PUSH2 0x453F JUMPI PUSH2 0x453E PUSH2 0x5611 JUMP JUMPDEST JUMPDEST PUSH1 0x0 PUSH2 0x454D DUP5 DUP3 DUP6 ADD PUSH2 0x42E4 JUMP JUMPDEST SWAP2 POP POP SWAP3 SWAP2 POP POP JUMP JUMPDEST PUSH1 0x0 PUSH1 0x20 DUP3 DUP5 SUB SLT ISZERO PUSH2 0x456C JUMPI PUSH2 0x456B PUSH2 0x5611 JUMP JUMPDEST JUMPDEST PUSH1 0x0 PUSH2 0x457A DUP5 DUP3 DUP6 ADD PUSH2 0x42F9 JUMP JUMPDEST SWAP2 POP POP SWAP3 SWAP2 POP POP JUMP JUMPDEST PUSH1 0x0 PUSH1 0x20 DUP3 DUP5 SUB SLT ISZERO PUSH2 0x4599 JUMPI PUSH2 0x4598 PUSH2 0x5611 JUMP JUMPDEST JUMPDEST PUSH1 0x0 PUSH2 0x45A7 DUP5 DUP3 DUP6 ADD PUSH2 0x430E JUMP JUMPDEST SWAP2 POP POP SWAP3 SWAP2 POP POP JUMP JUMPDEST PUSH1 0x0 PUSH1 0x20 DUP3 DUP5 SUB SLT ISZERO PUSH2 0x45C6 JUMPI PUSH2 0x45C5 PUSH2 0x5611 JUMP JUMPDEST JUMPDEST PUSH1 0x0 PUSH2 0x45D4 DUP5 DUP3 DUP6 ADD PUSH2 0x4351 JUMP JUMPDEST SWAP2 POP POP SWAP3 SWAP2 POP POP JUMP JUMPDEST PUSH1 0x0 DUP1 PUSH1 0x40 DUP4 DUP6 SUB SLT ISZERO PUSH2 0x45F4 JUMPI PUSH2 0x45F3 PUSH2 0x5611 JUMP JUMPDEST JUMPDEST PUSH1 0x0 PUSH2 0x4602 DUP6 DUP3 DUP7 ADD PUSH2 0x4351 JUMP JUMPDEST SWAP3 POP POP PUSH1 0x20 PUSH2 0x4613 DUP6 DUP3 DUP7 ADD PUSH2 0x4351 JUMP JUMPDEST SWAP2 POP POP SWAP3 POP SWAP3 SWAP1 POP JUMP JUMPDEST PUSH1 0x0 DUP1 PUSH1 0x0 DUP1 PUSH1 0x80 DUP6 DUP8 SUB SLT ISZERO PUSH2 0x4637 JUMPI PUSH2 0x4636 PUSH2 0x5611 JUMP JUMPDEST JUMPDEST PUSH1 0x0 PUSH2 0x4645 DUP8 DUP3 DUP9 ADD PUSH2 0x4351 JUMP JUMPDEST SWAP5 POP POP PUSH1 0x20 PUSH2 0x4656 DUP8 DUP3 DUP9 ADD PUSH2 0x4351 JUMP JUMPDEST SWAP4 POP POP PUSH1 0x40 PUSH2 0x4667 DUP8 DUP3 DUP9 ADD PUSH2 0x4351 JUMP JUMPDEST SWAP3 POP POP PUSH1 0x60 PUSH2 0x4678 DUP8 DUP3 DUP9 ADD PUSH2 0x4351 JUMP JUMPDEST SWAP2 POP POP SWAP3 SWAP6 SWAP2 SWAP5 POP SWAP3 POP JUMP JUMPDEST PUSH1 0x0 PUSH2 0x4690 DUP4 DUP4 PUSH2 0x4B40 JUMP JUMPDEST PUSH1 0x20 DUP4 ADD SWAP1 POP SWAP3 SWAP2 POP POP JUMP JUMPDEST PUSH2 0x46A5 DUP2 PUSH2 0x52F9 JUMP JUMPDEST DUP3 MSTORE POP POP JUMP JUMPDEST PUSH1 0x0 PUSH2 0x46B6 DUP3 PUSH2 0x51D2 JUMP JUMPDEST PUSH2 0x46C0 DUP2 DUP6 PUSH2 0x5200 JUMP JUMPDEST SWAP4 POP PUSH2 0x46CB DUP4 PUSH2 0x51C2 JUMP JUMPDEST DUP1 PUSH1 0x0 JUMPDEST DUP4 DUP2 LT ISZERO PUSH2 0x46FC JUMPI DUP2 MLOAD PUSH2 0x46E3 DUP9 DUP3 PUSH2 0x4684 JUMP JUMPDEST SWAP8 POP PUSH2 0x46EE DUP4 PUSH2 0x51F3 JUMP JUMPDEST SWAP3 POP POP PUSH1 0x1 DUP2 ADD SWAP1 POP PUSH2 0x46CF JUMP JUMPDEST POP DUP6 SWAP4 POP POP POP POP SWAP3 SWAP2 POP POP JUMP JUMPDEST PUSH2 0x4712 DUP2 PUSH2 0x530B JUMP JUMPDEST DUP3 MSTORE POP POP JUMP JUMPDEST PUSH1 0x0 PUSH2 0x4723 DUP3 PUSH2 0x51DD JUMP JUMPDEST PUSH2 0x472D DUP2 DUP6 PUSH2 0x5211 JUMP JUMPDEST SWAP4 POP PUSH2 0x473D DUP2 DUP6 PUSH1 0x20 DUP7 ADD PUSH2 0x53CE JUMP JUMPDEST PUSH2 0x4746 DUP2 PUSH2 0x5616 JUMP JUMPDEST DUP5 ADD SWAP2 POP POP SWAP3 SWAP2 POP POP JUMP JUMPDEST PUSH2 0x475A DUP2 PUSH2 0x5377 JUMP JUMPDEST DUP3 MSTORE POP POP JUMP JUMPDEST PUSH2 0x4769 DUP2 PUSH2 0x5389 JUMP JUMPDEST DUP3 MSTORE POP POP JUMP JUMPDEST PUSH2 0x4778 DUP2 PUSH2 0x539B JUMP JUMPDEST DUP3 MSTORE POP POP JUMP JUMPDEST PUSH2 0x4787 DUP2 PUSH2 0x53AD JUMP JUMPDEST DUP3 MSTORE POP POP JUMP JUMPDEST PUSH1 0x0 PUSH2 0x4798 DUP3 PUSH2 0x51E8 JUMP JUMPDEST PUSH2 0x47A2 DUP2 DUP6 PUSH2 0x5222 JUMP JUMPDEST SWAP4 POP PUSH2 0x47B2 DUP2 DUP6 PUSH1 0x20 DUP7 ADD PUSH2 0x53CE JUMP JUMPDEST PUSH2 0x47BB DUP2 PUSH2 0x5616 JUMP JUMPDEST DUP5 ADD SWAP2 POP POP SWAP3 SWAP2 POP POP JUMP JUMPDEST PUSH1 0x0 PUSH2 0x47D1 DUP3 PUSH2 0x51E8 JUMP JUMPDEST PUSH2 0x47DB DUP2 DUP6 PUSH2 0x5233 JUMP JUMPDEST SWAP4 POP PUSH2 0x47EB DUP2 DUP6 PUSH1 0x20 DUP7 ADD PUSH2 0x53CE JUMP JUMPDEST DUP1 DUP5 ADD SWAP2 POP POP SWAP3 SWAP2 POP POP JUMP JUMPDEST PUSH1 0x0 PUSH2 0x4804 PUSH1 0x2B DUP4 PUSH2 0x5222 JUMP JUMPDEST SWAP2 POP PUSH2 0x480F DUP3 PUSH2 0x5627 JUMP JUMPDEST PUSH1 0x40 DUP3 ADD SWAP1 POP SWAP2 SWAP1 POP JUMP JUMPDEST PUSH1 0x0 PUSH2 0x4827 PUSH1 0x32 DUP4 PUSH2 0x5222 JUMP JUMPDEST SWAP2 POP PUSH2 0x4832 DUP3 PUSH2 0x5676 JUMP JUMPDEST PUSH1 0x40 DUP3 ADD SWAP1 POP SWAP2 SWAP1 POP JUMP JUMPDEST PUSH1 0x0 PUSH2 0x484A PUSH1 0x25 DUP4 PUSH2 0x5222 JUMP JUMPDEST SWAP2 POP PUSH2 0x4855 DUP3 PUSH2 0x56C5 JUMP JUMPDEST PUSH1 0x40 DUP3 ADD SWAP1 POP SWAP2 SWAP1 POP JUMP JUMPDEST PUSH1 0x0 PUSH2 0x486D PUSH1 0x1C DUP4 PUSH2 0x5222 JUMP JUMPDEST SWAP2 POP PUSH2 0x4878 DUP3 PUSH2 0x5714 JUMP JUMPDEST PUSH1 0x20 DUP3 ADD SWAP1 POP SWAP2 SWAP1 POP JUMP JUMPDEST PUSH1 0x0 PUSH2 0x4890 PUSH1 0x24 DUP4 PUSH2 0x5222 JUMP JUMPDEST SWAP2 POP PUSH2 0x489B DUP3 PUSH2 0x573D JUMP JUMPDEST PUSH1 0x40 DUP3 ADD SWAP1 POP SWAP2 SWAP1 POP JUMP JUMPDEST PUSH1 0x0 PUSH2 0x48B3 PUSH1 0x19 DUP4 PUSH2 0x5222 JUMP JUMPDEST SWAP2 POP PUSH2 0x48BE DUP3 PUSH2 0x578C JUMP JUMPDEST PUSH1 0x20 DUP3 ADD SWAP1 POP SWAP2 SWAP1 POP JUMP JUMPDEST PUSH1 0x0 PUSH2 0x48D6 PUSH1 0x2C DUP4 PUSH2 0x5222 JUMP JUMPDEST SWAP2 POP PUSH2 0x48E1 DUP3 PUSH2 0x57B5 JUMP JUMPDEST PUSH1 0x40 DUP3 ADD SWAP1 POP SWAP2 SWAP1 POP JUMP JUMPDEST PUSH1 0x0 PUSH2 0x48F9 PUSH1 0x38 DUP4 PUSH2 0x5222 JUMP JUMPDEST SWAP2 POP PUSH2 0x4904 DUP3 PUSH2 0x5804 JUMP JUMPDEST PUSH1 0x40 DUP3 ADD SWAP1 POP SWAP2 SWAP1 POP JUMP JUMPDEST PUSH1 0x0 PUSH2 0x491C PUSH1 0x2A DUP4 PUSH2 0x5222 JUMP JUMPDEST SWAP2 POP PUSH2 0x4927 DUP3 PUSH2 0x5853 JUMP JUMPDEST PUSH1 0x40 DUP3 ADD SWAP1 POP SWAP2 SWAP1 POP JUMP JUMPDEST PUSH1 0x0 PUSH2 0x493F PUSH1 0x29 DUP4 PUSH2 0x5222 JUMP JUMPDEST SWAP2 POP PUSH2 0x494A DUP3 PUSH2 0x58A2 JUMP JUMPDEST PUSH1 0x40 DUP3 ADD SWAP1 POP SWAP2 SWAP1 POP JUMP JUMPDEST PUSH1 0x0 PUSH2 0x4962 PUSH1 0x20 DUP4 PUSH2 0x5222 JUMP JUMPDEST SWAP2 POP PUSH2 0x496D DUP3 PUSH2 0x58F1 JUMP JUMPDEST PUSH1 0x20 DUP3 ADD SWAP1 POP SWAP2 SWAP1 POP JUMP JUMPDEST PUSH1 0x0 PUSH2 0x4985 PUSH1 0x2C DUP4 PUSH2 0x5222 JUMP JUMPDEST SWAP2 POP PUSH2 0x4990 DUP3 PUSH2 0x591A JUMP JUMPDEST PUSH1 0x40 DUP3 ADD SWAP1 POP SWAP2 SWAP1 POP JUMP JUMPDEST PUSH1 0x0 PUSH2 0x49A8 PUSH1 0x2F DUP4 PUSH2 0x5222 JUMP JUMPDEST SWAP2 POP PUSH2 0x49B3 DUP3 PUSH2 0x5969 JUMP JUMPDEST PUSH1 0x40 DUP3 ADD SWAP1 POP SWAP2 SWAP1 POP JUMP JUMPDEST PUSH1 0x0 PUSH2 0x49CB PUSH1 0x21 DUP4 PUSH2 0x5222 JUMP JUMPDEST SWAP2 POP PUSH2 0x49D6 DUP3 PUSH2 0x59B8 JUMP JUMPDEST PUSH1 0x40 DUP3 ADD SWAP1 POP SWAP2 SWAP1 POP JUMP JUMPDEST PUSH1 0x0 PUSH2 0x49EE PUSH1 0x31 DUP4 PUSH2 0x5222 JUMP JUMPDEST SWAP2 POP PUSH2 0x49F9 DUP3 PUSH2 0x5A07 JUMP JUMPDEST PUSH1 0x40 DUP3 ADD SWAP1 POP SWAP2 SWAP1 POP JUMP JUMPDEST PUSH1 0x0 PUSH2 0x4A11 PUSH1 0x31 DUP4 PUSH2 0x5222 JUMP JUMPDEST SWAP2 POP PUSH2 0x4A1C DUP3 PUSH2 0x5A56 JUMP JUMPDEST PUSH1 0x40 DUP3 ADD SWAP1 POP SWAP2 SWAP1 POP JUMP JUMPDEST PUSH1 0x0 PUSH2 0x4A34 PUSH1 0x2C DUP4 PUSH2 0x5222 JUMP JUMPDEST SWAP2 POP PUSH2 0x4A3F DUP3 PUSH2 0x5AA5 JUMP JUMPDEST PUSH1 0x40 DUP3 ADD SWAP1 POP SWAP2 SWAP1 POP JUMP JUMPDEST PUSH2 0x180 DUP3 ADD PUSH1 0x0 DUP3 ADD MLOAD PUSH2 0x4A61 PUSH1 0x0 DUP6 ADD DUP3 PUSH2 0x4B40 JUMP JUMPDEST POP PUSH1 0x20 DUP3 ADD MLOAD PUSH2 0x4A74 PUSH1 0x20 DUP6 ADD DUP3 PUSH2 0x4B40 JUMP JUMPDEST POP PUSH1 0x40 DUP3 ADD MLOAD PUSH2 0x4A87 PUSH1 0x40 DUP6 ADD DUP3 PUSH2 0x4B40 JUMP JUMPDEST POP PUSH1 0x60 DUP3 ADD MLOAD PUSH2 0x4A9A PUSH1 0x60 DUP6 ADD DUP3 PUSH2 0x4B40 JUMP JUMPDEST POP PUSH1 0x80 DUP3 ADD MLOAD PUSH2 0x4AAD PUSH1 0x80 DUP6 ADD DUP3 PUSH2 0x4B40 JUMP JUMPDEST POP PUSH1 0xA0 DUP3 ADD MLOAD PUSH2 0x4AC0 PUSH1 0xA0 DUP6 ADD DUP3 PUSH2 0x4B40 JUMP JUMPDEST POP PUSH1 0xC0 DUP3 ADD MLOAD PUSH2 0x4AD3 PUSH1 0xC0 DUP6 ADD DUP3 PUSH2 0x4B40 JUMP JUMPDEST POP PUSH1 0xE0 DUP3 ADD MLOAD PUSH2 0x4AE6 PUSH1 0xE0 DUP6 ADD DUP3 PUSH2 0x4B40 JUMP JUMPDEST POP PUSH2 0x100 DUP3 ADD MLOAD PUSH2 0x4AFB PUSH2 0x100 DUP6 ADD DUP3 PUSH2 0x4B40 JUMP JUMPDEST POP PUSH2 0x120 DUP3 ADD MLOAD PUSH2 0x4B10 PUSH2 0x120 DUP6 ADD DUP3 PUSH2 0x4B40 JUMP JUMPDEST POP PUSH2 0x140 DUP3 ADD MLOAD PUSH2 0x4B25 PUSH2 0x140 DUP6 ADD DUP3 PUSH2 0x4B40 JUMP JUMPDEST POP PUSH2 0x160 DUP3 ADD MLOAD PUSH2 0x4B3A PUSH2 0x160 DUP6 ADD DUP3 PUSH2 0x4B40 JUMP JUMPDEST POP POP POP POP JUMP JUMPDEST PUSH2 0x4B49 DUP2 PUSH2 0x536D JUMP JUMPDEST DUP3 MSTORE POP POP JUMP JUMPDEST PUSH2 0x4B58 DUP2 PUSH2 0x536D JUMP JUMPDEST DUP3 MSTORE POP POP JUMP JUMPDEST PUSH2 0x4B6F PUSH2 0x4B6A DUP3 PUSH2 0x536D JUMP JUMPDEST PUSH2 0x54AD JUMP JUMPDEST DUP3 MSTORE POP POP JUMP JUMPDEST PUSH1 0x0 PUSH2 0x4B81 DUP3 DUP6 PUSH2 0x47C6 JUMP JUMPDEST SWAP2 POP PUSH2 0x4B8D DUP3 DUP5 PUSH2 0x47C6 JUMP JUMPDEST SWAP2 POP DUP2 SWAP1 POP SWAP4 SWAP3 POP POP POP JUMP JUMPDEST PUSH1 0x0 PUSH2 0x4BA5 DUP3 DUP7 PUSH2 0x4B5E JUMP JUMPDEST PUSH1 0x20 DUP3 ADD SWAP2 POP PUSH2 0x4BB5 DUP3 DUP6 PUSH2 0x4B5E JUMP JUMPDEST PUSH1 0x20 DUP3 ADD SWAP2 POP PUSH2 0x4BC5 DUP3 DUP5 PUSH2 0x4B5E JUMP JUMPDEST PUSH1 0x20 DUP3 ADD SWAP2 POP DUP2 SWAP1 POP SWAP5 SWAP4 POP POP POP POP JUMP JUMPDEST PUSH1 0x0 PUSH1 0x20 DUP3 ADD SWAP1 POP PUSH2 0x4BEB PUSH1 0x0 DUP4 ADD DUP5 PUSH2 0x469C JUMP JUMPDEST SWAP3 SWAP2 POP POP JUMP JUMPDEST PUSH1 0x0 PUSH1 0x80 DUP3 ADD SWAP1 POP PUSH2 0x4C06 PUSH1 0x0 DUP4 ADD DUP8 PUSH2 0x469C JUMP JUMPDEST PUSH2 0x4C13 PUSH1 0x20 DUP4 ADD DUP7 PUSH2 0x469C JUMP JUMPDEST PUSH2 0x4C20 PUSH1 0x40 DUP4 ADD DUP6 PUSH2 0x4B4F JUMP JUMPDEST DUP2 DUP2 SUB PUSH1 0x60 DUP4 ADD MSTORE PUSH2 0x4C32 DUP2 DUP5 PUSH2 0x4718 JUMP JUMPDEST SWAP1 POP SWAP6 SWAP5 POP POP POP POP POP JUMP JUMPDEST PUSH1 0x0 PUSH1 0x20 DUP3 ADD SWAP1 POP PUSH2 0x4C52 PUSH1 0x0 DUP4 ADD DUP5 PUSH2 0x4709 JUMP JUMPDEST SWAP3 SWAP2 POP POP JUMP JUMPDEST PUSH1 0x0 PUSH1 0x20 DUP3 ADD SWAP1 POP PUSH2 0x4C6D PUSH1 0x0 DUP4 ADD DUP5 PUSH2 0x4751 JUMP JUMPDEST SWAP3 SWAP2 POP POP JUMP JUMPDEST PUSH1 0x0 PUSH1 0x20 DUP3 ADD SWAP1 POP PUSH2 0x4C88 PUSH1 0x0 DUP4 ADD DUP5 PUSH2 0x4760 JUMP JUMPDEST SWAP3 SWAP2 POP POP JUMP JUMPDEST PUSH1 0x0 PUSH1 0x20 DUP3 ADD SWAP1 POP PUSH2 0x4CA3 PUSH1 0x0 DUP4 ADD DUP5 PUSH2 0x476F JUMP JUMPDEST SWAP3 SWAP2 POP POP JUMP JUMPDEST PUSH1 0x0 PUSH1 0x20 DUP3 ADD SWAP1 POP PUSH2 0x4CBE PUSH1 0x0 DUP4 ADD DUP5 PUSH2 0x477E JUMP JUMPDEST SWAP3 SWAP2 POP POP JUMP JUMPDEST PUSH1 0x0 PUSH1 0x20 DUP3 ADD SWAP1 POP DUP2 DUP2 SUB PUSH1 0x0 DUP4 ADD MSTORE PUSH2 0x4CDE DUP2 DUP5 PUSH2 0x478D JUMP JUMPDEST SWAP1 POP SWAP3 SWAP2 POP POP JUMP JUMPDEST PUSH1 0x0 PUSH1 0x20 DUP3 ADD SWAP1 POP DUP2 DUP2 SUB PUSH1 0x0 DUP4 ADD MSTORE PUSH2 0x4CFF DUP2 PUSH2 0x47F7 JUMP JUMPDEST SWAP1 POP SWAP2 SWAP1 POP JUMP JUMPDEST PUSH1 0x0 PUSH1 0x20 DUP3 ADD SWAP1 POP DUP2 DUP2 SUB PUSH1 0x0 DUP4 ADD MSTORE PUSH2 0x4D1F DUP2 PUSH2 0x481A JUMP JUMPDEST SWAP1 POP SWAP2 SWAP1 POP JUMP JUMPDEST PUSH1 0x0 PUSH1 0x20 DUP3 ADD SWAP1 POP DUP2 DUP2 SUB PUSH1 0x0 DUP4 ADD MSTORE PUSH2 0x4D3F DUP2 PUSH2 0x483D JUMP JUMPDEST SWAP1 POP SWAP2 SWAP1 POP JUMP JUMPDEST PUSH1 0x0 PUSH1 0x20 DUP3 ADD SWAP1 POP DUP2 DUP2 SUB PUSH1 0x0 DUP4 ADD MSTORE PUSH2 0x4D5F DUP2 PUSH2 0x4860 JUMP JUMPDEST SWAP1 POP SWAP2 SWAP1 POP JUMP JUMPDEST PUSH1 0x0 PUSH1 0x20 DUP3 ADD SWAP1 POP DUP2 DUP2 SUB PUSH1 0x0 DUP4 ADD MSTORE PUSH2 0x4D7F DUP2 PUSH2 0x4883 JUMP JUMPDEST SWAP1 POP SWAP2 SWAP1 POP JUMP JUMPDEST PUSH1 0x0 PUSH1 0x20 DUP3 ADD SWAP1 POP DUP2 DUP2 SUB PUSH1 0x0 DUP4 ADD MSTORE PUSH2 0x4D9F DUP2 PUSH2 0x48A6 JUMP JUMPDEST SWAP1 POP SWAP2 SWAP1 POP JUMP JUMPDEST PUSH1 0x0 PUSH1 0x20 DUP3 ADD SWAP1 POP DUP2 DUP2 SUB PUSH1 0x0 DUP4 ADD MSTORE PUSH2 0x4DBF DUP2 PUSH2 0x48C9 JUMP JUMPDEST SWAP1 POP SWAP2 SWAP1 POP JUMP JUMPDEST PUSH1 0x0 PUSH1 0x20 DUP3 ADD SWAP1 POP DUP2 DUP2 SUB PUSH1 0x0 DUP4 ADD MSTORE PUSH2 0x4DDF DUP2 PUSH2 0x48EC JUMP JUMPDEST SWAP1 POP SWAP2 SWAP1 POP JUMP JUMPDEST PUSH1 0x0 PUSH1 0x20 DUP3 ADD SWAP1 POP DUP2 DUP2 SUB PUSH1 0x0 DUP4 ADD MSTORE PUSH2 0x4DFF DUP2 PUSH2 0x490F JUMP JUMPDEST SWAP1 POP SWAP2 SWAP1 POP JUMP JUMPDEST PUSH1 0x0 PUSH1 0x20 DUP3 ADD SWAP1 POP DUP2 DUP2 SUB PUSH1 0x0 DUP4 ADD MSTORE PUSH2 0x4E1F DUP2 PUSH2 0x4932 JUMP JUMPDEST SWAP1 POP SWAP2 SWAP1 POP JUMP JUMPDEST PUSH1 0x0 PUSH1 0x20 DUP3 ADD SWAP1 POP DUP2 DUP2 SUB PUSH1 0x0 DUP4 ADD MSTORE PUSH2 0x4E3F DUP2 PUSH2 0x4955 JUMP JUMPDEST SWAP1 POP SWAP2 SWAP1 POP JUMP JUMPDEST PUSH1 0x0 PUSH1 0x20 DUP3 ADD SWAP1 POP DUP2 DUP2 SUB PUSH1 0x0 DUP4 ADD MSTORE PUSH2 0x4E5F DUP2 PUSH2 0x4978 JUMP JUMPDEST SWAP1 POP SWAP2 SWAP1 POP JUMP JUMPDEST PUSH1 0x0 PUSH1 0x20 DUP3 ADD SWAP1 POP DUP2 DUP2 SUB PUSH1 0x0 DUP4 ADD MSTORE PUSH2 0x4E7F DUP2 PUSH2 0x499B JUMP JUMPDEST SWAP1 POP SWAP2 SWAP1 POP JUMP JUMPDEST PUSH1 0x0 PUSH1 0x20 DUP3 ADD SWAP1 POP DUP2 DUP2 SUB PUSH1 0x0 DUP4 ADD MSTORE PUSH2 0x4E9F DUP2 PUSH2 0x49BE JUMP JUMPDEST SWAP1 POP SWAP2 SWAP1 POP JUMP JUMPDEST PUSH1 0x0 PUSH1 0x20 DUP3 ADD SWAP1 POP DUP2 DUP2 SUB PUSH1 0x0 DUP4 ADD MSTORE PUSH2 0x4EBF DUP2 PUSH2 0x49E1 JUMP JUMPDEST SWAP1 POP SWAP2 SWAP1 POP JUMP JUMPDEST PUSH1 0x0 PUSH1 0x20 DUP3 ADD SWAP1 POP DUP2 DUP2 SUB PUSH1 0x0 DUP4 ADD MSTORE PUSH2 0x4EDF DUP2 PUSH2 0x4A04 JUMP JUMPDEST SWAP1 POP SWAP2 SWAP1 POP JUMP JUMPDEST PUSH1 0x0 PUSH1 0x20 DUP3 ADD SWAP1 POP DUP2 DUP2 SUB PUSH1 0x0 DUP4 ADD MSTORE PUSH2 0x4EFF DUP2 PUSH2 0x4A27 JUMP JUMPDEST SWAP1 POP SWAP2 SWAP1 POP JUMP JUMPDEST PUSH1 0x0 PUSH2 0x300 DUP3 ADD SWAP1 POP PUSH2 0x4F1C PUSH1 0x0 DUP4 ADD DUP6 PUSH2 0x4A4A JUMP JUMPDEST PUSH2 0x4F2A PUSH2 0x180 DUP4 ADD DUP5 PUSH2 0x4A4A JUMP JUMPDEST SWAP4 SWAP3 POP POP POP JUMP JUMPDEST PUSH1 0x0 PUSH1 0x20 DUP3 ADD SWAP1 POP PUSH2 0x4F46 PUSH1 0x0 DUP4 ADD DUP5 PUSH2 0x4B4F JUMP JUMPDEST SWAP3 SWAP2 POP POP JUMP JUMPDEST PUSH1 0x0 PUSH1 0x40 DUP3 ADD SWAP1 POP PUSH2 0x4F61 PUSH1 0x0 DUP4 ADD DUP6 PUSH2 0x4B4F JUMP JUMPDEST DUP2 DUP2 SUB PUSH1 0x20 DUP4 ADD MSTORE PUSH2 0x4F73 DUP2 DUP5 PUSH2 0x46AB JUMP JUMPDEST SWAP1 POP SWAP4 SWAP3 POP POP POP JUMP JUMPDEST PUSH1 0x0 PUSH1 0x40 DUP3 ADD SWAP1 POP PUSH2 0x4F91 PUSH1 0x0 DUP4 ADD DUP6 PUSH2 0x4B4F JUMP JUMPDEST PUSH2 0x4F9E PUSH1 0x20 DUP4 ADD DUP5 PUSH2 0x4B4F JUMP JUMPDEST SWAP4 SWAP3 POP POP POP JUMP JUMPDEST PUSH1 0x0 PUSH1 0x60 DUP3 ADD SWAP1 POP PUSH2 0x4FBA PUSH1 0x0 DUP4 ADD DUP7 PUSH2 0x4B4F JUMP JUMPDEST PUSH2 0x4FC7 PUSH1 0x20 DUP4 ADD DUP6 PUSH2 0x4B4F JUMP JUMPDEST DUP2 DUP2 SUB PUSH1 0x40 DUP4 ADD MSTORE PUSH2 0x4FD9 DUP2 DUP5 PUSH2 0x46AB JUMP JUMPDEST SWAP1 POP SWAP5 SWAP4 POP POP POP POP JUMP JUMPDEST PUSH1 0x0 PUSH1 0x60 DUP3 ADD SWAP1 POP PUSH2 0x4FF8 PUSH1 0x0 DUP4 ADD DUP7 PUSH2 0x4B4F JUMP JUMPDEST PUSH2 0x5005 PUSH1 0x20 DUP4 ADD DUP6 PUSH2 0x4B4F JUMP JUMPDEST PUSH2 0x5012 PUSH1 0x40 DUP4 ADD DUP5 PUSH2 0x4B4F JUMP JUMPDEST SWAP5 SWAP4 POP POP POP POP JUMP JUMPDEST PUSH1 0x0 PUSH1 0x80 DUP3 ADD SWAP1 POP PUSH2 0x502F PUSH1 0x0 DUP4 ADD DUP8 PUSH2 0x4B4F JUMP JUMPDEST PUSH2 0x503C PUSH1 0x20 DUP4 ADD DUP7 PUSH2 0x4B4F JUMP JUMPDEST PUSH2 0x5049 PUSH1 0x40 DUP4 ADD DUP6 PUSH2 0x4B4F JUMP JUMPDEST PUSH2 0x5056 PUSH1 0x60 DUP4 ADD DUP5 PUSH2 0x4B4F JUMP JUMPDEST SWAP6 SWAP5 POP POP POP POP POP JUMP JUMPDEST PUSH1 0x0 PUSH1 0xA0 DUP3 ADD SWAP1 POP PUSH2 0x5074 PUSH1 0x0 DUP4 ADD DUP9 PUSH2 0x4B4F JUMP JUMPDEST PUSH2 0x5081 PUSH1 0x20 DUP4 ADD DUP8 PUSH2 0x4B4F JUMP JUMPDEST PUSH2 0x508E PUSH1 0x40 DUP4 ADD DUP7 PUSH2 0x4B4F JUMP JUMPDEST PUSH2 0x509B PUSH1 0x60 DUP4 ADD DUP6 PUSH2 0x4B4F JUMP JUMPDEST PUSH2 0x50A8 PUSH1 0x80 DUP4 ADD DUP5 PUSH2 0x4B4F JUMP JUMPDEST SWAP7 SWAP6 POP POP POP POP POP POP JUMP JUMPDEST PUSH1 0x0 PUSH2 0x180 DUP3 ADD SWAP1 POP PUSH2 0x50C8 PUSH1 0x0 DUP4 ADD DUP16 PUSH2 0x4B4F JUMP JUMPDEST PUSH2 0x50D5 PUSH1 0x20 DUP4 ADD DUP15 PUSH2 0x4B4F JUMP JUMPDEST PUSH2 0x50E2 PUSH1 0x40 DUP4 ADD DUP14 PUSH2 0x4B4F JUMP JUMPDEST PUSH2 0x50EF PUSH1 0x60 DUP4 ADD DUP13 PUSH2 0x4B4F JUMP JUMPDEST PUSH2 0x50FC PUSH1 0x80 DUP4 ADD DUP12 PUSH2 0x4B4F JUMP JUMPDEST PUSH2 0x5109 PUSH1 0xA0 DUP4 ADD DUP11 PUSH2 0x4B4F JUMP JUMPDEST PUSH2 0x5116 PUSH1 0xC0 DUP4 ADD DUP10 PUSH2 0x4B4F JUMP JUMPDEST PUSH2 0x5123 PUSH1 0xE0 DUP4 ADD DUP9 PUSH2 0x4B4F JUMP JUMPDEST PUSH2 0x5131 PUSH2 0x100 DUP4 ADD DUP8 PUSH2 0x4B4F JUMP JUMPDEST PUSH2 0x513F PUSH2 0x120 DUP4 ADD DUP7 PUSH2 0x4B4F JUMP JUMPDEST PUSH2 0x514D PUSH2 0x140 DUP4 ADD DUP6 PUSH2 0x4B4F JUMP JUMPDEST PUSH2 0x515B PUSH2 0x160 DUP4 ADD DUP5 PUSH2 0x4B4F JUMP JUMPDEST SWAP14 SWAP13 POP POP POP POP POP POP POP POP POP POP POP POP POP JUMP JUMPDEST PUSH1 0x0 PUSH2 0x5176 PUSH2 0x5187 JUMP JUMPDEST SWAP1 POP PUSH2 0x5182 DUP3 DUP3 PUSH2 0x5433 JUMP JUMPDEST SWAP2 SWAP1 POP JUMP JUMPDEST PUSH1 0x0 PUSH1 0x40 MLOAD SWAP1 POP SWAP1 JUMP JUMPDEST PUSH1 0x0 PUSH8 0xFFFFFFFFFFFFFFFF DUP3 GT ISZERO PUSH2 0x51AC JUMPI PUSH2 0x51AB PUSH2 0x55D3 JUMP JUMPDEST JUMPDEST PUSH2 0x51B5 DUP3 PUSH2 0x5616 JUMP JUMPDEST SWAP1 POP PUSH1 0x20 DUP2 ADD SWAP1 POP SWAP2 SWAP1 POP JUMP JUMPDEST PUSH1 0x0 DUP2 SWAP1 POP PUSH1 0x20 DUP3 ADD SWAP1 POP SWAP2 SWAP1 POP JUMP JUMPDEST PUSH1 0x0 DUP2 MLOAD SWAP1 POP SWAP2 SWAP1 POP JUMP JUMPDEST PUSH1 0x0 DUP2 MLOAD SWAP1 POP SWAP2 SWAP1 POP JUMP JUMPDEST PUSH1 0x0 DUP2 MLOAD SWAP1 POP SWAP2 SWAP1 POP JUMP JUMPDEST PUSH1 0x0 PUSH1 0x20 DUP3 ADD SWAP1 POP SWAP2 SWAP1 POP JUMP JUMPDEST PUSH1 0x0 DUP3 DUP3 MSTORE PUSH1 0x20 DUP3 ADD SWAP1 POP SWAP3 SWAP2 POP POP JUMP JUMPDEST PUSH1 0x0 DUP3 DUP3 MSTORE PUSH1 0x20 DUP3 ADD SWAP1 POP SWAP3 SWAP2 POP POP JUMP JUMPDEST PUSH1 0x0 DUP3 DUP3 MSTORE PUSH1 0x20 DUP3 ADD SWAP1 POP SWAP3 SWAP2 POP POP JUMP JUMPDEST PUSH1 0x0 DUP2 SWAP1 POP SWAP3 SWAP2 POP POP JUMP JUMPDEST PUSH1 0x0 PUSH2 0x5249 DUP3 PUSH2 0x536D JUMP JUMPDEST SWAP2 POP PUSH2 0x5254 DUP4 PUSH2 0x536D JUMP JUMPDEST SWAP3 POP DUP3 PUSH32 0xFFFFFFFFFFFFFFFFFFFFFFFFFFFFFFFFFFFFFFFFFFFFFFFFFFFFFFFFFFFFFFFF SUB DUP3 GT ISZERO PUSH2 0x5289 JUMPI PUSH2 0x5288 PUSH2 0x54E8 JUMP JUMPDEST JUMPDEST DUP3 DUP3 ADD SWAP1 POP SWAP3 SWAP2 POP POP JUMP JUMPDEST PUSH1 0x0 PUSH2 0x529F DUP3 PUSH2 0x536D JUMP JUMPDEST SWAP2 POP PUSH2 0x52AA DUP4 PUSH2 0x536D JUMP JUMPDEST SWAP3 POP DUP3 PUSH2 0x52BA JUMPI PUSH2 0x52B9 PUSH2 0x5517 JUMP JUMPDEST JUMPDEST DUP3 DUP3 DIV SWAP1 POP SWAP3 SWAP2 POP POP JUMP JUMPDEST PUSH1 0x0 PUSH2 0x52D0 DUP3 PUSH2 0x536D JUMP JUMPDEST SWAP2 POP PUSH2 0x52DB DUP4 PUSH2 0x536D JUMP JUMPDEST SWAP3 POP DUP3 DUP3 LT ISZERO PUSH2 0x52EE JUMPI PUSH2 0x52ED PUSH2 0x54E8 JUMP JUMPDEST JUMPDEST DUP3 DUP3 SUB SWAP1 POP SWAP3 SWAP2 POP POP JUMP JUMPDEST PUSH1 0x0 PUSH2 0x5304 DUP3 PUSH2 0x534D JUMP JUMPDEST SWAP1 POP SWAP2 SWAP1 POP JUMP JUMPDEST PUSH1 0x0 DUP2 ISZERO ISZERO SWAP1 POP SWAP2 SWAP1 POP JUMP JUMPDEST PUSH1 0x0 DUP2 SWAP1 POP SWAP2 SWAP1 POP JUMP JUMPDEST PUSH1 0x0 PUSH32 0xFFFFFFFF00000000000000000000000000000000000000000000000000000000 DUP3 AND SWAP1 POP SWAP2 SWAP1 POP JUMP JUMPDEST PUSH1 0x0 PUSH20 0xFFFFFFFFFFFFFFFFFFFFFFFFFFFFFFFFFFFFFFFF DUP3 AND SWAP1 POP SWAP2 SWAP1 POP JUMP JUMPDEST PUSH1 0x0 DUP2 SWAP1 POP SWAP2 SWAP1 POP JUMP JUMPDEST PUSH1 0x0 PUSH2 0x5382 DUP3 PUSH2 0x536D JUMP JUMPDEST SWAP1 POP SWAP2 SWAP1 POP JUMP JUMPDEST PUSH1 0x0 PUSH2 0x5394 DUP3 PUSH2 0x536D JUMP JUMPDEST SWAP1 POP SWAP2 SWAP1 POP JUMP JUMPDEST PUSH1 0x0 PUSH2 0x53A6 DUP3 PUSH2 0x536D JUMP JUMPDEST SWAP1 POP SWAP2 SWAP1 POP JUMP JUMPDEST PUSH1 0x0 PUSH2 0x53B8 DUP3 PUSH2 0x536D JUMP JUMPDEST SWAP1 POP SWAP2 SWAP1 POP JUMP JUMPDEST DUP3 DUP2 DUP4 CALLDATACOPY PUSH1 0x0 DUP4 DUP4 ADD MSTORE POP POP POP JUMP JUMPDEST PUSH1 0x0 JUMPDEST DUP4 DUP2 LT ISZERO PUSH2 0x53EC JUMPI DUP1 DUP3 ADD MLOAD DUP2 DUP5 ADD MSTORE PUSH1 0x20 DUP2 ADD SWAP1 POP PUSH2 0x53D1 JUMP JUMPDEST DUP4 DUP2 GT ISZERO PUSH2 0x53FB JUMPI PUSH1 0x0 DUP5 DUP5 ADD MSTORE JUMPDEST POP POP POP POP JUMP JUMPDEST PUSH1 0x0 PUSH1 0x2 DUP3 DIV SWAP1 POP PUSH1 0x1 DUP3 AND DUP1 PUSH2 0x5419 JUMPI PUSH1 0x7F DUP3 AND SWAP2 POP JUMPDEST PUSH1 0x20 DUP3 LT DUP2 EQ ISZERO PUSH2 0x542D JUMPI PUSH2 0x542C PUSH2 0x5546 JUMP JUMPDEST JUMPDEST POP SWAP2 SWAP1 POP JUMP JUMPDEST PUSH2 0x543C DUP3 PUSH2 0x5616 JUMP JUMPDEST DUP2 ADD DUP2 DUP2 LT PUSH8 0xFFFFFFFFFFFFFFFF DUP3 GT OR ISZERO PUSH2 0x545B JUMPI PUSH2 0x545A PUSH2 0x55D3 JUMP JUMPDEST JUMPDEST DUP1 PUSH1 0x40 MSTORE POP POP POP JUMP JUMPDEST PUSH1 0x0 PUSH2 0x546F DUP3 PUSH2 0x536D JUMP JUMPDEST SWAP2 POP PUSH32 0xFFFFFFFFFFFFFFFFFFFFFFFFFFFFFFFFFFFFFFFFFFFFFFFFFFFFFFFFFFFFFFFF DUP3 EQ ISZERO PUSH2 0x54A2 JUMPI PUSH2 0x54A1 PUSH2 0x54E8 JUMP JUMPDEST JUMPDEST PUSH1 0x1 DUP3 ADD SWAP1 POP SWAP2 SWAP1 POP JUMP JUMPDEST PUSH1 0x0 DUP2 SWAP1 POP SWAP2 SWAP1 POP JUMP JUMPDEST PUSH1 0x0 PUSH2 0x54C2 DUP3 PUSH2 0x536D JUMP JUMPDEST SWAP2 POP PUSH2 0x54CD DUP4 PUSH2 0x536D JUMP JUMPDEST SWAP3 POP DUP3 PUSH2 0x54DD JUMPI PUSH2 0x54DC PUSH2 0x5517 JUMP JUMPDEST JUMPDEST DUP3 DUP3 MOD SWAP1 POP SWAP3 SWAP2 POP POP JUMP JUMPDEST PUSH32 0x4E487B7100000000000000000000000000000000000000000000000000000000 PUSH1 0x0 MSTORE PUSH1 0x11 PUSH1 0x4 MSTORE PUSH1 0x24 PUSH1 0x0 REVERT JUMPDEST PUSH32 0x4E487B7100000000000000000000000000000000000000000000000000000000 PUSH1 0x0 MSTORE PUSH1 0x12 PUSH1 0x4 MSTORE PUSH1 0x24 PUSH1 0x0 REVERT JUMPDEST PUSH32 0x4E487B7100000000000000000000000000000000000000000000000000000000 PUSH1 0x0 MSTORE PUSH1 0x22 PUSH1 0x4 MSTORE PUSH1 0x24 PUSH1 0x0 REVERT JUMPDEST PUSH32 0x4E487B7100000000000000000000000000000000000000000000000000000000 PUSH1 0x0 MSTORE PUSH1 0x31 PUSH1 0x4 MSTORE PUSH1 0x24 PUSH1 0x0 REVERT JUMPDEST PUSH32 0x4E487B7100000000000000000000000000000000000000000000000000000000 PUSH1 0x0 MSTORE PUSH1 0x32 PUSH1 0x4 MSTORE PUSH1 0x24 PUSH1 0x0 REVERT JUMPDEST PUSH32 0x4E487B7100000000000000000000000000000000000000000000000000000000 PUSH1 0x0 MSTORE PUSH1 0x41 PUSH1 0x4 MSTORE PUSH1 0x24 PUSH1 0x0 REVERT JUMPDEST PUSH1 0x0 DUP1 REVERT JUMPDEST PUSH1 0x0 DUP1 REVERT JUMPDEST PUSH1 0x0 DUP1 REVERT JUMPDEST PUSH1 0x0 DUP1 REVERT JUMPDEST PUSH1 0x0 PUSH1 0x1F NOT PUSH1 0x1F DUP4 ADD AND SWAP1 POP SWAP2 SWAP1 POP JUMP JUMPDEST PUSH32 0x455243373231456E756D657261626C653A206F776E657220696E646578206F75 PUSH1 0x0 DUP3 ADD MSTORE PUSH32 0x74206F6620626F756E6473000000000000000000000000000000000000000000 PUSH1 0x20 DUP3 ADD MSTORE POP JUMP JUMPDEST PUSH32 0x4552433732313A207472616E7366657220746F206E6F6E204552433732315265 PUSH1 0x0 DUP3 ADD MSTORE PUSH32 0x63656976657220696D706C656D656E7465720000000000000000000000000000 PUSH1 0x20 DUP3 ADD MSTORE POP JUMP JUMPDEST PUSH32 0x4552433732313A207472616E736665722066726F6D20696E636F727265637420 PUSH1 0x0 DUP3 ADD MSTORE PUSH32 0x6F776E6572000000000000000000000000000000000000000000000000000000 PUSH1 0x20 DUP3 ADD MSTORE POP JUMP JUMPDEST PUSH32 0x4552433732313A20746F6B656E20616C7265616479206D696E74656400000000 PUSH1 0x0 DUP3 ADD MSTORE POP JUMP JUMPDEST PUSH32 0x4552433732313A207472616E7366657220746F20746865207A65726F20616464 PUSH1 0x0 DUP3 ADD MSTORE PUSH32 0x7265737300000000000000000000000000000000000000000000000000000000 PUSH1 0x20 DUP3 ADD MSTORE POP JUMP JUMPDEST PUSH32 0x4552433732313A20617070726F766520746F2063616C6C657200000000000000 PUSH1 0x0 DUP3 ADD MSTORE POP JUMP JUMPDEST PUSH32 0x4552433732313A206F70657261746F7220717565727920666F72206E6F6E6578 PUSH1 0x0 DUP3 ADD MSTORE PUSH32 0x697374656E7420746F6B656E0000000000000000000000000000000000000000 PUSH1 0x20 DUP3 ADD MSTORE POP JUMP JUMPDEST PUSH32 0x4552433732313A20617070726F76652063616C6C6572206973206E6F74206F77 PUSH1 0x0 DUP3 ADD MSTORE PUSH32 0x6E6572206E6F7220617070726F76656420666F7220616C6C0000000000000000 PUSH1 0x20 DUP3 ADD MSTORE POP JUMP JUMPDEST PUSH32 0x4552433732313A2062616C616E636520717565727920666F7220746865207A65 PUSH1 0x0 DUP3 ADD MSTORE PUSH32 0x726F206164647265737300000000000000000000000000000000000000000000 PUSH1 0x20 DUP3 ADD MSTORE POP JUMP JUMPDEST PUSH32 0x4552433732313A206F776E657220717565727920666F72206E6F6E6578697374 PUSH1 0x0 DUP3 ADD MSTORE PUSH32 0x656E7420746F6B656E0000000000000000000000000000000000000000000000 PUSH1 0x20 DUP3 ADD MSTORE POP JUMP JUMPDEST PUSH32 0x4552433732313A206D696E7420746F20746865207A65726F2061646472657373 PUSH1 0x0 DUP3 ADD MSTORE POP JUMP JUMPDEST PUSH32 0x4552433732313A20617070726F76656420717565727920666F72206E6F6E6578 PUSH1 0x0 DUP3 ADD MSTORE PUSH32 0x697374656E7420746F6B656E0000000000000000000000000000000000000000 PUSH1 0x20 DUP3 ADD MSTORE POP JUMP JUMPDEST PUSH32 0x4552433732314D657461646174613A2055524920717565727920666F72206E6F PUSH1 0x0 DUP3 ADD MSTORE PUSH32 0x6E6578697374656E7420746F6B656E0000000000000000000000000000000000 PUSH1 0x20 DUP3 ADD MSTORE POP JUMP JUMPDEST PUSH32 0x4552433732313A20617070726F76616C20746F2063757272656E74206F776E65 PUSH1 0x0 DUP3 ADD MSTORE PUSH32 0x7200000000000000000000000000000000000000000000000000000000000000 PUSH1 0x20 DUP3 ADD MSTORE POP JUMP JUMPDEST PUSH32 0x4552433732313A207472616E736665722063616C6C6572206973206E6F74206F PUSH1 0x0 DUP3 ADD MSTORE PUSH32 0x776E6572206E6F7220617070726F766564000000000000000000000000000000 PUSH1 0x20 DUP3 ADD MSTORE POP JUMP JUMPDEST PUSH32 0x4F6E6C792076616C696420646578206E756D626572732E204D75737420626520 PUSH1 0x0 DUP3 ADD MSTORE PUSH32 0x6265747765656E203120616E6420363439000000000000000000000000000000 PUSH1 0x20 DUP3 ADD MSTORE POP JUMP JUMPDEST PUSH32 0x455243373231456E756D657261626C653A20676C6F62616C20696E646578206F PUSH1 0x0 DUP3 ADD MSTORE PUSH32 0x7574206F6620626F756E64730000000000000000000000000000000000000000 PUSH1 0x20 DUP3 ADD MSTORE POP JUMP JUMPDEST PUSH2 0x5AFD DUP2 PUSH2 0x52F9 JUMP JUMPDEST DUP2 EQ PUSH2 0x5B08 JUMPI PUSH1 0x0 DUP1 REVERT JUMPDEST POP JUMP JUMPDEST PUSH2 0x5B14 DUP2 PUSH2 0x530B JUMP JUMPDEST DUP2 EQ PUSH2 0x5B1F JUMPI PUSH1 0x0 DUP1 REVERT JUMPDEST POP JUMP JUMPDEST PUSH2 0x5B2B DUP2 PUSH2 0x5317 JUMP JUMPDEST DUP2 EQ PUSH2 0x5B36 JUMPI PUSH1 0x0 DUP1 REVERT JUMPDEST POP JUMP JUMPDEST PUSH2 0x5B42 DUP2 PUSH2 0x5321 JUMP JUMPDEST DUP2 EQ PUSH2 0x5B4D JUMPI PUSH1 0x0 DUP1 REVERT JUMPDEST POP JUMP JUMPDEST PUSH2 0x5B59 DUP2 PUSH2 0x536D JUMP JUMPDEST DUP2 EQ PUSH2 0x5B64 JUMPI PUSH1 0x0 DUP1 REVERT JUMPDEST POP JUMP INVALID LOG2 PUSH5 0x6970667358 0x22 SLT KECCAK256 0xBC DUP16 0xEE DUP5 0xD 0xB6 0xBB SAR 0xBB SWAP10 SWAP8 0x23 PUSH7 0xB63C814BFF99EA KECCAK256 JUMP 0xFB ORIGIN 0xFB DUP4 0xEC 0xD1 PUSH29 0x952CA064736F6C63430008070033000000000000000000000000000000 "
    },
    "gasEstimates": {
      "creation": {
        "codeDepositCost": "4690600",
        "executionCost": "infinite",
        "totalCost": "infinite"
      },
      "external": {
        "approve(address,uint256)": "infinite",
        "balanceOf(address)": "2902",
        "fightIDToFighters(uint256)": "infinite",
        "fightIDToWinnerPokemon(uint256)": "infinite",
        "getApproved(uint256)": "5228",
        "get_winner(uint256,uint256,uint256,uint256)": "infinite",
        "isApprovedForAll(address,address)": "infinite",
        "mint(uint256)": "infinite",
        "name()": "infinite",
        "ownerOf(uint256)": "3110",
        "pokemonIDToFightsWon(uint256)": "infinite",
        "pokemons(uint256)": "infinite",
        "safeTransferFrom(address,address,uint256)": "infinite",
        "safeTransferFrom(address,address,uint256,bytes)": "infinite",
        "sendPokemonsToL2(uint256,uint256)": "infinite",
        "sendPokemonsToL2Struct(uint256,uint256)": "infinite",
        "setApprovalForAll(address,bool)": "infinite",
        "supportsInterface(bytes4)": "929",
        "symbol()": "infinite",
        "tokenByIndex(uint256)": "infinite",
        "tokenOfOwnerByIndex(address,uint256)": "infinite",
        "tokenURI(uint256)": "3373",
        "totalSupply()": "2557",
        "transferFrom(address,address,uint256)": "infinite"
      },
      "internal": {
        "_beforeTokenTransfer(address,address,uint256)": "infinite",
        "createFightID()": "24378",
        "createPokemon(uint256,uint256,uint256,uint256,uint256,uint256,uint256,uint256,uint256,uint256,uint256,uint256)": "infinite",
        "createPokemonByNameId(uint256,uint256)": "infinite",
        "createPokemonOther(uint256,uint256,uint256,uint256,uint256)": "infinite",
        "getDamage()": "infinite",
        "getDv()": "infinite",
        "getStrength()": "infinite",
        "getType()": "infinite",
        "random(uint256)": "infinite"
      }
    },
    "methodIdentifiers": {
      "approve(address,uint256)": "095ea7b3",
      "balanceOf(address)": "70a08231",
      "fightIDToFighters(uint256)": "1992f36d",
      "fightIDToWinnerPokemon(uint256)": "d82fe3b7",
      "getApproved(uint256)": "081812fc",
      "get_winner(uint256,uint256,uint256,uint256)": "4c64c94d",
      "isApprovedForAll(address,address)": "e985e9c5",
      "mint(uint256)": "a0712d68",
      "name()": "06fdde03",
      "ownerOf(uint256)": "6352211e",
      "pokemonIDToFightsWon(uint256)": "d5f39a5b",
      "pokemons(uint256)": "85831079",
      "safeTransferFrom(address,address,uint256)": "42842e0e",
      "safeTransferFrom(address,address,uint256,bytes)": "b88d4fde",
      "sendPokemonsToL2(uint256,uint256)": "85b1c79d",
      "sendPokemonsToL2Struct(uint256,uint256)": "f383b07e",
      "setApprovalForAll(address,bool)": "a22cb465",
      "supportsInterface(bytes4)": "01ffc9a7",
      "symbol()": "95d89b41",
      "tokenByIndex(uint256)": "4f6ccce7",
      "tokenOfOwnerByIndex(address,uint256)": "2f745c59",
      "tokenURI(uint256)": "c87b56dd",
      "totalSupply()": "18160ddd",
      "transferFrom(address,address,uint256)": "23b872dd"
    }
  },
  "abi": [
    {
      "inputs": [],
      "stateMutability": "nonpayable",
      "type": "constructor"
    },
    {
      "anonymous": false,
      "inputs": [
        {
          "indexed": true,
          "internalType": "address",
          "name": "owner",
          "type": "address"
        },
        {
          "indexed": true,
          "internalType": "address",
          "name": "approved",
          "type": "address"
        },
        {
          "indexed": true,
          "internalType": "uint256",
          "name": "tokenId",
          "type": "uint256"
        }
      ],
      "name": "Approval",
      "type": "event"
    },
    {
      "anonymous": false,
      "inputs": [
        {
          "indexed": true,
          "internalType": "address",
          "name": "owner",
          "type": "address"
        },
        {
          "indexed": true,
          "internalType": "address",
          "name": "operator",
          "type": "address"
        },
        {
          "indexed": false,
          "internalType": "bool",
          "name": "approved",
          "type": "bool"
        }
      ],
      "name": "ApprovalForAll",
      "type": "event"
    },
    {
      "anonymous": false,
      "inputs": [
        {
          "indexed": true,
          "internalType": "address",
          "name": "from",
          "type": "address"
        },
        {
          "indexed": true,
          "internalType": "address",
          "name": "to",
          "type": "address"
        },
        {
          "indexed": true,
          "internalType": "uint256",
          "name": "tokenId",
          "type": "uint256"
        }
      ],
      "name": "Transfer",
      "type": "event"
    },
    {
      "anonymous": false,
      "inputs": [
        {
          "indexed": false,
          "internalType": "uint256",
          "name": "uuid",
          "type": "uint256"
        },
        {
          "indexed": false,
          "internalType": "uint256",
          "name": "hp",
          "type": "uint256"
        },
        {
          "indexed": false,
          "internalType": "uint256",
          "name": "atk",
          "type": "uint256"
        },
        {
          "indexed": false,
          "internalType": "uint256",
          "name": "init",
          "type": "uint256"
        },
        {
          "indexed": false,
          "internalType": "uint256",
          "name": "def",
          "type": "uint256"
        }
      ],
      "name": "createdRandomPkmn",
      "type": "event"
    },
    {
      "anonymous": false,
      "inputs": [
        {
          "indexed": false,
          "internalType": "uint256",
          "name": "message",
          "type": "uint256"
        }
      ],
      "name": "enteredFunc",
      "type": "event"
    },
    {
      "anonymous": false,
      "inputs": [
        {
          "indexed": false,
          "internalType": "uint256",
          "name": "message",
          "type": "uint256"
        }
      ],
      "name": "gettingWinnerEntered",
      "type": "event"
    },
    {
      "anonymous": false,
      "inputs": [
        {
          "indexed": false,
          "internalType": "uint256",
          "name": "l2contract",
          "type": "uint256"
        },
        {
          "indexed": false,
          "internalType": "uint256",
          "name": "_winnerPok",
          "type": "uint256"
        },
        {
          "indexed": false,
          "internalType": "uint256",
          "name": "_fightID",
          "type": "uint256"
        }
      ],
      "name": "gettingWinnerFinished",
      "type": "event"
    },
    {
      "anonymous": false,
      "inputs": [
        {
          "indexed": true,
          "internalType": "address",
          "name": "_from",
          "type": "address"
        },
        {
          "indexed": false,
          "internalType": "uint256",
          "name": "_pok1",
          "type": "uint256"
        },
        {
          "indexed": false,
          "internalType": "uint256",
          "name": "_pok2",
          "type": "uint256"
        },
        {
          "indexed": false,
          "internalType": "uint256",
          "name": "l2Contract",
          "type": "uint256"
        },
        {
          "indexed": false,
          "internalType": "uint256",
          "name": "_value",
          "type": "uint256"
        }
      ],
      "name": "startFight",
      "type": "event"
    },
    {
      "anonymous": false,
      "inputs": [
        {
          "indexed": false,
          "internalType": "uint256",
          "name": "message",
          "type": "uint256"
        }
      ],
      "name": "startFightMessage",
      "type": "event"
    },
    {
      "anonymous": false,
      "inputs": [
        {
          "indexed": false,
          "internalType": "uint256",
          "name": "winnerPokID",
          "type": "uint256"
        },
        {
          "indexed": false,
          "internalType": "uint256",
          "name": "roundsWon",
          "type": "uint256"
        }
      ],
      "name": "winnerCount",
      "type": "event"
    },
    {
      "inputs": [
        {
          "internalType": "address",
          "name": "to",
          "type": "address"
        },
        {
          "internalType": "uint256",
          "name": "tokenId",
          "type": "uint256"
        }
      ],
      "name": "approve",
      "outputs": [],
      "stateMutability": "nonpayable",
      "type": "function"
    },
    {
      "inputs": [
        {
          "internalType": "address",
          "name": "owner",
          "type": "address"
        }
      ],
      "name": "balanceOf",
      "outputs": [
        {
          "internalType": "uint256",
          "name": "",
          "type": "uint256"
        }
      ],
      "stateMutability": "view",
      "type": "function"
    },
    {
      "inputs": [
        {
          "internalType": "uint256",
          "name": "",
          "type": "uint256"
        }
      ],
      "name": "fightIDToFighters",
      "outputs": [
        {
          "components": [
            {
              "internalType": "uint256",
              "name": "id",
              "type": "uint256"
            },
            {
              "internalType": "uint256",
              "name": "hp",
              "type": "uint256"
            },
            {
              "internalType": "uint256",
              "name": "atk",
              "type": "uint256"
            },
            {
              "internalType": "uint256",
              "name": "init",
              "type": "uint256"
            },
            {
              "internalType": "uint256",
              "name": "def",
              "type": "uint256"
            },
            {
              "internalType": "uint256",
              "name": "type1",
              "type": "uint256"
            },
            {
              "internalType": "uint256",
              "name": "type2",
              "type": "uint256"
            },
            {
              "internalType": "uint256",
              "name": "atk1_type",
              "type": "uint256"
            },
            {
              "internalType": "uint256",
              "name": "atk1_damage",
              "type": "uint256"
            },
            {
              "internalType": "uint256",
              "name": "atk2_type",
              "type": "uint256"
            },
            {
              "internalType": "uint256",
              "name": "atk2_damage",
              "type": "uint256"
            },
            {
              "internalType": "uint256",
              "name": "name_id",
              "type": "uint256"
            }
          ],
          "internalType": "struct NFT.Pokemon",
          "name": "pok1",
          "type": "tuple"
        },
        {
          "components": [
            {
              "internalType": "uint256",
              "name": "id",
              "type": "uint256"
            },
            {
              "internalType": "uint256",
              "name": "hp",
              "type": "uint256"
            },
            {
              "internalType": "uint256",
              "name": "atk",
              "type": "uint256"
            },
            {
              "internalType": "uint256",
              "name": "init",
              "type": "uint256"
            },
            {
              "internalType": "uint256",
              "name": "def",
              "type": "uint256"
            },
            {
              "internalType": "uint256",
              "name": "type1",
              "type": "uint256"
            },
            {
              "internalType": "uint256",
              "name": "type2",
              "type": "uint256"
            },
            {
              "internalType": "uint256",
              "name": "atk1_type",
              "type": "uint256"
            },
            {
              "internalType": "uint256",
              "name": "atk1_damage",
              "type": "uint256"
            },
            {
              "internalType": "uint256",
              "name": "atk2_type",
              "type": "uint256"
            },
            {
              "internalType": "uint256",
              "name": "atk2_damage",
              "type": "uint256"
            },
            {
              "internalType": "uint256",
              "name": "name_id",
              "type": "uint256"
            }
          ],
          "internalType": "struct NFT.Pokemon",
          "name": "pok2",
          "type": "tuple"
        }
      ],
      "stateMutability": "view",
      "type": "function"
    },
    {
      "inputs": [
        {
          "internalType": "uint256",
          "name": "",
          "type": "uint256"
        }
      ],
      "name": "fightIDToWinnerPokemon",
      "outputs": [
        {
          "internalType": "uint256",
          "name": "id",
          "type": "uint256"
        },
        {
          "internalType": "uint256",
          "name": "hp",
          "type": "uint256"
        },
        {
          "internalType": "uint256",
          "name": "atk",
          "type": "uint256"
        },
        {
          "internalType": "uint256",
          "name": "init",
          "type": "uint256"
        },
        {
          "internalType": "uint256",
          "name": "def",
          "type": "uint256"
        },
        {
          "internalType": "uint256",
          "name": "type1",
          "type": "uint256"
        },
        {
          "internalType": "uint256",
          "name": "type2",
          "type": "uint256"
        },
        {
          "internalType": "uint256",
          "name": "atk1_type",
          "type": "uint256"
        },
        {
          "internalType": "uint256",
          "name": "atk1_damage",
          "type": "uint256"
        },
        {
          "internalType": "uint256",
          "name": "atk2_type",
          "type": "uint256"
        },
        {
          "internalType": "uint256",
          "name": "atk2_damage",
          "type": "uint256"
        },
        {
          "internalType": "uint256",
          "name": "name_id",
          "type": "uint256"
        }
      ],
      "stateMutability": "view",
      "type": "function"
    },
    {
      "inputs": [
        {
          "internalType": "uint256",
          "name": "tokenId",
          "type": "uint256"
        }
      ],
      "name": "getApproved",
      "outputs": [
        {
          "internalType": "address",
          "name": "",
          "type": "address"
        }
      ],
      "stateMutability": "view",
      "type": "function"
    },
    {
      "inputs": [
        {
          "internalType": "uint256",
          "name": "pokemonWinnerID",
          "type": "uint256"
        },
        {
          "internalType": "uint256",
          "name": "fightID",
          "type": "uint256"
        },
        {
          "internalType": "uint256",
          "name": "effFast",
          "type": "uint256"
        },
        {
          "internalType": "uint256",
          "name": "effSlow",
          "type": "uint256"
        }
      ],
      "name": "get_winner",
      "outputs": [],
      "stateMutability": "nonpayable",
      "type": "function"
    },
    {
      "inputs": [
        {
          "internalType": "address",
          "name": "owner",
          "type": "address"
        },
        {
          "internalType": "address",
          "name": "operator",
          "type": "address"
        }
      ],
      "name": "isApprovedForAll",
      "outputs": [
        {
          "internalType": "bool",
          "name": "",
          "type": "bool"
        }
      ],
      "stateMutability": "view",
      "type": "function"
    },
    {
      "inputs": [
        {
          "internalType": "uint256",
          "name": "_name_id",
          "type": "uint256"
        }
      ],
      "name": "mint",
      "outputs": [],
      "stateMutability": "nonpayable",
      "type": "function"
    },
    {
      "inputs": [],
      "name": "name",
      "outputs": [
        {
          "internalType": "string",
          "name": "",
          "type": "string"
        }
      ],
      "stateMutability": "view",
      "type": "function"
    },
    {
      "inputs": [
        {
          "internalType": "uint256",
          "name": "tokenId",
          "type": "uint256"
        }
      ],
      "name": "ownerOf",
      "outputs": [
        {
          "internalType": "address",
          "name": "",
          "type": "address"
        }
      ],
      "stateMutability": "view",
      "type": "function"
    },
    {
      "inputs": [
        {
          "internalType": "uint256",
          "name": "",
          "type": "uint256"
        }
      ],
      "name": "pokemonIDToFightsWon",
      "outputs": [
        {
          "internalType": "uint256",
          "name": "",
          "type": "uint256"
        }
      ],
      "stateMutability": "view",
      "type": "function"
    },
    {
      "inputs": [
        {
          "internalType": "uint256",
          "name": "",
          "type": "uint256"
        }
      ],
      "name": "pokemons",
      "outputs": [
        {
          "internalType": "uint256",
          "name": "id",
          "type": "uint256"
        },
        {
          "internalType": "uint256",
          "name": "hp",
          "type": "uint256"
        },
        {
          "internalType": "uint256",
          "name": "atk",
          "type": "uint256"
        },
        {
          "internalType": "uint256",
          "name": "init",
          "type": "uint256"
        },
        {
          "internalType": "uint256",
          "name": "def",
          "type": "uint256"
        },
        {
          "internalType": "uint256",
          "name": "type1",
          "type": "uint256"
        },
        {
          "internalType": "uint256",
          "name": "type2",
          "type": "uint256"
        },
        {
          "internalType": "uint256",
          "name": "atk1_type",
          "type": "uint256"
        },
        {
          "internalType": "uint256",
          "name": "atk1_damage",
          "type": "uint256"
        },
        {
          "internalType": "uint256",
          "name": "atk2_type",
          "type": "uint256"
        },
        {
          "internalType": "uint256",
          "name": "atk2_damage",
          "type": "uint256"
        },
        {
          "internalType": "uint256",
          "name": "name_id",
          "type": "uint256"
        }
      ],
      "stateMutability": "view",
      "type": "function"
    },
    {
      "inputs": [
        {
          "internalType": "address",
          "name": "from",
          "type": "address"
        },
        {
          "internalType": "address",
          "name": "to",
          "type": "address"
        },
        {
          "internalType": "uint256",
          "name": "tokenId",
          "type": "uint256"
        }
      ],
      "name": "safeTransferFrom",
      "outputs": [],
      "stateMutability": "nonpayable",
      "type": "function"
    },
    {
      "inputs": [
        {
          "internalType": "address",
          "name": "from",
          "type": "address"
        },
        {
          "internalType": "address",
          "name": "to",
          "type": "address"
        },
        {
          "internalType": "uint256",
          "name": "tokenId",
          "type": "uint256"
        },
        {
          "internalType": "bytes",
          "name": "_data",
          "type": "bytes"
        }
      ],
      "name": "safeTransferFrom",
      "outputs": [],
      "stateMutability": "nonpayable",
      "type": "function"
    },
    {
      "inputs": [
        {
          "internalType": "uint256",
          "name": "myPok",
          "type": "uint256"
        },
        {
          "internalType": "uint256",
          "name": "enemyPok",
          "type": "uint256"
        }
      ],
      "name": "sendPokemonsToL2",
      "outputs": [],
      "stateMutability": "payable",
      "type": "function"
    },
    {
      "inputs": [
        {
          "internalType": "uint256",
          "name": "myPok",
          "type": "uint256"
        },
        {
          "internalType": "uint256",
          "name": "enemyPok",
          "type": "uint256"
        }
      ],
      "name": "sendPokemonsToL2Struct",
      "outputs": [],
      "stateMutability": "payable",
      "type": "function"
    },
    {
      "inputs": [
        {
          "internalType": "address",
          "name": "operator",
          "type": "address"
        },
        {
          "internalType": "bool",
          "name": "approved",
          "type": "bool"
        }
      ],
      "name": "setApprovalForAll",
      "outputs": [],
      "stateMutability": "nonpayable",
      "type": "function"
    },
    {
      "inputs": [
        {
          "internalType": "bytes4",
          "name": "interfaceId",
          "type": "bytes4"
        }
      ],
      "name": "supportsInterface",
      "outputs": [
        {
          "internalType": "bool",
          "name": "",
          "type": "bool"
        }
      ],
      "stateMutability": "view",
      "type": "function"
    },
    {
      "inputs": [],
      "name": "symbol",
      "outputs": [
        {
          "internalType": "string",
          "name": "",
          "type": "string"
        }
      ],
      "stateMutability": "view",
      "type": "function"
    },
    {
      "inputs": [
        {
          "internalType": "uint256",
          "name": "index",
          "type": "uint256"
        }
      ],
      "name": "tokenByIndex",
      "outputs": [
        {
          "internalType": "uint256",
          "name": "",
          "type": "uint256"
        }
      ],
      "stateMutability": "view",
      "type": "function"
    },
    {
      "inputs": [
        {
          "internalType": "address",
          "name": "owner",
          "type": "address"
        },
        {
          "internalType": "uint256",
          "name": "index",
          "type": "uint256"
        }
      ],
      "name": "tokenOfOwnerByIndex",
      "outputs": [
        {
          "internalType": "uint256",
          "name": "",
          "type": "uint256"
        }
      ],
      "stateMutability": "view",
      "type": "function"
    },
    {
      "inputs": [
        {
          "internalType": "uint256",
          "name": "tokenId",
          "type": "uint256"
        }
      ],
      "name": "tokenURI",
      "outputs": [
        {
          "internalType": "string",
          "name": "",
          "type": "string"
        }
      ],
      "stateMutability": "view",
      "type": "function"
    },
    {
      "inputs": [],
      "name": "totalSupply",
      "outputs": [
        {
          "internalType": "uint256",
          "name": "",
          "type": "uint256"
        }
      ],
      "stateMutability": "view",
      "type": "function"
    },
    {
      "inputs": [
        {
          "internalType": "address",
          "name": "from",
          "type": "address"
        },
        {
          "internalType": "address",
          "name": "to",
          "type": "address"
        },
        {
          "internalType": "uint256",
          "name": "tokenId",
          "type": "uint256"
        }
      ],
      "name": "transferFrom",
      "outputs": [],
      "stateMutability": "nonpayable",
      "type": "function"
    }
  ]
}