{
	"data": {
		"bytecode": {
			"linkReferences": {},
			"object": "60806040526000600b557f031c59f9319f22b2dc9271b18bfe67ec3d5464ff8327705891a931875f89b148600c556000600d553480156200003f57600080fd5b506040518060400160405280600381526020017f4e465400000000000000000000000000000000000000000000000000000000008152506040518060400160405280600281526020017f43430000000000000000000000000000000000000000000000000000000000008152508160009080519060200190620000c49291906200013b565b508060019080519060200190620000dd9291906200013b565b50505073de29d060d45901fb19ed6c6e959eb22d8626708e600a60006101000a81548173ffffffffffffffffffffffffffffffffffffffff021916908373ffffffffffffffffffffffffffffffffffffffff16021790555062000250565b8280546200014990620001eb565b90600052602060002090601f0160209004810192826200016d5760008555620001b9565b82601f106200018857805160ff1916838001178555620001b9565b82800160010185558215620001b9579182015b82811115620001b85782518255916020019190600101906200019b565b5b509050620001c89190620001cc565b5090565b5b80821115620001e7576000816000905550600101620001cd565b5090565b600060028204905060018216806200020457607f821691505b602082108114156200021b576200021a62000221565b5b50919050565b7f4e487b7100000000000000000000000000000000000000000000000000000000600052602260045260246000fd5b614db680620002606000396000f3fe6080604052600436106101355760003560e01c8063727061ca116100ab578063a0712d681161006f578063a0712d681461045a578063a22cb46514610483578063b88d4fde146104ac578063c87b56dd146104d5578063d82fe3b714610512578063e985e9c51461055a57610135565b8063727061ca1461037957806372e84e3c146103a257806385831079146103cb57806385b1c79d1461041357806395d89b411461042f57610135565b806323b872dd116100fd57806323b872dd146102335780632f745c591461025c57806342842e0e146102995780634f6ccce7146102c25780636352211e146102ff57806370a082311461033c57610135565b806301ffc9a71461013a57806306fdde0314610177578063081812fc146101a2578063095ea7b3146101df57806318160ddd14610208575b600080fd5b34801561014657600080fd5b50610161600480360381019061015c9190613976565b610597565b60405161016e9190613eec565b60405180910390f35b34801561018357600080fd5b5061018c6105a9565b6040516101999190613f8e565b60405180910390f35b3480156101ae57600080fd5b506101c960048036038101906101c491906139d0565b61063b565b6040516101d69190613e85565b60405180910390f35b3480156101eb57600080fd5b5061020660048036038101906102019190613909565b6106c0565b005b34801561021457600080fd5b5061021d6107d8565b60405161022a91906141b0565b60405180910390f35b34801561023f57600080fd5b5061025a600480360381019061025591906137f3565b6107e5565b005b34801561026857600080fd5b50610283600480360381019061027e9190613909565b610845565b60405161029091906141b0565b60405180910390f35b3480156102a557600080fd5b506102c060048036038101906102bb91906137f3565b6108ea565b005b3480156102ce57600080fd5b506102e960048036038101906102e491906139d0565b61090a565b6040516102f691906141b0565b60405180910390f35b34801561030b57600080fd5b50610326600480360381019061032191906139d0565b61097b565b6040516103339190613e85565b60405180910390f35b34801561034857600080fd5b50610363600480360381019061035e9190613786565b610a2d565b60405161037091906141b0565b60405180910390f35b34801561038557600080fd5b506103a0600480360381019061039b91906139d0565b610ae5565b005b3480156103ae57600080fd5b506103c960048036038101906103c491906139fd565b610c7a565b005b3480156103d757600080fd5b506103f260048036038101906103ed91906139d0565b610ee7565b60405161040a9c9b9a99989796959493929190614308565b60405180910390f35b61042d600480360381019061042891906139fd565b610f57565b005b34801561043b57600080fd5b50610444611689565b6040516104519190613f8e565b60405180910390f35b34801561046657600080fd5b50610481600480360381019061047c91906139d0565b61171b565b005b34801561048f57600080fd5b506104aa60048036038101906104a591906138c9565b61183b565b005b3480156104b857600080fd5b506104d360048036038101906104ce9190613846565b611851565b005b3480156104e157600080fd5b506104fc60048036038101906104f791906139d0565b6118b3565b6040516105099190613f8e565b60405180910390f35b34801561051e57600080fd5b50610539600480360381019061053491906139d0565b61195a565b6040516105519c9b9a99989796959493929190614308565b60405180910390f35b34801561056657600080fd5b50610581600480360381019061057c91906137b3565b6119ba565b60405161058e9190613eec565b60405180910390f35b60006105a282611a4e565b9050919050565b6060600080546105b890614669565b80601f01602080910402602001604051908101604052809291908181526020018280546105e490614669565b80156106315780601f1061060657610100808354040283529160200191610631565b820191906000526020600020905b81548152906001019060200180831161061457829003601f168201915b5050505050905090565b600061064682611ac8565b610685576040517f08c379a000000000000000000000000000000000000000000000000000000000815260040161067c90614110565b60405180910390fd5b6004600083815260200190815260200160002060009054906101000a900473ffffffffffffffffffffffffffffffffffffffff169050919050565b60006106cb8261097b565b90508073ffffffffffffffffffffffffffffffffffffffff168373ffffffffffffffffffffffffffffffffffffffff16141561073c576040517f08c379a000000000000000000000000000000000000000000000000000000000815260040161073390614150565b60405180910390fd5b8073ffffffffffffffffffffffffffffffffffffffff1661075b611b34565b73ffffffffffffffffffffffffffffffffffffffff16148061078a575061078981610784611b34565b6119ba565b5b6107c9576040517f08c379a00000000000000000000000000000000000000000000000000000000081526004016107c090614090565b60405180910390fd5b6107d38383611b3c565b505050565b6000600880549050905090565b6107f66107f0611b34565b82611bf5565b610835576040517f08c379a000000000000000000000000000000000000000000000000000000000815260040161082c90614170565b60405180910390fd5b610840838383611cd3565b505050565b600061085083610a2d565b8210610891576040517f08c379a000000000000000000000000000000000000000000000000000000000815260040161088890613fb0565b60405180910390fd5b600660008473ffffffffffffffffffffffffffffffffffffffff1673ffffffffffffffffffffffffffffffffffffffff168152602001908152602001600020600083815260200190815260200160002054905092915050565b61090583838360405180602001604052806000815250611851565b505050565b60006109146107d8565b8210610955576040517f08c379a000000000000000000000000000000000000000000000000000000000815260040161094c90614190565b60405180910390fd5b600882815481106109695761096861480c565b5b90600052602060002001549050919050565b6000806002600084815260200190815260200160002060009054906101000a900473ffffffffffffffffffffffffffffffffffffffff169050600073ffffffffffffffffffffffffffffffffffffffff168173ffffffffffffffffffffffffffffffffffffffff161415610a24576040517f08c379a0000000000000000000000000000000000000000000000000000000008152600401610a1b906140d0565b60405180910390fd5b80915050919050565b60008073ffffffffffffffffffffffffffffffffffffffff168273ffffffffffffffffffffffffffffffffffffffff161415610a9e576040517f08c379a0000000000000000000000000000000000000000000000000000000008152600401610a95906140b0565b60405180910390fd5b600360008373ffffffffffffffffffffffffffffffffffffffff1673ffffffffffffffffffffffffffffffffffffffff168152602001908152602001600020549050919050565b7f877bc3e3dbf475ead0821fea1e1be8e57a0c7200fe646d2d6ee72fdc77374440610309604051610b169190613f73565b60405180910390a16000600167ffffffffffffffff811115610b3b57610b3a61483b565b5b604051908082528060200260200182016040528015610b695781602001602082028036833780820191505090505b5090508181600081518110610b8157610b8061480c565b5b602002602001018181525050600a60009054906101000a900473ffffffffffffffffffffffffffffffffffffffff1673ffffffffffffffffffffffffffffffffffffffff16632c9dd5c0600c54836040518363ffffffff1660e01b8152600401610bec9291906141cb565b602060405180830381600087803b158015610c0657600080fd5b505af1158015610c1a573d6000803e3d6000fd5b505050506040513d601f19601f82011682018060405250810190610c3e9190613949565b507f877bc3e3dbf475ead0821fea1e1be8e57a0c7200fe646d2d6ee72fdc7737444082604051610c6e91906141b0565b60405180910390a15050565b7f0ed9918e573b159b62731bc88263b9ce84e79c6335fbba2b28f981840126e16f612b67604051610cab9190613f07565b60405180910390a16000600267ffffffffffffffff811115610cd057610ccf61483b565b5b604051908082528060200260200182016040528015610cfe5781602001602082028036833780820191505090505b5090508281600081518110610d1657610d1561480c565b5b6020026020010181815250508181600181518110610d3757610d3661480c565b5b602002602001018181525050600a60009054906101000a900473ffffffffffffffffffffffffffffffffffffffff1673ffffffffffffffffffffffffffffffffffffffff16632c9dd5c0600c54836040518363ffffffff1660e01b8152600401610da29291906141cb565b602060405180830381600087803b158015610dbc57600080fd5b505af1158015610dd0573d6000803e3d6000fd5b505050506040513d601f19601f82011682018060405250810190610df49190613949565b50600e8381548110610e0957610e0861480c565b5b90600052602060002090600c0201600f600084815260200190815260200160002060008201548160000155600182015481600101556002820154816002015560038201548160030155600482015481600401556005820154816005015560068201548160060155600782015481600701556008820154816008015560098201548160090155600a82015481600a0155600b82015481600b01559050507fb8d7090364da4a6371334296aaf588e8d119f8490ac61ce968a539406164f5fb600c548484604051610eda93929190614239565b60405180910390a1505050565b600e8181548110610ef757600080fd5b90600052602060002090600c020160009150905080600001549080600101549080600201549080600301549080600401549080600501549080600601549080600701549080600801549080600901549080600a01549080600b015490508c565b7f3593df2963c20760afeec7bc9ae99f0ad8227ec08877590930b113d33df9c0676001604051610f879190613f22565b60405180910390a16000600e8381548110610fa557610fa461480c565b5b90600052602060002090600c02016040518061018001604052908160008201548152602001600182015481526020016002820154815260200160038201548152602001600482015481526020016005820154815260200160068201548152602001600782015481526020016008820154815260200160098201548152602001600a8201548152602001600b8201548152505090506000600e838154811061104f5761104e61480c565b5b90600052602060002090600c02016040518061018001604052908160008201548152602001600182015481526020016002820154815260200160038201548152602001600482015481526020016005820154815260200160068201548152602001600782015481526020016008820154815260200160098201548152602001600a8201548152602001600b82015481525050905060006110ed611f3a565b90507f3593df2963c20760afeec7bc9ae99f0ad8227ec08877590930b113d33df9c067600260405161111f9190613f3d565b60405180910390a16000601967ffffffffffffffff8111156111445761114361483b565b5b6040519080825280602002602001820160405280156111725781602001602082028036833780820191505090505b50905083600001518160008151811061118e5761118d61480c565b5b6020026020010181815250508360200151816001815181106111b3576111b261480c565b5b6020026020010181815250508360400151816002815181106111d8576111d761480c565b5b6020026020010181815250508360600151816003815181106111fd576111fc61480c565b5b6020026020010181815250508360800151816004815181106112225761122161480c565b5b6020026020010181815250508360a00151816005815181106112475761124661480c565b5b6020026020010181815250508360c001518160068151811061126c5761126b61480c565b5b6020026020010181815250508360e00151816007815181106112915761129061480c565b5b602002602001018181525050836101000151816008815181106112b7576112b661480c565b5b602002602001018181525050836101200151816009815181106112dd576112dc61480c565b5b60200260200101818152505083610140015181600a815181106113035761130261480c565b5b60200260200101818152505083610160015181600b815181106113295761132861480c565b5b602002602001018181525050826000015181600c8151811061134e5761134d61480c565b5b602002602001018181525050826020015181600d815181106113735761137261480c565b5b602002602001018181525050826040015181600e815181106113985761139761480c565b5b602002602001018181525050826060015181600f815181106113bd576113bc61480c565b5b6020026020010181815250508260800151816010815181106113e2576113e161480c565b5b6020026020010181815250508260a00151816011815181106114075761140661480c565b5b6020026020010181815250508260c001518160128151811061142c5761142b61480c565b5b6020026020010181815250508260e00151816013815181106114515761145061480c565b5b602002602001018181525050826101000151816014815181106114775761147661480c565b5b6020026020010181815250508261012001518160158151811061149d5761149c61480c565b5b602002602001018181525050826101400151816016815181106114c3576114c261480c565b5b602002602001018181525050826101600151816017815181106114e9576114e861480c565b5b602002602001018181525050818160188151811061150a5761150961480c565b5b6020026020010181815250507f3593df2963c20760afeec7bc9ae99f0ad8227ec08877590930b113d33df9c06760036040516115469190613f58565b60405180910390a1600a60009054906101000a900473ffffffffffffffffffffffffffffffffffffffff1673ffffffffffffffffffffffffffffffffffffffff16633e3aa6c534600c547f0397f7783310f752c90187fffbd53489b1ff1f87fcf4636e32dc6bcbbf0b224f856040518563ffffffff1660e01b81526004016115d0939291906141fb565b6020604051808303818588803b1580156115e957600080fd5b505af11580156115fd573d6000803e3d6000fd5b50505050506040513d601f19601f820116820180604052508101906116229190613949565b503373ffffffffffffffffffffffffffffffffffffffff167fd02fce1acafa0b604f24aaad2d7c0a36c749f4b333abc05fc83ba197d5e0705c85600001518560000151600c54346040516116799493929190614270565b60405180910390a2505050505050565b60606001805461169890614669565b80601f01602080910402602001604051908101604052809291908181526020018280546116c490614669565b80156117115780601f106116e657610100808354040283529160200191611711565b820191906000526020600020905b8154815290600101906020018083116116f457829003601f168201915b5050505050905090565b6000600e80549050905060006117318383611f58565b9050600e8190806001815401808255809150506001900390600052602060002090600c0201600090919091909150600082015181600001556020820151816001015560408201518160020155606082015181600301556080820151816004015560a0820151816005015560c0820151816006015560e082015181600701556101008201518160080155610120820151816009015561014082015181600a015561016082015181600b015550507f4e55bd6db2c9ffa320eac64df3b7d1a3ba28ee53ce174854fc3a1918243aa01c8282602001518360400151846060015185608001516040516118249594939291906142b5565b60405180910390a161183633836126e9565b505050565b61184d611846611b34565b8383612707565b5050565b61186261185c611b34565b83611bf5565b6118a1576040517f08c379a000000000000000000000000000000000000000000000000000000000815260040161189890614170565b60405180910390fd5b6118ad84848484612874565b50505050565b60606118be82611ac8565b6118fd576040517f08c379a00000000000000000000000000000000000000000000000000000000081526004016118f490614130565b60405180910390fd5b60006119076128d0565b905060008151116119275760405180602001604052806000815250611952565b80611931846128e7565b604051602001611942929190613e24565b6040516020818303038152906040525b915050919050565b600f60205280600052604060002060009150905080600001549080600101549080600201549080600301549080600401549080600501549080600601549080600701549080600801549080600901549080600a01549080600b015490508c565b6000600560008473ffffffffffffffffffffffffffffffffffffffff1673ffffffffffffffffffffffffffffffffffffffff16815260200190815260200160002060008373ffffffffffffffffffffffffffffffffffffffff1673ffffffffffffffffffffffffffffffffffffffff16815260200190815260200160002060009054906101000a900460ff16905092915050565b60007f780e9d63000000000000000000000000000000000000000000000000000000007bffffffffffffffffffffffffffffffffffffffffffffffffffffffff1916827bffffffffffffffffffffffffffffffffffffffffffffffffffffffff19161480611ac15750611ac082612a48565b5b9050919050565b60008073ffffffffffffffffffffffffffffffffffffffff166002600084815260200190815260200160002060009054906101000a900473ffffffffffffffffffffffffffffffffffffffff1673ffffffffffffffffffffffffffffffffffffffff1614159050919050565b600033905090565b816004600083815260200190815260200160002060006101000a81548173ffffffffffffffffffffffffffffffffffffffff021916908373ffffffffffffffffffffffffffffffffffffffff160217905550808273ffffffffffffffffffffffffffffffffffffffff16611baf8361097b565b73ffffffffffffffffffffffffffffffffffffffff167f8c5be1e5ebec7d5bd14f71427d1e84f3dd0314c0f7b2291e5b200ac8c7c3b92560405160405180910390a45050565b6000611c0082611ac8565b611c3f576040517f08c379a0000000000000000000000000000000000000000000000000000000008152600401611c3690614070565b60405180910390fd5b6000611c4a8361097b565b90508073ffffffffffffffffffffffffffffffffffffffff168473ffffffffffffffffffffffffffffffffffffffff161480611c8c5750611c8b81856119ba565b5b80611cca57508373ffffffffffffffffffffffffffffffffffffffff16611cb28461063b565b73ffffffffffffffffffffffffffffffffffffffff16145b91505092915050565b8273ffffffffffffffffffffffffffffffffffffffff16611cf38261097b565b73ffffffffffffffffffffffffffffffffffffffff1614611d49576040517f08c379a0000000000000000000000000000000000000000000000000000000008152600401611d4090613ff0565b60405180910390fd5b600073ffffffffffffffffffffffffffffffffffffffff168273ffffffffffffffffffffffffffffffffffffffff161415611db9576040517f08c379a0000000000000000000000000000000000000000000000000000000008152600401611db090614030565b60405180910390fd5b611dc4838383612b2a565b611dcf600082611b3c565b6001600360008573ffffffffffffffffffffffffffffffffffffffff1673ffffffffffffffffffffffffffffffffffffffff1681526020019081526020016000206000828254611e1f919061451b565b925050819055506001600360008473ffffffffffffffffffffffffffffffffffffffff1673ffffffffffffffffffffffffffffffffffffffff1681526020019081526020016000206000828254611e769190614494565b92505081905550816002600083815260200190815260200160002060006101000a81548173ffffffffffffffffffffffffffffffffffffffff021916908373ffffffffffffffffffffffffffffffffffffffff160217905550808273ffffffffffffffffffffffffffffffffffffffff168473ffffffffffffffffffffffffffffffffffffffff167fddf252ad1be2c89b69c2b068fc378daa952ba7f163c4a11628f55a4df523b3ef60405160405180910390a4611f35838383612b3a565b505050565b6000600d6000815480929190611f4f906146cc565b91905055905090565b611f60613637565b6001831415611f9a57611f93826098606f606a606f600360636003601e611f85612b3f565b611f8d612b50565b8e612b6d565b90506126e3565b6002831415611fd457611fcd8260a7607d607b607e6003600760036028611fbf612b3f565b611fc7612b50565b8e612b6d565b90506126e3565b600383141561200e576120078260bb60a7609160c06003600760036032611ff9612b3f565b612001612b50565b8e612b6d565b90506126e3565b6004831415612048576120418260926072608060686001606360016028612033612b3f565b61203b612b50565b8e612b6d565b90506126e3565b60058314156120825761207b8260a5607f60916079600160636001602861206d612b3f565b612075612b50565b8e612b6d565b90506126e3565b60068314156120bc576120b58260b960c860a760b360016009600160326120a7612b3f565b6120af612b50565b8e612b6d565b90506126e3565b60078314156120f6576120ef826097606e60686080600260636002601e6120e1612b3f565b6120e9612b50565b8e612b6d565b90506126e3565b6008831415612130576121298260a6607e60796091600260636002602861211b612b3f565b612123612b50565b8e612b6d565b90506126e3565b600983141561216a576121638260ba6094608f60a76002606360026032612155612b3f565b61215d612b50565b8e612b6d565b90506126e3565b600a83141561218a5761218382600b6063866001612c21565b90506126e3565b600b8314156121aa576121a382600b6063866002612c21565b90506126e3565b600c8314156121ca576121c382600b6009866003612c21565b90506126e3565b600d8314156121ea576121e382600b6007866001612c21565b90506126e3565b600e83141561220a5761220382600b6007866002612c21565b90506126e3565b600f83141561222a5761222382600b6007866003612c21565b90506126e3565b601083141561224a576122438260006009866001612c21565b90506126e3565b601183141561226a576122638260006009866002612c21565b90506126e3565b601283141561228a576122838260006009866003612c21565b90506126e3565b60138314156122aa576122a38260006063866001612c21565b90506126e3565b60148314156122ca576122c38260006063866002612c21565b90506126e3565b60158314156122ea576122e38260006009866001612c21565b90506126e3565b601683141561230a576123038260006009866002612c21565b90506126e3565b601783141561232a576123238260076063866001612c21565b90506126e3565b601883141561234a576123438260076063866002612c21565b90506126e3565b601983141561236a576123638260046063866002612c21565b90506126e3565b601a83141561238a576123838260046063866003612c21565b90506126e3565b601b8314156123aa576123a38260086063866001612c21565b90506126e3565b601c8314156123ca576123c38260086063866002612c21565b90506126e3565b601d8314156123ea576123e38260076063866001612c21565b90506126e3565b601e83141561240a576124038260076063866001612c21565b90506126e3565b601f83141561242a576124238260076008866003612c21565b90506126e3565b602083141561244a576124438260076063866001612c21565b90506126e3565b602183141561246a576124638260076063866002612c21565b90506126e3565b602283141561248a576124838260076008866003612c21565b90506126e3565b60238314156124aa576124a38260116063866001612c21565b90506126e3565b60248314156124ca576124c38260116063866002612c21565b90506126e3565b60258314156124ea576124e38260016063866002612c21565b90506126e3565b602683141561250a576125038260016063866003612c21565b90506126e3565b602783141561252a576125238260006011866001612c21565b90506126e3565b602883141561254a576125438260006011866002612c21565b90506126e3565b602983141561256a576125638260076009866001612c21565b90506126e3565b602a83141561258a576125838260076009866002612c21565b90506126e3565b602b8314156125aa576125a38260036007866001612c21565b90506126e3565b602c8314156125ca576125c38260036007866002612c21565b90506126e3565b602d8314156125ea576125e38260036007866003612c21565b90506126e3565b602e83141561260a5761260382600b6003866001612c21565b90506126e3565b602f83141561262a5761262382600b6003866002612c21565b90506126e3565b603083141561264a5761264382600b6007866001612c21565b90506126e3565b603183141561266a5761266382600b6007866003612c21565b90506126e3565b603283141561268a576126838260086063866002612c21565b90506126e3565b60338314156126aa576126a38260086063866003612c21565b90506126e3565b60348314156126ca576126c38260006063866002612c21565b90506126e3565b6126e08260006063866126db612d35565b612c21565b90505b92915050565b612703828260405180602001604052806000815250612d52565b5050565b8173ffffffffffffffffffffffffffffffffffffffff168373ffffffffffffffffffffffffffffffffffffffff161415612776576040517f08c379a000000000000000000000000000000000000000000000000000000000815260040161276d90614050565b60405180910390fd5b80600560008573ffffffffffffffffffffffffffffffffffffffff1673ffffffffffffffffffffffffffffffffffffffff16815260200190815260200160002060008473ffffffffffffffffffffffffffffffffffffffff1673ffffffffffffffffffffffffffffffffffffffff16815260200190815260200160002060006101000a81548160ff0219169083151502179055508173ffffffffffffffffffffffffffffffffffffffff168373ffffffffffffffffffffffffffffffffffffffff167f17307eab39ab6107e8899845ad3d59bd9653f200f220920489ca2b5937696c31836040516128679190613eec565b60405180910390a3505050565b61287f848484611cd3565b61288b84848484612dad565b6128ca576040517f08c379a00000000000000000000000000000000000000000000000000000000081526004016128c190613fd0565b60405180910390fd5b50505050565b606060405180602001604052806000815250905090565b6060600082141561292f576040518060400160405280600181526020017f30000000000000000000000000000000000000000000000000000000000000008152509050612a43565b600082905060005b6000821461296157808061294a906146cc565b915050600a8261295a91906144ea565b9150612937565b60008167ffffffffffffffff81111561297d5761297c61483b565b5b6040519080825280601f01601f1916602001820160405280156129af5781602001600182028036833780820191505090505b5090505b60008514612a3c576001826129c8919061451b565b9150600a856129d7919061471f565b60306129e39190614494565b60f81b8183815181106129f9576129f861480c565b5b60200101907effffffffffffffffffffffffffffffffffffffffffffffffffffffffffffff1916908160001a905350600a85612a3591906144ea565b94506129b3565b8093505050505b919050565b60007f80ac58cd000000000000000000000000000000000000000000000000000000007bffffffffffffffffffffffffffffffffffffffffffffffffffffffff1916827bffffffffffffffffffffffffffffffffffffffffffffffffffffffff19161480612b1357507f5b5e139f000000000000000000000000000000000000000000000000000000007bffffffffffffffffffffffffffffffffffffffffffffffffffffffff1916827bffffffffffffffffffffffffffffffffffffffffffffffffffffffff1916145b80612b235750612b2282612f44565b5b9050919050565b612b35838383612fae565b505050565b505050565b6000612b4b60116130c2565b905090565b60006028612b5e60326130c2565b612b689190614494565b905090565b612b75613637565b6040518061018001604052808e8152602001612b8f61311e565b8e612b9a9190614494565b8152602001612ba761311e565b8d612bb29190614494565b8152602001612bbf61311e565b8c612bca9190614494565b8152602001612bd761311e565b8b612be29190614494565b81526020018981526020018881526020018781526020018681526020018581526020018481526020018381525090509c9b505050505050505050505050565b612c29613637565b6000606490506002861415612c4857601481612c459190614494565b90505b6003861415612c6157603281612c5e9190614494565b90505b6004861415612c7a57604681612c779190614494565b90505b604051806101800160405280888152602001612c9461311e565b83612c9f9190614494565b8152602001612cac61311e565b83612cb79190614494565b8152602001612cc461311e565b83612ccf9190614494565b8152602001612cdc61311e565b83612ce79190614494565b8152602001868152602001858152602001868152602001612d06612b50565b8152602001612d13612b3f565b8152602001612d20612b50565b81526020018481525091505095945050505050565b60006001612d4360026130c2565b612d4d9190614494565b905090565b612d5c838361312f565b612d696000848484612dad565b612da8576040517f08c379a0000000000000000000000000000000000000000000000000000000008152600401612d9f90613fd0565b60405180910390fd5b505050565b6000612dce8473ffffffffffffffffffffffffffffffffffffffff16613309565b15612f37578373ffffffffffffffffffffffffffffffffffffffff1663150b7a02612df7611b34565b8786866040518563ffffffff1660e01b8152600401612e199493929190613ea0565b602060405180830381600087803b158015612e3357600080fd5b505af1925050508015612e6457506040513d601f19601f82011682018060405250810190612e6191906139a3565b60015b612ee7573d8060008114612e94576040519150601f19603f3d011682016040523d82523d6000602084013e612e99565b606091505b50600081511415612edf576040517f08c379a0000000000000000000000000000000000000000000000000000000008152600401612ed690613fd0565b60405180910390fd5b805181602001fd5b63150b7a0260e01b7bffffffffffffffffffffffffffffffffffffffffffffffffffffffff1916817bffffffffffffffffffffffffffffffffffffffffffffffffffffffff191614915050612f3c565b600190505b949350505050565b60007f01ffc9a7000000000000000000000000000000000000000000000000000000007bffffffffffffffffffffffffffffffffffffffffffffffffffffffff1916827bffffffffffffffffffffffffffffffffffffffffffffffffffffffff1916149050919050565b612fb983838361332c565b600073ffffffffffffffffffffffffffffffffffffffff168373ffffffffffffffffffffffffffffffffffffffff161415612ffc57612ff781613331565b61303b565b8173ffffffffffffffffffffffffffffffffffffffff168373ffffffffffffffffffffffffffffffffffffffff161461303a57613039838261337a565b5b5b600073ffffffffffffffffffffffffffffffffffffffff168273ffffffffffffffffffffffffffffffffffffffff16141561307e57613079816134e7565b6130bd565b8273ffffffffffffffffffffffffffffffffffffffff168273ffffffffffffffffffffffffffffffffffffffff16146130bc576130bb82826135b8565b5b5b505050565b6000600b60008154809291906130d7906146cc565b9190505550814442600b546040516020016130f493929190613e48565b6040516020818303038152906040528051906020012060001c613117919061471f565b9050919050565b600061312a60146130c2565b905090565b600073ffffffffffffffffffffffffffffffffffffffff168273ffffffffffffffffffffffffffffffffffffffff16141561319f576040517f08c379a0000000000000000000000000000000000000000000000000000000008152600401613196906140f0565b60405180910390fd5b6131a881611ac8565b156131e8576040517f08c379a00000000000000000000000000000000000000000000000000000000081526004016131df90614010565b60405180910390fd5b6131f460008383612b2a565b6001600360008473ffffffffffffffffffffffffffffffffffffffff1673ffffffffffffffffffffffffffffffffffffffff16815260200190815260200160002060008282546132449190614494565b92505081905550816002600083815260200190815260200160002060006101000a81548173ffffffffffffffffffffffffffffffffffffffff021916908373ffffffffffffffffffffffffffffffffffffffff160217905550808273ffffffffffffffffffffffffffffffffffffffff16600073ffffffffffffffffffffffffffffffffffffffff167fddf252ad1be2c89b69c2b068fc378daa952ba7f163c4a11628f55a4df523b3ef60405160405180910390a461330560008383612b3a565b5050565b6000808273ffffffffffffffffffffffffffffffffffffffff163b119050919050565b505050565b6008805490506009600083815260200190815260200160002081905550600881908060018154018082558091505060019003906000526020600020016000909190919091505550565b6000600161338784610a2d565b613391919061451b565b9050600060076000848152602001908152602001600020549050818114613476576000600660008673ffffffffffffffffffffffffffffffffffffffff1673ffffffffffffffffffffffffffffffffffffffff168152602001908152602001600020600084815260200190815260200160002054905080600660008773ffffffffffffffffffffffffffffffffffffffff1673ffffffffffffffffffffffffffffffffffffffff168152602001908152602001600020600084815260200190815260200160002081905550816007600083815260200190815260200160002081905550505b6007600084815260200190815260200160002060009055600660008573ffffffffffffffffffffffffffffffffffffffff1673ffffffffffffffffffffffffffffffffffffffff16815260200190815260200160002060008381526020019081526020016000206000905550505050565b600060016008805490506134fb919061451b565b905060006009600084815260200190815260200160002054905060006008838154811061352b5761352a61480c565b5b90600052602060002001549050806008838154811061354d5761354c61480c565b5b90600052602060002001819055508160096000838152602001908152602001600020819055506009600085815260200190815260200160002060009055600880548061359c5761359b6147dd565b5b6001900381819060005260206000200160009055905550505050565b60006135c383610a2d565b905081600660008573ffffffffffffffffffffffffffffffffffffffff1673ffffffffffffffffffffffffffffffffffffffff168152602001908152602001600020600083815260200190815260200160002081905550806007600084815260200190815260200160002081905550505050565b6040518061018001604052806000815260200160008152602001600081526020016000815260200160008152602001600081526020016000815260200160008152602001600081526020016000815260200160008152602001600081525090565b60006136ab6136a6846143e7565b6143c2565b9050828152602081018484840111156136c7576136c661486f565b5b6136d2848285614627565b509392505050565b6000813590506136e981614d0d565b92915050565b6000813590506136fe81614d24565b92915050565b60008151905061371381614d3b565b92915050565b60008135905061372881614d52565b92915050565b60008151905061373d81614d52565b92915050565b600082601f8301126137585761375761486a565b5b8135613768848260208601613698565b91505092915050565b60008135905061378081614d69565b92915050565b60006020828403121561379c5761379b614879565b5b60006137aa848285016136da565b91505092915050565b600080604083850312156137ca576137c9614879565b5b60006137d8858286016136da565b92505060206137e9858286016136da565b9150509250929050565b60008060006060848603121561380c5761380b614879565b5b600061381a868287016136da565b935050602061382b868287016136da565b925050604061383c86828701613771565b9150509250925092565b600080600080608085870312156138605761385f614879565b5b600061386e878288016136da565b945050602061387f878288016136da565b935050604061389087828801613771565b925050606085013567ffffffffffffffff8111156138b1576138b0614874565b5b6138bd87828801613743565b91505092959194509250565b600080604083850312156138e0576138df614879565b5b60006138ee858286016136da565b92505060206138ff858286016136ef565b9150509250929050565b600080604083850312156139205761391f614879565b5b600061392e858286016136da565b925050602061393f85828601613771565b9150509250929050565b60006020828403121561395f5761395e614879565b5b600061396d84828501613704565b91505092915050565b60006020828403121561398c5761398b614879565b5b600061399a84828501613719565b91505092915050565b6000602082840312156139b9576139b8614879565b5b60006139c78482850161372e565b91505092915050565b6000602082840312156139e6576139e5614879565b5b60006139f484828501613771565b91505092915050565b60008060408385031215613a1457613a13614879565b5b6000613a2285828601613771565b9250506020613a3385828601613771565b9150509250929050565b6000613a498383613def565b60208301905092915050565b613a5e8161454f565b82525050565b6000613a6f82614428565b613a798185614456565b9350613a8483614418565b8060005b83811015613ab5578151613a9c8882613a3d565b9750613aa783614449565b925050600181019050613a88565b5085935050505092915050565b613acb81614561565b82525050565b6000613adc82614433565b613ae68185614467565b9350613af6818560208601614636565b613aff8161487e565b840191505092915050565b613b13816145cd565b82525050565b613b22816145df565b82525050565b613b31816145f1565b82525050565b613b4081614603565b82525050565b613b4f81614615565b82525050565b6000613b608261443e565b613b6a8185614478565b9350613b7a818560208601614636565b613b838161487e565b840191505092915050565b6000613b998261443e565b613ba38185614489565b9350613bb3818560208601614636565b80840191505092915050565b6000613bcc602b83614478565b9150613bd78261488f565b604082019050919050565b6000613bef603283614478565b9150613bfa826148de565b604082019050919050565b6000613c12602583614478565b9150613c1d8261492d565b604082019050919050565b6000613c35601c83614478565b9150613c408261497c565b602082019050919050565b6000613c58602483614478565b9150613c63826149a5565b604082019050919050565b6000613c7b601983614478565b9150613c86826149f4565b602082019050919050565b6000613c9e602c83614478565b9150613ca982614a1d565b604082019050919050565b6000613cc1603883614478565b9150613ccc82614a6c565b604082019050919050565b6000613ce4602a83614478565b9150613cef82614abb565b604082019050919050565b6000613d07602983614478565b9150613d1282614b0a565b604082019050919050565b6000613d2a602083614478565b9150613d3582614b59565b602082019050919050565b6000613d4d602c83614478565b9150613d5882614b82565b604082019050919050565b6000613d70602f83614478565b9150613d7b82614bd1565b604082019050919050565b6000613d93602183614478565b9150613d9e82614c20565b604082019050919050565b6000613db6603183614478565b9150613dc182614c6f565b604082019050919050565b6000613dd9602c83614478565b9150613de482614cbe565b604082019050919050565b613df8816145c3565b82525050565b613e07816145c3565b82525050565b613e1e613e19826145c3565b614715565b82525050565b6000613e308285613b8e565b9150613e3c8284613b8e565b91508190509392505050565b6000613e548286613e0d565b602082019150613e648285613e0d565b602082019150613e748284613e0d565b602082019150819050949350505050565b6000602082019050613e9a6000830184613a55565b92915050565b6000608082019050613eb56000830187613a55565b613ec26020830186613a55565b613ecf6040830185613dfe565b8181036060830152613ee18184613ad1565b905095945050505050565b6000602082019050613f016000830184613ac2565b92915050565b6000602082019050613f1c6000830184613b0a565b92915050565b6000602082019050613f376000830184613b19565b92915050565b6000602082019050613f526000830184613b28565b92915050565b6000602082019050613f6d6000830184613b37565b92915050565b6000602082019050613f886000830184613b46565b92915050565b60006020820190508181036000830152613fa88184613b55565b905092915050565b60006020820190508181036000830152613fc981613bbf565b9050919050565b60006020820190508181036000830152613fe981613be2565b9050919050565b6000602082019050818103600083015261400981613c05565b9050919050565b6000602082019050818103600083015261402981613c28565b9050919050565b6000602082019050818103600083015261404981613c4b565b9050919050565b6000602082019050818103600083015261406981613c6e565b9050919050565b6000602082019050818103600083015261408981613c91565b9050919050565b600060208201905081810360008301526140a981613cb4565b9050919050565b600060208201905081810360008301526140c981613cd7565b9050919050565b600060208201905081810360008301526140e981613cfa565b9050919050565b6000602082019050818103600083015261410981613d1d565b9050919050565b6000602082019050818103600083015261412981613d40565b9050919050565b6000602082019050818103600083015261414981613d63565b9050919050565b6000602082019050818103600083015261416981613d86565b9050919050565b6000602082019050818103600083015261418981613da9565b9050919050565b600060208201905081810360008301526141a981613dcc565b9050919050565b60006020820190506141c56000830184613dfe565b92915050565b60006040820190506141e06000830185613dfe565b81810360208301526141f28184613a64565b90509392505050565b60006060820190506142106000830186613dfe565b61421d6020830185613dfe565b818103604083015261422f8184613a64565b9050949350505050565b600060608201905061424e6000830186613dfe565b61425b6020830185613dfe565b6142686040830184613dfe565b949350505050565b60006080820190506142856000830187613dfe565b6142926020830186613dfe565b61429f6040830185613dfe565b6142ac6060830184613dfe565b95945050505050565b600060a0820190506142ca6000830188613dfe565b6142d76020830187613dfe565b6142e46040830186613dfe565b6142f16060830185613dfe565b6142fe6080830184613dfe565b9695505050505050565b60006101808201905061431e600083018f613dfe565b61432b602083018e613dfe565b614338604083018d613dfe565b614345606083018c613dfe565b614352608083018b613dfe565b61435f60a083018a613dfe565b61436c60c0830189613dfe565b61437960e0830188613dfe565b614387610100830187613dfe565b614395610120830186613dfe565b6143a3610140830185613dfe565b6143b1610160830184613dfe565b9d9c50505050505050505050505050565b60006143cc6143dd565b90506143d8828261469b565b919050565b6000604051905090565b600067ffffffffffffffff8211156144025761440161483b565b5b61440b8261487e565b9050602081019050919050565b6000819050602082019050919050565b600081519050919050565b600081519050919050565b600081519050919050565b6000602082019050919050565b600082825260208201905092915050565b600082825260208201905092915050565b600082825260208201905092915050565b600081905092915050565b600061449f826145c3565b91506144aa836145c3565b9250827fffffffffffffffffffffffffffffffffffffffffffffffffffffffffffffffff038211156144df576144de614750565b5b828201905092915050565b60006144f5826145c3565b9150614500836145c3565b9250826145105761450f61477f565b5b828204905092915050565b6000614526826145c3565b9150614531836145c3565b92508282101561454457614543614750565b5b828203905092915050565b600061455a826145a3565b9050919050565b60008115159050919050565b6000819050919050565b60007fffffffff0000000000000000000000000000000000000000000000000000000082169050919050565b600073ffffffffffffffffffffffffffffffffffffffff82169050919050565b6000819050919050565b60006145d8826145c3565b9050919050565b60006145ea826145c3565b9050919050565b60006145fc826145c3565b9050919050565b600061460e826145c3565b9050919050565b6000614620826145c3565b9050919050565b82818337600083830152505050565b60005b83811015614654578082015181840152602081019050614639565b83811115614663576000848401525b50505050565b6000600282049050600182168061468157607f821691505b60208210811415614695576146946147ae565b5b50919050565b6146a48261487e565b810181811067ffffffffffffffff821117156146c3576146c261483b565b5b80604052505050565b60006146d7826145c3565b91507fffffffffffffffffffffffffffffffffffffffffffffffffffffffffffffffff82141561470a57614709614750565b5b600182019050919050565b6000819050919050565b600061472a826145c3565b9150614735836145c3565b9250826147455761474461477f565b5b828206905092915050565b7f4e487b7100000000000000000000000000000000000000000000000000000000600052601160045260246000fd5b7f4e487b7100000000000000000000000000000000000000000000000000000000600052601260045260246000fd5b7f4e487b7100000000000000000000000000000000000000000000000000000000600052602260045260246000fd5b7f4e487b7100000000000000000000000000000000000000000000000000000000600052603160045260246000fd5b7f4e487b7100000000000000000000000000000000000000000000000000000000600052603260045260246000fd5b7f4e487b7100000000000000000000000000000000000000000000000000000000600052604160045260246000fd5b600080fd5b600080fd5b600080fd5b600080fd5b6000601f19601f8301169050919050565b7f455243373231456e756d657261626c653a206f776e657220696e646578206f7560008201527f74206f6620626f756e6473000000000000000000000000000000000000000000602082015250565b7f4552433732313a207472616e7366657220746f206e6f6e20455243373231526560008201527f63656976657220696d706c656d656e7465720000000000000000000000000000602082015250565b7f4552433732313a207472616e736665722066726f6d20696e636f72726563742060008201527f6f776e6572000000000000000000000000000000000000000000000000000000602082015250565b7f4552433732313a20746f6b656e20616c7265616479206d696e74656400000000600082015250565b7f4552433732313a207472616e7366657220746f20746865207a65726f2061646460008201527f7265737300000000000000000000000000000000000000000000000000000000602082015250565b7f4552433732313a20617070726f766520746f2063616c6c657200000000000000600082015250565b7f4552433732313a206f70657261746f7220717565727920666f72206e6f6e657860008201527f697374656e7420746f6b656e0000000000000000000000000000000000000000602082015250565b7f4552433732313a20617070726f76652063616c6c6572206973206e6f74206f7760008201527f6e6572206e6f7220617070726f76656420666f7220616c6c0000000000000000602082015250565b7f4552433732313a2062616c616e636520717565727920666f7220746865207a6560008201527f726f206164647265737300000000000000000000000000000000000000000000602082015250565b7f4552433732313a206f776e657220717565727920666f72206e6f6e657869737460008201527f656e7420746f6b656e0000000000000000000000000000000000000000000000602082015250565b7f4552433732313a206d696e7420746f20746865207a65726f2061646472657373600082015250565b7f4552433732313a20617070726f76656420717565727920666f72206e6f6e657860008201527f697374656e7420746f6b656e0000000000000000000000000000000000000000602082015250565b7f4552433732314d657461646174613a2055524920717565727920666f72206e6f60008201527f6e6578697374656e7420746f6b656e0000000000000000000000000000000000602082015250565b7f4552433732313a20617070726f76616c20746f2063757272656e74206f776e6560008201527f7200000000000000000000000000000000000000000000000000000000000000602082015250565b7f4552433732313a207472616e736665722063616c6c6572206973206e6f74206f60008201527f776e6572206e6f7220617070726f766564000000000000000000000000000000602082015250565b7f455243373231456e756d657261626c653a20676c6f62616c20696e646578206f60008201527f7574206f6620626f756e64730000000000000000000000000000000000000000602082015250565b614d168161454f565b8114614d2157600080fd5b50565b614d2d81614561565b8114614d3857600080fd5b50565b614d448161456d565b8114614d4f57600080fd5b50565b614d5b81614577565b8114614d6657600080fd5b50565b614d72816145c3565b8114614d7d57600080fd5b5056fea264697066735822122097f77b3ac300c818b17258c458167caaa3771ac4bac1dbdd10f057cd5da0302564736f6c63430008070033",
			"opcodes": "PUSH1 0x80 PUSH1 0x40 MSTORE PUSH1 0x0 PUSH1 0xB SSTORE PUSH32 0x31C59F9319F22B2DC9271B18BFE67EC3D5464FF8327705891A931875F89B148 PUSH1 0xC SSTORE PUSH1 0x0 PUSH1 0xD SSTORE CALLVALUE DUP1 ISZERO PUSH3 0x3F JUMPI PUSH1 0x0 DUP1 REVERT JUMPDEST POP PUSH1 0x40 MLOAD DUP1 PUSH1 0x40 ADD PUSH1 0x40 MSTORE DUP1 PUSH1 0x3 DUP2 MSTORE PUSH1 0x20 ADD PUSH32 0x4E46540000000000000000000000000000000000000000000000000000000000 DUP2 MSTORE POP PUSH1 0x40 MLOAD DUP1 PUSH1 0x40 ADD PUSH1 0x40 MSTORE DUP1 PUSH1 0x2 DUP2 MSTORE PUSH1 0x20 ADD PUSH32 0x4343000000000000000000000000000000000000000000000000000000000000 DUP2 MSTORE POP DUP2 PUSH1 0x0 SWAP1 DUP1 MLOAD SWAP1 PUSH1 0x20 ADD SWAP1 PUSH3 0xC4 SWAP3 SWAP2 SWAP1 PUSH3 0x13B JUMP JUMPDEST POP DUP1 PUSH1 0x1 SWAP1 DUP1 MLOAD SWAP1 PUSH1 0x20 ADD SWAP1 PUSH3 0xDD SWAP3 SWAP2 SWAP1 PUSH3 0x13B JUMP JUMPDEST POP POP POP PUSH20 0xDE29D060D45901FB19ED6C6E959EB22D8626708E PUSH1 0xA PUSH1 0x0 PUSH2 0x100 EXP DUP2 SLOAD DUP2 PUSH20 0xFFFFFFFFFFFFFFFFFFFFFFFFFFFFFFFFFFFFFFFF MUL NOT AND SWAP1 DUP4 PUSH20 0xFFFFFFFFFFFFFFFFFFFFFFFFFFFFFFFFFFFFFFFF AND MUL OR SWAP1 SSTORE POP PUSH3 0x250 JUMP JUMPDEST DUP3 DUP1 SLOAD PUSH3 0x149 SWAP1 PUSH3 0x1EB JUMP JUMPDEST SWAP1 PUSH1 0x0 MSTORE PUSH1 0x20 PUSH1 0x0 KECCAK256 SWAP1 PUSH1 0x1F ADD PUSH1 0x20 SWAP1 DIV DUP2 ADD SWAP3 DUP3 PUSH3 0x16D JUMPI PUSH1 0x0 DUP6 SSTORE PUSH3 0x1B9 JUMP JUMPDEST DUP3 PUSH1 0x1F LT PUSH3 0x188 JUMPI DUP1 MLOAD PUSH1 0xFF NOT AND DUP4 DUP1 ADD OR DUP6 SSTORE PUSH3 0x1B9 JUMP JUMPDEST DUP3 DUP1 ADD PUSH1 0x1 ADD DUP6 SSTORE DUP3 ISZERO PUSH3 0x1B9 JUMPI SWAP2 DUP3 ADD JUMPDEST DUP3 DUP2 GT ISZERO PUSH3 0x1B8 JUMPI DUP3 MLOAD DUP3 SSTORE SWAP2 PUSH1 0x20 ADD SWAP2 SWAP1 PUSH1 0x1 ADD SWAP1 PUSH3 0x19B JUMP JUMPDEST JUMPDEST POP SWAP1 POP PUSH3 0x1C8 SWAP2 SWAP1 PUSH3 0x1CC JUMP JUMPDEST POP SWAP1 JUMP JUMPDEST JUMPDEST DUP1 DUP3 GT ISZERO PUSH3 0x1E7 JUMPI PUSH1 0x0 DUP2 PUSH1 0x0 SWAP1 SSTORE POP PUSH1 0x1 ADD PUSH3 0x1CD JUMP JUMPDEST POP SWAP1 JUMP JUMPDEST PUSH1 0x0 PUSH1 0x2 DUP3 DIV SWAP1 POP PUSH1 0x1 DUP3 AND DUP1 PUSH3 0x204 JUMPI PUSH1 0x7F DUP3 AND SWAP2 POP JUMPDEST PUSH1 0x20 DUP3 LT DUP2 EQ ISZERO PUSH3 0x21B JUMPI PUSH3 0x21A PUSH3 0x221 JUMP JUMPDEST JUMPDEST POP SWAP2 SWAP1 POP JUMP JUMPDEST PUSH32 0x4E487B7100000000000000000000000000000000000000000000000000000000 PUSH1 0x0 MSTORE PUSH1 0x22 PUSH1 0x4 MSTORE PUSH1 0x24 PUSH1 0x0 REVERT JUMPDEST PUSH2 0x4DB6 DUP1 PUSH3 0x260 PUSH1 0x0 CODECOPY PUSH1 0x0 RETURN INVALID PUSH1 0x80 PUSH1 0x40 MSTORE PUSH1 0x4 CALLDATASIZE LT PUSH2 0x135 JUMPI PUSH1 0x0 CALLDATALOAD PUSH1 0xE0 SHR DUP1 PUSH4 0x727061CA GT PUSH2 0xAB JUMPI DUP1 PUSH4 0xA0712D68 GT PUSH2 0x6F JUMPI DUP1 PUSH4 0xA0712D68 EQ PUSH2 0x45A JUMPI DUP1 PUSH4 0xA22CB465 EQ PUSH2 0x483 JUMPI DUP1 PUSH4 0xB88D4FDE EQ PUSH2 0x4AC JUMPI DUP1 PUSH4 0xC87B56DD EQ PUSH2 0x4D5 JUMPI DUP1 PUSH4 0xD82FE3B7 EQ PUSH2 0x512 JUMPI DUP1 PUSH4 0xE985E9C5 EQ PUSH2 0x55A JUMPI PUSH2 0x135 JUMP JUMPDEST DUP1 PUSH4 0x727061CA EQ PUSH2 0x379 JUMPI DUP1 PUSH4 0x72E84E3C EQ PUSH2 0x3A2 JUMPI DUP1 PUSH4 0x85831079 EQ PUSH2 0x3CB JUMPI DUP1 PUSH4 0x85B1C79D EQ PUSH2 0x413 JUMPI DUP1 PUSH4 0x95D89B41 EQ PUSH2 0x42F JUMPI PUSH2 0x135 JUMP JUMPDEST DUP1 PUSH4 0x23B872DD GT PUSH2 0xFD JUMPI DUP1 PUSH4 0x23B872DD EQ PUSH2 0x233 JUMPI DUP1 PUSH4 0x2F745C59 EQ PUSH2 0x25C JUMPI DUP1 PUSH4 0x42842E0E EQ PUSH2 0x299 JUMPI DUP1 PUSH4 0x4F6CCCE7 EQ PUSH2 0x2C2 JUMPI DUP1 PUSH4 0x6352211E EQ PUSH2 0x2FF JUMPI DUP1 PUSH4 0x70A08231 EQ PUSH2 0x33C JUMPI PUSH2 0x135 JUMP JUMPDEST DUP1 PUSH4 0x1FFC9A7 EQ PUSH2 0x13A JUMPI DUP1 PUSH4 0x6FDDE03 EQ PUSH2 0x177 JUMPI DUP1 PUSH4 0x81812FC EQ PUSH2 0x1A2 JUMPI DUP1 PUSH4 0x95EA7B3 EQ PUSH2 0x1DF JUMPI DUP1 PUSH4 0x18160DDD EQ PUSH2 0x208 JUMPI JUMPDEST PUSH1 0x0 DUP1 REVERT JUMPDEST CALLVALUE DUP1 ISZERO PUSH2 0x146 JUMPI PUSH1 0x0 DUP1 REVERT JUMPDEST POP PUSH2 0x161 PUSH1 0x4 DUP1 CALLDATASIZE SUB DUP2 ADD SWAP1 PUSH2 0x15C SWAP2 SWAP1 PUSH2 0x3976 JUMP JUMPDEST PUSH2 0x597 JUMP JUMPDEST PUSH1 0x40 MLOAD PUSH2 0x16E SWAP2 SWAP1 PUSH2 0x3EEC JUMP JUMPDEST PUSH1 0x40 MLOAD DUP1 SWAP2 SUB SWAP1 RETURN JUMPDEST CALLVALUE DUP1 ISZERO PUSH2 0x183 JUMPI PUSH1 0x0 DUP1 REVERT JUMPDEST POP PUSH2 0x18C PUSH2 0x5A9 JUMP JUMPDEST PUSH1 0x40 MLOAD PUSH2 0x199 SWAP2 SWAP1 PUSH2 0x3F8E JUMP JUMPDEST PUSH1 0x40 MLOAD DUP1 SWAP2 SUB SWAP1 RETURN JUMPDEST CALLVALUE DUP1 ISZERO PUSH2 0x1AE JUMPI PUSH1 0x0 DUP1 REVERT JUMPDEST POP PUSH2 0x1C9 PUSH1 0x4 DUP1 CALLDATASIZE SUB DUP2 ADD SWAP1 PUSH2 0x1C4 SWAP2 SWAP1 PUSH2 0x39D0 JUMP JUMPDEST PUSH2 0x63B JUMP JUMPDEST PUSH1 0x40 MLOAD PUSH2 0x1D6 SWAP2 SWAP1 PUSH2 0x3E85 JUMP JUMPDEST PUSH1 0x40 MLOAD DUP1 SWAP2 SUB SWAP1 RETURN JUMPDEST CALLVALUE DUP1 ISZERO PUSH2 0x1EB JUMPI PUSH1 0x0 DUP1 REVERT JUMPDEST POP PUSH2 0x206 PUSH1 0x4 DUP1 CALLDATASIZE SUB DUP2 ADD SWAP1 PUSH2 0x201 SWAP2 SWAP1 PUSH2 0x3909 JUMP JUMPDEST PUSH2 0x6C0 JUMP JUMPDEST STOP JUMPDEST CALLVALUE DUP1 ISZERO PUSH2 0x214 JUMPI PUSH1 0x0 DUP1 REVERT JUMPDEST POP PUSH2 0x21D PUSH2 0x7D8 JUMP JUMPDEST PUSH1 0x40 MLOAD PUSH2 0x22A SWAP2 SWAP1 PUSH2 0x41B0 JUMP JUMPDEST PUSH1 0x40 MLOAD DUP1 SWAP2 SUB SWAP1 RETURN JUMPDEST CALLVALUE DUP1 ISZERO PUSH2 0x23F JUMPI PUSH1 0x0 DUP1 REVERT JUMPDEST POP PUSH2 0x25A PUSH1 0x4 DUP1 CALLDATASIZE SUB DUP2 ADD SWAP1 PUSH2 0x255 SWAP2 SWAP1 PUSH2 0x37F3 JUMP JUMPDEST PUSH2 0x7E5 JUMP JUMPDEST STOP JUMPDEST CALLVALUE DUP1 ISZERO PUSH2 0x268 JUMPI PUSH1 0x0 DUP1 REVERT JUMPDEST POP PUSH2 0x283 PUSH1 0x4 DUP1 CALLDATASIZE SUB DUP2 ADD SWAP1 PUSH2 0x27E SWAP2 SWAP1 PUSH2 0x3909 JUMP JUMPDEST PUSH2 0x845 JUMP JUMPDEST PUSH1 0x40 MLOAD PUSH2 0x290 SWAP2 SWAP1 PUSH2 0x41B0 JUMP JUMPDEST PUSH1 0x40 MLOAD DUP1 SWAP2 SUB SWAP1 RETURN JUMPDEST CALLVALUE DUP1 ISZERO PUSH2 0x2A5 JUMPI PUSH1 0x0 DUP1 REVERT JUMPDEST POP PUSH2 0x2C0 PUSH1 0x4 DUP1 CALLDATASIZE SUB DUP2 ADD SWAP1 PUSH2 0x2BB SWAP2 SWAP1 PUSH2 0x37F3 JUMP JUMPDEST PUSH2 0x8EA JUMP JUMPDEST STOP JUMPDEST CALLVALUE DUP1 ISZERO PUSH2 0x2CE JUMPI PUSH1 0x0 DUP1 REVERT JUMPDEST POP PUSH2 0x2E9 PUSH1 0x4 DUP1 CALLDATASIZE SUB DUP2 ADD SWAP1 PUSH2 0x2E4 SWAP2 SWAP1 PUSH2 0x39D0 JUMP JUMPDEST PUSH2 0x90A JUMP JUMPDEST PUSH1 0x40 MLOAD PUSH2 0x2F6 SWAP2 SWAP1 PUSH2 0x41B0 JUMP JUMPDEST PUSH1 0x40 MLOAD DUP1 SWAP2 SUB SWAP1 RETURN JUMPDEST CALLVALUE DUP1 ISZERO PUSH2 0x30B JUMPI PUSH1 0x0 DUP1 REVERT JUMPDEST POP PUSH2 0x326 PUSH1 0x4 DUP1 CALLDATASIZE SUB DUP2 ADD SWAP1 PUSH2 0x321 SWAP2 SWAP1 PUSH2 0x39D0 JUMP JUMPDEST PUSH2 0x97B JUMP JUMPDEST PUSH1 0x40 MLOAD PUSH2 0x333 SWAP2 SWAP1 PUSH2 0x3E85 JUMP JUMPDEST PUSH1 0x40 MLOAD DUP1 SWAP2 SUB SWAP1 RETURN JUMPDEST CALLVALUE DUP1 ISZERO PUSH2 0x348 JUMPI PUSH1 0x0 DUP1 REVERT JUMPDEST POP PUSH2 0x363 PUSH1 0x4 DUP1 CALLDATASIZE SUB DUP2 ADD SWAP1 PUSH2 0x35E SWAP2 SWAP1 PUSH2 0x3786 JUMP JUMPDEST PUSH2 0xA2D JUMP JUMPDEST PUSH1 0x40 MLOAD PUSH2 0x370 SWAP2 SWAP1 PUSH2 0x41B0 JUMP JUMPDEST PUSH1 0x40 MLOAD DUP1 SWAP2 SUB SWAP1 RETURN JUMPDEST CALLVALUE DUP1 ISZERO PUSH2 0x385 JUMPI PUSH1 0x0 DUP1 REVERT JUMPDEST POP PUSH2 0x3A0 PUSH1 0x4 DUP1 CALLDATASIZE SUB DUP2 ADD SWAP1 PUSH2 0x39B SWAP2 SWAP1 PUSH2 0x39D0 JUMP JUMPDEST PUSH2 0xAE5 JUMP JUMPDEST STOP JUMPDEST CALLVALUE DUP1 ISZERO PUSH2 0x3AE JUMPI PUSH1 0x0 DUP1 REVERT JUMPDEST POP PUSH2 0x3C9 PUSH1 0x4 DUP1 CALLDATASIZE SUB DUP2 ADD SWAP1 PUSH2 0x3C4 SWAP2 SWAP1 PUSH2 0x39FD JUMP JUMPDEST PUSH2 0xC7A JUMP JUMPDEST STOP JUMPDEST CALLVALUE DUP1 ISZERO PUSH2 0x3D7 JUMPI PUSH1 0x0 DUP1 REVERT JUMPDEST POP PUSH2 0x3F2 PUSH1 0x4 DUP1 CALLDATASIZE SUB DUP2 ADD SWAP1 PUSH2 0x3ED SWAP2 SWAP1 PUSH2 0x39D0 JUMP JUMPDEST PUSH2 0xEE7 JUMP JUMPDEST PUSH1 0x40 MLOAD PUSH2 0x40A SWAP13 SWAP12 SWAP11 SWAP10 SWAP9 SWAP8 SWAP7 SWAP6 SWAP5 SWAP4 SWAP3 SWAP2 SWAP1 PUSH2 0x4308 JUMP JUMPDEST PUSH1 0x40 MLOAD DUP1 SWAP2 SUB SWAP1 RETURN JUMPDEST PUSH2 0x42D PUSH1 0x4 DUP1 CALLDATASIZE SUB DUP2 ADD SWAP1 PUSH2 0x428 SWAP2 SWAP1 PUSH2 0x39FD JUMP JUMPDEST PUSH2 0xF57 JUMP JUMPDEST STOP JUMPDEST CALLVALUE DUP1 ISZERO PUSH2 0x43B JUMPI PUSH1 0x0 DUP1 REVERT JUMPDEST POP PUSH2 0x444 PUSH2 0x1689 JUMP JUMPDEST PUSH1 0x40 MLOAD PUSH2 0x451 SWAP2 SWAP1 PUSH2 0x3F8E JUMP JUMPDEST PUSH1 0x40 MLOAD DUP1 SWAP2 SUB SWAP1 RETURN JUMPDEST CALLVALUE DUP1 ISZERO PUSH2 0x466 JUMPI PUSH1 0x0 DUP1 REVERT JUMPDEST POP PUSH2 0x481 PUSH1 0x4 DUP1 CALLDATASIZE SUB DUP2 ADD SWAP1 PUSH2 0x47C SWAP2 SWAP1 PUSH2 0x39D0 JUMP JUMPDEST PUSH2 0x171B JUMP JUMPDEST STOP JUMPDEST CALLVALUE DUP1 ISZERO PUSH2 0x48F JUMPI PUSH1 0x0 DUP1 REVERT JUMPDEST POP PUSH2 0x4AA PUSH1 0x4 DUP1 CALLDATASIZE SUB DUP2 ADD SWAP1 PUSH2 0x4A5 SWAP2 SWAP1 PUSH2 0x38C9 JUMP JUMPDEST PUSH2 0x183B JUMP JUMPDEST STOP JUMPDEST CALLVALUE DUP1 ISZERO PUSH2 0x4B8 JUMPI PUSH1 0x0 DUP1 REVERT JUMPDEST POP PUSH2 0x4D3 PUSH1 0x4 DUP1 CALLDATASIZE SUB DUP2 ADD SWAP1 PUSH2 0x4CE SWAP2 SWAP1 PUSH2 0x3846 JUMP JUMPDEST PUSH2 0x1851 JUMP JUMPDEST STOP JUMPDEST CALLVALUE DUP1 ISZERO PUSH2 0x4E1 JUMPI PUSH1 0x0 DUP1 REVERT JUMPDEST POP PUSH2 0x4FC PUSH1 0x4 DUP1 CALLDATASIZE SUB DUP2 ADD SWAP1 PUSH2 0x4F7 SWAP2 SWAP1 PUSH2 0x39D0 JUMP JUMPDEST PUSH2 0x18B3 JUMP JUMPDEST PUSH1 0x40 MLOAD PUSH2 0x509 SWAP2 SWAP1 PUSH2 0x3F8E JUMP JUMPDEST PUSH1 0x40 MLOAD DUP1 SWAP2 SUB SWAP1 RETURN JUMPDEST CALLVALUE DUP1 ISZERO PUSH2 0x51E JUMPI PUSH1 0x0 DUP1 REVERT JUMPDEST POP PUSH2 0x539 PUSH1 0x4 DUP1 CALLDATASIZE SUB DUP2 ADD SWAP1 PUSH2 0x534 SWAP2 SWAP1 PUSH2 0x39D0 JUMP JUMPDEST PUSH2 0x195A JUMP JUMPDEST PUSH1 0x40 MLOAD PUSH2 0x551 SWAP13 SWAP12 SWAP11 SWAP10 SWAP9 SWAP8 SWAP7 SWAP6 SWAP5 SWAP4 SWAP3 SWAP2 SWAP1 PUSH2 0x4308 JUMP JUMPDEST PUSH1 0x40 MLOAD DUP1 SWAP2 SUB SWAP1 RETURN JUMPDEST CALLVALUE DUP1 ISZERO PUSH2 0x566 JUMPI PUSH1 0x0 DUP1 REVERT JUMPDEST POP PUSH2 0x581 PUSH1 0x4 DUP1 CALLDATASIZE SUB DUP2 ADD SWAP1 PUSH2 0x57C SWAP2 SWAP1 PUSH2 0x37B3 JUMP JUMPDEST PUSH2 0x19BA JUMP JUMPDEST PUSH1 0x40 MLOAD PUSH2 0x58E SWAP2 SWAP1 PUSH2 0x3EEC JUMP JUMPDEST PUSH1 0x40 MLOAD DUP1 SWAP2 SUB SWAP1 RETURN JUMPDEST PUSH1 0x0 PUSH2 0x5A2 DUP3 PUSH2 0x1A4E JUMP JUMPDEST SWAP1 POP SWAP2 SWAP1 POP JUMP JUMPDEST PUSH1 0x60 PUSH1 0x0 DUP1 SLOAD PUSH2 0x5B8 SWAP1 PUSH2 0x4669 JUMP JUMPDEST DUP1 PUSH1 0x1F ADD PUSH1 0x20 DUP1 SWAP2 DIV MUL PUSH1 0x20 ADD PUSH1 0x40 MLOAD SWAP1 DUP2 ADD PUSH1 0x40 MSTORE DUP1 SWAP3 SWAP2 SWAP1 DUP2 DUP2 MSTORE PUSH1 0x20 ADD DUP3 DUP1 SLOAD PUSH2 0x5E4 SWAP1 PUSH2 0x4669 JUMP JUMPDEST DUP1 ISZERO PUSH2 0x631 JUMPI DUP1 PUSH1 0x1F LT PUSH2 0x606 JUMPI PUSH2 0x100 DUP1 DUP4 SLOAD DIV MUL DUP4 MSTORE SWAP2 PUSH1 0x20 ADD SWAP2 PUSH2 0x631 JUMP JUMPDEST DUP3 ADD SWAP2 SWAP1 PUSH1 0x0 MSTORE PUSH1 0x20 PUSH1 0x0 KECCAK256 SWAP1 JUMPDEST DUP2 SLOAD DUP2 MSTORE SWAP1 PUSH1 0x1 ADD SWAP1 PUSH1 0x20 ADD DUP1 DUP4 GT PUSH2 0x614 JUMPI DUP3 SWAP1 SUB PUSH1 0x1F AND DUP3 ADD SWAP2 JUMPDEST POP POP POP POP POP SWAP1 POP SWAP1 JUMP JUMPDEST PUSH1 0x0 PUSH2 0x646 DUP3 PUSH2 0x1AC8 JUMP JUMPDEST PUSH2 0x685 JUMPI PUSH1 0x40 MLOAD PUSH32 0x8C379A000000000000000000000000000000000000000000000000000000000 DUP2 MSTORE PUSH1 0x4 ADD PUSH2 0x67C SWAP1 PUSH2 0x4110 JUMP JUMPDEST PUSH1 0x40 MLOAD DUP1 SWAP2 SUB SWAP1 REVERT JUMPDEST PUSH1 0x4 PUSH1 0x0 DUP4 DUP2 MSTORE PUSH1 0x20 ADD SWAP1 DUP2 MSTORE PUSH1 0x20 ADD PUSH1 0x0 KECCAK256 PUSH1 0x0 SWAP1 SLOAD SWAP1 PUSH2 0x100 EXP SWAP1 DIV PUSH20 0xFFFFFFFFFFFFFFFFFFFFFFFFFFFFFFFFFFFFFFFF AND SWAP1 POP SWAP2 SWAP1 POP JUMP JUMPDEST PUSH1 0x0 PUSH2 0x6CB DUP3 PUSH2 0x97B JUMP JUMPDEST SWAP1 POP DUP1 PUSH20 0xFFFFFFFFFFFFFFFFFFFFFFFFFFFFFFFFFFFFFFFF AND DUP4 PUSH20 0xFFFFFFFFFFFFFFFFFFFFFFFFFFFFFFFFFFFFFFFF AND EQ ISZERO PUSH2 0x73C JUMPI PUSH1 0x40 MLOAD PUSH32 0x8C379A000000000000000000000000000000000000000000000000000000000 DUP2 MSTORE PUSH1 0x4 ADD PUSH2 0x733 SWAP1 PUSH2 0x4150 JUMP JUMPDEST PUSH1 0x40 MLOAD DUP1 SWAP2 SUB SWAP1 REVERT JUMPDEST DUP1 PUSH20 0xFFFFFFFFFFFFFFFFFFFFFFFFFFFFFFFFFFFFFFFF AND PUSH2 0x75B PUSH2 0x1B34 JUMP JUMPDEST PUSH20 0xFFFFFFFFFFFFFFFFFFFFFFFFFFFFFFFFFFFFFFFF AND EQ DUP1 PUSH2 0x78A JUMPI POP PUSH2 0x789 DUP2 PUSH2 0x784 PUSH2 0x1B34 JUMP JUMPDEST PUSH2 0x19BA JUMP JUMPDEST JUMPDEST PUSH2 0x7C9 JUMPI PUSH1 0x40 MLOAD PUSH32 0x8C379A000000000000000000000000000000000000000000000000000000000 DUP2 MSTORE PUSH1 0x4 ADD PUSH2 0x7C0 SWAP1 PUSH2 0x4090 JUMP JUMPDEST PUSH1 0x40 MLOAD DUP1 SWAP2 SUB SWAP1 REVERT JUMPDEST PUSH2 0x7D3 DUP4 DUP4 PUSH2 0x1B3C JUMP JUMPDEST POP POP POP JUMP JUMPDEST PUSH1 0x0 PUSH1 0x8 DUP1 SLOAD SWAP1 POP SWAP1 POP SWAP1 JUMP JUMPDEST PUSH2 0x7F6 PUSH2 0x7F0 PUSH2 0x1B34 JUMP JUMPDEST DUP3 PUSH2 0x1BF5 JUMP JUMPDEST PUSH2 0x835 JUMPI PUSH1 0x40 MLOAD PUSH32 0x8C379A000000000000000000000000000000000000000000000000000000000 DUP2 MSTORE PUSH1 0x4 ADD PUSH2 0x82C SWAP1 PUSH2 0x4170 JUMP JUMPDEST PUSH1 0x40 MLOAD DUP1 SWAP2 SUB SWAP1 REVERT JUMPDEST PUSH2 0x840 DUP4 DUP4 DUP4 PUSH2 0x1CD3 JUMP JUMPDEST POP POP POP JUMP JUMPDEST PUSH1 0x0 PUSH2 0x850 DUP4 PUSH2 0xA2D JUMP JUMPDEST DUP3 LT PUSH2 0x891 JUMPI PUSH1 0x40 MLOAD PUSH32 0x8C379A000000000000000000000000000000000000000000000000000000000 DUP2 MSTORE PUSH1 0x4 ADD PUSH2 0x888 SWAP1 PUSH2 0x3FB0 JUMP JUMPDEST PUSH1 0x40 MLOAD DUP1 SWAP2 SUB SWAP1 REVERT JUMPDEST PUSH1 0x6 PUSH1 0x0 DUP5 PUSH20 0xFFFFFFFFFFFFFFFFFFFFFFFFFFFFFFFFFFFFFFFF AND PUSH20 0xFFFFFFFFFFFFFFFFFFFFFFFFFFFFFFFFFFFFFFFF AND DUP2 MSTORE PUSH1 0x20 ADD SWAP1 DUP2 MSTORE PUSH1 0x20 ADD PUSH1 0x0 KECCAK256 PUSH1 0x0 DUP4 DUP2 MSTORE PUSH1 0x20 ADD SWAP1 DUP2 MSTORE PUSH1 0x20 ADD PUSH1 0x0 KECCAK256 SLOAD SWAP1 POP SWAP3 SWAP2 POP POP JUMP JUMPDEST PUSH2 0x905 DUP4 DUP4 DUP4 PUSH1 0x40 MLOAD DUP1 PUSH1 0x20 ADD PUSH1 0x40 MSTORE DUP1 PUSH1 0x0 DUP2 MSTORE POP PUSH2 0x1851 JUMP JUMPDEST POP POP POP JUMP JUMPDEST PUSH1 0x0 PUSH2 0x914 PUSH2 0x7D8 JUMP JUMPDEST DUP3 LT PUSH2 0x955 JUMPI PUSH1 0x40 MLOAD PUSH32 0x8C379A000000000000000000000000000000000000000000000000000000000 DUP2 MSTORE PUSH1 0x4 ADD PUSH2 0x94C SWAP1 PUSH2 0x4190 JUMP JUMPDEST PUSH1 0x40 MLOAD DUP1 SWAP2 SUB SWAP1 REVERT JUMPDEST PUSH1 0x8 DUP3 DUP2 SLOAD DUP2 LT PUSH2 0x969 JUMPI PUSH2 0x968 PUSH2 0x480C JUMP JUMPDEST JUMPDEST SWAP1 PUSH1 0x0 MSTORE PUSH1 0x20 PUSH1 0x0 KECCAK256 ADD SLOAD SWAP1 POP SWAP2 SWAP1 POP JUMP JUMPDEST PUSH1 0x0 DUP1 PUSH1 0x2 PUSH1 0x0 DUP5 DUP2 MSTORE PUSH1 0x20 ADD SWAP1 DUP2 MSTORE PUSH1 0x20 ADD PUSH1 0x0 KECCAK256 PUSH1 0x0 SWAP1 SLOAD SWAP1 PUSH2 0x100 EXP SWAP1 DIV PUSH20 0xFFFFFFFFFFFFFFFFFFFFFFFFFFFFFFFFFFFFFFFF AND SWAP1 POP PUSH1 0x0 PUSH20 0xFFFFFFFFFFFFFFFFFFFFFFFFFFFFFFFFFFFFFFFF AND DUP2 PUSH20 0xFFFFFFFFFFFFFFFFFFFFFFFFFFFFFFFFFFFFFFFF AND EQ ISZERO PUSH2 0xA24 JUMPI PUSH1 0x40 MLOAD PUSH32 0x8C379A000000000000000000000000000000000000000000000000000000000 DUP2 MSTORE PUSH1 0x4 ADD PUSH2 0xA1B SWAP1 PUSH2 0x40D0 JUMP JUMPDEST PUSH1 0x40 MLOAD DUP1 SWAP2 SUB SWAP1 REVERT JUMPDEST DUP1 SWAP2 POP POP SWAP2 SWAP1 POP JUMP JUMPDEST PUSH1 0x0 DUP1 PUSH20 0xFFFFFFFFFFFFFFFFFFFFFFFFFFFFFFFFFFFFFFFF AND DUP3 PUSH20 0xFFFFFFFFFFFFFFFFFFFFFFFFFFFFFFFFFFFFFFFF AND EQ ISZERO PUSH2 0xA9E JUMPI PUSH1 0x40 MLOAD PUSH32 0x8C379A000000000000000000000000000000000000000000000000000000000 DUP2 MSTORE PUSH1 0x4 ADD PUSH2 0xA95 SWAP1 PUSH2 0x40B0 JUMP JUMPDEST PUSH1 0x40 MLOAD DUP1 SWAP2 SUB SWAP1 REVERT JUMPDEST PUSH1 0x3 PUSH1 0x0 DUP4 PUSH20 0xFFFFFFFFFFFFFFFFFFFFFFFFFFFFFFFFFFFFFFFF AND PUSH20 0xFFFFFFFFFFFFFFFFFFFFFFFFFFFFFFFFFFFFFFFF AND DUP2 MSTORE PUSH1 0x20 ADD SWAP1 DUP2 MSTORE PUSH1 0x20 ADD PUSH1 0x0 KECCAK256 SLOAD SWAP1 POP SWAP2 SWAP1 POP JUMP JUMPDEST PUSH32 0x877BC3E3DBF475EAD0821FEA1E1BE8E57A0C7200FE646D2D6EE72FDC77374440 PUSH2 0x309 PUSH1 0x40 MLOAD PUSH2 0xB16 SWAP2 SWAP1 PUSH2 0x3F73 JUMP JUMPDEST PUSH1 0x40 MLOAD DUP1 SWAP2 SUB SWAP1 LOG1 PUSH1 0x0 PUSH1 0x1 PUSH8 0xFFFFFFFFFFFFFFFF DUP2 GT ISZERO PUSH2 0xB3B JUMPI PUSH2 0xB3A PUSH2 0x483B JUMP JUMPDEST JUMPDEST PUSH1 0x40 MLOAD SWAP1 DUP1 DUP3 MSTORE DUP1 PUSH1 0x20 MUL PUSH1 0x20 ADD DUP3 ADD PUSH1 0x40 MSTORE DUP1 ISZERO PUSH2 0xB69 JUMPI DUP2 PUSH1 0x20 ADD PUSH1 0x20 DUP3 MUL DUP1 CALLDATASIZE DUP4 CALLDATACOPY DUP1 DUP3 ADD SWAP2 POP POP SWAP1 POP JUMPDEST POP SWAP1 POP DUP2 DUP2 PUSH1 0x0 DUP2 MLOAD DUP2 LT PUSH2 0xB81 JUMPI PUSH2 0xB80 PUSH2 0x480C JUMP JUMPDEST JUMPDEST PUSH1 0x20 MUL PUSH1 0x20 ADD ADD DUP2 DUP2 MSTORE POP POP PUSH1 0xA PUSH1 0x0 SWAP1 SLOAD SWAP1 PUSH2 0x100 EXP SWAP1 DIV PUSH20 0xFFFFFFFFFFFFFFFFFFFFFFFFFFFFFFFFFFFFFFFF AND PUSH20 0xFFFFFFFFFFFFFFFFFFFFFFFFFFFFFFFFFFFFFFFF AND PUSH4 0x2C9DD5C0 PUSH1 0xC SLOAD DUP4 PUSH1 0x40 MLOAD DUP4 PUSH4 0xFFFFFFFF AND PUSH1 0xE0 SHL DUP2 MSTORE PUSH1 0x4 ADD PUSH2 0xBEC SWAP3 SWAP2 SWAP1 PUSH2 0x41CB JUMP JUMPDEST PUSH1 0x20 PUSH1 0x40 MLOAD DUP1 DUP4 SUB DUP2 PUSH1 0x0 DUP8 DUP1 EXTCODESIZE ISZERO DUP1 ISZERO PUSH2 0xC06 JUMPI PUSH1 0x0 DUP1 REVERT JUMPDEST POP GAS CALL ISZERO DUP1 ISZERO PUSH2 0xC1A JUMPI RETURNDATASIZE PUSH1 0x0 DUP1 RETURNDATACOPY RETURNDATASIZE PUSH1 0x0 REVERT JUMPDEST POP POP POP POP PUSH1 0x40 MLOAD RETURNDATASIZE PUSH1 0x1F NOT PUSH1 0x1F DUP3 ADD AND DUP3 ADD DUP1 PUSH1 0x40 MSTORE POP DUP2 ADD SWAP1 PUSH2 0xC3E SWAP2 SWAP1 PUSH2 0x3949 JUMP JUMPDEST POP PUSH32 0x877BC3E3DBF475EAD0821FEA1E1BE8E57A0C7200FE646D2D6EE72FDC77374440 DUP3 PUSH1 0x40 MLOAD PUSH2 0xC6E SWAP2 SWAP1 PUSH2 0x41B0 JUMP JUMPDEST PUSH1 0x40 MLOAD DUP1 SWAP2 SUB SWAP1 LOG1 POP POP JUMP JUMPDEST PUSH32 0xED9918E573B159B62731BC88263B9CE84E79C6335FBBA2B28F981840126E16F PUSH2 0x2B67 PUSH1 0x40 MLOAD PUSH2 0xCAB SWAP2 SWAP1 PUSH2 0x3F07 JUMP JUMPDEST PUSH1 0x40 MLOAD DUP1 SWAP2 SUB SWAP1 LOG1 PUSH1 0x0 PUSH1 0x2 PUSH8 0xFFFFFFFFFFFFFFFF DUP2 GT ISZERO PUSH2 0xCD0 JUMPI PUSH2 0xCCF PUSH2 0x483B JUMP JUMPDEST JUMPDEST PUSH1 0x40 MLOAD SWAP1 DUP1 DUP3 MSTORE DUP1 PUSH1 0x20 MUL PUSH1 0x20 ADD DUP3 ADD PUSH1 0x40 MSTORE DUP1 ISZERO PUSH2 0xCFE JUMPI DUP2 PUSH1 0x20 ADD PUSH1 0x20 DUP3 MUL DUP1 CALLDATASIZE DUP4 CALLDATACOPY DUP1 DUP3 ADD SWAP2 POP POP SWAP1 POP JUMPDEST POP SWAP1 POP DUP3 DUP2 PUSH1 0x0 DUP2 MLOAD DUP2 LT PUSH2 0xD16 JUMPI PUSH2 0xD15 PUSH2 0x480C JUMP JUMPDEST JUMPDEST PUSH1 0x20 MUL PUSH1 0x20 ADD ADD DUP2 DUP2 MSTORE POP POP DUP2 DUP2 PUSH1 0x1 DUP2 MLOAD DUP2 LT PUSH2 0xD37 JUMPI PUSH2 0xD36 PUSH2 0x480C JUMP JUMPDEST JUMPDEST PUSH1 0x20 MUL PUSH1 0x20 ADD ADD DUP2 DUP2 MSTORE POP POP PUSH1 0xA PUSH1 0x0 SWAP1 SLOAD SWAP1 PUSH2 0x100 EXP SWAP1 DIV PUSH20 0xFFFFFFFFFFFFFFFFFFFFFFFFFFFFFFFFFFFFFFFF AND PUSH20 0xFFFFFFFFFFFFFFFFFFFFFFFFFFFFFFFFFFFFFFFF AND PUSH4 0x2C9DD5C0 PUSH1 0xC SLOAD DUP4 PUSH1 0x40 MLOAD DUP4 PUSH4 0xFFFFFFFF AND PUSH1 0xE0 SHL DUP2 MSTORE PUSH1 0x4 ADD PUSH2 0xDA2 SWAP3 SWAP2 SWAP1 PUSH2 0x41CB JUMP JUMPDEST PUSH1 0x20 PUSH1 0x40 MLOAD DUP1 DUP4 SUB DUP2 PUSH1 0x0 DUP8 DUP1 EXTCODESIZE ISZERO DUP1 ISZERO PUSH2 0xDBC JUMPI PUSH1 0x0 DUP1 REVERT JUMPDEST POP GAS CALL ISZERO DUP1 ISZERO PUSH2 0xDD0 JUMPI RETURNDATASIZE PUSH1 0x0 DUP1 RETURNDATACOPY RETURNDATASIZE PUSH1 0x0 REVERT JUMPDEST POP POP POP POP PUSH1 0x40 MLOAD RETURNDATASIZE PUSH1 0x1F NOT PUSH1 0x1F DUP3 ADD AND DUP3 ADD DUP1 PUSH1 0x40 MSTORE POP DUP2 ADD SWAP1 PUSH2 0xDF4 SWAP2 SWAP1 PUSH2 0x3949 JUMP JUMPDEST POP PUSH1 0xE DUP4 DUP2 SLOAD DUP2 LT PUSH2 0xE09 JUMPI PUSH2 0xE08 PUSH2 0x480C JUMP JUMPDEST JUMPDEST SWAP1 PUSH1 0x0 MSTORE PUSH1 0x20 PUSH1 0x0 KECCAK256 SWAP1 PUSH1 0xC MUL ADD PUSH1 0xF PUSH1 0x0 DUP5 DUP2 MSTORE PUSH1 0x20 ADD SWAP1 DUP2 MSTORE PUSH1 0x20 ADD PUSH1 0x0 KECCAK256 PUSH1 0x0 DUP3 ADD SLOAD DUP2 PUSH1 0x0 ADD SSTORE PUSH1 0x1 DUP3 ADD SLOAD DUP2 PUSH1 0x1 ADD SSTORE PUSH1 0x2 DUP3 ADD SLOAD DUP2 PUSH1 0x2 ADD SSTORE PUSH1 0x3 DUP3 ADD SLOAD DUP2 PUSH1 0x3 ADD SSTORE PUSH1 0x4 DUP3 ADD SLOAD DUP2 PUSH1 0x4 ADD SSTORE PUSH1 0x5 DUP3 ADD SLOAD DUP2 PUSH1 0x5 ADD SSTORE PUSH1 0x6 DUP3 ADD SLOAD DUP2 PUSH1 0x6 ADD SSTORE PUSH1 0x7 DUP3 ADD SLOAD DUP2 PUSH1 0x7 ADD SSTORE PUSH1 0x8 DUP3 ADD SLOAD DUP2 PUSH1 0x8 ADD SSTORE PUSH1 0x9 DUP3 ADD SLOAD DUP2 PUSH1 0x9 ADD SSTORE PUSH1 0xA DUP3 ADD SLOAD DUP2 PUSH1 0xA ADD SSTORE PUSH1 0xB DUP3 ADD SLOAD DUP2 PUSH1 0xB ADD SSTORE SWAP1 POP POP PUSH32 0xB8D7090364DA4A6371334296AAF588E8D119F8490AC61CE968A539406164F5FB PUSH1 0xC SLOAD DUP5 DUP5 PUSH1 0x40 MLOAD PUSH2 0xEDA SWAP4 SWAP3 SWAP2 SWAP1 PUSH2 0x4239 JUMP JUMPDEST PUSH1 0x40 MLOAD DUP1 SWAP2 SUB SWAP1 LOG1 POP POP POP JUMP JUMPDEST PUSH1 0xE DUP2 DUP2 SLOAD DUP2 LT PUSH2 0xEF7 JUMPI PUSH1 0x0 DUP1 REVERT JUMPDEST SWAP1 PUSH1 0x0 MSTORE PUSH1 0x20 PUSH1 0x0 KECCAK256 SWAP1 PUSH1 0xC MUL ADD PUSH1 0x0 SWAP2 POP SWAP1 POP DUP1 PUSH1 0x0 ADD SLOAD SWAP1 DUP1 PUSH1 0x1 ADD SLOAD SWAP1 DUP1 PUSH1 0x2 ADD SLOAD SWAP1 DUP1 PUSH1 0x3 ADD SLOAD SWAP1 DUP1 PUSH1 0x4 ADD SLOAD SWAP1 DUP1 PUSH1 0x5 ADD SLOAD SWAP1 DUP1 PUSH1 0x6 ADD SLOAD SWAP1 DUP1 PUSH1 0x7 ADD SLOAD SWAP1 DUP1 PUSH1 0x8 ADD SLOAD SWAP1 DUP1 PUSH1 0x9 ADD SLOAD SWAP1 DUP1 PUSH1 0xA ADD SLOAD SWAP1 DUP1 PUSH1 0xB ADD SLOAD SWAP1 POP DUP13 JUMP JUMPDEST PUSH32 0x3593DF2963C20760AFEEC7BC9AE99F0AD8227EC08877590930B113D33DF9C067 PUSH1 0x1 PUSH1 0x40 MLOAD PUSH2 0xF87 SWAP2 SWAP1 PUSH2 0x3F22 JUMP JUMPDEST PUSH1 0x40 MLOAD DUP1 SWAP2 SUB SWAP1 LOG1 PUSH1 0x0 PUSH1 0xE DUP4 DUP2 SLOAD DUP2 LT PUSH2 0xFA5 JUMPI PUSH2 0xFA4 PUSH2 0x480C JUMP JUMPDEST JUMPDEST SWAP1 PUSH1 0x0 MSTORE PUSH1 0x20 PUSH1 0x0 KECCAK256 SWAP1 PUSH1 0xC MUL ADD PUSH1 0x40 MLOAD DUP1 PUSH2 0x180 ADD PUSH1 0x40 MSTORE SWAP1 DUP2 PUSH1 0x0 DUP3 ADD SLOAD DUP2 MSTORE PUSH1 0x20 ADD PUSH1 0x1 DUP3 ADD SLOAD DUP2 MSTORE PUSH1 0x20 ADD PUSH1 0x2 DUP3 ADD SLOAD DUP2 MSTORE PUSH1 0x20 ADD PUSH1 0x3 DUP3 ADD SLOAD DUP2 MSTORE PUSH1 0x20 ADD PUSH1 0x4 DUP3 ADD SLOAD DUP2 MSTORE PUSH1 0x20 ADD PUSH1 0x5 DUP3 ADD SLOAD DUP2 MSTORE PUSH1 0x20 ADD PUSH1 0x6 DUP3 ADD SLOAD DUP2 MSTORE PUSH1 0x20 ADD PUSH1 0x7 DUP3 ADD SLOAD DUP2 MSTORE PUSH1 0x20 ADD PUSH1 0x8 DUP3 ADD SLOAD DUP2 MSTORE PUSH1 0x20 ADD PUSH1 0x9 DUP3 ADD SLOAD DUP2 MSTORE PUSH1 0x20 ADD PUSH1 0xA DUP3 ADD SLOAD DUP2 MSTORE PUSH1 0x20 ADD PUSH1 0xB DUP3 ADD SLOAD DUP2 MSTORE POP POP SWAP1 POP PUSH1 0x0 PUSH1 0xE DUP4 DUP2 SLOAD DUP2 LT PUSH2 0x104F JUMPI PUSH2 0x104E PUSH2 0x480C JUMP JUMPDEST JUMPDEST SWAP1 PUSH1 0x0 MSTORE PUSH1 0x20 PUSH1 0x0 KECCAK256 SWAP1 PUSH1 0xC MUL ADD PUSH1 0x40 MLOAD DUP1 PUSH2 0x180 ADD PUSH1 0x40 MSTORE SWAP1 DUP2 PUSH1 0x0 DUP3 ADD SLOAD DUP2 MSTORE PUSH1 0x20 ADD PUSH1 0x1 DUP3 ADD SLOAD DUP2 MSTORE PUSH1 0x20 ADD PUSH1 0x2 DUP3 ADD SLOAD DUP2 MSTORE PUSH1 0x20 ADD PUSH1 0x3 DUP3 ADD SLOAD DUP2 MSTORE PUSH1 0x20 ADD PUSH1 0x4 DUP3 ADD SLOAD DUP2 MSTORE PUSH1 0x20 ADD PUSH1 0x5 DUP3 ADD SLOAD DUP2 MSTORE PUSH1 0x20 ADD PUSH1 0x6 DUP3 ADD SLOAD DUP2 MSTORE PUSH1 0x20 ADD PUSH1 0x7 DUP3 ADD SLOAD DUP2 MSTORE PUSH1 0x20 ADD PUSH1 0x8 DUP3 ADD SLOAD DUP2 MSTORE PUSH1 0x20 ADD PUSH1 0x9 DUP3 ADD SLOAD DUP2 MSTORE PUSH1 0x20 ADD PUSH1 0xA DUP3 ADD SLOAD DUP2 MSTORE PUSH1 0x20 ADD PUSH1 0xB DUP3 ADD SLOAD DUP2 MSTORE POP POP SWAP1 POP PUSH1 0x0 PUSH2 0x10ED PUSH2 0x1F3A JUMP JUMPDEST SWAP1 POP PUSH32 0x3593DF2963C20760AFEEC7BC9AE99F0AD8227EC08877590930B113D33DF9C067 PUSH1 0x2 PUSH1 0x40 MLOAD PUSH2 0x111F SWAP2 SWAP1 PUSH2 0x3F3D JUMP JUMPDEST PUSH1 0x40 MLOAD DUP1 SWAP2 SUB SWAP1 LOG1 PUSH1 0x0 PUSH1 0x19 PUSH8 0xFFFFFFFFFFFFFFFF DUP2 GT ISZERO PUSH2 0x1144 JUMPI PUSH2 0x1143 PUSH2 0x483B JUMP JUMPDEST JUMPDEST PUSH1 0x40 MLOAD SWAP1 DUP1 DUP3 MSTORE DUP1 PUSH1 0x20 MUL PUSH1 0x20 ADD DUP3 ADD PUSH1 0x40 MSTORE DUP1 ISZERO PUSH2 0x1172 JUMPI DUP2 PUSH1 0x20 ADD PUSH1 0x20 DUP3 MUL DUP1 CALLDATASIZE DUP4 CALLDATACOPY DUP1 DUP3 ADD SWAP2 POP POP SWAP1 POP JUMPDEST POP SWAP1 POP DUP4 PUSH1 0x0 ADD MLOAD DUP2 PUSH1 0x0 DUP2 MLOAD DUP2 LT PUSH2 0x118E JUMPI PUSH2 0x118D PUSH2 0x480C JUMP JUMPDEST JUMPDEST PUSH1 0x20 MUL PUSH1 0x20 ADD ADD DUP2 DUP2 MSTORE POP POP DUP4 PUSH1 0x20 ADD MLOAD DUP2 PUSH1 0x1 DUP2 MLOAD DUP2 LT PUSH2 0x11B3 JUMPI PUSH2 0x11B2 PUSH2 0x480C JUMP JUMPDEST JUMPDEST PUSH1 0x20 MUL PUSH1 0x20 ADD ADD DUP2 DUP2 MSTORE POP POP DUP4 PUSH1 0x40 ADD MLOAD DUP2 PUSH1 0x2 DUP2 MLOAD DUP2 LT PUSH2 0x11D8 JUMPI PUSH2 0x11D7 PUSH2 0x480C JUMP JUMPDEST JUMPDEST PUSH1 0x20 MUL PUSH1 0x20 ADD ADD DUP2 DUP2 MSTORE POP POP DUP4 PUSH1 0x60 ADD MLOAD DUP2 PUSH1 0x3 DUP2 MLOAD DUP2 LT PUSH2 0x11FD JUMPI PUSH2 0x11FC PUSH2 0x480C JUMP JUMPDEST JUMPDEST PUSH1 0x20 MUL PUSH1 0x20 ADD ADD DUP2 DUP2 MSTORE POP POP DUP4 PUSH1 0x80 ADD MLOAD DUP2 PUSH1 0x4 DUP2 MLOAD DUP2 LT PUSH2 0x1222 JUMPI PUSH2 0x1221 PUSH2 0x480C JUMP JUMPDEST JUMPDEST PUSH1 0x20 MUL PUSH1 0x20 ADD ADD DUP2 DUP2 MSTORE POP POP DUP4 PUSH1 0xA0 ADD MLOAD DUP2 PUSH1 0x5 DUP2 MLOAD DUP2 LT PUSH2 0x1247 JUMPI PUSH2 0x1246 PUSH2 0x480C JUMP JUMPDEST JUMPDEST PUSH1 0x20 MUL PUSH1 0x20 ADD ADD DUP2 DUP2 MSTORE POP POP DUP4 PUSH1 0xC0 ADD MLOAD DUP2 PUSH1 0x6 DUP2 MLOAD DUP2 LT PUSH2 0x126C JUMPI PUSH2 0x126B PUSH2 0x480C JUMP JUMPDEST JUMPDEST PUSH1 0x20 MUL PUSH1 0x20 ADD ADD DUP2 DUP2 MSTORE POP POP DUP4 PUSH1 0xE0 ADD MLOAD DUP2 PUSH1 0x7 DUP2 MLOAD DUP2 LT PUSH2 0x1291 JUMPI PUSH2 0x1290 PUSH2 0x480C JUMP JUMPDEST JUMPDEST PUSH1 0x20 MUL PUSH1 0x20 ADD ADD DUP2 DUP2 MSTORE POP POP DUP4 PUSH2 0x100 ADD MLOAD DUP2 PUSH1 0x8 DUP2 MLOAD DUP2 LT PUSH2 0x12B7 JUMPI PUSH2 0x12B6 PUSH2 0x480C JUMP JUMPDEST JUMPDEST PUSH1 0x20 MUL PUSH1 0x20 ADD ADD DUP2 DUP2 MSTORE POP POP DUP4 PUSH2 0x120 ADD MLOAD DUP2 PUSH1 0x9 DUP2 MLOAD DUP2 LT PUSH2 0x12DD JUMPI PUSH2 0x12DC PUSH2 0x480C JUMP JUMPDEST JUMPDEST PUSH1 0x20 MUL PUSH1 0x20 ADD ADD DUP2 DUP2 MSTORE POP POP DUP4 PUSH2 0x140 ADD MLOAD DUP2 PUSH1 0xA DUP2 MLOAD DUP2 LT PUSH2 0x1303 JUMPI PUSH2 0x1302 PUSH2 0x480C JUMP JUMPDEST JUMPDEST PUSH1 0x20 MUL PUSH1 0x20 ADD ADD DUP2 DUP2 MSTORE POP POP DUP4 PUSH2 0x160 ADD MLOAD DUP2 PUSH1 0xB DUP2 MLOAD DUP2 LT PUSH2 0x1329 JUMPI PUSH2 0x1328 PUSH2 0x480C JUMP JUMPDEST JUMPDEST PUSH1 0x20 MUL PUSH1 0x20 ADD ADD DUP2 DUP2 MSTORE POP POP DUP3 PUSH1 0x0 ADD MLOAD DUP2 PUSH1 0xC DUP2 MLOAD DUP2 LT PUSH2 0x134E JUMPI PUSH2 0x134D PUSH2 0x480C JUMP JUMPDEST JUMPDEST PUSH1 0x20 MUL PUSH1 0x20 ADD ADD DUP2 DUP2 MSTORE POP POP DUP3 PUSH1 0x20 ADD MLOAD DUP2 PUSH1 0xD DUP2 MLOAD DUP2 LT PUSH2 0x1373 JUMPI PUSH2 0x1372 PUSH2 0x480C JUMP JUMPDEST JUMPDEST PUSH1 0x20 MUL PUSH1 0x20 ADD ADD DUP2 DUP2 MSTORE POP POP DUP3 PUSH1 0x40 ADD MLOAD DUP2 PUSH1 0xE DUP2 MLOAD DUP2 LT PUSH2 0x1398 JUMPI PUSH2 0x1397 PUSH2 0x480C JUMP JUMPDEST JUMPDEST PUSH1 0x20 MUL PUSH1 0x20 ADD ADD DUP2 DUP2 MSTORE POP POP DUP3 PUSH1 0x60 ADD MLOAD DUP2 PUSH1 0xF DUP2 MLOAD DUP2 LT PUSH2 0x13BD JUMPI PUSH2 0x13BC PUSH2 0x480C JUMP JUMPDEST JUMPDEST PUSH1 0x20 MUL PUSH1 0x20 ADD ADD DUP2 DUP2 MSTORE POP POP DUP3 PUSH1 0x80 ADD MLOAD DUP2 PUSH1 0x10 DUP2 MLOAD DUP2 LT PUSH2 0x13E2 JUMPI PUSH2 0x13E1 PUSH2 0x480C JUMP JUMPDEST JUMPDEST PUSH1 0x20 MUL PUSH1 0x20 ADD ADD DUP2 DUP2 MSTORE POP POP DUP3 PUSH1 0xA0 ADD MLOAD DUP2 PUSH1 0x11 DUP2 MLOAD DUP2 LT PUSH2 0x1407 JUMPI PUSH2 0x1406 PUSH2 0x480C JUMP JUMPDEST JUMPDEST PUSH1 0x20 MUL PUSH1 0x20 ADD ADD DUP2 DUP2 MSTORE POP POP DUP3 PUSH1 0xC0 ADD MLOAD DUP2 PUSH1 0x12 DUP2 MLOAD DUP2 LT PUSH2 0x142C JUMPI PUSH2 0x142B PUSH2 0x480C JUMP JUMPDEST JUMPDEST PUSH1 0x20 MUL PUSH1 0x20 ADD ADD DUP2 DUP2 MSTORE POP POP DUP3 PUSH1 0xE0 ADD MLOAD DUP2 PUSH1 0x13 DUP2 MLOAD DUP2 LT PUSH2 0x1451 JUMPI PUSH2 0x1450 PUSH2 0x480C JUMP JUMPDEST JUMPDEST PUSH1 0x20 MUL PUSH1 0x20 ADD ADD DUP2 DUP2 MSTORE POP POP DUP3 PUSH2 0x100 ADD MLOAD DUP2 PUSH1 0x14 DUP2 MLOAD DUP2 LT PUSH2 0x1477 JUMPI PUSH2 0x1476 PUSH2 0x480C JUMP JUMPDEST JUMPDEST PUSH1 0x20 MUL PUSH1 0x20 ADD ADD DUP2 DUP2 MSTORE POP POP DUP3 PUSH2 0x120 ADD MLOAD DUP2 PUSH1 0x15 DUP2 MLOAD DUP2 LT PUSH2 0x149D JUMPI PUSH2 0x149C PUSH2 0x480C JUMP JUMPDEST JUMPDEST PUSH1 0x20 MUL PUSH1 0x20 ADD ADD DUP2 DUP2 MSTORE POP POP DUP3 PUSH2 0x140 ADD MLOAD DUP2 PUSH1 0x16 DUP2 MLOAD DUP2 LT PUSH2 0x14C3 JUMPI PUSH2 0x14C2 PUSH2 0x480C JUMP JUMPDEST JUMPDEST PUSH1 0x20 MUL PUSH1 0x20 ADD ADD DUP2 DUP2 MSTORE POP POP DUP3 PUSH2 0x160 ADD MLOAD DUP2 PUSH1 0x17 DUP2 MLOAD DUP2 LT PUSH2 0x14E9 JUMPI PUSH2 0x14E8 PUSH2 0x480C JUMP JUMPDEST JUMPDEST PUSH1 0x20 MUL PUSH1 0x20 ADD ADD DUP2 DUP2 MSTORE POP POP DUP2 DUP2 PUSH1 0x18 DUP2 MLOAD DUP2 LT PUSH2 0x150A JUMPI PUSH2 0x1509 PUSH2 0x480C JUMP JUMPDEST JUMPDEST PUSH1 0x20 MUL PUSH1 0x20 ADD ADD DUP2 DUP2 MSTORE POP POP PUSH32 0x3593DF2963C20760AFEEC7BC9AE99F0AD8227EC08877590930B113D33DF9C067 PUSH1 0x3 PUSH1 0x40 MLOAD PUSH2 0x1546 SWAP2 SWAP1 PUSH2 0x3F58 JUMP JUMPDEST PUSH1 0x40 MLOAD DUP1 SWAP2 SUB SWAP1 LOG1 PUSH1 0xA PUSH1 0x0 SWAP1 SLOAD SWAP1 PUSH2 0x100 EXP SWAP1 DIV PUSH20 0xFFFFFFFFFFFFFFFFFFFFFFFFFFFFFFFFFFFFFFFF AND PUSH20 0xFFFFFFFFFFFFFFFFFFFFFFFFFFFFFFFFFFFFFFFF AND PUSH4 0x3E3AA6C5 CALLVALUE PUSH1 0xC SLOAD PUSH32 0x397F7783310F752C90187FFFBD53489B1FF1F87FCF4636E32DC6BCBBF0B224F DUP6 PUSH1 0x40 MLOAD DUP6 PUSH4 0xFFFFFFFF AND PUSH1 0xE0 SHL DUP2 MSTORE PUSH1 0x4 ADD PUSH2 0x15D0 SWAP4 SWAP3 SWAP2 SWAP1 PUSH2 0x41FB JUMP JUMPDEST PUSH1 0x20 PUSH1 0x40 MLOAD DUP1 DUP4 SUB DUP2 DUP6 DUP9 DUP1 EXTCODESIZE ISZERO DUP1 ISZERO PUSH2 0x15E9 JUMPI PUSH1 0x0 DUP1 REVERT JUMPDEST POP GAS CALL ISZERO DUP1 ISZERO PUSH2 0x15FD JUMPI RETURNDATASIZE PUSH1 0x0 DUP1 RETURNDATACOPY RETURNDATASIZE PUSH1 0x0 REVERT JUMPDEST POP POP POP POP POP PUSH1 0x40 MLOAD RETURNDATASIZE PUSH1 0x1F NOT PUSH1 0x1F DUP3 ADD AND DUP3 ADD DUP1 PUSH1 0x40 MSTORE POP DUP2 ADD SWAP1 PUSH2 0x1622 SWAP2 SWAP1 PUSH2 0x3949 JUMP JUMPDEST POP CALLER PUSH20 0xFFFFFFFFFFFFFFFFFFFFFFFFFFFFFFFFFFFFFFFF AND PUSH32 0xD02FCE1ACAFA0B604F24AAAD2D7C0A36C749F4B333ABC05FC83BA197D5E0705C DUP6 PUSH1 0x0 ADD MLOAD DUP6 PUSH1 0x0 ADD MLOAD PUSH1 0xC SLOAD CALLVALUE PUSH1 0x40 MLOAD PUSH2 0x1679 SWAP5 SWAP4 SWAP3 SWAP2 SWAP1 PUSH2 0x4270 JUMP JUMPDEST PUSH1 0x40 MLOAD DUP1 SWAP2 SUB SWAP1 LOG2 POP POP POP POP POP POP JUMP JUMPDEST PUSH1 0x60 PUSH1 0x1 DUP1 SLOAD PUSH2 0x1698 SWAP1 PUSH2 0x4669 JUMP JUMPDEST DUP1 PUSH1 0x1F ADD PUSH1 0x20 DUP1 SWAP2 DIV MUL PUSH1 0x20 ADD PUSH1 0x40 MLOAD SWAP1 DUP2 ADD PUSH1 0x40 MSTORE DUP1 SWAP3 SWAP2 SWAP1 DUP2 DUP2 MSTORE PUSH1 0x20 ADD DUP3 DUP1 SLOAD PUSH2 0x16C4 SWAP1 PUSH2 0x4669 JUMP JUMPDEST DUP1 ISZERO PUSH2 0x1711 JUMPI DUP1 PUSH1 0x1F LT PUSH2 0x16E6 JUMPI PUSH2 0x100 DUP1 DUP4 SLOAD DIV MUL DUP4 MSTORE SWAP2 PUSH1 0x20 ADD SWAP2 PUSH2 0x1711 JUMP JUMPDEST DUP3 ADD SWAP2 SWAP1 PUSH1 0x0 MSTORE PUSH1 0x20 PUSH1 0x0 KECCAK256 SWAP1 JUMPDEST DUP2 SLOAD DUP2 MSTORE SWAP1 PUSH1 0x1 ADD SWAP1 PUSH1 0x20 ADD DUP1 DUP4 GT PUSH2 0x16F4 JUMPI DUP3 SWAP1 SUB PUSH1 0x1F AND DUP3 ADD SWAP2 JUMPDEST POP POP POP POP POP SWAP1 POP SWAP1 JUMP JUMPDEST PUSH1 0x0 PUSH1 0xE DUP1 SLOAD SWAP1 POP SWAP1 POP PUSH1 0x0 PUSH2 0x1731 DUP4 DUP4 PUSH2 0x1F58 JUMP JUMPDEST SWAP1 POP PUSH1 0xE DUP2 SWAP1 DUP1 PUSH1 0x1 DUP2 SLOAD ADD DUP1 DUP3 SSTORE DUP1 SWAP2 POP POP PUSH1 0x1 SWAP1 SUB SWAP1 PUSH1 0x0 MSTORE PUSH1 0x20 PUSH1 0x0 KECCAK256 SWAP1 PUSH1 0xC MUL ADD PUSH1 0x0 SWAP1 SWAP2 SWAP1 SWAP2 SWAP1 SWAP2 POP PUSH1 0x0 DUP3 ADD MLOAD DUP2 PUSH1 0x0 ADD SSTORE PUSH1 0x20 DUP3 ADD MLOAD DUP2 PUSH1 0x1 ADD SSTORE PUSH1 0x40 DUP3 ADD MLOAD DUP2 PUSH1 0x2 ADD SSTORE PUSH1 0x60 DUP3 ADD MLOAD DUP2 PUSH1 0x3 ADD SSTORE PUSH1 0x80 DUP3 ADD MLOAD DUP2 PUSH1 0x4 ADD SSTORE PUSH1 0xA0 DUP3 ADD MLOAD DUP2 PUSH1 0x5 ADD SSTORE PUSH1 0xC0 DUP3 ADD MLOAD DUP2 PUSH1 0x6 ADD SSTORE PUSH1 0xE0 DUP3 ADD MLOAD DUP2 PUSH1 0x7 ADD SSTORE PUSH2 0x100 DUP3 ADD MLOAD DUP2 PUSH1 0x8 ADD SSTORE PUSH2 0x120 DUP3 ADD MLOAD DUP2 PUSH1 0x9 ADD SSTORE PUSH2 0x140 DUP3 ADD MLOAD DUP2 PUSH1 0xA ADD SSTORE PUSH2 0x160 DUP3 ADD MLOAD DUP2 PUSH1 0xB ADD SSTORE POP POP PUSH32 0x4E55BD6DB2C9FFA320EAC64DF3B7D1A3BA28EE53CE174854FC3A1918243AA01C DUP3 DUP3 PUSH1 0x20 ADD MLOAD DUP4 PUSH1 0x40 ADD MLOAD DUP5 PUSH1 0x60 ADD MLOAD DUP6 PUSH1 0x80 ADD MLOAD PUSH1 0x40 MLOAD PUSH2 0x1824 SWAP6 SWAP5 SWAP4 SWAP3 SWAP2 SWAP1 PUSH2 0x42B5 JUMP JUMPDEST PUSH1 0x40 MLOAD DUP1 SWAP2 SUB SWAP1 LOG1 PUSH2 0x1836 CALLER DUP4 PUSH2 0x26E9 JUMP JUMPDEST POP POP POP JUMP JUMPDEST PUSH2 0x184D PUSH2 0x1846 PUSH2 0x1B34 JUMP JUMPDEST DUP4 DUP4 PUSH2 0x2707 JUMP JUMPDEST POP POP JUMP JUMPDEST PUSH2 0x1862 PUSH2 0x185C PUSH2 0x1B34 JUMP JUMPDEST DUP4 PUSH2 0x1BF5 JUMP JUMPDEST PUSH2 0x18A1 JUMPI PUSH1 0x40 MLOAD PUSH32 0x8C379A000000000000000000000000000000000000000000000000000000000 DUP2 MSTORE PUSH1 0x4 ADD PUSH2 0x1898 SWAP1 PUSH2 0x4170 JUMP JUMPDEST PUSH1 0x40 MLOAD DUP1 SWAP2 SUB SWAP1 REVERT JUMPDEST PUSH2 0x18AD DUP5 DUP5 DUP5 DUP5 PUSH2 0x2874 JUMP JUMPDEST POP POP POP POP JUMP JUMPDEST PUSH1 0x60 PUSH2 0x18BE DUP3 PUSH2 0x1AC8 JUMP JUMPDEST PUSH2 0x18FD JUMPI PUSH1 0x40 MLOAD PUSH32 0x8C379A000000000000000000000000000000000000000000000000000000000 DUP2 MSTORE PUSH1 0x4 ADD PUSH2 0x18F4 SWAP1 PUSH2 0x4130 JUMP JUMPDEST PUSH1 0x40 MLOAD DUP1 SWAP2 SUB SWAP1 REVERT JUMPDEST PUSH1 0x0 PUSH2 0x1907 PUSH2 0x28D0 JUMP JUMPDEST SWAP1 POP PUSH1 0x0 DUP2 MLOAD GT PUSH2 0x1927 JUMPI PUSH1 0x40 MLOAD DUP1 PUSH1 0x20 ADD PUSH1 0x40 MSTORE DUP1 PUSH1 0x0 DUP2 MSTORE POP PUSH2 0x1952 JUMP JUMPDEST DUP1 PUSH2 0x1931 DUP5 PUSH2 0x28E7 JUMP JUMPDEST PUSH1 0x40 MLOAD PUSH1 0x20 ADD PUSH2 0x1942 SWAP3 SWAP2 SWAP1 PUSH2 0x3E24 JUMP JUMPDEST PUSH1 0x40 MLOAD PUSH1 0x20 DUP2 DUP4 SUB SUB DUP2 MSTORE SWAP1 PUSH1 0x40 MSTORE JUMPDEST SWAP2 POP POP SWAP2 SWAP1 POP JUMP JUMPDEST PUSH1 0xF PUSH1 0x20 MSTORE DUP1 PUSH1 0x0 MSTORE PUSH1 0x40 PUSH1 0x0 KECCAK256 PUSH1 0x0 SWAP2 POP SWAP1 POP DUP1 PUSH1 0x0 ADD SLOAD SWAP1 DUP1 PUSH1 0x1 ADD SLOAD SWAP1 DUP1 PUSH1 0x2 ADD SLOAD SWAP1 DUP1 PUSH1 0x3 ADD SLOAD SWAP1 DUP1 PUSH1 0x4 ADD SLOAD SWAP1 DUP1 PUSH1 0x5 ADD SLOAD SWAP1 DUP1 PUSH1 0x6 ADD SLOAD SWAP1 DUP1 PUSH1 0x7 ADD SLOAD SWAP1 DUP1 PUSH1 0x8 ADD SLOAD SWAP1 DUP1 PUSH1 0x9 ADD SLOAD SWAP1 DUP1 PUSH1 0xA ADD SLOAD SWAP1 DUP1 PUSH1 0xB ADD SLOAD SWAP1 POP DUP13 JUMP JUMPDEST PUSH1 0x0 PUSH1 0x5 PUSH1 0x0 DUP5 PUSH20 0xFFFFFFFFFFFFFFFFFFFFFFFFFFFFFFFFFFFFFFFF AND PUSH20 0xFFFFFFFFFFFFFFFFFFFFFFFFFFFFFFFFFFFFFFFF AND DUP2 MSTORE PUSH1 0x20 ADD SWAP1 DUP2 MSTORE PUSH1 0x20 ADD PUSH1 0x0 KECCAK256 PUSH1 0x0 DUP4 PUSH20 0xFFFFFFFFFFFFFFFFFFFFFFFFFFFFFFFFFFFFFFFF AND PUSH20 0xFFFFFFFFFFFFFFFFFFFFFFFFFFFFFFFFFFFFFFFF AND DUP2 MSTORE PUSH1 0x20 ADD SWAP1 DUP2 MSTORE PUSH1 0x20 ADD PUSH1 0x0 KECCAK256 PUSH1 0x0 SWAP1 SLOAD SWAP1 PUSH2 0x100 EXP SWAP1 DIV PUSH1 0xFF AND SWAP1 POP SWAP3 SWAP2 POP POP JUMP JUMPDEST PUSH1 0x0 PUSH32 0x780E9D6300000000000000000000000000000000000000000000000000000000 PUSH28 0xFFFFFFFFFFFFFFFFFFFFFFFFFFFFFFFFFFFFFFFFFFFFFFFFFFFFFFFF NOT AND DUP3 PUSH28 0xFFFFFFFFFFFFFFFFFFFFFFFFFFFFFFFFFFFFFFFFFFFFFFFFFFFFFFFF NOT AND EQ DUP1 PUSH2 0x1AC1 JUMPI POP PUSH2 0x1AC0 DUP3 PUSH2 0x2A48 JUMP JUMPDEST JUMPDEST SWAP1 POP SWAP2 SWAP1 POP JUMP JUMPDEST PUSH1 0x0 DUP1 PUSH20 0xFFFFFFFFFFFFFFFFFFFFFFFFFFFFFFFFFFFFFFFF AND PUSH1 0x2 PUSH1 0x0 DUP5 DUP2 MSTORE PUSH1 0x20 ADD SWAP1 DUP2 MSTORE PUSH1 0x20 ADD PUSH1 0x0 KECCAK256 PUSH1 0x0 SWAP1 SLOAD SWAP1 PUSH2 0x100 EXP SWAP1 DIV PUSH20 0xFFFFFFFFFFFFFFFFFFFFFFFFFFFFFFFFFFFFFFFF AND PUSH20 0xFFFFFFFFFFFFFFFFFFFFFFFFFFFFFFFFFFFFFFFF AND EQ ISZERO SWAP1 POP SWAP2 SWAP1 POP JUMP JUMPDEST PUSH1 0x0 CALLER SWAP1 POP SWAP1 JUMP JUMPDEST DUP2 PUSH1 0x4 PUSH1 0x0 DUP4 DUP2 MSTORE PUSH1 0x20 ADD SWAP1 DUP2 MSTORE PUSH1 0x20 ADD PUSH1 0x0 KECCAK256 PUSH1 0x0 PUSH2 0x100 EXP DUP2 SLOAD DUP2 PUSH20 0xFFFFFFFFFFFFFFFFFFFFFFFFFFFFFFFFFFFFFFFF MUL NOT AND SWAP1 DUP4 PUSH20 0xFFFFFFFFFFFFFFFFFFFFFFFFFFFFFFFFFFFFFFFF AND MUL OR SWAP1 SSTORE POP DUP1 DUP3 PUSH20 0xFFFFFFFFFFFFFFFFFFFFFFFFFFFFFFFFFFFFFFFF AND PUSH2 0x1BAF DUP4 PUSH2 0x97B JUMP JUMPDEST PUSH20 0xFFFFFFFFFFFFFFFFFFFFFFFFFFFFFFFFFFFFFFFF AND PUSH32 0x8C5BE1E5EBEC7D5BD14F71427D1E84F3DD0314C0F7B2291E5B200AC8C7C3B925 PUSH1 0x40 MLOAD PUSH1 0x40 MLOAD DUP1 SWAP2 SUB SWAP1 LOG4 POP POP JUMP JUMPDEST PUSH1 0x0 PUSH2 0x1C00 DUP3 PUSH2 0x1AC8 JUMP JUMPDEST PUSH2 0x1C3F JUMPI PUSH1 0x40 MLOAD PUSH32 0x8C379A000000000000000000000000000000000000000000000000000000000 DUP2 MSTORE PUSH1 0x4 ADD PUSH2 0x1C36 SWAP1 PUSH2 0x4070 JUMP JUMPDEST PUSH1 0x40 MLOAD DUP1 SWAP2 SUB SWAP1 REVERT JUMPDEST PUSH1 0x0 PUSH2 0x1C4A DUP4 PUSH2 0x97B JUMP JUMPDEST SWAP1 POP DUP1 PUSH20 0xFFFFFFFFFFFFFFFFFFFFFFFFFFFFFFFFFFFFFFFF AND DUP5 PUSH20 0xFFFFFFFFFFFFFFFFFFFFFFFFFFFFFFFFFFFFFFFF AND EQ DUP1 PUSH2 0x1C8C JUMPI POP PUSH2 0x1C8B DUP2 DUP6 PUSH2 0x19BA JUMP JUMPDEST JUMPDEST DUP1 PUSH2 0x1CCA JUMPI POP DUP4 PUSH20 0xFFFFFFFFFFFFFFFFFFFFFFFFFFFFFFFFFFFFFFFF AND PUSH2 0x1CB2 DUP5 PUSH2 0x63B JUMP JUMPDEST PUSH20 0xFFFFFFFFFFFFFFFFFFFFFFFFFFFFFFFFFFFFFFFF AND EQ JUMPDEST SWAP2 POP POP SWAP3 SWAP2 POP POP JUMP JUMPDEST DUP3 PUSH20 0xFFFFFFFFFFFFFFFFFFFFFFFFFFFFFFFFFFFFFFFF AND PUSH2 0x1CF3 DUP3 PUSH2 0x97B JUMP JUMPDEST PUSH20 0xFFFFFFFFFFFFFFFFFFFFFFFFFFFFFFFFFFFFFFFF AND EQ PUSH2 0x1D49 JUMPI PUSH1 0x40 MLOAD PUSH32 0x8C379A000000000000000000000000000000000000000000000000000000000 DUP2 MSTORE PUSH1 0x4 ADD PUSH2 0x1D40 SWAP1 PUSH2 0x3FF0 JUMP JUMPDEST PUSH1 0x40 MLOAD DUP1 SWAP2 SUB SWAP1 REVERT JUMPDEST PUSH1 0x0 PUSH20 0xFFFFFFFFFFFFFFFFFFFFFFFFFFFFFFFFFFFFFFFF AND DUP3 PUSH20 0xFFFFFFFFFFFFFFFFFFFFFFFFFFFFFFFFFFFFFFFF AND EQ ISZERO PUSH2 0x1DB9 JUMPI PUSH1 0x40 MLOAD PUSH32 0x8C379A000000000000000000000000000000000000000000000000000000000 DUP2 MSTORE PUSH1 0x4 ADD PUSH2 0x1DB0 SWAP1 PUSH2 0x4030 JUMP JUMPDEST PUSH1 0x40 MLOAD DUP1 SWAP2 SUB SWAP1 REVERT JUMPDEST PUSH2 0x1DC4 DUP4 DUP4 DUP4 PUSH2 0x2B2A JUMP JUMPDEST PUSH2 0x1DCF PUSH1 0x0 DUP3 PUSH2 0x1B3C JUMP JUMPDEST PUSH1 0x1 PUSH1 0x3 PUSH1 0x0 DUP6 PUSH20 0xFFFFFFFFFFFFFFFFFFFFFFFFFFFFFFFFFFFFFFFF AND PUSH20 0xFFFFFFFFFFFFFFFFFFFFFFFFFFFFFFFFFFFFFFFF AND DUP2 MSTORE PUSH1 0x20 ADD SWAP1 DUP2 MSTORE PUSH1 0x20 ADD PUSH1 0x0 KECCAK256 PUSH1 0x0 DUP3 DUP3 SLOAD PUSH2 0x1E1F SWAP2 SWAP1 PUSH2 0x451B JUMP JUMPDEST SWAP3 POP POP DUP2 SWAP1 SSTORE POP PUSH1 0x1 PUSH1 0x3 PUSH1 0x0 DUP5 PUSH20 0xFFFFFFFFFFFFFFFFFFFFFFFFFFFFFFFFFFFFFFFF AND PUSH20 0xFFFFFFFFFFFFFFFFFFFFFFFFFFFFFFFFFFFFFFFF AND DUP2 MSTORE PUSH1 0x20 ADD SWAP1 DUP2 MSTORE PUSH1 0x20 ADD PUSH1 0x0 KECCAK256 PUSH1 0x0 DUP3 DUP3 SLOAD PUSH2 0x1E76 SWAP2 SWAP1 PUSH2 0x4494 JUMP JUMPDEST SWAP3 POP POP DUP2 SWAP1 SSTORE POP DUP2 PUSH1 0x2 PUSH1 0x0 DUP4 DUP2 MSTORE PUSH1 0x20 ADD SWAP1 DUP2 MSTORE PUSH1 0x20 ADD PUSH1 0x0 KECCAK256 PUSH1 0x0 PUSH2 0x100 EXP DUP2 SLOAD DUP2 PUSH20 0xFFFFFFFFFFFFFFFFFFFFFFFFFFFFFFFFFFFFFFFF MUL NOT AND SWAP1 DUP4 PUSH20 0xFFFFFFFFFFFFFFFFFFFFFFFFFFFFFFFFFFFFFFFF AND MUL OR SWAP1 SSTORE POP DUP1 DUP3 PUSH20 0xFFFFFFFFFFFFFFFFFFFFFFFFFFFFFFFFFFFFFFFF AND DUP5 PUSH20 0xFFFFFFFFFFFFFFFFFFFFFFFFFFFFFFFFFFFFFFFF AND PUSH32 0xDDF252AD1BE2C89B69C2B068FC378DAA952BA7F163C4A11628F55A4DF523B3EF PUSH1 0x40 MLOAD PUSH1 0x40 MLOAD DUP1 SWAP2 SUB SWAP1 LOG4 PUSH2 0x1F35 DUP4 DUP4 DUP4 PUSH2 0x2B3A JUMP JUMPDEST POP POP POP JUMP JUMPDEST PUSH1 0x0 PUSH1 0xD PUSH1 0x0 DUP2 SLOAD DUP1 SWAP3 SWAP2 SWAP1 PUSH2 0x1F4F SWAP1 PUSH2 0x46CC JUMP JUMPDEST SWAP2 SWAP1 POP SSTORE SWAP1 POP SWAP1 JUMP JUMPDEST PUSH2 0x1F60 PUSH2 0x3637 JUMP JUMPDEST PUSH1 0x1 DUP4 EQ ISZERO PUSH2 0x1F9A JUMPI PUSH2 0x1F93 DUP3 PUSH1 0x98 PUSH1 0x6F PUSH1 0x6A PUSH1 0x6F PUSH1 0x3 PUSH1 0x63 PUSH1 0x3 PUSH1 0x1E PUSH2 0x1F85 PUSH2 0x2B3F JUMP JUMPDEST PUSH2 0x1F8D PUSH2 0x2B50 JUMP JUMPDEST DUP15 PUSH2 0x2B6D JUMP JUMPDEST SWAP1 POP PUSH2 0x26E3 JUMP JUMPDEST PUSH1 0x2 DUP4 EQ ISZERO PUSH2 0x1FD4 JUMPI PUSH2 0x1FCD DUP3 PUSH1 0xA7 PUSH1 0x7D PUSH1 0x7B PUSH1 0x7E PUSH1 0x3 PUSH1 0x7 PUSH1 0x3 PUSH1 0x28 PUSH2 0x1FBF PUSH2 0x2B3F JUMP JUMPDEST PUSH2 0x1FC7 PUSH2 0x2B50 JUMP JUMPDEST DUP15 PUSH2 0x2B6D JUMP JUMPDEST SWAP1 POP PUSH2 0x26E3 JUMP JUMPDEST PUSH1 0x3 DUP4 EQ ISZERO PUSH2 0x200E JUMPI PUSH2 0x2007 DUP3 PUSH1 0xBB PUSH1 0xA7 PUSH1 0x91 PUSH1 0xC0 PUSH1 0x3 PUSH1 0x7 PUSH1 0x3 PUSH1 0x32 PUSH2 0x1FF9 PUSH2 0x2B3F JUMP JUMPDEST PUSH2 0x2001 PUSH2 0x2B50 JUMP JUMPDEST DUP15 PUSH2 0x2B6D JUMP JUMPDEST SWAP1 POP PUSH2 0x26E3 JUMP JUMPDEST PUSH1 0x4 DUP4 EQ ISZERO PUSH2 0x2048 JUMPI PUSH2 0x2041 DUP3 PUSH1 0x92 PUSH1 0x72 PUSH1 0x80 PUSH1 0x68 PUSH1 0x1 PUSH1 0x63 PUSH1 0x1 PUSH1 0x28 PUSH2 0x2033 PUSH2 0x2B3F JUMP JUMPDEST PUSH2 0x203B PUSH2 0x2B50 JUMP JUMPDEST DUP15 PUSH2 0x2B6D JUMP JUMPDEST SWAP1 POP PUSH2 0x26E3 JUMP JUMPDEST PUSH1 0x5 DUP4 EQ ISZERO PUSH2 0x2082 JUMPI PUSH2 0x207B DUP3 PUSH1 0xA5 PUSH1 0x7F PUSH1 0x91 PUSH1 0x79 PUSH1 0x1 PUSH1 0x63 PUSH1 0x1 PUSH1 0x28 PUSH2 0x206D PUSH2 0x2B3F JUMP JUMPDEST PUSH2 0x2075 PUSH2 0x2B50 JUMP JUMPDEST DUP15 PUSH2 0x2B6D JUMP JUMPDEST SWAP1 POP PUSH2 0x26E3 JUMP JUMPDEST PUSH1 0x6 DUP4 EQ ISZERO PUSH2 0x20BC JUMPI PUSH2 0x20B5 DUP3 PUSH1 0xB9 PUSH1 0xC8 PUSH1 0xA7 PUSH1 0xB3 PUSH1 0x1 PUSH1 0x9 PUSH1 0x1 PUSH1 0x32 PUSH2 0x20A7 PUSH2 0x2B3F JUMP JUMPDEST PUSH2 0x20AF PUSH2 0x2B50 JUMP JUMPDEST DUP15 PUSH2 0x2B6D JUMP JUMPDEST SWAP1 POP PUSH2 0x26E3 JUMP JUMPDEST PUSH1 0x7 DUP4 EQ ISZERO PUSH2 0x20F6 JUMPI PUSH2 0x20EF DUP3 PUSH1 0x97 PUSH1 0x6E PUSH1 0x68 PUSH1 0x80 PUSH1 0x2 PUSH1 0x63 PUSH1 0x2 PUSH1 0x1E PUSH2 0x20E1 PUSH2 0x2B3F JUMP JUMPDEST PUSH2 0x20E9 PUSH2 0x2B50 JUMP JUMPDEST DUP15 PUSH2 0x2B6D JUMP JUMPDEST SWAP1 POP PUSH2 0x26E3 JUMP JUMPDEST PUSH1 0x8 DUP4 EQ ISZERO PUSH2 0x2130 JUMPI PUSH2 0x2129 DUP3 PUSH1 0xA6 PUSH1 0x7E PUSH1 0x79 PUSH1 0x91 PUSH1 0x2 PUSH1 0x63 PUSH1 0x2 PUSH1 0x28 PUSH2 0x211B PUSH2 0x2B3F JUMP JUMPDEST PUSH2 0x2123 PUSH2 0x2B50 JUMP JUMPDEST DUP15 PUSH2 0x2B6D JUMP JUMPDEST SWAP1 POP PUSH2 0x26E3 JUMP JUMPDEST PUSH1 0x9 DUP4 EQ ISZERO PUSH2 0x216A JUMPI PUSH2 0x2163 DUP3 PUSH1 0xBA PUSH1 0x94 PUSH1 0x8F PUSH1 0xA7 PUSH1 0x2 PUSH1 0x63 PUSH1 0x2 PUSH1 0x32 PUSH2 0x2155 PUSH2 0x2B3F JUMP JUMPDEST PUSH2 0x215D PUSH2 0x2B50 JUMP JUMPDEST DUP15 PUSH2 0x2B6D JUMP JUMPDEST SWAP1 POP PUSH2 0x26E3 JUMP JUMPDEST PUSH1 0xA DUP4 EQ ISZERO PUSH2 0x218A JUMPI PUSH2 0x2183 DUP3 PUSH1 0xB PUSH1 0x63 DUP7 PUSH1 0x1 PUSH2 0x2C21 JUMP JUMPDEST SWAP1 POP PUSH2 0x26E3 JUMP JUMPDEST PUSH1 0xB DUP4 EQ ISZERO PUSH2 0x21AA JUMPI PUSH2 0x21A3 DUP3 PUSH1 0xB PUSH1 0x63 DUP7 PUSH1 0x2 PUSH2 0x2C21 JUMP JUMPDEST SWAP1 POP PUSH2 0x26E3 JUMP JUMPDEST PUSH1 0xC DUP4 EQ ISZERO PUSH2 0x21CA JUMPI PUSH2 0x21C3 DUP3 PUSH1 0xB PUSH1 0x9 DUP7 PUSH1 0x3 PUSH2 0x2C21 JUMP JUMPDEST SWAP1 POP PUSH2 0x26E3 JUMP JUMPDEST PUSH1 0xD DUP4 EQ ISZERO PUSH2 0x21EA JUMPI PUSH2 0x21E3 DUP3 PUSH1 0xB PUSH1 0x7 DUP7 PUSH1 0x1 PUSH2 0x2C21 JUMP JUMPDEST SWAP1 POP PUSH2 0x26E3 JUMP JUMPDEST PUSH1 0xE DUP4 EQ ISZERO PUSH2 0x220A JUMPI PUSH2 0x2203 DUP3 PUSH1 0xB PUSH1 0x7 DUP7 PUSH1 0x2 PUSH2 0x2C21 JUMP JUMPDEST SWAP1 POP PUSH2 0x26E3 JUMP JUMPDEST PUSH1 0xF DUP4 EQ ISZERO PUSH2 0x222A JUMPI PUSH2 0x2223 DUP3 PUSH1 0xB PUSH1 0x7 DUP7 PUSH1 0x3 PUSH2 0x2C21 JUMP JUMPDEST SWAP1 POP PUSH2 0x26E3 JUMP JUMPDEST PUSH1 0x10 DUP4 EQ ISZERO PUSH2 0x224A JUMPI PUSH2 0x2243 DUP3 PUSH1 0x0 PUSH1 0x9 DUP7 PUSH1 0x1 PUSH2 0x2C21 JUMP JUMPDEST SWAP1 POP PUSH2 0x26E3 JUMP JUMPDEST PUSH1 0x11 DUP4 EQ ISZERO PUSH2 0x226A JUMPI PUSH2 0x2263 DUP3 PUSH1 0x0 PUSH1 0x9 DUP7 PUSH1 0x2 PUSH2 0x2C21 JUMP JUMPDEST SWAP1 POP PUSH2 0x26E3 JUMP JUMPDEST PUSH1 0x12 DUP4 EQ ISZERO PUSH2 0x228A JUMPI PUSH2 0x2283 DUP3 PUSH1 0x0 PUSH1 0x9 DUP7 PUSH1 0x3 PUSH2 0x2C21 JUMP JUMPDEST SWAP1 POP PUSH2 0x26E3 JUMP JUMPDEST PUSH1 0x13 DUP4 EQ ISZERO PUSH2 0x22AA JUMPI PUSH2 0x22A3 DUP3 PUSH1 0x0 PUSH1 0x63 DUP7 PUSH1 0x1 PUSH2 0x2C21 JUMP JUMPDEST SWAP1 POP PUSH2 0x26E3 JUMP JUMPDEST PUSH1 0x14 DUP4 EQ ISZERO PUSH2 0x22CA JUMPI PUSH2 0x22C3 DUP3 PUSH1 0x0 PUSH1 0x63 DUP7 PUSH1 0x2 PUSH2 0x2C21 JUMP JUMPDEST SWAP1 POP PUSH2 0x26E3 JUMP JUMPDEST PUSH1 0x15 DUP4 EQ ISZERO PUSH2 0x22EA JUMPI PUSH2 0x22E3 DUP3 PUSH1 0x0 PUSH1 0x9 DUP7 PUSH1 0x1 PUSH2 0x2C21 JUMP JUMPDEST SWAP1 POP PUSH2 0x26E3 JUMP JUMPDEST PUSH1 0x16 DUP4 EQ ISZERO PUSH2 0x230A JUMPI PUSH2 0x2303 DUP3 PUSH1 0x0 PUSH1 0x9 DUP7 PUSH1 0x2 PUSH2 0x2C21 JUMP JUMPDEST SWAP1 POP PUSH2 0x26E3 JUMP JUMPDEST PUSH1 0x17 DUP4 EQ ISZERO PUSH2 0x232A JUMPI PUSH2 0x2323 DUP3 PUSH1 0x7 PUSH1 0x63 DUP7 PUSH1 0x1 PUSH2 0x2C21 JUMP JUMPDEST SWAP1 POP PUSH2 0x26E3 JUMP JUMPDEST PUSH1 0x18 DUP4 EQ ISZERO PUSH2 0x234A JUMPI PUSH2 0x2343 DUP3 PUSH1 0x7 PUSH1 0x63 DUP7 PUSH1 0x2 PUSH2 0x2C21 JUMP JUMPDEST SWAP1 POP PUSH2 0x26E3 JUMP JUMPDEST PUSH1 0x19 DUP4 EQ ISZERO PUSH2 0x236A JUMPI PUSH2 0x2363 DUP3 PUSH1 0x4 PUSH1 0x63 DUP7 PUSH1 0x2 PUSH2 0x2C21 JUMP JUMPDEST SWAP1 POP PUSH2 0x26E3 JUMP JUMPDEST PUSH1 0x1A DUP4 EQ ISZERO PUSH2 0x238A JUMPI PUSH2 0x2383 DUP3 PUSH1 0x4 PUSH1 0x63 DUP7 PUSH1 0x3 PUSH2 0x2C21 JUMP JUMPDEST SWAP1 POP PUSH2 0x26E3 JUMP JUMPDEST PUSH1 0x1B DUP4 EQ ISZERO PUSH2 0x23AA JUMPI PUSH2 0x23A3 DUP3 PUSH1 0x8 PUSH1 0x63 DUP7 PUSH1 0x1 PUSH2 0x2C21 JUMP JUMPDEST SWAP1 POP PUSH2 0x26E3 JUMP JUMPDEST PUSH1 0x1C DUP4 EQ ISZERO PUSH2 0x23CA JUMPI PUSH2 0x23C3 DUP3 PUSH1 0x8 PUSH1 0x63 DUP7 PUSH1 0x2 PUSH2 0x2C21 JUMP JUMPDEST SWAP1 POP PUSH2 0x26E3 JUMP JUMPDEST PUSH1 0x1D DUP4 EQ ISZERO PUSH2 0x23EA JUMPI PUSH2 0x23E3 DUP3 PUSH1 0x7 PUSH1 0x63 DUP7 PUSH1 0x1 PUSH2 0x2C21 JUMP JUMPDEST SWAP1 POP PUSH2 0x26E3 JUMP JUMPDEST PUSH1 0x1E DUP4 EQ ISZERO PUSH2 0x240A JUMPI PUSH2 0x2403 DUP3 PUSH1 0x7 PUSH1 0x63 DUP7 PUSH1 0x1 PUSH2 0x2C21 JUMP JUMPDEST SWAP1 POP PUSH2 0x26E3 JUMP JUMPDEST PUSH1 0x1F DUP4 EQ ISZERO PUSH2 0x242A JUMPI PUSH2 0x2423 DUP3 PUSH1 0x7 PUSH1 0x8 DUP7 PUSH1 0x3 PUSH2 0x2C21 JUMP JUMPDEST SWAP1 POP PUSH2 0x26E3 JUMP JUMPDEST PUSH1 0x20 DUP4 EQ ISZERO PUSH2 0x244A JUMPI PUSH2 0x2443 DUP3 PUSH1 0x7 PUSH1 0x63 DUP7 PUSH1 0x1 PUSH2 0x2C21 JUMP JUMPDEST SWAP1 POP PUSH2 0x26E3 JUMP JUMPDEST PUSH1 0x21 DUP4 EQ ISZERO PUSH2 0x246A JUMPI PUSH2 0x2463 DUP3 PUSH1 0x7 PUSH1 0x63 DUP7 PUSH1 0x2 PUSH2 0x2C21 JUMP JUMPDEST SWAP1 POP PUSH2 0x26E3 JUMP JUMPDEST PUSH1 0x22 DUP4 EQ ISZERO PUSH2 0x248A JUMPI PUSH2 0x2483 DUP3 PUSH1 0x7 PUSH1 0x8 DUP7 PUSH1 0x3 PUSH2 0x2C21 JUMP JUMPDEST SWAP1 POP PUSH2 0x26E3 JUMP JUMPDEST PUSH1 0x23 DUP4 EQ ISZERO PUSH2 0x24AA JUMPI PUSH2 0x24A3 DUP3 PUSH1 0x11 PUSH1 0x63 DUP7 PUSH1 0x1 PUSH2 0x2C21 JUMP JUMPDEST SWAP1 POP PUSH2 0x26E3 JUMP JUMPDEST PUSH1 0x24 DUP4 EQ ISZERO PUSH2 0x24CA JUMPI PUSH2 0x24C3 DUP3 PUSH1 0x11 PUSH1 0x63 DUP7 PUSH1 0x2 PUSH2 0x2C21 JUMP JUMPDEST SWAP1 POP PUSH2 0x26E3 JUMP JUMPDEST PUSH1 0x25 DUP4 EQ ISZERO PUSH2 0x24EA JUMPI PUSH2 0x24E3 DUP3 PUSH1 0x1 PUSH1 0x63 DUP7 PUSH1 0x2 PUSH2 0x2C21 JUMP JUMPDEST SWAP1 POP PUSH2 0x26E3 JUMP JUMPDEST PUSH1 0x26 DUP4 EQ ISZERO PUSH2 0x250A JUMPI PUSH2 0x2503 DUP3 PUSH1 0x1 PUSH1 0x63 DUP7 PUSH1 0x3 PUSH2 0x2C21 JUMP JUMPDEST SWAP1 POP PUSH2 0x26E3 JUMP JUMPDEST PUSH1 0x27 DUP4 EQ ISZERO PUSH2 0x252A JUMPI PUSH2 0x2523 DUP3 PUSH1 0x0 PUSH1 0x11 DUP7 PUSH1 0x1 PUSH2 0x2C21 JUMP JUMPDEST SWAP1 POP PUSH2 0x26E3 JUMP JUMPDEST PUSH1 0x28 DUP4 EQ ISZERO PUSH2 0x254A JUMPI PUSH2 0x2543 DUP3 PUSH1 0x0 PUSH1 0x11 DUP7 PUSH1 0x2 PUSH2 0x2C21 JUMP JUMPDEST SWAP1 POP PUSH2 0x26E3 JUMP JUMPDEST PUSH1 0x29 DUP4 EQ ISZERO PUSH2 0x256A JUMPI PUSH2 0x2563 DUP3 PUSH1 0x7 PUSH1 0x9 DUP7 PUSH1 0x1 PUSH2 0x2C21 JUMP JUMPDEST SWAP1 POP PUSH2 0x26E3 JUMP JUMPDEST PUSH1 0x2A DUP4 EQ ISZERO PUSH2 0x258A JUMPI PUSH2 0x2583 DUP3 PUSH1 0x7 PUSH1 0x9 DUP7 PUSH1 0x2 PUSH2 0x2C21 JUMP JUMPDEST SWAP1 POP PUSH2 0x26E3 JUMP JUMPDEST PUSH1 0x2B DUP4 EQ ISZERO PUSH2 0x25AA JUMPI PUSH2 0x25A3 DUP3 PUSH1 0x3 PUSH1 0x7 DUP7 PUSH1 0x1 PUSH2 0x2C21 JUMP JUMPDEST SWAP1 POP PUSH2 0x26E3 JUMP JUMPDEST PUSH1 0x2C DUP4 EQ ISZERO PUSH2 0x25CA JUMPI PUSH2 0x25C3 DUP3 PUSH1 0x3 PUSH1 0x7 DUP7 PUSH1 0x2 PUSH2 0x2C21 JUMP JUMPDEST SWAP1 POP PUSH2 0x26E3 JUMP JUMPDEST PUSH1 0x2D DUP4 EQ ISZERO PUSH2 0x25EA JUMPI PUSH2 0x25E3 DUP3 PUSH1 0x3 PUSH1 0x7 DUP7 PUSH1 0x3 PUSH2 0x2C21 JUMP JUMPDEST SWAP1 POP PUSH2 0x26E3 JUMP JUMPDEST PUSH1 0x2E DUP4 EQ ISZERO PUSH2 0x260A JUMPI PUSH2 0x2603 DUP3 PUSH1 0xB PUSH1 0x3 DUP7 PUSH1 0x1 PUSH2 0x2C21 JUMP JUMPDEST SWAP1 POP PUSH2 0x26E3 JUMP JUMPDEST PUSH1 0x2F DUP4 EQ ISZERO PUSH2 0x262A JUMPI PUSH2 0x2623 DUP3 PUSH1 0xB PUSH1 0x3 DUP7 PUSH1 0x2 PUSH2 0x2C21 JUMP JUMPDEST SWAP1 POP PUSH2 0x26E3 JUMP JUMPDEST PUSH1 0x30 DUP4 EQ ISZERO PUSH2 0x264A JUMPI PUSH2 0x2643 DUP3 PUSH1 0xB PUSH1 0x7 DUP7 PUSH1 0x1 PUSH2 0x2C21 JUMP JUMPDEST SWAP1 POP PUSH2 0x26E3 JUMP JUMPDEST PUSH1 0x31 DUP4 EQ ISZERO PUSH2 0x266A JUMPI PUSH2 0x2663 DUP3 PUSH1 0xB PUSH1 0x7 DUP7 PUSH1 0x3 PUSH2 0x2C21 JUMP JUMPDEST SWAP1 POP PUSH2 0x26E3 JUMP JUMPDEST PUSH1 0x32 DUP4 EQ ISZERO PUSH2 0x268A JUMPI PUSH2 0x2683 DUP3 PUSH1 0x8 PUSH1 0x63 DUP7 PUSH1 0x2 PUSH2 0x2C21 JUMP JUMPDEST SWAP1 POP PUSH2 0x26E3 JUMP JUMPDEST PUSH1 0x33 DUP4 EQ ISZERO PUSH2 0x26AA JUMPI PUSH2 0x26A3 DUP3 PUSH1 0x8 PUSH1 0x63 DUP7 PUSH1 0x3 PUSH2 0x2C21 JUMP JUMPDEST SWAP1 POP PUSH2 0x26E3 JUMP JUMPDEST PUSH1 0x34 DUP4 EQ ISZERO PUSH2 0x26CA JUMPI PUSH2 0x26C3 DUP3 PUSH1 0x0 PUSH1 0x63 DUP7 PUSH1 0x2 PUSH2 0x2C21 JUMP JUMPDEST SWAP1 POP PUSH2 0x26E3 JUMP JUMPDEST PUSH2 0x26E0 DUP3 PUSH1 0x0 PUSH1 0x63 DUP7 PUSH2 0x26DB PUSH2 0x2D35 JUMP JUMPDEST PUSH2 0x2C21 JUMP JUMPDEST SWAP1 POP JUMPDEST SWAP3 SWAP2 POP POP JUMP JUMPDEST PUSH2 0x2703 DUP3 DUP3 PUSH1 0x40 MLOAD DUP1 PUSH1 0x20 ADD PUSH1 0x40 MSTORE DUP1 PUSH1 0x0 DUP2 MSTORE POP PUSH2 0x2D52 JUMP JUMPDEST POP POP JUMP JUMPDEST DUP2 PUSH20 0xFFFFFFFFFFFFFFFFFFFFFFFFFFFFFFFFFFFFFFFF AND DUP4 PUSH20 0xFFFFFFFFFFFFFFFFFFFFFFFFFFFFFFFFFFFFFFFF AND EQ ISZERO PUSH2 0x2776 JUMPI PUSH1 0x40 MLOAD PUSH32 0x8C379A000000000000000000000000000000000000000000000000000000000 DUP2 MSTORE PUSH1 0x4 ADD PUSH2 0x276D SWAP1 PUSH2 0x4050 JUMP JUMPDEST PUSH1 0x40 MLOAD DUP1 SWAP2 SUB SWAP1 REVERT JUMPDEST DUP1 PUSH1 0x5 PUSH1 0x0 DUP6 PUSH20 0xFFFFFFFFFFFFFFFFFFFFFFFFFFFFFFFFFFFFFFFF AND PUSH20 0xFFFFFFFFFFFFFFFFFFFFFFFFFFFFFFFFFFFFFFFF AND DUP2 MSTORE PUSH1 0x20 ADD SWAP1 DUP2 MSTORE PUSH1 0x20 ADD PUSH1 0x0 KECCAK256 PUSH1 0x0 DUP5 PUSH20 0xFFFFFFFFFFFFFFFFFFFFFFFFFFFFFFFFFFFFFFFF AND PUSH20 0xFFFFFFFFFFFFFFFFFFFFFFFFFFFFFFFFFFFFFFFF AND DUP2 MSTORE PUSH1 0x20 ADD SWAP1 DUP2 MSTORE PUSH1 0x20 ADD PUSH1 0x0 KECCAK256 PUSH1 0x0 PUSH2 0x100 EXP DUP2 SLOAD DUP2 PUSH1 0xFF MUL NOT AND SWAP1 DUP4 ISZERO ISZERO MUL OR SWAP1 SSTORE POP DUP2 PUSH20 0xFFFFFFFFFFFFFFFFFFFFFFFFFFFFFFFFFFFFFFFF AND DUP4 PUSH20 0xFFFFFFFFFFFFFFFFFFFFFFFFFFFFFFFFFFFFFFFF AND PUSH32 0x17307EAB39AB6107E8899845AD3D59BD9653F200F220920489CA2B5937696C31 DUP4 PUSH1 0x40 MLOAD PUSH2 0x2867 SWAP2 SWAP1 PUSH2 0x3EEC JUMP JUMPDEST PUSH1 0x40 MLOAD DUP1 SWAP2 SUB SWAP1 LOG3 POP POP POP JUMP JUMPDEST PUSH2 0x287F DUP5 DUP5 DUP5 PUSH2 0x1CD3 JUMP JUMPDEST PUSH2 0x288B DUP5 DUP5 DUP5 DUP5 PUSH2 0x2DAD JUMP JUMPDEST PUSH2 0x28CA JUMPI PUSH1 0x40 MLOAD PUSH32 0x8C379A000000000000000000000000000000000000000000000000000000000 DUP2 MSTORE PUSH1 0x4 ADD PUSH2 0x28C1 SWAP1 PUSH2 0x3FD0 JUMP JUMPDEST PUSH1 0x40 MLOAD DUP1 SWAP2 SUB SWAP1 REVERT JUMPDEST POP POP POP POP JUMP JUMPDEST PUSH1 0x60 PUSH1 0x40 MLOAD DUP1 PUSH1 0x20 ADD PUSH1 0x40 MSTORE DUP1 PUSH1 0x0 DUP2 MSTORE POP SWAP1 POP SWAP1 JUMP JUMPDEST PUSH1 0x60 PUSH1 0x0 DUP3 EQ ISZERO PUSH2 0x292F JUMPI PUSH1 0x40 MLOAD DUP1 PUSH1 0x40 ADD PUSH1 0x40 MSTORE DUP1 PUSH1 0x1 DUP2 MSTORE PUSH1 0x20 ADD PUSH32 0x3000000000000000000000000000000000000000000000000000000000000000 DUP2 MSTORE POP SWAP1 POP PUSH2 0x2A43 JUMP JUMPDEST PUSH1 0x0 DUP3 SWAP1 POP PUSH1 0x0 JUMPDEST PUSH1 0x0 DUP3 EQ PUSH2 0x2961 JUMPI DUP1 DUP1 PUSH2 0x294A SWAP1 PUSH2 0x46CC JUMP JUMPDEST SWAP2 POP POP PUSH1 0xA DUP3 PUSH2 0x295A SWAP2 SWAP1 PUSH2 0x44EA JUMP JUMPDEST SWAP2 POP PUSH2 0x2937 JUMP JUMPDEST PUSH1 0x0 DUP2 PUSH8 0xFFFFFFFFFFFFFFFF DUP2 GT ISZERO PUSH2 0x297D JUMPI PUSH2 0x297C PUSH2 0x483B JUMP JUMPDEST JUMPDEST PUSH1 0x40 MLOAD SWAP1 DUP1 DUP3 MSTORE DUP1 PUSH1 0x1F ADD PUSH1 0x1F NOT AND PUSH1 0x20 ADD DUP3 ADD PUSH1 0x40 MSTORE DUP1 ISZERO PUSH2 0x29AF JUMPI DUP2 PUSH1 0x20 ADD PUSH1 0x1 DUP3 MUL DUP1 CALLDATASIZE DUP4 CALLDATACOPY DUP1 DUP3 ADD SWAP2 POP POP SWAP1 POP JUMPDEST POP SWAP1 POP JUMPDEST PUSH1 0x0 DUP6 EQ PUSH2 0x2A3C JUMPI PUSH1 0x1 DUP3 PUSH2 0x29C8 SWAP2 SWAP1 PUSH2 0x451B JUMP JUMPDEST SWAP2 POP PUSH1 0xA DUP6 PUSH2 0x29D7 SWAP2 SWAP1 PUSH2 0x471F JUMP JUMPDEST PUSH1 0x30 PUSH2 0x29E3 SWAP2 SWAP1 PUSH2 0x4494 JUMP JUMPDEST PUSH1 0xF8 SHL DUP2 DUP4 DUP2 MLOAD DUP2 LT PUSH2 0x29F9 JUMPI PUSH2 0x29F8 PUSH2 0x480C JUMP JUMPDEST JUMPDEST PUSH1 0x20 ADD ADD SWAP1 PUSH31 0xFFFFFFFFFFFFFFFFFFFFFFFFFFFFFFFFFFFFFFFFFFFFFFFFFFFFFFFFFFFFFF NOT AND SWAP1 DUP2 PUSH1 0x0 BYTE SWAP1 MSTORE8 POP PUSH1 0xA DUP6 PUSH2 0x2A35 SWAP2 SWAP1 PUSH2 0x44EA JUMP JUMPDEST SWAP5 POP PUSH2 0x29B3 JUMP JUMPDEST DUP1 SWAP4 POP POP POP POP JUMPDEST SWAP2 SWAP1 POP JUMP JUMPDEST PUSH1 0x0 PUSH32 0x80AC58CD00000000000000000000000000000000000000000000000000000000 PUSH28 0xFFFFFFFFFFFFFFFFFFFFFFFFFFFFFFFFFFFFFFFFFFFFFFFFFFFFFFFF NOT AND DUP3 PUSH28 0xFFFFFFFFFFFFFFFFFFFFFFFFFFFFFFFFFFFFFFFFFFFFFFFFFFFFFFFF NOT AND EQ DUP1 PUSH2 0x2B13 JUMPI POP PUSH32 0x5B5E139F00000000000000000000000000000000000000000000000000000000 PUSH28 0xFFFFFFFFFFFFFFFFFFFFFFFFFFFFFFFFFFFFFFFFFFFFFFFFFFFFFFFF NOT AND DUP3 PUSH28 0xFFFFFFFFFFFFFFFFFFFFFFFFFFFFFFFFFFFFFFFFFFFFFFFFFFFFFFFF NOT AND EQ JUMPDEST DUP1 PUSH2 0x2B23 JUMPI POP PUSH2 0x2B22 DUP3 PUSH2 0x2F44 JUMP JUMPDEST JUMPDEST SWAP1 POP SWAP2 SWAP1 POP JUMP JUMPDEST PUSH2 0x2B35 DUP4 DUP4 DUP4 PUSH2 0x2FAE JUMP JUMPDEST POP POP POP JUMP JUMPDEST POP POP POP JUMP JUMPDEST PUSH1 0x0 PUSH2 0x2B4B PUSH1 0x11 PUSH2 0x30C2 JUMP JUMPDEST SWAP1 POP SWAP1 JUMP JUMPDEST PUSH1 0x0 PUSH1 0x28 PUSH2 0x2B5E PUSH1 0x32 PUSH2 0x30C2 JUMP JUMPDEST PUSH2 0x2B68 SWAP2 SWAP1 PUSH2 0x4494 JUMP JUMPDEST SWAP1 POP SWAP1 JUMP JUMPDEST PUSH2 0x2B75 PUSH2 0x3637 JUMP JUMPDEST PUSH1 0x40 MLOAD DUP1 PUSH2 0x180 ADD PUSH1 0x40 MSTORE DUP1 DUP15 DUP2 MSTORE PUSH1 0x20 ADD PUSH2 0x2B8F PUSH2 0x311E JUMP JUMPDEST DUP15 PUSH2 0x2B9A SWAP2 SWAP1 PUSH2 0x4494 JUMP JUMPDEST DUP2 MSTORE PUSH1 0x20 ADD PUSH2 0x2BA7 PUSH2 0x311E JUMP JUMPDEST DUP14 PUSH2 0x2BB2 SWAP2 SWAP1 PUSH2 0x4494 JUMP JUMPDEST DUP2 MSTORE PUSH1 0x20 ADD PUSH2 0x2BBF PUSH2 0x311E JUMP JUMPDEST DUP13 PUSH2 0x2BCA SWAP2 SWAP1 PUSH2 0x4494 JUMP JUMPDEST DUP2 MSTORE PUSH1 0x20 ADD PUSH2 0x2BD7 PUSH2 0x311E JUMP JUMPDEST DUP12 PUSH2 0x2BE2 SWAP2 SWAP1 PUSH2 0x4494 JUMP JUMPDEST DUP2 MSTORE PUSH1 0x20 ADD DUP10 DUP2 MSTORE PUSH1 0x20 ADD DUP9 DUP2 MSTORE PUSH1 0x20 ADD DUP8 DUP2 MSTORE PUSH1 0x20 ADD DUP7 DUP2 MSTORE PUSH1 0x20 ADD DUP6 DUP2 MSTORE PUSH1 0x20 ADD DUP5 DUP2 MSTORE PUSH1 0x20 ADD DUP4 DUP2 MSTORE POP SWAP1 POP SWAP13 SWAP12 POP POP POP POP POP POP POP POP POP POP POP POP JUMP JUMPDEST PUSH2 0x2C29 PUSH2 0x3637 JUMP JUMPDEST PUSH1 0x0 PUSH1 0x64 SWAP1 POP PUSH1 0x2 DUP7 EQ ISZERO PUSH2 0x2C48 JUMPI PUSH1 0x14 DUP2 PUSH2 0x2C45 SWAP2 SWAP1 PUSH2 0x4494 JUMP JUMPDEST SWAP1 POP JUMPDEST PUSH1 0x3 DUP7 EQ ISZERO PUSH2 0x2C61 JUMPI PUSH1 0x32 DUP2 PUSH2 0x2C5E SWAP2 SWAP1 PUSH2 0x4494 JUMP JUMPDEST SWAP1 POP JUMPDEST PUSH1 0x4 DUP7 EQ ISZERO PUSH2 0x2C7A JUMPI PUSH1 0x46 DUP2 PUSH2 0x2C77 SWAP2 SWAP1 PUSH2 0x4494 JUMP JUMPDEST SWAP1 POP JUMPDEST PUSH1 0x40 MLOAD DUP1 PUSH2 0x180 ADD PUSH1 0x40 MSTORE DUP1 DUP9 DUP2 MSTORE PUSH1 0x20 ADD PUSH2 0x2C94 PUSH2 0x311E JUMP JUMPDEST DUP4 PUSH2 0x2C9F SWAP2 SWAP1 PUSH2 0x4494 JUMP JUMPDEST DUP2 MSTORE PUSH1 0x20 ADD PUSH2 0x2CAC PUSH2 0x311E JUMP JUMPDEST DUP4 PUSH2 0x2CB7 SWAP2 SWAP1 PUSH2 0x4494 JUMP JUMPDEST DUP2 MSTORE PUSH1 0x20 ADD PUSH2 0x2CC4 PUSH2 0x311E JUMP JUMPDEST DUP4 PUSH2 0x2CCF SWAP2 SWAP1 PUSH2 0x4494 JUMP JUMPDEST DUP2 MSTORE PUSH1 0x20 ADD PUSH2 0x2CDC PUSH2 0x311E JUMP JUMPDEST DUP4 PUSH2 0x2CE7 SWAP2 SWAP1 PUSH2 0x4494 JUMP JUMPDEST DUP2 MSTORE PUSH1 0x20 ADD DUP7 DUP2 MSTORE PUSH1 0x20 ADD DUP6 DUP2 MSTORE PUSH1 0x20 ADD DUP7 DUP2 MSTORE PUSH1 0x20 ADD PUSH2 0x2D06 PUSH2 0x2B50 JUMP JUMPDEST DUP2 MSTORE PUSH1 0x20 ADD PUSH2 0x2D13 PUSH2 0x2B3F JUMP JUMPDEST DUP2 MSTORE PUSH1 0x20 ADD PUSH2 0x2D20 PUSH2 0x2B50 JUMP JUMPDEST DUP2 MSTORE PUSH1 0x20 ADD DUP5 DUP2 MSTORE POP SWAP2 POP POP SWAP6 SWAP5 POP POP POP POP POP JUMP JUMPDEST PUSH1 0x0 PUSH1 0x1 PUSH2 0x2D43 PUSH1 0x2 PUSH2 0x30C2 JUMP JUMPDEST PUSH2 0x2D4D SWAP2 SWAP1 PUSH2 0x4494 JUMP JUMPDEST SWAP1 POP SWAP1 JUMP JUMPDEST PUSH2 0x2D5C DUP4 DUP4 PUSH2 0x312F JUMP JUMPDEST PUSH2 0x2D69 PUSH1 0x0 DUP5 DUP5 DUP5 PUSH2 0x2DAD JUMP JUMPDEST PUSH2 0x2DA8 JUMPI PUSH1 0x40 MLOAD PUSH32 0x8C379A000000000000000000000000000000000000000000000000000000000 DUP2 MSTORE PUSH1 0x4 ADD PUSH2 0x2D9F SWAP1 PUSH2 0x3FD0 JUMP JUMPDEST PUSH1 0x40 MLOAD DUP1 SWAP2 SUB SWAP1 REVERT JUMPDEST POP POP POP JUMP JUMPDEST PUSH1 0x0 PUSH2 0x2DCE DUP5 PUSH20 0xFFFFFFFFFFFFFFFFFFFFFFFFFFFFFFFFFFFFFFFF AND PUSH2 0x3309 JUMP JUMPDEST ISZERO PUSH2 0x2F37 JUMPI DUP4 PUSH20 0xFFFFFFFFFFFFFFFFFFFFFFFFFFFFFFFFFFFFFFFF AND PUSH4 0x150B7A02 PUSH2 0x2DF7 PUSH2 0x1B34 JUMP JUMPDEST DUP8 DUP7 DUP7 PUSH1 0x40 MLOAD DUP6 PUSH4 0xFFFFFFFF AND PUSH1 0xE0 SHL DUP2 MSTORE PUSH1 0x4 ADD PUSH2 0x2E19 SWAP5 SWAP4 SWAP3 SWAP2 SWAP1 PUSH2 0x3EA0 JUMP JUMPDEST PUSH1 0x20 PUSH1 0x40 MLOAD DUP1 DUP4 SUB DUP2 PUSH1 0x0 DUP8 DUP1 EXTCODESIZE ISZERO DUP1 ISZERO PUSH2 0x2E33 JUMPI PUSH1 0x0 DUP1 REVERT JUMPDEST POP GAS CALL SWAP3 POP POP POP DUP1 ISZERO PUSH2 0x2E64 JUMPI POP PUSH1 0x40 MLOAD RETURNDATASIZE PUSH1 0x1F NOT PUSH1 0x1F DUP3 ADD AND DUP3 ADD DUP1 PUSH1 0x40 MSTORE POP DUP2 ADD SWAP1 PUSH2 0x2E61 SWAP2 SWAP1 PUSH2 0x39A3 JUMP JUMPDEST PUSH1 0x1 JUMPDEST PUSH2 0x2EE7 JUMPI RETURNDATASIZE DUP1 PUSH1 0x0 DUP2 EQ PUSH2 0x2E94 JUMPI PUSH1 0x40 MLOAD SWAP2 POP PUSH1 0x1F NOT PUSH1 0x3F RETURNDATASIZE ADD AND DUP3 ADD PUSH1 0x40 MSTORE RETURNDATASIZE DUP3 MSTORE RETURNDATASIZE PUSH1 0x0 PUSH1 0x20 DUP5 ADD RETURNDATACOPY PUSH2 0x2E99 JUMP JUMPDEST PUSH1 0x60 SWAP2 POP JUMPDEST POP PUSH1 0x0 DUP2 MLOAD EQ ISZERO PUSH2 0x2EDF JUMPI PUSH1 0x40 MLOAD PUSH32 0x8C379A000000000000000000000000000000000000000000000000000000000 DUP2 MSTORE PUSH1 0x4 ADD PUSH2 0x2ED6 SWAP1 PUSH2 0x3FD0 JUMP JUMPDEST PUSH1 0x40 MLOAD DUP1 SWAP2 SUB SWAP1 REVERT JUMPDEST DUP1 MLOAD DUP2 PUSH1 0x20 ADD REVERT JUMPDEST PUSH4 0x150B7A02 PUSH1 0xE0 SHL PUSH28 0xFFFFFFFFFFFFFFFFFFFFFFFFFFFFFFFFFFFFFFFFFFFFFFFFFFFFFFFF NOT AND DUP2 PUSH28 0xFFFFFFFFFFFFFFFFFFFFFFFFFFFFFFFFFFFFFFFFFFFFFFFFFFFFFFFF NOT AND EQ SWAP2 POP POP PUSH2 0x2F3C JUMP JUMPDEST PUSH1 0x1 SWAP1 POP JUMPDEST SWAP5 SWAP4 POP POP POP POP JUMP JUMPDEST PUSH1 0x0 PUSH32 0x1FFC9A700000000000000000000000000000000000000000000000000000000 PUSH28 0xFFFFFFFFFFFFFFFFFFFFFFFFFFFFFFFFFFFFFFFFFFFFFFFFFFFFFFFF NOT AND DUP3 PUSH28 0xFFFFFFFFFFFFFFFFFFFFFFFFFFFFFFFFFFFFFFFFFFFFFFFFFFFFFFFF NOT AND EQ SWAP1 POP SWAP2 SWAP1 POP JUMP JUMPDEST PUSH2 0x2FB9 DUP4 DUP4 DUP4 PUSH2 0x332C JUMP JUMPDEST PUSH1 0x0 PUSH20 0xFFFFFFFFFFFFFFFFFFFFFFFFFFFFFFFFFFFFFFFF AND DUP4 PUSH20 0xFFFFFFFFFFFFFFFFFFFFFFFFFFFFFFFFFFFFFFFF AND EQ ISZERO PUSH2 0x2FFC JUMPI PUSH2 0x2FF7 DUP2 PUSH2 0x3331 JUMP JUMPDEST PUSH2 0x303B JUMP JUMPDEST DUP2 PUSH20 0xFFFFFFFFFFFFFFFFFFFFFFFFFFFFFFFFFFFFFFFF AND DUP4 PUSH20 0xFFFFFFFFFFFFFFFFFFFFFFFFFFFFFFFFFFFFFFFF AND EQ PUSH2 0x303A JUMPI PUSH2 0x3039 DUP4 DUP3 PUSH2 0x337A JUMP JUMPDEST JUMPDEST JUMPDEST PUSH1 0x0 PUSH20 0xFFFFFFFFFFFFFFFFFFFFFFFFFFFFFFFFFFFFFFFF AND DUP3 PUSH20 0xFFFFFFFFFFFFFFFFFFFFFFFFFFFFFFFFFFFFFFFF AND EQ ISZERO PUSH2 0x307E JUMPI PUSH2 0x3079 DUP2 PUSH2 0x34E7 JUMP JUMPDEST PUSH2 0x30BD JUMP JUMPDEST DUP3 PUSH20 0xFFFFFFFFFFFFFFFFFFFFFFFFFFFFFFFFFFFFFFFF AND DUP3 PUSH20 0xFFFFFFFFFFFFFFFFFFFFFFFFFFFFFFFFFFFFFFFF AND EQ PUSH2 0x30BC JUMPI PUSH2 0x30BB DUP3 DUP3 PUSH2 0x35B8 JUMP JUMPDEST JUMPDEST JUMPDEST POP POP POP JUMP JUMPDEST PUSH1 0x0 PUSH1 0xB PUSH1 0x0 DUP2 SLOAD DUP1 SWAP3 SWAP2 SWAP1 PUSH2 0x30D7 SWAP1 PUSH2 0x46CC JUMP JUMPDEST SWAP2 SWAP1 POP SSTORE POP DUP2 DIFFICULTY TIMESTAMP PUSH1 0xB SLOAD PUSH1 0x40 MLOAD PUSH1 0x20 ADD PUSH2 0x30F4 SWAP4 SWAP3 SWAP2 SWAP1 PUSH2 0x3E48 JUMP JUMPDEST PUSH1 0x40 MLOAD PUSH1 0x20 DUP2 DUP4 SUB SUB DUP2 MSTORE SWAP1 PUSH1 0x40 MSTORE DUP1 MLOAD SWAP1 PUSH1 0x20 ADD KECCAK256 PUSH1 0x0 SHR PUSH2 0x3117 SWAP2 SWAP1 PUSH2 0x471F JUMP JUMPDEST SWAP1 POP SWAP2 SWAP1 POP JUMP JUMPDEST PUSH1 0x0 PUSH2 0x312A PUSH1 0x14 PUSH2 0x30C2 JUMP JUMPDEST SWAP1 POP SWAP1 JUMP JUMPDEST PUSH1 0x0 PUSH20 0xFFFFFFFFFFFFFFFFFFFFFFFFFFFFFFFFFFFFFFFF AND DUP3 PUSH20 0xFFFFFFFFFFFFFFFFFFFFFFFFFFFFFFFFFFFFFFFF AND EQ ISZERO PUSH2 0x319F JUMPI PUSH1 0x40 MLOAD PUSH32 0x8C379A000000000000000000000000000000000000000000000000000000000 DUP2 MSTORE PUSH1 0x4 ADD PUSH2 0x3196 SWAP1 PUSH2 0x40F0 JUMP JUMPDEST PUSH1 0x40 MLOAD DUP1 SWAP2 SUB SWAP1 REVERT JUMPDEST PUSH2 0x31A8 DUP2 PUSH2 0x1AC8 JUMP JUMPDEST ISZERO PUSH2 0x31E8 JUMPI PUSH1 0x40 MLOAD PUSH32 0x8C379A000000000000000000000000000000000000000000000000000000000 DUP2 MSTORE PUSH1 0x4 ADD PUSH2 0x31DF SWAP1 PUSH2 0x4010 JUMP JUMPDEST PUSH1 0x40 MLOAD DUP1 SWAP2 SUB SWAP1 REVERT JUMPDEST PUSH2 0x31F4 PUSH1 0x0 DUP4 DUP4 PUSH2 0x2B2A JUMP JUMPDEST PUSH1 0x1 PUSH1 0x3 PUSH1 0x0 DUP5 PUSH20 0xFFFFFFFFFFFFFFFFFFFFFFFFFFFFFFFFFFFFFFFF AND PUSH20 0xFFFFFFFFFFFFFFFFFFFFFFFFFFFFFFFFFFFFFFFF AND DUP2 MSTORE PUSH1 0x20 ADD SWAP1 DUP2 MSTORE PUSH1 0x20 ADD PUSH1 0x0 KECCAK256 PUSH1 0x0 DUP3 DUP3 SLOAD PUSH2 0x3244 SWAP2 SWAP1 PUSH2 0x4494 JUMP JUMPDEST SWAP3 POP POP DUP2 SWAP1 SSTORE POP DUP2 PUSH1 0x2 PUSH1 0x0 DUP4 DUP2 MSTORE PUSH1 0x20 ADD SWAP1 DUP2 MSTORE PUSH1 0x20 ADD PUSH1 0x0 KECCAK256 PUSH1 0x0 PUSH2 0x100 EXP DUP2 SLOAD DUP2 PUSH20 0xFFFFFFFFFFFFFFFFFFFFFFFFFFFFFFFFFFFFFFFF MUL NOT AND SWAP1 DUP4 PUSH20 0xFFFFFFFFFFFFFFFFFFFFFFFFFFFFFFFFFFFFFFFF AND MUL OR SWAP1 SSTORE POP DUP1 DUP3 PUSH20 0xFFFFFFFFFFFFFFFFFFFFFFFFFFFFFFFFFFFFFFFF AND PUSH1 0x0 PUSH20 0xFFFFFFFFFFFFFFFFFFFFFFFFFFFFFFFFFFFFFFFF AND PUSH32 0xDDF252AD1BE2C89B69C2B068FC378DAA952BA7F163C4A11628F55A4DF523B3EF PUSH1 0x40 MLOAD PUSH1 0x40 MLOAD DUP1 SWAP2 SUB SWAP1 LOG4 PUSH2 0x3305 PUSH1 0x0 DUP4 DUP4 PUSH2 0x2B3A JUMP JUMPDEST POP POP JUMP JUMPDEST PUSH1 0x0 DUP1 DUP3 PUSH20 0xFFFFFFFFFFFFFFFFFFFFFFFFFFFFFFFFFFFFFFFF AND EXTCODESIZE GT SWAP1 POP SWAP2 SWAP1 POP JUMP JUMPDEST POP POP POP JUMP JUMPDEST PUSH1 0x8 DUP1 SLOAD SWAP1 POP PUSH1 0x9 PUSH1 0x0 DUP4 DUP2 MSTORE PUSH1 0x20 ADD SWAP1 DUP2 MSTORE PUSH1 0x20 ADD PUSH1 0x0 KECCAK256 DUP2 SWAP1 SSTORE POP PUSH1 0x8 DUP2 SWAP1 DUP1 PUSH1 0x1 DUP2 SLOAD ADD DUP1 DUP3 SSTORE DUP1 SWAP2 POP POP PUSH1 0x1 SWAP1 SUB SWAP1 PUSH1 0x0 MSTORE PUSH1 0x20 PUSH1 0x0 KECCAK256 ADD PUSH1 0x0 SWAP1 SWAP2 SWAP1 SWAP2 SWAP1 SWAP2 POP SSTORE POP JUMP JUMPDEST PUSH1 0x0 PUSH1 0x1 PUSH2 0x3387 DUP5 PUSH2 0xA2D JUMP JUMPDEST PUSH2 0x3391 SWAP2 SWAP1 PUSH2 0x451B JUMP JUMPDEST SWAP1 POP PUSH1 0x0 PUSH1 0x7 PUSH1 0x0 DUP5 DUP2 MSTORE PUSH1 0x20 ADD SWAP1 DUP2 MSTORE PUSH1 0x20 ADD PUSH1 0x0 KECCAK256 SLOAD SWAP1 POP DUP2 DUP2 EQ PUSH2 0x3476 JUMPI PUSH1 0x0 PUSH1 0x6 PUSH1 0x0 DUP7 PUSH20 0xFFFFFFFFFFFFFFFFFFFFFFFFFFFFFFFFFFFFFFFF AND PUSH20 0xFFFFFFFFFFFFFFFFFFFFFFFFFFFFFFFFFFFFFFFF AND DUP2 MSTORE PUSH1 0x20 ADD SWAP1 DUP2 MSTORE PUSH1 0x20 ADD PUSH1 0x0 KECCAK256 PUSH1 0x0 DUP5 DUP2 MSTORE PUSH1 0x20 ADD SWAP1 DUP2 MSTORE PUSH1 0x20 ADD PUSH1 0x0 KECCAK256 SLOAD SWAP1 POP DUP1 PUSH1 0x6 PUSH1 0x0 DUP8 PUSH20 0xFFFFFFFFFFFFFFFFFFFFFFFFFFFFFFFFFFFFFFFF AND PUSH20 0xFFFFFFFFFFFFFFFFFFFFFFFFFFFFFFFFFFFFFFFF AND DUP2 MSTORE PUSH1 0x20 ADD SWAP1 DUP2 MSTORE PUSH1 0x20 ADD PUSH1 0x0 KECCAK256 PUSH1 0x0 DUP5 DUP2 MSTORE PUSH1 0x20 ADD SWAP1 DUP2 MSTORE PUSH1 0x20 ADD PUSH1 0x0 KECCAK256 DUP2 SWAP1 SSTORE POP DUP2 PUSH1 0x7 PUSH1 0x0 DUP4 DUP2 MSTORE PUSH1 0x20 ADD SWAP1 DUP2 MSTORE PUSH1 0x20 ADD PUSH1 0x0 KECCAK256 DUP2 SWAP1 SSTORE POP POP JUMPDEST PUSH1 0x7 PUSH1 0x0 DUP5 DUP2 MSTORE PUSH1 0x20 ADD SWAP1 DUP2 MSTORE PUSH1 0x20 ADD PUSH1 0x0 KECCAK256 PUSH1 0x0 SWAP1 SSTORE PUSH1 0x6 PUSH1 0x0 DUP6 PUSH20 0xFFFFFFFFFFFFFFFFFFFFFFFFFFFFFFFFFFFFFFFF AND PUSH20 0xFFFFFFFFFFFFFFFFFFFFFFFFFFFFFFFFFFFFFFFF AND DUP2 MSTORE PUSH1 0x20 ADD SWAP1 DUP2 MSTORE PUSH1 0x20 ADD PUSH1 0x0 KECCAK256 PUSH1 0x0 DUP4 DUP2 MSTORE PUSH1 0x20 ADD SWAP1 DUP2 MSTORE PUSH1 0x20 ADD PUSH1 0x0 KECCAK256 PUSH1 0x0 SWAP1 SSTORE POP POP POP POP JUMP JUMPDEST PUSH1 0x0 PUSH1 0x1 PUSH1 0x8 DUP1 SLOAD SWAP1 POP PUSH2 0x34FB SWAP2 SWAP1 PUSH2 0x451B JUMP JUMPDEST SWAP1 POP PUSH1 0x0 PUSH1 0x9 PUSH1 0x0 DUP5 DUP2 MSTORE PUSH1 0x20 ADD SWAP1 DUP2 MSTORE PUSH1 0x20 ADD PUSH1 0x0 KECCAK256 SLOAD SWAP1 POP PUSH1 0x0 PUSH1 0x8 DUP4 DUP2 SLOAD DUP2 LT PUSH2 0x352B JUMPI PUSH2 0x352A PUSH2 0x480C JUMP JUMPDEST JUMPDEST SWAP1 PUSH1 0x0 MSTORE PUSH1 0x20 PUSH1 0x0 KECCAK256 ADD SLOAD SWAP1 POP DUP1 PUSH1 0x8 DUP4 DUP2 SLOAD DUP2 LT PUSH2 0x354D JUMPI PUSH2 0x354C PUSH2 0x480C JUMP JUMPDEST JUMPDEST SWAP1 PUSH1 0x0 MSTORE PUSH1 0x20 PUSH1 0x0 KECCAK256 ADD DUP2 SWAP1 SSTORE POP DUP2 PUSH1 0x9 PUSH1 0x0 DUP4 DUP2 MSTORE PUSH1 0x20 ADD SWAP1 DUP2 MSTORE PUSH1 0x20 ADD PUSH1 0x0 KECCAK256 DUP2 SWAP1 SSTORE POP PUSH1 0x9 PUSH1 0x0 DUP6 DUP2 MSTORE PUSH1 0x20 ADD SWAP1 DUP2 MSTORE PUSH1 0x20 ADD PUSH1 0x0 KECCAK256 PUSH1 0x0 SWAP1 SSTORE PUSH1 0x8 DUP1 SLOAD DUP1 PUSH2 0x359C JUMPI PUSH2 0x359B PUSH2 0x47DD JUMP JUMPDEST JUMPDEST PUSH1 0x1 SWAP1 SUB DUP2 DUP2 SWAP1 PUSH1 0x0 MSTORE PUSH1 0x20 PUSH1 0x0 KECCAK256 ADD PUSH1 0x0 SWAP1 SSTORE SWAP1 SSTORE POP POP POP POP JUMP JUMPDEST PUSH1 0x0 PUSH2 0x35C3 DUP4 PUSH2 0xA2D JUMP JUMPDEST SWAP1 POP DUP2 PUSH1 0x6 PUSH1 0x0 DUP6 PUSH20 0xFFFFFFFFFFFFFFFFFFFFFFFFFFFFFFFFFFFFFFFF AND PUSH20 0xFFFFFFFFFFFFFFFFFFFFFFFFFFFFFFFFFFFFFFFF AND DUP2 MSTORE PUSH1 0x20 ADD SWAP1 DUP2 MSTORE PUSH1 0x20 ADD PUSH1 0x0 KECCAK256 PUSH1 0x0 DUP4 DUP2 MSTORE PUSH1 0x20 ADD SWAP1 DUP2 MSTORE PUSH1 0x20 ADD PUSH1 0x0 KECCAK256 DUP2 SWAP1 SSTORE POP DUP1 PUSH1 0x7 PUSH1 0x0 DUP5 DUP2 MSTORE PUSH1 0x20 ADD SWAP1 DUP2 MSTORE PUSH1 0x20 ADD PUSH1 0x0 KECCAK256 DUP2 SWAP1 SSTORE POP POP POP POP JUMP JUMPDEST PUSH1 0x40 MLOAD DUP1 PUSH2 0x180 ADD PUSH1 0x40 MSTORE DUP1 PUSH1 0x0 DUP2 MSTORE PUSH1 0x20 ADD PUSH1 0x0 DUP2 MSTORE PUSH1 0x20 ADD PUSH1 0x0 DUP2 MSTORE PUSH1 0x20 ADD PUSH1 0x0 DUP2 MSTORE PUSH1 0x20 ADD PUSH1 0x0 DUP2 MSTORE PUSH1 0x20 ADD PUSH1 0x0 DUP2 MSTORE PUSH1 0x20 ADD PUSH1 0x0 DUP2 MSTORE PUSH1 0x20 ADD PUSH1 0x0 DUP2 MSTORE PUSH1 0x20 ADD PUSH1 0x0 DUP2 MSTORE PUSH1 0x20 ADD PUSH1 0x0 DUP2 MSTORE PUSH1 0x20 ADD PUSH1 0x0 DUP2 MSTORE PUSH1 0x20 ADD PUSH1 0x0 DUP2 MSTORE POP SWAP1 JUMP JUMPDEST PUSH1 0x0 PUSH2 0x36AB PUSH2 0x36A6 DUP5 PUSH2 0x43E7 JUMP JUMPDEST PUSH2 0x43C2 JUMP JUMPDEST SWAP1 POP DUP3 DUP2 MSTORE PUSH1 0x20 DUP2 ADD DUP5 DUP5 DUP5 ADD GT ISZERO PUSH2 0x36C7 JUMPI PUSH2 0x36C6 PUSH2 0x486F JUMP JUMPDEST JUMPDEST PUSH2 0x36D2 DUP5 DUP3 DUP6 PUSH2 0x4627 JUMP JUMPDEST POP SWAP4 SWAP3 POP POP POP JUMP JUMPDEST PUSH1 0x0 DUP2 CALLDATALOAD SWAP1 POP PUSH2 0x36E9 DUP2 PUSH2 0x4D0D JUMP JUMPDEST SWAP3 SWAP2 POP POP JUMP JUMPDEST PUSH1 0x0 DUP2 CALLDATALOAD SWAP1 POP PUSH2 0x36FE DUP2 PUSH2 0x4D24 JUMP JUMPDEST SWAP3 SWAP2 POP POP JUMP JUMPDEST PUSH1 0x0 DUP2 MLOAD SWAP1 POP PUSH2 0x3713 DUP2 PUSH2 0x4D3B JUMP JUMPDEST SWAP3 SWAP2 POP POP JUMP JUMPDEST PUSH1 0x0 DUP2 CALLDATALOAD SWAP1 POP PUSH2 0x3728 DUP2 PUSH2 0x4D52 JUMP JUMPDEST SWAP3 SWAP2 POP POP JUMP JUMPDEST PUSH1 0x0 DUP2 MLOAD SWAP1 POP PUSH2 0x373D DUP2 PUSH2 0x4D52 JUMP JUMPDEST SWAP3 SWAP2 POP POP JUMP JUMPDEST PUSH1 0x0 DUP3 PUSH1 0x1F DUP4 ADD SLT PUSH2 0x3758 JUMPI PUSH2 0x3757 PUSH2 0x486A JUMP JUMPDEST JUMPDEST DUP2 CALLDATALOAD PUSH2 0x3768 DUP5 DUP3 PUSH1 0x20 DUP7 ADD PUSH2 0x3698 JUMP JUMPDEST SWAP2 POP POP SWAP3 SWAP2 POP POP JUMP JUMPDEST PUSH1 0x0 DUP2 CALLDATALOAD SWAP1 POP PUSH2 0x3780 DUP2 PUSH2 0x4D69 JUMP JUMPDEST SWAP3 SWAP2 POP POP JUMP JUMPDEST PUSH1 0x0 PUSH1 0x20 DUP3 DUP5 SUB SLT ISZERO PUSH2 0x379C JUMPI PUSH2 0x379B PUSH2 0x4879 JUMP JUMPDEST JUMPDEST PUSH1 0x0 PUSH2 0x37AA DUP5 DUP3 DUP6 ADD PUSH2 0x36DA JUMP JUMPDEST SWAP2 POP POP SWAP3 SWAP2 POP POP JUMP JUMPDEST PUSH1 0x0 DUP1 PUSH1 0x40 DUP4 DUP6 SUB SLT ISZERO PUSH2 0x37CA JUMPI PUSH2 0x37C9 PUSH2 0x4879 JUMP JUMPDEST JUMPDEST PUSH1 0x0 PUSH2 0x37D8 DUP6 DUP3 DUP7 ADD PUSH2 0x36DA JUMP JUMPDEST SWAP3 POP POP PUSH1 0x20 PUSH2 0x37E9 DUP6 DUP3 DUP7 ADD PUSH2 0x36DA JUMP JUMPDEST SWAP2 POP POP SWAP3 POP SWAP3 SWAP1 POP JUMP JUMPDEST PUSH1 0x0 DUP1 PUSH1 0x0 PUSH1 0x60 DUP5 DUP7 SUB SLT ISZERO PUSH2 0x380C JUMPI PUSH2 0x380B PUSH2 0x4879 JUMP JUMPDEST JUMPDEST PUSH1 0x0 PUSH2 0x381A DUP7 DUP3 DUP8 ADD PUSH2 0x36DA JUMP JUMPDEST SWAP4 POP POP PUSH1 0x20 PUSH2 0x382B DUP7 DUP3 DUP8 ADD PUSH2 0x36DA JUMP JUMPDEST SWAP3 POP POP PUSH1 0x40 PUSH2 0x383C DUP7 DUP3 DUP8 ADD PUSH2 0x3771 JUMP JUMPDEST SWAP2 POP POP SWAP3 POP SWAP3 POP SWAP3 JUMP JUMPDEST PUSH1 0x0 DUP1 PUSH1 0x0 DUP1 PUSH1 0x80 DUP6 DUP8 SUB SLT ISZERO PUSH2 0x3860 JUMPI PUSH2 0x385F PUSH2 0x4879 JUMP JUMPDEST JUMPDEST PUSH1 0x0 PUSH2 0x386E DUP8 DUP3 DUP9 ADD PUSH2 0x36DA JUMP JUMPDEST SWAP5 POP POP PUSH1 0x20 PUSH2 0x387F DUP8 DUP3 DUP9 ADD PUSH2 0x36DA JUMP JUMPDEST SWAP4 POP POP PUSH1 0x40 PUSH2 0x3890 DUP8 DUP3 DUP9 ADD PUSH2 0x3771 JUMP JUMPDEST SWAP3 POP POP PUSH1 0x60 DUP6 ADD CALLDATALOAD PUSH8 0xFFFFFFFFFFFFFFFF DUP2 GT ISZERO PUSH2 0x38B1 JUMPI PUSH2 0x38B0 PUSH2 0x4874 JUMP JUMPDEST JUMPDEST PUSH2 0x38BD DUP8 DUP3 DUP9 ADD PUSH2 0x3743 JUMP JUMPDEST SWAP2 POP POP SWAP3 SWAP6 SWAP2 SWAP5 POP SWAP3 POP JUMP JUMPDEST PUSH1 0x0 DUP1 PUSH1 0x40 DUP4 DUP6 SUB SLT ISZERO PUSH2 0x38E0 JUMPI PUSH2 0x38DF PUSH2 0x4879 JUMP JUMPDEST JUMPDEST PUSH1 0x0 PUSH2 0x38EE DUP6 DUP3 DUP7 ADD PUSH2 0x36DA JUMP JUMPDEST SWAP3 POP POP PUSH1 0x20 PUSH2 0x38FF DUP6 DUP3 DUP7 ADD PUSH2 0x36EF JUMP JUMPDEST SWAP2 POP POP SWAP3 POP SWAP3 SWAP1 POP JUMP JUMPDEST PUSH1 0x0 DUP1 PUSH1 0x40 DUP4 DUP6 SUB SLT ISZERO PUSH2 0x3920 JUMPI PUSH2 0x391F PUSH2 0x4879 JUMP JUMPDEST JUMPDEST PUSH1 0x0 PUSH2 0x392E DUP6 DUP3 DUP7 ADD PUSH2 0x36DA JUMP JUMPDEST SWAP3 POP POP PUSH1 0x20 PUSH2 0x393F DUP6 DUP3 DUP7 ADD PUSH2 0x3771 JUMP JUMPDEST SWAP2 POP POP SWAP3 POP SWAP3 SWAP1 POP JUMP JUMPDEST PUSH1 0x0 PUSH1 0x20 DUP3 DUP5 SUB SLT ISZERO PUSH2 0x395F JUMPI PUSH2 0x395E PUSH2 0x4879 JUMP JUMPDEST JUMPDEST PUSH1 0x0 PUSH2 0x396D DUP5 DUP3 DUP6 ADD PUSH2 0x3704 JUMP JUMPDEST SWAP2 POP POP SWAP3 SWAP2 POP POP JUMP JUMPDEST PUSH1 0x0 PUSH1 0x20 DUP3 DUP5 SUB SLT ISZERO PUSH2 0x398C JUMPI PUSH2 0x398B PUSH2 0x4879 JUMP JUMPDEST JUMPDEST PUSH1 0x0 PUSH2 0x399A DUP5 DUP3 DUP6 ADD PUSH2 0x3719 JUMP JUMPDEST SWAP2 POP POP SWAP3 SWAP2 POP POP JUMP JUMPDEST PUSH1 0x0 PUSH1 0x20 DUP3 DUP5 SUB SLT ISZERO PUSH2 0x39B9 JUMPI PUSH2 0x39B8 PUSH2 0x4879 JUMP JUMPDEST JUMPDEST PUSH1 0x0 PUSH2 0x39C7 DUP5 DUP3 DUP6 ADD PUSH2 0x372E JUMP JUMPDEST SWAP2 POP POP SWAP3 SWAP2 POP POP JUMP JUMPDEST PUSH1 0x0 PUSH1 0x20 DUP3 DUP5 SUB SLT ISZERO PUSH2 0x39E6 JUMPI PUSH2 0x39E5 PUSH2 0x4879 JUMP JUMPDEST JUMPDEST PUSH1 0x0 PUSH2 0x39F4 DUP5 DUP3 DUP6 ADD PUSH2 0x3771 JUMP JUMPDEST SWAP2 POP POP SWAP3 SWAP2 POP POP JUMP JUMPDEST PUSH1 0x0 DUP1 PUSH1 0x40 DUP4 DUP6 SUB SLT ISZERO PUSH2 0x3A14 JUMPI PUSH2 0x3A13 PUSH2 0x4879 JUMP JUMPDEST JUMPDEST PUSH1 0x0 PUSH2 0x3A22 DUP6 DUP3 DUP7 ADD PUSH2 0x3771 JUMP JUMPDEST SWAP3 POP POP PUSH1 0x20 PUSH2 0x3A33 DUP6 DUP3 DUP7 ADD PUSH2 0x3771 JUMP JUMPDEST SWAP2 POP POP SWAP3 POP SWAP3 SWAP1 POP JUMP JUMPDEST PUSH1 0x0 PUSH2 0x3A49 DUP4 DUP4 PUSH2 0x3DEF JUMP JUMPDEST PUSH1 0x20 DUP4 ADD SWAP1 POP SWAP3 SWAP2 POP POP JUMP JUMPDEST PUSH2 0x3A5E DUP2 PUSH2 0x454F JUMP JUMPDEST DUP3 MSTORE POP POP JUMP JUMPDEST PUSH1 0x0 PUSH2 0x3A6F DUP3 PUSH2 0x4428 JUMP JUMPDEST PUSH2 0x3A79 DUP2 DUP6 PUSH2 0x4456 JUMP JUMPDEST SWAP4 POP PUSH2 0x3A84 DUP4 PUSH2 0x4418 JUMP JUMPDEST DUP1 PUSH1 0x0 JUMPDEST DUP4 DUP2 LT ISZERO PUSH2 0x3AB5 JUMPI DUP2 MLOAD PUSH2 0x3A9C DUP9 DUP3 PUSH2 0x3A3D JUMP JUMPDEST SWAP8 POP PUSH2 0x3AA7 DUP4 PUSH2 0x4449 JUMP JUMPDEST SWAP3 POP POP PUSH1 0x1 DUP2 ADD SWAP1 POP PUSH2 0x3A88 JUMP JUMPDEST POP DUP6 SWAP4 POP POP POP POP SWAP3 SWAP2 POP POP JUMP JUMPDEST PUSH2 0x3ACB DUP2 PUSH2 0x4561 JUMP JUMPDEST DUP3 MSTORE POP POP JUMP JUMPDEST PUSH1 0x0 PUSH2 0x3ADC DUP3 PUSH2 0x4433 JUMP JUMPDEST PUSH2 0x3AE6 DUP2 DUP6 PUSH2 0x4467 JUMP JUMPDEST SWAP4 POP PUSH2 0x3AF6 DUP2 DUP6 PUSH1 0x20 DUP7 ADD PUSH2 0x4636 JUMP JUMPDEST PUSH2 0x3AFF DUP2 PUSH2 0x487E JUMP JUMPDEST DUP5 ADD SWAP2 POP POP SWAP3 SWAP2 POP POP JUMP JUMPDEST PUSH2 0x3B13 DUP2 PUSH2 0x45CD JUMP JUMPDEST DUP3 MSTORE POP POP JUMP JUMPDEST PUSH2 0x3B22 DUP2 PUSH2 0x45DF JUMP JUMPDEST DUP3 MSTORE POP POP JUMP JUMPDEST PUSH2 0x3B31 DUP2 PUSH2 0x45F1 JUMP JUMPDEST DUP3 MSTORE POP POP JUMP JUMPDEST PUSH2 0x3B40 DUP2 PUSH2 0x4603 JUMP JUMPDEST DUP3 MSTORE POP POP JUMP JUMPDEST PUSH2 0x3B4F DUP2 PUSH2 0x4615 JUMP JUMPDEST DUP3 MSTORE POP POP JUMP JUMPDEST PUSH1 0x0 PUSH2 0x3B60 DUP3 PUSH2 0x443E JUMP JUMPDEST PUSH2 0x3B6A DUP2 DUP6 PUSH2 0x4478 JUMP JUMPDEST SWAP4 POP PUSH2 0x3B7A DUP2 DUP6 PUSH1 0x20 DUP7 ADD PUSH2 0x4636 JUMP JUMPDEST PUSH2 0x3B83 DUP2 PUSH2 0x487E JUMP JUMPDEST DUP5 ADD SWAP2 POP POP SWAP3 SWAP2 POP POP JUMP JUMPDEST PUSH1 0x0 PUSH2 0x3B99 DUP3 PUSH2 0x443E JUMP JUMPDEST PUSH2 0x3BA3 DUP2 DUP6 PUSH2 0x4489 JUMP JUMPDEST SWAP4 POP PUSH2 0x3BB3 DUP2 DUP6 PUSH1 0x20 DUP7 ADD PUSH2 0x4636 JUMP JUMPDEST DUP1 DUP5 ADD SWAP2 POP POP SWAP3 SWAP2 POP POP JUMP JUMPDEST PUSH1 0x0 PUSH2 0x3BCC PUSH1 0x2B DUP4 PUSH2 0x4478 JUMP JUMPDEST SWAP2 POP PUSH2 0x3BD7 DUP3 PUSH2 0x488F JUMP JUMPDEST PUSH1 0x40 DUP3 ADD SWAP1 POP SWAP2 SWAP1 POP JUMP JUMPDEST PUSH1 0x0 PUSH2 0x3BEF PUSH1 0x32 DUP4 PUSH2 0x4478 JUMP JUMPDEST SWAP2 POP PUSH2 0x3BFA DUP3 PUSH2 0x48DE JUMP JUMPDEST PUSH1 0x40 DUP3 ADD SWAP1 POP SWAP2 SWAP1 POP JUMP JUMPDEST PUSH1 0x0 PUSH2 0x3C12 PUSH1 0x25 DUP4 PUSH2 0x4478 JUMP JUMPDEST SWAP2 POP PUSH2 0x3C1D DUP3 PUSH2 0x492D JUMP JUMPDEST PUSH1 0x40 DUP3 ADD SWAP1 POP SWAP2 SWAP1 POP JUMP JUMPDEST PUSH1 0x0 PUSH2 0x3C35 PUSH1 0x1C DUP4 PUSH2 0x4478 JUMP JUMPDEST SWAP2 POP PUSH2 0x3C40 DUP3 PUSH2 0x497C JUMP JUMPDEST PUSH1 0x20 DUP3 ADD SWAP1 POP SWAP2 SWAP1 POP JUMP JUMPDEST PUSH1 0x0 PUSH2 0x3C58 PUSH1 0x24 DUP4 PUSH2 0x4478 JUMP JUMPDEST SWAP2 POP PUSH2 0x3C63 DUP3 PUSH2 0x49A5 JUMP JUMPDEST PUSH1 0x40 DUP3 ADD SWAP1 POP SWAP2 SWAP1 POP JUMP JUMPDEST PUSH1 0x0 PUSH2 0x3C7B PUSH1 0x19 DUP4 PUSH2 0x4478 JUMP JUMPDEST SWAP2 POP PUSH2 0x3C86 DUP3 PUSH2 0x49F4 JUMP JUMPDEST PUSH1 0x20 DUP3 ADD SWAP1 POP SWAP2 SWAP1 POP JUMP JUMPDEST PUSH1 0x0 PUSH2 0x3C9E PUSH1 0x2C DUP4 PUSH2 0x4478 JUMP JUMPDEST SWAP2 POP PUSH2 0x3CA9 DUP3 PUSH2 0x4A1D JUMP JUMPDEST PUSH1 0x40 DUP3 ADD SWAP1 POP SWAP2 SWAP1 POP JUMP JUMPDEST PUSH1 0x0 PUSH2 0x3CC1 PUSH1 0x38 DUP4 PUSH2 0x4478 JUMP JUMPDEST SWAP2 POP PUSH2 0x3CCC DUP3 PUSH2 0x4A6C JUMP JUMPDEST PUSH1 0x40 DUP3 ADD SWAP1 POP SWAP2 SWAP1 POP JUMP JUMPDEST PUSH1 0x0 PUSH2 0x3CE4 PUSH1 0x2A DUP4 PUSH2 0x4478 JUMP JUMPDEST SWAP2 POP PUSH2 0x3CEF DUP3 PUSH2 0x4ABB JUMP JUMPDEST PUSH1 0x40 DUP3 ADD SWAP1 POP SWAP2 SWAP1 POP JUMP JUMPDEST PUSH1 0x0 PUSH2 0x3D07 PUSH1 0x29 DUP4 PUSH2 0x4478 JUMP JUMPDEST SWAP2 POP PUSH2 0x3D12 DUP3 PUSH2 0x4B0A JUMP JUMPDEST PUSH1 0x40 DUP3 ADD SWAP1 POP SWAP2 SWAP1 POP JUMP JUMPDEST PUSH1 0x0 PUSH2 0x3D2A PUSH1 0x20 DUP4 PUSH2 0x4478 JUMP JUMPDEST SWAP2 POP PUSH2 0x3D35 DUP3 PUSH2 0x4B59 JUMP JUMPDEST PUSH1 0x20 DUP3 ADD SWAP1 POP SWAP2 SWAP1 POP JUMP JUMPDEST PUSH1 0x0 PUSH2 0x3D4D PUSH1 0x2C DUP4 PUSH2 0x4478 JUMP JUMPDEST SWAP2 POP PUSH2 0x3D58 DUP3 PUSH2 0x4B82 JUMP JUMPDEST PUSH1 0x40 DUP3 ADD SWAP1 POP SWAP2 SWAP1 POP JUMP JUMPDEST PUSH1 0x0 PUSH2 0x3D70 PUSH1 0x2F DUP4 PUSH2 0x4478 JUMP JUMPDEST SWAP2 POP PUSH2 0x3D7B DUP3 PUSH2 0x4BD1 JUMP JUMPDEST PUSH1 0x40 DUP3 ADD SWAP1 POP SWAP2 SWAP1 POP JUMP JUMPDEST PUSH1 0x0 PUSH2 0x3D93 PUSH1 0x21 DUP4 PUSH2 0x4478 JUMP JUMPDEST SWAP2 POP PUSH2 0x3D9E DUP3 PUSH2 0x4C20 JUMP JUMPDEST PUSH1 0x40 DUP3 ADD SWAP1 POP SWAP2 SWAP1 POP JUMP JUMPDEST PUSH1 0x0 PUSH2 0x3DB6 PUSH1 0x31 DUP4 PUSH2 0x4478 JUMP JUMPDEST SWAP2 POP PUSH2 0x3DC1 DUP3 PUSH2 0x4C6F JUMP JUMPDEST PUSH1 0x40 DUP3 ADD SWAP1 POP SWAP2 SWAP1 POP JUMP JUMPDEST PUSH1 0x0 PUSH2 0x3DD9 PUSH1 0x2C DUP4 PUSH2 0x4478 JUMP JUMPDEST SWAP2 POP PUSH2 0x3DE4 DUP3 PUSH2 0x4CBE JUMP JUMPDEST PUSH1 0x40 DUP3 ADD SWAP1 POP SWAP2 SWAP1 POP JUMP JUMPDEST PUSH2 0x3DF8 DUP2 PUSH2 0x45C3 JUMP JUMPDEST DUP3 MSTORE POP POP JUMP JUMPDEST PUSH2 0x3E07 DUP2 PUSH2 0x45C3 JUMP JUMPDEST DUP3 MSTORE POP POP JUMP JUMPDEST PUSH2 0x3E1E PUSH2 0x3E19 DUP3 PUSH2 0x45C3 JUMP JUMPDEST PUSH2 0x4715 JUMP JUMPDEST DUP3 MSTORE POP POP JUMP JUMPDEST PUSH1 0x0 PUSH2 0x3E30 DUP3 DUP6 PUSH2 0x3B8E JUMP JUMPDEST SWAP2 POP PUSH2 0x3E3C DUP3 DUP5 PUSH2 0x3B8E JUMP JUMPDEST SWAP2 POP DUP2 SWAP1 POP SWAP4 SWAP3 POP POP POP JUMP JUMPDEST PUSH1 0x0 PUSH2 0x3E54 DUP3 DUP7 PUSH2 0x3E0D JUMP JUMPDEST PUSH1 0x20 DUP3 ADD SWAP2 POP PUSH2 0x3E64 DUP3 DUP6 PUSH2 0x3E0D JUMP JUMPDEST PUSH1 0x20 DUP3 ADD SWAP2 POP PUSH2 0x3E74 DUP3 DUP5 PUSH2 0x3E0D JUMP JUMPDEST PUSH1 0x20 DUP3 ADD SWAP2 POP DUP2 SWAP1 POP SWAP5 SWAP4 POP POP POP POP JUMP JUMPDEST PUSH1 0x0 PUSH1 0x20 DUP3 ADD SWAP1 POP PUSH2 0x3E9A PUSH1 0x0 DUP4 ADD DUP5 PUSH2 0x3A55 JUMP JUMPDEST SWAP3 SWAP2 POP POP JUMP JUMPDEST PUSH1 0x0 PUSH1 0x80 DUP3 ADD SWAP1 POP PUSH2 0x3EB5 PUSH1 0x0 DUP4 ADD DUP8 PUSH2 0x3A55 JUMP JUMPDEST PUSH2 0x3EC2 PUSH1 0x20 DUP4 ADD DUP7 PUSH2 0x3A55 JUMP JUMPDEST PUSH2 0x3ECF PUSH1 0x40 DUP4 ADD DUP6 PUSH2 0x3DFE JUMP JUMPDEST DUP2 DUP2 SUB PUSH1 0x60 DUP4 ADD MSTORE PUSH2 0x3EE1 DUP2 DUP5 PUSH2 0x3AD1 JUMP JUMPDEST SWAP1 POP SWAP6 SWAP5 POP POP POP POP POP JUMP JUMPDEST PUSH1 0x0 PUSH1 0x20 DUP3 ADD SWAP1 POP PUSH2 0x3F01 PUSH1 0x0 DUP4 ADD DUP5 PUSH2 0x3AC2 JUMP JUMPDEST SWAP3 SWAP2 POP POP JUMP JUMPDEST PUSH1 0x0 PUSH1 0x20 DUP3 ADD SWAP1 POP PUSH2 0x3F1C PUSH1 0x0 DUP4 ADD DUP5 PUSH2 0x3B0A JUMP JUMPDEST SWAP3 SWAP2 POP POP JUMP JUMPDEST PUSH1 0x0 PUSH1 0x20 DUP3 ADD SWAP1 POP PUSH2 0x3F37 PUSH1 0x0 DUP4 ADD DUP5 PUSH2 0x3B19 JUMP JUMPDEST SWAP3 SWAP2 POP POP JUMP JUMPDEST PUSH1 0x0 PUSH1 0x20 DUP3 ADD SWAP1 POP PUSH2 0x3F52 PUSH1 0x0 DUP4 ADD DUP5 PUSH2 0x3B28 JUMP JUMPDEST SWAP3 SWAP2 POP POP JUMP JUMPDEST PUSH1 0x0 PUSH1 0x20 DUP3 ADD SWAP1 POP PUSH2 0x3F6D PUSH1 0x0 DUP4 ADD DUP5 PUSH2 0x3B37 JUMP JUMPDEST SWAP3 SWAP2 POP POP JUMP JUMPDEST PUSH1 0x0 PUSH1 0x20 DUP3 ADD SWAP1 POP PUSH2 0x3F88 PUSH1 0x0 DUP4 ADD DUP5 PUSH2 0x3B46 JUMP JUMPDEST SWAP3 SWAP2 POP POP JUMP JUMPDEST PUSH1 0x0 PUSH1 0x20 DUP3 ADD SWAP1 POP DUP2 DUP2 SUB PUSH1 0x0 DUP4 ADD MSTORE PUSH2 0x3FA8 DUP2 DUP5 PUSH2 0x3B55 JUMP JUMPDEST SWAP1 POP SWAP3 SWAP2 POP POP JUMP JUMPDEST PUSH1 0x0 PUSH1 0x20 DUP3 ADD SWAP1 POP DUP2 DUP2 SUB PUSH1 0x0 DUP4 ADD MSTORE PUSH2 0x3FC9 DUP2 PUSH2 0x3BBF JUMP JUMPDEST SWAP1 POP SWAP2 SWAP1 POP JUMP JUMPDEST PUSH1 0x0 PUSH1 0x20 DUP3 ADD SWAP1 POP DUP2 DUP2 SUB PUSH1 0x0 DUP4 ADD MSTORE PUSH2 0x3FE9 DUP2 PUSH2 0x3BE2 JUMP JUMPDEST SWAP1 POP SWAP2 SWAP1 POP JUMP JUMPDEST PUSH1 0x0 PUSH1 0x20 DUP3 ADD SWAP1 POP DUP2 DUP2 SUB PUSH1 0x0 DUP4 ADD MSTORE PUSH2 0x4009 DUP2 PUSH2 0x3C05 JUMP JUMPDEST SWAP1 POP SWAP2 SWAP1 POP JUMP JUMPDEST PUSH1 0x0 PUSH1 0x20 DUP3 ADD SWAP1 POP DUP2 DUP2 SUB PUSH1 0x0 DUP4 ADD MSTORE PUSH2 0x4029 DUP2 PUSH2 0x3C28 JUMP JUMPDEST SWAP1 POP SWAP2 SWAP1 POP JUMP JUMPDEST PUSH1 0x0 PUSH1 0x20 DUP3 ADD SWAP1 POP DUP2 DUP2 SUB PUSH1 0x0 DUP4 ADD MSTORE PUSH2 0x4049 DUP2 PUSH2 0x3C4B JUMP JUMPDEST SWAP1 POP SWAP2 SWAP1 POP JUMP JUMPDEST PUSH1 0x0 PUSH1 0x20 DUP3 ADD SWAP1 POP DUP2 DUP2 SUB PUSH1 0x0 DUP4 ADD MSTORE PUSH2 0x4069 DUP2 PUSH2 0x3C6E JUMP JUMPDEST SWAP1 POP SWAP2 SWAP1 POP JUMP JUMPDEST PUSH1 0x0 PUSH1 0x20 DUP3 ADD SWAP1 POP DUP2 DUP2 SUB PUSH1 0x0 DUP4 ADD MSTORE PUSH2 0x4089 DUP2 PUSH2 0x3C91 JUMP JUMPDEST SWAP1 POP SWAP2 SWAP1 POP JUMP JUMPDEST PUSH1 0x0 PUSH1 0x20 DUP3 ADD SWAP1 POP DUP2 DUP2 SUB PUSH1 0x0 DUP4 ADD MSTORE PUSH2 0x40A9 DUP2 PUSH2 0x3CB4 JUMP JUMPDEST SWAP1 POP SWAP2 SWAP1 POP JUMP JUMPDEST PUSH1 0x0 PUSH1 0x20 DUP3 ADD SWAP1 POP DUP2 DUP2 SUB PUSH1 0x0 DUP4 ADD MSTORE PUSH2 0x40C9 DUP2 PUSH2 0x3CD7 JUMP JUMPDEST SWAP1 POP SWAP2 SWAP1 POP JUMP JUMPDEST PUSH1 0x0 PUSH1 0x20 DUP3 ADD SWAP1 POP DUP2 DUP2 SUB PUSH1 0x0 DUP4 ADD MSTORE PUSH2 0x40E9 DUP2 PUSH2 0x3CFA JUMP JUMPDEST SWAP1 POP SWAP2 SWAP1 POP JUMP JUMPDEST PUSH1 0x0 PUSH1 0x20 DUP3 ADD SWAP1 POP DUP2 DUP2 SUB PUSH1 0x0 DUP4 ADD MSTORE PUSH2 0x4109 DUP2 PUSH2 0x3D1D JUMP JUMPDEST SWAP1 POP SWAP2 SWAP1 POP JUMP JUMPDEST PUSH1 0x0 PUSH1 0x20 DUP3 ADD SWAP1 POP DUP2 DUP2 SUB PUSH1 0x0 DUP4 ADD MSTORE PUSH2 0x4129 DUP2 PUSH2 0x3D40 JUMP JUMPDEST SWAP1 POP SWAP2 SWAP1 POP JUMP JUMPDEST PUSH1 0x0 PUSH1 0x20 DUP3 ADD SWAP1 POP DUP2 DUP2 SUB PUSH1 0x0 DUP4 ADD MSTORE PUSH2 0x4149 DUP2 PUSH2 0x3D63 JUMP JUMPDEST SWAP1 POP SWAP2 SWAP1 POP JUMP JUMPDEST PUSH1 0x0 PUSH1 0x20 DUP3 ADD SWAP1 POP DUP2 DUP2 SUB PUSH1 0x0 DUP4 ADD MSTORE PUSH2 0x4169 DUP2 PUSH2 0x3D86 JUMP JUMPDEST SWAP1 POP SWAP2 SWAP1 POP JUMP JUMPDEST PUSH1 0x0 PUSH1 0x20 DUP3 ADD SWAP1 POP DUP2 DUP2 SUB PUSH1 0x0 DUP4 ADD MSTORE PUSH2 0x4189 DUP2 PUSH2 0x3DA9 JUMP JUMPDEST SWAP1 POP SWAP2 SWAP1 POP JUMP JUMPDEST PUSH1 0x0 PUSH1 0x20 DUP3 ADD SWAP1 POP DUP2 DUP2 SUB PUSH1 0x0 DUP4 ADD MSTORE PUSH2 0x41A9 DUP2 PUSH2 0x3DCC JUMP JUMPDEST SWAP1 POP SWAP2 SWAP1 POP JUMP JUMPDEST PUSH1 0x0 PUSH1 0x20 DUP3 ADD SWAP1 POP PUSH2 0x41C5 PUSH1 0x0 DUP4 ADD DUP5 PUSH2 0x3DFE JUMP JUMPDEST SWAP3 SWAP2 POP POP JUMP JUMPDEST PUSH1 0x0 PUSH1 0x40 DUP3 ADD SWAP1 POP PUSH2 0x41E0 PUSH1 0x0 DUP4 ADD DUP6 PUSH2 0x3DFE JUMP JUMPDEST DUP2 DUP2 SUB PUSH1 0x20 DUP4 ADD MSTORE PUSH2 0x41F2 DUP2 DUP5 PUSH2 0x3A64 JUMP JUMPDEST SWAP1 POP SWAP4 SWAP3 POP POP POP JUMP JUMPDEST PUSH1 0x0 PUSH1 0x60 DUP3 ADD SWAP1 POP PUSH2 0x4210 PUSH1 0x0 DUP4 ADD DUP7 PUSH2 0x3DFE JUMP JUMPDEST PUSH2 0x421D PUSH1 0x20 DUP4 ADD DUP6 PUSH2 0x3DFE JUMP JUMPDEST DUP2 DUP2 SUB PUSH1 0x40 DUP4 ADD MSTORE PUSH2 0x422F DUP2 DUP5 PUSH2 0x3A64 JUMP JUMPDEST SWAP1 POP SWAP5 SWAP4 POP POP POP POP JUMP JUMPDEST PUSH1 0x0 PUSH1 0x60 DUP3 ADD SWAP1 POP PUSH2 0x424E PUSH1 0x0 DUP4 ADD DUP7 PUSH2 0x3DFE JUMP JUMPDEST PUSH2 0x425B PUSH1 0x20 DUP4 ADD DUP6 PUSH2 0x3DFE JUMP JUMPDEST PUSH2 0x4268 PUSH1 0x40 DUP4 ADD DUP5 PUSH2 0x3DFE JUMP JUMPDEST SWAP5 SWAP4 POP POP POP POP JUMP JUMPDEST PUSH1 0x0 PUSH1 0x80 DUP3 ADD SWAP1 POP PUSH2 0x4285 PUSH1 0x0 DUP4 ADD DUP8 PUSH2 0x3DFE JUMP JUMPDEST PUSH2 0x4292 PUSH1 0x20 DUP4 ADD DUP7 PUSH2 0x3DFE JUMP JUMPDEST PUSH2 0x429F PUSH1 0x40 DUP4 ADD DUP6 PUSH2 0x3DFE JUMP JUMPDEST PUSH2 0x42AC PUSH1 0x60 DUP4 ADD DUP5 PUSH2 0x3DFE JUMP JUMPDEST SWAP6 SWAP5 POP POP POP POP POP JUMP JUMPDEST PUSH1 0x0 PUSH1 0xA0 DUP3 ADD SWAP1 POP PUSH2 0x42CA PUSH1 0x0 DUP4 ADD DUP9 PUSH2 0x3DFE JUMP JUMPDEST PUSH2 0x42D7 PUSH1 0x20 DUP4 ADD DUP8 PUSH2 0x3DFE JUMP JUMPDEST PUSH2 0x42E4 PUSH1 0x40 DUP4 ADD DUP7 PUSH2 0x3DFE JUMP JUMPDEST PUSH2 0x42F1 PUSH1 0x60 DUP4 ADD DUP6 PUSH2 0x3DFE JUMP JUMPDEST PUSH2 0x42FE PUSH1 0x80 DUP4 ADD DUP5 PUSH2 0x3DFE JUMP JUMPDEST SWAP7 SWAP6 POP POP POP POP POP POP JUMP JUMPDEST PUSH1 0x0 PUSH2 0x180 DUP3 ADD SWAP1 POP PUSH2 0x431E PUSH1 0x0 DUP4 ADD DUP16 PUSH2 0x3DFE JUMP JUMPDEST PUSH2 0x432B PUSH1 0x20 DUP4 ADD DUP15 PUSH2 0x3DFE JUMP JUMPDEST PUSH2 0x4338 PUSH1 0x40 DUP4 ADD DUP14 PUSH2 0x3DFE JUMP JUMPDEST PUSH2 0x4345 PUSH1 0x60 DUP4 ADD DUP13 PUSH2 0x3DFE JUMP JUMPDEST PUSH2 0x4352 PUSH1 0x80 DUP4 ADD DUP12 PUSH2 0x3DFE JUMP JUMPDEST PUSH2 0x435F PUSH1 0xA0 DUP4 ADD DUP11 PUSH2 0x3DFE JUMP JUMPDEST PUSH2 0x436C PUSH1 0xC0 DUP4 ADD DUP10 PUSH2 0x3DFE JUMP JUMPDEST PUSH2 0x4379 PUSH1 0xE0 DUP4 ADD DUP9 PUSH2 0x3DFE JUMP JUMPDEST PUSH2 0x4387 PUSH2 0x100 DUP4 ADD DUP8 PUSH2 0x3DFE JUMP JUMPDEST PUSH2 0x4395 PUSH2 0x120 DUP4 ADD DUP7 PUSH2 0x3DFE JUMP JUMPDEST PUSH2 0x43A3 PUSH2 0x140 DUP4 ADD DUP6 PUSH2 0x3DFE JUMP JUMPDEST PUSH2 0x43B1 PUSH2 0x160 DUP4 ADD DUP5 PUSH2 0x3DFE JUMP JUMPDEST SWAP14 SWAP13 POP POP POP POP POP POP POP POP POP POP POP POP POP JUMP JUMPDEST PUSH1 0x0 PUSH2 0x43CC PUSH2 0x43DD JUMP JUMPDEST SWAP1 POP PUSH2 0x43D8 DUP3 DUP3 PUSH2 0x469B JUMP JUMPDEST SWAP2 SWAP1 POP JUMP JUMPDEST PUSH1 0x0 PUSH1 0x40 MLOAD SWAP1 POP SWAP1 JUMP JUMPDEST PUSH1 0x0 PUSH8 0xFFFFFFFFFFFFFFFF DUP3 GT ISZERO PUSH2 0x4402 JUMPI PUSH2 0x4401 PUSH2 0x483B JUMP JUMPDEST JUMPDEST PUSH2 0x440B DUP3 PUSH2 0x487E JUMP JUMPDEST SWAP1 POP PUSH1 0x20 DUP2 ADD SWAP1 POP SWAP2 SWAP1 POP JUMP JUMPDEST PUSH1 0x0 DUP2 SWAP1 POP PUSH1 0x20 DUP3 ADD SWAP1 POP SWAP2 SWAP1 POP JUMP JUMPDEST PUSH1 0x0 DUP2 MLOAD SWAP1 POP SWAP2 SWAP1 POP JUMP JUMPDEST PUSH1 0x0 DUP2 MLOAD SWAP1 POP SWAP2 SWAP1 POP JUMP JUMPDEST PUSH1 0x0 DUP2 MLOAD SWAP1 POP SWAP2 SWAP1 POP JUMP JUMPDEST PUSH1 0x0 PUSH1 0x20 DUP3 ADD SWAP1 POP SWAP2 SWAP1 POP JUMP JUMPDEST PUSH1 0x0 DUP3 DUP3 MSTORE PUSH1 0x20 DUP3 ADD SWAP1 POP SWAP3 SWAP2 POP POP JUMP JUMPDEST PUSH1 0x0 DUP3 DUP3 MSTORE PUSH1 0x20 DUP3 ADD SWAP1 POP SWAP3 SWAP2 POP POP JUMP JUMPDEST PUSH1 0x0 DUP3 DUP3 MSTORE PUSH1 0x20 DUP3 ADD SWAP1 POP SWAP3 SWAP2 POP POP JUMP JUMPDEST PUSH1 0x0 DUP2 SWAP1 POP SWAP3 SWAP2 POP POP JUMP JUMPDEST PUSH1 0x0 PUSH2 0x449F DUP3 PUSH2 0x45C3 JUMP JUMPDEST SWAP2 POP PUSH2 0x44AA DUP4 PUSH2 0x45C3 JUMP JUMPDEST SWAP3 POP DUP3 PUSH32 0xFFFFFFFFFFFFFFFFFFFFFFFFFFFFFFFFFFFFFFFFFFFFFFFFFFFFFFFFFFFFFFFF SUB DUP3 GT ISZERO PUSH2 0x44DF JUMPI PUSH2 0x44DE PUSH2 0x4750 JUMP JUMPDEST JUMPDEST DUP3 DUP3 ADD SWAP1 POP SWAP3 SWAP2 POP POP JUMP JUMPDEST PUSH1 0x0 PUSH2 0x44F5 DUP3 PUSH2 0x45C3 JUMP JUMPDEST SWAP2 POP PUSH2 0x4500 DUP4 PUSH2 0x45C3 JUMP JUMPDEST SWAP3 POP DUP3 PUSH2 0x4510 JUMPI PUSH2 0x450F PUSH2 0x477F JUMP JUMPDEST JUMPDEST DUP3 DUP3 DIV SWAP1 POP SWAP3 SWAP2 POP POP JUMP JUMPDEST PUSH1 0x0 PUSH2 0x4526 DUP3 PUSH2 0x45C3 JUMP JUMPDEST SWAP2 POP PUSH2 0x4531 DUP4 PUSH2 0x45C3 JUMP JUMPDEST SWAP3 POP DUP3 DUP3 LT ISZERO PUSH2 0x4544 JUMPI PUSH2 0x4543 PUSH2 0x4750 JUMP JUMPDEST JUMPDEST DUP3 DUP3 SUB SWAP1 POP SWAP3 SWAP2 POP POP JUMP JUMPDEST PUSH1 0x0 PUSH2 0x455A DUP3 PUSH2 0x45A3 JUMP JUMPDEST SWAP1 POP SWAP2 SWAP1 POP JUMP JUMPDEST PUSH1 0x0 DUP2 ISZERO ISZERO SWAP1 POP SWAP2 SWAP1 POP JUMP JUMPDEST PUSH1 0x0 DUP2 SWAP1 POP SWAP2 SWAP1 POP JUMP JUMPDEST PUSH1 0x0 PUSH32 0xFFFFFFFF00000000000000000000000000000000000000000000000000000000 DUP3 AND SWAP1 POP SWAP2 SWAP1 POP JUMP JUMPDEST PUSH1 0x0 PUSH20 0xFFFFFFFFFFFFFFFFFFFFFFFFFFFFFFFFFFFFFFFF DUP3 AND SWAP1 POP SWAP2 SWAP1 POP JUMP JUMPDEST PUSH1 0x0 DUP2 SWAP1 POP SWAP2 SWAP1 POP JUMP JUMPDEST PUSH1 0x0 PUSH2 0x45D8 DUP3 PUSH2 0x45C3 JUMP JUMPDEST SWAP1 POP SWAP2 SWAP1 POP JUMP JUMPDEST PUSH1 0x0 PUSH2 0x45EA DUP3 PUSH2 0x45C3 JUMP JUMPDEST SWAP1 POP SWAP2 SWAP1 POP JUMP JUMPDEST PUSH1 0x0 PUSH2 0x45FC DUP3 PUSH2 0x45C3 JUMP JUMPDEST SWAP1 POP SWAP2 SWAP1 POP JUMP JUMPDEST PUSH1 0x0 PUSH2 0x460E DUP3 PUSH2 0x45C3 JUMP JUMPDEST SWAP1 POP SWAP2 SWAP1 POP JUMP JUMPDEST PUSH1 0x0 PUSH2 0x4620 DUP3 PUSH2 0x45C3 JUMP JUMPDEST SWAP1 POP SWAP2 SWAP1 POP JUMP JUMPDEST DUP3 DUP2 DUP4 CALLDATACOPY PUSH1 0x0 DUP4 DUP4 ADD MSTORE POP POP POP JUMP JUMPDEST PUSH1 0x0 JUMPDEST DUP4 DUP2 LT ISZERO PUSH2 0x4654 JUMPI DUP1 DUP3 ADD MLOAD DUP2 DUP5 ADD MSTORE PUSH1 0x20 DUP2 ADD SWAP1 POP PUSH2 0x4639 JUMP JUMPDEST DUP4 DUP2 GT ISZERO PUSH2 0x4663 JUMPI PUSH1 0x0 DUP5 DUP5 ADD MSTORE JUMPDEST POP POP POP POP JUMP JUMPDEST PUSH1 0x0 PUSH1 0x2 DUP3 DIV SWAP1 POP PUSH1 0x1 DUP3 AND DUP1 PUSH2 0x4681 JUMPI PUSH1 0x7F DUP3 AND SWAP2 POP JUMPDEST PUSH1 0x20 DUP3 LT DUP2 EQ ISZERO PUSH2 0x4695 JUMPI PUSH2 0x4694 PUSH2 0x47AE JUMP JUMPDEST JUMPDEST POP SWAP2 SWAP1 POP JUMP JUMPDEST PUSH2 0x46A4 DUP3 PUSH2 0x487E JUMP JUMPDEST DUP2 ADD DUP2 DUP2 LT PUSH8 0xFFFFFFFFFFFFFFFF DUP3 GT OR ISZERO PUSH2 0x46C3 JUMPI PUSH2 0x46C2 PUSH2 0x483B JUMP JUMPDEST JUMPDEST DUP1 PUSH1 0x40 MSTORE POP POP POP JUMP JUMPDEST PUSH1 0x0 PUSH2 0x46D7 DUP3 PUSH2 0x45C3 JUMP JUMPDEST SWAP2 POP PUSH32 0xFFFFFFFFFFFFFFFFFFFFFFFFFFFFFFFFFFFFFFFFFFFFFFFFFFFFFFFFFFFFFFFF DUP3 EQ ISZERO PUSH2 0x470A JUMPI PUSH2 0x4709 PUSH2 0x4750 JUMP JUMPDEST JUMPDEST PUSH1 0x1 DUP3 ADD SWAP1 POP SWAP2 SWAP1 POP JUMP JUMPDEST PUSH1 0x0 DUP2 SWAP1 POP SWAP2 SWAP1 POP JUMP JUMPDEST PUSH1 0x0 PUSH2 0x472A DUP3 PUSH2 0x45C3 JUMP JUMPDEST SWAP2 POP PUSH2 0x4735 DUP4 PUSH2 0x45C3 JUMP JUMPDEST SWAP3 POP DUP3 PUSH2 0x4745 JUMPI PUSH2 0x4744 PUSH2 0x477F JUMP JUMPDEST JUMPDEST DUP3 DUP3 MOD SWAP1 POP SWAP3 SWAP2 POP POP JUMP JUMPDEST PUSH32 0x4E487B7100000000000000000000000000000000000000000000000000000000 PUSH1 0x0 MSTORE PUSH1 0x11 PUSH1 0x4 MSTORE PUSH1 0x24 PUSH1 0x0 REVERT JUMPDEST PUSH32 0x4E487B7100000000000000000000000000000000000000000000000000000000 PUSH1 0x0 MSTORE PUSH1 0x12 PUSH1 0x4 MSTORE PUSH1 0x24 PUSH1 0x0 REVERT JUMPDEST PUSH32 0x4E487B7100000000000000000000000000000000000000000000000000000000 PUSH1 0x0 MSTORE PUSH1 0x22 PUSH1 0x4 MSTORE PUSH1 0x24 PUSH1 0x0 REVERT JUMPDEST PUSH32 0x4E487B7100000000000000000000000000000000000000000000000000000000 PUSH1 0x0 MSTORE PUSH1 0x31 PUSH1 0x4 MSTORE PUSH1 0x24 PUSH1 0x0 REVERT JUMPDEST PUSH32 0x4E487B7100000000000000000000000000000000000000000000000000000000 PUSH1 0x0 MSTORE PUSH1 0x32 PUSH1 0x4 MSTORE PUSH1 0x24 PUSH1 0x0 REVERT JUMPDEST PUSH32 0x4E487B7100000000000000000000000000000000000000000000000000000000 PUSH1 0x0 MSTORE PUSH1 0x41 PUSH1 0x4 MSTORE PUSH1 0x24 PUSH1 0x0 REVERT JUMPDEST PUSH1 0x0 DUP1 REVERT JUMPDEST PUSH1 0x0 DUP1 REVERT JUMPDEST PUSH1 0x0 DUP1 REVERT JUMPDEST PUSH1 0x0 DUP1 REVERT JUMPDEST PUSH1 0x0 PUSH1 0x1F NOT PUSH1 0x1F DUP4 ADD AND SWAP1 POP SWAP2 SWAP1 POP JUMP JUMPDEST PUSH32 0x455243373231456E756D657261626C653A206F776E657220696E646578206F75 PUSH1 0x0 DUP3 ADD MSTORE PUSH32 0x74206F6620626F756E6473000000000000000000000000000000000000000000 PUSH1 0x20 DUP3 ADD MSTORE POP JUMP JUMPDEST PUSH32 0x4552433732313A207472616E7366657220746F206E6F6E204552433732315265 PUSH1 0x0 DUP3 ADD MSTORE PUSH32 0x63656976657220696D706C656D656E7465720000000000000000000000000000 PUSH1 0x20 DUP3 ADD MSTORE POP JUMP JUMPDEST PUSH32 0x4552433732313A207472616E736665722066726F6D20696E636F727265637420 PUSH1 0x0 DUP3 ADD MSTORE PUSH32 0x6F776E6572000000000000000000000000000000000000000000000000000000 PUSH1 0x20 DUP3 ADD MSTORE POP JUMP JUMPDEST PUSH32 0x4552433732313A20746F6B656E20616C7265616479206D696E74656400000000 PUSH1 0x0 DUP3 ADD MSTORE POP JUMP JUMPDEST PUSH32 0x4552433732313A207472616E7366657220746F20746865207A65726F20616464 PUSH1 0x0 DUP3 ADD MSTORE PUSH32 0x7265737300000000000000000000000000000000000000000000000000000000 PUSH1 0x20 DUP3 ADD MSTORE POP JUMP JUMPDEST PUSH32 0x4552433732313A20617070726F766520746F2063616C6C657200000000000000 PUSH1 0x0 DUP3 ADD MSTORE POP JUMP JUMPDEST PUSH32 0x4552433732313A206F70657261746F7220717565727920666F72206E6F6E6578 PUSH1 0x0 DUP3 ADD MSTORE PUSH32 0x697374656E7420746F6B656E0000000000000000000000000000000000000000 PUSH1 0x20 DUP3 ADD MSTORE POP JUMP JUMPDEST PUSH32 0x4552433732313A20617070726F76652063616C6C6572206973206E6F74206F77 PUSH1 0x0 DUP3 ADD MSTORE PUSH32 0x6E6572206E6F7220617070726F76656420666F7220616C6C0000000000000000 PUSH1 0x20 DUP3 ADD MSTORE POP JUMP JUMPDEST PUSH32 0x4552433732313A2062616C616E636520717565727920666F7220746865207A65 PUSH1 0x0 DUP3 ADD MSTORE PUSH32 0x726F206164647265737300000000000000000000000000000000000000000000 PUSH1 0x20 DUP3 ADD MSTORE POP JUMP JUMPDEST PUSH32 0x4552433732313A206F776E657220717565727920666F72206E6F6E6578697374 PUSH1 0x0 DUP3 ADD MSTORE PUSH32 0x656E7420746F6B656E0000000000000000000000000000000000000000000000 PUSH1 0x20 DUP3 ADD MSTORE POP JUMP JUMPDEST PUSH32 0x4552433732313A206D696E7420746F20746865207A65726F2061646472657373 PUSH1 0x0 DUP3 ADD MSTORE POP JUMP JUMPDEST PUSH32 0x4552433732313A20617070726F76656420717565727920666F72206E6F6E6578 PUSH1 0x0 DUP3 ADD MSTORE PUSH32 0x697374656E7420746F6B656E0000000000000000000000000000000000000000 PUSH1 0x20 DUP3 ADD MSTORE POP JUMP JUMPDEST PUSH32 0x4552433732314D657461646174613A2055524920717565727920666F72206E6F PUSH1 0x0 DUP3 ADD MSTORE PUSH32 0x6E6578697374656E7420746F6B656E0000000000000000000000000000000000 PUSH1 0x20 DUP3 ADD MSTORE POP JUMP JUMPDEST PUSH32 0x4552433732313A20617070726F76616C20746F2063757272656E74206F776E65 PUSH1 0x0 DUP3 ADD MSTORE PUSH32 0x7200000000000000000000000000000000000000000000000000000000000000 PUSH1 0x20 DUP3 ADD MSTORE POP JUMP JUMPDEST PUSH32 0x4552433732313A207472616E736665722063616C6C6572206973206E6F74206F PUSH1 0x0 DUP3 ADD MSTORE PUSH32 0x776E6572206E6F7220617070726F766564000000000000000000000000000000 PUSH1 0x20 DUP3 ADD MSTORE POP JUMP JUMPDEST PUSH32 0x455243373231456E756D657261626C653A20676C6F62616C20696E646578206F PUSH1 0x0 DUP3 ADD MSTORE PUSH32 0x7574206F6620626F756E64730000000000000000000000000000000000000000 PUSH1 0x20 DUP3 ADD MSTORE POP JUMP JUMPDEST PUSH2 0x4D16 DUP2 PUSH2 0x454F JUMP JUMPDEST DUP2 EQ PUSH2 0x4D21 JUMPI PUSH1 0x0 DUP1 REVERT JUMPDEST POP JUMP JUMPDEST PUSH2 0x4D2D DUP2 PUSH2 0x4561 JUMP JUMPDEST DUP2 EQ PUSH2 0x4D38 JUMPI PUSH1 0x0 DUP1 REVERT JUMPDEST POP JUMP JUMPDEST PUSH2 0x4D44 DUP2 PUSH2 0x456D JUMP JUMPDEST DUP2 EQ PUSH2 0x4D4F JUMPI PUSH1 0x0 DUP1 REVERT JUMPDEST POP JUMP JUMPDEST PUSH2 0x4D5B DUP2 PUSH2 0x4577 JUMP JUMPDEST DUP2 EQ PUSH2 0x4D66 JUMPI PUSH1 0x0 DUP1 REVERT JUMPDEST POP JUMP JUMPDEST PUSH2 0x4D72 DUP2 PUSH2 0x45C3 JUMP JUMPDEST DUP2 EQ PUSH2 0x4D7D JUMPI PUSH1 0x0 DUP1 REVERT JUMPDEST POP JUMP INVALID LOG2 PUSH5 0x6970667358 0x22 SLT KECCAK256 SWAP8 0xF7 PUSH28 0x3AC300C818B17258C458167CAAA3771AC4BAC1DBDD10F057CD5DA030 0x25 PUSH5 0x736F6C6343 STOP ADDMOD SMOD STOP CALLER "
		},
		"gasEstimates": {
			"creation": {
				"codeDepositCost": "3978800",
				"executionCost": "infinite",
				"totalCost": "infinite"
			},
			"external": {
				"approve(address,uint256)": "infinite",
				"balanceOf(address)": "3012",
				"fightIDToWinnerPokemon(uint256)": "infinite",
				"getApproved(uint256)": "5228",
				"get_winner(uint256,uint256)": "infinite",
				"isApprovedForAll(address,address)": "infinite",
				"mint(uint256)": "infinite",
				"name()": "infinite",
				"ownerOf(uint256)": "3088",
				"pokemons(uint256)": "infinite",
				"safeTransferFrom(address,address,uint256)": "infinite",
				"safeTransferFrom(address,address,uint256,bytes)": "infinite",
				"sendDummyMessage(uint256)": "infinite",
				"sendPokemonsToL2(uint256,uint256)": "infinite",
				"setApprovalForAll(address,bool)": "infinite",
				"supportsInterface(bytes4)": "929",
				"symbol()": "infinite",
				"tokenByIndex(uint256)": "infinite",
				"tokenOfOwnerByIndex(address,uint256)": "infinite",
				"tokenURI(uint256)": "3417",
				"totalSupply()": "2557",
				"transferFrom(address,address,uint256)": "infinite"
			},
			"internal": {
				"_beforeTokenTransfer(address,address,uint256)": "infinite",
				"createFightID()": "24378",
				"createPokemon(uint256,uint256,uint256,uint256,uint256,uint256,uint256,uint256,uint256,uint256,uint256,uint256)": "infinite",
				"createPokemonByNameId(uint256,uint256)": "infinite",
				"createPokemonOther(uint256,uint256,uint256,uint256,uint256)": "infinite",
				"getDamage()": "infinite",
				"getDv()": "infinite",
				"getStrength()": "infinite",
				"getType()": "infinite",
				"random(uint256)": "infinite"
			}
		},
		"methodIdentifiers": {
			"approve(address,uint256)": "095ea7b3",
			"balanceOf(address)": "70a08231",
			"fightIDToWinnerPokemon(uint256)": "d82fe3b7",
			"getApproved(uint256)": "081812fc",
			"get_winner(uint256,uint256)": "72e84e3c",
			"isApprovedForAll(address,address)": "e985e9c5",
			"mint(uint256)": "a0712d68",
			"name()": "06fdde03",
			"ownerOf(uint256)": "6352211e",
			"pokemons(uint256)": "85831079",
			"safeTransferFrom(address,address,uint256)": "42842e0e",
			"safeTransferFrom(address,address,uint256,bytes)": "b88d4fde",
			"sendDummyMessage(uint256)": "727061ca",
			"sendPokemonsToL2(uint256,uint256)": "85b1c79d",
			"setApprovalForAll(address,bool)": "a22cb465",
			"supportsInterface(bytes4)": "01ffc9a7",
			"symbol()": "95d89b41",
			"tokenByIndex(uint256)": "4f6ccce7",
			"tokenOfOwnerByIndex(address,uint256)": "2f745c59",
			"tokenURI(uint256)": "c87b56dd",
			"totalSupply()": "18160ddd",
			"transferFrom(address,address,uint256)": "23b872dd"
		}
	},
	"abi": [
		{
			"inputs": [],
			"stateMutability": "nonpayable",
			"type": "constructor"
		},
		{
			"anonymous": false,
			"inputs": [
				{
					"indexed": true,
					"internalType": "address",
					"name": "owner",
					"type": "address"
				},
				{
					"indexed": true,
					"internalType": "address",
					"name": "approved",
					"type": "address"
				},
				{
					"indexed": true,
					"internalType": "uint256",
					"name": "tokenId",
					"type": "uint256"
				}
			],
			"name": "Approval",
			"type": "event"
		},
		{
			"anonymous": false,
			"inputs": [
				{
					"indexed": true,
					"internalType": "address",
					"name": "owner",
					"type": "address"
				},
				{
					"indexed": true,
					"internalType": "address",
					"name": "operator",
					"type": "address"
				},
				{
					"indexed": false,
					"internalType": "bool",
					"name": "approved",
					"type": "bool"
				}
			],
			"name": "ApprovalForAll",
			"type": "event"
		},
		{
			"anonymous": false,
			"inputs": [
				{
					"indexed": true,
					"internalType": "address",
					"name": "from",
					"type": "address"
				},
				{
					"indexed": true,
					"internalType": "address",
					"name": "to",
					"type": "address"
				},
				{
					"indexed": true,
					"internalType": "uint256",
					"name": "tokenId",
					"type": "uint256"
				}
			],
			"name": "Transfer",
			"type": "event"
		},
		{
			"anonymous": false,
			"inputs": [
				{
					"indexed": false,
					"internalType": "uint256",
					"name": "uuid",
					"type": "uint256"
				},
				{
					"indexed": false,
					"internalType": "uint256",
					"name": "hp",
					"type": "uint256"
				},
				{
					"indexed": false,
					"internalType": "uint256",
					"name": "atk",
					"type": "uint256"
				},
				{
					"indexed": false,
					"internalType": "uint256",
					"name": "init",
					"type": "uint256"
				},
				{
					"indexed": false,
					"internalType": "uint256",
					"name": "def",
					"type": "uint256"
				}
			],
			"name": "createdRandomPkmn",
			"type": "event"
		},
		{
			"anonymous": false,
			"inputs": [
				{
					"indexed": false,
					"internalType": "uint256",
					"name": "message",
					"type": "uint256"
				}
			],
			"name": "enteredFunc",
			"type": "event"
		},
		{
			"anonymous": false,
			"inputs": [
				{
					"indexed": false,
					"internalType": "uint256",
					"name": "message",
					"type": "uint256"
				}
			],
			"name": "gettingWinnerEntered",
			"type": "event"
		},
		{
			"anonymous": false,
			"inputs": [
				{
					"indexed": false,
					"internalType": "uint256",
					"name": "l2contract",
					"type": "uint256"
				},
				{
					"indexed": false,
					"internalType": "uint256",
					"name": "_winnerPok",
					"type": "uint256"
				},
				{
					"indexed": false,
					"internalType": "uint256",
					"name": "_fightID",
					"type": "uint256"
				}
			],
			"name": "gettingWinnerFinished",
			"type": "event"
		},
		{
			"anonymous": false,
			"inputs": [
				{
					"indexed": true,
					"internalType": "address",
					"name": "_from",
					"type": "address"
				},
				{
					"indexed": false,
					"internalType": "uint256",
					"name": "_pok1",
					"type": "uint256"
				},
				{
					"indexed": false,
					"internalType": "uint256",
					"name": "_pok2",
					"type": "uint256"
				},
				{
					"indexed": false,
					"internalType": "uint256",
					"name": "l2Contract",
					"type": "uint256"
				},
				{
					"indexed": false,
					"internalType": "uint256",
					"name": "_value",
					"type": "uint256"
				}
			],
			"name": "startFight",
			"type": "event"
		},
		{
			"anonymous": false,
			"inputs": [
				{
					"indexed": false,
					"internalType": "uint256",
					"name": "message",
					"type": "uint256"
				}
			],
			"name": "startFightMessage",
			"type": "event"
		},
		{
			"inputs": [
				{
					"internalType": "address",
					"name": "to",
					"type": "address"
				},
				{
					"internalType": "uint256",
					"name": "tokenId",
					"type": "uint256"
				}
			],
			"name": "approve",
			"outputs": [],
			"stateMutability": "nonpayable",
			"type": "function"
		},
		{
			"inputs": [
				{
					"internalType": "address",
					"name": "owner",
					"type": "address"
				}
			],
			"name": "balanceOf",
			"outputs": [
				{
					"internalType": "uint256",
					"name": "",
					"type": "uint256"
				}
			],
			"stateMutability": "view",
			"type": "function"
		},
		{
			"inputs": [
				{
					"internalType": "uint256",
					"name": "",
					"type": "uint256"
				}
			],
			"name": "fightIDToWinnerPokemon",
			"outputs": [
				{
					"internalType": "uint256",
					"name": "id",
					"type": "uint256"
				},
				{
					"internalType": "uint256",
					"name": "hp",
					"type": "uint256"
				},
				{
					"internalType": "uint256",
					"name": "atk",
					"type": "uint256"
				},
				{
					"internalType": "uint256",
					"name": "init",
					"type": "uint256"
				},
				{
					"internalType": "uint256",
					"name": "def",
					"type": "uint256"
				},
				{
					"internalType": "uint256",
					"name": "type1",
					"type": "uint256"
				},
				{
					"internalType": "uint256",
					"name": "type2",
					"type": "uint256"
				},
				{
					"internalType": "uint256",
					"name": "atk1_type",
					"type": "uint256"
				},
				{
					"internalType": "uint256",
					"name": "atk1_damage",
					"type": "uint256"
				},
				{
					"internalType": "uint256",
					"name": "atk2_type",
					"type": "uint256"
				},
				{
					"internalType": "uint256",
					"name": "atk2_damage",
					"type": "uint256"
				},
				{
					"internalType": "uint256",
					"name": "name_id",
					"type": "uint256"
				}
			],
			"stateMutability": "view",
			"type": "function"
		},
		{
			"inputs": [
				{
					"internalType": "uint256",
					"name": "tokenId",
					"type": "uint256"
				}
			],
			"name": "getApproved",
			"outputs": [
				{
					"internalType": "address",
					"name": "",
					"type": "address"
				}
			],
			"stateMutability": "view",
			"type": "function"
		},
		{
			"inputs": [
				{
					"internalType": "uint256",
					"name": "pokemonWinnerID",
					"type": "uint256"
				},
				{
					"internalType": "uint256",
					"name": "fightID",
					"type": "uint256"
				}
			],
			"name": "get_winner",
			"outputs": [],
			"stateMutability": "nonpayable",
			"type": "function"
		},
		{
			"inputs": [
				{
					"internalType": "address",
					"name": "owner",
					"type": "address"
				},
				{
					"internalType": "address",
					"name": "operator",
					"type": "address"
				}
			],
			"name": "isApprovedForAll",
			"outputs": [
				{
					"internalType": "bool",
					"name": "",
					"type": "bool"
				}
			],
			"stateMutability": "view",
			"type": "function"
		},
		{
			"inputs": [
				{
					"internalType": "uint256",
					"name": "_name_id",
					"type": "uint256"
				}
			],
			"name": "mint",
			"outputs": [],
			"stateMutability": "nonpayable",
			"type": "function"
		},
		{
			"inputs": [],
			"name": "name",
			"outputs": [
				{
					"internalType": "string",
					"name": "",
					"type": "string"
				}
			],
			"stateMutability": "view",
			"type": "function"
		},
		{
			"inputs": [
				{
					"internalType": "uint256",
					"name": "tokenId",
					"type": "uint256"
				}
			],
			"name": "ownerOf",
			"outputs": [
				{
					"internalType": "address",
					"name": "",
					"type": "address"
				}
			],
			"stateMutability": "view",
			"type": "function"
		},
		{
			"inputs": [
				{
					"internalType": "uint256",
					"name": "",
					"type": "uint256"
				}
			],
			"name": "pokemons",
			"outputs": [
				{
					"internalType": "uint256",
					"name": "id",
					"type": "uint256"
				},
				{
					"internalType": "uint256",
					"name": "hp",
					"type": "uint256"
				},
				{
					"internalType": "uint256",
					"name": "atk",
					"type": "uint256"
				},
				{
					"internalType": "uint256",
					"name": "init",
					"type": "uint256"
				},
				{
					"internalType": "uint256",
					"name": "def",
					"type": "uint256"
				},
				{
					"internalType": "uint256",
					"name": "type1",
					"type": "uint256"
				},
				{
					"internalType": "uint256",
					"name": "type2",
					"type": "uint256"
				},
				{
					"internalType": "uint256",
					"name": "atk1_type",
					"type": "uint256"
				},
				{
					"internalType": "uint256",
					"name": "atk1_damage",
					"type": "uint256"
				},
				{
					"internalType": "uint256",
					"name": "atk2_type",
					"type": "uint256"
				},
				{
					"internalType": "uint256",
					"name": "atk2_damage",
					"type": "uint256"
				},
				{
					"internalType": "uint256",
					"name": "name_id",
					"type": "uint256"
				}
			],
			"stateMutability": "view",
			"type": "function"
		},
		{
			"inputs": [
				{
					"internalType": "address",
					"name": "from",
					"type": "address"
				},
				{
					"internalType": "address",
					"name": "to",
					"type": "address"
				},
				{
					"internalType": "uint256",
					"name": "tokenId",
					"type": "uint256"
				}
			],
			"name": "safeTransferFrom",
			"outputs": [],
			"stateMutability": "nonpayable",
			"type": "function"
		},
		{
			"inputs": [
				{
					"internalType": "address",
					"name": "from",
					"type": "address"
				},
				{
					"internalType": "address",
					"name": "to",
					"type": "address"
				},
				{
					"internalType": "uint256",
					"name": "tokenId",
					"type": "uint256"
				},
				{
					"internalType": "bytes",
					"name": "_data",
					"type": "bytes"
				}
			],
			"name": "safeTransferFrom",
			"outputs": [],
			"stateMutability": "nonpayable",
			"type": "function"
		},
		{
			"inputs": [
				{
					"internalType": "uint256",
					"name": "test_num",
					"type": "uint256"
				}
			],
			"name": "sendDummyMessage",
			"outputs": [],
			"stateMutability": "nonpayable",
			"type": "function"
		},
		{
			"inputs": [
				{
					"internalType": "uint256",
					"name": "myPok",
					"type": "uint256"
				},
				{
					"internalType": "uint256",
					"name": "enemyPok",
					"type": "uint256"
				}
			],
			"name": "sendPokemonsToL2",
			"outputs": [],
			"stateMutability": "payable",
			"type": "function"
		},
		{
			"inputs": [
				{
					"internalType": "address",
					"name": "operator",
					"type": "address"
				},
				{
					"internalType": "bool",
					"name": "approved",
					"type": "bool"
				}
			],
			"name": "setApprovalForAll",
			"outputs": [],
			"stateMutability": "nonpayable",
			"type": "function"
		},
		{
			"inputs": [
				{
					"internalType": "bytes4",
					"name": "interfaceId",
					"type": "bytes4"
				}
			],
			"name": "supportsInterface",
			"outputs": [
				{
					"internalType": "bool",
					"name": "",
					"type": "bool"
				}
			],
			"stateMutability": "view",
			"type": "function"
		},
		{
			"inputs": [],
			"name": "symbol",
			"outputs": [
				{
					"internalType": "string",
					"name": "",
					"type": "string"
				}
			],
			"stateMutability": "view",
			"type": "function"
		},
		{
			"inputs": [
				{
					"internalType": "uint256",
					"name": "index",
					"type": "uint256"
				}
			],
			"name": "tokenByIndex",
			"outputs": [
				{
					"internalType": "uint256",
					"name": "",
					"type": "uint256"
				}
			],
			"stateMutability": "view",
			"type": "function"
		},
		{
			"inputs": [
				{
					"internalType": "address",
					"name": "owner",
					"type": "address"
				},
				{
					"internalType": "uint256",
					"name": "index",
					"type": "uint256"
				}
			],
			"name": "tokenOfOwnerByIndex",
			"outputs": [
				{
					"internalType": "uint256",
					"name": "",
					"type": "uint256"
				}
			],
			"stateMutability": "view",
			"type": "function"
		},
		{
			"inputs": [
				{
					"internalType": "uint256",
					"name": "tokenId",
					"type": "uint256"
				}
			],
			"name": "tokenURI",
			"outputs": [
				{
					"internalType": "string",
					"name": "",
					"type": "string"
				}
			],
			"stateMutability": "view",
			"type": "function"
		},
		{
			"inputs": [],
			"name": "totalSupply",
			"outputs": [
				{
					"internalType": "uint256",
					"name": "",
					"type": "uint256"
				}
			],
			"stateMutability": "view",
			"type": "function"
		},
		{
			"inputs": [
				{
					"internalType": "address",
					"name": "from",
					"type": "address"
				},
				{
					"internalType": "address",
					"name": "to",
					"type": "address"
				},
				{
					"internalType": "uint256",
					"name": "tokenId",
					"type": "uint256"
				}
			],
			"name": "transferFrom",
			"outputs": [],
			"stateMutability": "nonpayable",
			"type": "function"
		}
	]
}