{
	"data": {
		"bytecode": {
			"linkReferences": {},
			"object": "60806040527f031ed78fcdc3ee496dd9d86cbe8b32a48cb29d2dcae68731fc327b919093c504600c557f070bfe7abd1e5ad5eecfdf91a3c19aae8773ed2ff0a5afaf0193556fa4e41a51600d557f070bfe7abd1e5ad5eecfdf91a3c19aae8773ed2ff0a5afaf0193556fa4e41a51600e557f0163eda3f95412c085f30f643de2b57a27d17d98a8c7558af440a1bf02b68e84600f556000601055348015620000a657600080fd5b506040518060400160405280600381526020017f4e465400000000000000000000000000000000000000000000000000000000008152506040518060400160405280600281526020017f434300000000000000000000000000000000000000000000000000000000000081525081600090805190602001906200012b929190620001a2565b50806001908051906020019062000144929190620001a2565b50505073de29d060d45901fb19ed6c6e959eb22d8626708e600b60006101000a81548173ffffffffffffffffffffffffffffffffffffffff021916908373ffffffffffffffffffffffffffffffffffffffff160217905550620002b7565b828054620001b09062000252565b90600052602060002090601f016020900481019282620001d4576000855562000220565b82601f10620001ef57805160ff191683800117855562000220565b8280016001018555821562000220579182015b828111156200021f57825182559160200191906001019062000202565b5b5090506200022f919062000233565b5090565b5b808211156200024e57600081600090555060010162000234565b5090565b600060028204905060018216806200026b57607f821691505b6020821081141562000282576200028162000288565b5b50919050565b7f4e487b7100000000000000000000000000000000000000000000000000000000600052602260045260246000fd5b614a6880620002c76000396000f3fe6080604052600436106101815760003560e01c80637b48141e116100d1578063a22cb4651161008a578063c87b56dd11610064578063c87b56dd14610572578063d82fe3b7146105af578063ddf19a31146105f7578063e985e9c51461062057610181565b8063a22cb46514610516578063b74600d41461053f578063b88d4fde1461054957610181565b80637b48141e1461040c578063858310791461043557806385b1c79d1461047d578063951246291461049957806395d89b41146104c2578063a0712d68146104ed57610181565b80632f745c591161013e5780634a16bd02116101185780634a16bd021461034b5780634f6ccce7146103555780636352211e1461039257806370a08231146103cf57610181565b80632f745c59146102a85780633a7174f8146102e557806342842e0e1461032257610181565b806301ffc9a71461018657806306fdde03146101c3578063081812fc146101ee578063095ea7b31461022b57806318160ddd1461025457806323b872dd1461027f575b600080fd5b34801561019257600080fd5b506101ad60048036038101906101a891906134fc565b61065d565b6040516101ba9190613b85565b60405180910390f35b3480156101cf57600080fd5b506101d861066f565b6040516101e59190613c5d565b60405180910390f35b3480156101fa57600080fd5b5061021560048036038101906102109190613556565b610701565b6040516102229190613b1e565b60405180910390f35b34801561023757600080fd5b50610252600480360381019061024d919061348f565b610786565b005b34801561026057600080fd5b5061026961089e565b6040516102769190613e9b565b60405180910390f35b34801561028b57600080fd5b506102a660048036038101906102a19190613379565b6108ab565b005b3480156102b457600080fd5b506102cf60048036038101906102ca919061348f565b61090b565b6040516102dc9190613e9b565b60405180910390f35b3480156102f157600080fd5b5061030c60048036038101906103079190613583565b6109b0565b6040516103199190613e7f565b60405180910390f35b34801561032e57600080fd5b5061034960048036038101906103449190613379565b610a89565b005b610353610aa9565b005b34801561036157600080fd5b5061037c60048036038101906103779190613556565b610c07565b6040516103899190613e9b565b60405180910390f35b34801561039e57600080fd5b506103b960048036038101906103b49190613556565b610c78565b6040516103c69190613b1e565b60405180910390f35b3480156103db57600080fd5b506103f660048036038101906103f1919061330c565b610d2a565b6040516104039190613e9b565b60405180910390f35b34801561041857600080fd5b50610433600480360381019061042e9190613556565b610de2565b005b34801561044157600080fd5b5061045c60048036038101906104579190613556565b610f77565b6040516104749c9b9a99989796959493929190613fa0565b60405180910390f35b61049760048036038101906104929190613583565b610fe7565b005b3480156104a557600080fd5b506104c060048036038101906104bb9190613556565b611719565b005b3480156104ce57600080fd5b506104d76118ae565b6040516104e49190613c5d565b60405180910390f35b3480156104f957600080fd5b50610514600480360381019061050f9190613556565b611940565b005b34801561052257600080fd5b5061053d6004803603810190610538919061344f565b611a0b565b005b610547611a21565b005b34801561055557600080fd5b50610570600480360381019061056b91906133cc565b611b7e565b005b34801561057e57600080fd5b5061059960048036038101906105949190613556565b611be0565b6040516105a69190613c5d565b60405180910390f35b3480156105bb57600080fd5b506105d660048036038101906105d19190613556565b611c87565b6040516105ee9c9b9a99989796959493929190613fa0565b60405180910390f35b34801561060357600080fd5b5061061e600480360381019061061991906135c3565b611ce7565b005b34801561062c57600080fd5b5061064760048036038101906106429190613339565b611f51565b6040516106549190613b85565b60405180910390f35b600061066882611fe5565b9050919050565b60606000805461067e90614325565b80601f01602080910402602001604051908101604052809291908181526020018280546106aa90614325565b80156106f75780601f106106cc576101008083540402835291602001916106f7565b820191906000526020600020905b8154815290600101906020018083116106da57829003601f168201915b5050505050905090565b600061070c8261205f565b61074b576040517f08c379a000000000000000000000000000000000000000000000000000000000815260040161074290613ddf565b60405180910390fd5b6004600083815260200190815260200160002060009054906101000a900473ffffffffffffffffffffffffffffffffffffffff169050919050565b600061079182610c78565b90508073ffffffffffffffffffffffffffffffffffffffff168373ffffffffffffffffffffffffffffffffffffffff161415610802576040517f08c379a00000000000000000000000000000000000000000000000000000000081526004016107f990613e1f565b60405180910390fd5b8073ffffffffffffffffffffffffffffffffffffffff166108216120cb565b73ffffffffffffffffffffffffffffffffffffffff161480610850575061084f8161084a6120cb565b611f51565b5b61088f576040517f08c379a000000000000000000000000000000000000000000000000000000000815260040161088690613d5f565b60405180910390fd5b61089983836120d3565b505050565b6000600880549050905090565b6108bc6108b66120cb565b8261218c565b6108fb576040517f08c379a00000000000000000000000000000000000000000000000000000000081526004016108f290613e3f565b60405180910390fd5b61090683838361226a565b505050565b600061091683610d2a565b8210610957576040517f08c379a000000000000000000000000000000000000000000000000000000000815260040161094e90613c7f565b60405180910390fd5b600660008473ffffffffffffffffffffffffffffffffffffffff1673ffffffffffffffffffffffffffffffffffffffff168152602001908152602001600020600083815260200190815260200160002054905092915050565b6109b86131bd565b6001831415610a245760405180610180016040528083815260200160988152602001606f8152602001606a8152602001606f8152602001600881526020016000815260200160088152602001601e8152602001600b815260200160288152602001848152509050610a83565b604051806101800160405280838152602001608e815260200160758152602001609c815260200160658152602001600381526020016000815260200160038152602001601e8152602001600b8152602001602381526020018481525090505b92915050565b610aa483838360405180602001604052806000815250611b7e565b505050565b60008067ffffffffffffffff811115610ac557610ac46144ed565b5b604051908082528060200260200182016040528015610af35781602001602082028036833780820191505090505b5090507f877bc3e3dbf475ead0821fea1e1be8e57a0c7200fe646d2d6ee72fdc77374440610378604051610b279190613c27565b60405180910390a1600b60009054906101000a900473ffffffffffffffffffffffffffffffffffffffff1673ffffffffffffffffffffffffffffffffffffffff16633e3aa6c534600c547f023c6db6f2efd58ac5558b8a3fbb5f7d7afe358e1501cc78c2bc747201ca0a2a856040518563ffffffff1660e01b8152600401610bb193929190613ee6565b6020604051808303818588803b158015610bca57600080fd5b505af1158015610bde573d6000803e3d6000fd5b50505050506040513d601f19601f82011682018060405250810190610c0391906134cf565b5050565b6000610c1161089e565b8210610c52576040517f08c379a0000000000000000000000000000000000000000000000000000000008152600401610c4990613e5f565b60405180910390fd5b60088281548110610c6657610c656144be565b5b90600052602060002001549050919050565b6000806002600084815260200190815260200160002060009054906101000a900473ffffffffffffffffffffffffffffffffffffffff169050600073ffffffffffffffffffffffffffffffffffffffff168173ffffffffffffffffffffffffffffffffffffffff161415610d21576040517f08c379a0000000000000000000000000000000000000000000000000000000008152600401610d1890613d9f565b60405180910390fd5b80915050919050565b60008073ffffffffffffffffffffffffffffffffffffffff168273ffffffffffffffffffffffffffffffffffffffff161415610d9b576040517f08c379a0000000000000000000000000000000000000000000000000000000008152600401610d9290613d7f565b60405180910390fd5b600360008373ffffffffffffffffffffffffffffffffffffffff1673ffffffffffffffffffffffffffffffffffffffff168152602001908152602001600020549050919050565b7f877bc3e3dbf475ead0821fea1e1be8e57a0c7200fe646d2d6ee72fdc77374440610309604051610e139190613c0c565b60405180910390a16000600167ffffffffffffffff811115610e3857610e376144ed565b5b604051908082528060200260200182016040528015610e665781602001602082028036833780820191505090505b5090508181600081518110610e7e57610e7d6144be565b5b602002602001018181525050600b60009054906101000a900473ffffffffffffffffffffffffffffffffffffffff1673ffffffffffffffffffffffffffffffffffffffff16632c9dd5c0600e54836040518363ffffffff1660e01b8152600401610ee9929190613eb6565b602060405180830381600087803b158015610f0357600080fd5b505af1158015610f17573d6000803e3d6000fd5b505050506040513d601f19601f82011682018060405250810190610f3b91906134cf565b507f877bc3e3dbf475ead0821fea1e1be8e57a0c7200fe646d2d6ee72fdc7737444082604051610f6b9190613e9b565b60405180910390a15050565b600a8181548110610f8757600080fd5b90600052602060002090600c020160009150905080600001549080600101549080600201549080600301549080600401549080600501549080600601549080600701549080600801549080600901549080600a01549080600b015490508c565b7f3593df2963c20760afeec7bc9ae99f0ad8227ec08877590930b113d33df9c06760016040516110179190613bbb565b60405180910390a16000600a8381548110611035576110346144be565b5b90600052602060002090600c02016040518061018001604052908160008201548152602001600182015481526020016002820154815260200160038201548152602001600482015481526020016005820154815260200160068201548152602001600782015481526020016008820154815260200160098201548152602001600a8201548152602001600b8201548152505090506000600a83815481106110df576110de6144be565b5b90600052602060002090600c02016040518061018001604052908160008201548152602001600182015481526020016002820154815260200160038201548152602001600482015481526020016005820154815260200160068201548152602001600782015481526020016008820154815260200160098201548152602001600a8201548152602001600b820154815250509050600061117d6124d1565b90507f3593df2963c20760afeec7bc9ae99f0ad8227ec08877590930b113d33df9c06760026040516111af9190613bd6565b60405180910390a16000601967ffffffffffffffff8111156111d4576111d36144ed565b5b6040519080825280602002602001820160405280156112025781602001602082028036833780820191505090505b50905083600001518160008151811061121e5761121d6144be565b5b602002602001018181525050836020015181600181518110611243576112426144be565b5b602002602001018181525050836040015181600281518110611268576112676144be565b5b60200260200101818152505083606001518160038151811061128d5761128c6144be565b5b6020026020010181815250508360800151816004815181106112b2576112b16144be565b5b6020026020010181815250508360a00151816005815181106112d7576112d66144be565b5b6020026020010181815250508360c00151816006815181106112fc576112fb6144be565b5b6020026020010181815250508360e0015181600781518110611321576113206144be565b5b60200260200101818152505083610100015181600881518110611347576113466144be565b5b6020026020010181815250508361012001518160098151811061136d5761136c6144be565b5b60200260200101818152505083610140015181600a81518110611393576113926144be565b5b60200260200101818152505083610160015181600b815181106113b9576113b86144be565b5b602002602001018181525050826000015181600c815181106113de576113dd6144be565b5b602002602001018181525050826020015181600d81518110611403576114026144be565b5b602002602001018181525050826040015181600e81518110611428576114276144be565b5b602002602001018181525050826060015181600f8151811061144d5761144c6144be565b5b602002602001018181525050826080015181601081518110611472576114716144be565b5b6020026020010181815250508260a0015181601181518110611497576114966144be565b5b6020026020010181815250508260c00151816012815181106114bc576114bb6144be565b5b6020026020010181815250508260e00151816013815181106114e1576114e06144be565b5b60200260200101818152505082610100015181601481518110611507576115066144be565b5b6020026020010181815250508261012001518160158151811061152d5761152c6144be565b5b60200260200101818152505082610140015181601681518110611553576115526144be565b5b60200260200101818152505082610160015181601781518110611579576115786144be565b5b602002602001018181525050818160188151811061159a576115996144be565b5b6020026020010181815250507f3593df2963c20760afeec7bc9ae99f0ad8227ec08877590930b113d33df9c06760036040516115d69190613bf1565b60405180910390a1600b60009054906101000a900473ffffffffffffffffffffffffffffffffffffffff1673ffffffffffffffffffffffffffffffffffffffff16633e3aa6c534600f547f0397f7783310f752c90187fffbd53489b1ff1f87fcf4636e32dc6bcbbf0b224f856040518563ffffffff1660e01b815260040161166093929190613ee6565b6020604051808303818588803b15801561167957600080fd5b505af115801561168d573d6000803e3d6000fd5b50505050506040513d601f19601f820116820180604052508101906116b291906134cf565b503373ffffffffffffffffffffffffffffffffffffffff167fd02fce1acafa0b604f24aaad2d7c0a36c749f4b333abc05fc83ba197d5e0705c85600001518560000151600f54346040516117099493929190613f5b565b60405180910390a2505050505050565b7f877bc3e3dbf475ead0821fea1e1be8e57a0c7200fe646d2d6ee72fdc7737444061030960405161174a9190613c0c565b60405180910390a16000600167ffffffffffffffff81111561176f5761176e6144ed565b5b60405190808252806020026020018201604052801561179d5781602001602082028036833780820191505090505b50905081816000815181106117b5576117b46144be565b5b602002602001018181525050600b60009054906101000a900473ffffffffffffffffffffffffffffffffffffffff1673ffffffffffffffffffffffffffffffffffffffff16632c9dd5c0600d54836040518363ffffffff1660e01b8152600401611820929190613eb6565b602060405180830381600087803b15801561183a57600080fd5b505af115801561184e573d6000803e3d6000fd5b505050506040513d601f19601f8201168201806040525081019061187291906134cf565b507f877bc3e3dbf475ead0821fea1e1be8e57a0c7200fe646d2d6ee72fdc77374440826040516118a29190613e9b565b60405180910390a15050565b6060600180546118bd90614325565b80601f01602080910402602001604051908101604052809291908181526020018280546118e990614325565b80156119365780601f1061190b57610100808354040283529160200191611936565b820191906000526020600020905b81548152906001019060200180831161191957829003601f168201915b5050505050905090565b6000600a805490509050600a61195683836109b0565b90806001815401808255809150506001900390600052602060002090600c0201600090919091909150600082015181600001556020820151816001015560408201518160020155606082015181600301556080820151816004015560a0820151816005015560c0820151816006015560e082015181600701556101008201518160080155610120820151816009015561014082015181600a015561016082015181600b01555050611a0733826124ef565b5050565b611a1d611a166120cb565b838361250d565b5050565b60008067ffffffffffffffff811115611a3d57611a3c6144ed565b5b604051908082528060200260200182016040528015611a6b5781602001602082028036833780820191505090505b5090507f877bc3e3dbf475ead0821fea1e1be8e57a0c7200fe646d2d6ee72fdc773744406103e7604051611a9f9190613c42565b60405180910390a1600b60009054906101000a900473ffffffffffffffffffffffffffffffffffffffff1673ffffffffffffffffffffffffffffffffffffffff16633e3aa6c534600d547e75658dc2740a020955d83ce6d82d891efc27dba6ee1250e2ccaa659555f8cc856040518563ffffffff1660e01b8152600401611b2893929190613ee6565b6020604051808303818588803b158015611b4157600080fd5b505af1158015611b55573d6000803e3d6000fd5b50505050506040513d601f19601f82011682018060405250810190611b7a91906134cf565b5050565b611b8f611b896120cb565b8361218c565b611bce576040517f08c379a0000000000000000000000000000000000000000000000000000000008152600401611bc590613e3f565b60405180910390fd5b611bda8484848461267a565b50505050565b6060611beb8261205f565b611c2a576040517f08c379a0000000000000000000000000000000000000000000000000000000008152600401611c2190613dff565b60405180910390fd5b6000611c346126d6565b90506000815111611c545760405180602001604052806000815250611c7f565b80611c5e846126ed565b604051602001611c6f929190613afa565b6040516020818303038152906040525b915050919050565b601160205280600052604060002060009150905080600001549080600101549080600201549080600301549080600401549080600501549080600601549080600701549080600801549080600901549080600a01549080600b015490508c565b7f0ed9918e573b159b62731bc88263b9ce84e79c6335fbba2b28f981840126e16f612b67604051611d189190613ba0565b60405180910390a16000600267ffffffffffffffff811115611d3d57611d3c6144ed565b5b604051908082528060200260200182016040528015611d6b5781602001602082028036833780820191505090505b5090508281600081518110611d8357611d826144be565b5b6020026020010181815250508181600181518110611da457611da36144be565b5b602002602001018181525050600b60009054906101000a900473ffffffffffffffffffffffffffffffffffffffff1673ffffffffffffffffffffffffffffffffffffffff16632c9dd5c085836040518363ffffffff1660e01b8152600401611e0d929190613eb6565b602060405180830381600087803b158015611e2757600080fd5b505af1158015611e3b573d6000803e3d6000fd5b505050506040513d601f19601f82011682018060405250810190611e5f91906134cf565b50600a8381548110611e7457611e736144be565b5b90600052602060002090600c02016011600084815260200190815260200160002060008201548160000155600182015481600101556002820154816002015560038201548160030155600482015481600401556005820154816005015560068201548160060155600782015481600701556008820154816008015560098201548160090155600a82015481600a0155600b82015481600b01559050507fb8d7090364da4a6371334296aaf588e8d119f8490ac61ce968a539406164f5fb848484604051611f4393929190613f24565b60405180910390a150505050565b6000600560008473ffffffffffffffffffffffffffffffffffffffff1673ffffffffffffffffffffffffffffffffffffffff16815260200190815260200160002060008373ffffffffffffffffffffffffffffffffffffffff1673ffffffffffffffffffffffffffffffffffffffff16815260200190815260200160002060009054906101000a900460ff16905092915050565b60007f780e9d63000000000000000000000000000000000000000000000000000000007bffffffffffffffffffffffffffffffffffffffffffffffffffffffff1916827bffffffffffffffffffffffffffffffffffffffffffffffffffffffff1916148061205857506120578261284e565b5b9050919050565b60008073ffffffffffffffffffffffffffffffffffffffff166002600084815260200190815260200160002060009054906101000a900473ffffffffffffffffffffffffffffffffffffffff1673ffffffffffffffffffffffffffffffffffffffff1614159050919050565b600033905090565b816004600083815260200190815260200160002060006101000a81548173ffffffffffffffffffffffffffffffffffffffff021916908373ffffffffffffffffffffffffffffffffffffffff160217905550808273ffffffffffffffffffffffffffffffffffffffff1661214683610c78565b73ffffffffffffffffffffffffffffffffffffffff167f8c5be1e5ebec7d5bd14f71427d1e84f3dd0314c0f7b2291e5b200ac8c7c3b92560405160405180910390a45050565b60006121978261205f565b6121d6576040517f08c379a00000000000000000000000000000000000000000000000000000000081526004016121cd90613d3f565b60405180910390fd5b60006121e183610c78565b90508073ffffffffffffffffffffffffffffffffffffffff168473ffffffffffffffffffffffffffffffffffffffff16148061222357506122228185611f51565b5b8061226157508373ffffffffffffffffffffffffffffffffffffffff1661224984610701565b73ffffffffffffffffffffffffffffffffffffffff16145b91505092915050565b8273ffffffffffffffffffffffffffffffffffffffff1661228a82610c78565b73ffffffffffffffffffffffffffffffffffffffff16146122e0576040517f08c379a00000000000000000000000000000000000000000000000000000000081526004016122d790613cbf565b60405180910390fd5b600073ffffffffffffffffffffffffffffffffffffffff168273ffffffffffffffffffffffffffffffffffffffff161415612350576040517f08c379a000000000000000000000000000000000000000000000000000000000815260040161234790613cff565b60405180910390fd5b61235b838383612930565b6123666000826120d3565b6001600360008573ffffffffffffffffffffffffffffffffffffffff1673ffffffffffffffffffffffffffffffffffffffff16815260200190815260200160002060008282546123b691906141b3565b925050819055506001600360008473ffffffffffffffffffffffffffffffffffffffff1673ffffffffffffffffffffffffffffffffffffffff168152602001908152602001600020600082825461240d919061412c565b92505081905550816002600083815260200190815260200160002060006101000a81548173ffffffffffffffffffffffffffffffffffffffff021916908373ffffffffffffffffffffffffffffffffffffffff160217905550808273ffffffffffffffffffffffffffffffffffffffff168473ffffffffffffffffffffffffffffffffffffffff167fddf252ad1be2c89b69c2b068fc378daa952ba7f163c4a11628f55a4df523b3ef60405160405180910390a46124cc838383612940565b505050565b6000601060008154809291906124e690614388565b91905055905090565b612509828260405180602001604052806000815250612945565b5050565b8173ffffffffffffffffffffffffffffffffffffffff168373ffffffffffffffffffffffffffffffffffffffff16141561257c576040517f08c379a000000000000000000000000000000000000000000000000000000000815260040161257390613d1f565b60405180910390fd5b80600560008573ffffffffffffffffffffffffffffffffffffffff1673ffffffffffffffffffffffffffffffffffffffff16815260200190815260200160002060008473ffffffffffffffffffffffffffffffffffffffff1673ffffffffffffffffffffffffffffffffffffffff16815260200190815260200160002060006101000a81548160ff0219169083151502179055508173ffffffffffffffffffffffffffffffffffffffff168373ffffffffffffffffffffffffffffffffffffffff167f17307eab39ab6107e8899845ad3d59bd9653f200f220920489ca2b5937696c318360405161266d9190613b85565b60405180910390a3505050565b61268584848461226a565b612691848484846129a0565b6126d0576040517f08c379a00000000000000000000000000000000000000000000000000000000081526004016126c790613c9f565b60405180910390fd5b50505050565b606060405180602001604052806000815250905090565b60606000821415612735576040518060400160405280600181526020017f30000000000000000000000000000000000000000000000000000000000000008152509050612849565b600082905060005b6000821461276757808061275090614388565b915050600a826127609190614182565b915061273d565b60008167ffffffffffffffff811115612783576127826144ed565b5b6040519080825280601f01601f1916602001820160405280156127b55781602001600182028036833780820191505090505b5090505b60008514612842576001826127ce91906141b3565b9150600a856127dd91906143d1565b60306127e9919061412c565b60f81b8183815181106127ff576127fe6144be565b5b60200101907effffffffffffffffffffffffffffffffffffffffffffffffffffffffffffff1916908160001a905350600a8561283b9190614182565b94506127b9565b8093505050505b919050565b60007f80ac58cd000000000000000000000000000000000000000000000000000000007bffffffffffffffffffffffffffffffffffffffffffffffffffffffff1916827bffffffffffffffffffffffffffffffffffffffffffffffffffffffff1916148061291957507f5b5e139f000000000000000000000000000000000000000000000000000000007bffffffffffffffffffffffffffffffffffffffffffffffffffffffff1916827bffffffffffffffffffffffffffffffffffffffffffffffffffffffff1916145b80612929575061292882612b37565b5b9050919050565b61293b838383612ba1565b505050565b505050565b61294f8383612cb5565b61295c60008484846129a0565b61299b576040517f08c379a000000000000000000000000000000000000000000000000000000000815260040161299290613c9f565b60405180910390fd5b505050565b60006129c18473ffffffffffffffffffffffffffffffffffffffff16612e8f565b15612b2a578373ffffffffffffffffffffffffffffffffffffffff1663150b7a026129ea6120cb565b8786866040518563ffffffff1660e01b8152600401612a0c9493929190613b39565b602060405180830381600087803b158015612a2657600080fd5b505af1925050508015612a5757506040513d601f19601f82011682018060405250810190612a549190613529565b60015b612ada573d8060008114612a87576040519150601f19603f3d011682016040523d82523d6000602084013e612a8c565b606091505b50600081511415612ad2576040517f08c379a0000000000000000000000000000000000000000000000000000000008152600401612ac990613c9f565b60405180910390fd5b805181602001fd5b63150b7a0260e01b7bffffffffffffffffffffffffffffffffffffffffffffffffffffffff1916817bffffffffffffffffffffffffffffffffffffffffffffffffffffffff191614915050612b2f565b600190505b949350505050565b60007f01ffc9a7000000000000000000000000000000000000000000000000000000007bffffffffffffffffffffffffffffffffffffffffffffffffffffffff1916827bffffffffffffffffffffffffffffffffffffffffffffffffffffffff1916149050919050565b612bac838383612eb2565b600073ffffffffffffffffffffffffffffffffffffffff168373ffffffffffffffffffffffffffffffffffffffff161415612bef57612bea81612eb7565b612c2e565b8173ffffffffffffffffffffffffffffffffffffffff168373ffffffffffffffffffffffffffffffffffffffff1614612c2d57612c2c8382612f00565b5b5b600073ffffffffffffffffffffffffffffffffffffffff168273ffffffffffffffffffffffffffffffffffffffff161415612c7157612c6c8161306d565b612cb0565b8273ffffffffffffffffffffffffffffffffffffffff168273ffffffffffffffffffffffffffffffffffffffff1614612caf57612cae828261313e565b5b5b505050565b600073ffffffffffffffffffffffffffffffffffffffff168273ffffffffffffffffffffffffffffffffffffffff161415612d25576040517f08c379a0000000000000000000000000000000000000000000000000000000008152600401612d1c90613dbf565b60405180910390fd5b612d2e8161205f565b15612d6e576040517f08c379a0000000000000000000000000000000000000000000000000000000008152600401612d6590613cdf565b60405180910390fd5b612d7a60008383612930565b6001600360008473ffffffffffffffffffffffffffffffffffffffff1673ffffffffffffffffffffffffffffffffffffffff1681526020019081526020016000206000828254612dca919061412c565b92505081905550816002600083815260200190815260200160002060006101000a81548173ffffffffffffffffffffffffffffffffffffffff021916908373ffffffffffffffffffffffffffffffffffffffff160217905550808273ffffffffffffffffffffffffffffffffffffffff16600073ffffffffffffffffffffffffffffffffffffffff167fddf252ad1be2c89b69c2b068fc378daa952ba7f163c4a11628f55a4df523b3ef60405160405180910390a4612e8b60008383612940565b5050565b6000808273ffffffffffffffffffffffffffffffffffffffff163b119050919050565b505050565b6008805490506009600083815260200190815260200160002081905550600881908060018154018082558091505060019003906000526020600020016000909190919091505550565b60006001612f0d84610d2a565b612f1791906141b3565b9050600060076000848152602001908152602001600020549050818114612ffc576000600660008673ffffffffffffffffffffffffffffffffffffffff1673ffffffffffffffffffffffffffffffffffffffff168152602001908152602001600020600084815260200190815260200160002054905080600660008773ffffffffffffffffffffffffffffffffffffffff1673ffffffffffffffffffffffffffffffffffffffff168152602001908152602001600020600084815260200190815260200160002081905550816007600083815260200190815260200160002081905550505b6007600084815260200190815260200160002060009055600660008573ffffffffffffffffffffffffffffffffffffffff1673ffffffffffffffffffffffffffffffffffffffff16815260200190815260200160002060008381526020019081526020016000206000905550505050565b6000600160088054905061308191906141b3565b90506000600960008481526020019081526020016000205490506000600883815481106130b1576130b06144be565b5b9060005260206000200154905080600883815481106130d3576130d26144be565b5b9060005260206000200181905550816009600083815260200190815260200160002081905550600960008581526020019081526020016000206000905560088054806131225761312161448f565b5b6001900381819060005260206000200160009055905550505050565b600061314983610d2a565b905081600660008573ffffffffffffffffffffffffffffffffffffffff1673ffffffffffffffffffffffffffffffffffffffff168152602001908152602001600020600083815260200190815260200160002081905550806007600084815260200190815260200160002081905550505050565b6040518061018001604052806000815260200160008152602001600081526020016000815260200160008152602001600081526020016000815260200160008152602001600081526020016000815260200160008152602001600081525090565b600061323161322c8461407f565b61405a565b90508281526020810184848401111561324d5761324c614521565b5b6132588482856142e3565b509392505050565b60008135905061326f816149bf565b92915050565b600081359050613284816149d6565b92915050565b600081519050613299816149ed565b92915050565b6000813590506132ae81614a04565b92915050565b6000815190506132c381614a04565b92915050565b600082601f8301126132de576132dd61451c565b5b81356132ee84826020860161321e565b91505092915050565b60008135905061330681614a1b565b92915050565b6000602082840312156133225761332161452b565b5b600061333084828501613260565b91505092915050565b600080604083850312156133505761334f61452b565b5b600061335e85828601613260565b925050602061336f85828601613260565b9150509250929050565b6000806000606084860312156133925761339161452b565b5b60006133a086828701613260565b93505060206133b186828701613260565b92505060406133c2868287016132f7565b9150509250925092565b600080600080608085870312156133e6576133e561452b565b5b60006133f487828801613260565b945050602061340587828801613260565b9350506040613416878288016132f7565b925050606085013567ffffffffffffffff81111561343757613436614526565b5b613443878288016132c9565b91505092959194509250565b600080604083850312156134665761346561452b565b5b600061347485828601613260565b925050602061348585828601613275565b9150509250929050565b600080604083850312156134a6576134a561452b565b5b60006134b485828601613260565b92505060206134c5858286016132f7565b9150509250929050565b6000602082840312156134e5576134e461452b565b5b60006134f38482850161328a565b91505092915050565b6000602082840312156135125761351161452b565b5b60006135208482850161329f565b91505092915050565b60006020828403121561353f5761353e61452b565b5b600061354d848285016132b4565b91505092915050565b60006020828403121561356c5761356b61452b565b5b600061357a848285016132f7565b91505092915050565b6000806040838503121561359a5761359961452b565b5b60006135a8858286016132f7565b92505060206135b9858286016132f7565b9150509250929050565b6000806000606084860312156135dc576135db61452b565b5b60006135ea868287016132f7565b93505060206135fb868287016132f7565b925050604061360c868287016132f7565b9150509250925092565b60006136228383613adc565b60208301905092915050565b613637816141e7565b82525050565b6000613648826140c0565b61365281856140ee565b935061365d836140b0565b8060005b8381101561368e5781516136758882613616565b9750613680836140e1565b925050600181019050613661565b5085935050505092915050565b6136a4816141f9565b82525050565b60006136b5826140cb565b6136bf81856140ff565b93506136cf8185602086016142f2565b6136d881614530565b840191505092915050565b6136ec81614265565b82525050565b6136fb81614277565b82525050565b61370a81614289565b82525050565b6137198161429b565b82525050565b613728816142ad565b82525050565b613737816142bf565b82525050565b613746816142d1565b82525050565b6000613757826140d6565b6137618185614110565b93506137718185602086016142f2565b61377a81614530565b840191505092915050565b6000613790826140d6565b61379a8185614121565b93506137aa8185602086016142f2565b80840191505092915050565b60006137c3602b83614110565b91506137ce82614541565b604082019050919050565b60006137e6603283614110565b91506137f182614590565b604082019050919050565b6000613809602583614110565b9150613814826145df565b604082019050919050565b600061382c601c83614110565b91506138378261462e565b602082019050919050565b600061384f602483614110565b915061385a82614657565b604082019050919050565b6000613872601983614110565b915061387d826146a6565b602082019050919050565b6000613895602c83614110565b91506138a0826146cf565b604082019050919050565b60006138b8603883614110565b91506138c38261471e565b604082019050919050565b60006138db602a83614110565b91506138e68261476d565b604082019050919050565b60006138fe602983614110565b9150613909826147bc565b604082019050919050565b6000613921602083614110565b915061392c8261480b565b602082019050919050565b6000613944602c83614110565b915061394f82614834565b604082019050919050565b6000613967602f83614110565b915061397282614883565b604082019050919050565b600061398a602183614110565b9150613995826148d2565b604082019050919050565b60006139ad603183614110565b91506139b882614921565b604082019050919050565b60006139d0602c83614110565b91506139db82614970565b604082019050919050565b610180820160008201516139fd6000850182613adc565b506020820151613a106020850182613adc565b506040820151613a236040850182613adc565b506060820151613a366060850182613adc565b506080820151613a496080850182613adc565b5060a0820151613a5c60a0850182613adc565b5060c0820151613a6f60c0850182613adc565b5060e0820151613a8260e0850182613adc565b50610100820151613a97610100850182613adc565b50610120820151613aac610120850182613adc565b50610140820151613ac1610140850182613adc565b50610160820151613ad6610160850182613adc565b50505050565b613ae58161425b565b82525050565b613af48161425b565b82525050565b6000613b068285613785565b9150613b128284613785565b91508190509392505050565b6000602082019050613b33600083018461362e565b92915050565b6000608082019050613b4e600083018761362e565b613b5b602083018661362e565b613b686040830185613aeb565b8181036060830152613b7a81846136aa565b905095945050505050565b6000602082019050613b9a600083018461369b565b92915050565b6000602082019050613bb560008301846136e3565b92915050565b6000602082019050613bd060008301846136f2565b92915050565b6000602082019050613beb6000830184613701565b92915050565b6000602082019050613c066000830184613710565b92915050565b6000602082019050613c21600083018461371f565b92915050565b6000602082019050613c3c600083018461372e565b92915050565b6000602082019050613c57600083018461373d565b92915050565b60006020820190508181036000830152613c77818461374c565b905092915050565b60006020820190508181036000830152613c98816137b6565b9050919050565b60006020820190508181036000830152613cb8816137d9565b9050919050565b60006020820190508181036000830152613cd8816137fc565b9050919050565b60006020820190508181036000830152613cf88161381f565b9050919050565b60006020820190508181036000830152613d1881613842565b9050919050565b60006020820190508181036000830152613d3881613865565b9050919050565b60006020820190508181036000830152613d5881613888565b9050919050565b60006020820190508181036000830152613d78816138ab565b9050919050565b60006020820190508181036000830152613d98816138ce565b9050919050565b60006020820190508181036000830152613db8816138f1565b9050919050565b60006020820190508181036000830152613dd881613914565b9050919050565b60006020820190508181036000830152613df881613937565b9050919050565b60006020820190508181036000830152613e188161395a565b9050919050565b60006020820190508181036000830152613e388161397d565b9050919050565b60006020820190508181036000830152613e58816139a0565b9050919050565b60006020820190508181036000830152613e78816139c3565b9050919050565b600061018082019050613e9560008301846139e6565b92915050565b6000602082019050613eb06000830184613aeb565b92915050565b6000604082019050613ecb6000830185613aeb565b8181036020830152613edd818461363d565b90509392505050565b6000606082019050613efb6000830186613aeb565b613f086020830185613aeb565b8181036040830152613f1a818461363d565b9050949350505050565b6000606082019050613f396000830186613aeb565b613f466020830185613aeb565b613f536040830184613aeb565b949350505050565b6000608082019050613f706000830187613aeb565b613f7d6020830186613aeb565b613f8a6040830185613aeb565b613f976060830184613aeb565b95945050505050565b600061018082019050613fb6600083018f613aeb565b613fc3602083018e613aeb565b613fd0604083018d613aeb565b613fdd606083018c613aeb565b613fea608083018b613aeb565b613ff760a083018a613aeb565b61400460c0830189613aeb565b61401160e0830188613aeb565b61401f610100830187613aeb565b61402d610120830186613aeb565b61403b610140830185613aeb565b614049610160830184613aeb565b9d9c50505050505050505050505050565b6000614064614075565b90506140708282614357565b919050565b6000604051905090565b600067ffffffffffffffff82111561409a576140996144ed565b5b6140a382614530565b9050602081019050919050565b6000819050602082019050919050565b600081519050919050565b600081519050919050565b600081519050919050565b6000602082019050919050565b600082825260208201905092915050565b600082825260208201905092915050565b600082825260208201905092915050565b600081905092915050565b60006141378261425b565b91506141428361425b565b9250827fffffffffffffffffffffffffffffffffffffffffffffffffffffffffffffffff0382111561417757614176614402565b5b828201905092915050565b600061418d8261425b565b91506141988361425b565b9250826141a8576141a7614431565b5b828204905092915050565b60006141be8261425b565b91506141c98361425b565b9250828210156141dc576141db614402565b5b828203905092915050565b60006141f28261423b565b9050919050565b60008115159050919050565b6000819050919050565b60007fffffffff0000000000000000000000000000000000000000000000000000000082169050919050565b600073ffffffffffffffffffffffffffffffffffffffff82169050919050565b6000819050919050565b60006142708261425b565b9050919050565b60006142828261425b565b9050919050565b60006142948261425b565b9050919050565b60006142a68261425b565b9050919050565b60006142b88261425b565b9050919050565b60006142ca8261425b565b9050919050565b60006142dc8261425b565b9050919050565b82818337600083830152505050565b60005b838110156143105780820151818401526020810190506142f5565b8381111561431f576000848401525b50505050565b6000600282049050600182168061433d57607f821691505b6020821081141561435157614350614460565b5b50919050565b61436082614530565b810181811067ffffffffffffffff8211171561437f5761437e6144ed565b5b80604052505050565b60006143938261425b565b91507fffffffffffffffffffffffffffffffffffffffffffffffffffffffffffffffff8214156143c6576143c5614402565b5b600182019050919050565b60006143dc8261425b565b91506143e78361425b565b9250826143f7576143f6614431565b5b828206905092915050565b7f4e487b7100000000000000000000000000000000000000000000000000000000600052601160045260246000fd5b7f4e487b7100000000000000000000000000000000000000000000000000000000600052601260045260246000fd5b7f4e487b7100000000000000000000000000000000000000000000000000000000600052602260045260246000fd5b7f4e487b7100000000000000000000000000000000000000000000000000000000600052603160045260246000fd5b7f4e487b7100000000000000000000000000000000000000000000000000000000600052603260045260246000fd5b7f4e487b7100000000000000000000000000000000000000000000000000000000600052604160045260246000fd5b600080fd5b600080fd5b600080fd5b600080fd5b6000601f19601f8301169050919050565b7f455243373231456e756d657261626c653a206f776e657220696e646578206f7560008201527f74206f6620626f756e6473000000000000000000000000000000000000000000602082015250565b7f4552433732313a207472616e7366657220746f206e6f6e20455243373231526560008201527f63656976657220696d706c656d656e7465720000000000000000000000000000602082015250565b7f4552433732313a207472616e736665722066726f6d20696e636f72726563742060008201527f6f776e6572000000000000000000000000000000000000000000000000000000602082015250565b7f4552433732313a20746f6b656e20616c7265616479206d696e74656400000000600082015250565b7f4552433732313a207472616e7366657220746f20746865207a65726f2061646460008201527f7265737300000000000000000000000000000000000000000000000000000000602082015250565b7f4552433732313a20617070726f766520746f2063616c6c657200000000000000600082015250565b7f4552433732313a206f70657261746f7220717565727920666f72206e6f6e657860008201527f697374656e7420746f6b656e0000000000000000000000000000000000000000602082015250565b7f4552433732313a20617070726f76652063616c6c6572206973206e6f74206f7760008201527f6e6572206e6f7220617070726f76656420666f7220616c6c0000000000000000602082015250565b7f4552433732313a2062616c616e636520717565727920666f7220746865207a6560008201527f726f206164647265737300000000000000000000000000000000000000000000602082015250565b7f4552433732313a206f776e657220717565727920666f72206e6f6e657869737460008201527f656e7420746f6b656e0000000000000000000000000000000000000000000000602082015250565b7f4552433732313a206d696e7420746f20746865207a65726f2061646472657373600082015250565b7f4552433732313a20617070726f76656420717565727920666f72206e6f6e657860008201527f697374656e7420746f6b656e0000000000000000000000000000000000000000602082015250565b7f4552433732314d657461646174613a2055524920717565727920666f72206e6f60008201527f6e6578697374656e7420746f6b656e0000000000000000000000000000000000602082015250565b7f4552433732313a20617070726f76616c20746f2063757272656e74206f776e6560008201527f7200000000000000000000000000000000000000000000000000000000000000602082015250565b7f4552433732313a207472616e736665722063616c6c6572206973206e6f74206f60008201527f776e6572206e6f7220617070726f766564000000000000000000000000000000602082015250565b7f455243373231456e756d657261626c653a20676c6f62616c20696e646578206f60008201527f7574206f6620626f756e64730000000000000000000000000000000000000000602082015250565b6149c8816141e7565b81146149d357600080fd5b50565b6149df816141f9565b81146149ea57600080fd5b50565b6149f681614205565b8114614a0157600080fd5b50565b614a0d8161420f565b8114614a1857600080fd5b50565b614a248161425b565b8114614a2f57600080fd5b5056fea2646970667358221220518db353dee623a485a879424af8075676397a41daf74f16df85e130b035350c64736f6c63430008070033",
			"opcodes": "PUSH1 0x80 PUSH1 0x40 MSTORE PUSH32 0x31ED78FCDC3EE496DD9D86CBE8B32A48CB29D2DCAE68731FC327B919093C504 PUSH1 0xC SSTORE PUSH32 0x70BFE7ABD1E5AD5EECFDF91A3C19AAE8773ED2FF0A5AFAF0193556FA4E41A51 PUSH1 0xD SSTORE PUSH32 0x70BFE7ABD1E5AD5EECFDF91A3C19AAE8773ED2FF0A5AFAF0193556FA4E41A51 PUSH1 0xE SSTORE PUSH32 0x163EDA3F95412C085F30F643DE2B57A27D17D98A8C7558AF440A1BF02B68E84 PUSH1 0xF SSTORE PUSH1 0x0 PUSH1 0x10 SSTORE CALLVALUE DUP1 ISZERO PUSH3 0xA6 JUMPI PUSH1 0x0 DUP1 REVERT JUMPDEST POP PUSH1 0x40 MLOAD DUP1 PUSH1 0x40 ADD PUSH1 0x40 MSTORE DUP1 PUSH1 0x3 DUP2 MSTORE PUSH1 0x20 ADD PUSH32 0x4E46540000000000000000000000000000000000000000000000000000000000 DUP2 MSTORE POP PUSH1 0x40 MLOAD DUP1 PUSH1 0x40 ADD PUSH1 0x40 MSTORE DUP1 PUSH1 0x2 DUP2 MSTORE PUSH1 0x20 ADD PUSH32 0x4343000000000000000000000000000000000000000000000000000000000000 DUP2 MSTORE POP DUP2 PUSH1 0x0 SWAP1 DUP1 MLOAD SWAP1 PUSH1 0x20 ADD SWAP1 PUSH3 0x12B SWAP3 SWAP2 SWAP1 PUSH3 0x1A2 JUMP JUMPDEST POP DUP1 PUSH1 0x1 SWAP1 DUP1 MLOAD SWAP1 PUSH1 0x20 ADD SWAP1 PUSH3 0x144 SWAP3 SWAP2 SWAP1 PUSH3 0x1A2 JUMP JUMPDEST POP POP POP PUSH20 0xDE29D060D45901FB19ED6C6E959EB22D8626708E PUSH1 0xB PUSH1 0x0 PUSH2 0x100 EXP DUP2 SLOAD DUP2 PUSH20 0xFFFFFFFFFFFFFFFFFFFFFFFFFFFFFFFFFFFFFFFF MUL NOT AND SWAP1 DUP4 PUSH20 0xFFFFFFFFFFFFFFFFFFFFFFFFFFFFFFFFFFFFFFFF AND MUL OR SWAP1 SSTORE POP PUSH3 0x2B7 JUMP JUMPDEST DUP3 DUP1 SLOAD PUSH3 0x1B0 SWAP1 PUSH3 0x252 JUMP JUMPDEST SWAP1 PUSH1 0x0 MSTORE PUSH1 0x20 PUSH1 0x0 KECCAK256 SWAP1 PUSH1 0x1F ADD PUSH1 0x20 SWAP1 DIV DUP2 ADD SWAP3 DUP3 PUSH3 0x1D4 JUMPI PUSH1 0x0 DUP6 SSTORE PUSH3 0x220 JUMP JUMPDEST DUP3 PUSH1 0x1F LT PUSH3 0x1EF JUMPI DUP1 MLOAD PUSH1 0xFF NOT AND DUP4 DUP1 ADD OR DUP6 SSTORE PUSH3 0x220 JUMP JUMPDEST DUP3 DUP1 ADD PUSH1 0x1 ADD DUP6 SSTORE DUP3 ISZERO PUSH3 0x220 JUMPI SWAP2 DUP3 ADD JUMPDEST DUP3 DUP2 GT ISZERO PUSH3 0x21F JUMPI DUP3 MLOAD DUP3 SSTORE SWAP2 PUSH1 0x20 ADD SWAP2 SWAP1 PUSH1 0x1 ADD SWAP1 PUSH3 0x202 JUMP JUMPDEST JUMPDEST POP SWAP1 POP PUSH3 0x22F SWAP2 SWAP1 PUSH3 0x233 JUMP JUMPDEST POP SWAP1 JUMP JUMPDEST JUMPDEST DUP1 DUP3 GT ISZERO PUSH3 0x24E JUMPI PUSH1 0x0 DUP2 PUSH1 0x0 SWAP1 SSTORE POP PUSH1 0x1 ADD PUSH3 0x234 JUMP JUMPDEST POP SWAP1 JUMP JUMPDEST PUSH1 0x0 PUSH1 0x2 DUP3 DIV SWAP1 POP PUSH1 0x1 DUP3 AND DUP1 PUSH3 0x26B JUMPI PUSH1 0x7F DUP3 AND SWAP2 POP JUMPDEST PUSH1 0x20 DUP3 LT DUP2 EQ ISZERO PUSH3 0x282 JUMPI PUSH3 0x281 PUSH3 0x288 JUMP JUMPDEST JUMPDEST POP SWAP2 SWAP1 POP JUMP JUMPDEST PUSH32 0x4E487B7100000000000000000000000000000000000000000000000000000000 PUSH1 0x0 MSTORE PUSH1 0x22 PUSH1 0x4 MSTORE PUSH1 0x24 PUSH1 0x0 REVERT JUMPDEST PUSH2 0x4A68 DUP1 PUSH3 0x2C7 PUSH1 0x0 CODECOPY PUSH1 0x0 RETURN INVALID PUSH1 0x80 PUSH1 0x40 MSTORE PUSH1 0x4 CALLDATASIZE LT PUSH2 0x181 JUMPI PUSH1 0x0 CALLDATALOAD PUSH1 0xE0 SHR DUP1 PUSH4 0x7B48141E GT PUSH2 0xD1 JUMPI DUP1 PUSH4 0xA22CB465 GT PUSH2 0x8A JUMPI DUP1 PUSH4 0xC87B56DD GT PUSH2 0x64 JUMPI DUP1 PUSH4 0xC87B56DD EQ PUSH2 0x572 JUMPI DUP1 PUSH4 0xD82FE3B7 EQ PUSH2 0x5AF JUMPI DUP1 PUSH4 0xDDF19A31 EQ PUSH2 0x5F7 JUMPI DUP1 PUSH4 0xE985E9C5 EQ PUSH2 0x620 JUMPI PUSH2 0x181 JUMP JUMPDEST DUP1 PUSH4 0xA22CB465 EQ PUSH2 0x516 JUMPI DUP1 PUSH4 0xB74600D4 EQ PUSH2 0x53F JUMPI DUP1 PUSH4 0xB88D4FDE EQ PUSH2 0x549 JUMPI PUSH2 0x181 JUMP JUMPDEST DUP1 PUSH4 0x7B48141E EQ PUSH2 0x40C JUMPI DUP1 PUSH4 0x85831079 EQ PUSH2 0x435 JUMPI DUP1 PUSH4 0x85B1C79D EQ PUSH2 0x47D JUMPI DUP1 PUSH4 0x95124629 EQ PUSH2 0x499 JUMPI DUP1 PUSH4 0x95D89B41 EQ PUSH2 0x4C2 JUMPI DUP1 PUSH4 0xA0712D68 EQ PUSH2 0x4ED JUMPI PUSH2 0x181 JUMP JUMPDEST DUP1 PUSH4 0x2F745C59 GT PUSH2 0x13E JUMPI DUP1 PUSH4 0x4A16BD02 GT PUSH2 0x118 JUMPI DUP1 PUSH4 0x4A16BD02 EQ PUSH2 0x34B JUMPI DUP1 PUSH4 0x4F6CCCE7 EQ PUSH2 0x355 JUMPI DUP1 PUSH4 0x6352211E EQ PUSH2 0x392 JUMPI DUP1 PUSH4 0x70A08231 EQ PUSH2 0x3CF JUMPI PUSH2 0x181 JUMP JUMPDEST DUP1 PUSH4 0x2F745C59 EQ PUSH2 0x2A8 JUMPI DUP1 PUSH4 0x3A7174F8 EQ PUSH2 0x2E5 JUMPI DUP1 PUSH4 0x42842E0E EQ PUSH2 0x322 JUMPI PUSH2 0x181 JUMP JUMPDEST DUP1 PUSH4 0x1FFC9A7 EQ PUSH2 0x186 JUMPI DUP1 PUSH4 0x6FDDE03 EQ PUSH2 0x1C3 JUMPI DUP1 PUSH4 0x81812FC EQ PUSH2 0x1EE JUMPI DUP1 PUSH4 0x95EA7B3 EQ PUSH2 0x22B JUMPI DUP1 PUSH4 0x18160DDD EQ PUSH2 0x254 JUMPI DUP1 PUSH4 0x23B872DD EQ PUSH2 0x27F JUMPI JUMPDEST PUSH1 0x0 DUP1 REVERT JUMPDEST CALLVALUE DUP1 ISZERO PUSH2 0x192 JUMPI PUSH1 0x0 DUP1 REVERT JUMPDEST POP PUSH2 0x1AD PUSH1 0x4 DUP1 CALLDATASIZE SUB DUP2 ADD SWAP1 PUSH2 0x1A8 SWAP2 SWAP1 PUSH2 0x34FC JUMP JUMPDEST PUSH2 0x65D JUMP JUMPDEST PUSH1 0x40 MLOAD PUSH2 0x1BA SWAP2 SWAP1 PUSH2 0x3B85 JUMP JUMPDEST PUSH1 0x40 MLOAD DUP1 SWAP2 SUB SWAP1 RETURN JUMPDEST CALLVALUE DUP1 ISZERO PUSH2 0x1CF JUMPI PUSH1 0x0 DUP1 REVERT JUMPDEST POP PUSH2 0x1D8 PUSH2 0x66F JUMP JUMPDEST PUSH1 0x40 MLOAD PUSH2 0x1E5 SWAP2 SWAP1 PUSH2 0x3C5D JUMP JUMPDEST PUSH1 0x40 MLOAD DUP1 SWAP2 SUB SWAP1 RETURN JUMPDEST CALLVALUE DUP1 ISZERO PUSH2 0x1FA JUMPI PUSH1 0x0 DUP1 REVERT JUMPDEST POP PUSH2 0x215 PUSH1 0x4 DUP1 CALLDATASIZE SUB DUP2 ADD SWAP1 PUSH2 0x210 SWAP2 SWAP1 PUSH2 0x3556 JUMP JUMPDEST PUSH2 0x701 JUMP JUMPDEST PUSH1 0x40 MLOAD PUSH2 0x222 SWAP2 SWAP1 PUSH2 0x3B1E JUMP JUMPDEST PUSH1 0x40 MLOAD DUP1 SWAP2 SUB SWAP1 RETURN JUMPDEST CALLVALUE DUP1 ISZERO PUSH2 0x237 JUMPI PUSH1 0x0 DUP1 REVERT JUMPDEST POP PUSH2 0x252 PUSH1 0x4 DUP1 CALLDATASIZE SUB DUP2 ADD SWAP1 PUSH2 0x24D SWAP2 SWAP1 PUSH2 0x348F JUMP JUMPDEST PUSH2 0x786 JUMP JUMPDEST STOP JUMPDEST CALLVALUE DUP1 ISZERO PUSH2 0x260 JUMPI PUSH1 0x0 DUP1 REVERT JUMPDEST POP PUSH2 0x269 PUSH2 0x89E JUMP JUMPDEST PUSH1 0x40 MLOAD PUSH2 0x276 SWAP2 SWAP1 PUSH2 0x3E9B JUMP JUMPDEST PUSH1 0x40 MLOAD DUP1 SWAP2 SUB SWAP1 RETURN JUMPDEST CALLVALUE DUP1 ISZERO PUSH2 0x28B JUMPI PUSH1 0x0 DUP1 REVERT JUMPDEST POP PUSH2 0x2A6 PUSH1 0x4 DUP1 CALLDATASIZE SUB DUP2 ADD SWAP1 PUSH2 0x2A1 SWAP2 SWAP1 PUSH2 0x3379 JUMP JUMPDEST PUSH2 0x8AB JUMP JUMPDEST STOP JUMPDEST CALLVALUE DUP1 ISZERO PUSH2 0x2B4 JUMPI PUSH1 0x0 DUP1 REVERT JUMPDEST POP PUSH2 0x2CF PUSH1 0x4 DUP1 CALLDATASIZE SUB DUP2 ADD SWAP1 PUSH2 0x2CA SWAP2 SWAP1 PUSH2 0x348F JUMP JUMPDEST PUSH2 0x90B JUMP JUMPDEST PUSH1 0x40 MLOAD PUSH2 0x2DC SWAP2 SWAP1 PUSH2 0x3E9B JUMP JUMPDEST PUSH1 0x40 MLOAD DUP1 SWAP2 SUB SWAP1 RETURN JUMPDEST CALLVALUE DUP1 ISZERO PUSH2 0x2F1 JUMPI PUSH1 0x0 DUP1 REVERT JUMPDEST POP PUSH2 0x30C PUSH1 0x4 DUP1 CALLDATASIZE SUB DUP2 ADD SWAP1 PUSH2 0x307 SWAP2 SWAP1 PUSH2 0x3583 JUMP JUMPDEST PUSH2 0x9B0 JUMP JUMPDEST PUSH1 0x40 MLOAD PUSH2 0x319 SWAP2 SWAP1 PUSH2 0x3E7F JUMP JUMPDEST PUSH1 0x40 MLOAD DUP1 SWAP2 SUB SWAP1 RETURN JUMPDEST CALLVALUE DUP1 ISZERO PUSH2 0x32E JUMPI PUSH1 0x0 DUP1 REVERT JUMPDEST POP PUSH2 0x349 PUSH1 0x4 DUP1 CALLDATASIZE SUB DUP2 ADD SWAP1 PUSH2 0x344 SWAP2 SWAP1 PUSH2 0x3379 JUMP JUMPDEST PUSH2 0xA89 JUMP JUMPDEST STOP JUMPDEST PUSH2 0x353 PUSH2 0xAA9 JUMP JUMPDEST STOP JUMPDEST CALLVALUE DUP1 ISZERO PUSH2 0x361 JUMPI PUSH1 0x0 DUP1 REVERT JUMPDEST POP PUSH2 0x37C PUSH1 0x4 DUP1 CALLDATASIZE SUB DUP2 ADD SWAP1 PUSH2 0x377 SWAP2 SWAP1 PUSH2 0x3556 JUMP JUMPDEST PUSH2 0xC07 JUMP JUMPDEST PUSH1 0x40 MLOAD PUSH2 0x389 SWAP2 SWAP1 PUSH2 0x3E9B JUMP JUMPDEST PUSH1 0x40 MLOAD DUP1 SWAP2 SUB SWAP1 RETURN JUMPDEST CALLVALUE DUP1 ISZERO PUSH2 0x39E JUMPI PUSH1 0x0 DUP1 REVERT JUMPDEST POP PUSH2 0x3B9 PUSH1 0x4 DUP1 CALLDATASIZE SUB DUP2 ADD SWAP1 PUSH2 0x3B4 SWAP2 SWAP1 PUSH2 0x3556 JUMP JUMPDEST PUSH2 0xC78 JUMP JUMPDEST PUSH1 0x40 MLOAD PUSH2 0x3C6 SWAP2 SWAP1 PUSH2 0x3B1E JUMP JUMPDEST PUSH1 0x40 MLOAD DUP1 SWAP2 SUB SWAP1 RETURN JUMPDEST CALLVALUE DUP1 ISZERO PUSH2 0x3DB JUMPI PUSH1 0x0 DUP1 REVERT JUMPDEST POP PUSH2 0x3F6 PUSH1 0x4 DUP1 CALLDATASIZE SUB DUP2 ADD SWAP1 PUSH2 0x3F1 SWAP2 SWAP1 PUSH2 0x330C JUMP JUMPDEST PUSH2 0xD2A JUMP JUMPDEST PUSH1 0x40 MLOAD PUSH2 0x403 SWAP2 SWAP1 PUSH2 0x3E9B JUMP JUMPDEST PUSH1 0x40 MLOAD DUP1 SWAP2 SUB SWAP1 RETURN JUMPDEST CALLVALUE DUP1 ISZERO PUSH2 0x418 JUMPI PUSH1 0x0 DUP1 REVERT JUMPDEST POP PUSH2 0x433 PUSH1 0x4 DUP1 CALLDATASIZE SUB DUP2 ADD SWAP1 PUSH2 0x42E SWAP2 SWAP1 PUSH2 0x3556 JUMP JUMPDEST PUSH2 0xDE2 JUMP JUMPDEST STOP JUMPDEST CALLVALUE DUP1 ISZERO PUSH2 0x441 JUMPI PUSH1 0x0 DUP1 REVERT JUMPDEST POP PUSH2 0x45C PUSH1 0x4 DUP1 CALLDATASIZE SUB DUP2 ADD SWAP1 PUSH2 0x457 SWAP2 SWAP1 PUSH2 0x3556 JUMP JUMPDEST PUSH2 0xF77 JUMP JUMPDEST PUSH1 0x40 MLOAD PUSH2 0x474 SWAP13 SWAP12 SWAP11 SWAP10 SWAP9 SWAP8 SWAP7 SWAP6 SWAP5 SWAP4 SWAP3 SWAP2 SWAP1 PUSH2 0x3FA0 JUMP JUMPDEST PUSH1 0x40 MLOAD DUP1 SWAP2 SUB SWAP1 RETURN JUMPDEST PUSH2 0x497 PUSH1 0x4 DUP1 CALLDATASIZE SUB DUP2 ADD SWAP1 PUSH2 0x492 SWAP2 SWAP1 PUSH2 0x3583 JUMP JUMPDEST PUSH2 0xFE7 JUMP JUMPDEST STOP JUMPDEST CALLVALUE DUP1 ISZERO PUSH2 0x4A5 JUMPI PUSH1 0x0 DUP1 REVERT JUMPDEST POP PUSH2 0x4C0 PUSH1 0x4 DUP1 CALLDATASIZE SUB DUP2 ADD SWAP1 PUSH2 0x4BB SWAP2 SWAP1 PUSH2 0x3556 JUMP JUMPDEST PUSH2 0x1719 JUMP JUMPDEST STOP JUMPDEST CALLVALUE DUP1 ISZERO PUSH2 0x4CE JUMPI PUSH1 0x0 DUP1 REVERT JUMPDEST POP PUSH2 0x4D7 PUSH2 0x18AE JUMP JUMPDEST PUSH1 0x40 MLOAD PUSH2 0x4E4 SWAP2 SWAP1 PUSH2 0x3C5D JUMP JUMPDEST PUSH1 0x40 MLOAD DUP1 SWAP2 SUB SWAP1 RETURN JUMPDEST CALLVALUE DUP1 ISZERO PUSH2 0x4F9 JUMPI PUSH1 0x0 DUP1 REVERT JUMPDEST POP PUSH2 0x514 PUSH1 0x4 DUP1 CALLDATASIZE SUB DUP2 ADD SWAP1 PUSH2 0x50F SWAP2 SWAP1 PUSH2 0x3556 JUMP JUMPDEST PUSH2 0x1940 JUMP JUMPDEST STOP JUMPDEST CALLVALUE DUP1 ISZERO PUSH2 0x522 JUMPI PUSH1 0x0 DUP1 REVERT JUMPDEST POP PUSH2 0x53D PUSH1 0x4 DUP1 CALLDATASIZE SUB DUP2 ADD SWAP1 PUSH2 0x538 SWAP2 SWAP1 PUSH2 0x344F JUMP JUMPDEST PUSH2 0x1A0B JUMP JUMPDEST STOP JUMPDEST PUSH2 0x547 PUSH2 0x1A21 JUMP JUMPDEST STOP JUMPDEST CALLVALUE DUP1 ISZERO PUSH2 0x555 JUMPI PUSH1 0x0 DUP1 REVERT JUMPDEST POP PUSH2 0x570 PUSH1 0x4 DUP1 CALLDATASIZE SUB DUP2 ADD SWAP1 PUSH2 0x56B SWAP2 SWAP1 PUSH2 0x33CC JUMP JUMPDEST PUSH2 0x1B7E JUMP JUMPDEST STOP JUMPDEST CALLVALUE DUP1 ISZERO PUSH2 0x57E JUMPI PUSH1 0x0 DUP1 REVERT JUMPDEST POP PUSH2 0x599 PUSH1 0x4 DUP1 CALLDATASIZE SUB DUP2 ADD SWAP1 PUSH2 0x594 SWAP2 SWAP1 PUSH2 0x3556 JUMP JUMPDEST PUSH2 0x1BE0 JUMP JUMPDEST PUSH1 0x40 MLOAD PUSH2 0x5A6 SWAP2 SWAP1 PUSH2 0x3C5D JUMP JUMPDEST PUSH1 0x40 MLOAD DUP1 SWAP2 SUB SWAP1 RETURN JUMPDEST CALLVALUE DUP1 ISZERO PUSH2 0x5BB JUMPI PUSH1 0x0 DUP1 REVERT JUMPDEST POP PUSH2 0x5D6 PUSH1 0x4 DUP1 CALLDATASIZE SUB DUP2 ADD SWAP1 PUSH2 0x5D1 SWAP2 SWAP1 PUSH2 0x3556 JUMP JUMPDEST PUSH2 0x1C87 JUMP JUMPDEST PUSH1 0x40 MLOAD PUSH2 0x5EE SWAP13 SWAP12 SWAP11 SWAP10 SWAP9 SWAP8 SWAP7 SWAP6 SWAP5 SWAP4 SWAP3 SWAP2 SWAP1 PUSH2 0x3FA0 JUMP JUMPDEST PUSH1 0x40 MLOAD DUP1 SWAP2 SUB SWAP1 RETURN JUMPDEST CALLVALUE DUP1 ISZERO PUSH2 0x603 JUMPI PUSH1 0x0 DUP1 REVERT JUMPDEST POP PUSH2 0x61E PUSH1 0x4 DUP1 CALLDATASIZE SUB DUP2 ADD SWAP1 PUSH2 0x619 SWAP2 SWAP1 PUSH2 0x35C3 JUMP JUMPDEST PUSH2 0x1CE7 JUMP JUMPDEST STOP JUMPDEST CALLVALUE DUP1 ISZERO PUSH2 0x62C JUMPI PUSH1 0x0 DUP1 REVERT JUMPDEST POP PUSH2 0x647 PUSH1 0x4 DUP1 CALLDATASIZE SUB DUP2 ADD SWAP1 PUSH2 0x642 SWAP2 SWAP1 PUSH2 0x3339 JUMP JUMPDEST PUSH2 0x1F51 JUMP JUMPDEST PUSH1 0x40 MLOAD PUSH2 0x654 SWAP2 SWAP1 PUSH2 0x3B85 JUMP JUMPDEST PUSH1 0x40 MLOAD DUP1 SWAP2 SUB SWAP1 RETURN JUMPDEST PUSH1 0x0 PUSH2 0x668 DUP3 PUSH2 0x1FE5 JUMP JUMPDEST SWAP1 POP SWAP2 SWAP1 POP JUMP JUMPDEST PUSH1 0x60 PUSH1 0x0 DUP1 SLOAD PUSH2 0x67E SWAP1 PUSH2 0x4325 JUMP JUMPDEST DUP1 PUSH1 0x1F ADD PUSH1 0x20 DUP1 SWAP2 DIV MUL PUSH1 0x20 ADD PUSH1 0x40 MLOAD SWAP1 DUP2 ADD PUSH1 0x40 MSTORE DUP1 SWAP3 SWAP2 SWAP1 DUP2 DUP2 MSTORE PUSH1 0x20 ADD DUP3 DUP1 SLOAD PUSH2 0x6AA SWAP1 PUSH2 0x4325 JUMP JUMPDEST DUP1 ISZERO PUSH2 0x6F7 JUMPI DUP1 PUSH1 0x1F LT PUSH2 0x6CC JUMPI PUSH2 0x100 DUP1 DUP4 SLOAD DIV MUL DUP4 MSTORE SWAP2 PUSH1 0x20 ADD SWAP2 PUSH2 0x6F7 JUMP JUMPDEST DUP3 ADD SWAP2 SWAP1 PUSH1 0x0 MSTORE PUSH1 0x20 PUSH1 0x0 KECCAK256 SWAP1 JUMPDEST DUP2 SLOAD DUP2 MSTORE SWAP1 PUSH1 0x1 ADD SWAP1 PUSH1 0x20 ADD DUP1 DUP4 GT PUSH2 0x6DA JUMPI DUP3 SWAP1 SUB PUSH1 0x1F AND DUP3 ADD SWAP2 JUMPDEST POP POP POP POP POP SWAP1 POP SWAP1 JUMP JUMPDEST PUSH1 0x0 PUSH2 0x70C DUP3 PUSH2 0x205F JUMP JUMPDEST PUSH2 0x74B JUMPI PUSH1 0x40 MLOAD PUSH32 0x8C379A000000000000000000000000000000000000000000000000000000000 DUP2 MSTORE PUSH1 0x4 ADD PUSH2 0x742 SWAP1 PUSH2 0x3DDF JUMP JUMPDEST PUSH1 0x40 MLOAD DUP1 SWAP2 SUB SWAP1 REVERT JUMPDEST PUSH1 0x4 PUSH1 0x0 DUP4 DUP2 MSTORE PUSH1 0x20 ADD SWAP1 DUP2 MSTORE PUSH1 0x20 ADD PUSH1 0x0 KECCAK256 PUSH1 0x0 SWAP1 SLOAD SWAP1 PUSH2 0x100 EXP SWAP1 DIV PUSH20 0xFFFFFFFFFFFFFFFFFFFFFFFFFFFFFFFFFFFFFFFF AND SWAP1 POP SWAP2 SWAP1 POP JUMP JUMPDEST PUSH1 0x0 PUSH2 0x791 DUP3 PUSH2 0xC78 JUMP JUMPDEST SWAP1 POP DUP1 PUSH20 0xFFFFFFFFFFFFFFFFFFFFFFFFFFFFFFFFFFFFFFFF AND DUP4 PUSH20 0xFFFFFFFFFFFFFFFFFFFFFFFFFFFFFFFFFFFFFFFF AND EQ ISZERO PUSH2 0x802 JUMPI PUSH1 0x40 MLOAD PUSH32 0x8C379A000000000000000000000000000000000000000000000000000000000 DUP2 MSTORE PUSH1 0x4 ADD PUSH2 0x7F9 SWAP1 PUSH2 0x3E1F JUMP JUMPDEST PUSH1 0x40 MLOAD DUP1 SWAP2 SUB SWAP1 REVERT JUMPDEST DUP1 PUSH20 0xFFFFFFFFFFFFFFFFFFFFFFFFFFFFFFFFFFFFFFFF AND PUSH2 0x821 PUSH2 0x20CB JUMP JUMPDEST PUSH20 0xFFFFFFFFFFFFFFFFFFFFFFFFFFFFFFFFFFFFFFFF AND EQ DUP1 PUSH2 0x850 JUMPI POP PUSH2 0x84F DUP2 PUSH2 0x84A PUSH2 0x20CB JUMP JUMPDEST PUSH2 0x1F51 JUMP JUMPDEST JUMPDEST PUSH2 0x88F JUMPI PUSH1 0x40 MLOAD PUSH32 0x8C379A000000000000000000000000000000000000000000000000000000000 DUP2 MSTORE PUSH1 0x4 ADD PUSH2 0x886 SWAP1 PUSH2 0x3D5F JUMP JUMPDEST PUSH1 0x40 MLOAD DUP1 SWAP2 SUB SWAP1 REVERT JUMPDEST PUSH2 0x899 DUP4 DUP4 PUSH2 0x20D3 JUMP JUMPDEST POP POP POP JUMP JUMPDEST PUSH1 0x0 PUSH1 0x8 DUP1 SLOAD SWAP1 POP SWAP1 POP SWAP1 JUMP JUMPDEST PUSH2 0x8BC PUSH2 0x8B6 PUSH2 0x20CB JUMP JUMPDEST DUP3 PUSH2 0x218C JUMP JUMPDEST PUSH2 0x8FB JUMPI PUSH1 0x40 MLOAD PUSH32 0x8C379A000000000000000000000000000000000000000000000000000000000 DUP2 MSTORE PUSH1 0x4 ADD PUSH2 0x8F2 SWAP1 PUSH2 0x3E3F JUMP JUMPDEST PUSH1 0x40 MLOAD DUP1 SWAP2 SUB SWAP1 REVERT JUMPDEST PUSH2 0x906 DUP4 DUP4 DUP4 PUSH2 0x226A JUMP JUMPDEST POP POP POP JUMP JUMPDEST PUSH1 0x0 PUSH2 0x916 DUP4 PUSH2 0xD2A JUMP JUMPDEST DUP3 LT PUSH2 0x957 JUMPI PUSH1 0x40 MLOAD PUSH32 0x8C379A000000000000000000000000000000000000000000000000000000000 DUP2 MSTORE PUSH1 0x4 ADD PUSH2 0x94E SWAP1 PUSH2 0x3C7F JUMP JUMPDEST PUSH1 0x40 MLOAD DUP1 SWAP2 SUB SWAP1 REVERT JUMPDEST PUSH1 0x6 PUSH1 0x0 DUP5 PUSH20 0xFFFFFFFFFFFFFFFFFFFFFFFFFFFFFFFFFFFFFFFF AND PUSH20 0xFFFFFFFFFFFFFFFFFFFFFFFFFFFFFFFFFFFFFFFF AND DUP2 MSTORE PUSH1 0x20 ADD SWAP1 DUP2 MSTORE PUSH1 0x20 ADD PUSH1 0x0 KECCAK256 PUSH1 0x0 DUP4 DUP2 MSTORE PUSH1 0x20 ADD SWAP1 DUP2 MSTORE PUSH1 0x20 ADD PUSH1 0x0 KECCAK256 SLOAD SWAP1 POP SWAP3 SWAP2 POP POP JUMP JUMPDEST PUSH2 0x9B8 PUSH2 0x31BD JUMP JUMPDEST PUSH1 0x1 DUP4 EQ ISZERO PUSH2 0xA24 JUMPI PUSH1 0x40 MLOAD DUP1 PUSH2 0x180 ADD PUSH1 0x40 MSTORE DUP1 DUP4 DUP2 MSTORE PUSH1 0x20 ADD PUSH1 0x98 DUP2 MSTORE PUSH1 0x20 ADD PUSH1 0x6F DUP2 MSTORE PUSH1 0x20 ADD PUSH1 0x6A DUP2 MSTORE PUSH1 0x20 ADD PUSH1 0x6F DUP2 MSTORE PUSH1 0x20 ADD PUSH1 0x8 DUP2 MSTORE PUSH1 0x20 ADD PUSH1 0x0 DUP2 MSTORE PUSH1 0x20 ADD PUSH1 0x8 DUP2 MSTORE PUSH1 0x20 ADD PUSH1 0x1E DUP2 MSTORE PUSH1 0x20 ADD PUSH1 0xB DUP2 MSTORE PUSH1 0x20 ADD PUSH1 0x28 DUP2 MSTORE PUSH1 0x20 ADD DUP5 DUP2 MSTORE POP SWAP1 POP PUSH2 0xA83 JUMP JUMPDEST PUSH1 0x40 MLOAD DUP1 PUSH2 0x180 ADD PUSH1 0x40 MSTORE DUP1 DUP4 DUP2 MSTORE PUSH1 0x20 ADD PUSH1 0x8E DUP2 MSTORE PUSH1 0x20 ADD PUSH1 0x75 DUP2 MSTORE PUSH1 0x20 ADD PUSH1 0x9C DUP2 MSTORE PUSH1 0x20 ADD PUSH1 0x65 DUP2 MSTORE PUSH1 0x20 ADD PUSH1 0x3 DUP2 MSTORE PUSH1 0x20 ADD PUSH1 0x0 DUP2 MSTORE PUSH1 0x20 ADD PUSH1 0x3 DUP2 MSTORE PUSH1 0x20 ADD PUSH1 0x1E DUP2 MSTORE PUSH1 0x20 ADD PUSH1 0xB DUP2 MSTORE PUSH1 0x20 ADD PUSH1 0x23 DUP2 MSTORE PUSH1 0x20 ADD DUP5 DUP2 MSTORE POP SWAP1 POP JUMPDEST SWAP3 SWAP2 POP POP JUMP JUMPDEST PUSH2 0xAA4 DUP4 DUP4 DUP4 PUSH1 0x40 MLOAD DUP1 PUSH1 0x20 ADD PUSH1 0x40 MSTORE DUP1 PUSH1 0x0 DUP2 MSTORE POP PUSH2 0x1B7E JUMP JUMPDEST POP POP POP JUMP JUMPDEST PUSH1 0x0 DUP1 PUSH8 0xFFFFFFFFFFFFFFFF DUP2 GT ISZERO PUSH2 0xAC5 JUMPI PUSH2 0xAC4 PUSH2 0x44ED JUMP JUMPDEST JUMPDEST PUSH1 0x40 MLOAD SWAP1 DUP1 DUP3 MSTORE DUP1 PUSH1 0x20 MUL PUSH1 0x20 ADD DUP3 ADD PUSH1 0x40 MSTORE DUP1 ISZERO PUSH2 0xAF3 JUMPI DUP2 PUSH1 0x20 ADD PUSH1 0x20 DUP3 MUL DUP1 CALLDATASIZE DUP4 CALLDATACOPY DUP1 DUP3 ADD SWAP2 POP POP SWAP1 POP JUMPDEST POP SWAP1 POP PUSH32 0x877BC3E3DBF475EAD0821FEA1E1BE8E57A0C7200FE646D2D6EE72FDC77374440 PUSH2 0x378 PUSH1 0x40 MLOAD PUSH2 0xB27 SWAP2 SWAP1 PUSH2 0x3C27 JUMP JUMPDEST PUSH1 0x40 MLOAD DUP1 SWAP2 SUB SWAP1 LOG1 PUSH1 0xB PUSH1 0x0 SWAP1 SLOAD SWAP1 PUSH2 0x100 EXP SWAP1 DIV PUSH20 0xFFFFFFFFFFFFFFFFFFFFFFFFFFFFFFFFFFFFFFFF AND PUSH20 0xFFFFFFFFFFFFFFFFFFFFFFFFFFFFFFFFFFFFFFFF AND PUSH4 0x3E3AA6C5 CALLVALUE PUSH1 0xC SLOAD PUSH32 0x23C6DB6F2EFD58AC5558B8A3FBB5F7D7AFE358E1501CC78C2BC747201CA0A2A DUP6 PUSH1 0x40 MLOAD DUP6 PUSH4 0xFFFFFFFF AND PUSH1 0xE0 SHL DUP2 MSTORE PUSH1 0x4 ADD PUSH2 0xBB1 SWAP4 SWAP3 SWAP2 SWAP1 PUSH2 0x3EE6 JUMP JUMPDEST PUSH1 0x20 PUSH1 0x40 MLOAD DUP1 DUP4 SUB DUP2 DUP6 DUP9 DUP1 EXTCODESIZE ISZERO DUP1 ISZERO PUSH2 0xBCA JUMPI PUSH1 0x0 DUP1 REVERT JUMPDEST POP GAS CALL ISZERO DUP1 ISZERO PUSH2 0xBDE JUMPI RETURNDATASIZE PUSH1 0x0 DUP1 RETURNDATACOPY RETURNDATASIZE PUSH1 0x0 REVERT JUMPDEST POP POP POP POP POP PUSH1 0x40 MLOAD RETURNDATASIZE PUSH1 0x1F NOT PUSH1 0x1F DUP3 ADD AND DUP3 ADD DUP1 PUSH1 0x40 MSTORE POP DUP2 ADD SWAP1 PUSH2 0xC03 SWAP2 SWAP1 PUSH2 0x34CF JUMP JUMPDEST POP POP JUMP JUMPDEST PUSH1 0x0 PUSH2 0xC11 PUSH2 0x89E JUMP JUMPDEST DUP3 LT PUSH2 0xC52 JUMPI PUSH1 0x40 MLOAD PUSH32 0x8C379A000000000000000000000000000000000000000000000000000000000 DUP2 MSTORE PUSH1 0x4 ADD PUSH2 0xC49 SWAP1 PUSH2 0x3E5F JUMP JUMPDEST PUSH1 0x40 MLOAD DUP1 SWAP2 SUB SWAP1 REVERT JUMPDEST PUSH1 0x8 DUP3 DUP2 SLOAD DUP2 LT PUSH2 0xC66 JUMPI PUSH2 0xC65 PUSH2 0x44BE JUMP JUMPDEST JUMPDEST SWAP1 PUSH1 0x0 MSTORE PUSH1 0x20 PUSH1 0x0 KECCAK256 ADD SLOAD SWAP1 POP SWAP2 SWAP1 POP JUMP JUMPDEST PUSH1 0x0 DUP1 PUSH1 0x2 PUSH1 0x0 DUP5 DUP2 MSTORE PUSH1 0x20 ADD SWAP1 DUP2 MSTORE PUSH1 0x20 ADD PUSH1 0x0 KECCAK256 PUSH1 0x0 SWAP1 SLOAD SWAP1 PUSH2 0x100 EXP SWAP1 DIV PUSH20 0xFFFFFFFFFFFFFFFFFFFFFFFFFFFFFFFFFFFFFFFF AND SWAP1 POP PUSH1 0x0 PUSH20 0xFFFFFFFFFFFFFFFFFFFFFFFFFFFFFFFFFFFFFFFF AND DUP2 PUSH20 0xFFFFFFFFFFFFFFFFFFFFFFFFFFFFFFFFFFFFFFFF AND EQ ISZERO PUSH2 0xD21 JUMPI PUSH1 0x40 MLOAD PUSH32 0x8C379A000000000000000000000000000000000000000000000000000000000 DUP2 MSTORE PUSH1 0x4 ADD PUSH2 0xD18 SWAP1 PUSH2 0x3D9F JUMP JUMPDEST PUSH1 0x40 MLOAD DUP1 SWAP2 SUB SWAP1 REVERT JUMPDEST DUP1 SWAP2 POP POP SWAP2 SWAP1 POP JUMP JUMPDEST PUSH1 0x0 DUP1 PUSH20 0xFFFFFFFFFFFFFFFFFFFFFFFFFFFFFFFFFFFFFFFF AND DUP3 PUSH20 0xFFFFFFFFFFFFFFFFFFFFFFFFFFFFFFFFFFFFFFFF AND EQ ISZERO PUSH2 0xD9B JUMPI PUSH1 0x40 MLOAD PUSH32 0x8C379A000000000000000000000000000000000000000000000000000000000 DUP2 MSTORE PUSH1 0x4 ADD PUSH2 0xD92 SWAP1 PUSH2 0x3D7F JUMP JUMPDEST PUSH1 0x40 MLOAD DUP1 SWAP2 SUB SWAP1 REVERT JUMPDEST PUSH1 0x3 PUSH1 0x0 DUP4 PUSH20 0xFFFFFFFFFFFFFFFFFFFFFFFFFFFFFFFFFFFFFFFF AND PUSH20 0xFFFFFFFFFFFFFFFFFFFFFFFFFFFFFFFFFFFFFFFF AND DUP2 MSTORE PUSH1 0x20 ADD SWAP1 DUP2 MSTORE PUSH1 0x20 ADD PUSH1 0x0 KECCAK256 SLOAD SWAP1 POP SWAP2 SWAP1 POP JUMP JUMPDEST PUSH32 0x877BC3E3DBF475EAD0821FEA1E1BE8E57A0C7200FE646D2D6EE72FDC77374440 PUSH2 0x309 PUSH1 0x40 MLOAD PUSH2 0xE13 SWAP2 SWAP1 PUSH2 0x3C0C JUMP JUMPDEST PUSH1 0x40 MLOAD DUP1 SWAP2 SUB SWAP1 LOG1 PUSH1 0x0 PUSH1 0x1 PUSH8 0xFFFFFFFFFFFFFFFF DUP2 GT ISZERO PUSH2 0xE38 JUMPI PUSH2 0xE37 PUSH2 0x44ED JUMP JUMPDEST JUMPDEST PUSH1 0x40 MLOAD SWAP1 DUP1 DUP3 MSTORE DUP1 PUSH1 0x20 MUL PUSH1 0x20 ADD DUP3 ADD PUSH1 0x40 MSTORE DUP1 ISZERO PUSH2 0xE66 JUMPI DUP2 PUSH1 0x20 ADD PUSH1 0x20 DUP3 MUL DUP1 CALLDATASIZE DUP4 CALLDATACOPY DUP1 DUP3 ADD SWAP2 POP POP SWAP1 POP JUMPDEST POP SWAP1 POP DUP2 DUP2 PUSH1 0x0 DUP2 MLOAD DUP2 LT PUSH2 0xE7E JUMPI PUSH2 0xE7D PUSH2 0x44BE JUMP JUMPDEST JUMPDEST PUSH1 0x20 MUL PUSH1 0x20 ADD ADD DUP2 DUP2 MSTORE POP POP PUSH1 0xB PUSH1 0x0 SWAP1 SLOAD SWAP1 PUSH2 0x100 EXP SWAP1 DIV PUSH20 0xFFFFFFFFFFFFFFFFFFFFFFFFFFFFFFFFFFFFFFFF AND PUSH20 0xFFFFFFFFFFFFFFFFFFFFFFFFFFFFFFFFFFFFFFFF AND PUSH4 0x2C9DD5C0 PUSH1 0xE SLOAD DUP4 PUSH1 0x40 MLOAD DUP4 PUSH4 0xFFFFFFFF AND PUSH1 0xE0 SHL DUP2 MSTORE PUSH1 0x4 ADD PUSH2 0xEE9 SWAP3 SWAP2 SWAP1 PUSH2 0x3EB6 JUMP JUMPDEST PUSH1 0x20 PUSH1 0x40 MLOAD DUP1 DUP4 SUB DUP2 PUSH1 0x0 DUP8 DUP1 EXTCODESIZE ISZERO DUP1 ISZERO PUSH2 0xF03 JUMPI PUSH1 0x0 DUP1 REVERT JUMPDEST POP GAS CALL ISZERO DUP1 ISZERO PUSH2 0xF17 JUMPI RETURNDATASIZE PUSH1 0x0 DUP1 RETURNDATACOPY RETURNDATASIZE PUSH1 0x0 REVERT JUMPDEST POP POP POP POP PUSH1 0x40 MLOAD RETURNDATASIZE PUSH1 0x1F NOT PUSH1 0x1F DUP3 ADD AND DUP3 ADD DUP1 PUSH1 0x40 MSTORE POP DUP2 ADD SWAP1 PUSH2 0xF3B SWAP2 SWAP1 PUSH2 0x34CF JUMP JUMPDEST POP PUSH32 0x877BC3E3DBF475EAD0821FEA1E1BE8E57A0C7200FE646D2D6EE72FDC77374440 DUP3 PUSH1 0x40 MLOAD PUSH2 0xF6B SWAP2 SWAP1 PUSH2 0x3E9B JUMP JUMPDEST PUSH1 0x40 MLOAD DUP1 SWAP2 SUB SWAP1 LOG1 POP POP JUMP JUMPDEST PUSH1 0xA DUP2 DUP2 SLOAD DUP2 LT PUSH2 0xF87 JUMPI PUSH1 0x0 DUP1 REVERT JUMPDEST SWAP1 PUSH1 0x0 MSTORE PUSH1 0x20 PUSH1 0x0 KECCAK256 SWAP1 PUSH1 0xC MUL ADD PUSH1 0x0 SWAP2 POP SWAP1 POP DUP1 PUSH1 0x0 ADD SLOAD SWAP1 DUP1 PUSH1 0x1 ADD SLOAD SWAP1 DUP1 PUSH1 0x2 ADD SLOAD SWAP1 DUP1 PUSH1 0x3 ADD SLOAD SWAP1 DUP1 PUSH1 0x4 ADD SLOAD SWAP1 DUP1 PUSH1 0x5 ADD SLOAD SWAP1 DUP1 PUSH1 0x6 ADD SLOAD SWAP1 DUP1 PUSH1 0x7 ADD SLOAD SWAP1 DUP1 PUSH1 0x8 ADD SLOAD SWAP1 DUP1 PUSH1 0x9 ADD SLOAD SWAP1 DUP1 PUSH1 0xA ADD SLOAD SWAP1 DUP1 PUSH1 0xB ADD SLOAD SWAP1 POP DUP13 JUMP JUMPDEST PUSH32 0x3593DF2963C20760AFEEC7BC9AE99F0AD8227EC08877590930B113D33DF9C067 PUSH1 0x1 PUSH1 0x40 MLOAD PUSH2 0x1017 SWAP2 SWAP1 PUSH2 0x3BBB JUMP JUMPDEST PUSH1 0x40 MLOAD DUP1 SWAP2 SUB SWAP1 LOG1 PUSH1 0x0 PUSH1 0xA DUP4 DUP2 SLOAD DUP2 LT PUSH2 0x1035 JUMPI PUSH2 0x1034 PUSH2 0x44BE JUMP JUMPDEST JUMPDEST SWAP1 PUSH1 0x0 MSTORE PUSH1 0x20 PUSH1 0x0 KECCAK256 SWAP1 PUSH1 0xC MUL ADD PUSH1 0x40 MLOAD DUP1 PUSH2 0x180 ADD PUSH1 0x40 MSTORE SWAP1 DUP2 PUSH1 0x0 DUP3 ADD SLOAD DUP2 MSTORE PUSH1 0x20 ADD PUSH1 0x1 DUP3 ADD SLOAD DUP2 MSTORE PUSH1 0x20 ADD PUSH1 0x2 DUP3 ADD SLOAD DUP2 MSTORE PUSH1 0x20 ADD PUSH1 0x3 DUP3 ADD SLOAD DUP2 MSTORE PUSH1 0x20 ADD PUSH1 0x4 DUP3 ADD SLOAD DUP2 MSTORE PUSH1 0x20 ADD PUSH1 0x5 DUP3 ADD SLOAD DUP2 MSTORE PUSH1 0x20 ADD PUSH1 0x6 DUP3 ADD SLOAD DUP2 MSTORE PUSH1 0x20 ADD PUSH1 0x7 DUP3 ADD SLOAD DUP2 MSTORE PUSH1 0x20 ADD PUSH1 0x8 DUP3 ADD SLOAD DUP2 MSTORE PUSH1 0x20 ADD PUSH1 0x9 DUP3 ADD SLOAD DUP2 MSTORE PUSH1 0x20 ADD PUSH1 0xA DUP3 ADD SLOAD DUP2 MSTORE PUSH1 0x20 ADD PUSH1 0xB DUP3 ADD SLOAD DUP2 MSTORE POP POP SWAP1 POP PUSH1 0x0 PUSH1 0xA DUP4 DUP2 SLOAD DUP2 LT PUSH2 0x10DF JUMPI PUSH2 0x10DE PUSH2 0x44BE JUMP JUMPDEST JUMPDEST SWAP1 PUSH1 0x0 MSTORE PUSH1 0x20 PUSH1 0x0 KECCAK256 SWAP1 PUSH1 0xC MUL ADD PUSH1 0x40 MLOAD DUP1 PUSH2 0x180 ADD PUSH1 0x40 MSTORE SWAP1 DUP2 PUSH1 0x0 DUP3 ADD SLOAD DUP2 MSTORE PUSH1 0x20 ADD PUSH1 0x1 DUP3 ADD SLOAD DUP2 MSTORE PUSH1 0x20 ADD PUSH1 0x2 DUP3 ADD SLOAD DUP2 MSTORE PUSH1 0x20 ADD PUSH1 0x3 DUP3 ADD SLOAD DUP2 MSTORE PUSH1 0x20 ADD PUSH1 0x4 DUP3 ADD SLOAD DUP2 MSTORE PUSH1 0x20 ADD PUSH1 0x5 DUP3 ADD SLOAD DUP2 MSTORE PUSH1 0x20 ADD PUSH1 0x6 DUP3 ADD SLOAD DUP2 MSTORE PUSH1 0x20 ADD PUSH1 0x7 DUP3 ADD SLOAD DUP2 MSTORE PUSH1 0x20 ADD PUSH1 0x8 DUP3 ADD SLOAD DUP2 MSTORE PUSH1 0x20 ADD PUSH1 0x9 DUP3 ADD SLOAD DUP2 MSTORE PUSH1 0x20 ADD PUSH1 0xA DUP3 ADD SLOAD DUP2 MSTORE PUSH1 0x20 ADD PUSH1 0xB DUP3 ADD SLOAD DUP2 MSTORE POP POP SWAP1 POP PUSH1 0x0 PUSH2 0x117D PUSH2 0x24D1 JUMP JUMPDEST SWAP1 POP PUSH32 0x3593DF2963C20760AFEEC7BC9AE99F0AD8227EC08877590930B113D33DF9C067 PUSH1 0x2 PUSH1 0x40 MLOAD PUSH2 0x11AF SWAP2 SWAP1 PUSH2 0x3BD6 JUMP JUMPDEST PUSH1 0x40 MLOAD DUP1 SWAP2 SUB SWAP1 LOG1 PUSH1 0x0 PUSH1 0x19 PUSH8 0xFFFFFFFFFFFFFFFF DUP2 GT ISZERO PUSH2 0x11D4 JUMPI PUSH2 0x11D3 PUSH2 0x44ED JUMP JUMPDEST JUMPDEST PUSH1 0x40 MLOAD SWAP1 DUP1 DUP3 MSTORE DUP1 PUSH1 0x20 MUL PUSH1 0x20 ADD DUP3 ADD PUSH1 0x40 MSTORE DUP1 ISZERO PUSH2 0x1202 JUMPI DUP2 PUSH1 0x20 ADD PUSH1 0x20 DUP3 MUL DUP1 CALLDATASIZE DUP4 CALLDATACOPY DUP1 DUP3 ADD SWAP2 POP POP SWAP1 POP JUMPDEST POP SWAP1 POP DUP4 PUSH1 0x0 ADD MLOAD DUP2 PUSH1 0x0 DUP2 MLOAD DUP2 LT PUSH2 0x121E JUMPI PUSH2 0x121D PUSH2 0x44BE JUMP JUMPDEST JUMPDEST PUSH1 0x20 MUL PUSH1 0x20 ADD ADD DUP2 DUP2 MSTORE POP POP DUP4 PUSH1 0x20 ADD MLOAD DUP2 PUSH1 0x1 DUP2 MLOAD DUP2 LT PUSH2 0x1243 JUMPI PUSH2 0x1242 PUSH2 0x44BE JUMP JUMPDEST JUMPDEST PUSH1 0x20 MUL PUSH1 0x20 ADD ADD DUP2 DUP2 MSTORE POP POP DUP4 PUSH1 0x40 ADD MLOAD DUP2 PUSH1 0x2 DUP2 MLOAD DUP2 LT PUSH2 0x1268 JUMPI PUSH2 0x1267 PUSH2 0x44BE JUMP JUMPDEST JUMPDEST PUSH1 0x20 MUL PUSH1 0x20 ADD ADD DUP2 DUP2 MSTORE POP POP DUP4 PUSH1 0x60 ADD MLOAD DUP2 PUSH1 0x3 DUP2 MLOAD DUP2 LT PUSH2 0x128D JUMPI PUSH2 0x128C PUSH2 0x44BE JUMP JUMPDEST JUMPDEST PUSH1 0x20 MUL PUSH1 0x20 ADD ADD DUP2 DUP2 MSTORE POP POP DUP4 PUSH1 0x80 ADD MLOAD DUP2 PUSH1 0x4 DUP2 MLOAD DUP2 LT PUSH2 0x12B2 JUMPI PUSH2 0x12B1 PUSH2 0x44BE JUMP JUMPDEST JUMPDEST PUSH1 0x20 MUL PUSH1 0x20 ADD ADD DUP2 DUP2 MSTORE POP POP DUP4 PUSH1 0xA0 ADD MLOAD DUP2 PUSH1 0x5 DUP2 MLOAD DUP2 LT PUSH2 0x12D7 JUMPI PUSH2 0x12D6 PUSH2 0x44BE JUMP JUMPDEST JUMPDEST PUSH1 0x20 MUL PUSH1 0x20 ADD ADD DUP2 DUP2 MSTORE POP POP DUP4 PUSH1 0xC0 ADD MLOAD DUP2 PUSH1 0x6 DUP2 MLOAD DUP2 LT PUSH2 0x12FC JUMPI PUSH2 0x12FB PUSH2 0x44BE JUMP JUMPDEST JUMPDEST PUSH1 0x20 MUL PUSH1 0x20 ADD ADD DUP2 DUP2 MSTORE POP POP DUP4 PUSH1 0xE0 ADD MLOAD DUP2 PUSH1 0x7 DUP2 MLOAD DUP2 LT PUSH2 0x1321 JUMPI PUSH2 0x1320 PUSH2 0x44BE JUMP JUMPDEST JUMPDEST PUSH1 0x20 MUL PUSH1 0x20 ADD ADD DUP2 DUP2 MSTORE POP POP DUP4 PUSH2 0x100 ADD MLOAD DUP2 PUSH1 0x8 DUP2 MLOAD DUP2 LT PUSH2 0x1347 JUMPI PUSH2 0x1346 PUSH2 0x44BE JUMP JUMPDEST JUMPDEST PUSH1 0x20 MUL PUSH1 0x20 ADD ADD DUP2 DUP2 MSTORE POP POP DUP4 PUSH2 0x120 ADD MLOAD DUP2 PUSH1 0x9 DUP2 MLOAD DUP2 LT PUSH2 0x136D JUMPI PUSH2 0x136C PUSH2 0x44BE JUMP JUMPDEST JUMPDEST PUSH1 0x20 MUL PUSH1 0x20 ADD ADD DUP2 DUP2 MSTORE POP POP DUP4 PUSH2 0x140 ADD MLOAD DUP2 PUSH1 0xA DUP2 MLOAD DUP2 LT PUSH2 0x1393 JUMPI PUSH2 0x1392 PUSH2 0x44BE JUMP JUMPDEST JUMPDEST PUSH1 0x20 MUL PUSH1 0x20 ADD ADD DUP2 DUP2 MSTORE POP POP DUP4 PUSH2 0x160 ADD MLOAD DUP2 PUSH1 0xB DUP2 MLOAD DUP2 LT PUSH2 0x13B9 JUMPI PUSH2 0x13B8 PUSH2 0x44BE JUMP JUMPDEST JUMPDEST PUSH1 0x20 MUL PUSH1 0x20 ADD ADD DUP2 DUP2 MSTORE POP POP DUP3 PUSH1 0x0 ADD MLOAD DUP2 PUSH1 0xC DUP2 MLOAD DUP2 LT PUSH2 0x13DE JUMPI PUSH2 0x13DD PUSH2 0x44BE JUMP JUMPDEST JUMPDEST PUSH1 0x20 MUL PUSH1 0x20 ADD ADD DUP2 DUP2 MSTORE POP POP DUP3 PUSH1 0x20 ADD MLOAD DUP2 PUSH1 0xD DUP2 MLOAD DUP2 LT PUSH2 0x1403 JUMPI PUSH2 0x1402 PUSH2 0x44BE JUMP JUMPDEST JUMPDEST PUSH1 0x20 MUL PUSH1 0x20 ADD ADD DUP2 DUP2 MSTORE POP POP DUP3 PUSH1 0x40 ADD MLOAD DUP2 PUSH1 0xE DUP2 MLOAD DUP2 LT PUSH2 0x1428 JUMPI PUSH2 0x1427 PUSH2 0x44BE JUMP JUMPDEST JUMPDEST PUSH1 0x20 MUL PUSH1 0x20 ADD ADD DUP2 DUP2 MSTORE POP POP DUP3 PUSH1 0x60 ADD MLOAD DUP2 PUSH1 0xF DUP2 MLOAD DUP2 LT PUSH2 0x144D JUMPI PUSH2 0x144C PUSH2 0x44BE JUMP JUMPDEST JUMPDEST PUSH1 0x20 MUL PUSH1 0x20 ADD ADD DUP2 DUP2 MSTORE POP POP DUP3 PUSH1 0x80 ADD MLOAD DUP2 PUSH1 0x10 DUP2 MLOAD DUP2 LT PUSH2 0x1472 JUMPI PUSH2 0x1471 PUSH2 0x44BE JUMP JUMPDEST JUMPDEST PUSH1 0x20 MUL PUSH1 0x20 ADD ADD DUP2 DUP2 MSTORE POP POP DUP3 PUSH1 0xA0 ADD MLOAD DUP2 PUSH1 0x11 DUP2 MLOAD DUP2 LT PUSH2 0x1497 JUMPI PUSH2 0x1496 PUSH2 0x44BE JUMP JUMPDEST JUMPDEST PUSH1 0x20 MUL PUSH1 0x20 ADD ADD DUP2 DUP2 MSTORE POP POP DUP3 PUSH1 0xC0 ADD MLOAD DUP2 PUSH1 0x12 DUP2 MLOAD DUP2 LT PUSH2 0x14BC JUMPI PUSH2 0x14BB PUSH2 0x44BE JUMP JUMPDEST JUMPDEST PUSH1 0x20 MUL PUSH1 0x20 ADD ADD DUP2 DUP2 MSTORE POP POP DUP3 PUSH1 0xE0 ADD MLOAD DUP2 PUSH1 0x13 DUP2 MLOAD DUP2 LT PUSH2 0x14E1 JUMPI PUSH2 0x14E0 PUSH2 0x44BE JUMP JUMPDEST JUMPDEST PUSH1 0x20 MUL PUSH1 0x20 ADD ADD DUP2 DUP2 MSTORE POP POP DUP3 PUSH2 0x100 ADD MLOAD DUP2 PUSH1 0x14 DUP2 MLOAD DUP2 LT PUSH2 0x1507 JUMPI PUSH2 0x1506 PUSH2 0x44BE JUMP JUMPDEST JUMPDEST PUSH1 0x20 MUL PUSH1 0x20 ADD ADD DUP2 DUP2 MSTORE POP POP DUP3 PUSH2 0x120 ADD MLOAD DUP2 PUSH1 0x15 DUP2 MLOAD DUP2 LT PUSH2 0x152D JUMPI PUSH2 0x152C PUSH2 0x44BE JUMP JUMPDEST JUMPDEST PUSH1 0x20 MUL PUSH1 0x20 ADD ADD DUP2 DUP2 MSTORE POP POP DUP3 PUSH2 0x140 ADD MLOAD DUP2 PUSH1 0x16 DUP2 MLOAD DUP2 LT PUSH2 0x1553 JUMPI PUSH2 0x1552 PUSH2 0x44BE JUMP JUMPDEST JUMPDEST PUSH1 0x20 MUL PUSH1 0x20 ADD ADD DUP2 DUP2 MSTORE POP POP DUP3 PUSH2 0x160 ADD MLOAD DUP2 PUSH1 0x17 DUP2 MLOAD DUP2 LT PUSH2 0x1579 JUMPI PUSH2 0x1578 PUSH2 0x44BE JUMP JUMPDEST JUMPDEST PUSH1 0x20 MUL PUSH1 0x20 ADD ADD DUP2 DUP2 MSTORE POP POP DUP2 DUP2 PUSH1 0x18 DUP2 MLOAD DUP2 LT PUSH2 0x159A JUMPI PUSH2 0x1599 PUSH2 0x44BE JUMP JUMPDEST JUMPDEST PUSH1 0x20 MUL PUSH1 0x20 ADD ADD DUP2 DUP2 MSTORE POP POP PUSH32 0x3593DF2963C20760AFEEC7BC9AE99F0AD8227EC08877590930B113D33DF9C067 PUSH1 0x3 PUSH1 0x40 MLOAD PUSH2 0x15D6 SWAP2 SWAP1 PUSH2 0x3BF1 JUMP JUMPDEST PUSH1 0x40 MLOAD DUP1 SWAP2 SUB SWAP1 LOG1 PUSH1 0xB PUSH1 0x0 SWAP1 SLOAD SWAP1 PUSH2 0x100 EXP SWAP1 DIV PUSH20 0xFFFFFFFFFFFFFFFFFFFFFFFFFFFFFFFFFFFFFFFF AND PUSH20 0xFFFFFFFFFFFFFFFFFFFFFFFFFFFFFFFFFFFFFFFF AND PUSH4 0x3E3AA6C5 CALLVALUE PUSH1 0xF SLOAD PUSH32 0x397F7783310F752C90187FFFBD53489B1FF1F87FCF4636E32DC6BCBBF0B224F DUP6 PUSH1 0x40 MLOAD DUP6 PUSH4 0xFFFFFFFF AND PUSH1 0xE0 SHL DUP2 MSTORE PUSH1 0x4 ADD PUSH2 0x1660 SWAP4 SWAP3 SWAP2 SWAP1 PUSH2 0x3EE6 JUMP JUMPDEST PUSH1 0x20 PUSH1 0x40 MLOAD DUP1 DUP4 SUB DUP2 DUP6 DUP9 DUP1 EXTCODESIZE ISZERO DUP1 ISZERO PUSH2 0x1679 JUMPI PUSH1 0x0 DUP1 REVERT JUMPDEST POP GAS CALL ISZERO DUP1 ISZERO PUSH2 0x168D JUMPI RETURNDATASIZE PUSH1 0x0 DUP1 RETURNDATACOPY RETURNDATASIZE PUSH1 0x0 REVERT JUMPDEST POP POP POP POP POP PUSH1 0x40 MLOAD RETURNDATASIZE PUSH1 0x1F NOT PUSH1 0x1F DUP3 ADD AND DUP3 ADD DUP1 PUSH1 0x40 MSTORE POP DUP2 ADD SWAP1 PUSH2 0x16B2 SWAP2 SWAP1 PUSH2 0x34CF JUMP JUMPDEST POP CALLER PUSH20 0xFFFFFFFFFFFFFFFFFFFFFFFFFFFFFFFFFFFFFFFF AND PUSH32 0xD02FCE1ACAFA0B604F24AAAD2D7C0A36C749F4B333ABC05FC83BA197D5E0705C DUP6 PUSH1 0x0 ADD MLOAD DUP6 PUSH1 0x0 ADD MLOAD PUSH1 0xF SLOAD CALLVALUE PUSH1 0x40 MLOAD PUSH2 0x1709 SWAP5 SWAP4 SWAP3 SWAP2 SWAP1 PUSH2 0x3F5B JUMP JUMPDEST PUSH1 0x40 MLOAD DUP1 SWAP2 SUB SWAP1 LOG2 POP POP POP POP POP POP JUMP JUMPDEST PUSH32 0x877BC3E3DBF475EAD0821FEA1E1BE8E57A0C7200FE646D2D6EE72FDC77374440 PUSH2 0x309 PUSH1 0x40 MLOAD PUSH2 0x174A SWAP2 SWAP1 PUSH2 0x3C0C JUMP JUMPDEST PUSH1 0x40 MLOAD DUP1 SWAP2 SUB SWAP1 LOG1 PUSH1 0x0 PUSH1 0x1 PUSH8 0xFFFFFFFFFFFFFFFF DUP2 GT ISZERO PUSH2 0x176F JUMPI PUSH2 0x176E PUSH2 0x44ED JUMP JUMPDEST JUMPDEST PUSH1 0x40 MLOAD SWAP1 DUP1 DUP3 MSTORE DUP1 PUSH1 0x20 MUL PUSH1 0x20 ADD DUP3 ADD PUSH1 0x40 MSTORE DUP1 ISZERO PUSH2 0x179D JUMPI DUP2 PUSH1 0x20 ADD PUSH1 0x20 DUP3 MUL DUP1 CALLDATASIZE DUP4 CALLDATACOPY DUP1 DUP3 ADD SWAP2 POP POP SWAP1 POP JUMPDEST POP SWAP1 POP DUP2 DUP2 PUSH1 0x0 DUP2 MLOAD DUP2 LT PUSH2 0x17B5 JUMPI PUSH2 0x17B4 PUSH2 0x44BE JUMP JUMPDEST JUMPDEST PUSH1 0x20 MUL PUSH1 0x20 ADD ADD DUP2 DUP2 MSTORE POP POP PUSH1 0xB PUSH1 0x0 SWAP1 SLOAD SWAP1 PUSH2 0x100 EXP SWAP1 DIV PUSH20 0xFFFFFFFFFFFFFFFFFFFFFFFFFFFFFFFFFFFFFFFF AND PUSH20 0xFFFFFFFFFFFFFFFFFFFFFFFFFFFFFFFFFFFFFFFF AND PUSH4 0x2C9DD5C0 PUSH1 0xD SLOAD DUP4 PUSH1 0x40 MLOAD DUP4 PUSH4 0xFFFFFFFF AND PUSH1 0xE0 SHL DUP2 MSTORE PUSH1 0x4 ADD PUSH2 0x1820 SWAP3 SWAP2 SWAP1 PUSH2 0x3EB6 JUMP JUMPDEST PUSH1 0x20 PUSH1 0x40 MLOAD DUP1 DUP4 SUB DUP2 PUSH1 0x0 DUP8 DUP1 EXTCODESIZE ISZERO DUP1 ISZERO PUSH2 0x183A JUMPI PUSH1 0x0 DUP1 REVERT JUMPDEST POP GAS CALL ISZERO DUP1 ISZERO PUSH2 0x184E JUMPI RETURNDATASIZE PUSH1 0x0 DUP1 RETURNDATACOPY RETURNDATASIZE PUSH1 0x0 REVERT JUMPDEST POP POP POP POP PUSH1 0x40 MLOAD RETURNDATASIZE PUSH1 0x1F NOT PUSH1 0x1F DUP3 ADD AND DUP3 ADD DUP1 PUSH1 0x40 MSTORE POP DUP2 ADD SWAP1 PUSH2 0x1872 SWAP2 SWAP1 PUSH2 0x34CF JUMP JUMPDEST POP PUSH32 0x877BC3E3DBF475EAD0821FEA1E1BE8E57A0C7200FE646D2D6EE72FDC77374440 DUP3 PUSH1 0x40 MLOAD PUSH2 0x18A2 SWAP2 SWAP1 PUSH2 0x3E9B JUMP JUMPDEST PUSH1 0x40 MLOAD DUP1 SWAP2 SUB SWAP1 LOG1 POP POP JUMP JUMPDEST PUSH1 0x60 PUSH1 0x1 DUP1 SLOAD PUSH2 0x18BD SWAP1 PUSH2 0x4325 JUMP JUMPDEST DUP1 PUSH1 0x1F ADD PUSH1 0x20 DUP1 SWAP2 DIV MUL PUSH1 0x20 ADD PUSH1 0x40 MLOAD SWAP1 DUP2 ADD PUSH1 0x40 MSTORE DUP1 SWAP3 SWAP2 SWAP1 DUP2 DUP2 MSTORE PUSH1 0x20 ADD DUP3 DUP1 SLOAD PUSH2 0x18E9 SWAP1 PUSH2 0x4325 JUMP JUMPDEST DUP1 ISZERO PUSH2 0x1936 JUMPI DUP1 PUSH1 0x1F LT PUSH2 0x190B JUMPI PUSH2 0x100 DUP1 DUP4 SLOAD DIV MUL DUP4 MSTORE SWAP2 PUSH1 0x20 ADD SWAP2 PUSH2 0x1936 JUMP JUMPDEST DUP3 ADD SWAP2 SWAP1 PUSH1 0x0 MSTORE PUSH1 0x20 PUSH1 0x0 KECCAK256 SWAP1 JUMPDEST DUP2 SLOAD DUP2 MSTORE SWAP1 PUSH1 0x1 ADD SWAP1 PUSH1 0x20 ADD DUP1 DUP4 GT PUSH2 0x1919 JUMPI DUP3 SWAP1 SUB PUSH1 0x1F AND DUP3 ADD SWAP2 JUMPDEST POP POP POP POP POP SWAP1 POP SWAP1 JUMP JUMPDEST PUSH1 0x0 PUSH1 0xA DUP1 SLOAD SWAP1 POP SWAP1 POP PUSH1 0xA PUSH2 0x1956 DUP4 DUP4 PUSH2 0x9B0 JUMP JUMPDEST SWAP1 DUP1 PUSH1 0x1 DUP2 SLOAD ADD DUP1 DUP3 SSTORE DUP1 SWAP2 POP POP PUSH1 0x1 SWAP1 SUB SWAP1 PUSH1 0x0 MSTORE PUSH1 0x20 PUSH1 0x0 KECCAK256 SWAP1 PUSH1 0xC MUL ADD PUSH1 0x0 SWAP1 SWAP2 SWAP1 SWAP2 SWAP1 SWAP2 POP PUSH1 0x0 DUP3 ADD MLOAD DUP2 PUSH1 0x0 ADD SSTORE PUSH1 0x20 DUP3 ADD MLOAD DUP2 PUSH1 0x1 ADD SSTORE PUSH1 0x40 DUP3 ADD MLOAD DUP2 PUSH1 0x2 ADD SSTORE PUSH1 0x60 DUP3 ADD MLOAD DUP2 PUSH1 0x3 ADD SSTORE PUSH1 0x80 DUP3 ADD MLOAD DUP2 PUSH1 0x4 ADD SSTORE PUSH1 0xA0 DUP3 ADD MLOAD DUP2 PUSH1 0x5 ADD SSTORE PUSH1 0xC0 DUP3 ADD MLOAD DUP2 PUSH1 0x6 ADD SSTORE PUSH1 0xE0 DUP3 ADD MLOAD DUP2 PUSH1 0x7 ADD SSTORE PUSH2 0x100 DUP3 ADD MLOAD DUP2 PUSH1 0x8 ADD SSTORE PUSH2 0x120 DUP3 ADD MLOAD DUP2 PUSH1 0x9 ADD SSTORE PUSH2 0x140 DUP3 ADD MLOAD DUP2 PUSH1 0xA ADD SSTORE PUSH2 0x160 DUP3 ADD MLOAD DUP2 PUSH1 0xB ADD SSTORE POP POP PUSH2 0x1A07 CALLER DUP3 PUSH2 0x24EF JUMP JUMPDEST POP POP JUMP JUMPDEST PUSH2 0x1A1D PUSH2 0x1A16 PUSH2 0x20CB JUMP JUMPDEST DUP4 DUP4 PUSH2 0x250D JUMP JUMPDEST POP POP JUMP JUMPDEST PUSH1 0x0 DUP1 PUSH8 0xFFFFFFFFFFFFFFFF DUP2 GT ISZERO PUSH2 0x1A3D JUMPI PUSH2 0x1A3C PUSH2 0x44ED JUMP JUMPDEST JUMPDEST PUSH1 0x40 MLOAD SWAP1 DUP1 DUP3 MSTORE DUP1 PUSH1 0x20 MUL PUSH1 0x20 ADD DUP3 ADD PUSH1 0x40 MSTORE DUP1 ISZERO PUSH2 0x1A6B JUMPI DUP2 PUSH1 0x20 ADD PUSH1 0x20 DUP3 MUL DUP1 CALLDATASIZE DUP4 CALLDATACOPY DUP1 DUP3 ADD SWAP2 POP POP SWAP1 POP JUMPDEST POP SWAP1 POP PUSH32 0x877BC3E3DBF475EAD0821FEA1E1BE8E57A0C7200FE646D2D6EE72FDC77374440 PUSH2 0x3E7 PUSH1 0x40 MLOAD PUSH2 0x1A9F SWAP2 SWAP1 PUSH2 0x3C42 JUMP JUMPDEST PUSH1 0x40 MLOAD DUP1 SWAP2 SUB SWAP1 LOG1 PUSH1 0xB PUSH1 0x0 SWAP1 SLOAD SWAP1 PUSH2 0x100 EXP SWAP1 DIV PUSH20 0xFFFFFFFFFFFFFFFFFFFFFFFFFFFFFFFFFFFFFFFF AND PUSH20 0xFFFFFFFFFFFFFFFFFFFFFFFFFFFFFFFFFFFFFFFF AND PUSH4 0x3E3AA6C5 CALLVALUE PUSH1 0xD SLOAD PUSH31 0x75658DC2740A020955D83CE6D82D891EFC27DBA6EE1250E2CCAA659555F8CC DUP6 PUSH1 0x40 MLOAD DUP6 PUSH4 0xFFFFFFFF AND PUSH1 0xE0 SHL DUP2 MSTORE PUSH1 0x4 ADD PUSH2 0x1B28 SWAP4 SWAP3 SWAP2 SWAP1 PUSH2 0x3EE6 JUMP JUMPDEST PUSH1 0x20 PUSH1 0x40 MLOAD DUP1 DUP4 SUB DUP2 DUP6 DUP9 DUP1 EXTCODESIZE ISZERO DUP1 ISZERO PUSH2 0x1B41 JUMPI PUSH1 0x0 DUP1 REVERT JUMPDEST POP GAS CALL ISZERO DUP1 ISZERO PUSH2 0x1B55 JUMPI RETURNDATASIZE PUSH1 0x0 DUP1 RETURNDATACOPY RETURNDATASIZE PUSH1 0x0 REVERT JUMPDEST POP POP POP POP POP PUSH1 0x40 MLOAD RETURNDATASIZE PUSH1 0x1F NOT PUSH1 0x1F DUP3 ADD AND DUP3 ADD DUP1 PUSH1 0x40 MSTORE POP DUP2 ADD SWAP1 PUSH2 0x1B7A SWAP2 SWAP1 PUSH2 0x34CF JUMP JUMPDEST POP POP JUMP JUMPDEST PUSH2 0x1B8F PUSH2 0x1B89 PUSH2 0x20CB JUMP JUMPDEST DUP4 PUSH2 0x218C JUMP JUMPDEST PUSH2 0x1BCE JUMPI PUSH1 0x40 MLOAD PUSH32 0x8C379A000000000000000000000000000000000000000000000000000000000 DUP2 MSTORE PUSH1 0x4 ADD PUSH2 0x1BC5 SWAP1 PUSH2 0x3E3F JUMP JUMPDEST PUSH1 0x40 MLOAD DUP1 SWAP2 SUB SWAP1 REVERT JUMPDEST PUSH2 0x1BDA DUP5 DUP5 DUP5 DUP5 PUSH2 0x267A JUMP JUMPDEST POP POP POP POP JUMP JUMPDEST PUSH1 0x60 PUSH2 0x1BEB DUP3 PUSH2 0x205F JUMP JUMPDEST PUSH2 0x1C2A JUMPI PUSH1 0x40 MLOAD PUSH32 0x8C379A000000000000000000000000000000000000000000000000000000000 DUP2 MSTORE PUSH1 0x4 ADD PUSH2 0x1C21 SWAP1 PUSH2 0x3DFF JUMP JUMPDEST PUSH1 0x40 MLOAD DUP1 SWAP2 SUB SWAP1 REVERT JUMPDEST PUSH1 0x0 PUSH2 0x1C34 PUSH2 0x26D6 JUMP JUMPDEST SWAP1 POP PUSH1 0x0 DUP2 MLOAD GT PUSH2 0x1C54 JUMPI PUSH1 0x40 MLOAD DUP1 PUSH1 0x20 ADD PUSH1 0x40 MSTORE DUP1 PUSH1 0x0 DUP2 MSTORE POP PUSH2 0x1C7F JUMP JUMPDEST DUP1 PUSH2 0x1C5E DUP5 PUSH2 0x26ED JUMP JUMPDEST PUSH1 0x40 MLOAD PUSH1 0x20 ADD PUSH2 0x1C6F SWAP3 SWAP2 SWAP1 PUSH2 0x3AFA JUMP JUMPDEST PUSH1 0x40 MLOAD PUSH1 0x20 DUP2 DUP4 SUB SUB DUP2 MSTORE SWAP1 PUSH1 0x40 MSTORE JUMPDEST SWAP2 POP POP SWAP2 SWAP1 POP JUMP JUMPDEST PUSH1 0x11 PUSH1 0x20 MSTORE DUP1 PUSH1 0x0 MSTORE PUSH1 0x40 PUSH1 0x0 KECCAK256 PUSH1 0x0 SWAP2 POP SWAP1 POP DUP1 PUSH1 0x0 ADD SLOAD SWAP1 DUP1 PUSH1 0x1 ADD SLOAD SWAP1 DUP1 PUSH1 0x2 ADD SLOAD SWAP1 DUP1 PUSH1 0x3 ADD SLOAD SWAP1 DUP1 PUSH1 0x4 ADD SLOAD SWAP1 DUP1 PUSH1 0x5 ADD SLOAD SWAP1 DUP1 PUSH1 0x6 ADD SLOAD SWAP1 DUP1 PUSH1 0x7 ADD SLOAD SWAP1 DUP1 PUSH1 0x8 ADD SLOAD SWAP1 DUP1 PUSH1 0x9 ADD SLOAD SWAP1 DUP1 PUSH1 0xA ADD SLOAD SWAP1 DUP1 PUSH1 0xB ADD SLOAD SWAP1 POP DUP13 JUMP JUMPDEST PUSH32 0xED9918E573B159B62731BC88263B9CE84E79C6335FBBA2B28F981840126E16F PUSH2 0x2B67 PUSH1 0x40 MLOAD PUSH2 0x1D18 SWAP2 SWAP1 PUSH2 0x3BA0 JUMP JUMPDEST PUSH1 0x40 MLOAD DUP1 SWAP2 SUB SWAP1 LOG1 PUSH1 0x0 PUSH1 0x2 PUSH8 0xFFFFFFFFFFFFFFFF DUP2 GT ISZERO PUSH2 0x1D3D JUMPI PUSH2 0x1D3C PUSH2 0x44ED JUMP JUMPDEST JUMPDEST PUSH1 0x40 MLOAD SWAP1 DUP1 DUP3 MSTORE DUP1 PUSH1 0x20 MUL PUSH1 0x20 ADD DUP3 ADD PUSH1 0x40 MSTORE DUP1 ISZERO PUSH2 0x1D6B JUMPI DUP2 PUSH1 0x20 ADD PUSH1 0x20 DUP3 MUL DUP1 CALLDATASIZE DUP4 CALLDATACOPY DUP1 DUP3 ADD SWAP2 POP POP SWAP1 POP JUMPDEST POP SWAP1 POP DUP3 DUP2 PUSH1 0x0 DUP2 MLOAD DUP2 LT PUSH2 0x1D83 JUMPI PUSH2 0x1D82 PUSH2 0x44BE JUMP JUMPDEST JUMPDEST PUSH1 0x20 MUL PUSH1 0x20 ADD ADD DUP2 DUP2 MSTORE POP POP DUP2 DUP2 PUSH1 0x1 DUP2 MLOAD DUP2 LT PUSH2 0x1DA4 JUMPI PUSH2 0x1DA3 PUSH2 0x44BE JUMP JUMPDEST JUMPDEST PUSH1 0x20 MUL PUSH1 0x20 ADD ADD DUP2 DUP2 MSTORE POP POP PUSH1 0xB PUSH1 0x0 SWAP1 SLOAD SWAP1 PUSH2 0x100 EXP SWAP1 DIV PUSH20 0xFFFFFFFFFFFFFFFFFFFFFFFFFFFFFFFFFFFFFFFF AND PUSH20 0xFFFFFFFFFFFFFFFFFFFFFFFFFFFFFFFFFFFFFFFF AND PUSH4 0x2C9DD5C0 DUP6 DUP4 PUSH1 0x40 MLOAD DUP4 PUSH4 0xFFFFFFFF AND PUSH1 0xE0 SHL DUP2 MSTORE PUSH1 0x4 ADD PUSH2 0x1E0D SWAP3 SWAP2 SWAP1 PUSH2 0x3EB6 JUMP JUMPDEST PUSH1 0x20 PUSH1 0x40 MLOAD DUP1 DUP4 SUB DUP2 PUSH1 0x0 DUP8 DUP1 EXTCODESIZE ISZERO DUP1 ISZERO PUSH2 0x1E27 JUMPI PUSH1 0x0 DUP1 REVERT JUMPDEST POP GAS CALL ISZERO DUP1 ISZERO PUSH2 0x1E3B JUMPI RETURNDATASIZE PUSH1 0x0 DUP1 RETURNDATACOPY RETURNDATASIZE PUSH1 0x0 REVERT JUMPDEST POP POP POP POP PUSH1 0x40 MLOAD RETURNDATASIZE PUSH1 0x1F NOT PUSH1 0x1F DUP3 ADD AND DUP3 ADD DUP1 PUSH1 0x40 MSTORE POP DUP2 ADD SWAP1 PUSH2 0x1E5F SWAP2 SWAP1 PUSH2 0x34CF JUMP JUMPDEST POP PUSH1 0xA DUP4 DUP2 SLOAD DUP2 LT PUSH2 0x1E74 JUMPI PUSH2 0x1E73 PUSH2 0x44BE JUMP JUMPDEST JUMPDEST SWAP1 PUSH1 0x0 MSTORE PUSH1 0x20 PUSH1 0x0 KECCAK256 SWAP1 PUSH1 0xC MUL ADD PUSH1 0x11 PUSH1 0x0 DUP5 DUP2 MSTORE PUSH1 0x20 ADD SWAP1 DUP2 MSTORE PUSH1 0x20 ADD PUSH1 0x0 KECCAK256 PUSH1 0x0 DUP3 ADD SLOAD DUP2 PUSH1 0x0 ADD SSTORE PUSH1 0x1 DUP3 ADD SLOAD DUP2 PUSH1 0x1 ADD SSTORE PUSH1 0x2 DUP3 ADD SLOAD DUP2 PUSH1 0x2 ADD SSTORE PUSH1 0x3 DUP3 ADD SLOAD DUP2 PUSH1 0x3 ADD SSTORE PUSH1 0x4 DUP3 ADD SLOAD DUP2 PUSH1 0x4 ADD SSTORE PUSH1 0x5 DUP3 ADD SLOAD DUP2 PUSH1 0x5 ADD SSTORE PUSH1 0x6 DUP3 ADD SLOAD DUP2 PUSH1 0x6 ADD SSTORE PUSH1 0x7 DUP3 ADD SLOAD DUP2 PUSH1 0x7 ADD SSTORE PUSH1 0x8 DUP3 ADD SLOAD DUP2 PUSH1 0x8 ADD SSTORE PUSH1 0x9 DUP3 ADD SLOAD DUP2 PUSH1 0x9 ADD SSTORE PUSH1 0xA DUP3 ADD SLOAD DUP2 PUSH1 0xA ADD SSTORE PUSH1 0xB DUP3 ADD SLOAD DUP2 PUSH1 0xB ADD SSTORE SWAP1 POP POP PUSH32 0xB8D7090364DA4A6371334296AAF588E8D119F8490AC61CE968A539406164F5FB DUP5 DUP5 DUP5 PUSH1 0x40 MLOAD PUSH2 0x1F43 SWAP4 SWAP3 SWAP2 SWAP1 PUSH2 0x3F24 JUMP JUMPDEST PUSH1 0x40 MLOAD DUP1 SWAP2 SUB SWAP1 LOG1 POP POP POP POP JUMP JUMPDEST PUSH1 0x0 PUSH1 0x5 PUSH1 0x0 DUP5 PUSH20 0xFFFFFFFFFFFFFFFFFFFFFFFFFFFFFFFFFFFFFFFF AND PUSH20 0xFFFFFFFFFFFFFFFFFFFFFFFFFFFFFFFFFFFFFFFF AND DUP2 MSTORE PUSH1 0x20 ADD SWAP1 DUP2 MSTORE PUSH1 0x20 ADD PUSH1 0x0 KECCAK256 PUSH1 0x0 DUP4 PUSH20 0xFFFFFFFFFFFFFFFFFFFFFFFFFFFFFFFFFFFFFFFF AND PUSH20 0xFFFFFFFFFFFFFFFFFFFFFFFFFFFFFFFFFFFFFFFF AND DUP2 MSTORE PUSH1 0x20 ADD SWAP1 DUP2 MSTORE PUSH1 0x20 ADD PUSH1 0x0 KECCAK256 PUSH1 0x0 SWAP1 SLOAD SWAP1 PUSH2 0x100 EXP SWAP1 DIV PUSH1 0xFF AND SWAP1 POP SWAP3 SWAP2 POP POP JUMP JUMPDEST PUSH1 0x0 PUSH32 0x780E9D6300000000000000000000000000000000000000000000000000000000 PUSH28 0xFFFFFFFFFFFFFFFFFFFFFFFFFFFFFFFFFFFFFFFFFFFFFFFFFFFFFFFF NOT AND DUP3 PUSH28 0xFFFFFFFFFFFFFFFFFFFFFFFFFFFFFFFFFFFFFFFFFFFFFFFFFFFFFFFF NOT AND EQ DUP1 PUSH2 0x2058 JUMPI POP PUSH2 0x2057 DUP3 PUSH2 0x284E JUMP JUMPDEST JUMPDEST SWAP1 POP SWAP2 SWAP1 POP JUMP JUMPDEST PUSH1 0x0 DUP1 PUSH20 0xFFFFFFFFFFFFFFFFFFFFFFFFFFFFFFFFFFFFFFFF AND PUSH1 0x2 PUSH1 0x0 DUP5 DUP2 MSTORE PUSH1 0x20 ADD SWAP1 DUP2 MSTORE PUSH1 0x20 ADD PUSH1 0x0 KECCAK256 PUSH1 0x0 SWAP1 SLOAD SWAP1 PUSH2 0x100 EXP SWAP1 DIV PUSH20 0xFFFFFFFFFFFFFFFFFFFFFFFFFFFFFFFFFFFFFFFF AND PUSH20 0xFFFFFFFFFFFFFFFFFFFFFFFFFFFFFFFFFFFFFFFF AND EQ ISZERO SWAP1 POP SWAP2 SWAP1 POP JUMP JUMPDEST PUSH1 0x0 CALLER SWAP1 POP SWAP1 JUMP JUMPDEST DUP2 PUSH1 0x4 PUSH1 0x0 DUP4 DUP2 MSTORE PUSH1 0x20 ADD SWAP1 DUP2 MSTORE PUSH1 0x20 ADD PUSH1 0x0 KECCAK256 PUSH1 0x0 PUSH2 0x100 EXP DUP2 SLOAD DUP2 PUSH20 0xFFFFFFFFFFFFFFFFFFFFFFFFFFFFFFFFFFFFFFFF MUL NOT AND SWAP1 DUP4 PUSH20 0xFFFFFFFFFFFFFFFFFFFFFFFFFFFFFFFFFFFFFFFF AND MUL OR SWAP1 SSTORE POP DUP1 DUP3 PUSH20 0xFFFFFFFFFFFFFFFFFFFFFFFFFFFFFFFFFFFFFFFF AND PUSH2 0x2146 DUP4 PUSH2 0xC78 JUMP JUMPDEST PUSH20 0xFFFFFFFFFFFFFFFFFFFFFFFFFFFFFFFFFFFFFFFF AND PUSH32 0x8C5BE1E5EBEC7D5BD14F71427D1E84F3DD0314C0F7B2291E5B200AC8C7C3B925 PUSH1 0x40 MLOAD PUSH1 0x40 MLOAD DUP1 SWAP2 SUB SWAP1 LOG4 POP POP JUMP JUMPDEST PUSH1 0x0 PUSH2 0x2197 DUP3 PUSH2 0x205F JUMP JUMPDEST PUSH2 0x21D6 JUMPI PUSH1 0x40 MLOAD PUSH32 0x8C379A000000000000000000000000000000000000000000000000000000000 DUP2 MSTORE PUSH1 0x4 ADD PUSH2 0x21CD SWAP1 PUSH2 0x3D3F JUMP JUMPDEST PUSH1 0x40 MLOAD DUP1 SWAP2 SUB SWAP1 REVERT JUMPDEST PUSH1 0x0 PUSH2 0x21E1 DUP4 PUSH2 0xC78 JUMP JUMPDEST SWAP1 POP DUP1 PUSH20 0xFFFFFFFFFFFFFFFFFFFFFFFFFFFFFFFFFFFFFFFF AND DUP5 PUSH20 0xFFFFFFFFFFFFFFFFFFFFFFFFFFFFFFFFFFFFFFFF AND EQ DUP1 PUSH2 0x2223 JUMPI POP PUSH2 0x2222 DUP2 DUP6 PUSH2 0x1F51 JUMP JUMPDEST JUMPDEST DUP1 PUSH2 0x2261 JUMPI POP DUP4 PUSH20 0xFFFFFFFFFFFFFFFFFFFFFFFFFFFFFFFFFFFFFFFF AND PUSH2 0x2249 DUP5 PUSH2 0x701 JUMP JUMPDEST PUSH20 0xFFFFFFFFFFFFFFFFFFFFFFFFFFFFFFFFFFFFFFFF AND EQ JUMPDEST SWAP2 POP POP SWAP3 SWAP2 POP POP JUMP JUMPDEST DUP3 PUSH20 0xFFFFFFFFFFFFFFFFFFFFFFFFFFFFFFFFFFFFFFFF AND PUSH2 0x228A DUP3 PUSH2 0xC78 JUMP JUMPDEST PUSH20 0xFFFFFFFFFFFFFFFFFFFFFFFFFFFFFFFFFFFFFFFF AND EQ PUSH2 0x22E0 JUMPI PUSH1 0x40 MLOAD PUSH32 0x8C379A000000000000000000000000000000000000000000000000000000000 DUP2 MSTORE PUSH1 0x4 ADD PUSH2 0x22D7 SWAP1 PUSH2 0x3CBF JUMP JUMPDEST PUSH1 0x40 MLOAD DUP1 SWAP2 SUB SWAP1 REVERT JUMPDEST PUSH1 0x0 PUSH20 0xFFFFFFFFFFFFFFFFFFFFFFFFFFFFFFFFFFFFFFFF AND DUP3 PUSH20 0xFFFFFFFFFFFFFFFFFFFFFFFFFFFFFFFFFFFFFFFF AND EQ ISZERO PUSH2 0x2350 JUMPI PUSH1 0x40 MLOAD PUSH32 0x8C379A000000000000000000000000000000000000000000000000000000000 DUP2 MSTORE PUSH1 0x4 ADD PUSH2 0x2347 SWAP1 PUSH2 0x3CFF JUMP JUMPDEST PUSH1 0x40 MLOAD DUP1 SWAP2 SUB SWAP1 REVERT JUMPDEST PUSH2 0x235B DUP4 DUP4 DUP4 PUSH2 0x2930 JUMP JUMPDEST PUSH2 0x2366 PUSH1 0x0 DUP3 PUSH2 0x20D3 JUMP JUMPDEST PUSH1 0x1 PUSH1 0x3 PUSH1 0x0 DUP6 PUSH20 0xFFFFFFFFFFFFFFFFFFFFFFFFFFFFFFFFFFFFFFFF AND PUSH20 0xFFFFFFFFFFFFFFFFFFFFFFFFFFFFFFFFFFFFFFFF AND DUP2 MSTORE PUSH1 0x20 ADD SWAP1 DUP2 MSTORE PUSH1 0x20 ADD PUSH1 0x0 KECCAK256 PUSH1 0x0 DUP3 DUP3 SLOAD PUSH2 0x23B6 SWAP2 SWAP1 PUSH2 0x41B3 JUMP JUMPDEST SWAP3 POP POP DUP2 SWAP1 SSTORE POP PUSH1 0x1 PUSH1 0x3 PUSH1 0x0 DUP5 PUSH20 0xFFFFFFFFFFFFFFFFFFFFFFFFFFFFFFFFFFFFFFFF AND PUSH20 0xFFFFFFFFFFFFFFFFFFFFFFFFFFFFFFFFFFFFFFFF AND DUP2 MSTORE PUSH1 0x20 ADD SWAP1 DUP2 MSTORE PUSH1 0x20 ADD PUSH1 0x0 KECCAK256 PUSH1 0x0 DUP3 DUP3 SLOAD PUSH2 0x240D SWAP2 SWAP1 PUSH2 0x412C JUMP JUMPDEST SWAP3 POP POP DUP2 SWAP1 SSTORE POP DUP2 PUSH1 0x2 PUSH1 0x0 DUP4 DUP2 MSTORE PUSH1 0x20 ADD SWAP1 DUP2 MSTORE PUSH1 0x20 ADD PUSH1 0x0 KECCAK256 PUSH1 0x0 PUSH2 0x100 EXP DUP2 SLOAD DUP2 PUSH20 0xFFFFFFFFFFFFFFFFFFFFFFFFFFFFFFFFFFFFFFFF MUL NOT AND SWAP1 DUP4 PUSH20 0xFFFFFFFFFFFFFFFFFFFFFFFFFFFFFFFFFFFFFFFF AND MUL OR SWAP1 SSTORE POP DUP1 DUP3 PUSH20 0xFFFFFFFFFFFFFFFFFFFFFFFFFFFFFFFFFFFFFFFF AND DUP5 PUSH20 0xFFFFFFFFFFFFFFFFFFFFFFFFFFFFFFFFFFFFFFFF AND PUSH32 0xDDF252AD1BE2C89B69C2B068FC378DAA952BA7F163C4A11628F55A4DF523B3EF PUSH1 0x40 MLOAD PUSH1 0x40 MLOAD DUP1 SWAP2 SUB SWAP1 LOG4 PUSH2 0x24CC DUP4 DUP4 DUP4 PUSH2 0x2940 JUMP JUMPDEST POP POP POP JUMP JUMPDEST PUSH1 0x0 PUSH1 0x10 PUSH1 0x0 DUP2 SLOAD DUP1 SWAP3 SWAP2 SWAP1 PUSH2 0x24E6 SWAP1 PUSH2 0x4388 JUMP JUMPDEST SWAP2 SWAP1 POP SSTORE SWAP1 POP SWAP1 JUMP JUMPDEST PUSH2 0x2509 DUP3 DUP3 PUSH1 0x40 MLOAD DUP1 PUSH1 0x20 ADD PUSH1 0x40 MSTORE DUP1 PUSH1 0x0 DUP2 MSTORE POP PUSH2 0x2945 JUMP JUMPDEST POP POP JUMP JUMPDEST DUP2 PUSH20 0xFFFFFFFFFFFFFFFFFFFFFFFFFFFFFFFFFFFFFFFF AND DUP4 PUSH20 0xFFFFFFFFFFFFFFFFFFFFFFFFFFFFFFFFFFFFFFFF AND EQ ISZERO PUSH2 0x257C JUMPI PUSH1 0x40 MLOAD PUSH32 0x8C379A000000000000000000000000000000000000000000000000000000000 DUP2 MSTORE PUSH1 0x4 ADD PUSH2 0x2573 SWAP1 PUSH2 0x3D1F JUMP JUMPDEST PUSH1 0x40 MLOAD DUP1 SWAP2 SUB SWAP1 REVERT JUMPDEST DUP1 PUSH1 0x5 PUSH1 0x0 DUP6 PUSH20 0xFFFFFFFFFFFFFFFFFFFFFFFFFFFFFFFFFFFFFFFF AND PUSH20 0xFFFFFFFFFFFFFFFFFFFFFFFFFFFFFFFFFFFFFFFF AND DUP2 MSTORE PUSH1 0x20 ADD SWAP1 DUP2 MSTORE PUSH1 0x20 ADD PUSH1 0x0 KECCAK256 PUSH1 0x0 DUP5 PUSH20 0xFFFFFFFFFFFFFFFFFFFFFFFFFFFFFFFFFFFFFFFF AND PUSH20 0xFFFFFFFFFFFFFFFFFFFFFFFFFFFFFFFFFFFFFFFF AND DUP2 MSTORE PUSH1 0x20 ADD SWAP1 DUP2 MSTORE PUSH1 0x20 ADD PUSH1 0x0 KECCAK256 PUSH1 0x0 PUSH2 0x100 EXP DUP2 SLOAD DUP2 PUSH1 0xFF MUL NOT AND SWAP1 DUP4 ISZERO ISZERO MUL OR SWAP1 SSTORE POP DUP2 PUSH20 0xFFFFFFFFFFFFFFFFFFFFFFFFFFFFFFFFFFFFFFFF AND DUP4 PUSH20 0xFFFFFFFFFFFFFFFFFFFFFFFFFFFFFFFFFFFFFFFF AND PUSH32 0x17307EAB39AB6107E8899845AD3D59BD9653F200F220920489CA2B5937696C31 DUP4 PUSH1 0x40 MLOAD PUSH2 0x266D SWAP2 SWAP1 PUSH2 0x3B85 JUMP JUMPDEST PUSH1 0x40 MLOAD DUP1 SWAP2 SUB SWAP1 LOG3 POP POP POP JUMP JUMPDEST PUSH2 0x2685 DUP5 DUP5 DUP5 PUSH2 0x226A JUMP JUMPDEST PUSH2 0x2691 DUP5 DUP5 DUP5 DUP5 PUSH2 0x29A0 JUMP JUMPDEST PUSH2 0x26D0 JUMPI PUSH1 0x40 MLOAD PUSH32 0x8C379A000000000000000000000000000000000000000000000000000000000 DUP2 MSTORE PUSH1 0x4 ADD PUSH2 0x26C7 SWAP1 PUSH2 0x3C9F JUMP JUMPDEST PUSH1 0x40 MLOAD DUP1 SWAP2 SUB SWAP1 REVERT JUMPDEST POP POP POP POP JUMP JUMPDEST PUSH1 0x60 PUSH1 0x40 MLOAD DUP1 PUSH1 0x20 ADD PUSH1 0x40 MSTORE DUP1 PUSH1 0x0 DUP2 MSTORE POP SWAP1 POP SWAP1 JUMP JUMPDEST PUSH1 0x60 PUSH1 0x0 DUP3 EQ ISZERO PUSH2 0x2735 JUMPI PUSH1 0x40 MLOAD DUP1 PUSH1 0x40 ADD PUSH1 0x40 MSTORE DUP1 PUSH1 0x1 DUP2 MSTORE PUSH1 0x20 ADD PUSH32 0x3000000000000000000000000000000000000000000000000000000000000000 DUP2 MSTORE POP SWAP1 POP PUSH2 0x2849 JUMP JUMPDEST PUSH1 0x0 DUP3 SWAP1 POP PUSH1 0x0 JUMPDEST PUSH1 0x0 DUP3 EQ PUSH2 0x2767 JUMPI DUP1 DUP1 PUSH2 0x2750 SWAP1 PUSH2 0x4388 JUMP JUMPDEST SWAP2 POP POP PUSH1 0xA DUP3 PUSH2 0x2760 SWAP2 SWAP1 PUSH2 0x4182 JUMP JUMPDEST SWAP2 POP PUSH2 0x273D JUMP JUMPDEST PUSH1 0x0 DUP2 PUSH8 0xFFFFFFFFFFFFFFFF DUP2 GT ISZERO PUSH2 0x2783 JUMPI PUSH2 0x2782 PUSH2 0x44ED JUMP JUMPDEST JUMPDEST PUSH1 0x40 MLOAD SWAP1 DUP1 DUP3 MSTORE DUP1 PUSH1 0x1F ADD PUSH1 0x1F NOT AND PUSH1 0x20 ADD DUP3 ADD PUSH1 0x40 MSTORE DUP1 ISZERO PUSH2 0x27B5 JUMPI DUP2 PUSH1 0x20 ADD PUSH1 0x1 DUP3 MUL DUP1 CALLDATASIZE DUP4 CALLDATACOPY DUP1 DUP3 ADD SWAP2 POP POP SWAP1 POP JUMPDEST POP SWAP1 POP JUMPDEST PUSH1 0x0 DUP6 EQ PUSH2 0x2842 JUMPI PUSH1 0x1 DUP3 PUSH2 0x27CE SWAP2 SWAP1 PUSH2 0x41B3 JUMP JUMPDEST SWAP2 POP PUSH1 0xA DUP6 PUSH2 0x27DD SWAP2 SWAP1 PUSH2 0x43D1 JUMP JUMPDEST PUSH1 0x30 PUSH2 0x27E9 SWAP2 SWAP1 PUSH2 0x412C JUMP JUMPDEST PUSH1 0xF8 SHL DUP2 DUP4 DUP2 MLOAD DUP2 LT PUSH2 0x27FF JUMPI PUSH2 0x27FE PUSH2 0x44BE JUMP JUMPDEST JUMPDEST PUSH1 0x20 ADD ADD SWAP1 PUSH31 0xFFFFFFFFFFFFFFFFFFFFFFFFFFFFFFFFFFFFFFFFFFFFFFFFFFFFFFFFFFFFFF NOT AND SWAP1 DUP2 PUSH1 0x0 BYTE SWAP1 MSTORE8 POP PUSH1 0xA DUP6 PUSH2 0x283B SWAP2 SWAP1 PUSH2 0x4182 JUMP JUMPDEST SWAP5 POP PUSH2 0x27B9 JUMP JUMPDEST DUP1 SWAP4 POP POP POP POP JUMPDEST SWAP2 SWAP1 POP JUMP JUMPDEST PUSH1 0x0 PUSH32 0x80AC58CD00000000000000000000000000000000000000000000000000000000 PUSH28 0xFFFFFFFFFFFFFFFFFFFFFFFFFFFFFFFFFFFFFFFFFFFFFFFFFFFFFFFF NOT AND DUP3 PUSH28 0xFFFFFFFFFFFFFFFFFFFFFFFFFFFFFFFFFFFFFFFFFFFFFFFFFFFFFFFF NOT AND EQ DUP1 PUSH2 0x2919 JUMPI POP PUSH32 0x5B5E139F00000000000000000000000000000000000000000000000000000000 PUSH28 0xFFFFFFFFFFFFFFFFFFFFFFFFFFFFFFFFFFFFFFFFFFFFFFFFFFFFFFFF NOT AND DUP3 PUSH28 0xFFFFFFFFFFFFFFFFFFFFFFFFFFFFFFFFFFFFFFFFFFFFFFFFFFFFFFFF NOT AND EQ JUMPDEST DUP1 PUSH2 0x2929 JUMPI POP PUSH2 0x2928 DUP3 PUSH2 0x2B37 JUMP JUMPDEST JUMPDEST SWAP1 POP SWAP2 SWAP1 POP JUMP JUMPDEST PUSH2 0x293B DUP4 DUP4 DUP4 PUSH2 0x2BA1 JUMP JUMPDEST POP POP POP JUMP JUMPDEST POP POP POP JUMP JUMPDEST PUSH2 0x294F DUP4 DUP4 PUSH2 0x2CB5 JUMP JUMPDEST PUSH2 0x295C PUSH1 0x0 DUP5 DUP5 DUP5 PUSH2 0x29A0 JUMP JUMPDEST PUSH2 0x299B JUMPI PUSH1 0x40 MLOAD PUSH32 0x8C379A000000000000000000000000000000000000000000000000000000000 DUP2 MSTORE PUSH1 0x4 ADD PUSH2 0x2992 SWAP1 PUSH2 0x3C9F JUMP JUMPDEST PUSH1 0x40 MLOAD DUP1 SWAP2 SUB SWAP1 REVERT JUMPDEST POP POP POP JUMP JUMPDEST PUSH1 0x0 PUSH2 0x29C1 DUP5 PUSH20 0xFFFFFFFFFFFFFFFFFFFFFFFFFFFFFFFFFFFFFFFF AND PUSH2 0x2E8F JUMP JUMPDEST ISZERO PUSH2 0x2B2A JUMPI DUP4 PUSH20 0xFFFFFFFFFFFFFFFFFFFFFFFFFFFFFFFFFFFFFFFF AND PUSH4 0x150B7A02 PUSH2 0x29EA PUSH2 0x20CB JUMP JUMPDEST DUP8 DUP7 DUP7 PUSH1 0x40 MLOAD DUP6 PUSH4 0xFFFFFFFF AND PUSH1 0xE0 SHL DUP2 MSTORE PUSH1 0x4 ADD PUSH2 0x2A0C SWAP5 SWAP4 SWAP3 SWAP2 SWAP1 PUSH2 0x3B39 JUMP JUMPDEST PUSH1 0x20 PUSH1 0x40 MLOAD DUP1 DUP4 SUB DUP2 PUSH1 0x0 DUP8 DUP1 EXTCODESIZE ISZERO DUP1 ISZERO PUSH2 0x2A26 JUMPI PUSH1 0x0 DUP1 REVERT JUMPDEST POP GAS CALL SWAP3 POP POP POP DUP1 ISZERO PUSH2 0x2A57 JUMPI POP PUSH1 0x40 MLOAD RETURNDATASIZE PUSH1 0x1F NOT PUSH1 0x1F DUP3 ADD AND DUP3 ADD DUP1 PUSH1 0x40 MSTORE POP DUP2 ADD SWAP1 PUSH2 0x2A54 SWAP2 SWAP1 PUSH2 0x3529 JUMP JUMPDEST PUSH1 0x1 JUMPDEST PUSH2 0x2ADA JUMPI RETURNDATASIZE DUP1 PUSH1 0x0 DUP2 EQ PUSH2 0x2A87 JUMPI PUSH1 0x40 MLOAD SWAP2 POP PUSH1 0x1F NOT PUSH1 0x3F RETURNDATASIZE ADD AND DUP3 ADD PUSH1 0x40 MSTORE RETURNDATASIZE DUP3 MSTORE RETURNDATASIZE PUSH1 0x0 PUSH1 0x20 DUP5 ADD RETURNDATACOPY PUSH2 0x2A8C JUMP JUMPDEST PUSH1 0x60 SWAP2 POP JUMPDEST POP PUSH1 0x0 DUP2 MLOAD EQ ISZERO PUSH2 0x2AD2 JUMPI PUSH1 0x40 MLOAD PUSH32 0x8C379A000000000000000000000000000000000000000000000000000000000 DUP2 MSTORE PUSH1 0x4 ADD PUSH2 0x2AC9 SWAP1 PUSH2 0x3C9F JUMP JUMPDEST PUSH1 0x40 MLOAD DUP1 SWAP2 SUB SWAP1 REVERT JUMPDEST DUP1 MLOAD DUP2 PUSH1 0x20 ADD REVERT JUMPDEST PUSH4 0x150B7A02 PUSH1 0xE0 SHL PUSH28 0xFFFFFFFFFFFFFFFFFFFFFFFFFFFFFFFFFFFFFFFFFFFFFFFFFFFFFFFF NOT AND DUP2 PUSH28 0xFFFFFFFFFFFFFFFFFFFFFFFFFFFFFFFFFFFFFFFFFFFFFFFFFFFFFFFF NOT AND EQ SWAP2 POP POP PUSH2 0x2B2F JUMP JUMPDEST PUSH1 0x1 SWAP1 POP JUMPDEST SWAP5 SWAP4 POP POP POP POP JUMP JUMPDEST PUSH1 0x0 PUSH32 0x1FFC9A700000000000000000000000000000000000000000000000000000000 PUSH28 0xFFFFFFFFFFFFFFFFFFFFFFFFFFFFFFFFFFFFFFFFFFFFFFFFFFFFFFFF NOT AND DUP3 PUSH28 0xFFFFFFFFFFFFFFFFFFFFFFFFFFFFFFFFFFFFFFFFFFFFFFFFFFFFFFFF NOT AND EQ SWAP1 POP SWAP2 SWAP1 POP JUMP JUMPDEST PUSH2 0x2BAC DUP4 DUP4 DUP4 PUSH2 0x2EB2 JUMP JUMPDEST PUSH1 0x0 PUSH20 0xFFFFFFFFFFFFFFFFFFFFFFFFFFFFFFFFFFFFFFFF AND DUP4 PUSH20 0xFFFFFFFFFFFFFFFFFFFFFFFFFFFFFFFFFFFFFFFF AND EQ ISZERO PUSH2 0x2BEF JUMPI PUSH2 0x2BEA DUP2 PUSH2 0x2EB7 JUMP JUMPDEST PUSH2 0x2C2E JUMP JUMPDEST DUP2 PUSH20 0xFFFFFFFFFFFFFFFFFFFFFFFFFFFFFFFFFFFFFFFF AND DUP4 PUSH20 0xFFFFFFFFFFFFFFFFFFFFFFFFFFFFFFFFFFFFFFFF AND EQ PUSH2 0x2C2D JUMPI PUSH2 0x2C2C DUP4 DUP3 PUSH2 0x2F00 JUMP JUMPDEST JUMPDEST JUMPDEST PUSH1 0x0 PUSH20 0xFFFFFFFFFFFFFFFFFFFFFFFFFFFFFFFFFFFFFFFF AND DUP3 PUSH20 0xFFFFFFFFFFFFFFFFFFFFFFFFFFFFFFFFFFFFFFFF AND EQ ISZERO PUSH2 0x2C71 JUMPI PUSH2 0x2C6C DUP2 PUSH2 0x306D JUMP JUMPDEST PUSH2 0x2CB0 JUMP JUMPDEST DUP3 PUSH20 0xFFFFFFFFFFFFFFFFFFFFFFFFFFFFFFFFFFFFFFFF AND DUP3 PUSH20 0xFFFFFFFFFFFFFFFFFFFFFFFFFFFFFFFFFFFFFFFF AND EQ PUSH2 0x2CAF JUMPI PUSH2 0x2CAE DUP3 DUP3 PUSH2 0x313E JUMP JUMPDEST JUMPDEST JUMPDEST POP POP POP JUMP JUMPDEST PUSH1 0x0 PUSH20 0xFFFFFFFFFFFFFFFFFFFFFFFFFFFFFFFFFFFFFFFF AND DUP3 PUSH20 0xFFFFFFFFFFFFFFFFFFFFFFFFFFFFFFFFFFFFFFFF AND EQ ISZERO PUSH2 0x2D25 JUMPI PUSH1 0x40 MLOAD PUSH32 0x8C379A000000000000000000000000000000000000000000000000000000000 DUP2 MSTORE PUSH1 0x4 ADD PUSH2 0x2D1C SWAP1 PUSH2 0x3DBF JUMP JUMPDEST PUSH1 0x40 MLOAD DUP1 SWAP2 SUB SWAP1 REVERT JUMPDEST PUSH2 0x2D2E DUP2 PUSH2 0x205F JUMP JUMPDEST ISZERO PUSH2 0x2D6E JUMPI PUSH1 0x40 MLOAD PUSH32 0x8C379A000000000000000000000000000000000000000000000000000000000 DUP2 MSTORE PUSH1 0x4 ADD PUSH2 0x2D65 SWAP1 PUSH2 0x3CDF JUMP JUMPDEST PUSH1 0x40 MLOAD DUP1 SWAP2 SUB SWAP1 REVERT JUMPDEST PUSH2 0x2D7A PUSH1 0x0 DUP4 DUP4 PUSH2 0x2930 JUMP JUMPDEST PUSH1 0x1 PUSH1 0x3 PUSH1 0x0 DUP5 PUSH20 0xFFFFFFFFFFFFFFFFFFFFFFFFFFFFFFFFFFFFFFFF AND PUSH20 0xFFFFFFFFFFFFFFFFFFFFFFFFFFFFFFFFFFFFFFFF AND DUP2 MSTORE PUSH1 0x20 ADD SWAP1 DUP2 MSTORE PUSH1 0x20 ADD PUSH1 0x0 KECCAK256 PUSH1 0x0 DUP3 DUP3 SLOAD PUSH2 0x2DCA SWAP2 SWAP1 PUSH2 0x412C JUMP JUMPDEST SWAP3 POP POP DUP2 SWAP1 SSTORE POP DUP2 PUSH1 0x2 PUSH1 0x0 DUP4 DUP2 MSTORE PUSH1 0x20 ADD SWAP1 DUP2 MSTORE PUSH1 0x20 ADD PUSH1 0x0 KECCAK256 PUSH1 0x0 PUSH2 0x100 EXP DUP2 SLOAD DUP2 PUSH20 0xFFFFFFFFFFFFFFFFFFFFFFFFFFFFFFFFFFFFFFFF MUL NOT AND SWAP1 DUP4 PUSH20 0xFFFFFFFFFFFFFFFFFFFFFFFFFFFFFFFFFFFFFFFF AND MUL OR SWAP1 SSTORE POP DUP1 DUP3 PUSH20 0xFFFFFFFFFFFFFFFFFFFFFFFFFFFFFFFFFFFFFFFF AND PUSH1 0x0 PUSH20 0xFFFFFFFFFFFFFFFFFFFFFFFFFFFFFFFFFFFFFFFF AND PUSH32 0xDDF252AD1BE2C89B69C2B068FC378DAA952BA7F163C4A11628F55A4DF523B3EF PUSH1 0x40 MLOAD PUSH1 0x40 MLOAD DUP1 SWAP2 SUB SWAP1 LOG4 PUSH2 0x2E8B PUSH1 0x0 DUP4 DUP4 PUSH2 0x2940 JUMP JUMPDEST POP POP JUMP JUMPDEST PUSH1 0x0 DUP1 DUP3 PUSH20 0xFFFFFFFFFFFFFFFFFFFFFFFFFFFFFFFFFFFFFFFF AND EXTCODESIZE GT SWAP1 POP SWAP2 SWAP1 POP JUMP JUMPDEST POP POP POP JUMP JUMPDEST PUSH1 0x8 DUP1 SLOAD SWAP1 POP PUSH1 0x9 PUSH1 0x0 DUP4 DUP2 MSTORE PUSH1 0x20 ADD SWAP1 DUP2 MSTORE PUSH1 0x20 ADD PUSH1 0x0 KECCAK256 DUP2 SWAP1 SSTORE POP PUSH1 0x8 DUP2 SWAP1 DUP1 PUSH1 0x1 DUP2 SLOAD ADD DUP1 DUP3 SSTORE DUP1 SWAP2 POP POP PUSH1 0x1 SWAP1 SUB SWAP1 PUSH1 0x0 MSTORE PUSH1 0x20 PUSH1 0x0 KECCAK256 ADD PUSH1 0x0 SWAP1 SWAP2 SWAP1 SWAP2 SWAP1 SWAP2 POP SSTORE POP JUMP JUMPDEST PUSH1 0x0 PUSH1 0x1 PUSH2 0x2F0D DUP5 PUSH2 0xD2A JUMP JUMPDEST PUSH2 0x2F17 SWAP2 SWAP1 PUSH2 0x41B3 JUMP JUMPDEST SWAP1 POP PUSH1 0x0 PUSH1 0x7 PUSH1 0x0 DUP5 DUP2 MSTORE PUSH1 0x20 ADD SWAP1 DUP2 MSTORE PUSH1 0x20 ADD PUSH1 0x0 KECCAK256 SLOAD SWAP1 POP DUP2 DUP2 EQ PUSH2 0x2FFC JUMPI PUSH1 0x0 PUSH1 0x6 PUSH1 0x0 DUP7 PUSH20 0xFFFFFFFFFFFFFFFFFFFFFFFFFFFFFFFFFFFFFFFF AND PUSH20 0xFFFFFFFFFFFFFFFFFFFFFFFFFFFFFFFFFFFFFFFF AND DUP2 MSTORE PUSH1 0x20 ADD SWAP1 DUP2 MSTORE PUSH1 0x20 ADD PUSH1 0x0 KECCAK256 PUSH1 0x0 DUP5 DUP2 MSTORE PUSH1 0x20 ADD SWAP1 DUP2 MSTORE PUSH1 0x20 ADD PUSH1 0x0 KECCAK256 SLOAD SWAP1 POP DUP1 PUSH1 0x6 PUSH1 0x0 DUP8 PUSH20 0xFFFFFFFFFFFFFFFFFFFFFFFFFFFFFFFFFFFFFFFF AND PUSH20 0xFFFFFFFFFFFFFFFFFFFFFFFFFFFFFFFFFFFFFFFF AND DUP2 MSTORE PUSH1 0x20 ADD SWAP1 DUP2 MSTORE PUSH1 0x20 ADD PUSH1 0x0 KECCAK256 PUSH1 0x0 DUP5 DUP2 MSTORE PUSH1 0x20 ADD SWAP1 DUP2 MSTORE PUSH1 0x20 ADD PUSH1 0x0 KECCAK256 DUP2 SWAP1 SSTORE POP DUP2 PUSH1 0x7 PUSH1 0x0 DUP4 DUP2 MSTORE PUSH1 0x20 ADD SWAP1 DUP2 MSTORE PUSH1 0x20 ADD PUSH1 0x0 KECCAK256 DUP2 SWAP1 SSTORE POP POP JUMPDEST PUSH1 0x7 PUSH1 0x0 DUP5 DUP2 MSTORE PUSH1 0x20 ADD SWAP1 DUP2 MSTORE PUSH1 0x20 ADD PUSH1 0x0 KECCAK256 PUSH1 0x0 SWAP1 SSTORE PUSH1 0x6 PUSH1 0x0 DUP6 PUSH20 0xFFFFFFFFFFFFFFFFFFFFFFFFFFFFFFFFFFFFFFFF AND PUSH20 0xFFFFFFFFFFFFFFFFFFFFFFFFFFFFFFFFFFFFFFFF AND DUP2 MSTORE PUSH1 0x20 ADD SWAP1 DUP2 MSTORE PUSH1 0x20 ADD PUSH1 0x0 KECCAK256 PUSH1 0x0 DUP4 DUP2 MSTORE PUSH1 0x20 ADD SWAP1 DUP2 MSTORE PUSH1 0x20 ADD PUSH1 0x0 KECCAK256 PUSH1 0x0 SWAP1 SSTORE POP POP POP POP JUMP JUMPDEST PUSH1 0x0 PUSH1 0x1 PUSH1 0x8 DUP1 SLOAD SWAP1 POP PUSH2 0x3081 SWAP2 SWAP1 PUSH2 0x41B3 JUMP JUMPDEST SWAP1 POP PUSH1 0x0 PUSH1 0x9 PUSH1 0x0 DUP5 DUP2 MSTORE PUSH1 0x20 ADD SWAP1 DUP2 MSTORE PUSH1 0x20 ADD PUSH1 0x0 KECCAK256 SLOAD SWAP1 POP PUSH1 0x0 PUSH1 0x8 DUP4 DUP2 SLOAD DUP2 LT PUSH2 0x30B1 JUMPI PUSH2 0x30B0 PUSH2 0x44BE JUMP JUMPDEST JUMPDEST SWAP1 PUSH1 0x0 MSTORE PUSH1 0x20 PUSH1 0x0 KECCAK256 ADD SLOAD SWAP1 POP DUP1 PUSH1 0x8 DUP4 DUP2 SLOAD DUP2 LT PUSH2 0x30D3 JUMPI PUSH2 0x30D2 PUSH2 0x44BE JUMP JUMPDEST JUMPDEST SWAP1 PUSH1 0x0 MSTORE PUSH1 0x20 PUSH1 0x0 KECCAK256 ADD DUP2 SWAP1 SSTORE POP DUP2 PUSH1 0x9 PUSH1 0x0 DUP4 DUP2 MSTORE PUSH1 0x20 ADD SWAP1 DUP2 MSTORE PUSH1 0x20 ADD PUSH1 0x0 KECCAK256 DUP2 SWAP1 SSTORE POP PUSH1 0x9 PUSH1 0x0 DUP6 DUP2 MSTORE PUSH1 0x20 ADD SWAP1 DUP2 MSTORE PUSH1 0x20 ADD PUSH1 0x0 KECCAK256 PUSH1 0x0 SWAP1 SSTORE PUSH1 0x8 DUP1 SLOAD DUP1 PUSH2 0x3122 JUMPI PUSH2 0x3121 PUSH2 0x448F JUMP JUMPDEST JUMPDEST PUSH1 0x1 SWAP1 SUB DUP2 DUP2 SWAP1 PUSH1 0x0 MSTORE PUSH1 0x20 PUSH1 0x0 KECCAK256 ADD PUSH1 0x0 SWAP1 SSTORE SWAP1 SSTORE POP POP POP POP JUMP JUMPDEST PUSH1 0x0 PUSH2 0x3149 DUP4 PUSH2 0xD2A JUMP JUMPDEST SWAP1 POP DUP2 PUSH1 0x6 PUSH1 0x0 DUP6 PUSH20 0xFFFFFFFFFFFFFFFFFFFFFFFFFFFFFFFFFFFFFFFF AND PUSH20 0xFFFFFFFFFFFFFFFFFFFFFFFFFFFFFFFFFFFFFFFF AND DUP2 MSTORE PUSH1 0x20 ADD SWAP1 DUP2 MSTORE PUSH1 0x20 ADD PUSH1 0x0 KECCAK256 PUSH1 0x0 DUP4 DUP2 MSTORE PUSH1 0x20 ADD SWAP1 DUP2 MSTORE PUSH1 0x20 ADD PUSH1 0x0 KECCAK256 DUP2 SWAP1 SSTORE POP DUP1 PUSH1 0x7 PUSH1 0x0 DUP5 DUP2 MSTORE PUSH1 0x20 ADD SWAP1 DUP2 MSTORE PUSH1 0x20 ADD PUSH1 0x0 KECCAK256 DUP2 SWAP1 SSTORE POP POP POP POP JUMP JUMPDEST PUSH1 0x40 MLOAD DUP1 PUSH2 0x180 ADD PUSH1 0x40 MSTORE DUP1 PUSH1 0x0 DUP2 MSTORE PUSH1 0x20 ADD PUSH1 0x0 DUP2 MSTORE PUSH1 0x20 ADD PUSH1 0x0 DUP2 MSTORE PUSH1 0x20 ADD PUSH1 0x0 DUP2 MSTORE PUSH1 0x20 ADD PUSH1 0x0 DUP2 MSTORE PUSH1 0x20 ADD PUSH1 0x0 DUP2 MSTORE PUSH1 0x20 ADD PUSH1 0x0 DUP2 MSTORE PUSH1 0x20 ADD PUSH1 0x0 DUP2 MSTORE PUSH1 0x20 ADD PUSH1 0x0 DUP2 MSTORE PUSH1 0x20 ADD PUSH1 0x0 DUP2 MSTORE PUSH1 0x20 ADD PUSH1 0x0 DUP2 MSTORE PUSH1 0x20 ADD PUSH1 0x0 DUP2 MSTORE POP SWAP1 JUMP JUMPDEST PUSH1 0x0 PUSH2 0x3231 PUSH2 0x322C DUP5 PUSH2 0x407F JUMP JUMPDEST PUSH2 0x405A JUMP JUMPDEST SWAP1 POP DUP3 DUP2 MSTORE PUSH1 0x20 DUP2 ADD DUP5 DUP5 DUP5 ADD GT ISZERO PUSH2 0x324D JUMPI PUSH2 0x324C PUSH2 0x4521 JUMP JUMPDEST JUMPDEST PUSH2 0x3258 DUP5 DUP3 DUP6 PUSH2 0x42E3 JUMP JUMPDEST POP SWAP4 SWAP3 POP POP POP JUMP JUMPDEST PUSH1 0x0 DUP2 CALLDATALOAD SWAP1 POP PUSH2 0x326F DUP2 PUSH2 0x49BF JUMP JUMPDEST SWAP3 SWAP2 POP POP JUMP JUMPDEST PUSH1 0x0 DUP2 CALLDATALOAD SWAP1 POP PUSH2 0x3284 DUP2 PUSH2 0x49D6 JUMP JUMPDEST SWAP3 SWAP2 POP POP JUMP JUMPDEST PUSH1 0x0 DUP2 MLOAD SWAP1 POP PUSH2 0x3299 DUP2 PUSH2 0x49ED JUMP JUMPDEST SWAP3 SWAP2 POP POP JUMP JUMPDEST PUSH1 0x0 DUP2 CALLDATALOAD SWAP1 POP PUSH2 0x32AE DUP2 PUSH2 0x4A04 JUMP JUMPDEST SWAP3 SWAP2 POP POP JUMP JUMPDEST PUSH1 0x0 DUP2 MLOAD SWAP1 POP PUSH2 0x32C3 DUP2 PUSH2 0x4A04 JUMP JUMPDEST SWAP3 SWAP2 POP POP JUMP JUMPDEST PUSH1 0x0 DUP3 PUSH1 0x1F DUP4 ADD SLT PUSH2 0x32DE JUMPI PUSH2 0x32DD PUSH2 0x451C JUMP JUMPDEST JUMPDEST DUP2 CALLDATALOAD PUSH2 0x32EE DUP5 DUP3 PUSH1 0x20 DUP7 ADD PUSH2 0x321E JUMP JUMPDEST SWAP2 POP POP SWAP3 SWAP2 POP POP JUMP JUMPDEST PUSH1 0x0 DUP2 CALLDATALOAD SWAP1 POP PUSH2 0x3306 DUP2 PUSH2 0x4A1B JUMP JUMPDEST SWAP3 SWAP2 POP POP JUMP JUMPDEST PUSH1 0x0 PUSH1 0x20 DUP3 DUP5 SUB SLT ISZERO PUSH2 0x3322 JUMPI PUSH2 0x3321 PUSH2 0x452B JUMP JUMPDEST JUMPDEST PUSH1 0x0 PUSH2 0x3330 DUP5 DUP3 DUP6 ADD PUSH2 0x3260 JUMP JUMPDEST SWAP2 POP POP SWAP3 SWAP2 POP POP JUMP JUMPDEST PUSH1 0x0 DUP1 PUSH1 0x40 DUP4 DUP6 SUB SLT ISZERO PUSH2 0x3350 JUMPI PUSH2 0x334F PUSH2 0x452B JUMP JUMPDEST JUMPDEST PUSH1 0x0 PUSH2 0x335E DUP6 DUP3 DUP7 ADD PUSH2 0x3260 JUMP JUMPDEST SWAP3 POP POP PUSH1 0x20 PUSH2 0x336F DUP6 DUP3 DUP7 ADD PUSH2 0x3260 JUMP JUMPDEST SWAP2 POP POP SWAP3 POP SWAP3 SWAP1 POP JUMP JUMPDEST PUSH1 0x0 DUP1 PUSH1 0x0 PUSH1 0x60 DUP5 DUP7 SUB SLT ISZERO PUSH2 0x3392 JUMPI PUSH2 0x3391 PUSH2 0x452B JUMP JUMPDEST JUMPDEST PUSH1 0x0 PUSH2 0x33A0 DUP7 DUP3 DUP8 ADD PUSH2 0x3260 JUMP JUMPDEST SWAP4 POP POP PUSH1 0x20 PUSH2 0x33B1 DUP7 DUP3 DUP8 ADD PUSH2 0x3260 JUMP JUMPDEST SWAP3 POP POP PUSH1 0x40 PUSH2 0x33C2 DUP7 DUP3 DUP8 ADD PUSH2 0x32F7 JUMP JUMPDEST SWAP2 POP POP SWAP3 POP SWAP3 POP SWAP3 JUMP JUMPDEST PUSH1 0x0 DUP1 PUSH1 0x0 DUP1 PUSH1 0x80 DUP6 DUP8 SUB SLT ISZERO PUSH2 0x33E6 JUMPI PUSH2 0x33E5 PUSH2 0x452B JUMP JUMPDEST JUMPDEST PUSH1 0x0 PUSH2 0x33F4 DUP8 DUP3 DUP9 ADD PUSH2 0x3260 JUMP JUMPDEST SWAP5 POP POP PUSH1 0x20 PUSH2 0x3405 DUP8 DUP3 DUP9 ADD PUSH2 0x3260 JUMP JUMPDEST SWAP4 POP POP PUSH1 0x40 PUSH2 0x3416 DUP8 DUP3 DUP9 ADD PUSH2 0x32F7 JUMP JUMPDEST SWAP3 POP POP PUSH1 0x60 DUP6 ADD CALLDATALOAD PUSH8 0xFFFFFFFFFFFFFFFF DUP2 GT ISZERO PUSH2 0x3437 JUMPI PUSH2 0x3436 PUSH2 0x4526 JUMP JUMPDEST JUMPDEST PUSH2 0x3443 DUP8 DUP3 DUP9 ADD PUSH2 0x32C9 JUMP JUMPDEST SWAP2 POP POP SWAP3 SWAP6 SWAP2 SWAP5 POP SWAP3 POP JUMP JUMPDEST PUSH1 0x0 DUP1 PUSH1 0x40 DUP4 DUP6 SUB SLT ISZERO PUSH2 0x3466 JUMPI PUSH2 0x3465 PUSH2 0x452B JUMP JUMPDEST JUMPDEST PUSH1 0x0 PUSH2 0x3474 DUP6 DUP3 DUP7 ADD PUSH2 0x3260 JUMP JUMPDEST SWAP3 POP POP PUSH1 0x20 PUSH2 0x3485 DUP6 DUP3 DUP7 ADD PUSH2 0x3275 JUMP JUMPDEST SWAP2 POP POP SWAP3 POP SWAP3 SWAP1 POP JUMP JUMPDEST PUSH1 0x0 DUP1 PUSH1 0x40 DUP4 DUP6 SUB SLT ISZERO PUSH2 0x34A6 JUMPI PUSH2 0x34A5 PUSH2 0x452B JUMP JUMPDEST JUMPDEST PUSH1 0x0 PUSH2 0x34B4 DUP6 DUP3 DUP7 ADD PUSH2 0x3260 JUMP JUMPDEST SWAP3 POP POP PUSH1 0x20 PUSH2 0x34C5 DUP6 DUP3 DUP7 ADD PUSH2 0x32F7 JUMP JUMPDEST SWAP2 POP POP SWAP3 POP SWAP3 SWAP1 POP JUMP JUMPDEST PUSH1 0x0 PUSH1 0x20 DUP3 DUP5 SUB SLT ISZERO PUSH2 0x34E5 JUMPI PUSH2 0x34E4 PUSH2 0x452B JUMP JUMPDEST JUMPDEST PUSH1 0x0 PUSH2 0x34F3 DUP5 DUP3 DUP6 ADD PUSH2 0x328A JUMP JUMPDEST SWAP2 POP POP SWAP3 SWAP2 POP POP JUMP JUMPDEST PUSH1 0x0 PUSH1 0x20 DUP3 DUP5 SUB SLT ISZERO PUSH2 0x3512 JUMPI PUSH2 0x3511 PUSH2 0x452B JUMP JUMPDEST JUMPDEST PUSH1 0x0 PUSH2 0x3520 DUP5 DUP3 DUP6 ADD PUSH2 0x329F JUMP JUMPDEST SWAP2 POP POP SWAP3 SWAP2 POP POP JUMP JUMPDEST PUSH1 0x0 PUSH1 0x20 DUP3 DUP5 SUB SLT ISZERO PUSH2 0x353F JUMPI PUSH2 0x353E PUSH2 0x452B JUMP JUMPDEST JUMPDEST PUSH1 0x0 PUSH2 0x354D DUP5 DUP3 DUP6 ADD PUSH2 0x32B4 JUMP JUMPDEST SWAP2 POP POP SWAP3 SWAP2 POP POP JUMP JUMPDEST PUSH1 0x0 PUSH1 0x20 DUP3 DUP5 SUB SLT ISZERO PUSH2 0x356C JUMPI PUSH2 0x356B PUSH2 0x452B JUMP JUMPDEST JUMPDEST PUSH1 0x0 PUSH2 0x357A DUP5 DUP3 DUP6 ADD PUSH2 0x32F7 JUMP JUMPDEST SWAP2 POP POP SWAP3 SWAP2 POP POP JUMP JUMPDEST PUSH1 0x0 DUP1 PUSH1 0x40 DUP4 DUP6 SUB SLT ISZERO PUSH2 0x359A JUMPI PUSH2 0x3599 PUSH2 0x452B JUMP JUMPDEST JUMPDEST PUSH1 0x0 PUSH2 0x35A8 DUP6 DUP3 DUP7 ADD PUSH2 0x32F7 JUMP JUMPDEST SWAP3 POP POP PUSH1 0x20 PUSH2 0x35B9 DUP6 DUP3 DUP7 ADD PUSH2 0x32F7 JUMP JUMPDEST SWAP2 POP POP SWAP3 POP SWAP3 SWAP1 POP JUMP JUMPDEST PUSH1 0x0 DUP1 PUSH1 0x0 PUSH1 0x60 DUP5 DUP7 SUB SLT ISZERO PUSH2 0x35DC JUMPI PUSH2 0x35DB PUSH2 0x452B JUMP JUMPDEST JUMPDEST PUSH1 0x0 PUSH2 0x35EA DUP7 DUP3 DUP8 ADD PUSH2 0x32F7 JUMP JUMPDEST SWAP4 POP POP PUSH1 0x20 PUSH2 0x35FB DUP7 DUP3 DUP8 ADD PUSH2 0x32F7 JUMP JUMPDEST SWAP3 POP POP PUSH1 0x40 PUSH2 0x360C DUP7 DUP3 DUP8 ADD PUSH2 0x32F7 JUMP JUMPDEST SWAP2 POP POP SWAP3 POP SWAP3 POP SWAP3 JUMP JUMPDEST PUSH1 0x0 PUSH2 0x3622 DUP4 DUP4 PUSH2 0x3ADC JUMP JUMPDEST PUSH1 0x20 DUP4 ADD SWAP1 POP SWAP3 SWAP2 POP POP JUMP JUMPDEST PUSH2 0x3637 DUP2 PUSH2 0x41E7 JUMP JUMPDEST DUP3 MSTORE POP POP JUMP JUMPDEST PUSH1 0x0 PUSH2 0x3648 DUP3 PUSH2 0x40C0 JUMP JUMPDEST PUSH2 0x3652 DUP2 DUP6 PUSH2 0x40EE JUMP JUMPDEST SWAP4 POP PUSH2 0x365D DUP4 PUSH2 0x40B0 JUMP JUMPDEST DUP1 PUSH1 0x0 JUMPDEST DUP4 DUP2 LT ISZERO PUSH2 0x368E JUMPI DUP2 MLOAD PUSH2 0x3675 DUP9 DUP3 PUSH2 0x3616 JUMP JUMPDEST SWAP8 POP PUSH2 0x3680 DUP4 PUSH2 0x40E1 JUMP JUMPDEST SWAP3 POP POP PUSH1 0x1 DUP2 ADD SWAP1 POP PUSH2 0x3661 JUMP JUMPDEST POP DUP6 SWAP4 POP POP POP POP SWAP3 SWAP2 POP POP JUMP JUMPDEST PUSH2 0x36A4 DUP2 PUSH2 0x41F9 JUMP JUMPDEST DUP3 MSTORE POP POP JUMP JUMPDEST PUSH1 0x0 PUSH2 0x36B5 DUP3 PUSH2 0x40CB JUMP JUMPDEST PUSH2 0x36BF DUP2 DUP6 PUSH2 0x40FF JUMP JUMPDEST SWAP4 POP PUSH2 0x36CF DUP2 DUP6 PUSH1 0x20 DUP7 ADD PUSH2 0x42F2 JUMP JUMPDEST PUSH2 0x36D8 DUP2 PUSH2 0x4530 JUMP JUMPDEST DUP5 ADD SWAP2 POP POP SWAP3 SWAP2 POP POP JUMP JUMPDEST PUSH2 0x36EC DUP2 PUSH2 0x4265 JUMP JUMPDEST DUP3 MSTORE POP POP JUMP JUMPDEST PUSH2 0x36FB DUP2 PUSH2 0x4277 JUMP JUMPDEST DUP3 MSTORE POP POP JUMP JUMPDEST PUSH2 0x370A DUP2 PUSH2 0x4289 JUMP JUMPDEST DUP3 MSTORE POP POP JUMP JUMPDEST PUSH2 0x3719 DUP2 PUSH2 0x429B JUMP JUMPDEST DUP3 MSTORE POP POP JUMP JUMPDEST PUSH2 0x3728 DUP2 PUSH2 0x42AD JUMP JUMPDEST DUP3 MSTORE POP POP JUMP JUMPDEST PUSH2 0x3737 DUP2 PUSH2 0x42BF JUMP JUMPDEST DUP3 MSTORE POP POP JUMP JUMPDEST PUSH2 0x3746 DUP2 PUSH2 0x42D1 JUMP JUMPDEST DUP3 MSTORE POP POP JUMP JUMPDEST PUSH1 0x0 PUSH2 0x3757 DUP3 PUSH2 0x40D6 JUMP JUMPDEST PUSH2 0x3761 DUP2 DUP6 PUSH2 0x4110 JUMP JUMPDEST SWAP4 POP PUSH2 0x3771 DUP2 DUP6 PUSH1 0x20 DUP7 ADD PUSH2 0x42F2 JUMP JUMPDEST PUSH2 0x377A DUP2 PUSH2 0x4530 JUMP JUMPDEST DUP5 ADD SWAP2 POP POP SWAP3 SWAP2 POP POP JUMP JUMPDEST PUSH1 0x0 PUSH2 0x3790 DUP3 PUSH2 0x40D6 JUMP JUMPDEST PUSH2 0x379A DUP2 DUP6 PUSH2 0x4121 JUMP JUMPDEST SWAP4 POP PUSH2 0x37AA DUP2 DUP6 PUSH1 0x20 DUP7 ADD PUSH2 0x42F2 JUMP JUMPDEST DUP1 DUP5 ADD SWAP2 POP POP SWAP3 SWAP2 POP POP JUMP JUMPDEST PUSH1 0x0 PUSH2 0x37C3 PUSH1 0x2B DUP4 PUSH2 0x4110 JUMP JUMPDEST SWAP2 POP PUSH2 0x37CE DUP3 PUSH2 0x4541 JUMP JUMPDEST PUSH1 0x40 DUP3 ADD SWAP1 POP SWAP2 SWAP1 POP JUMP JUMPDEST PUSH1 0x0 PUSH2 0x37E6 PUSH1 0x32 DUP4 PUSH2 0x4110 JUMP JUMPDEST SWAP2 POP PUSH2 0x37F1 DUP3 PUSH2 0x4590 JUMP JUMPDEST PUSH1 0x40 DUP3 ADD SWAP1 POP SWAP2 SWAP1 POP JUMP JUMPDEST PUSH1 0x0 PUSH2 0x3809 PUSH1 0x25 DUP4 PUSH2 0x4110 JUMP JUMPDEST SWAP2 POP PUSH2 0x3814 DUP3 PUSH2 0x45DF JUMP JUMPDEST PUSH1 0x40 DUP3 ADD SWAP1 POP SWAP2 SWAP1 POP JUMP JUMPDEST PUSH1 0x0 PUSH2 0x382C PUSH1 0x1C DUP4 PUSH2 0x4110 JUMP JUMPDEST SWAP2 POP PUSH2 0x3837 DUP3 PUSH2 0x462E JUMP JUMPDEST PUSH1 0x20 DUP3 ADD SWAP1 POP SWAP2 SWAP1 POP JUMP JUMPDEST PUSH1 0x0 PUSH2 0x384F PUSH1 0x24 DUP4 PUSH2 0x4110 JUMP JUMPDEST SWAP2 POP PUSH2 0x385A DUP3 PUSH2 0x4657 JUMP JUMPDEST PUSH1 0x40 DUP3 ADD SWAP1 POP SWAP2 SWAP1 POP JUMP JUMPDEST PUSH1 0x0 PUSH2 0x3872 PUSH1 0x19 DUP4 PUSH2 0x4110 JUMP JUMPDEST SWAP2 POP PUSH2 0x387D DUP3 PUSH2 0x46A6 JUMP JUMPDEST PUSH1 0x20 DUP3 ADD SWAP1 POP SWAP2 SWAP1 POP JUMP JUMPDEST PUSH1 0x0 PUSH2 0x3895 PUSH1 0x2C DUP4 PUSH2 0x4110 JUMP JUMPDEST SWAP2 POP PUSH2 0x38A0 DUP3 PUSH2 0x46CF JUMP JUMPDEST PUSH1 0x40 DUP3 ADD SWAP1 POP SWAP2 SWAP1 POP JUMP JUMPDEST PUSH1 0x0 PUSH2 0x38B8 PUSH1 0x38 DUP4 PUSH2 0x4110 JUMP JUMPDEST SWAP2 POP PUSH2 0x38C3 DUP3 PUSH2 0x471E JUMP JUMPDEST PUSH1 0x40 DUP3 ADD SWAP1 POP SWAP2 SWAP1 POP JUMP JUMPDEST PUSH1 0x0 PUSH2 0x38DB PUSH1 0x2A DUP4 PUSH2 0x4110 JUMP JUMPDEST SWAP2 POP PUSH2 0x38E6 DUP3 PUSH2 0x476D JUMP JUMPDEST PUSH1 0x40 DUP3 ADD SWAP1 POP SWAP2 SWAP1 POP JUMP JUMPDEST PUSH1 0x0 PUSH2 0x38FE PUSH1 0x29 DUP4 PUSH2 0x4110 JUMP JUMPDEST SWAP2 POP PUSH2 0x3909 DUP3 PUSH2 0x47BC JUMP JUMPDEST PUSH1 0x40 DUP3 ADD SWAP1 POP SWAP2 SWAP1 POP JUMP JUMPDEST PUSH1 0x0 PUSH2 0x3921 PUSH1 0x20 DUP4 PUSH2 0x4110 JUMP JUMPDEST SWAP2 POP PUSH2 0x392C DUP3 PUSH2 0x480B JUMP JUMPDEST PUSH1 0x20 DUP3 ADD SWAP1 POP SWAP2 SWAP1 POP JUMP JUMPDEST PUSH1 0x0 PUSH2 0x3944 PUSH1 0x2C DUP4 PUSH2 0x4110 JUMP JUMPDEST SWAP2 POP PUSH2 0x394F DUP3 PUSH2 0x4834 JUMP JUMPDEST PUSH1 0x40 DUP3 ADD SWAP1 POP SWAP2 SWAP1 POP JUMP JUMPDEST PUSH1 0x0 PUSH2 0x3967 PUSH1 0x2F DUP4 PUSH2 0x4110 JUMP JUMPDEST SWAP2 POP PUSH2 0x3972 DUP3 PUSH2 0x4883 JUMP JUMPDEST PUSH1 0x40 DUP3 ADD SWAP1 POP SWAP2 SWAP1 POP JUMP JUMPDEST PUSH1 0x0 PUSH2 0x398A PUSH1 0x21 DUP4 PUSH2 0x4110 JUMP JUMPDEST SWAP2 POP PUSH2 0x3995 DUP3 PUSH2 0x48D2 JUMP JUMPDEST PUSH1 0x40 DUP3 ADD SWAP1 POP SWAP2 SWAP1 POP JUMP JUMPDEST PUSH1 0x0 PUSH2 0x39AD PUSH1 0x31 DUP4 PUSH2 0x4110 JUMP JUMPDEST SWAP2 POP PUSH2 0x39B8 DUP3 PUSH2 0x4921 JUMP JUMPDEST PUSH1 0x40 DUP3 ADD SWAP1 POP SWAP2 SWAP1 POP JUMP JUMPDEST PUSH1 0x0 PUSH2 0x39D0 PUSH1 0x2C DUP4 PUSH2 0x4110 JUMP JUMPDEST SWAP2 POP PUSH2 0x39DB DUP3 PUSH2 0x4970 JUMP JUMPDEST PUSH1 0x40 DUP3 ADD SWAP1 POP SWAP2 SWAP1 POP JUMP JUMPDEST PUSH2 0x180 DUP3 ADD PUSH1 0x0 DUP3 ADD MLOAD PUSH2 0x39FD PUSH1 0x0 DUP6 ADD DUP3 PUSH2 0x3ADC JUMP JUMPDEST POP PUSH1 0x20 DUP3 ADD MLOAD PUSH2 0x3A10 PUSH1 0x20 DUP6 ADD DUP3 PUSH2 0x3ADC JUMP JUMPDEST POP PUSH1 0x40 DUP3 ADD MLOAD PUSH2 0x3A23 PUSH1 0x40 DUP6 ADD DUP3 PUSH2 0x3ADC JUMP JUMPDEST POP PUSH1 0x60 DUP3 ADD MLOAD PUSH2 0x3A36 PUSH1 0x60 DUP6 ADD DUP3 PUSH2 0x3ADC JUMP JUMPDEST POP PUSH1 0x80 DUP3 ADD MLOAD PUSH2 0x3A49 PUSH1 0x80 DUP6 ADD DUP3 PUSH2 0x3ADC JUMP JUMPDEST POP PUSH1 0xA0 DUP3 ADD MLOAD PUSH2 0x3A5C PUSH1 0xA0 DUP6 ADD DUP3 PUSH2 0x3ADC JUMP JUMPDEST POP PUSH1 0xC0 DUP3 ADD MLOAD PUSH2 0x3A6F PUSH1 0xC0 DUP6 ADD DUP3 PUSH2 0x3ADC JUMP JUMPDEST POP PUSH1 0xE0 DUP3 ADD MLOAD PUSH2 0x3A82 PUSH1 0xE0 DUP6 ADD DUP3 PUSH2 0x3ADC JUMP JUMPDEST POP PUSH2 0x100 DUP3 ADD MLOAD PUSH2 0x3A97 PUSH2 0x100 DUP6 ADD DUP3 PUSH2 0x3ADC JUMP JUMPDEST POP PUSH2 0x120 DUP3 ADD MLOAD PUSH2 0x3AAC PUSH2 0x120 DUP6 ADD DUP3 PUSH2 0x3ADC JUMP JUMPDEST POP PUSH2 0x140 DUP3 ADD MLOAD PUSH2 0x3AC1 PUSH2 0x140 DUP6 ADD DUP3 PUSH2 0x3ADC JUMP JUMPDEST POP PUSH2 0x160 DUP3 ADD MLOAD PUSH2 0x3AD6 PUSH2 0x160 DUP6 ADD DUP3 PUSH2 0x3ADC JUMP JUMPDEST POP POP POP POP JUMP JUMPDEST PUSH2 0x3AE5 DUP2 PUSH2 0x425B JUMP JUMPDEST DUP3 MSTORE POP POP JUMP JUMPDEST PUSH2 0x3AF4 DUP2 PUSH2 0x425B JUMP JUMPDEST DUP3 MSTORE POP POP JUMP JUMPDEST PUSH1 0x0 PUSH2 0x3B06 DUP3 DUP6 PUSH2 0x3785 JUMP JUMPDEST SWAP2 POP PUSH2 0x3B12 DUP3 DUP5 PUSH2 0x3785 JUMP JUMPDEST SWAP2 POP DUP2 SWAP1 POP SWAP4 SWAP3 POP POP POP JUMP JUMPDEST PUSH1 0x0 PUSH1 0x20 DUP3 ADD SWAP1 POP PUSH2 0x3B33 PUSH1 0x0 DUP4 ADD DUP5 PUSH2 0x362E JUMP JUMPDEST SWAP3 SWAP2 POP POP JUMP JUMPDEST PUSH1 0x0 PUSH1 0x80 DUP3 ADD SWAP1 POP PUSH2 0x3B4E PUSH1 0x0 DUP4 ADD DUP8 PUSH2 0x362E JUMP JUMPDEST PUSH2 0x3B5B PUSH1 0x20 DUP4 ADD DUP7 PUSH2 0x362E JUMP JUMPDEST PUSH2 0x3B68 PUSH1 0x40 DUP4 ADD DUP6 PUSH2 0x3AEB JUMP JUMPDEST DUP2 DUP2 SUB PUSH1 0x60 DUP4 ADD MSTORE PUSH2 0x3B7A DUP2 DUP5 PUSH2 0x36AA JUMP JUMPDEST SWAP1 POP SWAP6 SWAP5 POP POP POP POP POP JUMP JUMPDEST PUSH1 0x0 PUSH1 0x20 DUP3 ADD SWAP1 POP PUSH2 0x3B9A PUSH1 0x0 DUP4 ADD DUP5 PUSH2 0x369B JUMP JUMPDEST SWAP3 SWAP2 POP POP JUMP JUMPDEST PUSH1 0x0 PUSH1 0x20 DUP3 ADD SWAP1 POP PUSH2 0x3BB5 PUSH1 0x0 DUP4 ADD DUP5 PUSH2 0x36E3 JUMP JUMPDEST SWAP3 SWAP2 POP POP JUMP JUMPDEST PUSH1 0x0 PUSH1 0x20 DUP3 ADD SWAP1 POP PUSH2 0x3BD0 PUSH1 0x0 DUP4 ADD DUP5 PUSH2 0x36F2 JUMP JUMPDEST SWAP3 SWAP2 POP POP JUMP JUMPDEST PUSH1 0x0 PUSH1 0x20 DUP3 ADD SWAP1 POP PUSH2 0x3BEB PUSH1 0x0 DUP4 ADD DUP5 PUSH2 0x3701 JUMP JUMPDEST SWAP3 SWAP2 POP POP JUMP JUMPDEST PUSH1 0x0 PUSH1 0x20 DUP3 ADD SWAP1 POP PUSH2 0x3C06 PUSH1 0x0 DUP4 ADD DUP5 PUSH2 0x3710 JUMP JUMPDEST SWAP3 SWAP2 POP POP JUMP JUMPDEST PUSH1 0x0 PUSH1 0x20 DUP3 ADD SWAP1 POP PUSH2 0x3C21 PUSH1 0x0 DUP4 ADD DUP5 PUSH2 0x371F JUMP JUMPDEST SWAP3 SWAP2 POP POP JUMP JUMPDEST PUSH1 0x0 PUSH1 0x20 DUP3 ADD SWAP1 POP PUSH2 0x3C3C PUSH1 0x0 DUP4 ADD DUP5 PUSH2 0x372E JUMP JUMPDEST SWAP3 SWAP2 POP POP JUMP JUMPDEST PUSH1 0x0 PUSH1 0x20 DUP3 ADD SWAP1 POP PUSH2 0x3C57 PUSH1 0x0 DUP4 ADD DUP5 PUSH2 0x373D JUMP JUMPDEST SWAP3 SWAP2 POP POP JUMP JUMPDEST PUSH1 0x0 PUSH1 0x20 DUP3 ADD SWAP1 POP DUP2 DUP2 SUB PUSH1 0x0 DUP4 ADD MSTORE PUSH2 0x3C77 DUP2 DUP5 PUSH2 0x374C JUMP JUMPDEST SWAP1 POP SWAP3 SWAP2 POP POP JUMP JUMPDEST PUSH1 0x0 PUSH1 0x20 DUP3 ADD SWAP1 POP DUP2 DUP2 SUB PUSH1 0x0 DUP4 ADD MSTORE PUSH2 0x3C98 DUP2 PUSH2 0x37B6 JUMP JUMPDEST SWAP1 POP SWAP2 SWAP1 POP JUMP JUMPDEST PUSH1 0x0 PUSH1 0x20 DUP3 ADD SWAP1 POP DUP2 DUP2 SUB PUSH1 0x0 DUP4 ADD MSTORE PUSH2 0x3CB8 DUP2 PUSH2 0x37D9 JUMP JUMPDEST SWAP1 POP SWAP2 SWAP1 POP JUMP JUMPDEST PUSH1 0x0 PUSH1 0x20 DUP3 ADD SWAP1 POP DUP2 DUP2 SUB PUSH1 0x0 DUP4 ADD MSTORE PUSH2 0x3CD8 DUP2 PUSH2 0x37FC JUMP JUMPDEST SWAP1 POP SWAP2 SWAP1 POP JUMP JUMPDEST PUSH1 0x0 PUSH1 0x20 DUP3 ADD SWAP1 POP DUP2 DUP2 SUB PUSH1 0x0 DUP4 ADD MSTORE PUSH2 0x3CF8 DUP2 PUSH2 0x381F JUMP JUMPDEST SWAP1 POP SWAP2 SWAP1 POP JUMP JUMPDEST PUSH1 0x0 PUSH1 0x20 DUP3 ADD SWAP1 POP DUP2 DUP2 SUB PUSH1 0x0 DUP4 ADD MSTORE PUSH2 0x3D18 DUP2 PUSH2 0x3842 JUMP JUMPDEST SWAP1 POP SWAP2 SWAP1 POP JUMP JUMPDEST PUSH1 0x0 PUSH1 0x20 DUP3 ADD SWAP1 POP DUP2 DUP2 SUB PUSH1 0x0 DUP4 ADD MSTORE PUSH2 0x3D38 DUP2 PUSH2 0x3865 JUMP JUMPDEST SWAP1 POP SWAP2 SWAP1 POP JUMP JUMPDEST PUSH1 0x0 PUSH1 0x20 DUP3 ADD SWAP1 POP DUP2 DUP2 SUB PUSH1 0x0 DUP4 ADD MSTORE PUSH2 0x3D58 DUP2 PUSH2 0x3888 JUMP JUMPDEST SWAP1 POP SWAP2 SWAP1 POP JUMP JUMPDEST PUSH1 0x0 PUSH1 0x20 DUP3 ADD SWAP1 POP DUP2 DUP2 SUB PUSH1 0x0 DUP4 ADD MSTORE PUSH2 0x3D78 DUP2 PUSH2 0x38AB JUMP JUMPDEST SWAP1 POP SWAP2 SWAP1 POP JUMP JUMPDEST PUSH1 0x0 PUSH1 0x20 DUP3 ADD SWAP1 POP DUP2 DUP2 SUB PUSH1 0x0 DUP4 ADD MSTORE PUSH2 0x3D98 DUP2 PUSH2 0x38CE JUMP JUMPDEST SWAP1 POP SWAP2 SWAP1 POP JUMP JUMPDEST PUSH1 0x0 PUSH1 0x20 DUP3 ADD SWAP1 POP DUP2 DUP2 SUB PUSH1 0x0 DUP4 ADD MSTORE PUSH2 0x3DB8 DUP2 PUSH2 0x38F1 JUMP JUMPDEST SWAP1 POP SWAP2 SWAP1 POP JUMP JUMPDEST PUSH1 0x0 PUSH1 0x20 DUP3 ADD SWAP1 POP DUP2 DUP2 SUB PUSH1 0x0 DUP4 ADD MSTORE PUSH2 0x3DD8 DUP2 PUSH2 0x3914 JUMP JUMPDEST SWAP1 POP SWAP2 SWAP1 POP JUMP JUMPDEST PUSH1 0x0 PUSH1 0x20 DUP3 ADD SWAP1 POP DUP2 DUP2 SUB PUSH1 0x0 DUP4 ADD MSTORE PUSH2 0x3DF8 DUP2 PUSH2 0x3937 JUMP JUMPDEST SWAP1 POP SWAP2 SWAP1 POP JUMP JUMPDEST PUSH1 0x0 PUSH1 0x20 DUP3 ADD SWAP1 POP DUP2 DUP2 SUB PUSH1 0x0 DUP4 ADD MSTORE PUSH2 0x3E18 DUP2 PUSH2 0x395A JUMP JUMPDEST SWAP1 POP SWAP2 SWAP1 POP JUMP JUMPDEST PUSH1 0x0 PUSH1 0x20 DUP3 ADD SWAP1 POP DUP2 DUP2 SUB PUSH1 0x0 DUP4 ADD MSTORE PUSH2 0x3E38 DUP2 PUSH2 0x397D JUMP JUMPDEST SWAP1 POP SWAP2 SWAP1 POP JUMP JUMPDEST PUSH1 0x0 PUSH1 0x20 DUP3 ADD SWAP1 POP DUP2 DUP2 SUB PUSH1 0x0 DUP4 ADD MSTORE PUSH2 0x3E58 DUP2 PUSH2 0x39A0 JUMP JUMPDEST SWAP1 POP SWAP2 SWAP1 POP JUMP JUMPDEST PUSH1 0x0 PUSH1 0x20 DUP3 ADD SWAP1 POP DUP2 DUP2 SUB PUSH1 0x0 DUP4 ADD MSTORE PUSH2 0x3E78 DUP2 PUSH2 0x39C3 JUMP JUMPDEST SWAP1 POP SWAP2 SWAP1 POP JUMP JUMPDEST PUSH1 0x0 PUSH2 0x180 DUP3 ADD SWAP1 POP PUSH2 0x3E95 PUSH1 0x0 DUP4 ADD DUP5 PUSH2 0x39E6 JUMP JUMPDEST SWAP3 SWAP2 POP POP JUMP JUMPDEST PUSH1 0x0 PUSH1 0x20 DUP3 ADD SWAP1 POP PUSH2 0x3EB0 PUSH1 0x0 DUP4 ADD DUP5 PUSH2 0x3AEB JUMP JUMPDEST SWAP3 SWAP2 POP POP JUMP JUMPDEST PUSH1 0x0 PUSH1 0x40 DUP3 ADD SWAP1 POP PUSH2 0x3ECB PUSH1 0x0 DUP4 ADD DUP6 PUSH2 0x3AEB JUMP JUMPDEST DUP2 DUP2 SUB PUSH1 0x20 DUP4 ADD MSTORE PUSH2 0x3EDD DUP2 DUP5 PUSH2 0x363D JUMP JUMPDEST SWAP1 POP SWAP4 SWAP3 POP POP POP JUMP JUMPDEST PUSH1 0x0 PUSH1 0x60 DUP3 ADD SWAP1 POP PUSH2 0x3EFB PUSH1 0x0 DUP4 ADD DUP7 PUSH2 0x3AEB JUMP JUMPDEST PUSH2 0x3F08 PUSH1 0x20 DUP4 ADD DUP6 PUSH2 0x3AEB JUMP JUMPDEST DUP2 DUP2 SUB PUSH1 0x40 DUP4 ADD MSTORE PUSH2 0x3F1A DUP2 DUP5 PUSH2 0x363D JUMP JUMPDEST SWAP1 POP SWAP5 SWAP4 POP POP POP POP JUMP JUMPDEST PUSH1 0x0 PUSH1 0x60 DUP3 ADD SWAP1 POP PUSH2 0x3F39 PUSH1 0x0 DUP4 ADD DUP7 PUSH2 0x3AEB JUMP JUMPDEST PUSH2 0x3F46 PUSH1 0x20 DUP4 ADD DUP6 PUSH2 0x3AEB JUMP JUMPDEST PUSH2 0x3F53 PUSH1 0x40 DUP4 ADD DUP5 PUSH2 0x3AEB JUMP JUMPDEST SWAP5 SWAP4 POP POP POP POP JUMP JUMPDEST PUSH1 0x0 PUSH1 0x80 DUP3 ADD SWAP1 POP PUSH2 0x3F70 PUSH1 0x0 DUP4 ADD DUP8 PUSH2 0x3AEB JUMP JUMPDEST PUSH2 0x3F7D PUSH1 0x20 DUP4 ADD DUP7 PUSH2 0x3AEB JUMP JUMPDEST PUSH2 0x3F8A PUSH1 0x40 DUP4 ADD DUP6 PUSH2 0x3AEB JUMP JUMPDEST PUSH2 0x3F97 PUSH1 0x60 DUP4 ADD DUP5 PUSH2 0x3AEB JUMP JUMPDEST SWAP6 SWAP5 POP POP POP POP POP JUMP JUMPDEST PUSH1 0x0 PUSH2 0x180 DUP3 ADD SWAP1 POP PUSH2 0x3FB6 PUSH1 0x0 DUP4 ADD DUP16 PUSH2 0x3AEB JUMP JUMPDEST PUSH2 0x3FC3 PUSH1 0x20 DUP4 ADD DUP15 PUSH2 0x3AEB JUMP JUMPDEST PUSH2 0x3FD0 PUSH1 0x40 DUP4 ADD DUP14 PUSH2 0x3AEB JUMP JUMPDEST PUSH2 0x3FDD PUSH1 0x60 DUP4 ADD DUP13 PUSH2 0x3AEB JUMP JUMPDEST PUSH2 0x3FEA PUSH1 0x80 DUP4 ADD DUP12 PUSH2 0x3AEB JUMP JUMPDEST PUSH2 0x3FF7 PUSH1 0xA0 DUP4 ADD DUP11 PUSH2 0x3AEB JUMP JUMPDEST PUSH2 0x4004 PUSH1 0xC0 DUP4 ADD DUP10 PUSH2 0x3AEB JUMP JUMPDEST PUSH2 0x4011 PUSH1 0xE0 DUP4 ADD DUP9 PUSH2 0x3AEB JUMP JUMPDEST PUSH2 0x401F PUSH2 0x100 DUP4 ADD DUP8 PUSH2 0x3AEB JUMP JUMPDEST PUSH2 0x402D PUSH2 0x120 DUP4 ADD DUP7 PUSH2 0x3AEB JUMP JUMPDEST PUSH2 0x403B PUSH2 0x140 DUP4 ADD DUP6 PUSH2 0x3AEB JUMP JUMPDEST PUSH2 0x4049 PUSH2 0x160 DUP4 ADD DUP5 PUSH2 0x3AEB JUMP JUMPDEST SWAP14 SWAP13 POP POP POP POP POP POP POP POP POP POP POP POP POP JUMP JUMPDEST PUSH1 0x0 PUSH2 0x4064 PUSH2 0x4075 JUMP JUMPDEST SWAP1 POP PUSH2 0x4070 DUP3 DUP3 PUSH2 0x4357 JUMP JUMPDEST SWAP2 SWAP1 POP JUMP JUMPDEST PUSH1 0x0 PUSH1 0x40 MLOAD SWAP1 POP SWAP1 JUMP JUMPDEST PUSH1 0x0 PUSH8 0xFFFFFFFFFFFFFFFF DUP3 GT ISZERO PUSH2 0x409A JUMPI PUSH2 0x4099 PUSH2 0x44ED JUMP JUMPDEST JUMPDEST PUSH2 0x40A3 DUP3 PUSH2 0x4530 JUMP JUMPDEST SWAP1 POP PUSH1 0x20 DUP2 ADD SWAP1 POP SWAP2 SWAP1 POP JUMP JUMPDEST PUSH1 0x0 DUP2 SWAP1 POP PUSH1 0x20 DUP3 ADD SWAP1 POP SWAP2 SWAP1 POP JUMP JUMPDEST PUSH1 0x0 DUP2 MLOAD SWAP1 POP SWAP2 SWAP1 POP JUMP JUMPDEST PUSH1 0x0 DUP2 MLOAD SWAP1 POP SWAP2 SWAP1 POP JUMP JUMPDEST PUSH1 0x0 DUP2 MLOAD SWAP1 POP SWAP2 SWAP1 POP JUMP JUMPDEST PUSH1 0x0 PUSH1 0x20 DUP3 ADD SWAP1 POP SWAP2 SWAP1 POP JUMP JUMPDEST PUSH1 0x0 DUP3 DUP3 MSTORE PUSH1 0x20 DUP3 ADD SWAP1 POP SWAP3 SWAP2 POP POP JUMP JUMPDEST PUSH1 0x0 DUP3 DUP3 MSTORE PUSH1 0x20 DUP3 ADD SWAP1 POP SWAP3 SWAP2 POP POP JUMP JUMPDEST PUSH1 0x0 DUP3 DUP3 MSTORE PUSH1 0x20 DUP3 ADD SWAP1 POP SWAP3 SWAP2 POP POP JUMP JUMPDEST PUSH1 0x0 DUP2 SWAP1 POP SWAP3 SWAP2 POP POP JUMP JUMPDEST PUSH1 0x0 PUSH2 0x4137 DUP3 PUSH2 0x425B JUMP JUMPDEST SWAP2 POP PUSH2 0x4142 DUP4 PUSH2 0x425B JUMP JUMPDEST SWAP3 POP DUP3 PUSH32 0xFFFFFFFFFFFFFFFFFFFFFFFFFFFFFFFFFFFFFFFFFFFFFFFFFFFFFFFFFFFFFFFF SUB DUP3 GT ISZERO PUSH2 0x4177 JUMPI PUSH2 0x4176 PUSH2 0x4402 JUMP JUMPDEST JUMPDEST DUP3 DUP3 ADD SWAP1 POP SWAP3 SWAP2 POP POP JUMP JUMPDEST PUSH1 0x0 PUSH2 0x418D DUP3 PUSH2 0x425B JUMP JUMPDEST SWAP2 POP PUSH2 0x4198 DUP4 PUSH2 0x425B JUMP JUMPDEST SWAP3 POP DUP3 PUSH2 0x41A8 JUMPI PUSH2 0x41A7 PUSH2 0x4431 JUMP JUMPDEST JUMPDEST DUP3 DUP3 DIV SWAP1 POP SWAP3 SWAP2 POP POP JUMP JUMPDEST PUSH1 0x0 PUSH2 0x41BE DUP3 PUSH2 0x425B JUMP JUMPDEST SWAP2 POP PUSH2 0x41C9 DUP4 PUSH2 0x425B JUMP JUMPDEST SWAP3 POP DUP3 DUP3 LT ISZERO PUSH2 0x41DC JUMPI PUSH2 0x41DB PUSH2 0x4402 JUMP JUMPDEST JUMPDEST DUP3 DUP3 SUB SWAP1 POP SWAP3 SWAP2 POP POP JUMP JUMPDEST PUSH1 0x0 PUSH2 0x41F2 DUP3 PUSH2 0x423B JUMP JUMPDEST SWAP1 POP SWAP2 SWAP1 POP JUMP JUMPDEST PUSH1 0x0 DUP2 ISZERO ISZERO SWAP1 POP SWAP2 SWAP1 POP JUMP JUMPDEST PUSH1 0x0 DUP2 SWAP1 POP SWAP2 SWAP1 POP JUMP JUMPDEST PUSH1 0x0 PUSH32 0xFFFFFFFF00000000000000000000000000000000000000000000000000000000 DUP3 AND SWAP1 POP SWAP2 SWAP1 POP JUMP JUMPDEST PUSH1 0x0 PUSH20 0xFFFFFFFFFFFFFFFFFFFFFFFFFFFFFFFFFFFFFFFF DUP3 AND SWAP1 POP SWAP2 SWAP1 POP JUMP JUMPDEST PUSH1 0x0 DUP2 SWAP1 POP SWAP2 SWAP1 POP JUMP JUMPDEST PUSH1 0x0 PUSH2 0x4270 DUP3 PUSH2 0x425B JUMP JUMPDEST SWAP1 POP SWAP2 SWAP1 POP JUMP JUMPDEST PUSH1 0x0 PUSH2 0x4282 DUP3 PUSH2 0x425B JUMP JUMPDEST SWAP1 POP SWAP2 SWAP1 POP JUMP JUMPDEST PUSH1 0x0 PUSH2 0x4294 DUP3 PUSH2 0x425B JUMP JUMPDEST SWAP1 POP SWAP2 SWAP1 POP JUMP JUMPDEST PUSH1 0x0 PUSH2 0x42A6 DUP3 PUSH2 0x425B JUMP JUMPDEST SWAP1 POP SWAP2 SWAP1 POP JUMP JUMPDEST PUSH1 0x0 PUSH2 0x42B8 DUP3 PUSH2 0x425B JUMP JUMPDEST SWAP1 POP SWAP2 SWAP1 POP JUMP JUMPDEST PUSH1 0x0 PUSH2 0x42CA DUP3 PUSH2 0x425B JUMP JUMPDEST SWAP1 POP SWAP2 SWAP1 POP JUMP JUMPDEST PUSH1 0x0 PUSH2 0x42DC DUP3 PUSH2 0x425B JUMP JUMPDEST SWAP1 POP SWAP2 SWAP1 POP JUMP JUMPDEST DUP3 DUP2 DUP4 CALLDATACOPY PUSH1 0x0 DUP4 DUP4 ADD MSTORE POP POP POP JUMP JUMPDEST PUSH1 0x0 JUMPDEST DUP4 DUP2 LT ISZERO PUSH2 0x4310 JUMPI DUP1 DUP3 ADD MLOAD DUP2 DUP5 ADD MSTORE PUSH1 0x20 DUP2 ADD SWAP1 POP PUSH2 0x42F5 JUMP JUMPDEST DUP4 DUP2 GT ISZERO PUSH2 0x431F JUMPI PUSH1 0x0 DUP5 DUP5 ADD MSTORE JUMPDEST POP POP POP POP JUMP JUMPDEST PUSH1 0x0 PUSH1 0x2 DUP3 DIV SWAP1 POP PUSH1 0x1 DUP3 AND DUP1 PUSH2 0x433D JUMPI PUSH1 0x7F DUP3 AND SWAP2 POP JUMPDEST PUSH1 0x20 DUP3 LT DUP2 EQ ISZERO PUSH2 0x4351 JUMPI PUSH2 0x4350 PUSH2 0x4460 JUMP JUMPDEST JUMPDEST POP SWAP2 SWAP1 POP JUMP JUMPDEST PUSH2 0x4360 DUP3 PUSH2 0x4530 JUMP JUMPDEST DUP2 ADD DUP2 DUP2 LT PUSH8 0xFFFFFFFFFFFFFFFF DUP3 GT OR ISZERO PUSH2 0x437F JUMPI PUSH2 0x437E PUSH2 0x44ED JUMP JUMPDEST JUMPDEST DUP1 PUSH1 0x40 MSTORE POP POP POP JUMP JUMPDEST PUSH1 0x0 PUSH2 0x4393 DUP3 PUSH2 0x425B JUMP JUMPDEST SWAP2 POP PUSH32 0xFFFFFFFFFFFFFFFFFFFFFFFFFFFFFFFFFFFFFFFFFFFFFFFFFFFFFFFFFFFFFFFF DUP3 EQ ISZERO PUSH2 0x43C6 JUMPI PUSH2 0x43C5 PUSH2 0x4402 JUMP JUMPDEST JUMPDEST PUSH1 0x1 DUP3 ADD SWAP1 POP SWAP2 SWAP1 POP JUMP JUMPDEST PUSH1 0x0 PUSH2 0x43DC DUP3 PUSH2 0x425B JUMP JUMPDEST SWAP2 POP PUSH2 0x43E7 DUP4 PUSH2 0x425B JUMP JUMPDEST SWAP3 POP DUP3 PUSH2 0x43F7 JUMPI PUSH2 0x43F6 PUSH2 0x4431 JUMP JUMPDEST JUMPDEST DUP3 DUP3 MOD SWAP1 POP SWAP3 SWAP2 POP POP JUMP JUMPDEST PUSH32 0x4E487B7100000000000000000000000000000000000000000000000000000000 PUSH1 0x0 MSTORE PUSH1 0x11 PUSH1 0x4 MSTORE PUSH1 0x24 PUSH1 0x0 REVERT JUMPDEST PUSH32 0x4E487B7100000000000000000000000000000000000000000000000000000000 PUSH1 0x0 MSTORE PUSH1 0x12 PUSH1 0x4 MSTORE PUSH1 0x24 PUSH1 0x0 REVERT JUMPDEST PUSH32 0x4E487B7100000000000000000000000000000000000000000000000000000000 PUSH1 0x0 MSTORE PUSH1 0x22 PUSH1 0x4 MSTORE PUSH1 0x24 PUSH1 0x0 REVERT JUMPDEST PUSH32 0x4E487B7100000000000000000000000000000000000000000000000000000000 PUSH1 0x0 MSTORE PUSH1 0x31 PUSH1 0x4 MSTORE PUSH1 0x24 PUSH1 0x0 REVERT JUMPDEST PUSH32 0x4E487B7100000000000000000000000000000000000000000000000000000000 PUSH1 0x0 MSTORE PUSH1 0x32 PUSH1 0x4 MSTORE PUSH1 0x24 PUSH1 0x0 REVERT JUMPDEST PUSH32 0x4E487B7100000000000000000000000000000000000000000000000000000000 PUSH1 0x0 MSTORE PUSH1 0x41 PUSH1 0x4 MSTORE PUSH1 0x24 PUSH1 0x0 REVERT JUMPDEST PUSH1 0x0 DUP1 REVERT JUMPDEST PUSH1 0x0 DUP1 REVERT JUMPDEST PUSH1 0x0 DUP1 REVERT JUMPDEST PUSH1 0x0 DUP1 REVERT JUMPDEST PUSH1 0x0 PUSH1 0x1F NOT PUSH1 0x1F DUP4 ADD AND SWAP1 POP SWAP2 SWAP1 POP JUMP JUMPDEST PUSH32 0x455243373231456E756D657261626C653A206F776E657220696E646578206F75 PUSH1 0x0 DUP3 ADD MSTORE PUSH32 0x74206F6620626F756E6473000000000000000000000000000000000000000000 PUSH1 0x20 DUP3 ADD MSTORE POP JUMP JUMPDEST PUSH32 0x4552433732313A207472616E7366657220746F206E6F6E204552433732315265 PUSH1 0x0 DUP3 ADD MSTORE PUSH32 0x63656976657220696D706C656D656E7465720000000000000000000000000000 PUSH1 0x20 DUP3 ADD MSTORE POP JUMP JUMPDEST PUSH32 0x4552433732313A207472616E736665722066726F6D20696E636F727265637420 PUSH1 0x0 DUP3 ADD MSTORE PUSH32 0x6F776E6572000000000000000000000000000000000000000000000000000000 PUSH1 0x20 DUP3 ADD MSTORE POP JUMP JUMPDEST PUSH32 0x4552433732313A20746F6B656E20616C7265616479206D696E74656400000000 PUSH1 0x0 DUP3 ADD MSTORE POP JUMP JUMPDEST PUSH32 0x4552433732313A207472616E7366657220746F20746865207A65726F20616464 PUSH1 0x0 DUP3 ADD MSTORE PUSH32 0x7265737300000000000000000000000000000000000000000000000000000000 PUSH1 0x20 DUP3 ADD MSTORE POP JUMP JUMPDEST PUSH32 0x4552433732313A20617070726F766520746F2063616C6C657200000000000000 PUSH1 0x0 DUP3 ADD MSTORE POP JUMP JUMPDEST PUSH32 0x4552433732313A206F70657261746F7220717565727920666F72206E6F6E6578 PUSH1 0x0 DUP3 ADD MSTORE PUSH32 0x697374656E7420746F6B656E0000000000000000000000000000000000000000 PUSH1 0x20 DUP3 ADD MSTORE POP JUMP JUMPDEST PUSH32 0x4552433732313A20617070726F76652063616C6C6572206973206E6F74206F77 PUSH1 0x0 DUP3 ADD MSTORE PUSH32 0x6E6572206E6F7220617070726F76656420666F7220616C6C0000000000000000 PUSH1 0x20 DUP3 ADD MSTORE POP JUMP JUMPDEST PUSH32 0x4552433732313A2062616C616E636520717565727920666F7220746865207A65 PUSH1 0x0 DUP3 ADD MSTORE PUSH32 0x726F206164647265737300000000000000000000000000000000000000000000 PUSH1 0x20 DUP3 ADD MSTORE POP JUMP JUMPDEST PUSH32 0x4552433732313A206F776E657220717565727920666F72206E6F6E6578697374 PUSH1 0x0 DUP3 ADD MSTORE PUSH32 0x656E7420746F6B656E0000000000000000000000000000000000000000000000 PUSH1 0x20 DUP3 ADD MSTORE POP JUMP JUMPDEST PUSH32 0x4552433732313A206D696E7420746F20746865207A65726F2061646472657373 PUSH1 0x0 DUP3 ADD MSTORE POP JUMP JUMPDEST PUSH32 0x4552433732313A20617070726F76656420717565727920666F72206E6F6E6578 PUSH1 0x0 DUP3 ADD MSTORE PUSH32 0x697374656E7420746F6B656E0000000000000000000000000000000000000000 PUSH1 0x20 DUP3 ADD MSTORE POP JUMP JUMPDEST PUSH32 0x4552433732314D657461646174613A2055524920717565727920666F72206E6F PUSH1 0x0 DUP3 ADD MSTORE PUSH32 0x6E6578697374656E7420746F6B656E0000000000000000000000000000000000 PUSH1 0x20 DUP3 ADD MSTORE POP JUMP JUMPDEST PUSH32 0x4552433732313A20617070726F76616C20746F2063757272656E74206F776E65 PUSH1 0x0 DUP3 ADD MSTORE PUSH32 0x7200000000000000000000000000000000000000000000000000000000000000 PUSH1 0x20 DUP3 ADD MSTORE POP JUMP JUMPDEST PUSH32 0x4552433732313A207472616E736665722063616C6C6572206973206E6F74206F PUSH1 0x0 DUP3 ADD MSTORE PUSH32 0x776E6572206E6F7220617070726F766564000000000000000000000000000000 PUSH1 0x20 DUP3 ADD MSTORE POP JUMP JUMPDEST PUSH32 0x455243373231456E756D657261626C653A20676C6F62616C20696E646578206F PUSH1 0x0 DUP3 ADD MSTORE PUSH32 0x7574206F6620626F756E64730000000000000000000000000000000000000000 PUSH1 0x20 DUP3 ADD MSTORE POP JUMP JUMPDEST PUSH2 0x49C8 DUP2 PUSH2 0x41E7 JUMP JUMPDEST DUP2 EQ PUSH2 0x49D3 JUMPI PUSH1 0x0 DUP1 REVERT JUMPDEST POP JUMP JUMPDEST PUSH2 0x49DF DUP2 PUSH2 0x41F9 JUMP JUMPDEST DUP2 EQ PUSH2 0x49EA JUMPI PUSH1 0x0 DUP1 REVERT JUMPDEST POP JUMP JUMPDEST PUSH2 0x49F6 DUP2 PUSH2 0x4205 JUMP JUMPDEST DUP2 EQ PUSH2 0x4A01 JUMPI PUSH1 0x0 DUP1 REVERT JUMPDEST POP JUMP JUMPDEST PUSH2 0x4A0D DUP2 PUSH2 0x420F JUMP JUMPDEST DUP2 EQ PUSH2 0x4A18 JUMPI PUSH1 0x0 DUP1 REVERT JUMPDEST POP JUMP JUMPDEST PUSH2 0x4A24 DUP2 PUSH2 0x425B JUMP JUMPDEST DUP2 EQ PUSH2 0x4A2F JUMPI PUSH1 0x0 DUP1 REVERT JUMPDEST POP JUMP INVALID LOG2 PUSH5 0x6970667358 0x22 SLT KECCAK256 MLOAD DUP14 0xB3 MSTORE8 0xDE 0xE6 0x23 LOG4 DUP6 0xA8 PUSH26 0x424AF8075676397A41DAF74F16DF85E130B035350C64736F6C63 NUMBER STOP ADDMOD SMOD STOP CALLER "
		},
		"gasEstimates": {
			"creation": {
				"codeDepositCost": "3809600",
				"executionCost": "infinite",
				"totalCost": "infinite"
			},
			"external": {
				"approve(address,uint256)": "infinite",
				"balanceOf(address)": "2990",
				"fightIDToWinnerPokemon(uint256)": "infinite",
				"getApproved(uint256)": "5228",
				"getStatsByNameID(uint256,uint256)": "infinite",
				"get_winner(uint256,uint256,uint256)": "infinite",
				"isApprovedForAll(address,address)": "infinite",
				"mint(uint256)": "infinite",
				"name()": "infinite",
				"ownerOf(uint256)": "3066",
				"pokemons(uint256)": "infinite",
				"safeTransferFrom(address,address,uint256)": "infinite",
				"safeTransferFrom(address,address,uint256,bytes)": "infinite",
				"sendDummyMessageNormal(uint256)": "infinite",
				"sendDummyMessageOneZero(uint256)": "infinite",
				"sendPokemonsToL2(uint256,uint256)": "infinite",
				"setApprovalForAll(address,bool)": "infinite",
				"supportsInterface(bytes4)": "929",
				"symbol()": "infinite",
				"testL1Address()": "infinite",
				"testL1NoParams()": "infinite",
				"tokenByIndex(uint256)": "infinite",
				"tokenOfOwnerByIndex(address,uint256)": "infinite",
				"tokenURI(uint256)": "3373",
				"totalSupply()": "2557",
				"transferFrom(address,address,uint256)": "infinite"
			},
			"internal": {
				"_beforeTokenTransfer(address,address,uint256)": "infinite",
				"createFightID()": "24378"
			}
		},
		"methodIdentifiers": {
			"approve(address,uint256)": "095ea7b3",
			"balanceOf(address)": "70a08231",
			"fightIDToWinnerPokemon(uint256)": "d82fe3b7",
			"getApproved(uint256)": "081812fc",
			"getStatsByNameID(uint256,uint256)": "3a7174f8",
			"get_winner(uint256,uint256,uint256)": "ddf19a31",
			"isApprovedForAll(address,address)": "e985e9c5",
			"mint(uint256)": "a0712d68",
			"name()": "06fdde03",
			"ownerOf(uint256)": "6352211e",
			"pokemons(uint256)": "85831079",
			"safeTransferFrom(address,address,uint256)": "42842e0e",
			"safeTransferFrom(address,address,uint256,bytes)": "b88d4fde",
			"sendDummyMessageNormal(uint256)": "95124629",
			"sendDummyMessageOneZero(uint256)": "7b48141e",
			"sendPokemonsToL2(uint256,uint256)": "85b1c79d",
			"setApprovalForAll(address,bool)": "a22cb465",
			"supportsInterface(bytes4)": "01ffc9a7",
			"symbol()": "95d89b41",
			"testL1Address()": "b74600d4",
			"testL1NoParams()": "4a16bd02",
			"tokenByIndex(uint256)": "4f6ccce7",
			"tokenOfOwnerByIndex(address,uint256)": "2f745c59",
			"tokenURI(uint256)": "c87b56dd",
			"totalSupply()": "18160ddd",
			"transferFrom(address,address,uint256)": "23b872dd"
		}
	},
	"abi": [
		{
			"inputs": [],
			"stateMutability": "nonpayable",
			"type": "constructor"
		},
		{
			"anonymous": false,
			"inputs": [
				{
					"indexed": true,
					"internalType": "address",
					"name": "owner",
					"type": "address"
				},
				{
					"indexed": true,
					"internalType": "address",
					"name": "approved",
					"type": "address"
				},
				{
					"indexed": true,
					"internalType": "uint256",
					"name": "tokenId",
					"type": "uint256"
				}
			],
			"name": "Approval",
			"type": "event"
		},
		{
			"anonymous": false,
			"inputs": [
				{
					"indexed": true,
					"internalType": "address",
					"name": "owner",
					"type": "address"
				},
				{
					"indexed": true,
					"internalType": "address",
					"name": "operator",
					"type": "address"
				},
				{
					"indexed": false,
					"internalType": "bool",
					"name": "approved",
					"type": "bool"
				}
			],
			"name": "ApprovalForAll",
			"type": "event"
		},
		{
			"anonymous": false,
			"inputs": [
				{
					"indexed": true,
					"internalType": "address",
					"name": "from",
					"type": "address"
				},
				{
					"indexed": true,
					"internalType": "address",
					"name": "to",
					"type": "address"
				},
				{
					"indexed": true,
					"internalType": "uint256",
					"name": "tokenId",
					"type": "uint256"
				}
			],
			"name": "Transfer",
			"type": "event"
		},
		{
			"anonymous": false,
			"inputs": [
				{
					"indexed": false,
					"internalType": "uint256",
					"name": "message",
					"type": "uint256"
				}
			],
			"name": "enteredFunc",
			"type": "event"
		},
		{
			"anonymous": false,
			"inputs": [
				{
					"indexed": false,
					"internalType": "uint256",
					"name": "message",
					"type": "uint256"
				}
			],
			"name": "gettingWinnerEntered",
			"type": "event"
		},
		{
			"anonymous": false,
			"inputs": [
				{
					"indexed": false,
					"internalType": "uint256",
					"name": "l2contract",
					"type": "uint256"
				},
				{
					"indexed": false,
					"internalType": "uint256",
					"name": "_winnerPok",
					"type": "uint256"
				},
				{
					"indexed": false,
					"internalType": "uint256",
					"name": "_fightID",
					"type": "uint256"
				}
			],
			"name": "gettingWinnerFinished",
			"type": "event"
		},
		{
			"anonymous": false,
			"inputs": [
				{
					"indexed": true,
					"internalType": "address",
					"name": "_from",
					"type": "address"
				},
				{
					"indexed": false,
					"internalType": "uint256",
					"name": "_pok1",
					"type": "uint256"
				},
				{
					"indexed": false,
					"internalType": "uint256",
					"name": "_pok2",
					"type": "uint256"
				},
				{
					"indexed": false,
					"internalType": "uint256",
					"name": "l2Contract",
					"type": "uint256"
				},
				{
					"indexed": false,
					"internalType": "uint256",
					"name": "_value",
					"type": "uint256"
				}
			],
			"name": "startFight",
			"type": "event"
		},
		{
			"anonymous": false,
			"inputs": [
				{
					"indexed": false,
					"internalType": "uint256",
					"name": "message",
					"type": "uint256"
				}
			],
			"name": "startFightMessage",
			"type": "event"
		},
		{
			"inputs": [
				{
					"internalType": "address",
					"name": "to",
					"type": "address"
				},
				{
					"internalType": "uint256",
					"name": "tokenId",
					"type": "uint256"
				}
			],
			"name": "approve",
			"outputs": [],
			"stateMutability": "nonpayable",
			"type": "function"
		},
		{
			"inputs": [
				{
					"internalType": "address",
					"name": "owner",
					"type": "address"
				}
			],
			"name": "balanceOf",
			"outputs": [
				{
					"internalType": "uint256",
					"name": "",
					"type": "uint256"
				}
			],
			"stateMutability": "view",
			"type": "function"
		},
		{
			"inputs": [
				{
					"internalType": "uint256",
					"name": "",
					"type": "uint256"
				}
			],
			"name": "fightIDToWinnerPokemon",
			"outputs": [
				{
					"internalType": "uint256",
					"name": "id",
					"type": "uint256"
				},
				{
					"internalType": "uint256",
					"name": "hp",
					"type": "uint256"
				},
				{
					"internalType": "uint256",
					"name": "atk",
					"type": "uint256"
				},
				{
					"internalType": "uint256",
					"name": "init",
					"type": "uint256"
				},
				{
					"internalType": "uint256",
					"name": "def",
					"type": "uint256"
				},
				{
					"internalType": "uint256",
					"name": "type1",
					"type": "uint256"
				},
				{
					"internalType": "uint256",
					"name": "type2",
					"type": "uint256"
				},
				{
					"internalType": "uint256",
					"name": "atk1_type",
					"type": "uint256"
				},
				{
					"internalType": "uint256",
					"name": "atk1_damage",
					"type": "uint256"
				},
				{
					"internalType": "uint256",
					"name": "atk2_type",
					"type": "uint256"
				},
				{
					"internalType": "uint256",
					"name": "atk2_damage",
					"type": "uint256"
				},
				{
					"internalType": "uint256",
					"name": "name_id",
					"type": "uint256"
				}
			],
			"stateMutability": "view",
			"type": "function"
		},
		{
			"inputs": [
				{
					"internalType": "uint256",
					"name": "tokenId",
					"type": "uint256"
				}
			],
			"name": "getApproved",
			"outputs": [
				{
					"internalType": "address",
					"name": "",
					"type": "address"
				}
			],
			"stateMutability": "view",
			"type": "function"
		},
		{
			"inputs": [
				{
					"internalType": "uint256",
					"name": "_name_id",
					"type": "uint256"
				},
				{
					"internalType": "uint256",
					"name": "_id",
					"type": "uint256"
				}
			],
			"name": "getStatsByNameID",
			"outputs": [
				{
					"components": [
						{
							"internalType": "uint256",
							"name": "id",
							"type": "uint256"
						},
						{
							"internalType": "uint256",
							"name": "hp",
							"type": "uint256"
						},
						{
							"internalType": "uint256",
							"name": "atk",
							"type": "uint256"
						},
						{
							"internalType": "uint256",
							"name": "init",
							"type": "uint256"
						},
						{
							"internalType": "uint256",
							"name": "def",
							"type": "uint256"
						},
						{
							"internalType": "uint256",
							"name": "type1",
							"type": "uint256"
						},
						{
							"internalType": "uint256",
							"name": "type2",
							"type": "uint256"
						},
						{
							"internalType": "uint256",
							"name": "atk1_type",
							"type": "uint256"
						},
						{
							"internalType": "uint256",
							"name": "atk1_damage",
							"type": "uint256"
						},
						{
							"internalType": "uint256",
							"name": "atk2_type",
							"type": "uint256"
						},
						{
							"internalType": "uint256",
							"name": "atk2_damage",
							"type": "uint256"
						},
						{
							"internalType": "uint256",
							"name": "name_id",
							"type": "uint256"
						}
					],
					"internalType": "struct NFT.Pokemon",
					"name": "",
					"type": "tuple"
				}
			],
			"stateMutability": "pure",
			"type": "function"
		},
		{
			"inputs": [
				{
					"internalType": "uint256",
					"name": "l2ContractAddress",
					"type": "uint256"
				},
				{
					"internalType": "uint256",
					"name": "pokemonWinnerID",
					"type": "uint256"
				},
				{
					"internalType": "uint256",
					"name": "fightID",
					"type": "uint256"
				}
			],
			"name": "get_winner",
			"outputs": [],
			"stateMutability": "nonpayable",
			"type": "function"
		},
		{
			"inputs": [
				{
					"internalType": "address",
					"name": "owner",
					"type": "address"
				},
				{
					"internalType": "address",
					"name": "operator",
					"type": "address"
				}
			],
			"name": "isApprovedForAll",
			"outputs": [
				{
					"internalType": "bool",
					"name": "",
					"type": "bool"
				}
			],
			"stateMutability": "view",
			"type": "function"
		},
		{
			"inputs": [
				{
					"internalType": "uint256",
					"name": "_name_id",
					"type": "uint256"
				}
			],
			"name": "mint",
			"outputs": [],
			"stateMutability": "nonpayable",
			"type": "function"
		},
		{
			"inputs": [],
			"name": "name",
			"outputs": [
				{
					"internalType": "string",
					"name": "",
					"type": "string"
				}
			],
			"stateMutability": "view",
			"type": "function"
		},
		{
			"inputs": [
				{
					"internalType": "uint256",
					"name": "tokenId",
					"type": "uint256"
				}
			],
			"name": "ownerOf",
			"outputs": [
				{
					"internalType": "address",
					"name": "",
					"type": "address"
				}
			],
			"stateMutability": "view",
			"type": "function"
		},
		{
			"inputs": [
				{
					"internalType": "uint256",
					"name": "",
					"type": "uint256"
				}
			],
			"name": "pokemons",
			"outputs": [
				{
					"internalType": "uint256",
					"name": "id",
					"type": "uint256"
				},
				{
					"internalType": "uint256",
					"name": "hp",
					"type": "uint256"
				},
				{
					"internalType": "uint256",
					"name": "atk",
					"type": "uint256"
				},
				{
					"internalType": "uint256",
					"name": "init",
					"type": "uint256"
				},
				{
					"internalType": "uint256",
					"name": "def",
					"type": "uint256"
				},
				{
					"internalType": "uint256",
					"name": "type1",
					"type": "uint256"
				},
				{
					"internalType": "uint256",
					"name": "type2",
					"type": "uint256"
				},
				{
					"internalType": "uint256",
					"name": "atk1_type",
					"type": "uint256"
				},
				{
					"internalType": "uint256",
					"name": "atk1_damage",
					"type": "uint256"
				},
				{
					"internalType": "uint256",
					"name": "atk2_type",
					"type": "uint256"
				},
				{
					"internalType": "uint256",
					"name": "atk2_damage",
					"type": "uint256"
				},
				{
					"internalType": "uint256",
					"name": "name_id",
					"type": "uint256"
				}
			],
			"stateMutability": "view",
			"type": "function"
		},
		{
			"inputs": [
				{
					"internalType": "address",
					"name": "from",
					"type": "address"
				},
				{
					"internalType": "address",
					"name": "to",
					"type": "address"
				},
				{
					"internalType": "uint256",
					"name": "tokenId",
					"type": "uint256"
				}
			],
			"name": "safeTransferFrom",
			"outputs": [],
			"stateMutability": "nonpayable",
			"type": "function"
		},
		{
			"inputs": [
				{
					"internalType": "address",
					"name": "from",
					"type": "address"
				},
				{
					"internalType": "address",
					"name": "to",
					"type": "address"
				},
				{
					"internalType": "uint256",
					"name": "tokenId",
					"type": "uint256"
				},
				{
					"internalType": "bytes",
					"name": "_data",
					"type": "bytes"
				}
			],
			"name": "safeTransferFrom",
			"outputs": [],
			"stateMutability": "nonpayable",
			"type": "function"
		},
		{
			"inputs": [
				{
					"internalType": "uint256",
					"name": "test_num",
					"type": "uint256"
				}
			],
			"name": "sendDummyMessageNormal",
			"outputs": [],
			"stateMutability": "nonpayable",
			"type": "function"
		},
		{
			"inputs": [
				{
					"internalType": "uint256",
					"name": "test_num",
					"type": "uint256"
				}
			],
			"name": "sendDummyMessageOneZero",
			"outputs": [],
			"stateMutability": "nonpayable",
			"type": "function"
		},
		{
			"inputs": [
				{
					"internalType": "uint256",
					"name": "myPok",
					"type": "uint256"
				},
				{
					"internalType": "uint256",
					"name": "enemyPok",
					"type": "uint256"
				}
			],
			"name": "sendPokemonsToL2",
			"outputs": [],
			"stateMutability": "payable",
			"type": "function"
		},
		{
			"inputs": [
				{
					"internalType": "address",
					"name": "operator",
					"type": "address"
				},
				{
					"internalType": "bool",
					"name": "approved",
					"type": "bool"
				}
			],
			"name": "setApprovalForAll",
			"outputs": [],
			"stateMutability": "nonpayable",
			"type": "function"
		},
		{
			"inputs": [
				{
					"internalType": "bytes4",
					"name": "interfaceId",
					"type": "bytes4"
				}
			],
			"name": "supportsInterface",
			"outputs": [
				{
					"internalType": "bool",
					"name": "",
					"type": "bool"
				}
			],
			"stateMutability": "view",
			"type": "function"
		},
		{
			"inputs": [],
			"name": "symbol",
			"outputs": [
				{
					"internalType": "string",
					"name": "",
					"type": "string"
				}
			],
			"stateMutability": "view",
			"type": "function"
		},
		{
			"inputs": [],
			"name": "testL1Address",
			"outputs": [],
			"stateMutability": "payable",
			"type": "function"
		},
		{
			"inputs": [],
			"name": "testL1NoParams",
			"outputs": [],
			"stateMutability": "payable",
			"type": "function"
		},
		{
			"inputs": [
				{
					"internalType": "uint256",
					"name": "index",
					"type": "uint256"
				}
			],
			"name": "tokenByIndex",
			"outputs": [
				{
					"internalType": "uint256",
					"name": "",
					"type": "uint256"
				}
			],
			"stateMutability": "view",
			"type": "function"
		},
		{
			"inputs": [
				{
					"internalType": "address",
					"name": "owner",
					"type": "address"
				},
				{
					"internalType": "uint256",
					"name": "index",
					"type": "uint256"
				}
			],
			"name": "tokenOfOwnerByIndex",
			"outputs": [
				{
					"internalType": "uint256",
					"name": "",
					"type": "uint256"
				}
			],
			"stateMutability": "view",
			"type": "function"
		},
		{
			"inputs": [
				{
					"internalType": "uint256",
					"name": "tokenId",
					"type": "uint256"
				}
			],
			"name": "tokenURI",
			"outputs": [
				{
					"internalType": "string",
					"name": "",
					"type": "string"
				}
			],
			"stateMutability": "view",
			"type": "function"
		},
		{
			"inputs": [],
			"name": "totalSupply",
			"outputs": [
				{
					"internalType": "uint256",
					"name": "",
					"type": "uint256"
				}
			],
			"stateMutability": "view",
			"type": "function"
		},
		{
			"inputs": [
				{
					"internalType": "address",
					"name": "from",
					"type": "address"
				},
				{
					"internalType": "address",
					"name": "to",
					"type": "address"
				},
				{
					"internalType": "uint256",
					"name": "tokenId",
					"type": "uint256"
				}
			],
			"name": "transferFrom",
			"outputs": [],
			"stateMutability": "nonpayable",
			"type": "function"
		}
	]
}