{
	"data": {
		"bytecode": {
			"linkReferences": {},
			"object": "60806040527f065ca4f13a991313394d97395bed9e06e80270a0078a9b9a39c841db4a066bed600c556000600d553480156200003a57600080fd5b506040518060400160405280600381526020017f4e465400000000000000000000000000000000000000000000000000000000008152506040518060400160405280600281526020017f43430000000000000000000000000000000000000000000000000000000000008152508160009080519060200190620000bf92919062000136565b508060019080519060200190620000d892919062000136565b50505073de29d060d45901fb19ed6c6e959eb22d8626708e600b60006101000a81548173ffffffffffffffffffffffffffffffffffffffff021916908373ffffffffffffffffffffffffffffffffffffffff1602179055506200024b565b8280546200014490620001e6565b90600052602060002090601f016020900481019282620001685760008555620001b4565b82601f106200018357805160ff1916838001178555620001b4565b82800160010185558215620001b4579182015b82811115620001b357825182559160200191906001019062000196565b5b509050620001c39190620001c7565b5090565b5b80821115620001e2576000816000905550600101620001c8565b5090565b60006002820490506001821680620001ff57607f821691505b602082108114156200021657620002156200021c565b5b50919050565b7f4e487b7100000000000000000000000000000000000000000000000000000000600052602260045260246000fd5b614253806200025b6000396000f3fe6080604052600436106101405760003560e01c80636352211e116100b6578063a22cb4651161006f578063a22cb465146104a2578063b88d4fde146104cb578063c87b56dd146104f4578063d82fe3b714610531578063ddf19a3114610579578063e985e9c5146105a257610140565b80636352211e1461036357806370a08231146103a05780637151fb98146103dd578063858310791461040657806395d89b411461044e578063a0712d681461047957610140565b806323b872dd1161010857806323b872dd1461023e578063263a2d39146102675780632f745c59146102835780633a7174f8146102c057806342842e0e146102fd5780634f6ccce71461032657610140565b806301ffc9a71461014557806306fdde0314610182578063081812fc146101ad578063095ea7b3146101ea57806318160ddd14610213575b600080fd5b34801561015157600080fd5b5061016c60048036038101906101679190612e98565b6105df565b6040516101799190613522565b60405180910390f35b34801561018e57600080fd5b506101976105f1565b6040516101a4919061353d565b60405180910390f35b3480156101b957600080fd5b506101d460048036038101906101cf9190612ef2565b610683565b6040516101e191906134bb565b60405180910390f35b3480156101f657600080fd5b50610211600480360381019061020c9190612e2b565b610708565b005b34801561021f57600080fd5b50610228610820565b604051610235919061377b565b60405180910390f35b34801561024a57600080fd5b5061026560048036038101906102609190612d15565b61082d565b005b610281600480360381019061027c9190612f1f565b61088d565b005b34801561028f57600080fd5b506102aa60048036038101906102a59190612e2b565b610d56565b6040516102b7919061377b565b60405180910390f35b3480156102cc57600080fd5b506102e760048036038101906102e29190612f89565b610dfb565b6040516102f4919061375f565b60405180910390f35b34801561030957600080fd5b50610324600480360381019061031f9190612d15565b610ed4565b005b34801561033257600080fd5b5061034d60048036038101906103489190612ef2565b610ef4565b60405161035a919061377b565b60405180910390f35b34801561036f57600080fd5b5061038a60048036038101906103859190612ef2565b610f65565b60405161039791906134bb565b60405180910390f35b3480156103ac57600080fd5b506103c760048036038101906103c29190612ca8565b611017565b6040516103d4919061377b565b60405180910390f35b3480156103e957600080fd5b5061040460048036038101906103ff9190612f89565b6110cf565b005b34801561041257600080fd5b5061042d60048036038101906104289190612ef2565b611232565b6040516104459c9b9a99989796959493929190613804565b60405180910390f35b34801561045a57600080fd5b506104636112a2565b604051610470919061353d565b60405180910390f35b34801561048557600080fd5b506104a0600480360381019061049b9190612ef2565b611334565b005b3480156104ae57600080fd5b506104c960048036038101906104c49190612deb565b611456565b005b3480156104d757600080fd5b506104f260048036038101906104ed9190612d68565b61146c565b005b34801561050057600080fd5b5061051b60048036038101906105169190612ef2565b6114ce565b604051610528919061353d565b60405180910390f35b34801561053d57600080fd5b5061055860048036038101906105539190612ef2565b611575565b6040516105709c9b9a99989796959493929190613804565b60405180910390f35b34801561058557600080fd5b506105a0600480360381019061059b9190612fc9565b6115d5565b005b3480156105ae57600080fd5b506105c960048036038101906105c49190612cd5565b6117cb565b6040516105d69190613522565b60405180910390f35b60006105ea8261185f565b9050919050565b60606000805461060090613b0b565b80601f016020809104026020016040519081016040528092919081815260200182805461062c90613b0b565b80156106795780601f1061064e57610100808354040283529160200191610679565b820191906000526020600020905b81548152906001019060200180831161065c57829003601f168201915b5050505050905090565b600061068e826118d9565b6106cd576040517f08c379a00000000000000000000000000000000000000000000000000000000081526004016106c4906136bf565b60405180910390fd5b6004600083815260200190815260200160002060009054906101000a900473ffffffffffffffffffffffffffffffffffffffff169050919050565b600061071382610f65565b90508073ffffffffffffffffffffffffffffffffffffffff168373ffffffffffffffffffffffffffffffffffffffff161415610784576040517f08c379a000000000000000000000000000000000000000000000000000000000815260040161077b906136ff565b60405180910390fd5b8073ffffffffffffffffffffffffffffffffffffffff166107a3611945565b73ffffffffffffffffffffffffffffffffffffffff1614806107d257506107d1816107cc611945565b6117cb565b5b610811576040517f08c379a00000000000000000000000000000000000000000000000000000000081526004016108089061363f565b60405180910390fd5b61081b838361194d565b505050565b6000600880549050905090565b61083e610838611945565b82611a06565b61087d576040517f08c379a00000000000000000000000000000000000000000000000000000000081526004016108749061371f565b60405180910390fd5b610888838383611ae4565b505050565b6000601967ffffffffffffffff8111156108aa576108a9613cd3565b5b6040519080825280602002602001820160405280156108d85781602001602082028036833780820191505090505b5090508360000151816000815181106108f4576108f3613ca4565b5b60200260200101818152505083602001518160018151811061091957610918613ca4565b5b60200260200101818152505083604001518160028151811061093e5761093d613ca4565b5b60200260200101818152505083606001518160038151811061096357610962613ca4565b5b60200260200101818152505083608001518160048151811061098857610987613ca4565b5b6020026020010181815250508360a00151816005815181106109ad576109ac613ca4565b5b6020026020010181815250508360c00151816006815181106109d2576109d1613ca4565b5b6020026020010181815250508360e00151816007815181106109f7576109f6613ca4565b5b60200260200101818152505083610100015181600881518110610a1d57610a1c613ca4565b5b60200260200101818152505083610120015181600981518110610a4357610a42613ca4565b5b60200260200101818152505083610140015181600a81518110610a6957610a68613ca4565b5b60200260200101818152505083610160015181600b81518110610a8f57610a8e613ca4565b5b602002602001018181525050826000015181600c81518110610ab457610ab3613ca4565b5b602002602001018181525050826020015181600d81518110610ad957610ad8613ca4565b5b602002602001018181525050826040015181600e81518110610afe57610afd613ca4565b5b602002602001018181525050826060015181600f81518110610b2357610b22613ca4565b5b602002602001018181525050826080015181601081518110610b4857610b47613ca4565b5b6020026020010181815250508260a0015181601181518110610b6d57610b6c613ca4565b5b6020026020010181815250508260c0015181601281518110610b9257610b91613ca4565b5b6020026020010181815250508260e0015181601381518110610bb757610bb6613ca4565b5b60200260200101818152505082610100015181601481518110610bdd57610bdc613ca4565b5b60200260200101818152505082610120015181601581518110610c0357610c02613ca4565b5b60200260200101818152505082610140015181601681518110610c2957610c28613ca4565b5b60200260200101818152505082610160015181601781518110610c4f57610c4e613ca4565b5b6020026020010181815250508181601881518110610c7057610c6f613ca4565b5b602002602001018181525050600b60009054906101000a900473ffffffffffffffffffffffffffffffffffffffff1673ffffffffffffffffffffffffffffffffffffffff16633e3aa6c534877f0397f7783310f752c90187fffbd53489b1ff1f87fcf4636e32dc6bcbbf0b224f856040518563ffffffff1660e01b8152600401610cfc939291906137c6565b6020604051808303818588803b158015610d1557600080fd5b505af1158015610d29573d6000803e3d6000fd5b50505050506040513d601f19601f82011682018060405250810190610d4e9190612e6b565b505050505050565b6000610d6183611017565b8210610da2576040517f08c379a0000000000000000000000000000000000000000000000000000000008152600401610d999061355f565b60405180910390fd5b600660008473ffffffffffffffffffffffffffffffffffffffff1673ffffffffffffffffffffffffffffffffffffffff168152602001908152602001600020600083815260200190815260200160002054905092915050565b610e03612a37565b6001831415610e6f5760405180610180016040528083815260200160988152602001606f8152602001606a8152602001606f8152602001600881526020016000815260200160088152602001601e8152602001600b815260200160288152602001848152509050610ece565b604051806101800160405280838152602001608e815260200160758152602001609c815260200160658152602001600381526020016000815260200160038152602001601e8152602001600b8152602001602381526020018481525090505b92915050565b610eef8383836040518060200160405280600081525061146c565b505050565b6000610efe610820565b8210610f3f576040517f08c379a0000000000000000000000000000000000000000000000000000000008152600401610f369061373f565b60405180910390fd5b60088281548110610f5357610f52613ca4565b5b90600052602060002001549050919050565b6000806002600084815260200190815260200160002060009054906101000a900473ffffffffffffffffffffffffffffffffffffffff169050600073ffffffffffffffffffffffffffffffffffffffff168173ffffffffffffffffffffffffffffffffffffffff16141561100e576040517f08c379a00000000000000000000000000000000000000000000000000000000081526004016110059061367f565b60405180910390fd5b80915050919050565b60008073ffffffffffffffffffffffffffffffffffffffff168273ffffffffffffffffffffffffffffffffffffffff161415611088576040517f08c379a000000000000000000000000000000000000000000000000000000000815260040161107f9061365f565b60405180910390fd5b600360008373ffffffffffffffffffffffffffffffffffffffff1673ffffffffffffffffffffffffffffffffffffffff168152602001908152602001600020549050919050565b61122e600c54600a84815481106110e9576110e8613ca4565b5b90600052602060002090600c02016040518061018001604052908160008201548152602001600182015481526020016002820154815260200160038201548152602001600482015481526020016005820154815260200160068201548152602001600782015481526020016008820154815260200160098201548152602001600a8201548152602001600b82015481525050600a848154811061118f5761118e613ca4565b5b90600052602060002090600c02016040518061018001604052908160008201548152602001600182015481526020016002820154815260200160038201548152602001600482015481526020016005820154815260200160068201548152602001600782015481526020016008820154815260200160098201548152602001600a8201548152602001600b82015481525050611229611d4b565b61088d565b5050565b600a818154811061124257600080fd5b90600052602060002090600c020160009150905080600001549080600101549080600201549080600301549080600401549080600501549080600601549080600701549080600801549080600901549080600a01549080600b015490508c565b6060600180546112b190613b0b565b80601f01602080910402602001604051908101604052809291908181526020018280546112dd90613b0b565b801561132a5780601f106112ff5761010080835404028352916020019161132a565b820191906000526020600020905b81548152906001019060200180831161130d57829003601f168201915b5050505050905090565b600e600082815260200190815260200160002060009054906101000a900460ff161561135f57600080fd5b6000600a805490509050600a6113758383610dfb565b90806001815401808255809150506001900390600052602060002090600c0201600090919091909150600082015181600001556020820151816001015560408201518160020155606082015181600301556080820151816004015560a0820151816005015560c0820151816006015560e082015181600701556101008201518160080155610120820151816009015561014082015181600a015561016082015181600b015550506114263382611d69565b6001600e600083815260200190815260200160002060006101000a81548160ff0219169083151502179055505050565b611468611461611945565b8383611d87565b5050565b61147d611477611945565b83611a06565b6114bc576040517f08c379a00000000000000000000000000000000000000000000000000000000081526004016114b39061371f565b60405180910390fd5b6114c884848484611ef4565b50505050565b60606114d9826118d9565b611518576040517f08c379a000000000000000000000000000000000000000000000000000000000815260040161150f906136df565b60405180910390fd5b6000611522611f50565b90506000815111611542576040518060200160405280600081525061156d565b8061154c84611f67565b60405160200161155d929190613497565b6040516020818303038152906040525b915050919050565b600f60205280600052604060002060009150905080600001549080600101549080600201549080600301549080600401549080600501549080600601549080600701549080600801549080600901549080600a01549080600b015490508c565b6000600267ffffffffffffffff8111156115f2576115f1613cd3565b5b6040519080825280602002602001820160405280156116205781602001602082028036833780820191505090505b509050828160008151811061163857611637613ca4565b5b602002602001018181525050818160018151811061165957611658613ca4565b5b602002602001018181525050600b60009054906101000a900473ffffffffffffffffffffffffffffffffffffffff1673ffffffffffffffffffffffffffffffffffffffff16632c9dd5c085836040518363ffffffff1660e01b81526004016116c2929190613796565b602060405180830381600087803b1580156116dc57600080fd5b505af11580156116f0573d6000803e3d6000fd5b505050506040513d601f19601f820116820180604052508101906117149190612e6b565b50600a838154811061172957611728613ca4565b5b90600052602060002090600c0201600f600084815260200190815260200160002060008201548160000155600182015481600101556002820154816002015560038201548160030155600482015481600401556005820154816005015560068201548160060155600782015481600701556008820154816008015560098201548160090155600a82015481600a0155600b82015481600b015590505050505050565b6000600560008473ffffffffffffffffffffffffffffffffffffffff1673ffffffffffffffffffffffffffffffffffffffff16815260200190815260200160002060008373ffffffffffffffffffffffffffffffffffffffff1673ffffffffffffffffffffffffffffffffffffffff16815260200190815260200160002060009054906101000a900460ff16905092915050565b60007f780e9d63000000000000000000000000000000000000000000000000000000007bffffffffffffffffffffffffffffffffffffffffffffffffffffffff1916827bffffffffffffffffffffffffffffffffffffffffffffffffffffffff191614806118d257506118d1826120c8565b5b9050919050565b60008073ffffffffffffffffffffffffffffffffffffffff166002600084815260200190815260200160002060009054906101000a900473ffffffffffffffffffffffffffffffffffffffff1673ffffffffffffffffffffffffffffffffffffffff1614159050919050565b600033905090565b816004600083815260200190815260200160002060006101000a81548173ffffffffffffffffffffffffffffffffffffffff021916908373ffffffffffffffffffffffffffffffffffffffff160217905550808273ffffffffffffffffffffffffffffffffffffffff166119c083610f65565b73ffffffffffffffffffffffffffffffffffffffff167f8c5be1e5ebec7d5bd14f71427d1e84f3dd0314c0f7b2291e5b200ac8c7c3b92560405160405180910390a45050565b6000611a11826118d9565b611a50576040517f08c379a0000000000000000000000000000000000000000000000000000000008152600401611a479061361f565b60405180910390fd5b6000611a5b83610f65565b90508073ffffffffffffffffffffffffffffffffffffffff168473ffffffffffffffffffffffffffffffffffffffff161480611a9d5750611a9c81856117cb565b5b80611adb57508373ffffffffffffffffffffffffffffffffffffffff16611ac384610683565b73ffffffffffffffffffffffffffffffffffffffff16145b91505092915050565b8273ffffffffffffffffffffffffffffffffffffffff16611b0482610f65565b73ffffffffffffffffffffffffffffffffffffffff1614611b5a576040517f08c379a0000000000000000000000000000000000000000000000000000000008152600401611b519061359f565b60405180910390fd5b600073ffffffffffffffffffffffffffffffffffffffff168273ffffffffffffffffffffffffffffffffffffffff161415611bca576040517f08c379a0000000000000000000000000000000000000000000000000000000008152600401611bc1906135df565b60405180910390fd5b611bd58383836121aa565b611be060008261194d565b6001600360008573ffffffffffffffffffffffffffffffffffffffff1673ffffffffffffffffffffffffffffffffffffffff1681526020019081526020016000206000828254611c309190613a17565b925050819055506001600360008473ffffffffffffffffffffffffffffffffffffffff1673ffffffffffffffffffffffffffffffffffffffff1681526020019081526020016000206000828254611c879190613990565b92505081905550816002600083815260200190815260200160002060006101000a81548173ffffffffffffffffffffffffffffffffffffffff021916908373ffffffffffffffffffffffffffffffffffffffff160217905550808273ffffffffffffffffffffffffffffffffffffffff168473ffffffffffffffffffffffffffffffffffffffff167fddf252ad1be2c89b69c2b068fc378daa952ba7f163c4a11628f55a4df523b3ef60405160405180910390a4611d468383836121ba565b505050565b6000600d6000815480929190611d6090613b6e565b91905055905090565b611d838282604051806020016040528060008152506121bf565b5050565b8173ffffffffffffffffffffffffffffffffffffffff168373ffffffffffffffffffffffffffffffffffffffff161415611df6576040517f08c379a0000000000000000000000000000000000000000000000000000000008152600401611ded906135ff565b60405180910390fd5b80600560008573ffffffffffffffffffffffffffffffffffffffff1673ffffffffffffffffffffffffffffffffffffffff16815260200190815260200160002060008473ffffffffffffffffffffffffffffffffffffffff1673ffffffffffffffffffffffffffffffffffffffff16815260200190815260200160002060006101000a81548160ff0219169083151502179055508173ffffffffffffffffffffffffffffffffffffffff168373ffffffffffffffffffffffffffffffffffffffff167f17307eab39ab6107e8899845ad3d59bd9653f200f220920489ca2b5937696c3183604051611ee79190613522565b60405180910390a3505050565b611eff848484611ae4565b611f0b8484848461221a565b611f4a576040517f08c379a0000000000000000000000000000000000000000000000000000000008152600401611f419061357f565b60405180910390fd5b50505050565b606060405180602001604052806000815250905090565b60606000821415611faf576040518060400160405280600181526020017f300000000000000000000000000000000000000000000000000000000000000081525090506120c3565b600082905060005b60008214611fe1578080611fca90613b6e565b915050600a82611fda91906139e6565b9150611fb7565b60008167ffffffffffffffff811115611ffd57611ffc613cd3565b5b6040519080825280601f01601f19166020018201604052801561202f5781602001600182028036833780820191505090505b5090505b600085146120bc576001826120489190613a17565b9150600a856120579190613bb7565b60306120639190613990565b60f81b81838151811061207957612078613ca4565b5b60200101907effffffffffffffffffffffffffffffffffffffffffffffffffffffffffffff1916908160001a905350600a856120b591906139e6565b9450612033565b8093505050505b919050565b60007f80ac58cd000000000000000000000000000000000000000000000000000000007bffffffffffffffffffffffffffffffffffffffffffffffffffffffff1916827bffffffffffffffffffffffffffffffffffffffffffffffffffffffff1916148061219357507f5b5e139f000000000000000000000000000000000000000000000000000000007bffffffffffffffffffffffffffffffffffffffffffffffffffffffff1916827bffffffffffffffffffffffffffffffffffffffffffffffffffffffff1916145b806121a357506121a2826123b1565b5b9050919050565b6121b583838361241b565b505050565b505050565b6121c9838361252f565b6121d6600084848461221a565b612215576040517f08c379a000000000000000000000000000000000000000000000000000000000815260040161220c9061357f565b60405180910390fd5b505050565b600061223b8473ffffffffffffffffffffffffffffffffffffffff16612709565b156123a4578373ffffffffffffffffffffffffffffffffffffffff1663150b7a02612264611945565b8786866040518563ffffffff1660e01b815260040161228694939291906134d6565b602060405180830381600087803b1580156122a057600080fd5b505af19250505080156122d157506040513d601f19601f820116820180604052508101906122ce9190612ec5565b60015b612354573d8060008114612301576040519150601f19603f3d011682016040523d82523d6000602084013e612306565b606091505b5060008151141561234c576040517f08c379a00000000000000000000000000000000000000000000000000000000081526004016123439061357f565b60405180910390fd5b805181602001fd5b63150b7a0260e01b7bffffffffffffffffffffffffffffffffffffffffffffffffffffffff1916817bffffffffffffffffffffffffffffffffffffffffffffffffffffffff1916149150506123a9565b600190505b949350505050565b60007f01ffc9a7000000000000000000000000000000000000000000000000000000007bffffffffffffffffffffffffffffffffffffffffffffffffffffffff1916827bffffffffffffffffffffffffffffffffffffffffffffffffffffffff1916149050919050565b61242683838361272c565b600073ffffffffffffffffffffffffffffffffffffffff168373ffffffffffffffffffffffffffffffffffffffff1614156124695761246481612731565b6124a8565b8173ffffffffffffffffffffffffffffffffffffffff168373ffffffffffffffffffffffffffffffffffffffff16146124a7576124a6838261277a565b5b5b600073ffffffffffffffffffffffffffffffffffffffff168273ffffffffffffffffffffffffffffffffffffffff1614156124eb576124e6816128e7565b61252a565b8273ffffffffffffffffffffffffffffffffffffffff168273ffffffffffffffffffffffffffffffffffffffff16146125295761252882826129b8565b5b5b505050565b600073ffffffffffffffffffffffffffffffffffffffff168273ffffffffffffffffffffffffffffffffffffffff16141561259f576040517f08c379a00000000000000000000000000000000000000000000000000000000081526004016125969061369f565b60405180910390fd5b6125a8816118d9565b156125e8576040517f08c379a00000000000000000000000000000000000000000000000000000000081526004016125df906135bf565b60405180910390fd5b6125f4600083836121aa565b6001600360008473ffffffffffffffffffffffffffffffffffffffff1673ffffffffffffffffffffffffffffffffffffffff16815260200190815260200160002060008282546126449190613990565b92505081905550816002600083815260200190815260200160002060006101000a81548173ffffffffffffffffffffffffffffffffffffffff021916908373ffffffffffffffffffffffffffffffffffffffff160217905550808273ffffffffffffffffffffffffffffffffffffffff16600073ffffffffffffffffffffffffffffffffffffffff167fddf252ad1be2c89b69c2b068fc378daa952ba7f163c4a11628f55a4df523b3ef60405160405180910390a4612705600083836121ba565b5050565b6000808273ffffffffffffffffffffffffffffffffffffffff163b119050919050565b505050565b6008805490506009600083815260200190815260200160002081905550600881908060018154018082558091505060019003906000526020600020016000909190919091505550565b6000600161278784611017565b6127919190613a17565b9050600060076000848152602001908152602001600020549050818114612876576000600660008673ffffffffffffffffffffffffffffffffffffffff1673ffffffffffffffffffffffffffffffffffffffff168152602001908152602001600020600084815260200190815260200160002054905080600660008773ffffffffffffffffffffffffffffffffffffffff1673ffffffffffffffffffffffffffffffffffffffff168152602001908152602001600020600084815260200190815260200160002081905550816007600083815260200190815260200160002081905550505b6007600084815260200190815260200160002060009055600660008573ffffffffffffffffffffffffffffffffffffffff1673ffffffffffffffffffffffffffffffffffffffff16815260200190815260200160002060008381526020019081526020016000206000905550505050565b600060016008805490506128fb9190613a17565b905060006009600084815260200190815260200160002054905060006008838154811061292b5761292a613ca4565b5b90600052602060002001549050806008838154811061294d5761294c613ca4565b5b90600052602060002001819055508160096000838152602001908152602001600020819055506009600085815260200190815260200160002060009055600880548061299c5761299b613c75565b5b6001900381819060005260206000200160009055905550505050565b60006129c383611017565b905081600660008573ffffffffffffffffffffffffffffffffffffffff1673ffffffffffffffffffffffffffffffffffffffff168152602001908152602001600020600083815260200190815260200160002081905550806007600084815260200190815260200160002081905550505050565b6040518061018001604052806000815260200160008152602001600081526020016000815260200160008152602001600081526020016000815260200160008152602001600081526020016000815260200160008152602001600081525090565b6000612aab612aa6846138e3565b6138be565b905082815260208101848484011115612ac757612ac6613d0c565b5b612ad2848285613ac9565b509392505050565b600081359050612ae9816141aa565b92915050565b600081359050612afe816141c1565b92915050565b600081519050612b13816141d8565b92915050565b600081359050612b28816141ef565b92915050565b600081519050612b3d816141ef565b92915050565b600082601f830112612b5857612b57613d02565b5b8135612b68848260208601612a98565b91505092915050565b60006101808284031215612b8857612b87613d07565b5b612b936101806138be565b90506000612ba384828501612c93565b6000830152506020612bb784828501612c93565b6020830152506040612bcb84828501612c93565b6040830152506060612bdf84828501612c93565b6060830152506080612bf384828501612c93565b60808301525060a0612c0784828501612c93565b60a08301525060c0612c1b84828501612c93565b60c08301525060e0612c2f84828501612c93565b60e083015250610100612c4484828501612c93565b61010083015250610120612c5a84828501612c93565b61012083015250610140612c7084828501612c93565b61014083015250610160612c8684828501612c93565b6101608301525092915050565b600081359050612ca281614206565b92915050565b600060208284031215612cbe57612cbd613d16565b5b6000612ccc84828501612ada565b91505092915050565b60008060408385031215612cec57612ceb613d16565b5b6000612cfa85828601612ada565b9250506020612d0b85828601612ada565b9150509250929050565b600080600060608486031215612d2e57612d2d613d16565b5b6000612d3c86828701612ada565b9350506020612d4d86828701612ada565b9250506040612d5e86828701612c93565b9150509250925092565b60008060008060808587031215612d8257612d81613d16565b5b6000612d9087828801612ada565b9450506020612da187828801612ada565b9350506040612db287828801612c93565b925050606085013567ffffffffffffffff811115612dd357612dd2613d11565b5b612ddf87828801612b43565b91505092959194509250565b60008060408385031215612e0257612e01613d16565b5b6000612e1085828601612ada565b9250506020612e2185828601612aef565b9150509250929050565b60008060408385031215612e4257612e41613d16565b5b6000612e5085828601612ada565b9250506020612e6185828601612c93565b9150509250929050565b600060208284031215612e8157612e80613d16565b5b6000612e8f84828501612b04565b91505092915050565b600060208284031215612eae57612ead613d16565b5b6000612ebc84828501612b19565b91505092915050565b600060208284031215612edb57612eda613d16565b5b6000612ee984828501612b2e565b91505092915050565b600060208284031215612f0857612f07613d16565b5b6000612f1684828501612c93565b91505092915050565b6000806000806103408587031215612f3a57612f39613d16565b5b6000612f4887828801612c93565b9450506020612f5987828801612b71565b9350506101a0612f6b87828801612b71565b925050610320612f7d87828801612c93565b91505092959194509250565b60008060408385031215612fa057612f9f613d16565b5b6000612fae85828601612c93565b9250506020612fbf85828601612c93565b9150509250929050565b600080600060608486031215612fe257612fe1613d16565b5b6000612ff086828701612c93565b935050602061300186828701612c93565b925050604061301286828701612c93565b9150509250925092565b60006130288383613479565b60208301905092915050565b61303d81613a4b565b82525050565b600061304e82613924565b6130588185613952565b935061306383613914565b8060005b8381101561309457815161307b888261301c565b975061308683613945565b925050600181019050613067565b5085935050505092915050565b6130aa81613a5d565b82525050565b60006130bb8261392f565b6130c58185613963565b93506130d5818560208601613ad8565b6130de81613d1b565b840191505092915050565b60006130f48261393a565b6130fe8185613974565b935061310e818560208601613ad8565b61311781613d1b565b840191505092915050565b600061312d8261393a565b6131378185613985565b9350613147818560208601613ad8565b80840191505092915050565b6000613160602b83613974565b915061316b82613d2c565b604082019050919050565b6000613183603283613974565b915061318e82613d7b565b604082019050919050565b60006131a6602583613974565b91506131b182613dca565b604082019050919050565b60006131c9601c83613974565b91506131d482613e19565b602082019050919050565b60006131ec602483613974565b91506131f782613e42565b604082019050919050565b600061320f601983613974565b915061321a82613e91565b602082019050919050565b6000613232602c83613974565b915061323d82613eba565b604082019050919050565b6000613255603883613974565b915061326082613f09565b604082019050919050565b6000613278602a83613974565b915061328382613f58565b604082019050919050565b600061329b602983613974565b91506132a682613fa7565b604082019050919050565b60006132be602083613974565b91506132c982613ff6565b602082019050919050565b60006132e1602c83613974565b91506132ec8261401f565b604082019050919050565b6000613304602f83613974565b915061330f8261406e565b604082019050919050565b6000613327602183613974565b9150613332826140bd565b604082019050919050565b600061334a603183613974565b91506133558261410c565b604082019050919050565b600061336d602c83613974565b91506133788261415b565b604082019050919050565b6101808201600082015161339a6000850182613479565b5060208201516133ad6020850182613479565b5060408201516133c06040850182613479565b5060608201516133d36060850182613479565b5060808201516133e66080850182613479565b5060a08201516133f960a0850182613479565b5060c082015161340c60c0850182613479565b5060e082015161341f60e0850182613479565b50610100820151613434610100850182613479565b50610120820151613449610120850182613479565b5061014082015161345e610140850182613479565b50610160820151613473610160850182613479565b50505050565b61348281613abf565b82525050565b61349181613abf565b82525050565b60006134a38285613122565b91506134af8284613122565b91508190509392505050565b60006020820190506134d06000830184613034565b92915050565b60006080820190506134eb6000830187613034565b6134f86020830186613034565b6135056040830185613488565b818103606083015261351781846130b0565b905095945050505050565b600060208201905061353760008301846130a1565b92915050565b6000602082019050818103600083015261355781846130e9565b905092915050565b6000602082019050818103600083015261357881613153565b9050919050565b6000602082019050818103600083015261359881613176565b9050919050565b600060208201905081810360008301526135b881613199565b9050919050565b600060208201905081810360008301526135d8816131bc565b9050919050565b600060208201905081810360008301526135f8816131df565b9050919050565b6000602082019050818103600083015261361881613202565b9050919050565b6000602082019050818103600083015261363881613225565b9050919050565b6000602082019050818103600083015261365881613248565b9050919050565b600060208201905081810360008301526136788161326b565b9050919050565b600060208201905081810360008301526136988161328e565b9050919050565b600060208201905081810360008301526136b8816132b1565b9050919050565b600060208201905081810360008301526136d8816132d4565b9050919050565b600060208201905081810360008301526136f8816132f7565b9050919050565b600060208201905081810360008301526137188161331a565b9050919050565b600060208201905081810360008301526137388161333d565b9050919050565b6000602082019050818103600083015261375881613360565b9050919050565b6000610180820190506137756000830184613383565b92915050565b60006020820190506137906000830184613488565b92915050565b60006040820190506137ab6000830185613488565b81810360208301526137bd8184613043565b90509392505050565b60006060820190506137db6000830186613488565b6137e86020830185613488565b81810360408301526137fa8184613043565b9050949350505050565b60006101808201905061381a600083018f613488565b613827602083018e613488565b613834604083018d613488565b613841606083018c613488565b61384e608083018b613488565b61385b60a083018a613488565b61386860c0830189613488565b61387560e0830188613488565b613883610100830187613488565b613891610120830186613488565b61389f610140830185613488565b6138ad610160830184613488565b9d9c50505050505050505050505050565b60006138c86138d9565b90506138d48282613b3d565b919050565b6000604051905090565b600067ffffffffffffffff8211156138fe576138fd613cd3565b5b61390782613d1b565b9050602081019050919050565b6000819050602082019050919050565b600081519050919050565b600081519050919050565b600081519050919050565b6000602082019050919050565b600082825260208201905092915050565b600082825260208201905092915050565b600082825260208201905092915050565b600081905092915050565b600061399b82613abf565b91506139a683613abf565b9250827fffffffffffffffffffffffffffffffffffffffffffffffffffffffffffffffff038211156139db576139da613be8565b5b828201905092915050565b60006139f182613abf565b91506139fc83613abf565b925082613a0c57613a0b613c17565b5b828204905092915050565b6000613a2282613abf565b9150613a2d83613abf565b925082821015613a4057613a3f613be8565b5b828203905092915050565b6000613a5682613a9f565b9050919050565b60008115159050919050565b6000819050919050565b60007fffffffff0000000000000000000000000000000000000000000000000000000082169050919050565b600073ffffffffffffffffffffffffffffffffffffffff82169050919050565b6000819050919050565b82818337600083830152505050565b60005b83811015613af6578082015181840152602081019050613adb565b83811115613b05576000848401525b50505050565b60006002820490506001821680613b2357607f821691505b60208210811415613b3757613b36613c46565b5b50919050565b613b4682613d1b565b810181811067ffffffffffffffff82111715613b6557613b64613cd3565b5b80604052505050565b6000613b7982613abf565b91507fffffffffffffffffffffffffffffffffffffffffffffffffffffffffffffffff821415613bac57613bab613be8565b5b600182019050919050565b6000613bc282613abf565b9150613bcd83613abf565b925082613bdd57613bdc613c17565b5b828206905092915050565b7f4e487b7100000000000000000000000000000000000000000000000000000000600052601160045260246000fd5b7f4e487b7100000000000000000000000000000000000000000000000000000000600052601260045260246000fd5b7f4e487b7100000000000000000000000000000000000000000000000000000000600052602260045260246000fd5b7f4e487b7100000000000000000000000000000000000000000000000000000000600052603160045260246000fd5b7f4e487b7100000000000000000000000000000000000000000000000000000000600052603260045260246000fd5b7f4e487b7100000000000000000000000000000000000000000000000000000000600052604160045260246000fd5b600080fd5b600080fd5b600080fd5b600080fd5b600080fd5b6000601f19601f8301169050919050565b7f455243373231456e756d657261626c653a206f776e657220696e646578206f7560008201527f74206f6620626f756e6473000000000000000000000000000000000000000000602082015250565b7f4552433732313a207472616e7366657220746f206e6f6e20455243373231526560008201527f63656976657220696d706c656d656e7465720000000000000000000000000000602082015250565b7f4552433732313a207472616e736665722066726f6d20696e636f72726563742060008201527f6f776e6572000000000000000000000000000000000000000000000000000000602082015250565b7f4552433732313a20746f6b656e20616c7265616479206d696e74656400000000600082015250565b7f4552433732313a207472616e7366657220746f20746865207a65726f2061646460008201527f7265737300000000000000000000000000000000000000000000000000000000602082015250565b7f4552433732313a20617070726f766520746f2063616c6c657200000000000000600082015250565b7f4552433732313a206f70657261746f7220717565727920666f72206e6f6e657860008201527f697374656e7420746f6b656e0000000000000000000000000000000000000000602082015250565b7f4552433732313a20617070726f76652063616c6c6572206973206e6f74206f7760008201527f6e6572206e6f7220617070726f76656420666f7220616c6c0000000000000000602082015250565b7f4552433732313a2062616c616e636520717565727920666f7220746865207a6560008201527f726f206164647265737300000000000000000000000000000000000000000000602082015250565b7f4552433732313a206f776e657220717565727920666f72206e6f6e657869737460008201527f656e7420746f6b656e0000000000000000000000000000000000000000000000602082015250565b7f4552433732313a206d696e7420746f20746865207a65726f2061646472657373600082015250565b7f4552433732313a20617070726f76656420717565727920666f72206e6f6e657860008201527f697374656e7420746f6b656e0000000000000000000000000000000000000000602082015250565b7f4552433732314d657461646174613a2055524920717565727920666f72206e6f60008201527f6e6578697374656e7420746f6b656e0000000000000000000000000000000000602082015250565b7f4552433732313a20617070726f76616c20746f2063757272656e74206f776e6560008201527f7200000000000000000000000000000000000000000000000000000000000000602082015250565b7f4552433732313a207472616e736665722063616c6c6572206973206e6f74206f60008201527f776e6572206e6f7220617070726f766564000000000000000000000000000000602082015250565b7f455243373231456e756d657261626c653a20676c6f62616c20696e646578206f60008201527f7574206f6620626f756e64730000000000000000000000000000000000000000602082015250565b6141b381613a4b565b81146141be57600080fd5b50565b6141ca81613a5d565b81146141d557600080fd5b50565b6141e181613a69565b81146141ec57600080fd5b50565b6141f881613a73565b811461420357600080fd5b50565b61420f81613abf565b811461421a57600080fd5b5056fea2646970667358221220f173eaad11e2e4838a7b17c920385bc1bcac38d1e79d9e21cff66d571b8a173964736f6c63430008070033",
			"opcodes": "PUSH1 0x80 PUSH1 0x40 MSTORE PUSH32 0x65CA4F13A991313394D97395BED9E06E80270A0078A9B9A39C841DB4A066BED PUSH1 0xC SSTORE PUSH1 0x0 PUSH1 0xD SSTORE CALLVALUE DUP1 ISZERO PUSH3 0x3A JUMPI PUSH1 0x0 DUP1 REVERT JUMPDEST POP PUSH1 0x40 MLOAD DUP1 PUSH1 0x40 ADD PUSH1 0x40 MSTORE DUP1 PUSH1 0x3 DUP2 MSTORE PUSH1 0x20 ADD PUSH32 0x4E46540000000000000000000000000000000000000000000000000000000000 DUP2 MSTORE POP PUSH1 0x40 MLOAD DUP1 PUSH1 0x40 ADD PUSH1 0x40 MSTORE DUP1 PUSH1 0x2 DUP2 MSTORE PUSH1 0x20 ADD PUSH32 0x4343000000000000000000000000000000000000000000000000000000000000 DUP2 MSTORE POP DUP2 PUSH1 0x0 SWAP1 DUP1 MLOAD SWAP1 PUSH1 0x20 ADD SWAP1 PUSH3 0xBF SWAP3 SWAP2 SWAP1 PUSH3 0x136 JUMP JUMPDEST POP DUP1 PUSH1 0x1 SWAP1 DUP1 MLOAD SWAP1 PUSH1 0x20 ADD SWAP1 PUSH3 0xD8 SWAP3 SWAP2 SWAP1 PUSH3 0x136 JUMP JUMPDEST POP POP POP PUSH20 0xDE29D060D45901FB19ED6C6E959EB22D8626708E PUSH1 0xB PUSH1 0x0 PUSH2 0x100 EXP DUP2 SLOAD DUP2 PUSH20 0xFFFFFFFFFFFFFFFFFFFFFFFFFFFFFFFFFFFFFFFF MUL NOT AND SWAP1 DUP4 PUSH20 0xFFFFFFFFFFFFFFFFFFFFFFFFFFFFFFFFFFFFFFFF AND MUL OR SWAP1 SSTORE POP PUSH3 0x24B JUMP JUMPDEST DUP3 DUP1 SLOAD PUSH3 0x144 SWAP1 PUSH3 0x1E6 JUMP JUMPDEST SWAP1 PUSH1 0x0 MSTORE PUSH1 0x20 PUSH1 0x0 KECCAK256 SWAP1 PUSH1 0x1F ADD PUSH1 0x20 SWAP1 DIV DUP2 ADD SWAP3 DUP3 PUSH3 0x168 JUMPI PUSH1 0x0 DUP6 SSTORE PUSH3 0x1B4 JUMP JUMPDEST DUP3 PUSH1 0x1F LT PUSH3 0x183 JUMPI DUP1 MLOAD PUSH1 0xFF NOT AND DUP4 DUP1 ADD OR DUP6 SSTORE PUSH3 0x1B4 JUMP JUMPDEST DUP3 DUP1 ADD PUSH1 0x1 ADD DUP6 SSTORE DUP3 ISZERO PUSH3 0x1B4 JUMPI SWAP2 DUP3 ADD JUMPDEST DUP3 DUP2 GT ISZERO PUSH3 0x1B3 JUMPI DUP3 MLOAD DUP3 SSTORE SWAP2 PUSH1 0x20 ADD SWAP2 SWAP1 PUSH1 0x1 ADD SWAP1 PUSH3 0x196 JUMP JUMPDEST JUMPDEST POP SWAP1 POP PUSH3 0x1C3 SWAP2 SWAP1 PUSH3 0x1C7 JUMP JUMPDEST POP SWAP1 JUMP JUMPDEST JUMPDEST DUP1 DUP3 GT ISZERO PUSH3 0x1E2 JUMPI PUSH1 0x0 DUP2 PUSH1 0x0 SWAP1 SSTORE POP PUSH1 0x1 ADD PUSH3 0x1C8 JUMP JUMPDEST POP SWAP1 JUMP JUMPDEST PUSH1 0x0 PUSH1 0x2 DUP3 DIV SWAP1 POP PUSH1 0x1 DUP3 AND DUP1 PUSH3 0x1FF JUMPI PUSH1 0x7F DUP3 AND SWAP2 POP JUMPDEST PUSH1 0x20 DUP3 LT DUP2 EQ ISZERO PUSH3 0x216 JUMPI PUSH3 0x215 PUSH3 0x21C JUMP JUMPDEST JUMPDEST POP SWAP2 SWAP1 POP JUMP JUMPDEST PUSH32 0x4E487B7100000000000000000000000000000000000000000000000000000000 PUSH1 0x0 MSTORE PUSH1 0x22 PUSH1 0x4 MSTORE PUSH1 0x24 PUSH1 0x0 REVERT JUMPDEST PUSH2 0x4253 DUP1 PUSH3 0x25B PUSH1 0x0 CODECOPY PUSH1 0x0 RETURN INVALID PUSH1 0x80 PUSH1 0x40 MSTORE PUSH1 0x4 CALLDATASIZE LT PUSH2 0x140 JUMPI PUSH1 0x0 CALLDATALOAD PUSH1 0xE0 SHR DUP1 PUSH4 0x6352211E GT PUSH2 0xB6 JUMPI DUP1 PUSH4 0xA22CB465 GT PUSH2 0x6F JUMPI DUP1 PUSH4 0xA22CB465 EQ PUSH2 0x4A2 JUMPI DUP1 PUSH4 0xB88D4FDE EQ PUSH2 0x4CB JUMPI DUP1 PUSH4 0xC87B56DD EQ PUSH2 0x4F4 JUMPI DUP1 PUSH4 0xD82FE3B7 EQ PUSH2 0x531 JUMPI DUP1 PUSH4 0xDDF19A31 EQ PUSH2 0x579 JUMPI DUP1 PUSH4 0xE985E9C5 EQ PUSH2 0x5A2 JUMPI PUSH2 0x140 JUMP JUMPDEST DUP1 PUSH4 0x6352211E EQ PUSH2 0x363 JUMPI DUP1 PUSH4 0x70A08231 EQ PUSH2 0x3A0 JUMPI DUP1 PUSH4 0x7151FB98 EQ PUSH2 0x3DD JUMPI DUP1 PUSH4 0x85831079 EQ PUSH2 0x406 JUMPI DUP1 PUSH4 0x95D89B41 EQ PUSH2 0x44E JUMPI DUP1 PUSH4 0xA0712D68 EQ PUSH2 0x479 JUMPI PUSH2 0x140 JUMP JUMPDEST DUP1 PUSH4 0x23B872DD GT PUSH2 0x108 JUMPI DUP1 PUSH4 0x23B872DD EQ PUSH2 0x23E JUMPI DUP1 PUSH4 0x263A2D39 EQ PUSH2 0x267 JUMPI DUP1 PUSH4 0x2F745C59 EQ PUSH2 0x283 JUMPI DUP1 PUSH4 0x3A7174F8 EQ PUSH2 0x2C0 JUMPI DUP1 PUSH4 0x42842E0E EQ PUSH2 0x2FD JUMPI DUP1 PUSH4 0x4F6CCCE7 EQ PUSH2 0x326 JUMPI PUSH2 0x140 JUMP JUMPDEST DUP1 PUSH4 0x1FFC9A7 EQ PUSH2 0x145 JUMPI DUP1 PUSH4 0x6FDDE03 EQ PUSH2 0x182 JUMPI DUP1 PUSH4 0x81812FC EQ PUSH2 0x1AD JUMPI DUP1 PUSH4 0x95EA7B3 EQ PUSH2 0x1EA JUMPI DUP1 PUSH4 0x18160DDD EQ PUSH2 0x213 JUMPI JUMPDEST PUSH1 0x0 DUP1 REVERT JUMPDEST CALLVALUE DUP1 ISZERO PUSH2 0x151 JUMPI PUSH1 0x0 DUP1 REVERT JUMPDEST POP PUSH2 0x16C PUSH1 0x4 DUP1 CALLDATASIZE SUB DUP2 ADD SWAP1 PUSH2 0x167 SWAP2 SWAP1 PUSH2 0x2E98 JUMP JUMPDEST PUSH2 0x5DF JUMP JUMPDEST PUSH1 0x40 MLOAD PUSH2 0x179 SWAP2 SWAP1 PUSH2 0x3522 JUMP JUMPDEST PUSH1 0x40 MLOAD DUP1 SWAP2 SUB SWAP1 RETURN JUMPDEST CALLVALUE DUP1 ISZERO PUSH2 0x18E JUMPI PUSH1 0x0 DUP1 REVERT JUMPDEST POP PUSH2 0x197 PUSH2 0x5F1 JUMP JUMPDEST PUSH1 0x40 MLOAD PUSH2 0x1A4 SWAP2 SWAP1 PUSH2 0x353D JUMP JUMPDEST PUSH1 0x40 MLOAD DUP1 SWAP2 SUB SWAP1 RETURN JUMPDEST CALLVALUE DUP1 ISZERO PUSH2 0x1B9 JUMPI PUSH1 0x0 DUP1 REVERT JUMPDEST POP PUSH2 0x1D4 PUSH1 0x4 DUP1 CALLDATASIZE SUB DUP2 ADD SWAP1 PUSH2 0x1CF SWAP2 SWAP1 PUSH2 0x2EF2 JUMP JUMPDEST PUSH2 0x683 JUMP JUMPDEST PUSH1 0x40 MLOAD PUSH2 0x1E1 SWAP2 SWAP1 PUSH2 0x34BB JUMP JUMPDEST PUSH1 0x40 MLOAD DUP1 SWAP2 SUB SWAP1 RETURN JUMPDEST CALLVALUE DUP1 ISZERO PUSH2 0x1F6 JUMPI PUSH1 0x0 DUP1 REVERT JUMPDEST POP PUSH2 0x211 PUSH1 0x4 DUP1 CALLDATASIZE SUB DUP2 ADD SWAP1 PUSH2 0x20C SWAP2 SWAP1 PUSH2 0x2E2B JUMP JUMPDEST PUSH2 0x708 JUMP JUMPDEST STOP JUMPDEST CALLVALUE DUP1 ISZERO PUSH2 0x21F JUMPI PUSH1 0x0 DUP1 REVERT JUMPDEST POP PUSH2 0x228 PUSH2 0x820 JUMP JUMPDEST PUSH1 0x40 MLOAD PUSH2 0x235 SWAP2 SWAP1 PUSH2 0x377B JUMP JUMPDEST PUSH1 0x40 MLOAD DUP1 SWAP2 SUB SWAP1 RETURN JUMPDEST CALLVALUE DUP1 ISZERO PUSH2 0x24A JUMPI PUSH1 0x0 DUP1 REVERT JUMPDEST POP PUSH2 0x265 PUSH1 0x4 DUP1 CALLDATASIZE SUB DUP2 ADD SWAP1 PUSH2 0x260 SWAP2 SWAP1 PUSH2 0x2D15 JUMP JUMPDEST PUSH2 0x82D JUMP JUMPDEST STOP JUMPDEST PUSH2 0x281 PUSH1 0x4 DUP1 CALLDATASIZE SUB DUP2 ADD SWAP1 PUSH2 0x27C SWAP2 SWAP1 PUSH2 0x2F1F JUMP JUMPDEST PUSH2 0x88D JUMP JUMPDEST STOP JUMPDEST CALLVALUE DUP1 ISZERO PUSH2 0x28F JUMPI PUSH1 0x0 DUP1 REVERT JUMPDEST POP PUSH2 0x2AA PUSH1 0x4 DUP1 CALLDATASIZE SUB DUP2 ADD SWAP1 PUSH2 0x2A5 SWAP2 SWAP1 PUSH2 0x2E2B JUMP JUMPDEST PUSH2 0xD56 JUMP JUMPDEST PUSH1 0x40 MLOAD PUSH2 0x2B7 SWAP2 SWAP1 PUSH2 0x377B JUMP JUMPDEST PUSH1 0x40 MLOAD DUP1 SWAP2 SUB SWAP1 RETURN JUMPDEST CALLVALUE DUP1 ISZERO PUSH2 0x2CC JUMPI PUSH1 0x0 DUP1 REVERT JUMPDEST POP PUSH2 0x2E7 PUSH1 0x4 DUP1 CALLDATASIZE SUB DUP2 ADD SWAP1 PUSH2 0x2E2 SWAP2 SWAP1 PUSH2 0x2F89 JUMP JUMPDEST PUSH2 0xDFB JUMP JUMPDEST PUSH1 0x40 MLOAD PUSH2 0x2F4 SWAP2 SWAP1 PUSH2 0x375F JUMP JUMPDEST PUSH1 0x40 MLOAD DUP1 SWAP2 SUB SWAP1 RETURN JUMPDEST CALLVALUE DUP1 ISZERO PUSH2 0x309 JUMPI PUSH1 0x0 DUP1 REVERT JUMPDEST POP PUSH2 0x324 PUSH1 0x4 DUP1 CALLDATASIZE SUB DUP2 ADD SWAP1 PUSH2 0x31F SWAP2 SWAP1 PUSH2 0x2D15 JUMP JUMPDEST PUSH2 0xED4 JUMP JUMPDEST STOP JUMPDEST CALLVALUE DUP1 ISZERO PUSH2 0x332 JUMPI PUSH1 0x0 DUP1 REVERT JUMPDEST POP PUSH2 0x34D PUSH1 0x4 DUP1 CALLDATASIZE SUB DUP2 ADD SWAP1 PUSH2 0x348 SWAP2 SWAP1 PUSH2 0x2EF2 JUMP JUMPDEST PUSH2 0xEF4 JUMP JUMPDEST PUSH1 0x40 MLOAD PUSH2 0x35A SWAP2 SWAP1 PUSH2 0x377B JUMP JUMPDEST PUSH1 0x40 MLOAD DUP1 SWAP2 SUB SWAP1 RETURN JUMPDEST CALLVALUE DUP1 ISZERO PUSH2 0x36F JUMPI PUSH1 0x0 DUP1 REVERT JUMPDEST POP PUSH2 0x38A PUSH1 0x4 DUP1 CALLDATASIZE SUB DUP2 ADD SWAP1 PUSH2 0x385 SWAP2 SWAP1 PUSH2 0x2EF2 JUMP JUMPDEST PUSH2 0xF65 JUMP JUMPDEST PUSH1 0x40 MLOAD PUSH2 0x397 SWAP2 SWAP1 PUSH2 0x34BB JUMP JUMPDEST PUSH1 0x40 MLOAD DUP1 SWAP2 SUB SWAP1 RETURN JUMPDEST CALLVALUE DUP1 ISZERO PUSH2 0x3AC JUMPI PUSH1 0x0 DUP1 REVERT JUMPDEST POP PUSH2 0x3C7 PUSH1 0x4 DUP1 CALLDATASIZE SUB DUP2 ADD SWAP1 PUSH2 0x3C2 SWAP2 SWAP1 PUSH2 0x2CA8 JUMP JUMPDEST PUSH2 0x1017 JUMP JUMPDEST PUSH1 0x40 MLOAD PUSH2 0x3D4 SWAP2 SWAP1 PUSH2 0x377B JUMP JUMPDEST PUSH1 0x40 MLOAD DUP1 SWAP2 SUB SWAP1 RETURN JUMPDEST CALLVALUE DUP1 ISZERO PUSH2 0x3E9 JUMPI PUSH1 0x0 DUP1 REVERT JUMPDEST POP PUSH2 0x404 PUSH1 0x4 DUP1 CALLDATASIZE SUB DUP2 ADD SWAP1 PUSH2 0x3FF SWAP2 SWAP1 PUSH2 0x2F89 JUMP JUMPDEST PUSH2 0x10CF JUMP JUMPDEST STOP JUMPDEST CALLVALUE DUP1 ISZERO PUSH2 0x412 JUMPI PUSH1 0x0 DUP1 REVERT JUMPDEST POP PUSH2 0x42D PUSH1 0x4 DUP1 CALLDATASIZE SUB DUP2 ADD SWAP1 PUSH2 0x428 SWAP2 SWAP1 PUSH2 0x2EF2 JUMP JUMPDEST PUSH2 0x1232 JUMP JUMPDEST PUSH1 0x40 MLOAD PUSH2 0x445 SWAP13 SWAP12 SWAP11 SWAP10 SWAP9 SWAP8 SWAP7 SWAP6 SWAP5 SWAP4 SWAP3 SWAP2 SWAP1 PUSH2 0x3804 JUMP JUMPDEST PUSH1 0x40 MLOAD DUP1 SWAP2 SUB SWAP1 RETURN JUMPDEST CALLVALUE DUP1 ISZERO PUSH2 0x45A JUMPI PUSH1 0x0 DUP1 REVERT JUMPDEST POP PUSH2 0x463 PUSH2 0x12A2 JUMP JUMPDEST PUSH1 0x40 MLOAD PUSH2 0x470 SWAP2 SWAP1 PUSH2 0x353D JUMP JUMPDEST PUSH1 0x40 MLOAD DUP1 SWAP2 SUB SWAP1 RETURN JUMPDEST CALLVALUE DUP1 ISZERO PUSH2 0x485 JUMPI PUSH1 0x0 DUP1 REVERT JUMPDEST POP PUSH2 0x4A0 PUSH1 0x4 DUP1 CALLDATASIZE SUB DUP2 ADD SWAP1 PUSH2 0x49B SWAP2 SWAP1 PUSH2 0x2EF2 JUMP JUMPDEST PUSH2 0x1334 JUMP JUMPDEST STOP JUMPDEST CALLVALUE DUP1 ISZERO PUSH2 0x4AE JUMPI PUSH1 0x0 DUP1 REVERT JUMPDEST POP PUSH2 0x4C9 PUSH1 0x4 DUP1 CALLDATASIZE SUB DUP2 ADD SWAP1 PUSH2 0x4C4 SWAP2 SWAP1 PUSH2 0x2DEB JUMP JUMPDEST PUSH2 0x1456 JUMP JUMPDEST STOP JUMPDEST CALLVALUE DUP1 ISZERO PUSH2 0x4D7 JUMPI PUSH1 0x0 DUP1 REVERT JUMPDEST POP PUSH2 0x4F2 PUSH1 0x4 DUP1 CALLDATASIZE SUB DUP2 ADD SWAP1 PUSH2 0x4ED SWAP2 SWAP1 PUSH2 0x2D68 JUMP JUMPDEST PUSH2 0x146C JUMP JUMPDEST STOP JUMPDEST CALLVALUE DUP1 ISZERO PUSH2 0x500 JUMPI PUSH1 0x0 DUP1 REVERT JUMPDEST POP PUSH2 0x51B PUSH1 0x4 DUP1 CALLDATASIZE SUB DUP2 ADD SWAP1 PUSH2 0x516 SWAP2 SWAP1 PUSH2 0x2EF2 JUMP JUMPDEST PUSH2 0x14CE JUMP JUMPDEST PUSH1 0x40 MLOAD PUSH2 0x528 SWAP2 SWAP1 PUSH2 0x353D JUMP JUMPDEST PUSH1 0x40 MLOAD DUP1 SWAP2 SUB SWAP1 RETURN JUMPDEST CALLVALUE DUP1 ISZERO PUSH2 0x53D JUMPI PUSH1 0x0 DUP1 REVERT JUMPDEST POP PUSH2 0x558 PUSH1 0x4 DUP1 CALLDATASIZE SUB DUP2 ADD SWAP1 PUSH2 0x553 SWAP2 SWAP1 PUSH2 0x2EF2 JUMP JUMPDEST PUSH2 0x1575 JUMP JUMPDEST PUSH1 0x40 MLOAD PUSH2 0x570 SWAP13 SWAP12 SWAP11 SWAP10 SWAP9 SWAP8 SWAP7 SWAP6 SWAP5 SWAP4 SWAP3 SWAP2 SWAP1 PUSH2 0x3804 JUMP JUMPDEST PUSH1 0x40 MLOAD DUP1 SWAP2 SUB SWAP1 RETURN JUMPDEST CALLVALUE DUP1 ISZERO PUSH2 0x585 JUMPI PUSH1 0x0 DUP1 REVERT JUMPDEST POP PUSH2 0x5A0 PUSH1 0x4 DUP1 CALLDATASIZE SUB DUP2 ADD SWAP1 PUSH2 0x59B SWAP2 SWAP1 PUSH2 0x2FC9 JUMP JUMPDEST PUSH2 0x15D5 JUMP JUMPDEST STOP JUMPDEST CALLVALUE DUP1 ISZERO PUSH2 0x5AE JUMPI PUSH1 0x0 DUP1 REVERT JUMPDEST POP PUSH2 0x5C9 PUSH1 0x4 DUP1 CALLDATASIZE SUB DUP2 ADD SWAP1 PUSH2 0x5C4 SWAP2 SWAP1 PUSH2 0x2CD5 JUMP JUMPDEST PUSH2 0x17CB JUMP JUMPDEST PUSH1 0x40 MLOAD PUSH2 0x5D6 SWAP2 SWAP1 PUSH2 0x3522 JUMP JUMPDEST PUSH1 0x40 MLOAD DUP1 SWAP2 SUB SWAP1 RETURN JUMPDEST PUSH1 0x0 PUSH2 0x5EA DUP3 PUSH2 0x185F JUMP JUMPDEST SWAP1 POP SWAP2 SWAP1 POP JUMP JUMPDEST PUSH1 0x60 PUSH1 0x0 DUP1 SLOAD PUSH2 0x600 SWAP1 PUSH2 0x3B0B JUMP JUMPDEST DUP1 PUSH1 0x1F ADD PUSH1 0x20 DUP1 SWAP2 DIV MUL PUSH1 0x20 ADD PUSH1 0x40 MLOAD SWAP1 DUP2 ADD PUSH1 0x40 MSTORE DUP1 SWAP3 SWAP2 SWAP1 DUP2 DUP2 MSTORE PUSH1 0x20 ADD DUP3 DUP1 SLOAD PUSH2 0x62C SWAP1 PUSH2 0x3B0B JUMP JUMPDEST DUP1 ISZERO PUSH2 0x679 JUMPI DUP1 PUSH1 0x1F LT PUSH2 0x64E JUMPI PUSH2 0x100 DUP1 DUP4 SLOAD DIV MUL DUP4 MSTORE SWAP2 PUSH1 0x20 ADD SWAP2 PUSH2 0x679 JUMP JUMPDEST DUP3 ADD SWAP2 SWAP1 PUSH1 0x0 MSTORE PUSH1 0x20 PUSH1 0x0 KECCAK256 SWAP1 JUMPDEST DUP2 SLOAD DUP2 MSTORE SWAP1 PUSH1 0x1 ADD SWAP1 PUSH1 0x20 ADD DUP1 DUP4 GT PUSH2 0x65C JUMPI DUP3 SWAP1 SUB PUSH1 0x1F AND DUP3 ADD SWAP2 JUMPDEST POP POP POP POP POP SWAP1 POP SWAP1 JUMP JUMPDEST PUSH1 0x0 PUSH2 0x68E DUP3 PUSH2 0x18D9 JUMP JUMPDEST PUSH2 0x6CD JUMPI PUSH1 0x40 MLOAD PUSH32 0x8C379A000000000000000000000000000000000000000000000000000000000 DUP2 MSTORE PUSH1 0x4 ADD PUSH2 0x6C4 SWAP1 PUSH2 0x36BF JUMP JUMPDEST PUSH1 0x40 MLOAD DUP1 SWAP2 SUB SWAP1 REVERT JUMPDEST PUSH1 0x4 PUSH1 0x0 DUP4 DUP2 MSTORE PUSH1 0x20 ADD SWAP1 DUP2 MSTORE PUSH1 0x20 ADD PUSH1 0x0 KECCAK256 PUSH1 0x0 SWAP1 SLOAD SWAP1 PUSH2 0x100 EXP SWAP1 DIV PUSH20 0xFFFFFFFFFFFFFFFFFFFFFFFFFFFFFFFFFFFFFFFF AND SWAP1 POP SWAP2 SWAP1 POP JUMP JUMPDEST PUSH1 0x0 PUSH2 0x713 DUP3 PUSH2 0xF65 JUMP JUMPDEST SWAP1 POP DUP1 PUSH20 0xFFFFFFFFFFFFFFFFFFFFFFFFFFFFFFFFFFFFFFFF AND DUP4 PUSH20 0xFFFFFFFFFFFFFFFFFFFFFFFFFFFFFFFFFFFFFFFF AND EQ ISZERO PUSH2 0x784 JUMPI PUSH1 0x40 MLOAD PUSH32 0x8C379A000000000000000000000000000000000000000000000000000000000 DUP2 MSTORE PUSH1 0x4 ADD PUSH2 0x77B SWAP1 PUSH2 0x36FF JUMP JUMPDEST PUSH1 0x40 MLOAD DUP1 SWAP2 SUB SWAP1 REVERT JUMPDEST DUP1 PUSH20 0xFFFFFFFFFFFFFFFFFFFFFFFFFFFFFFFFFFFFFFFF AND PUSH2 0x7A3 PUSH2 0x1945 JUMP JUMPDEST PUSH20 0xFFFFFFFFFFFFFFFFFFFFFFFFFFFFFFFFFFFFFFFF AND EQ DUP1 PUSH2 0x7D2 JUMPI POP PUSH2 0x7D1 DUP2 PUSH2 0x7CC PUSH2 0x1945 JUMP JUMPDEST PUSH2 0x17CB JUMP JUMPDEST JUMPDEST PUSH2 0x811 JUMPI PUSH1 0x40 MLOAD PUSH32 0x8C379A000000000000000000000000000000000000000000000000000000000 DUP2 MSTORE PUSH1 0x4 ADD PUSH2 0x808 SWAP1 PUSH2 0x363F JUMP JUMPDEST PUSH1 0x40 MLOAD DUP1 SWAP2 SUB SWAP1 REVERT JUMPDEST PUSH2 0x81B DUP4 DUP4 PUSH2 0x194D JUMP JUMPDEST POP POP POP JUMP JUMPDEST PUSH1 0x0 PUSH1 0x8 DUP1 SLOAD SWAP1 POP SWAP1 POP SWAP1 JUMP JUMPDEST PUSH2 0x83E PUSH2 0x838 PUSH2 0x1945 JUMP JUMPDEST DUP3 PUSH2 0x1A06 JUMP JUMPDEST PUSH2 0x87D JUMPI PUSH1 0x40 MLOAD PUSH32 0x8C379A000000000000000000000000000000000000000000000000000000000 DUP2 MSTORE PUSH1 0x4 ADD PUSH2 0x874 SWAP1 PUSH2 0x371F JUMP JUMPDEST PUSH1 0x40 MLOAD DUP1 SWAP2 SUB SWAP1 REVERT JUMPDEST PUSH2 0x888 DUP4 DUP4 DUP4 PUSH2 0x1AE4 JUMP JUMPDEST POP POP POP JUMP JUMPDEST PUSH1 0x0 PUSH1 0x19 PUSH8 0xFFFFFFFFFFFFFFFF DUP2 GT ISZERO PUSH2 0x8AA JUMPI PUSH2 0x8A9 PUSH2 0x3CD3 JUMP JUMPDEST JUMPDEST PUSH1 0x40 MLOAD SWAP1 DUP1 DUP3 MSTORE DUP1 PUSH1 0x20 MUL PUSH1 0x20 ADD DUP3 ADD PUSH1 0x40 MSTORE DUP1 ISZERO PUSH2 0x8D8 JUMPI DUP2 PUSH1 0x20 ADD PUSH1 0x20 DUP3 MUL DUP1 CALLDATASIZE DUP4 CALLDATACOPY DUP1 DUP3 ADD SWAP2 POP POP SWAP1 POP JUMPDEST POP SWAP1 POP DUP4 PUSH1 0x0 ADD MLOAD DUP2 PUSH1 0x0 DUP2 MLOAD DUP2 LT PUSH2 0x8F4 JUMPI PUSH2 0x8F3 PUSH2 0x3CA4 JUMP JUMPDEST JUMPDEST PUSH1 0x20 MUL PUSH1 0x20 ADD ADD DUP2 DUP2 MSTORE POP POP DUP4 PUSH1 0x20 ADD MLOAD DUP2 PUSH1 0x1 DUP2 MLOAD DUP2 LT PUSH2 0x919 JUMPI PUSH2 0x918 PUSH2 0x3CA4 JUMP JUMPDEST JUMPDEST PUSH1 0x20 MUL PUSH1 0x20 ADD ADD DUP2 DUP2 MSTORE POP POP DUP4 PUSH1 0x40 ADD MLOAD DUP2 PUSH1 0x2 DUP2 MLOAD DUP2 LT PUSH2 0x93E JUMPI PUSH2 0x93D PUSH2 0x3CA4 JUMP JUMPDEST JUMPDEST PUSH1 0x20 MUL PUSH1 0x20 ADD ADD DUP2 DUP2 MSTORE POP POP DUP4 PUSH1 0x60 ADD MLOAD DUP2 PUSH1 0x3 DUP2 MLOAD DUP2 LT PUSH2 0x963 JUMPI PUSH2 0x962 PUSH2 0x3CA4 JUMP JUMPDEST JUMPDEST PUSH1 0x20 MUL PUSH1 0x20 ADD ADD DUP2 DUP2 MSTORE POP POP DUP4 PUSH1 0x80 ADD MLOAD DUP2 PUSH1 0x4 DUP2 MLOAD DUP2 LT PUSH2 0x988 JUMPI PUSH2 0x987 PUSH2 0x3CA4 JUMP JUMPDEST JUMPDEST PUSH1 0x20 MUL PUSH1 0x20 ADD ADD DUP2 DUP2 MSTORE POP POP DUP4 PUSH1 0xA0 ADD MLOAD DUP2 PUSH1 0x5 DUP2 MLOAD DUP2 LT PUSH2 0x9AD JUMPI PUSH2 0x9AC PUSH2 0x3CA4 JUMP JUMPDEST JUMPDEST PUSH1 0x20 MUL PUSH1 0x20 ADD ADD DUP2 DUP2 MSTORE POP POP DUP4 PUSH1 0xC0 ADD MLOAD DUP2 PUSH1 0x6 DUP2 MLOAD DUP2 LT PUSH2 0x9D2 JUMPI PUSH2 0x9D1 PUSH2 0x3CA4 JUMP JUMPDEST JUMPDEST PUSH1 0x20 MUL PUSH1 0x20 ADD ADD DUP2 DUP2 MSTORE POP POP DUP4 PUSH1 0xE0 ADD MLOAD DUP2 PUSH1 0x7 DUP2 MLOAD DUP2 LT PUSH2 0x9F7 JUMPI PUSH2 0x9F6 PUSH2 0x3CA4 JUMP JUMPDEST JUMPDEST PUSH1 0x20 MUL PUSH1 0x20 ADD ADD DUP2 DUP2 MSTORE POP POP DUP4 PUSH2 0x100 ADD MLOAD DUP2 PUSH1 0x8 DUP2 MLOAD DUP2 LT PUSH2 0xA1D JUMPI PUSH2 0xA1C PUSH2 0x3CA4 JUMP JUMPDEST JUMPDEST PUSH1 0x20 MUL PUSH1 0x20 ADD ADD DUP2 DUP2 MSTORE POP POP DUP4 PUSH2 0x120 ADD MLOAD DUP2 PUSH1 0x9 DUP2 MLOAD DUP2 LT PUSH2 0xA43 JUMPI PUSH2 0xA42 PUSH2 0x3CA4 JUMP JUMPDEST JUMPDEST PUSH1 0x20 MUL PUSH1 0x20 ADD ADD DUP2 DUP2 MSTORE POP POP DUP4 PUSH2 0x140 ADD MLOAD DUP2 PUSH1 0xA DUP2 MLOAD DUP2 LT PUSH2 0xA69 JUMPI PUSH2 0xA68 PUSH2 0x3CA4 JUMP JUMPDEST JUMPDEST PUSH1 0x20 MUL PUSH1 0x20 ADD ADD DUP2 DUP2 MSTORE POP POP DUP4 PUSH2 0x160 ADD MLOAD DUP2 PUSH1 0xB DUP2 MLOAD DUP2 LT PUSH2 0xA8F JUMPI PUSH2 0xA8E PUSH2 0x3CA4 JUMP JUMPDEST JUMPDEST PUSH1 0x20 MUL PUSH1 0x20 ADD ADD DUP2 DUP2 MSTORE POP POP DUP3 PUSH1 0x0 ADD MLOAD DUP2 PUSH1 0xC DUP2 MLOAD DUP2 LT PUSH2 0xAB4 JUMPI PUSH2 0xAB3 PUSH2 0x3CA4 JUMP JUMPDEST JUMPDEST PUSH1 0x20 MUL PUSH1 0x20 ADD ADD DUP2 DUP2 MSTORE POP POP DUP3 PUSH1 0x20 ADD MLOAD DUP2 PUSH1 0xD DUP2 MLOAD DUP2 LT PUSH2 0xAD9 JUMPI PUSH2 0xAD8 PUSH2 0x3CA4 JUMP JUMPDEST JUMPDEST PUSH1 0x20 MUL PUSH1 0x20 ADD ADD DUP2 DUP2 MSTORE POP POP DUP3 PUSH1 0x40 ADD MLOAD DUP2 PUSH1 0xE DUP2 MLOAD DUP2 LT PUSH2 0xAFE JUMPI PUSH2 0xAFD PUSH2 0x3CA4 JUMP JUMPDEST JUMPDEST PUSH1 0x20 MUL PUSH1 0x20 ADD ADD DUP2 DUP2 MSTORE POP POP DUP3 PUSH1 0x60 ADD MLOAD DUP2 PUSH1 0xF DUP2 MLOAD DUP2 LT PUSH2 0xB23 JUMPI PUSH2 0xB22 PUSH2 0x3CA4 JUMP JUMPDEST JUMPDEST PUSH1 0x20 MUL PUSH1 0x20 ADD ADD DUP2 DUP2 MSTORE POP POP DUP3 PUSH1 0x80 ADD MLOAD DUP2 PUSH1 0x10 DUP2 MLOAD DUP2 LT PUSH2 0xB48 JUMPI PUSH2 0xB47 PUSH2 0x3CA4 JUMP JUMPDEST JUMPDEST PUSH1 0x20 MUL PUSH1 0x20 ADD ADD DUP2 DUP2 MSTORE POP POP DUP3 PUSH1 0xA0 ADD MLOAD DUP2 PUSH1 0x11 DUP2 MLOAD DUP2 LT PUSH2 0xB6D JUMPI PUSH2 0xB6C PUSH2 0x3CA4 JUMP JUMPDEST JUMPDEST PUSH1 0x20 MUL PUSH1 0x20 ADD ADD DUP2 DUP2 MSTORE POP POP DUP3 PUSH1 0xC0 ADD MLOAD DUP2 PUSH1 0x12 DUP2 MLOAD DUP2 LT PUSH2 0xB92 JUMPI PUSH2 0xB91 PUSH2 0x3CA4 JUMP JUMPDEST JUMPDEST PUSH1 0x20 MUL PUSH1 0x20 ADD ADD DUP2 DUP2 MSTORE POP POP DUP3 PUSH1 0xE0 ADD MLOAD DUP2 PUSH1 0x13 DUP2 MLOAD DUP2 LT PUSH2 0xBB7 JUMPI PUSH2 0xBB6 PUSH2 0x3CA4 JUMP JUMPDEST JUMPDEST PUSH1 0x20 MUL PUSH1 0x20 ADD ADD DUP2 DUP2 MSTORE POP POP DUP3 PUSH2 0x100 ADD MLOAD DUP2 PUSH1 0x14 DUP2 MLOAD DUP2 LT PUSH2 0xBDD JUMPI PUSH2 0xBDC PUSH2 0x3CA4 JUMP JUMPDEST JUMPDEST PUSH1 0x20 MUL PUSH1 0x20 ADD ADD DUP2 DUP2 MSTORE POP POP DUP3 PUSH2 0x120 ADD MLOAD DUP2 PUSH1 0x15 DUP2 MLOAD DUP2 LT PUSH2 0xC03 JUMPI PUSH2 0xC02 PUSH2 0x3CA4 JUMP JUMPDEST JUMPDEST PUSH1 0x20 MUL PUSH1 0x20 ADD ADD DUP2 DUP2 MSTORE POP POP DUP3 PUSH2 0x140 ADD MLOAD DUP2 PUSH1 0x16 DUP2 MLOAD DUP2 LT PUSH2 0xC29 JUMPI PUSH2 0xC28 PUSH2 0x3CA4 JUMP JUMPDEST JUMPDEST PUSH1 0x20 MUL PUSH1 0x20 ADD ADD DUP2 DUP2 MSTORE POP POP DUP3 PUSH2 0x160 ADD MLOAD DUP2 PUSH1 0x17 DUP2 MLOAD DUP2 LT PUSH2 0xC4F JUMPI PUSH2 0xC4E PUSH2 0x3CA4 JUMP JUMPDEST JUMPDEST PUSH1 0x20 MUL PUSH1 0x20 ADD ADD DUP2 DUP2 MSTORE POP POP DUP2 DUP2 PUSH1 0x18 DUP2 MLOAD DUP2 LT PUSH2 0xC70 JUMPI PUSH2 0xC6F PUSH2 0x3CA4 JUMP JUMPDEST JUMPDEST PUSH1 0x20 MUL PUSH1 0x20 ADD ADD DUP2 DUP2 MSTORE POP POP PUSH1 0xB PUSH1 0x0 SWAP1 SLOAD SWAP1 PUSH2 0x100 EXP SWAP1 DIV PUSH20 0xFFFFFFFFFFFFFFFFFFFFFFFFFFFFFFFFFFFFFFFF AND PUSH20 0xFFFFFFFFFFFFFFFFFFFFFFFFFFFFFFFFFFFFFFFF AND PUSH4 0x3E3AA6C5 CALLVALUE DUP8 PUSH32 0x397F7783310F752C90187FFFBD53489B1FF1F87FCF4636E32DC6BCBBF0B224F DUP6 PUSH1 0x40 MLOAD DUP6 PUSH4 0xFFFFFFFF AND PUSH1 0xE0 SHL DUP2 MSTORE PUSH1 0x4 ADD PUSH2 0xCFC SWAP4 SWAP3 SWAP2 SWAP1 PUSH2 0x37C6 JUMP JUMPDEST PUSH1 0x20 PUSH1 0x40 MLOAD DUP1 DUP4 SUB DUP2 DUP6 DUP9 DUP1 EXTCODESIZE ISZERO DUP1 ISZERO PUSH2 0xD15 JUMPI PUSH1 0x0 DUP1 REVERT JUMPDEST POP GAS CALL ISZERO DUP1 ISZERO PUSH2 0xD29 JUMPI RETURNDATASIZE PUSH1 0x0 DUP1 RETURNDATACOPY RETURNDATASIZE PUSH1 0x0 REVERT JUMPDEST POP POP POP POP POP PUSH1 0x40 MLOAD RETURNDATASIZE PUSH1 0x1F NOT PUSH1 0x1F DUP3 ADD AND DUP3 ADD DUP1 PUSH1 0x40 MSTORE POP DUP2 ADD SWAP1 PUSH2 0xD4E SWAP2 SWAP1 PUSH2 0x2E6B JUMP JUMPDEST POP POP POP POP POP POP JUMP JUMPDEST PUSH1 0x0 PUSH2 0xD61 DUP4 PUSH2 0x1017 JUMP JUMPDEST DUP3 LT PUSH2 0xDA2 JUMPI PUSH1 0x40 MLOAD PUSH32 0x8C379A000000000000000000000000000000000000000000000000000000000 DUP2 MSTORE PUSH1 0x4 ADD PUSH2 0xD99 SWAP1 PUSH2 0x355F JUMP JUMPDEST PUSH1 0x40 MLOAD DUP1 SWAP2 SUB SWAP1 REVERT JUMPDEST PUSH1 0x6 PUSH1 0x0 DUP5 PUSH20 0xFFFFFFFFFFFFFFFFFFFFFFFFFFFFFFFFFFFFFFFF AND PUSH20 0xFFFFFFFFFFFFFFFFFFFFFFFFFFFFFFFFFFFFFFFF AND DUP2 MSTORE PUSH1 0x20 ADD SWAP1 DUP2 MSTORE PUSH1 0x20 ADD PUSH1 0x0 KECCAK256 PUSH1 0x0 DUP4 DUP2 MSTORE PUSH1 0x20 ADD SWAP1 DUP2 MSTORE PUSH1 0x20 ADD PUSH1 0x0 KECCAK256 SLOAD SWAP1 POP SWAP3 SWAP2 POP POP JUMP JUMPDEST PUSH2 0xE03 PUSH2 0x2A37 JUMP JUMPDEST PUSH1 0x1 DUP4 EQ ISZERO PUSH2 0xE6F JUMPI PUSH1 0x40 MLOAD DUP1 PUSH2 0x180 ADD PUSH1 0x40 MSTORE DUP1 DUP4 DUP2 MSTORE PUSH1 0x20 ADD PUSH1 0x98 DUP2 MSTORE PUSH1 0x20 ADD PUSH1 0x6F DUP2 MSTORE PUSH1 0x20 ADD PUSH1 0x6A DUP2 MSTORE PUSH1 0x20 ADD PUSH1 0x6F DUP2 MSTORE PUSH1 0x20 ADD PUSH1 0x8 DUP2 MSTORE PUSH1 0x20 ADD PUSH1 0x0 DUP2 MSTORE PUSH1 0x20 ADD PUSH1 0x8 DUP2 MSTORE PUSH1 0x20 ADD PUSH1 0x1E DUP2 MSTORE PUSH1 0x20 ADD PUSH1 0xB DUP2 MSTORE PUSH1 0x20 ADD PUSH1 0x28 DUP2 MSTORE PUSH1 0x20 ADD DUP5 DUP2 MSTORE POP SWAP1 POP PUSH2 0xECE JUMP JUMPDEST PUSH1 0x40 MLOAD DUP1 PUSH2 0x180 ADD PUSH1 0x40 MSTORE DUP1 DUP4 DUP2 MSTORE PUSH1 0x20 ADD PUSH1 0x8E DUP2 MSTORE PUSH1 0x20 ADD PUSH1 0x75 DUP2 MSTORE PUSH1 0x20 ADD PUSH1 0x9C DUP2 MSTORE PUSH1 0x20 ADD PUSH1 0x65 DUP2 MSTORE PUSH1 0x20 ADD PUSH1 0x3 DUP2 MSTORE PUSH1 0x20 ADD PUSH1 0x0 DUP2 MSTORE PUSH1 0x20 ADD PUSH1 0x3 DUP2 MSTORE PUSH1 0x20 ADD PUSH1 0x1E DUP2 MSTORE PUSH1 0x20 ADD PUSH1 0xB DUP2 MSTORE PUSH1 0x20 ADD PUSH1 0x23 DUP2 MSTORE PUSH1 0x20 ADD DUP5 DUP2 MSTORE POP SWAP1 POP JUMPDEST SWAP3 SWAP2 POP POP JUMP JUMPDEST PUSH2 0xEEF DUP4 DUP4 DUP4 PUSH1 0x40 MLOAD DUP1 PUSH1 0x20 ADD PUSH1 0x40 MSTORE DUP1 PUSH1 0x0 DUP2 MSTORE POP PUSH2 0x146C JUMP JUMPDEST POP POP POP JUMP JUMPDEST PUSH1 0x0 PUSH2 0xEFE PUSH2 0x820 JUMP JUMPDEST DUP3 LT PUSH2 0xF3F JUMPI PUSH1 0x40 MLOAD PUSH32 0x8C379A000000000000000000000000000000000000000000000000000000000 DUP2 MSTORE PUSH1 0x4 ADD PUSH2 0xF36 SWAP1 PUSH2 0x373F JUMP JUMPDEST PUSH1 0x40 MLOAD DUP1 SWAP2 SUB SWAP1 REVERT JUMPDEST PUSH1 0x8 DUP3 DUP2 SLOAD DUP2 LT PUSH2 0xF53 JUMPI PUSH2 0xF52 PUSH2 0x3CA4 JUMP JUMPDEST JUMPDEST SWAP1 PUSH1 0x0 MSTORE PUSH1 0x20 PUSH1 0x0 KECCAK256 ADD SLOAD SWAP1 POP SWAP2 SWAP1 POP JUMP JUMPDEST PUSH1 0x0 DUP1 PUSH1 0x2 PUSH1 0x0 DUP5 DUP2 MSTORE PUSH1 0x20 ADD SWAP1 DUP2 MSTORE PUSH1 0x20 ADD PUSH1 0x0 KECCAK256 PUSH1 0x0 SWAP1 SLOAD SWAP1 PUSH2 0x100 EXP SWAP1 DIV PUSH20 0xFFFFFFFFFFFFFFFFFFFFFFFFFFFFFFFFFFFFFFFF AND SWAP1 POP PUSH1 0x0 PUSH20 0xFFFFFFFFFFFFFFFFFFFFFFFFFFFFFFFFFFFFFFFF AND DUP2 PUSH20 0xFFFFFFFFFFFFFFFFFFFFFFFFFFFFFFFFFFFFFFFF AND EQ ISZERO PUSH2 0x100E JUMPI PUSH1 0x40 MLOAD PUSH32 0x8C379A000000000000000000000000000000000000000000000000000000000 DUP2 MSTORE PUSH1 0x4 ADD PUSH2 0x1005 SWAP1 PUSH2 0x367F JUMP JUMPDEST PUSH1 0x40 MLOAD DUP1 SWAP2 SUB SWAP1 REVERT JUMPDEST DUP1 SWAP2 POP POP SWAP2 SWAP1 POP JUMP JUMPDEST PUSH1 0x0 DUP1 PUSH20 0xFFFFFFFFFFFFFFFFFFFFFFFFFFFFFFFFFFFFFFFF AND DUP3 PUSH20 0xFFFFFFFFFFFFFFFFFFFFFFFFFFFFFFFFFFFFFFFF AND EQ ISZERO PUSH2 0x1088 JUMPI PUSH1 0x40 MLOAD PUSH32 0x8C379A000000000000000000000000000000000000000000000000000000000 DUP2 MSTORE PUSH1 0x4 ADD PUSH2 0x107F SWAP1 PUSH2 0x365F JUMP JUMPDEST PUSH1 0x40 MLOAD DUP1 SWAP2 SUB SWAP1 REVERT JUMPDEST PUSH1 0x3 PUSH1 0x0 DUP4 PUSH20 0xFFFFFFFFFFFFFFFFFFFFFFFFFFFFFFFFFFFFFFFF AND PUSH20 0xFFFFFFFFFFFFFFFFFFFFFFFFFFFFFFFFFFFFFFFF AND DUP2 MSTORE PUSH1 0x20 ADD SWAP1 DUP2 MSTORE PUSH1 0x20 ADD PUSH1 0x0 KECCAK256 SLOAD SWAP1 POP SWAP2 SWAP1 POP JUMP JUMPDEST PUSH2 0x122E PUSH1 0xC SLOAD PUSH1 0xA DUP5 DUP2 SLOAD DUP2 LT PUSH2 0x10E9 JUMPI PUSH2 0x10E8 PUSH2 0x3CA4 JUMP JUMPDEST JUMPDEST SWAP1 PUSH1 0x0 MSTORE PUSH1 0x20 PUSH1 0x0 KECCAK256 SWAP1 PUSH1 0xC MUL ADD PUSH1 0x40 MLOAD DUP1 PUSH2 0x180 ADD PUSH1 0x40 MSTORE SWAP1 DUP2 PUSH1 0x0 DUP3 ADD SLOAD DUP2 MSTORE PUSH1 0x20 ADD PUSH1 0x1 DUP3 ADD SLOAD DUP2 MSTORE PUSH1 0x20 ADD PUSH1 0x2 DUP3 ADD SLOAD DUP2 MSTORE PUSH1 0x20 ADD PUSH1 0x3 DUP3 ADD SLOAD DUP2 MSTORE PUSH1 0x20 ADD PUSH1 0x4 DUP3 ADD SLOAD DUP2 MSTORE PUSH1 0x20 ADD PUSH1 0x5 DUP3 ADD SLOAD DUP2 MSTORE PUSH1 0x20 ADD PUSH1 0x6 DUP3 ADD SLOAD DUP2 MSTORE PUSH1 0x20 ADD PUSH1 0x7 DUP3 ADD SLOAD DUP2 MSTORE PUSH1 0x20 ADD PUSH1 0x8 DUP3 ADD SLOAD DUP2 MSTORE PUSH1 0x20 ADD PUSH1 0x9 DUP3 ADD SLOAD DUP2 MSTORE PUSH1 0x20 ADD PUSH1 0xA DUP3 ADD SLOAD DUP2 MSTORE PUSH1 0x20 ADD PUSH1 0xB DUP3 ADD SLOAD DUP2 MSTORE POP POP PUSH1 0xA DUP5 DUP2 SLOAD DUP2 LT PUSH2 0x118F JUMPI PUSH2 0x118E PUSH2 0x3CA4 JUMP JUMPDEST JUMPDEST SWAP1 PUSH1 0x0 MSTORE PUSH1 0x20 PUSH1 0x0 KECCAK256 SWAP1 PUSH1 0xC MUL ADD PUSH1 0x40 MLOAD DUP1 PUSH2 0x180 ADD PUSH1 0x40 MSTORE SWAP1 DUP2 PUSH1 0x0 DUP3 ADD SLOAD DUP2 MSTORE PUSH1 0x20 ADD PUSH1 0x1 DUP3 ADD SLOAD DUP2 MSTORE PUSH1 0x20 ADD PUSH1 0x2 DUP3 ADD SLOAD DUP2 MSTORE PUSH1 0x20 ADD PUSH1 0x3 DUP3 ADD SLOAD DUP2 MSTORE PUSH1 0x20 ADD PUSH1 0x4 DUP3 ADD SLOAD DUP2 MSTORE PUSH1 0x20 ADD PUSH1 0x5 DUP3 ADD SLOAD DUP2 MSTORE PUSH1 0x20 ADD PUSH1 0x6 DUP3 ADD SLOAD DUP2 MSTORE PUSH1 0x20 ADD PUSH1 0x7 DUP3 ADD SLOAD DUP2 MSTORE PUSH1 0x20 ADD PUSH1 0x8 DUP3 ADD SLOAD DUP2 MSTORE PUSH1 0x20 ADD PUSH1 0x9 DUP3 ADD SLOAD DUP2 MSTORE PUSH1 0x20 ADD PUSH1 0xA DUP3 ADD SLOAD DUP2 MSTORE PUSH1 0x20 ADD PUSH1 0xB DUP3 ADD SLOAD DUP2 MSTORE POP POP PUSH2 0x1229 PUSH2 0x1D4B JUMP JUMPDEST PUSH2 0x88D JUMP JUMPDEST POP POP JUMP JUMPDEST PUSH1 0xA DUP2 DUP2 SLOAD DUP2 LT PUSH2 0x1242 JUMPI PUSH1 0x0 DUP1 REVERT JUMPDEST SWAP1 PUSH1 0x0 MSTORE PUSH1 0x20 PUSH1 0x0 KECCAK256 SWAP1 PUSH1 0xC MUL ADD PUSH1 0x0 SWAP2 POP SWAP1 POP DUP1 PUSH1 0x0 ADD SLOAD SWAP1 DUP1 PUSH1 0x1 ADD SLOAD SWAP1 DUP1 PUSH1 0x2 ADD SLOAD SWAP1 DUP1 PUSH1 0x3 ADD SLOAD SWAP1 DUP1 PUSH1 0x4 ADD SLOAD SWAP1 DUP1 PUSH1 0x5 ADD SLOAD SWAP1 DUP1 PUSH1 0x6 ADD SLOAD SWAP1 DUP1 PUSH1 0x7 ADD SLOAD SWAP1 DUP1 PUSH1 0x8 ADD SLOAD SWAP1 DUP1 PUSH1 0x9 ADD SLOAD SWAP1 DUP1 PUSH1 0xA ADD SLOAD SWAP1 DUP1 PUSH1 0xB ADD SLOAD SWAP1 POP DUP13 JUMP JUMPDEST PUSH1 0x60 PUSH1 0x1 DUP1 SLOAD PUSH2 0x12B1 SWAP1 PUSH2 0x3B0B JUMP JUMPDEST DUP1 PUSH1 0x1F ADD PUSH1 0x20 DUP1 SWAP2 DIV MUL PUSH1 0x20 ADD PUSH1 0x40 MLOAD SWAP1 DUP2 ADD PUSH1 0x40 MSTORE DUP1 SWAP3 SWAP2 SWAP1 DUP2 DUP2 MSTORE PUSH1 0x20 ADD DUP3 DUP1 SLOAD PUSH2 0x12DD SWAP1 PUSH2 0x3B0B JUMP JUMPDEST DUP1 ISZERO PUSH2 0x132A JUMPI DUP1 PUSH1 0x1F LT PUSH2 0x12FF JUMPI PUSH2 0x100 DUP1 DUP4 SLOAD DIV MUL DUP4 MSTORE SWAP2 PUSH1 0x20 ADD SWAP2 PUSH2 0x132A JUMP JUMPDEST DUP3 ADD SWAP2 SWAP1 PUSH1 0x0 MSTORE PUSH1 0x20 PUSH1 0x0 KECCAK256 SWAP1 JUMPDEST DUP2 SLOAD DUP2 MSTORE SWAP1 PUSH1 0x1 ADD SWAP1 PUSH1 0x20 ADD DUP1 DUP4 GT PUSH2 0x130D JUMPI DUP3 SWAP1 SUB PUSH1 0x1F AND DUP3 ADD SWAP2 JUMPDEST POP POP POP POP POP SWAP1 POP SWAP1 JUMP JUMPDEST PUSH1 0xE PUSH1 0x0 DUP3 DUP2 MSTORE PUSH1 0x20 ADD SWAP1 DUP2 MSTORE PUSH1 0x20 ADD PUSH1 0x0 KECCAK256 PUSH1 0x0 SWAP1 SLOAD SWAP1 PUSH2 0x100 EXP SWAP1 DIV PUSH1 0xFF AND ISZERO PUSH2 0x135F JUMPI PUSH1 0x0 DUP1 REVERT JUMPDEST PUSH1 0x0 PUSH1 0xA DUP1 SLOAD SWAP1 POP SWAP1 POP PUSH1 0xA PUSH2 0x1375 DUP4 DUP4 PUSH2 0xDFB JUMP JUMPDEST SWAP1 DUP1 PUSH1 0x1 DUP2 SLOAD ADD DUP1 DUP3 SSTORE DUP1 SWAP2 POP POP PUSH1 0x1 SWAP1 SUB SWAP1 PUSH1 0x0 MSTORE PUSH1 0x20 PUSH1 0x0 KECCAK256 SWAP1 PUSH1 0xC MUL ADD PUSH1 0x0 SWAP1 SWAP2 SWAP1 SWAP2 SWAP1 SWAP2 POP PUSH1 0x0 DUP3 ADD MLOAD DUP2 PUSH1 0x0 ADD SSTORE PUSH1 0x20 DUP3 ADD MLOAD DUP2 PUSH1 0x1 ADD SSTORE PUSH1 0x40 DUP3 ADD MLOAD DUP2 PUSH1 0x2 ADD SSTORE PUSH1 0x60 DUP3 ADD MLOAD DUP2 PUSH1 0x3 ADD SSTORE PUSH1 0x80 DUP3 ADD MLOAD DUP2 PUSH1 0x4 ADD SSTORE PUSH1 0xA0 DUP3 ADD MLOAD DUP2 PUSH1 0x5 ADD SSTORE PUSH1 0xC0 DUP3 ADD MLOAD DUP2 PUSH1 0x6 ADD SSTORE PUSH1 0xE0 DUP3 ADD MLOAD DUP2 PUSH1 0x7 ADD SSTORE PUSH2 0x100 DUP3 ADD MLOAD DUP2 PUSH1 0x8 ADD SSTORE PUSH2 0x120 DUP3 ADD MLOAD DUP2 PUSH1 0x9 ADD SSTORE PUSH2 0x140 DUP3 ADD MLOAD DUP2 PUSH1 0xA ADD SSTORE PUSH2 0x160 DUP3 ADD MLOAD DUP2 PUSH1 0xB ADD SSTORE POP POP PUSH2 0x1426 CALLER DUP3 PUSH2 0x1D69 JUMP JUMPDEST PUSH1 0x1 PUSH1 0xE PUSH1 0x0 DUP4 DUP2 MSTORE PUSH1 0x20 ADD SWAP1 DUP2 MSTORE PUSH1 0x20 ADD PUSH1 0x0 KECCAK256 PUSH1 0x0 PUSH2 0x100 EXP DUP2 SLOAD DUP2 PUSH1 0xFF MUL NOT AND SWAP1 DUP4 ISZERO ISZERO MUL OR SWAP1 SSTORE POP POP POP JUMP JUMPDEST PUSH2 0x1468 PUSH2 0x1461 PUSH2 0x1945 JUMP JUMPDEST DUP4 DUP4 PUSH2 0x1D87 JUMP JUMPDEST POP POP JUMP JUMPDEST PUSH2 0x147D PUSH2 0x1477 PUSH2 0x1945 JUMP JUMPDEST DUP4 PUSH2 0x1A06 JUMP JUMPDEST PUSH2 0x14BC JUMPI PUSH1 0x40 MLOAD PUSH32 0x8C379A000000000000000000000000000000000000000000000000000000000 DUP2 MSTORE PUSH1 0x4 ADD PUSH2 0x14B3 SWAP1 PUSH2 0x371F JUMP JUMPDEST PUSH1 0x40 MLOAD DUP1 SWAP2 SUB SWAP1 REVERT JUMPDEST PUSH2 0x14C8 DUP5 DUP5 DUP5 DUP5 PUSH2 0x1EF4 JUMP JUMPDEST POP POP POP POP JUMP JUMPDEST PUSH1 0x60 PUSH2 0x14D9 DUP3 PUSH2 0x18D9 JUMP JUMPDEST PUSH2 0x1518 JUMPI PUSH1 0x40 MLOAD PUSH32 0x8C379A000000000000000000000000000000000000000000000000000000000 DUP2 MSTORE PUSH1 0x4 ADD PUSH2 0x150F SWAP1 PUSH2 0x36DF JUMP JUMPDEST PUSH1 0x40 MLOAD DUP1 SWAP2 SUB SWAP1 REVERT JUMPDEST PUSH1 0x0 PUSH2 0x1522 PUSH2 0x1F50 JUMP JUMPDEST SWAP1 POP PUSH1 0x0 DUP2 MLOAD GT PUSH2 0x1542 JUMPI PUSH1 0x40 MLOAD DUP1 PUSH1 0x20 ADD PUSH1 0x40 MSTORE DUP1 PUSH1 0x0 DUP2 MSTORE POP PUSH2 0x156D JUMP JUMPDEST DUP1 PUSH2 0x154C DUP5 PUSH2 0x1F67 JUMP JUMPDEST PUSH1 0x40 MLOAD PUSH1 0x20 ADD PUSH2 0x155D SWAP3 SWAP2 SWAP1 PUSH2 0x3497 JUMP JUMPDEST PUSH1 0x40 MLOAD PUSH1 0x20 DUP2 DUP4 SUB SUB DUP2 MSTORE SWAP1 PUSH1 0x40 MSTORE JUMPDEST SWAP2 POP POP SWAP2 SWAP1 POP JUMP JUMPDEST PUSH1 0xF PUSH1 0x20 MSTORE DUP1 PUSH1 0x0 MSTORE PUSH1 0x40 PUSH1 0x0 KECCAK256 PUSH1 0x0 SWAP2 POP SWAP1 POP DUP1 PUSH1 0x0 ADD SLOAD SWAP1 DUP1 PUSH1 0x1 ADD SLOAD SWAP1 DUP1 PUSH1 0x2 ADD SLOAD SWAP1 DUP1 PUSH1 0x3 ADD SLOAD SWAP1 DUP1 PUSH1 0x4 ADD SLOAD SWAP1 DUP1 PUSH1 0x5 ADD SLOAD SWAP1 DUP1 PUSH1 0x6 ADD SLOAD SWAP1 DUP1 PUSH1 0x7 ADD SLOAD SWAP1 DUP1 PUSH1 0x8 ADD SLOAD SWAP1 DUP1 PUSH1 0x9 ADD SLOAD SWAP1 DUP1 PUSH1 0xA ADD SLOAD SWAP1 DUP1 PUSH1 0xB ADD SLOAD SWAP1 POP DUP13 JUMP JUMPDEST PUSH1 0x0 PUSH1 0x2 PUSH8 0xFFFFFFFFFFFFFFFF DUP2 GT ISZERO PUSH2 0x15F2 JUMPI PUSH2 0x15F1 PUSH2 0x3CD3 JUMP JUMPDEST JUMPDEST PUSH1 0x40 MLOAD SWAP1 DUP1 DUP3 MSTORE DUP1 PUSH1 0x20 MUL PUSH1 0x20 ADD DUP3 ADD PUSH1 0x40 MSTORE DUP1 ISZERO PUSH2 0x1620 JUMPI DUP2 PUSH1 0x20 ADD PUSH1 0x20 DUP3 MUL DUP1 CALLDATASIZE DUP4 CALLDATACOPY DUP1 DUP3 ADD SWAP2 POP POP SWAP1 POP JUMPDEST POP SWAP1 POP DUP3 DUP2 PUSH1 0x0 DUP2 MLOAD DUP2 LT PUSH2 0x1638 JUMPI PUSH2 0x1637 PUSH2 0x3CA4 JUMP JUMPDEST JUMPDEST PUSH1 0x20 MUL PUSH1 0x20 ADD ADD DUP2 DUP2 MSTORE POP POP DUP2 DUP2 PUSH1 0x1 DUP2 MLOAD DUP2 LT PUSH2 0x1659 JUMPI PUSH2 0x1658 PUSH2 0x3CA4 JUMP JUMPDEST JUMPDEST PUSH1 0x20 MUL PUSH1 0x20 ADD ADD DUP2 DUP2 MSTORE POP POP PUSH1 0xB PUSH1 0x0 SWAP1 SLOAD SWAP1 PUSH2 0x100 EXP SWAP1 DIV PUSH20 0xFFFFFFFFFFFFFFFFFFFFFFFFFFFFFFFFFFFFFFFF AND PUSH20 0xFFFFFFFFFFFFFFFFFFFFFFFFFFFFFFFFFFFFFFFF AND PUSH4 0x2C9DD5C0 DUP6 DUP4 PUSH1 0x40 MLOAD DUP4 PUSH4 0xFFFFFFFF AND PUSH1 0xE0 SHL DUP2 MSTORE PUSH1 0x4 ADD PUSH2 0x16C2 SWAP3 SWAP2 SWAP1 PUSH2 0x3796 JUMP JUMPDEST PUSH1 0x20 PUSH1 0x40 MLOAD DUP1 DUP4 SUB DUP2 PUSH1 0x0 DUP8 DUP1 EXTCODESIZE ISZERO DUP1 ISZERO PUSH2 0x16DC JUMPI PUSH1 0x0 DUP1 REVERT JUMPDEST POP GAS CALL ISZERO DUP1 ISZERO PUSH2 0x16F0 JUMPI RETURNDATASIZE PUSH1 0x0 DUP1 RETURNDATACOPY RETURNDATASIZE PUSH1 0x0 REVERT JUMPDEST POP POP POP POP PUSH1 0x40 MLOAD RETURNDATASIZE PUSH1 0x1F NOT PUSH1 0x1F DUP3 ADD AND DUP3 ADD DUP1 PUSH1 0x40 MSTORE POP DUP2 ADD SWAP1 PUSH2 0x1714 SWAP2 SWAP1 PUSH2 0x2E6B JUMP JUMPDEST POP PUSH1 0xA DUP4 DUP2 SLOAD DUP2 LT PUSH2 0x1729 JUMPI PUSH2 0x1728 PUSH2 0x3CA4 JUMP JUMPDEST JUMPDEST SWAP1 PUSH1 0x0 MSTORE PUSH1 0x20 PUSH1 0x0 KECCAK256 SWAP1 PUSH1 0xC MUL ADD PUSH1 0xF PUSH1 0x0 DUP5 DUP2 MSTORE PUSH1 0x20 ADD SWAP1 DUP2 MSTORE PUSH1 0x20 ADD PUSH1 0x0 KECCAK256 PUSH1 0x0 DUP3 ADD SLOAD DUP2 PUSH1 0x0 ADD SSTORE PUSH1 0x1 DUP3 ADD SLOAD DUP2 PUSH1 0x1 ADD SSTORE PUSH1 0x2 DUP3 ADD SLOAD DUP2 PUSH1 0x2 ADD SSTORE PUSH1 0x3 DUP3 ADD SLOAD DUP2 PUSH1 0x3 ADD SSTORE PUSH1 0x4 DUP3 ADD SLOAD DUP2 PUSH1 0x4 ADD SSTORE PUSH1 0x5 DUP3 ADD SLOAD DUP2 PUSH1 0x5 ADD SSTORE PUSH1 0x6 DUP3 ADD SLOAD DUP2 PUSH1 0x6 ADD SSTORE PUSH1 0x7 DUP3 ADD SLOAD DUP2 PUSH1 0x7 ADD SSTORE PUSH1 0x8 DUP3 ADD SLOAD DUP2 PUSH1 0x8 ADD SSTORE PUSH1 0x9 DUP3 ADD SLOAD DUP2 PUSH1 0x9 ADD SSTORE PUSH1 0xA DUP3 ADD SLOAD DUP2 PUSH1 0xA ADD SSTORE PUSH1 0xB DUP3 ADD SLOAD DUP2 PUSH1 0xB ADD SSTORE SWAP1 POP POP POP POP POP POP JUMP JUMPDEST PUSH1 0x0 PUSH1 0x5 PUSH1 0x0 DUP5 PUSH20 0xFFFFFFFFFFFFFFFFFFFFFFFFFFFFFFFFFFFFFFFF AND PUSH20 0xFFFFFFFFFFFFFFFFFFFFFFFFFFFFFFFFFFFFFFFF AND DUP2 MSTORE PUSH1 0x20 ADD SWAP1 DUP2 MSTORE PUSH1 0x20 ADD PUSH1 0x0 KECCAK256 PUSH1 0x0 DUP4 PUSH20 0xFFFFFFFFFFFFFFFFFFFFFFFFFFFFFFFFFFFFFFFF AND PUSH20 0xFFFFFFFFFFFFFFFFFFFFFFFFFFFFFFFFFFFFFFFF AND DUP2 MSTORE PUSH1 0x20 ADD SWAP1 DUP2 MSTORE PUSH1 0x20 ADD PUSH1 0x0 KECCAK256 PUSH1 0x0 SWAP1 SLOAD SWAP1 PUSH2 0x100 EXP SWAP1 DIV PUSH1 0xFF AND SWAP1 POP SWAP3 SWAP2 POP POP JUMP JUMPDEST PUSH1 0x0 PUSH32 0x780E9D6300000000000000000000000000000000000000000000000000000000 PUSH28 0xFFFFFFFFFFFFFFFFFFFFFFFFFFFFFFFFFFFFFFFFFFFFFFFFFFFFFFFF NOT AND DUP3 PUSH28 0xFFFFFFFFFFFFFFFFFFFFFFFFFFFFFFFFFFFFFFFFFFFFFFFFFFFFFFFF NOT AND EQ DUP1 PUSH2 0x18D2 JUMPI POP PUSH2 0x18D1 DUP3 PUSH2 0x20C8 JUMP JUMPDEST JUMPDEST SWAP1 POP SWAP2 SWAP1 POP JUMP JUMPDEST PUSH1 0x0 DUP1 PUSH20 0xFFFFFFFFFFFFFFFFFFFFFFFFFFFFFFFFFFFFFFFF AND PUSH1 0x2 PUSH1 0x0 DUP5 DUP2 MSTORE PUSH1 0x20 ADD SWAP1 DUP2 MSTORE PUSH1 0x20 ADD PUSH1 0x0 KECCAK256 PUSH1 0x0 SWAP1 SLOAD SWAP1 PUSH2 0x100 EXP SWAP1 DIV PUSH20 0xFFFFFFFFFFFFFFFFFFFFFFFFFFFFFFFFFFFFFFFF AND PUSH20 0xFFFFFFFFFFFFFFFFFFFFFFFFFFFFFFFFFFFFFFFF AND EQ ISZERO SWAP1 POP SWAP2 SWAP1 POP JUMP JUMPDEST PUSH1 0x0 CALLER SWAP1 POP SWAP1 JUMP JUMPDEST DUP2 PUSH1 0x4 PUSH1 0x0 DUP4 DUP2 MSTORE PUSH1 0x20 ADD SWAP1 DUP2 MSTORE PUSH1 0x20 ADD PUSH1 0x0 KECCAK256 PUSH1 0x0 PUSH2 0x100 EXP DUP2 SLOAD DUP2 PUSH20 0xFFFFFFFFFFFFFFFFFFFFFFFFFFFFFFFFFFFFFFFF MUL NOT AND SWAP1 DUP4 PUSH20 0xFFFFFFFFFFFFFFFFFFFFFFFFFFFFFFFFFFFFFFFF AND MUL OR SWAP1 SSTORE POP DUP1 DUP3 PUSH20 0xFFFFFFFFFFFFFFFFFFFFFFFFFFFFFFFFFFFFFFFF AND PUSH2 0x19C0 DUP4 PUSH2 0xF65 JUMP JUMPDEST PUSH20 0xFFFFFFFFFFFFFFFFFFFFFFFFFFFFFFFFFFFFFFFF AND PUSH32 0x8C5BE1E5EBEC7D5BD14F71427D1E84F3DD0314C0F7B2291E5B200AC8C7C3B925 PUSH1 0x40 MLOAD PUSH1 0x40 MLOAD DUP1 SWAP2 SUB SWAP1 LOG4 POP POP JUMP JUMPDEST PUSH1 0x0 PUSH2 0x1A11 DUP3 PUSH2 0x18D9 JUMP JUMPDEST PUSH2 0x1A50 JUMPI PUSH1 0x40 MLOAD PUSH32 0x8C379A000000000000000000000000000000000000000000000000000000000 DUP2 MSTORE PUSH1 0x4 ADD PUSH2 0x1A47 SWAP1 PUSH2 0x361F JUMP JUMPDEST PUSH1 0x40 MLOAD DUP1 SWAP2 SUB SWAP1 REVERT JUMPDEST PUSH1 0x0 PUSH2 0x1A5B DUP4 PUSH2 0xF65 JUMP JUMPDEST SWAP1 POP DUP1 PUSH20 0xFFFFFFFFFFFFFFFFFFFFFFFFFFFFFFFFFFFFFFFF AND DUP5 PUSH20 0xFFFFFFFFFFFFFFFFFFFFFFFFFFFFFFFFFFFFFFFF AND EQ DUP1 PUSH2 0x1A9D JUMPI POP PUSH2 0x1A9C DUP2 DUP6 PUSH2 0x17CB JUMP JUMPDEST JUMPDEST DUP1 PUSH2 0x1ADB JUMPI POP DUP4 PUSH20 0xFFFFFFFFFFFFFFFFFFFFFFFFFFFFFFFFFFFFFFFF AND PUSH2 0x1AC3 DUP5 PUSH2 0x683 JUMP JUMPDEST PUSH20 0xFFFFFFFFFFFFFFFFFFFFFFFFFFFFFFFFFFFFFFFF AND EQ JUMPDEST SWAP2 POP POP SWAP3 SWAP2 POP POP JUMP JUMPDEST DUP3 PUSH20 0xFFFFFFFFFFFFFFFFFFFFFFFFFFFFFFFFFFFFFFFF AND PUSH2 0x1B04 DUP3 PUSH2 0xF65 JUMP JUMPDEST PUSH20 0xFFFFFFFFFFFFFFFFFFFFFFFFFFFFFFFFFFFFFFFF AND EQ PUSH2 0x1B5A JUMPI PUSH1 0x40 MLOAD PUSH32 0x8C379A000000000000000000000000000000000000000000000000000000000 DUP2 MSTORE PUSH1 0x4 ADD PUSH2 0x1B51 SWAP1 PUSH2 0x359F JUMP JUMPDEST PUSH1 0x40 MLOAD DUP1 SWAP2 SUB SWAP1 REVERT JUMPDEST PUSH1 0x0 PUSH20 0xFFFFFFFFFFFFFFFFFFFFFFFFFFFFFFFFFFFFFFFF AND DUP3 PUSH20 0xFFFFFFFFFFFFFFFFFFFFFFFFFFFFFFFFFFFFFFFF AND EQ ISZERO PUSH2 0x1BCA JUMPI PUSH1 0x40 MLOAD PUSH32 0x8C379A000000000000000000000000000000000000000000000000000000000 DUP2 MSTORE PUSH1 0x4 ADD PUSH2 0x1BC1 SWAP1 PUSH2 0x35DF JUMP JUMPDEST PUSH1 0x40 MLOAD DUP1 SWAP2 SUB SWAP1 REVERT JUMPDEST PUSH2 0x1BD5 DUP4 DUP4 DUP4 PUSH2 0x21AA JUMP JUMPDEST PUSH2 0x1BE0 PUSH1 0x0 DUP3 PUSH2 0x194D JUMP JUMPDEST PUSH1 0x1 PUSH1 0x3 PUSH1 0x0 DUP6 PUSH20 0xFFFFFFFFFFFFFFFFFFFFFFFFFFFFFFFFFFFFFFFF AND PUSH20 0xFFFFFFFFFFFFFFFFFFFFFFFFFFFFFFFFFFFFFFFF AND DUP2 MSTORE PUSH1 0x20 ADD SWAP1 DUP2 MSTORE PUSH1 0x20 ADD PUSH1 0x0 KECCAK256 PUSH1 0x0 DUP3 DUP3 SLOAD PUSH2 0x1C30 SWAP2 SWAP1 PUSH2 0x3A17 JUMP JUMPDEST SWAP3 POP POP DUP2 SWAP1 SSTORE POP PUSH1 0x1 PUSH1 0x3 PUSH1 0x0 DUP5 PUSH20 0xFFFFFFFFFFFFFFFFFFFFFFFFFFFFFFFFFFFFFFFF AND PUSH20 0xFFFFFFFFFFFFFFFFFFFFFFFFFFFFFFFFFFFFFFFF AND DUP2 MSTORE PUSH1 0x20 ADD SWAP1 DUP2 MSTORE PUSH1 0x20 ADD PUSH1 0x0 KECCAK256 PUSH1 0x0 DUP3 DUP3 SLOAD PUSH2 0x1C87 SWAP2 SWAP1 PUSH2 0x3990 JUMP JUMPDEST SWAP3 POP POP DUP2 SWAP1 SSTORE POP DUP2 PUSH1 0x2 PUSH1 0x0 DUP4 DUP2 MSTORE PUSH1 0x20 ADD SWAP1 DUP2 MSTORE PUSH1 0x20 ADD PUSH1 0x0 KECCAK256 PUSH1 0x0 PUSH2 0x100 EXP DUP2 SLOAD DUP2 PUSH20 0xFFFFFFFFFFFFFFFFFFFFFFFFFFFFFFFFFFFFFFFF MUL NOT AND SWAP1 DUP4 PUSH20 0xFFFFFFFFFFFFFFFFFFFFFFFFFFFFFFFFFFFFFFFF AND MUL OR SWAP1 SSTORE POP DUP1 DUP3 PUSH20 0xFFFFFFFFFFFFFFFFFFFFFFFFFFFFFFFFFFFFFFFF AND DUP5 PUSH20 0xFFFFFFFFFFFFFFFFFFFFFFFFFFFFFFFFFFFFFFFF AND PUSH32 0xDDF252AD1BE2C89B69C2B068FC378DAA952BA7F163C4A11628F55A4DF523B3EF PUSH1 0x40 MLOAD PUSH1 0x40 MLOAD DUP1 SWAP2 SUB SWAP1 LOG4 PUSH2 0x1D46 DUP4 DUP4 DUP4 PUSH2 0x21BA JUMP JUMPDEST POP POP POP JUMP JUMPDEST PUSH1 0x0 PUSH1 0xD PUSH1 0x0 DUP2 SLOAD DUP1 SWAP3 SWAP2 SWAP1 PUSH2 0x1D60 SWAP1 PUSH2 0x3B6E JUMP JUMPDEST SWAP2 SWAP1 POP SSTORE SWAP1 POP SWAP1 JUMP JUMPDEST PUSH2 0x1D83 DUP3 DUP3 PUSH1 0x40 MLOAD DUP1 PUSH1 0x20 ADD PUSH1 0x40 MSTORE DUP1 PUSH1 0x0 DUP2 MSTORE POP PUSH2 0x21BF JUMP JUMPDEST POP POP JUMP JUMPDEST DUP2 PUSH20 0xFFFFFFFFFFFFFFFFFFFFFFFFFFFFFFFFFFFFFFFF AND DUP4 PUSH20 0xFFFFFFFFFFFFFFFFFFFFFFFFFFFFFFFFFFFFFFFF AND EQ ISZERO PUSH2 0x1DF6 JUMPI PUSH1 0x40 MLOAD PUSH32 0x8C379A000000000000000000000000000000000000000000000000000000000 DUP2 MSTORE PUSH1 0x4 ADD PUSH2 0x1DED SWAP1 PUSH2 0x35FF JUMP JUMPDEST PUSH1 0x40 MLOAD DUP1 SWAP2 SUB SWAP1 REVERT JUMPDEST DUP1 PUSH1 0x5 PUSH1 0x0 DUP6 PUSH20 0xFFFFFFFFFFFFFFFFFFFFFFFFFFFFFFFFFFFFFFFF AND PUSH20 0xFFFFFFFFFFFFFFFFFFFFFFFFFFFFFFFFFFFFFFFF AND DUP2 MSTORE PUSH1 0x20 ADD SWAP1 DUP2 MSTORE PUSH1 0x20 ADD PUSH1 0x0 KECCAK256 PUSH1 0x0 DUP5 PUSH20 0xFFFFFFFFFFFFFFFFFFFFFFFFFFFFFFFFFFFFFFFF AND PUSH20 0xFFFFFFFFFFFFFFFFFFFFFFFFFFFFFFFFFFFFFFFF AND DUP2 MSTORE PUSH1 0x20 ADD SWAP1 DUP2 MSTORE PUSH1 0x20 ADD PUSH1 0x0 KECCAK256 PUSH1 0x0 PUSH2 0x100 EXP DUP2 SLOAD DUP2 PUSH1 0xFF MUL NOT AND SWAP1 DUP4 ISZERO ISZERO MUL OR SWAP1 SSTORE POP DUP2 PUSH20 0xFFFFFFFFFFFFFFFFFFFFFFFFFFFFFFFFFFFFFFFF AND DUP4 PUSH20 0xFFFFFFFFFFFFFFFFFFFFFFFFFFFFFFFFFFFFFFFF AND PUSH32 0x17307EAB39AB6107E8899845AD3D59BD9653F200F220920489CA2B5937696C31 DUP4 PUSH1 0x40 MLOAD PUSH2 0x1EE7 SWAP2 SWAP1 PUSH2 0x3522 JUMP JUMPDEST PUSH1 0x40 MLOAD DUP1 SWAP2 SUB SWAP1 LOG3 POP POP POP JUMP JUMPDEST PUSH2 0x1EFF DUP5 DUP5 DUP5 PUSH2 0x1AE4 JUMP JUMPDEST PUSH2 0x1F0B DUP5 DUP5 DUP5 DUP5 PUSH2 0x221A JUMP JUMPDEST PUSH2 0x1F4A JUMPI PUSH1 0x40 MLOAD PUSH32 0x8C379A000000000000000000000000000000000000000000000000000000000 DUP2 MSTORE PUSH1 0x4 ADD PUSH2 0x1F41 SWAP1 PUSH2 0x357F JUMP JUMPDEST PUSH1 0x40 MLOAD DUP1 SWAP2 SUB SWAP1 REVERT JUMPDEST POP POP POP POP JUMP JUMPDEST PUSH1 0x60 PUSH1 0x40 MLOAD DUP1 PUSH1 0x20 ADD PUSH1 0x40 MSTORE DUP1 PUSH1 0x0 DUP2 MSTORE POP SWAP1 POP SWAP1 JUMP JUMPDEST PUSH1 0x60 PUSH1 0x0 DUP3 EQ ISZERO PUSH2 0x1FAF JUMPI PUSH1 0x40 MLOAD DUP1 PUSH1 0x40 ADD PUSH1 0x40 MSTORE DUP1 PUSH1 0x1 DUP2 MSTORE PUSH1 0x20 ADD PUSH32 0x3000000000000000000000000000000000000000000000000000000000000000 DUP2 MSTORE POP SWAP1 POP PUSH2 0x20C3 JUMP JUMPDEST PUSH1 0x0 DUP3 SWAP1 POP PUSH1 0x0 JUMPDEST PUSH1 0x0 DUP3 EQ PUSH2 0x1FE1 JUMPI DUP1 DUP1 PUSH2 0x1FCA SWAP1 PUSH2 0x3B6E JUMP JUMPDEST SWAP2 POP POP PUSH1 0xA DUP3 PUSH2 0x1FDA SWAP2 SWAP1 PUSH2 0x39E6 JUMP JUMPDEST SWAP2 POP PUSH2 0x1FB7 JUMP JUMPDEST PUSH1 0x0 DUP2 PUSH8 0xFFFFFFFFFFFFFFFF DUP2 GT ISZERO PUSH2 0x1FFD JUMPI PUSH2 0x1FFC PUSH2 0x3CD3 JUMP JUMPDEST JUMPDEST PUSH1 0x40 MLOAD SWAP1 DUP1 DUP3 MSTORE DUP1 PUSH1 0x1F ADD PUSH1 0x1F NOT AND PUSH1 0x20 ADD DUP3 ADD PUSH1 0x40 MSTORE DUP1 ISZERO PUSH2 0x202F JUMPI DUP2 PUSH1 0x20 ADD PUSH1 0x1 DUP3 MUL DUP1 CALLDATASIZE DUP4 CALLDATACOPY DUP1 DUP3 ADD SWAP2 POP POP SWAP1 POP JUMPDEST POP SWAP1 POP JUMPDEST PUSH1 0x0 DUP6 EQ PUSH2 0x20BC JUMPI PUSH1 0x1 DUP3 PUSH2 0x2048 SWAP2 SWAP1 PUSH2 0x3A17 JUMP JUMPDEST SWAP2 POP PUSH1 0xA DUP6 PUSH2 0x2057 SWAP2 SWAP1 PUSH2 0x3BB7 JUMP JUMPDEST PUSH1 0x30 PUSH2 0x2063 SWAP2 SWAP1 PUSH2 0x3990 JUMP JUMPDEST PUSH1 0xF8 SHL DUP2 DUP4 DUP2 MLOAD DUP2 LT PUSH2 0x2079 JUMPI PUSH2 0x2078 PUSH2 0x3CA4 JUMP JUMPDEST JUMPDEST PUSH1 0x20 ADD ADD SWAP1 PUSH31 0xFFFFFFFFFFFFFFFFFFFFFFFFFFFFFFFFFFFFFFFFFFFFFFFFFFFFFFFFFFFFFF NOT AND SWAP1 DUP2 PUSH1 0x0 BYTE SWAP1 MSTORE8 POP PUSH1 0xA DUP6 PUSH2 0x20B5 SWAP2 SWAP1 PUSH2 0x39E6 JUMP JUMPDEST SWAP5 POP PUSH2 0x2033 JUMP JUMPDEST DUP1 SWAP4 POP POP POP POP JUMPDEST SWAP2 SWAP1 POP JUMP JUMPDEST PUSH1 0x0 PUSH32 0x80AC58CD00000000000000000000000000000000000000000000000000000000 PUSH28 0xFFFFFFFFFFFFFFFFFFFFFFFFFFFFFFFFFFFFFFFFFFFFFFFFFFFFFFFF NOT AND DUP3 PUSH28 0xFFFFFFFFFFFFFFFFFFFFFFFFFFFFFFFFFFFFFFFFFFFFFFFFFFFFFFFF NOT AND EQ DUP1 PUSH2 0x2193 JUMPI POP PUSH32 0x5B5E139F00000000000000000000000000000000000000000000000000000000 PUSH28 0xFFFFFFFFFFFFFFFFFFFFFFFFFFFFFFFFFFFFFFFFFFFFFFFFFFFFFFFF NOT AND DUP3 PUSH28 0xFFFFFFFFFFFFFFFFFFFFFFFFFFFFFFFFFFFFFFFFFFFFFFFFFFFFFFFF NOT AND EQ JUMPDEST DUP1 PUSH2 0x21A3 JUMPI POP PUSH2 0x21A2 DUP3 PUSH2 0x23B1 JUMP JUMPDEST JUMPDEST SWAP1 POP SWAP2 SWAP1 POP JUMP JUMPDEST PUSH2 0x21B5 DUP4 DUP4 DUP4 PUSH2 0x241B JUMP JUMPDEST POP POP POP JUMP JUMPDEST POP POP POP JUMP JUMPDEST PUSH2 0x21C9 DUP4 DUP4 PUSH2 0x252F JUMP JUMPDEST PUSH2 0x21D6 PUSH1 0x0 DUP5 DUP5 DUP5 PUSH2 0x221A JUMP JUMPDEST PUSH2 0x2215 JUMPI PUSH1 0x40 MLOAD PUSH32 0x8C379A000000000000000000000000000000000000000000000000000000000 DUP2 MSTORE PUSH1 0x4 ADD PUSH2 0x220C SWAP1 PUSH2 0x357F JUMP JUMPDEST PUSH1 0x40 MLOAD DUP1 SWAP2 SUB SWAP1 REVERT JUMPDEST POP POP POP JUMP JUMPDEST PUSH1 0x0 PUSH2 0x223B DUP5 PUSH20 0xFFFFFFFFFFFFFFFFFFFFFFFFFFFFFFFFFFFFFFFF AND PUSH2 0x2709 JUMP JUMPDEST ISZERO PUSH2 0x23A4 JUMPI DUP4 PUSH20 0xFFFFFFFFFFFFFFFFFFFFFFFFFFFFFFFFFFFFFFFF AND PUSH4 0x150B7A02 PUSH2 0x2264 PUSH2 0x1945 JUMP JUMPDEST DUP8 DUP7 DUP7 PUSH1 0x40 MLOAD DUP6 PUSH4 0xFFFFFFFF AND PUSH1 0xE0 SHL DUP2 MSTORE PUSH1 0x4 ADD PUSH2 0x2286 SWAP5 SWAP4 SWAP3 SWAP2 SWAP1 PUSH2 0x34D6 JUMP JUMPDEST PUSH1 0x20 PUSH1 0x40 MLOAD DUP1 DUP4 SUB DUP2 PUSH1 0x0 DUP8 DUP1 EXTCODESIZE ISZERO DUP1 ISZERO PUSH2 0x22A0 JUMPI PUSH1 0x0 DUP1 REVERT JUMPDEST POP GAS CALL SWAP3 POP POP POP DUP1 ISZERO PUSH2 0x22D1 JUMPI POP PUSH1 0x40 MLOAD RETURNDATASIZE PUSH1 0x1F NOT PUSH1 0x1F DUP3 ADD AND DUP3 ADD DUP1 PUSH1 0x40 MSTORE POP DUP2 ADD SWAP1 PUSH2 0x22CE SWAP2 SWAP1 PUSH2 0x2EC5 JUMP JUMPDEST PUSH1 0x1 JUMPDEST PUSH2 0x2354 JUMPI RETURNDATASIZE DUP1 PUSH1 0x0 DUP2 EQ PUSH2 0x2301 JUMPI PUSH1 0x40 MLOAD SWAP2 POP PUSH1 0x1F NOT PUSH1 0x3F RETURNDATASIZE ADD AND DUP3 ADD PUSH1 0x40 MSTORE RETURNDATASIZE DUP3 MSTORE RETURNDATASIZE PUSH1 0x0 PUSH1 0x20 DUP5 ADD RETURNDATACOPY PUSH2 0x2306 JUMP JUMPDEST PUSH1 0x60 SWAP2 POP JUMPDEST POP PUSH1 0x0 DUP2 MLOAD EQ ISZERO PUSH2 0x234C JUMPI PUSH1 0x40 MLOAD PUSH32 0x8C379A000000000000000000000000000000000000000000000000000000000 DUP2 MSTORE PUSH1 0x4 ADD PUSH2 0x2343 SWAP1 PUSH2 0x357F JUMP JUMPDEST PUSH1 0x40 MLOAD DUP1 SWAP2 SUB SWAP1 REVERT JUMPDEST DUP1 MLOAD DUP2 PUSH1 0x20 ADD REVERT JUMPDEST PUSH4 0x150B7A02 PUSH1 0xE0 SHL PUSH28 0xFFFFFFFFFFFFFFFFFFFFFFFFFFFFFFFFFFFFFFFFFFFFFFFFFFFFFFFF NOT AND DUP2 PUSH28 0xFFFFFFFFFFFFFFFFFFFFFFFFFFFFFFFFFFFFFFFFFFFFFFFFFFFFFFFF NOT AND EQ SWAP2 POP POP PUSH2 0x23A9 JUMP JUMPDEST PUSH1 0x1 SWAP1 POP JUMPDEST SWAP5 SWAP4 POP POP POP POP JUMP JUMPDEST PUSH1 0x0 PUSH32 0x1FFC9A700000000000000000000000000000000000000000000000000000000 PUSH28 0xFFFFFFFFFFFFFFFFFFFFFFFFFFFFFFFFFFFFFFFFFFFFFFFFFFFFFFFF NOT AND DUP3 PUSH28 0xFFFFFFFFFFFFFFFFFFFFFFFFFFFFFFFFFFFFFFFFFFFFFFFFFFFFFFFF NOT AND EQ SWAP1 POP SWAP2 SWAP1 POP JUMP JUMPDEST PUSH2 0x2426 DUP4 DUP4 DUP4 PUSH2 0x272C JUMP JUMPDEST PUSH1 0x0 PUSH20 0xFFFFFFFFFFFFFFFFFFFFFFFFFFFFFFFFFFFFFFFF AND DUP4 PUSH20 0xFFFFFFFFFFFFFFFFFFFFFFFFFFFFFFFFFFFFFFFF AND EQ ISZERO PUSH2 0x2469 JUMPI PUSH2 0x2464 DUP2 PUSH2 0x2731 JUMP JUMPDEST PUSH2 0x24A8 JUMP JUMPDEST DUP2 PUSH20 0xFFFFFFFFFFFFFFFFFFFFFFFFFFFFFFFFFFFFFFFF AND DUP4 PUSH20 0xFFFFFFFFFFFFFFFFFFFFFFFFFFFFFFFFFFFFFFFF AND EQ PUSH2 0x24A7 JUMPI PUSH2 0x24A6 DUP4 DUP3 PUSH2 0x277A JUMP JUMPDEST JUMPDEST JUMPDEST PUSH1 0x0 PUSH20 0xFFFFFFFFFFFFFFFFFFFFFFFFFFFFFFFFFFFFFFFF AND DUP3 PUSH20 0xFFFFFFFFFFFFFFFFFFFFFFFFFFFFFFFFFFFFFFFF AND EQ ISZERO PUSH2 0x24EB JUMPI PUSH2 0x24E6 DUP2 PUSH2 0x28E7 JUMP JUMPDEST PUSH2 0x252A JUMP JUMPDEST DUP3 PUSH20 0xFFFFFFFFFFFFFFFFFFFFFFFFFFFFFFFFFFFFFFFF AND DUP3 PUSH20 0xFFFFFFFFFFFFFFFFFFFFFFFFFFFFFFFFFFFFFFFF AND EQ PUSH2 0x2529 JUMPI PUSH2 0x2528 DUP3 DUP3 PUSH2 0x29B8 JUMP JUMPDEST JUMPDEST JUMPDEST POP POP POP JUMP JUMPDEST PUSH1 0x0 PUSH20 0xFFFFFFFFFFFFFFFFFFFFFFFFFFFFFFFFFFFFFFFF AND DUP3 PUSH20 0xFFFFFFFFFFFFFFFFFFFFFFFFFFFFFFFFFFFFFFFF AND EQ ISZERO PUSH2 0x259F JUMPI PUSH1 0x40 MLOAD PUSH32 0x8C379A000000000000000000000000000000000000000000000000000000000 DUP2 MSTORE PUSH1 0x4 ADD PUSH2 0x2596 SWAP1 PUSH2 0x369F JUMP JUMPDEST PUSH1 0x40 MLOAD DUP1 SWAP2 SUB SWAP1 REVERT JUMPDEST PUSH2 0x25A8 DUP2 PUSH2 0x18D9 JUMP JUMPDEST ISZERO PUSH2 0x25E8 JUMPI PUSH1 0x40 MLOAD PUSH32 0x8C379A000000000000000000000000000000000000000000000000000000000 DUP2 MSTORE PUSH1 0x4 ADD PUSH2 0x25DF SWAP1 PUSH2 0x35BF JUMP JUMPDEST PUSH1 0x40 MLOAD DUP1 SWAP2 SUB SWAP1 REVERT JUMPDEST PUSH2 0x25F4 PUSH1 0x0 DUP4 DUP4 PUSH2 0x21AA JUMP JUMPDEST PUSH1 0x1 PUSH1 0x3 PUSH1 0x0 DUP5 PUSH20 0xFFFFFFFFFFFFFFFFFFFFFFFFFFFFFFFFFFFFFFFF AND PUSH20 0xFFFFFFFFFFFFFFFFFFFFFFFFFFFFFFFFFFFFFFFF AND DUP2 MSTORE PUSH1 0x20 ADD SWAP1 DUP2 MSTORE PUSH1 0x20 ADD PUSH1 0x0 KECCAK256 PUSH1 0x0 DUP3 DUP3 SLOAD PUSH2 0x2644 SWAP2 SWAP1 PUSH2 0x3990 JUMP JUMPDEST SWAP3 POP POP DUP2 SWAP1 SSTORE POP DUP2 PUSH1 0x2 PUSH1 0x0 DUP4 DUP2 MSTORE PUSH1 0x20 ADD SWAP1 DUP2 MSTORE PUSH1 0x20 ADD PUSH1 0x0 KECCAK256 PUSH1 0x0 PUSH2 0x100 EXP DUP2 SLOAD DUP2 PUSH20 0xFFFFFFFFFFFFFFFFFFFFFFFFFFFFFFFFFFFFFFFF MUL NOT AND SWAP1 DUP4 PUSH20 0xFFFFFFFFFFFFFFFFFFFFFFFFFFFFFFFFFFFFFFFF AND MUL OR SWAP1 SSTORE POP DUP1 DUP3 PUSH20 0xFFFFFFFFFFFFFFFFFFFFFFFFFFFFFFFFFFFFFFFF AND PUSH1 0x0 PUSH20 0xFFFFFFFFFFFFFFFFFFFFFFFFFFFFFFFFFFFFFFFF AND PUSH32 0xDDF252AD1BE2C89B69C2B068FC378DAA952BA7F163C4A11628F55A4DF523B3EF PUSH1 0x40 MLOAD PUSH1 0x40 MLOAD DUP1 SWAP2 SUB SWAP1 LOG4 PUSH2 0x2705 PUSH1 0x0 DUP4 DUP4 PUSH2 0x21BA JUMP JUMPDEST POP POP JUMP JUMPDEST PUSH1 0x0 DUP1 DUP3 PUSH20 0xFFFFFFFFFFFFFFFFFFFFFFFFFFFFFFFFFFFFFFFF AND EXTCODESIZE GT SWAP1 POP SWAP2 SWAP1 POP JUMP JUMPDEST POP POP POP JUMP JUMPDEST PUSH1 0x8 DUP1 SLOAD SWAP1 POP PUSH1 0x9 PUSH1 0x0 DUP4 DUP2 MSTORE PUSH1 0x20 ADD SWAP1 DUP2 MSTORE PUSH1 0x20 ADD PUSH1 0x0 KECCAK256 DUP2 SWAP1 SSTORE POP PUSH1 0x8 DUP2 SWAP1 DUP1 PUSH1 0x1 DUP2 SLOAD ADD DUP1 DUP3 SSTORE DUP1 SWAP2 POP POP PUSH1 0x1 SWAP1 SUB SWAP1 PUSH1 0x0 MSTORE PUSH1 0x20 PUSH1 0x0 KECCAK256 ADD PUSH1 0x0 SWAP1 SWAP2 SWAP1 SWAP2 SWAP1 SWAP2 POP SSTORE POP JUMP JUMPDEST PUSH1 0x0 PUSH1 0x1 PUSH2 0x2787 DUP5 PUSH2 0x1017 JUMP JUMPDEST PUSH2 0x2791 SWAP2 SWAP1 PUSH2 0x3A17 JUMP JUMPDEST SWAP1 POP PUSH1 0x0 PUSH1 0x7 PUSH1 0x0 DUP5 DUP2 MSTORE PUSH1 0x20 ADD SWAP1 DUP2 MSTORE PUSH1 0x20 ADD PUSH1 0x0 KECCAK256 SLOAD SWAP1 POP DUP2 DUP2 EQ PUSH2 0x2876 JUMPI PUSH1 0x0 PUSH1 0x6 PUSH1 0x0 DUP7 PUSH20 0xFFFFFFFFFFFFFFFFFFFFFFFFFFFFFFFFFFFFFFFF AND PUSH20 0xFFFFFFFFFFFFFFFFFFFFFFFFFFFFFFFFFFFFFFFF AND DUP2 MSTORE PUSH1 0x20 ADD SWAP1 DUP2 MSTORE PUSH1 0x20 ADD PUSH1 0x0 KECCAK256 PUSH1 0x0 DUP5 DUP2 MSTORE PUSH1 0x20 ADD SWAP1 DUP2 MSTORE PUSH1 0x20 ADD PUSH1 0x0 KECCAK256 SLOAD SWAP1 POP DUP1 PUSH1 0x6 PUSH1 0x0 DUP8 PUSH20 0xFFFFFFFFFFFFFFFFFFFFFFFFFFFFFFFFFFFFFFFF AND PUSH20 0xFFFFFFFFFFFFFFFFFFFFFFFFFFFFFFFFFFFFFFFF AND DUP2 MSTORE PUSH1 0x20 ADD SWAP1 DUP2 MSTORE PUSH1 0x20 ADD PUSH1 0x0 KECCAK256 PUSH1 0x0 DUP5 DUP2 MSTORE PUSH1 0x20 ADD SWAP1 DUP2 MSTORE PUSH1 0x20 ADD PUSH1 0x0 KECCAK256 DUP2 SWAP1 SSTORE POP DUP2 PUSH1 0x7 PUSH1 0x0 DUP4 DUP2 MSTORE PUSH1 0x20 ADD SWAP1 DUP2 MSTORE PUSH1 0x20 ADD PUSH1 0x0 KECCAK256 DUP2 SWAP1 SSTORE POP POP JUMPDEST PUSH1 0x7 PUSH1 0x0 DUP5 DUP2 MSTORE PUSH1 0x20 ADD SWAP1 DUP2 MSTORE PUSH1 0x20 ADD PUSH1 0x0 KECCAK256 PUSH1 0x0 SWAP1 SSTORE PUSH1 0x6 PUSH1 0x0 DUP6 PUSH20 0xFFFFFFFFFFFFFFFFFFFFFFFFFFFFFFFFFFFFFFFF AND PUSH20 0xFFFFFFFFFFFFFFFFFFFFFFFFFFFFFFFFFFFFFFFF AND DUP2 MSTORE PUSH1 0x20 ADD SWAP1 DUP2 MSTORE PUSH1 0x20 ADD PUSH1 0x0 KECCAK256 PUSH1 0x0 DUP4 DUP2 MSTORE PUSH1 0x20 ADD SWAP1 DUP2 MSTORE PUSH1 0x20 ADD PUSH1 0x0 KECCAK256 PUSH1 0x0 SWAP1 SSTORE POP POP POP POP JUMP JUMPDEST PUSH1 0x0 PUSH1 0x1 PUSH1 0x8 DUP1 SLOAD SWAP1 POP PUSH2 0x28FB SWAP2 SWAP1 PUSH2 0x3A17 JUMP JUMPDEST SWAP1 POP PUSH1 0x0 PUSH1 0x9 PUSH1 0x0 DUP5 DUP2 MSTORE PUSH1 0x20 ADD SWAP1 DUP2 MSTORE PUSH1 0x20 ADD PUSH1 0x0 KECCAK256 SLOAD SWAP1 POP PUSH1 0x0 PUSH1 0x8 DUP4 DUP2 SLOAD DUP2 LT PUSH2 0x292B JUMPI PUSH2 0x292A PUSH2 0x3CA4 JUMP JUMPDEST JUMPDEST SWAP1 PUSH1 0x0 MSTORE PUSH1 0x20 PUSH1 0x0 KECCAK256 ADD SLOAD SWAP1 POP DUP1 PUSH1 0x8 DUP4 DUP2 SLOAD DUP2 LT PUSH2 0x294D JUMPI PUSH2 0x294C PUSH2 0x3CA4 JUMP JUMPDEST JUMPDEST SWAP1 PUSH1 0x0 MSTORE PUSH1 0x20 PUSH1 0x0 KECCAK256 ADD DUP2 SWAP1 SSTORE POP DUP2 PUSH1 0x9 PUSH1 0x0 DUP4 DUP2 MSTORE PUSH1 0x20 ADD SWAP1 DUP2 MSTORE PUSH1 0x20 ADD PUSH1 0x0 KECCAK256 DUP2 SWAP1 SSTORE POP PUSH1 0x9 PUSH1 0x0 DUP6 DUP2 MSTORE PUSH1 0x20 ADD SWAP1 DUP2 MSTORE PUSH1 0x20 ADD PUSH1 0x0 KECCAK256 PUSH1 0x0 SWAP1 SSTORE PUSH1 0x8 DUP1 SLOAD DUP1 PUSH2 0x299C JUMPI PUSH2 0x299B PUSH2 0x3C75 JUMP JUMPDEST JUMPDEST PUSH1 0x1 SWAP1 SUB DUP2 DUP2 SWAP1 PUSH1 0x0 MSTORE PUSH1 0x20 PUSH1 0x0 KECCAK256 ADD PUSH1 0x0 SWAP1 SSTORE SWAP1 SSTORE POP POP POP POP JUMP JUMPDEST PUSH1 0x0 PUSH2 0x29C3 DUP4 PUSH2 0x1017 JUMP JUMPDEST SWAP1 POP DUP2 PUSH1 0x6 PUSH1 0x0 DUP6 PUSH20 0xFFFFFFFFFFFFFFFFFFFFFFFFFFFFFFFFFFFFFFFF AND PUSH20 0xFFFFFFFFFFFFFFFFFFFFFFFFFFFFFFFFFFFFFFFF AND DUP2 MSTORE PUSH1 0x20 ADD SWAP1 DUP2 MSTORE PUSH1 0x20 ADD PUSH1 0x0 KECCAK256 PUSH1 0x0 DUP4 DUP2 MSTORE PUSH1 0x20 ADD SWAP1 DUP2 MSTORE PUSH1 0x20 ADD PUSH1 0x0 KECCAK256 DUP2 SWAP1 SSTORE POP DUP1 PUSH1 0x7 PUSH1 0x0 DUP5 DUP2 MSTORE PUSH1 0x20 ADD SWAP1 DUP2 MSTORE PUSH1 0x20 ADD PUSH1 0x0 KECCAK256 DUP2 SWAP1 SSTORE POP POP POP POP JUMP JUMPDEST PUSH1 0x40 MLOAD DUP1 PUSH2 0x180 ADD PUSH1 0x40 MSTORE DUP1 PUSH1 0x0 DUP2 MSTORE PUSH1 0x20 ADD PUSH1 0x0 DUP2 MSTORE PUSH1 0x20 ADD PUSH1 0x0 DUP2 MSTORE PUSH1 0x20 ADD PUSH1 0x0 DUP2 MSTORE PUSH1 0x20 ADD PUSH1 0x0 DUP2 MSTORE PUSH1 0x20 ADD PUSH1 0x0 DUP2 MSTORE PUSH1 0x20 ADD PUSH1 0x0 DUP2 MSTORE PUSH1 0x20 ADD PUSH1 0x0 DUP2 MSTORE PUSH1 0x20 ADD PUSH1 0x0 DUP2 MSTORE PUSH1 0x20 ADD PUSH1 0x0 DUP2 MSTORE PUSH1 0x20 ADD PUSH1 0x0 DUP2 MSTORE PUSH1 0x20 ADD PUSH1 0x0 DUP2 MSTORE POP SWAP1 JUMP JUMPDEST PUSH1 0x0 PUSH2 0x2AAB PUSH2 0x2AA6 DUP5 PUSH2 0x38E3 JUMP JUMPDEST PUSH2 0x38BE JUMP JUMPDEST SWAP1 POP DUP3 DUP2 MSTORE PUSH1 0x20 DUP2 ADD DUP5 DUP5 DUP5 ADD GT ISZERO PUSH2 0x2AC7 JUMPI PUSH2 0x2AC6 PUSH2 0x3D0C JUMP JUMPDEST JUMPDEST PUSH2 0x2AD2 DUP5 DUP3 DUP6 PUSH2 0x3AC9 JUMP JUMPDEST POP SWAP4 SWAP3 POP POP POP JUMP JUMPDEST PUSH1 0x0 DUP2 CALLDATALOAD SWAP1 POP PUSH2 0x2AE9 DUP2 PUSH2 0x41AA JUMP JUMPDEST SWAP3 SWAP2 POP POP JUMP JUMPDEST PUSH1 0x0 DUP2 CALLDATALOAD SWAP1 POP PUSH2 0x2AFE DUP2 PUSH2 0x41C1 JUMP JUMPDEST SWAP3 SWAP2 POP POP JUMP JUMPDEST PUSH1 0x0 DUP2 MLOAD SWAP1 POP PUSH2 0x2B13 DUP2 PUSH2 0x41D8 JUMP JUMPDEST SWAP3 SWAP2 POP POP JUMP JUMPDEST PUSH1 0x0 DUP2 CALLDATALOAD SWAP1 POP PUSH2 0x2B28 DUP2 PUSH2 0x41EF JUMP JUMPDEST SWAP3 SWAP2 POP POP JUMP JUMPDEST PUSH1 0x0 DUP2 MLOAD SWAP1 POP PUSH2 0x2B3D DUP2 PUSH2 0x41EF JUMP JUMPDEST SWAP3 SWAP2 POP POP JUMP JUMPDEST PUSH1 0x0 DUP3 PUSH1 0x1F DUP4 ADD SLT PUSH2 0x2B58 JUMPI PUSH2 0x2B57 PUSH2 0x3D02 JUMP JUMPDEST JUMPDEST DUP2 CALLDATALOAD PUSH2 0x2B68 DUP5 DUP3 PUSH1 0x20 DUP7 ADD PUSH2 0x2A98 JUMP JUMPDEST SWAP2 POP POP SWAP3 SWAP2 POP POP JUMP JUMPDEST PUSH1 0x0 PUSH2 0x180 DUP3 DUP5 SUB SLT ISZERO PUSH2 0x2B88 JUMPI PUSH2 0x2B87 PUSH2 0x3D07 JUMP JUMPDEST JUMPDEST PUSH2 0x2B93 PUSH2 0x180 PUSH2 0x38BE JUMP JUMPDEST SWAP1 POP PUSH1 0x0 PUSH2 0x2BA3 DUP5 DUP3 DUP6 ADD PUSH2 0x2C93 JUMP JUMPDEST PUSH1 0x0 DUP4 ADD MSTORE POP PUSH1 0x20 PUSH2 0x2BB7 DUP5 DUP3 DUP6 ADD PUSH2 0x2C93 JUMP JUMPDEST PUSH1 0x20 DUP4 ADD MSTORE POP PUSH1 0x40 PUSH2 0x2BCB DUP5 DUP3 DUP6 ADD PUSH2 0x2C93 JUMP JUMPDEST PUSH1 0x40 DUP4 ADD MSTORE POP PUSH1 0x60 PUSH2 0x2BDF DUP5 DUP3 DUP6 ADD PUSH2 0x2C93 JUMP JUMPDEST PUSH1 0x60 DUP4 ADD MSTORE POP PUSH1 0x80 PUSH2 0x2BF3 DUP5 DUP3 DUP6 ADD PUSH2 0x2C93 JUMP JUMPDEST PUSH1 0x80 DUP4 ADD MSTORE POP PUSH1 0xA0 PUSH2 0x2C07 DUP5 DUP3 DUP6 ADD PUSH2 0x2C93 JUMP JUMPDEST PUSH1 0xA0 DUP4 ADD MSTORE POP PUSH1 0xC0 PUSH2 0x2C1B DUP5 DUP3 DUP6 ADD PUSH2 0x2C93 JUMP JUMPDEST PUSH1 0xC0 DUP4 ADD MSTORE POP PUSH1 0xE0 PUSH2 0x2C2F DUP5 DUP3 DUP6 ADD PUSH2 0x2C93 JUMP JUMPDEST PUSH1 0xE0 DUP4 ADD MSTORE POP PUSH2 0x100 PUSH2 0x2C44 DUP5 DUP3 DUP6 ADD PUSH2 0x2C93 JUMP JUMPDEST PUSH2 0x100 DUP4 ADD MSTORE POP PUSH2 0x120 PUSH2 0x2C5A DUP5 DUP3 DUP6 ADD PUSH2 0x2C93 JUMP JUMPDEST PUSH2 0x120 DUP4 ADD MSTORE POP PUSH2 0x140 PUSH2 0x2C70 DUP5 DUP3 DUP6 ADD PUSH2 0x2C93 JUMP JUMPDEST PUSH2 0x140 DUP4 ADD MSTORE POP PUSH2 0x160 PUSH2 0x2C86 DUP5 DUP3 DUP6 ADD PUSH2 0x2C93 JUMP JUMPDEST PUSH2 0x160 DUP4 ADD MSTORE POP SWAP3 SWAP2 POP POP JUMP JUMPDEST PUSH1 0x0 DUP2 CALLDATALOAD SWAP1 POP PUSH2 0x2CA2 DUP2 PUSH2 0x4206 JUMP JUMPDEST SWAP3 SWAP2 POP POP JUMP JUMPDEST PUSH1 0x0 PUSH1 0x20 DUP3 DUP5 SUB SLT ISZERO PUSH2 0x2CBE JUMPI PUSH2 0x2CBD PUSH2 0x3D16 JUMP JUMPDEST JUMPDEST PUSH1 0x0 PUSH2 0x2CCC DUP5 DUP3 DUP6 ADD PUSH2 0x2ADA JUMP JUMPDEST SWAP2 POP POP SWAP3 SWAP2 POP POP JUMP JUMPDEST PUSH1 0x0 DUP1 PUSH1 0x40 DUP4 DUP6 SUB SLT ISZERO PUSH2 0x2CEC JUMPI PUSH2 0x2CEB PUSH2 0x3D16 JUMP JUMPDEST JUMPDEST PUSH1 0x0 PUSH2 0x2CFA DUP6 DUP3 DUP7 ADD PUSH2 0x2ADA JUMP JUMPDEST SWAP3 POP POP PUSH1 0x20 PUSH2 0x2D0B DUP6 DUP3 DUP7 ADD PUSH2 0x2ADA JUMP JUMPDEST SWAP2 POP POP SWAP3 POP SWAP3 SWAP1 POP JUMP JUMPDEST PUSH1 0x0 DUP1 PUSH1 0x0 PUSH1 0x60 DUP5 DUP7 SUB SLT ISZERO PUSH2 0x2D2E JUMPI PUSH2 0x2D2D PUSH2 0x3D16 JUMP JUMPDEST JUMPDEST PUSH1 0x0 PUSH2 0x2D3C DUP7 DUP3 DUP8 ADD PUSH2 0x2ADA JUMP JUMPDEST SWAP4 POP POP PUSH1 0x20 PUSH2 0x2D4D DUP7 DUP3 DUP8 ADD PUSH2 0x2ADA JUMP JUMPDEST SWAP3 POP POP PUSH1 0x40 PUSH2 0x2D5E DUP7 DUP3 DUP8 ADD PUSH2 0x2C93 JUMP JUMPDEST SWAP2 POP POP SWAP3 POP SWAP3 POP SWAP3 JUMP JUMPDEST PUSH1 0x0 DUP1 PUSH1 0x0 DUP1 PUSH1 0x80 DUP6 DUP8 SUB SLT ISZERO PUSH2 0x2D82 JUMPI PUSH2 0x2D81 PUSH2 0x3D16 JUMP JUMPDEST JUMPDEST PUSH1 0x0 PUSH2 0x2D90 DUP8 DUP3 DUP9 ADD PUSH2 0x2ADA JUMP JUMPDEST SWAP5 POP POP PUSH1 0x20 PUSH2 0x2DA1 DUP8 DUP3 DUP9 ADD PUSH2 0x2ADA JUMP JUMPDEST SWAP4 POP POP PUSH1 0x40 PUSH2 0x2DB2 DUP8 DUP3 DUP9 ADD PUSH2 0x2C93 JUMP JUMPDEST SWAP3 POP POP PUSH1 0x60 DUP6 ADD CALLDATALOAD PUSH8 0xFFFFFFFFFFFFFFFF DUP2 GT ISZERO PUSH2 0x2DD3 JUMPI PUSH2 0x2DD2 PUSH2 0x3D11 JUMP JUMPDEST JUMPDEST PUSH2 0x2DDF DUP8 DUP3 DUP9 ADD PUSH2 0x2B43 JUMP JUMPDEST SWAP2 POP POP SWAP3 SWAP6 SWAP2 SWAP5 POP SWAP3 POP JUMP JUMPDEST PUSH1 0x0 DUP1 PUSH1 0x40 DUP4 DUP6 SUB SLT ISZERO PUSH2 0x2E02 JUMPI PUSH2 0x2E01 PUSH2 0x3D16 JUMP JUMPDEST JUMPDEST PUSH1 0x0 PUSH2 0x2E10 DUP6 DUP3 DUP7 ADD PUSH2 0x2ADA JUMP JUMPDEST SWAP3 POP POP PUSH1 0x20 PUSH2 0x2E21 DUP6 DUP3 DUP7 ADD PUSH2 0x2AEF JUMP JUMPDEST SWAP2 POP POP SWAP3 POP SWAP3 SWAP1 POP JUMP JUMPDEST PUSH1 0x0 DUP1 PUSH1 0x40 DUP4 DUP6 SUB SLT ISZERO PUSH2 0x2E42 JUMPI PUSH2 0x2E41 PUSH2 0x3D16 JUMP JUMPDEST JUMPDEST PUSH1 0x0 PUSH2 0x2E50 DUP6 DUP3 DUP7 ADD PUSH2 0x2ADA JUMP JUMPDEST SWAP3 POP POP PUSH1 0x20 PUSH2 0x2E61 DUP6 DUP3 DUP7 ADD PUSH2 0x2C93 JUMP JUMPDEST SWAP2 POP POP SWAP3 POP SWAP3 SWAP1 POP JUMP JUMPDEST PUSH1 0x0 PUSH1 0x20 DUP3 DUP5 SUB SLT ISZERO PUSH2 0x2E81 JUMPI PUSH2 0x2E80 PUSH2 0x3D16 JUMP JUMPDEST JUMPDEST PUSH1 0x0 PUSH2 0x2E8F DUP5 DUP3 DUP6 ADD PUSH2 0x2B04 JUMP JUMPDEST SWAP2 POP POP SWAP3 SWAP2 POP POP JUMP JUMPDEST PUSH1 0x0 PUSH1 0x20 DUP3 DUP5 SUB SLT ISZERO PUSH2 0x2EAE JUMPI PUSH2 0x2EAD PUSH2 0x3D16 JUMP JUMPDEST JUMPDEST PUSH1 0x0 PUSH2 0x2EBC DUP5 DUP3 DUP6 ADD PUSH2 0x2B19 JUMP JUMPDEST SWAP2 POP POP SWAP3 SWAP2 POP POP JUMP JUMPDEST PUSH1 0x0 PUSH1 0x20 DUP3 DUP5 SUB SLT ISZERO PUSH2 0x2EDB JUMPI PUSH2 0x2EDA PUSH2 0x3D16 JUMP JUMPDEST JUMPDEST PUSH1 0x0 PUSH2 0x2EE9 DUP5 DUP3 DUP6 ADD PUSH2 0x2B2E JUMP JUMPDEST SWAP2 POP POP SWAP3 SWAP2 POP POP JUMP JUMPDEST PUSH1 0x0 PUSH1 0x20 DUP3 DUP5 SUB SLT ISZERO PUSH2 0x2F08 JUMPI PUSH2 0x2F07 PUSH2 0x3D16 JUMP JUMPDEST JUMPDEST PUSH1 0x0 PUSH2 0x2F16 DUP5 DUP3 DUP6 ADD PUSH2 0x2C93 JUMP JUMPDEST SWAP2 POP POP SWAP3 SWAP2 POP POP JUMP JUMPDEST PUSH1 0x0 DUP1 PUSH1 0x0 DUP1 PUSH2 0x340 DUP6 DUP8 SUB SLT ISZERO PUSH2 0x2F3A JUMPI PUSH2 0x2F39 PUSH2 0x3D16 JUMP JUMPDEST JUMPDEST PUSH1 0x0 PUSH2 0x2F48 DUP8 DUP3 DUP9 ADD PUSH2 0x2C93 JUMP JUMPDEST SWAP5 POP POP PUSH1 0x20 PUSH2 0x2F59 DUP8 DUP3 DUP9 ADD PUSH2 0x2B71 JUMP JUMPDEST SWAP4 POP POP PUSH2 0x1A0 PUSH2 0x2F6B DUP8 DUP3 DUP9 ADD PUSH2 0x2B71 JUMP JUMPDEST SWAP3 POP POP PUSH2 0x320 PUSH2 0x2F7D DUP8 DUP3 DUP9 ADD PUSH2 0x2C93 JUMP JUMPDEST SWAP2 POP POP SWAP3 SWAP6 SWAP2 SWAP5 POP SWAP3 POP JUMP JUMPDEST PUSH1 0x0 DUP1 PUSH1 0x40 DUP4 DUP6 SUB SLT ISZERO PUSH2 0x2FA0 JUMPI PUSH2 0x2F9F PUSH2 0x3D16 JUMP JUMPDEST JUMPDEST PUSH1 0x0 PUSH2 0x2FAE DUP6 DUP3 DUP7 ADD PUSH2 0x2C93 JUMP JUMPDEST SWAP3 POP POP PUSH1 0x20 PUSH2 0x2FBF DUP6 DUP3 DUP7 ADD PUSH2 0x2C93 JUMP JUMPDEST SWAP2 POP POP SWAP3 POP SWAP3 SWAP1 POP JUMP JUMPDEST PUSH1 0x0 DUP1 PUSH1 0x0 PUSH1 0x60 DUP5 DUP7 SUB SLT ISZERO PUSH2 0x2FE2 JUMPI PUSH2 0x2FE1 PUSH2 0x3D16 JUMP JUMPDEST JUMPDEST PUSH1 0x0 PUSH2 0x2FF0 DUP7 DUP3 DUP8 ADD PUSH2 0x2C93 JUMP JUMPDEST SWAP4 POP POP PUSH1 0x20 PUSH2 0x3001 DUP7 DUP3 DUP8 ADD PUSH2 0x2C93 JUMP JUMPDEST SWAP3 POP POP PUSH1 0x40 PUSH2 0x3012 DUP7 DUP3 DUP8 ADD PUSH2 0x2C93 JUMP JUMPDEST SWAP2 POP POP SWAP3 POP SWAP3 POP SWAP3 JUMP JUMPDEST PUSH1 0x0 PUSH2 0x3028 DUP4 DUP4 PUSH2 0x3479 JUMP JUMPDEST PUSH1 0x20 DUP4 ADD SWAP1 POP SWAP3 SWAP2 POP POP JUMP JUMPDEST PUSH2 0x303D DUP2 PUSH2 0x3A4B JUMP JUMPDEST DUP3 MSTORE POP POP JUMP JUMPDEST PUSH1 0x0 PUSH2 0x304E DUP3 PUSH2 0x3924 JUMP JUMPDEST PUSH2 0x3058 DUP2 DUP6 PUSH2 0x3952 JUMP JUMPDEST SWAP4 POP PUSH2 0x3063 DUP4 PUSH2 0x3914 JUMP JUMPDEST DUP1 PUSH1 0x0 JUMPDEST DUP4 DUP2 LT ISZERO PUSH2 0x3094 JUMPI DUP2 MLOAD PUSH2 0x307B DUP9 DUP3 PUSH2 0x301C JUMP JUMPDEST SWAP8 POP PUSH2 0x3086 DUP4 PUSH2 0x3945 JUMP JUMPDEST SWAP3 POP POP PUSH1 0x1 DUP2 ADD SWAP1 POP PUSH2 0x3067 JUMP JUMPDEST POP DUP6 SWAP4 POP POP POP POP SWAP3 SWAP2 POP POP JUMP JUMPDEST PUSH2 0x30AA DUP2 PUSH2 0x3A5D JUMP JUMPDEST DUP3 MSTORE POP POP JUMP JUMPDEST PUSH1 0x0 PUSH2 0x30BB DUP3 PUSH2 0x392F JUMP JUMPDEST PUSH2 0x30C5 DUP2 DUP6 PUSH2 0x3963 JUMP JUMPDEST SWAP4 POP PUSH2 0x30D5 DUP2 DUP6 PUSH1 0x20 DUP7 ADD PUSH2 0x3AD8 JUMP JUMPDEST PUSH2 0x30DE DUP2 PUSH2 0x3D1B JUMP JUMPDEST DUP5 ADD SWAP2 POP POP SWAP3 SWAP2 POP POP JUMP JUMPDEST PUSH1 0x0 PUSH2 0x30F4 DUP3 PUSH2 0x393A JUMP JUMPDEST PUSH2 0x30FE DUP2 DUP6 PUSH2 0x3974 JUMP JUMPDEST SWAP4 POP PUSH2 0x310E DUP2 DUP6 PUSH1 0x20 DUP7 ADD PUSH2 0x3AD8 JUMP JUMPDEST PUSH2 0x3117 DUP2 PUSH2 0x3D1B JUMP JUMPDEST DUP5 ADD SWAP2 POP POP SWAP3 SWAP2 POP POP JUMP JUMPDEST PUSH1 0x0 PUSH2 0x312D DUP3 PUSH2 0x393A JUMP JUMPDEST PUSH2 0x3137 DUP2 DUP6 PUSH2 0x3985 JUMP JUMPDEST SWAP4 POP PUSH2 0x3147 DUP2 DUP6 PUSH1 0x20 DUP7 ADD PUSH2 0x3AD8 JUMP JUMPDEST DUP1 DUP5 ADD SWAP2 POP POP SWAP3 SWAP2 POP POP JUMP JUMPDEST PUSH1 0x0 PUSH2 0x3160 PUSH1 0x2B DUP4 PUSH2 0x3974 JUMP JUMPDEST SWAP2 POP PUSH2 0x316B DUP3 PUSH2 0x3D2C JUMP JUMPDEST PUSH1 0x40 DUP3 ADD SWAP1 POP SWAP2 SWAP1 POP JUMP JUMPDEST PUSH1 0x0 PUSH2 0x3183 PUSH1 0x32 DUP4 PUSH2 0x3974 JUMP JUMPDEST SWAP2 POP PUSH2 0x318E DUP3 PUSH2 0x3D7B JUMP JUMPDEST PUSH1 0x40 DUP3 ADD SWAP1 POP SWAP2 SWAP1 POP JUMP JUMPDEST PUSH1 0x0 PUSH2 0x31A6 PUSH1 0x25 DUP4 PUSH2 0x3974 JUMP JUMPDEST SWAP2 POP PUSH2 0x31B1 DUP3 PUSH2 0x3DCA JUMP JUMPDEST PUSH1 0x40 DUP3 ADD SWAP1 POP SWAP2 SWAP1 POP JUMP JUMPDEST PUSH1 0x0 PUSH2 0x31C9 PUSH1 0x1C DUP4 PUSH2 0x3974 JUMP JUMPDEST SWAP2 POP PUSH2 0x31D4 DUP3 PUSH2 0x3E19 JUMP JUMPDEST PUSH1 0x20 DUP3 ADD SWAP1 POP SWAP2 SWAP1 POP JUMP JUMPDEST PUSH1 0x0 PUSH2 0x31EC PUSH1 0x24 DUP4 PUSH2 0x3974 JUMP JUMPDEST SWAP2 POP PUSH2 0x31F7 DUP3 PUSH2 0x3E42 JUMP JUMPDEST PUSH1 0x40 DUP3 ADD SWAP1 POP SWAP2 SWAP1 POP JUMP JUMPDEST PUSH1 0x0 PUSH2 0x320F PUSH1 0x19 DUP4 PUSH2 0x3974 JUMP JUMPDEST SWAP2 POP PUSH2 0x321A DUP3 PUSH2 0x3E91 JUMP JUMPDEST PUSH1 0x20 DUP3 ADD SWAP1 POP SWAP2 SWAP1 POP JUMP JUMPDEST PUSH1 0x0 PUSH2 0x3232 PUSH1 0x2C DUP4 PUSH2 0x3974 JUMP JUMPDEST SWAP2 POP PUSH2 0x323D DUP3 PUSH2 0x3EBA JUMP JUMPDEST PUSH1 0x40 DUP3 ADD SWAP1 POP SWAP2 SWAP1 POP JUMP JUMPDEST PUSH1 0x0 PUSH2 0x3255 PUSH1 0x38 DUP4 PUSH2 0x3974 JUMP JUMPDEST SWAP2 POP PUSH2 0x3260 DUP3 PUSH2 0x3F09 JUMP JUMPDEST PUSH1 0x40 DUP3 ADD SWAP1 POP SWAP2 SWAP1 POP JUMP JUMPDEST PUSH1 0x0 PUSH2 0x3278 PUSH1 0x2A DUP4 PUSH2 0x3974 JUMP JUMPDEST SWAP2 POP PUSH2 0x3283 DUP3 PUSH2 0x3F58 JUMP JUMPDEST PUSH1 0x40 DUP3 ADD SWAP1 POP SWAP2 SWAP1 POP JUMP JUMPDEST PUSH1 0x0 PUSH2 0x329B PUSH1 0x29 DUP4 PUSH2 0x3974 JUMP JUMPDEST SWAP2 POP PUSH2 0x32A6 DUP3 PUSH2 0x3FA7 JUMP JUMPDEST PUSH1 0x40 DUP3 ADD SWAP1 POP SWAP2 SWAP1 POP JUMP JUMPDEST PUSH1 0x0 PUSH2 0x32BE PUSH1 0x20 DUP4 PUSH2 0x3974 JUMP JUMPDEST SWAP2 POP PUSH2 0x32C9 DUP3 PUSH2 0x3FF6 JUMP JUMPDEST PUSH1 0x20 DUP3 ADD SWAP1 POP SWAP2 SWAP1 POP JUMP JUMPDEST PUSH1 0x0 PUSH2 0x32E1 PUSH1 0x2C DUP4 PUSH2 0x3974 JUMP JUMPDEST SWAP2 POP PUSH2 0x32EC DUP3 PUSH2 0x401F JUMP JUMPDEST PUSH1 0x40 DUP3 ADD SWAP1 POP SWAP2 SWAP1 POP JUMP JUMPDEST PUSH1 0x0 PUSH2 0x3304 PUSH1 0x2F DUP4 PUSH2 0x3974 JUMP JUMPDEST SWAP2 POP PUSH2 0x330F DUP3 PUSH2 0x406E JUMP JUMPDEST PUSH1 0x40 DUP3 ADD SWAP1 POP SWAP2 SWAP1 POP JUMP JUMPDEST PUSH1 0x0 PUSH2 0x3327 PUSH1 0x21 DUP4 PUSH2 0x3974 JUMP JUMPDEST SWAP2 POP PUSH2 0x3332 DUP3 PUSH2 0x40BD JUMP JUMPDEST PUSH1 0x40 DUP3 ADD SWAP1 POP SWAP2 SWAP1 POP JUMP JUMPDEST PUSH1 0x0 PUSH2 0x334A PUSH1 0x31 DUP4 PUSH2 0x3974 JUMP JUMPDEST SWAP2 POP PUSH2 0x3355 DUP3 PUSH2 0x410C JUMP JUMPDEST PUSH1 0x40 DUP3 ADD SWAP1 POP SWAP2 SWAP1 POP JUMP JUMPDEST PUSH1 0x0 PUSH2 0x336D PUSH1 0x2C DUP4 PUSH2 0x3974 JUMP JUMPDEST SWAP2 POP PUSH2 0x3378 DUP3 PUSH2 0x415B JUMP JUMPDEST PUSH1 0x40 DUP3 ADD SWAP1 POP SWAP2 SWAP1 POP JUMP JUMPDEST PUSH2 0x180 DUP3 ADD PUSH1 0x0 DUP3 ADD MLOAD PUSH2 0x339A PUSH1 0x0 DUP6 ADD DUP3 PUSH2 0x3479 JUMP JUMPDEST POP PUSH1 0x20 DUP3 ADD MLOAD PUSH2 0x33AD PUSH1 0x20 DUP6 ADD DUP3 PUSH2 0x3479 JUMP JUMPDEST POP PUSH1 0x40 DUP3 ADD MLOAD PUSH2 0x33C0 PUSH1 0x40 DUP6 ADD DUP3 PUSH2 0x3479 JUMP JUMPDEST POP PUSH1 0x60 DUP3 ADD MLOAD PUSH2 0x33D3 PUSH1 0x60 DUP6 ADD DUP3 PUSH2 0x3479 JUMP JUMPDEST POP PUSH1 0x80 DUP3 ADD MLOAD PUSH2 0x33E6 PUSH1 0x80 DUP6 ADD DUP3 PUSH2 0x3479 JUMP JUMPDEST POP PUSH1 0xA0 DUP3 ADD MLOAD PUSH2 0x33F9 PUSH1 0xA0 DUP6 ADD DUP3 PUSH2 0x3479 JUMP JUMPDEST POP PUSH1 0xC0 DUP3 ADD MLOAD PUSH2 0x340C PUSH1 0xC0 DUP6 ADD DUP3 PUSH2 0x3479 JUMP JUMPDEST POP PUSH1 0xE0 DUP3 ADD MLOAD PUSH2 0x341F PUSH1 0xE0 DUP6 ADD DUP3 PUSH2 0x3479 JUMP JUMPDEST POP PUSH2 0x100 DUP3 ADD MLOAD PUSH2 0x3434 PUSH2 0x100 DUP6 ADD DUP3 PUSH2 0x3479 JUMP JUMPDEST POP PUSH2 0x120 DUP3 ADD MLOAD PUSH2 0x3449 PUSH2 0x120 DUP6 ADD DUP3 PUSH2 0x3479 JUMP JUMPDEST POP PUSH2 0x140 DUP3 ADD MLOAD PUSH2 0x345E PUSH2 0x140 DUP6 ADD DUP3 PUSH2 0x3479 JUMP JUMPDEST POP PUSH2 0x160 DUP3 ADD MLOAD PUSH2 0x3473 PUSH2 0x160 DUP6 ADD DUP3 PUSH2 0x3479 JUMP JUMPDEST POP POP POP POP JUMP JUMPDEST PUSH2 0x3482 DUP2 PUSH2 0x3ABF JUMP JUMPDEST DUP3 MSTORE POP POP JUMP JUMPDEST PUSH2 0x3491 DUP2 PUSH2 0x3ABF JUMP JUMPDEST DUP3 MSTORE POP POP JUMP JUMPDEST PUSH1 0x0 PUSH2 0x34A3 DUP3 DUP6 PUSH2 0x3122 JUMP JUMPDEST SWAP2 POP PUSH2 0x34AF DUP3 DUP5 PUSH2 0x3122 JUMP JUMPDEST SWAP2 POP DUP2 SWAP1 POP SWAP4 SWAP3 POP POP POP JUMP JUMPDEST PUSH1 0x0 PUSH1 0x20 DUP3 ADD SWAP1 POP PUSH2 0x34D0 PUSH1 0x0 DUP4 ADD DUP5 PUSH2 0x3034 JUMP JUMPDEST SWAP3 SWAP2 POP POP JUMP JUMPDEST PUSH1 0x0 PUSH1 0x80 DUP3 ADD SWAP1 POP PUSH2 0x34EB PUSH1 0x0 DUP4 ADD DUP8 PUSH2 0x3034 JUMP JUMPDEST PUSH2 0x34F8 PUSH1 0x20 DUP4 ADD DUP7 PUSH2 0x3034 JUMP JUMPDEST PUSH2 0x3505 PUSH1 0x40 DUP4 ADD DUP6 PUSH2 0x3488 JUMP JUMPDEST DUP2 DUP2 SUB PUSH1 0x60 DUP4 ADD MSTORE PUSH2 0x3517 DUP2 DUP5 PUSH2 0x30B0 JUMP JUMPDEST SWAP1 POP SWAP6 SWAP5 POP POP POP POP POP JUMP JUMPDEST PUSH1 0x0 PUSH1 0x20 DUP3 ADD SWAP1 POP PUSH2 0x3537 PUSH1 0x0 DUP4 ADD DUP5 PUSH2 0x30A1 JUMP JUMPDEST SWAP3 SWAP2 POP POP JUMP JUMPDEST PUSH1 0x0 PUSH1 0x20 DUP3 ADD SWAP1 POP DUP2 DUP2 SUB PUSH1 0x0 DUP4 ADD MSTORE PUSH2 0x3557 DUP2 DUP5 PUSH2 0x30E9 JUMP JUMPDEST SWAP1 POP SWAP3 SWAP2 POP POP JUMP JUMPDEST PUSH1 0x0 PUSH1 0x20 DUP3 ADD SWAP1 POP DUP2 DUP2 SUB PUSH1 0x0 DUP4 ADD MSTORE PUSH2 0x3578 DUP2 PUSH2 0x3153 JUMP JUMPDEST SWAP1 POP SWAP2 SWAP1 POP JUMP JUMPDEST PUSH1 0x0 PUSH1 0x20 DUP3 ADD SWAP1 POP DUP2 DUP2 SUB PUSH1 0x0 DUP4 ADD MSTORE PUSH2 0x3598 DUP2 PUSH2 0x3176 JUMP JUMPDEST SWAP1 POP SWAP2 SWAP1 POP JUMP JUMPDEST PUSH1 0x0 PUSH1 0x20 DUP3 ADD SWAP1 POP DUP2 DUP2 SUB PUSH1 0x0 DUP4 ADD MSTORE PUSH2 0x35B8 DUP2 PUSH2 0x3199 JUMP JUMPDEST SWAP1 POP SWAP2 SWAP1 POP JUMP JUMPDEST PUSH1 0x0 PUSH1 0x20 DUP3 ADD SWAP1 POP DUP2 DUP2 SUB PUSH1 0x0 DUP4 ADD MSTORE PUSH2 0x35D8 DUP2 PUSH2 0x31BC JUMP JUMPDEST SWAP1 POP SWAP2 SWAP1 POP JUMP JUMPDEST PUSH1 0x0 PUSH1 0x20 DUP3 ADD SWAP1 POP DUP2 DUP2 SUB PUSH1 0x0 DUP4 ADD MSTORE PUSH2 0x35F8 DUP2 PUSH2 0x31DF JUMP JUMPDEST SWAP1 POP SWAP2 SWAP1 POP JUMP JUMPDEST PUSH1 0x0 PUSH1 0x20 DUP3 ADD SWAP1 POP DUP2 DUP2 SUB PUSH1 0x0 DUP4 ADD MSTORE PUSH2 0x3618 DUP2 PUSH2 0x3202 JUMP JUMPDEST SWAP1 POP SWAP2 SWAP1 POP JUMP JUMPDEST PUSH1 0x0 PUSH1 0x20 DUP3 ADD SWAP1 POP DUP2 DUP2 SUB PUSH1 0x0 DUP4 ADD MSTORE PUSH2 0x3638 DUP2 PUSH2 0x3225 JUMP JUMPDEST SWAP1 POP SWAP2 SWAP1 POP JUMP JUMPDEST PUSH1 0x0 PUSH1 0x20 DUP3 ADD SWAP1 POP DUP2 DUP2 SUB PUSH1 0x0 DUP4 ADD MSTORE PUSH2 0x3658 DUP2 PUSH2 0x3248 JUMP JUMPDEST SWAP1 POP SWAP2 SWAP1 POP JUMP JUMPDEST PUSH1 0x0 PUSH1 0x20 DUP3 ADD SWAP1 POP DUP2 DUP2 SUB PUSH1 0x0 DUP4 ADD MSTORE PUSH2 0x3678 DUP2 PUSH2 0x326B JUMP JUMPDEST SWAP1 POP SWAP2 SWAP1 POP JUMP JUMPDEST PUSH1 0x0 PUSH1 0x20 DUP3 ADD SWAP1 POP DUP2 DUP2 SUB PUSH1 0x0 DUP4 ADD MSTORE PUSH2 0x3698 DUP2 PUSH2 0x328E JUMP JUMPDEST SWAP1 POP SWAP2 SWAP1 POP JUMP JUMPDEST PUSH1 0x0 PUSH1 0x20 DUP3 ADD SWAP1 POP DUP2 DUP2 SUB PUSH1 0x0 DUP4 ADD MSTORE PUSH2 0x36B8 DUP2 PUSH2 0x32B1 JUMP JUMPDEST SWAP1 POP SWAP2 SWAP1 POP JUMP JUMPDEST PUSH1 0x0 PUSH1 0x20 DUP3 ADD SWAP1 POP DUP2 DUP2 SUB PUSH1 0x0 DUP4 ADD MSTORE PUSH2 0x36D8 DUP2 PUSH2 0x32D4 JUMP JUMPDEST SWAP1 POP SWAP2 SWAP1 POP JUMP JUMPDEST PUSH1 0x0 PUSH1 0x20 DUP3 ADD SWAP1 POP DUP2 DUP2 SUB PUSH1 0x0 DUP4 ADD MSTORE PUSH2 0x36F8 DUP2 PUSH2 0x32F7 JUMP JUMPDEST SWAP1 POP SWAP2 SWAP1 POP JUMP JUMPDEST PUSH1 0x0 PUSH1 0x20 DUP3 ADD SWAP1 POP DUP2 DUP2 SUB PUSH1 0x0 DUP4 ADD MSTORE PUSH2 0x3718 DUP2 PUSH2 0x331A JUMP JUMPDEST SWAP1 POP SWAP2 SWAP1 POP JUMP JUMPDEST PUSH1 0x0 PUSH1 0x20 DUP3 ADD SWAP1 POP DUP2 DUP2 SUB PUSH1 0x0 DUP4 ADD MSTORE PUSH2 0x3738 DUP2 PUSH2 0x333D JUMP JUMPDEST SWAP1 POP SWAP2 SWAP1 POP JUMP JUMPDEST PUSH1 0x0 PUSH1 0x20 DUP3 ADD SWAP1 POP DUP2 DUP2 SUB PUSH1 0x0 DUP4 ADD MSTORE PUSH2 0x3758 DUP2 PUSH2 0x3360 JUMP JUMPDEST SWAP1 POP SWAP2 SWAP1 POP JUMP JUMPDEST PUSH1 0x0 PUSH2 0x180 DUP3 ADD SWAP1 POP PUSH2 0x3775 PUSH1 0x0 DUP4 ADD DUP5 PUSH2 0x3383 JUMP JUMPDEST SWAP3 SWAP2 POP POP JUMP JUMPDEST PUSH1 0x0 PUSH1 0x20 DUP3 ADD SWAP1 POP PUSH2 0x3790 PUSH1 0x0 DUP4 ADD DUP5 PUSH2 0x3488 JUMP JUMPDEST SWAP3 SWAP2 POP POP JUMP JUMPDEST PUSH1 0x0 PUSH1 0x40 DUP3 ADD SWAP1 POP PUSH2 0x37AB PUSH1 0x0 DUP4 ADD DUP6 PUSH2 0x3488 JUMP JUMPDEST DUP2 DUP2 SUB PUSH1 0x20 DUP4 ADD MSTORE PUSH2 0x37BD DUP2 DUP5 PUSH2 0x3043 JUMP JUMPDEST SWAP1 POP SWAP4 SWAP3 POP POP POP JUMP JUMPDEST PUSH1 0x0 PUSH1 0x60 DUP3 ADD SWAP1 POP PUSH2 0x37DB PUSH1 0x0 DUP4 ADD DUP7 PUSH2 0x3488 JUMP JUMPDEST PUSH2 0x37E8 PUSH1 0x20 DUP4 ADD DUP6 PUSH2 0x3488 JUMP JUMPDEST DUP2 DUP2 SUB PUSH1 0x40 DUP4 ADD MSTORE PUSH2 0x37FA DUP2 DUP5 PUSH2 0x3043 JUMP JUMPDEST SWAP1 POP SWAP5 SWAP4 POP POP POP POP JUMP JUMPDEST PUSH1 0x0 PUSH2 0x180 DUP3 ADD SWAP1 POP PUSH2 0x381A PUSH1 0x0 DUP4 ADD DUP16 PUSH2 0x3488 JUMP JUMPDEST PUSH2 0x3827 PUSH1 0x20 DUP4 ADD DUP15 PUSH2 0x3488 JUMP JUMPDEST PUSH2 0x3834 PUSH1 0x40 DUP4 ADD DUP14 PUSH2 0x3488 JUMP JUMPDEST PUSH2 0x3841 PUSH1 0x60 DUP4 ADD DUP13 PUSH2 0x3488 JUMP JUMPDEST PUSH2 0x384E PUSH1 0x80 DUP4 ADD DUP12 PUSH2 0x3488 JUMP JUMPDEST PUSH2 0x385B PUSH1 0xA0 DUP4 ADD DUP11 PUSH2 0x3488 JUMP JUMPDEST PUSH2 0x3868 PUSH1 0xC0 DUP4 ADD DUP10 PUSH2 0x3488 JUMP JUMPDEST PUSH2 0x3875 PUSH1 0xE0 DUP4 ADD DUP9 PUSH2 0x3488 JUMP JUMPDEST PUSH2 0x3883 PUSH2 0x100 DUP4 ADD DUP8 PUSH2 0x3488 JUMP JUMPDEST PUSH2 0x3891 PUSH2 0x120 DUP4 ADD DUP7 PUSH2 0x3488 JUMP JUMPDEST PUSH2 0x389F PUSH2 0x140 DUP4 ADD DUP6 PUSH2 0x3488 JUMP JUMPDEST PUSH2 0x38AD PUSH2 0x160 DUP4 ADD DUP5 PUSH2 0x3488 JUMP JUMPDEST SWAP14 SWAP13 POP POP POP POP POP POP POP POP POP POP POP POP POP JUMP JUMPDEST PUSH1 0x0 PUSH2 0x38C8 PUSH2 0x38D9 JUMP JUMPDEST SWAP1 POP PUSH2 0x38D4 DUP3 DUP3 PUSH2 0x3B3D JUMP JUMPDEST SWAP2 SWAP1 POP JUMP JUMPDEST PUSH1 0x0 PUSH1 0x40 MLOAD SWAP1 POP SWAP1 JUMP JUMPDEST PUSH1 0x0 PUSH8 0xFFFFFFFFFFFFFFFF DUP3 GT ISZERO PUSH2 0x38FE JUMPI PUSH2 0x38FD PUSH2 0x3CD3 JUMP JUMPDEST JUMPDEST PUSH2 0x3907 DUP3 PUSH2 0x3D1B JUMP JUMPDEST SWAP1 POP PUSH1 0x20 DUP2 ADD SWAP1 POP SWAP2 SWAP1 POP JUMP JUMPDEST PUSH1 0x0 DUP2 SWAP1 POP PUSH1 0x20 DUP3 ADD SWAP1 POP SWAP2 SWAP1 POP JUMP JUMPDEST PUSH1 0x0 DUP2 MLOAD SWAP1 POP SWAP2 SWAP1 POP JUMP JUMPDEST PUSH1 0x0 DUP2 MLOAD SWAP1 POP SWAP2 SWAP1 POP JUMP JUMPDEST PUSH1 0x0 DUP2 MLOAD SWAP1 POP SWAP2 SWAP1 POP JUMP JUMPDEST PUSH1 0x0 PUSH1 0x20 DUP3 ADD SWAP1 POP SWAP2 SWAP1 POP JUMP JUMPDEST PUSH1 0x0 DUP3 DUP3 MSTORE PUSH1 0x20 DUP3 ADD SWAP1 POP SWAP3 SWAP2 POP POP JUMP JUMPDEST PUSH1 0x0 DUP3 DUP3 MSTORE PUSH1 0x20 DUP3 ADD SWAP1 POP SWAP3 SWAP2 POP POP JUMP JUMPDEST PUSH1 0x0 DUP3 DUP3 MSTORE PUSH1 0x20 DUP3 ADD SWAP1 POP SWAP3 SWAP2 POP POP JUMP JUMPDEST PUSH1 0x0 DUP2 SWAP1 POP SWAP3 SWAP2 POP POP JUMP JUMPDEST PUSH1 0x0 PUSH2 0x399B DUP3 PUSH2 0x3ABF JUMP JUMPDEST SWAP2 POP PUSH2 0x39A6 DUP4 PUSH2 0x3ABF JUMP JUMPDEST SWAP3 POP DUP3 PUSH32 0xFFFFFFFFFFFFFFFFFFFFFFFFFFFFFFFFFFFFFFFFFFFFFFFFFFFFFFFFFFFFFFFF SUB DUP3 GT ISZERO PUSH2 0x39DB JUMPI PUSH2 0x39DA PUSH2 0x3BE8 JUMP JUMPDEST JUMPDEST DUP3 DUP3 ADD SWAP1 POP SWAP3 SWAP2 POP POP JUMP JUMPDEST PUSH1 0x0 PUSH2 0x39F1 DUP3 PUSH2 0x3ABF JUMP JUMPDEST SWAP2 POP PUSH2 0x39FC DUP4 PUSH2 0x3ABF JUMP JUMPDEST SWAP3 POP DUP3 PUSH2 0x3A0C JUMPI PUSH2 0x3A0B PUSH2 0x3C17 JUMP JUMPDEST JUMPDEST DUP3 DUP3 DIV SWAP1 POP SWAP3 SWAP2 POP POP JUMP JUMPDEST PUSH1 0x0 PUSH2 0x3A22 DUP3 PUSH2 0x3ABF JUMP JUMPDEST SWAP2 POP PUSH2 0x3A2D DUP4 PUSH2 0x3ABF JUMP JUMPDEST SWAP3 POP DUP3 DUP3 LT ISZERO PUSH2 0x3A40 JUMPI PUSH2 0x3A3F PUSH2 0x3BE8 JUMP JUMPDEST JUMPDEST DUP3 DUP3 SUB SWAP1 POP SWAP3 SWAP2 POP POP JUMP JUMPDEST PUSH1 0x0 PUSH2 0x3A56 DUP3 PUSH2 0x3A9F JUMP JUMPDEST SWAP1 POP SWAP2 SWAP1 POP JUMP JUMPDEST PUSH1 0x0 DUP2 ISZERO ISZERO SWAP1 POP SWAP2 SWAP1 POP JUMP JUMPDEST PUSH1 0x0 DUP2 SWAP1 POP SWAP2 SWAP1 POP JUMP JUMPDEST PUSH1 0x0 PUSH32 0xFFFFFFFF00000000000000000000000000000000000000000000000000000000 DUP3 AND SWAP1 POP SWAP2 SWAP1 POP JUMP JUMPDEST PUSH1 0x0 PUSH20 0xFFFFFFFFFFFFFFFFFFFFFFFFFFFFFFFFFFFFFFFF DUP3 AND SWAP1 POP SWAP2 SWAP1 POP JUMP JUMPDEST PUSH1 0x0 DUP2 SWAP1 POP SWAP2 SWAP1 POP JUMP JUMPDEST DUP3 DUP2 DUP4 CALLDATACOPY PUSH1 0x0 DUP4 DUP4 ADD MSTORE POP POP POP JUMP JUMPDEST PUSH1 0x0 JUMPDEST DUP4 DUP2 LT ISZERO PUSH2 0x3AF6 JUMPI DUP1 DUP3 ADD MLOAD DUP2 DUP5 ADD MSTORE PUSH1 0x20 DUP2 ADD SWAP1 POP PUSH2 0x3ADB JUMP JUMPDEST DUP4 DUP2 GT ISZERO PUSH2 0x3B05 JUMPI PUSH1 0x0 DUP5 DUP5 ADD MSTORE JUMPDEST POP POP POP POP JUMP JUMPDEST PUSH1 0x0 PUSH1 0x2 DUP3 DIV SWAP1 POP PUSH1 0x1 DUP3 AND DUP1 PUSH2 0x3B23 JUMPI PUSH1 0x7F DUP3 AND SWAP2 POP JUMPDEST PUSH1 0x20 DUP3 LT DUP2 EQ ISZERO PUSH2 0x3B37 JUMPI PUSH2 0x3B36 PUSH2 0x3C46 JUMP JUMPDEST JUMPDEST POP SWAP2 SWAP1 POP JUMP JUMPDEST PUSH2 0x3B46 DUP3 PUSH2 0x3D1B JUMP JUMPDEST DUP2 ADD DUP2 DUP2 LT PUSH8 0xFFFFFFFFFFFFFFFF DUP3 GT OR ISZERO PUSH2 0x3B65 JUMPI PUSH2 0x3B64 PUSH2 0x3CD3 JUMP JUMPDEST JUMPDEST DUP1 PUSH1 0x40 MSTORE POP POP POP JUMP JUMPDEST PUSH1 0x0 PUSH2 0x3B79 DUP3 PUSH2 0x3ABF JUMP JUMPDEST SWAP2 POP PUSH32 0xFFFFFFFFFFFFFFFFFFFFFFFFFFFFFFFFFFFFFFFFFFFFFFFFFFFFFFFFFFFFFFFF DUP3 EQ ISZERO PUSH2 0x3BAC JUMPI PUSH2 0x3BAB PUSH2 0x3BE8 JUMP JUMPDEST JUMPDEST PUSH1 0x1 DUP3 ADD SWAP1 POP SWAP2 SWAP1 POP JUMP JUMPDEST PUSH1 0x0 PUSH2 0x3BC2 DUP3 PUSH2 0x3ABF JUMP JUMPDEST SWAP2 POP PUSH2 0x3BCD DUP4 PUSH2 0x3ABF JUMP JUMPDEST SWAP3 POP DUP3 PUSH2 0x3BDD JUMPI PUSH2 0x3BDC PUSH2 0x3C17 JUMP JUMPDEST JUMPDEST DUP3 DUP3 MOD SWAP1 POP SWAP3 SWAP2 POP POP JUMP JUMPDEST PUSH32 0x4E487B7100000000000000000000000000000000000000000000000000000000 PUSH1 0x0 MSTORE PUSH1 0x11 PUSH1 0x4 MSTORE PUSH1 0x24 PUSH1 0x0 REVERT JUMPDEST PUSH32 0x4E487B7100000000000000000000000000000000000000000000000000000000 PUSH1 0x0 MSTORE PUSH1 0x12 PUSH1 0x4 MSTORE PUSH1 0x24 PUSH1 0x0 REVERT JUMPDEST PUSH32 0x4E487B7100000000000000000000000000000000000000000000000000000000 PUSH1 0x0 MSTORE PUSH1 0x22 PUSH1 0x4 MSTORE PUSH1 0x24 PUSH1 0x0 REVERT JUMPDEST PUSH32 0x4E487B7100000000000000000000000000000000000000000000000000000000 PUSH1 0x0 MSTORE PUSH1 0x31 PUSH1 0x4 MSTORE PUSH1 0x24 PUSH1 0x0 REVERT JUMPDEST PUSH32 0x4E487B7100000000000000000000000000000000000000000000000000000000 PUSH1 0x0 MSTORE PUSH1 0x32 PUSH1 0x4 MSTORE PUSH1 0x24 PUSH1 0x0 REVERT JUMPDEST PUSH32 0x4E487B7100000000000000000000000000000000000000000000000000000000 PUSH1 0x0 MSTORE PUSH1 0x41 PUSH1 0x4 MSTORE PUSH1 0x24 PUSH1 0x0 REVERT JUMPDEST PUSH1 0x0 DUP1 REVERT JUMPDEST PUSH1 0x0 DUP1 REVERT JUMPDEST PUSH1 0x0 DUP1 REVERT JUMPDEST PUSH1 0x0 DUP1 REVERT JUMPDEST PUSH1 0x0 DUP1 REVERT JUMPDEST PUSH1 0x0 PUSH1 0x1F NOT PUSH1 0x1F DUP4 ADD AND SWAP1 POP SWAP2 SWAP1 POP JUMP JUMPDEST PUSH32 0x455243373231456E756D657261626C653A206F776E657220696E646578206F75 PUSH1 0x0 DUP3 ADD MSTORE PUSH32 0x74206F6620626F756E6473000000000000000000000000000000000000000000 PUSH1 0x20 DUP3 ADD MSTORE POP JUMP JUMPDEST PUSH32 0x4552433732313A207472616E7366657220746F206E6F6E204552433732315265 PUSH1 0x0 DUP3 ADD MSTORE PUSH32 0x63656976657220696D706C656D656E7465720000000000000000000000000000 PUSH1 0x20 DUP3 ADD MSTORE POP JUMP JUMPDEST PUSH32 0x4552433732313A207472616E736665722066726F6D20696E636F727265637420 PUSH1 0x0 DUP3 ADD MSTORE PUSH32 0x6F776E6572000000000000000000000000000000000000000000000000000000 PUSH1 0x20 DUP3 ADD MSTORE POP JUMP JUMPDEST PUSH32 0x4552433732313A20746F6B656E20616C7265616479206D696E74656400000000 PUSH1 0x0 DUP3 ADD MSTORE POP JUMP JUMPDEST PUSH32 0x4552433732313A207472616E7366657220746F20746865207A65726F20616464 PUSH1 0x0 DUP3 ADD MSTORE PUSH32 0x7265737300000000000000000000000000000000000000000000000000000000 PUSH1 0x20 DUP3 ADD MSTORE POP JUMP JUMPDEST PUSH32 0x4552433732313A20617070726F766520746F2063616C6C657200000000000000 PUSH1 0x0 DUP3 ADD MSTORE POP JUMP JUMPDEST PUSH32 0x4552433732313A206F70657261746F7220717565727920666F72206E6F6E6578 PUSH1 0x0 DUP3 ADD MSTORE PUSH32 0x697374656E7420746F6B656E0000000000000000000000000000000000000000 PUSH1 0x20 DUP3 ADD MSTORE POP JUMP JUMPDEST PUSH32 0x4552433732313A20617070726F76652063616C6C6572206973206E6F74206F77 PUSH1 0x0 DUP3 ADD MSTORE PUSH32 0x6E6572206E6F7220617070726F76656420666F7220616C6C0000000000000000 PUSH1 0x20 DUP3 ADD MSTORE POP JUMP JUMPDEST PUSH32 0x4552433732313A2062616C616E636520717565727920666F7220746865207A65 PUSH1 0x0 DUP3 ADD MSTORE PUSH32 0x726F206164647265737300000000000000000000000000000000000000000000 PUSH1 0x20 DUP3 ADD MSTORE POP JUMP JUMPDEST PUSH32 0x4552433732313A206F776E657220717565727920666F72206E6F6E6578697374 PUSH1 0x0 DUP3 ADD MSTORE PUSH32 0x656E7420746F6B656E0000000000000000000000000000000000000000000000 PUSH1 0x20 DUP3 ADD MSTORE POP JUMP JUMPDEST PUSH32 0x4552433732313A206D696E7420746F20746865207A65726F2061646472657373 PUSH1 0x0 DUP3 ADD MSTORE POP JUMP JUMPDEST PUSH32 0x4552433732313A20617070726F76656420717565727920666F72206E6F6E6578 PUSH1 0x0 DUP3 ADD MSTORE PUSH32 0x697374656E7420746F6B656E0000000000000000000000000000000000000000 PUSH1 0x20 DUP3 ADD MSTORE POP JUMP JUMPDEST PUSH32 0x4552433732314D657461646174613A2055524920717565727920666F72206E6F PUSH1 0x0 DUP3 ADD MSTORE PUSH32 0x6E6578697374656E7420746F6B656E0000000000000000000000000000000000 PUSH1 0x20 DUP3 ADD MSTORE POP JUMP JUMPDEST PUSH32 0x4552433732313A20617070726F76616C20746F2063757272656E74206F776E65 PUSH1 0x0 DUP3 ADD MSTORE PUSH32 0x7200000000000000000000000000000000000000000000000000000000000000 PUSH1 0x20 DUP3 ADD MSTORE POP JUMP JUMPDEST PUSH32 0x4552433732313A207472616E736665722063616C6C6572206973206E6F74206F PUSH1 0x0 DUP3 ADD MSTORE PUSH32 0x776E6572206E6F7220617070726F766564000000000000000000000000000000 PUSH1 0x20 DUP3 ADD MSTORE POP JUMP JUMPDEST PUSH32 0x455243373231456E756D657261626C653A20676C6F62616C20696E646578206F PUSH1 0x0 DUP3 ADD MSTORE PUSH32 0x7574206F6620626F756E64730000000000000000000000000000000000000000 PUSH1 0x20 DUP3 ADD MSTORE POP JUMP JUMPDEST PUSH2 0x41B3 DUP2 PUSH2 0x3A4B JUMP JUMPDEST DUP2 EQ PUSH2 0x41BE JUMPI PUSH1 0x0 DUP1 REVERT JUMPDEST POP JUMP JUMPDEST PUSH2 0x41CA DUP2 PUSH2 0x3A5D JUMP JUMPDEST DUP2 EQ PUSH2 0x41D5 JUMPI PUSH1 0x0 DUP1 REVERT JUMPDEST POP JUMP JUMPDEST PUSH2 0x41E1 DUP2 PUSH2 0x3A69 JUMP JUMPDEST DUP2 EQ PUSH2 0x41EC JUMPI PUSH1 0x0 DUP1 REVERT JUMPDEST POP JUMP JUMPDEST PUSH2 0x41F8 DUP2 PUSH2 0x3A73 JUMP JUMPDEST DUP2 EQ PUSH2 0x4203 JUMPI PUSH1 0x0 DUP1 REVERT JUMPDEST POP JUMP JUMPDEST PUSH2 0x420F DUP2 PUSH2 0x3ABF JUMP JUMPDEST DUP2 EQ PUSH2 0x421A JUMPI PUSH1 0x0 DUP1 REVERT JUMPDEST POP JUMP INVALID LOG2 PUSH5 0x6970667358 0x22 SLT KECCAK256 CALL PUSH20 0xEAAD11E2E4838A7B17C920385BC1BCAC38D1E79D SWAP15 0x21 0xCF 0xF6 PUSH14 0x571B8A173964736F6C6343000807 STOP CALLER "
		},
		"gasEstimates": {
			"creation": {
				"codeDepositCost": "3395800",
				"executionCost": "infinite",
				"totalCost": "infinite"
			},
			"external": {
				"approve(address,uint256)": "infinite",
				"balanceOf(address)": "2924",
				"fightIDToWinnerPokemon(uint256)": "infinite",
				"getApproved(uint256)": "5228",
				"getStatsByNameID(uint256,uint256)": "infinite",
				"get_winner(uint256,uint256,uint256)": "infinite",
				"isApprovedForAll(address,address)": "infinite",
				"mint(uint256)": "infinite",
				"name()": "infinite",
				"ownerOf(uint256)": "3000",
				"pokemons(uint256)": "infinite",
				"safeTransferFrom(address,address,uint256)": "infinite",
				"safeTransferFrom(address,address,uint256,bytes)": "infinite",
				"sendPokemonsToL2(uint256,(uint256,uint256,uint256,uint256,uint256,uint256,uint256,uint256,uint256,uint256,uint256,uint256),(uint256,uint256,uint256,uint256,uint256,uint256,uint256,uint256,uint256,uint256,uint256,uint256),uint256)": "infinite",
				"setApprovalForAll(address,bool)": "infinite",
				"startFight(uint256,uint256)": "infinite",
				"supportsInterface(bytes4)": "929",
				"symbol()": "infinite",
				"tokenByIndex(uint256)": "infinite",
				"tokenOfOwnerByIndex(address,uint256)": "infinite",
				"tokenURI(uint256)": "3395",
				"totalSupply()": "2557",
				"transferFrom(address,address,uint256)": "infinite"
			},
			"internal": {
				"_beforeTokenTransfer(address,address,uint256)": "infinite",
				"createFightID()": "24378"
			}
		},
		"methodIdentifiers": {
			"approve(address,uint256)": "095ea7b3",
			"balanceOf(address)": "70a08231",
			"fightIDToWinnerPokemon(uint256)": "d82fe3b7",
			"getApproved(uint256)": "081812fc",
			"getStatsByNameID(uint256,uint256)": "3a7174f8",
			"get_winner(uint256,uint256,uint256)": "ddf19a31",
			"isApprovedForAll(address,address)": "e985e9c5",
			"mint(uint256)": "a0712d68",
			"name()": "06fdde03",
			"ownerOf(uint256)": "6352211e",
			"pokemons(uint256)": "85831079",
			"safeTransferFrom(address,address,uint256)": "42842e0e",
			"safeTransferFrom(address,address,uint256,bytes)": "b88d4fde",
			"sendPokemonsToL2(uint256,(uint256,uint256,uint256,uint256,uint256,uint256,uint256,uint256,uint256,uint256,uint256,uint256),(uint256,uint256,uint256,uint256,uint256,uint256,uint256,uint256,uint256,uint256,uint256,uint256),uint256)": "263a2d39",
			"setApprovalForAll(address,bool)": "a22cb465",
			"startFight(uint256,uint256)": "7151fb98",
			"supportsInterface(bytes4)": "01ffc9a7",
			"symbol()": "95d89b41",
			"tokenByIndex(uint256)": "4f6ccce7",
			"tokenOfOwnerByIndex(address,uint256)": "2f745c59",
			"tokenURI(uint256)": "c87b56dd",
			"totalSupply()": "18160ddd",
			"transferFrom(address,address,uint256)": "23b872dd"
		}
	},
	"abi": [
		{
			"inputs": [],
			"stateMutability": "nonpayable",
			"type": "constructor"
		},
		{
			"anonymous": false,
			"inputs": [
				{
					"indexed": true,
					"internalType": "address",
					"name": "owner",
					"type": "address"
				},
				{
					"indexed": true,
					"internalType": "address",
					"name": "approved",
					"type": "address"
				},
				{
					"indexed": true,
					"internalType": "uint256",
					"name": "tokenId",
					"type": "uint256"
				}
			],
			"name": "Approval",
			"type": "event"
		},
		{
			"anonymous": false,
			"inputs": [
				{
					"indexed": true,
					"internalType": "address",
					"name": "owner",
					"type": "address"
				},
				{
					"indexed": true,
					"internalType": "address",
					"name": "operator",
					"type": "address"
				},
				{
					"indexed": false,
					"internalType": "bool",
					"name": "approved",
					"type": "bool"
				}
			],
			"name": "ApprovalForAll",
			"type": "event"
		},
		{
			"anonymous": false,
			"inputs": [
				{
					"indexed": true,
					"internalType": "address",
					"name": "from",
					"type": "address"
				},
				{
					"indexed": true,
					"internalType": "address",
					"name": "to",
					"type": "address"
				},
				{
					"indexed": true,
					"internalType": "uint256",
					"name": "tokenId",
					"type": "uint256"
				}
			],
			"name": "Transfer",
			"type": "event"
		},
		{
			"inputs": [
				{
					"internalType": "address",
					"name": "to",
					"type": "address"
				},
				{
					"internalType": "uint256",
					"name": "tokenId",
					"type": "uint256"
				}
			],
			"name": "approve",
			"outputs": [],
			"stateMutability": "nonpayable",
			"type": "function"
		},
		{
			"inputs": [
				{
					"internalType": "address",
					"name": "owner",
					"type": "address"
				}
			],
			"name": "balanceOf",
			"outputs": [
				{
					"internalType": "uint256",
					"name": "",
					"type": "uint256"
				}
			],
			"stateMutability": "view",
			"type": "function"
		},
		{
			"inputs": [
				{
					"internalType": "uint256",
					"name": "",
					"type": "uint256"
				}
			],
			"name": "fightIDToWinnerPokemon",
			"outputs": [
				{
					"internalType": "uint256",
					"name": "id",
					"type": "uint256"
				},
				{
					"internalType": "uint256",
					"name": "hp",
					"type": "uint256"
				},
				{
					"internalType": "uint256",
					"name": "atk",
					"type": "uint256"
				},
				{
					"internalType": "uint256",
					"name": "init",
					"type": "uint256"
				},
				{
					"internalType": "uint256",
					"name": "def",
					"type": "uint256"
				},
				{
					"internalType": "uint256",
					"name": "type1",
					"type": "uint256"
				},
				{
					"internalType": "uint256",
					"name": "type2",
					"type": "uint256"
				},
				{
					"internalType": "uint256",
					"name": "atk1_type",
					"type": "uint256"
				},
				{
					"internalType": "uint256",
					"name": "atk1_damage",
					"type": "uint256"
				},
				{
					"internalType": "uint256",
					"name": "atk2_type",
					"type": "uint256"
				},
				{
					"internalType": "uint256",
					"name": "atk2_damage",
					"type": "uint256"
				},
				{
					"internalType": "uint256",
					"name": "name_id",
					"type": "uint256"
				}
			],
			"stateMutability": "view",
			"type": "function"
		},
		{
			"inputs": [
				{
					"internalType": "uint256",
					"name": "tokenId",
					"type": "uint256"
				}
			],
			"name": "getApproved",
			"outputs": [
				{
					"internalType": "address",
					"name": "",
					"type": "address"
				}
			],
			"stateMutability": "view",
			"type": "function"
		},
		{
			"inputs": [
				{
					"internalType": "uint256",
					"name": "_name_id",
					"type": "uint256"
				},
				{
					"internalType": "uint256",
					"name": "_id",
					"type": "uint256"
				}
			],
			"name": "getStatsByNameID",
			"outputs": [
				{
					"components": [
						{
							"internalType": "uint256",
							"name": "id",
							"type": "uint256"
						},
						{
							"internalType": "uint256",
							"name": "hp",
							"type": "uint256"
						},
						{
							"internalType": "uint256",
							"name": "atk",
							"type": "uint256"
						},
						{
							"internalType": "uint256",
							"name": "init",
							"type": "uint256"
						},
						{
							"internalType": "uint256",
							"name": "def",
							"type": "uint256"
						},
						{
							"internalType": "uint256",
							"name": "type1",
							"type": "uint256"
						},
						{
							"internalType": "uint256",
							"name": "type2",
							"type": "uint256"
						},
						{
							"internalType": "uint256",
							"name": "atk1_type",
							"type": "uint256"
						},
						{
							"internalType": "uint256",
							"name": "atk1_damage",
							"type": "uint256"
						},
						{
							"internalType": "uint256",
							"name": "atk2_type",
							"type": "uint256"
						},
						{
							"internalType": "uint256",
							"name": "atk2_damage",
							"type": "uint256"
						},
						{
							"internalType": "uint256",
							"name": "name_id",
							"type": "uint256"
						}
					],
					"internalType": "struct NFT.Pokemon",
					"name": "",
					"type": "tuple"
				}
			],
			"stateMutability": "pure",
			"type": "function"
		},
		{
			"inputs": [
				{
					"internalType": "uint256",
					"name": "l2ContractAddress",
					"type": "uint256"
				},
				{
					"internalType": "uint256",
					"name": "pokemonWinnerID",
					"type": "uint256"
				},
				{
					"internalType": "uint256",
					"name": "fightID",
					"type": "uint256"
				}
			],
			"name": "get_winner",
			"outputs": [],
			"stateMutability": "nonpayable",
			"type": "function"
		},
		{
			"inputs": [
				{
					"internalType": "address",
					"name": "owner",
					"type": "address"
				},
				{
					"internalType": "address",
					"name": "operator",
					"type": "address"
				}
			],
			"name": "isApprovedForAll",
			"outputs": [
				{
					"internalType": "bool",
					"name": "",
					"type": "bool"
				}
			],
			"stateMutability": "view",
			"type": "function"
		},
		{
			"inputs": [
				{
					"internalType": "uint256",
					"name": "_name_id",
					"type": "uint256"
				}
			],
			"name": "mint",
			"outputs": [],
			"stateMutability": "nonpayable",
			"type": "function"
		},
		{
			"inputs": [],
			"name": "name",
			"outputs": [
				{
					"internalType": "string",
					"name": "",
					"type": "string"
				}
			],
			"stateMutability": "view",
			"type": "function"
		},
		{
			"inputs": [
				{
					"internalType": "uint256",
					"name": "tokenId",
					"type": "uint256"
				}
			],
			"name": "ownerOf",
			"outputs": [
				{
					"internalType": "address",
					"name": "",
					"type": "address"
				}
			],
			"stateMutability": "view",
			"type": "function"
		},
		{
			"inputs": [
				{
					"internalType": "uint256",
					"name": "",
					"type": "uint256"
				}
			],
			"name": "pokemons",
			"outputs": [
				{
					"internalType": "uint256",
					"name": "id",
					"type": "uint256"
				},
				{
					"internalType": "uint256",
					"name": "hp",
					"type": "uint256"
				},
				{
					"internalType": "uint256",
					"name": "atk",
					"type": "uint256"
				},
				{
					"internalType": "uint256",
					"name": "init",
					"type": "uint256"
				},
				{
					"internalType": "uint256",
					"name": "def",
					"type": "uint256"
				},
				{
					"internalType": "uint256",
					"name": "type1",
					"type": "uint256"
				},
				{
					"internalType": "uint256",
					"name": "type2",
					"type": "uint256"
				},
				{
					"internalType": "uint256",
					"name": "atk1_type",
					"type": "uint256"
				},
				{
					"internalType": "uint256",
					"name": "atk1_damage",
					"type": "uint256"
				},
				{
					"internalType": "uint256",
					"name": "atk2_type",
					"type": "uint256"
				},
				{
					"internalType": "uint256",
					"name": "atk2_damage",
					"type": "uint256"
				},
				{
					"internalType": "uint256",
					"name": "name_id",
					"type": "uint256"
				}
			],
			"stateMutability": "view",
			"type": "function"
		},
		{
			"inputs": [
				{
					"internalType": "address",
					"name": "from",
					"type": "address"
				},
				{
					"internalType": "address",
					"name": "to",
					"type": "address"
				},
				{
					"internalType": "uint256",
					"name": "tokenId",
					"type": "uint256"
				}
			],
			"name": "safeTransferFrom",
			"outputs": [],
			"stateMutability": "nonpayable",
			"type": "function"
		},
		{
			"inputs": [
				{
					"internalType": "address",
					"name": "from",
					"type": "address"
				},
				{
					"internalType": "address",
					"name": "to",
					"type": "address"
				},
				{
					"internalType": "uint256",
					"name": "tokenId",
					"type": "uint256"
				},
				{
					"internalType": "bytes",
					"name": "_data",
					"type": "bytes"
				}
			],
			"name": "safeTransferFrom",
			"outputs": [],
			"stateMutability": "nonpayable",
			"type": "function"
		},
		{
			"inputs": [
				{
					"internalType": "uint256",
					"name": "l2ContractAddress",
					"type": "uint256"
				},
				{
					"components": [
						{
							"internalType": "uint256",
							"name": "id",
							"type": "uint256"
						},
						{
							"internalType": "uint256",
							"name": "hp",
							"type": "uint256"
						},
						{
							"internalType": "uint256",
							"name": "atk",
							"type": "uint256"
						},
						{
							"internalType": "uint256",
							"name": "init",
							"type": "uint256"
						},
						{
							"internalType": "uint256",
							"name": "def",
							"type": "uint256"
						},
						{
							"internalType": "uint256",
							"name": "type1",
							"type": "uint256"
						},
						{
							"internalType": "uint256",
							"name": "type2",
							"type": "uint256"
						},
						{
							"internalType": "uint256",
							"name": "atk1_type",
							"type": "uint256"
						},
						{
							"internalType": "uint256",
							"name": "atk1_damage",
							"type": "uint256"
						},
						{
							"internalType": "uint256",
							"name": "atk2_type",
							"type": "uint256"
						},
						{
							"internalType": "uint256",
							"name": "atk2_damage",
							"type": "uint256"
						},
						{
							"internalType": "uint256",
							"name": "name_id",
							"type": "uint256"
						}
					],
					"internalType": "struct NFT.Pokemon",
					"name": "pok1",
					"type": "tuple"
				},
				{
					"components": [
						{
							"internalType": "uint256",
							"name": "id",
							"type": "uint256"
						},
						{
							"internalType": "uint256",
							"name": "hp",
							"type": "uint256"
						},
						{
							"internalType": "uint256",
							"name": "atk",
							"type": "uint256"
						},
						{
							"internalType": "uint256",
							"name": "init",
							"type": "uint256"
						},
						{
							"internalType": "uint256",
							"name": "def",
							"type": "uint256"
						},
						{
							"internalType": "uint256",
							"name": "type1",
							"type": "uint256"
						},
						{
							"internalType": "uint256",
							"name": "type2",
							"type": "uint256"
						},
						{
							"internalType": "uint256",
							"name": "atk1_type",
							"type": "uint256"
						},
						{
							"internalType": "uint256",
							"name": "atk1_damage",
							"type": "uint256"
						},
						{
							"internalType": "uint256",
							"name": "atk2_type",
							"type": "uint256"
						},
						{
							"internalType": "uint256",
							"name": "atk2_damage",
							"type": "uint256"
						},
						{
							"internalType": "uint256",
							"name": "name_id",
							"type": "uint256"
						}
					],
					"internalType": "struct NFT.Pokemon",
					"name": "pok2",
					"type": "tuple"
				},
				{
					"internalType": "uint256",
					"name": "fight_ID",
					"type": "uint256"
				}
			],
			"name": "sendPokemonsToL2",
			"outputs": [],
			"stateMutability": "payable",
			"type": "function"
		},
		{
			"inputs": [
				{
					"internalType": "address",
					"name": "operator",
					"type": "address"
				},
				{
					"internalType": "bool",
					"name": "approved",
					"type": "bool"
				}
			],
			"name": "setApprovalForAll",
			"outputs": [],
			"stateMutability": "nonpayable",
			"type": "function"
		},
		{
			"inputs": [
				{
					"internalType": "uint256",
					"name": "myPok",
					"type": "uint256"
				},
				{
					"internalType": "uint256",
					"name": "enemyPok",
					"type": "uint256"
				}
			],
			"name": "startFight",
			"outputs": [],
			"stateMutability": "nonpayable",
			"type": "function"
		},
		{
			"inputs": [
				{
					"internalType": "bytes4",
					"name": "interfaceId",
					"type": "bytes4"
				}
			],
			"name": "supportsInterface",
			"outputs": [
				{
					"internalType": "bool",
					"name": "",
					"type": "bool"
				}
			],
			"stateMutability": "view",
			"type": "function"
		},
		{
			"inputs": [],
			"name": "symbol",
			"outputs": [
				{
					"internalType": "string",
					"name": "",
					"type": "string"
				}
			],
			"stateMutability": "view",
			"type": "function"
		},
		{
			"inputs": [
				{
					"internalType": "uint256",
					"name": "index",
					"type": "uint256"
				}
			],
			"name": "tokenByIndex",
			"outputs": [
				{
					"internalType": "uint256",
					"name": "",
					"type": "uint256"
				}
			],
			"stateMutability": "view",
			"type": "function"
		},
		{
			"inputs": [
				{
					"internalType": "address",
					"name": "owner",
					"type": "address"
				},
				{
					"internalType": "uint256",
					"name": "index",
					"type": "uint256"
				}
			],
			"name": "tokenOfOwnerByIndex",
			"outputs": [
				{
					"internalType": "uint256",
					"name": "",
					"type": "uint256"
				}
			],
			"stateMutability": "view",
			"type": "function"
		},
		{
			"inputs": [
				{
					"internalType": "uint256",
					"name": "tokenId",
					"type": "uint256"
				}
			],
			"name": "tokenURI",
			"outputs": [
				{
					"internalType": "string",
					"name": "",
					"type": "string"
				}
			],
			"stateMutability": "view",
			"type": "function"
		},
		{
			"inputs": [],
			"name": "totalSupply",
			"outputs": [
				{
					"internalType": "uint256",
					"name": "",
					"type": "uint256"
				}
			],
			"stateMutability": "view",
			"type": "function"
		},
		{
			"inputs": [
				{
					"internalType": "address",
					"name": "from",
					"type": "address"
				},
				{
					"internalType": "address",
					"name": "to",
					"type": "address"
				},
				{
					"internalType": "uint256",
					"name": "tokenId",
					"type": "uint256"
				}
			],
			"name": "transferFrom",
			"outputs": [],
			"stateMutability": "nonpayable",
			"type": "function"
		}
	]
}