{
	"data": {
		"bytecode": {
			"linkReferences": {},
			"object": "60806040526000600b557f037ffd04fa12a5ab356e2d4d1436e2ab09cc5255373cca1d4a52feea480bf338600c556000600d553480156200003f57600080fd5b506040518060400160405280600381526020017f4e465400000000000000000000000000000000000000000000000000000000008152506040518060400160405280600281526020017f43430000000000000000000000000000000000000000000000000000000000008152508160009080519060200190620000c49291906200013b565b508060019080519060200190620000dd9291906200013b565b50505073de29d060d45901fb19ed6c6e959eb22d8626708e600a60006101000a81548173ffffffffffffffffffffffffffffffffffffffff021916908373ffffffffffffffffffffffffffffffffffffffff16021790555062000250565b8280546200014990620001eb565b90600052602060002090601f0160209004810192826200016d5760008555620001b9565b82601f106200018857805160ff1916838001178555620001b9565b82800160010185558215620001b9579182015b82811115620001b85782518255916020019190600101906200019b565b5b509050620001c89190620001cc565b5090565b5b80821115620001e7576000816000905550600101620001cd565b5090565b600060028204905060018216806200020457607f821691505b602082108114156200021b576200021a62000221565b5b50919050565b7f4e487b7100000000000000000000000000000000000000000000000000000000600052602260045260246000fd5b6150c680620002606000396000f3fe6080604052600436106101355760003560e01c806370a08231116100ab578063a0712d681161006f578063a0712d681461046f578063a22cb46514610498578063b88d4fde146104c1578063c87b56dd146104ea578063d82fe3b714610527578063e985e9c51461056f57610135565b806370a082311461037a57806372e84e3c146103b757806385831079146103e057806385b1c79d1461042857806395d89b411461044457610135565b80631992f36d116100fd5780631992f36d1461023357806323b872dd146102715780632f745c591461029a57806342842e0e146102d75780634f6ccce7146103005780636352211e1461033d57610135565b806301ffc9a71461013a57806306fdde0314610177578063081812fc146101a2578063095ea7b3146101df57806318160ddd14610208575b600080fd5b34801561014657600080fd5b50610161600480360381019061015c9190613b0f565b6105ac565b60405161016e919061418f565b60405180910390f35b34801561018357600080fd5b5061018c6105be565b6040516101999190614216565b60405180910390f35b3480156101ae57600080fd5b506101c960048036038101906101c49190613b69565b610650565b6040516101d69190614128565b60405180910390f35b3480156101eb57600080fd5b5061020660048036038101906102019190613aa2565b6106d5565b005b34801561021457600080fd5b5061021d6107ed565b60405161022a9190614483565b60405180910390f35b34801561023f57600080fd5b5061025a60048036038101906102559190613b69565b6107fa565b604051610268929190614458565b60405180910390f35b34801561027d57600080fd5b506102986004803603810190610293919061398c565b610924565b005b3480156102a657600080fd5b506102c160048036038101906102bc9190613aa2565b610984565b6040516102ce9190614483565b60405180910390f35b3480156102e357600080fd5b506102fe60048036038101906102f9919061398c565b610a29565b005b34801561030c57600080fd5b5061032760048036038101906103229190613b69565b610a49565b6040516103349190614483565b60405180910390f35b34801561034957600080fd5b50610364600480360381019061035f9190613b69565b610aba565b6040516103719190614128565b60405180910390f35b34801561038657600080fd5b506103a1600480360381019061039c919061391f565b610b6c565b6040516103ae9190614483565b60405180910390f35b3480156103c357600080fd5b506103de60048036038101906103d99190613b96565b610c24565b005b3480156103ec57600080fd5b5061040760048036038101906104029190613b69565b610e91565b60405161041f9c9b9a999897969594939291906145db565b60405180910390f35b610442600480360381019061043d9190613b96565b610f01565b005b34801561045057600080fd5b506104596117d2565b6040516104669190614216565b60405180910390f35b34801561047b57600080fd5b5061049660048036038101906104919190613b69565b611864565b005b3480156104a457600080fd5b506104bf60048036038101906104ba9190613a62565b6119d4565b005b3480156104cd57600080fd5b506104e860048036038101906104e391906139df565b6119ea565b005b3480156104f657600080fd5b50610511600480360381019061050c9190613b69565b611a4c565b60405161051e9190614216565b60405180910390f35b34801561053357600080fd5b5061054e60048036038101906105499190613b69565b611af3565b6040516105669c9b9a999897969594939291906145db565b60405180910390f35b34801561057b57600080fd5b506105966004803603810190610591919061394c565b611b53565b6040516105a3919061418f565b60405180910390f35b60006105b782611be7565b9050919050565b6060600080546105cd9061492a565b80601f01602080910402602001604051908101604052809291908181526020018280546105f99061492a565b80156106465780601f1061061b57610100808354040283529160200191610646565b820191906000526020600020905b81548152906001019060200180831161062957829003601f168201915b5050505050905090565b600061065b82611c61565b61069a576040517f08c379a000000000000000000000000000000000000000000000000000000000815260040161069190614398565b60405180910390fd5b6004600083815260200190815260200160002060009054906101000a900473ffffffffffffffffffffffffffffffffffffffff169050919050565b60006106e082610aba565b90508073ffffffffffffffffffffffffffffffffffffffff168373ffffffffffffffffffffffffffffffffffffffff161415610751576040517f08c379a0000000000000000000000000000000000000000000000000000000008152600401610748906143d8565b60405180910390fd5b8073ffffffffffffffffffffffffffffffffffffffff16610770611ccd565b73ffffffffffffffffffffffffffffffffffffffff16148061079f575061079e81610799611ccd565b611b53565b5b6107de576040517f08c379a00000000000000000000000000000000000000000000000000000000081526004016107d590614318565b60405180910390fd5b6107e88383611cd5565b505050565b6000600880549050905090565b6010602052806000526040600020600091509050806000016040518061018001604052908160008201548152602001600182015481526020016002820154815260200160038201548152602001600482015481526020016005820154815260200160068201548152602001600782015481526020016008820154815260200160098201548152602001600a8201548152602001600b820154815250509080600c016040518061018001604052908160008201548152602001600182015481526020016002820154815260200160038201548152602001600482015481526020016005820154815260200160068201548152602001600782015481526020016008820154815260200160098201548152602001600a8201548152602001600b82015481525050905082565b61093561092f611ccd565b82611d8e565b610974576040517f08c379a000000000000000000000000000000000000000000000000000000000815260040161096b906143f8565b60405180910390fd5b61097f838383611e6c565b505050565b600061098f83610b6c565b82106109d0576040517f08c379a00000000000000000000000000000000000000000000000000000000081526004016109c790614238565b60405180910390fd5b600660008473ffffffffffffffffffffffffffffffffffffffff1673ffffffffffffffffffffffffffffffffffffffff168152602001908152602001600020600083815260200190815260200160002054905092915050565b610a44838383604051806020016040528060008152506119ea565b505050565b6000610a536107ed565b8210610a94576040517f08c379a0000000000000000000000000000000000000000000000000000000008152600401610a8b90614438565b60405180910390fd5b60088281548110610aa857610aa7614acd565b5b90600052602060002001549050919050565b6000806002600084815260200190815260200160002060009054906101000a900473ffffffffffffffffffffffffffffffffffffffff169050600073ffffffffffffffffffffffffffffffffffffffff168173ffffffffffffffffffffffffffffffffffffffff161415610b63576040517f08c379a0000000000000000000000000000000000000000000000000000000008152600401610b5a90614358565b60405180910390fd5b80915050919050565b60008073ffffffffffffffffffffffffffffffffffffffff168273ffffffffffffffffffffffffffffffffffffffff161415610bdd576040517f08c379a0000000000000000000000000000000000000000000000000000000008152600401610bd490614338565b60405180910390fd5b600360008373ffffffffffffffffffffffffffffffffffffffff1673ffffffffffffffffffffffffffffffffffffffff168152602001908152602001600020549050919050565b7f0ed9918e573b159b62731bc88263b9ce84e79c6335fbba2b28f981840126e16f612b67604051610c5591906141aa565b60405180910390a16000600267ffffffffffffffff811115610c7a57610c79614afc565b5b604051908082528060200260200182016040528015610ca85781602001602082028036833780820191505090505b5090508281600081518110610cc057610cbf614acd565b5b6020026020010181815250508181600181518110610ce157610ce0614acd565b5b602002602001018181525050600a60009054906101000a900473ffffffffffffffffffffffffffffffffffffffff1673ffffffffffffffffffffffffffffffffffffffff16632c9dd5c0600c54836040518363ffffffff1660e01b8152600401610d4c92919061449e565b602060405180830381600087803b158015610d6657600080fd5b505af1158015610d7a573d6000803e3d6000fd5b505050506040513d601f19601f82011682018060405250810190610d9e9190613ae2565b50600e8381548110610db357610db2614acd565b5b90600052602060002090600c0201600f600084815260200190815260200160002060008201548160000155600182015481600101556002820154816002015560038201548160030155600482015481600401556005820154816005015560068201548160060155600782015481600701556008820154816008015560098201548160090155600a82015481600a0155600b82015481600b01559050507fb8d7090364da4a6371334296aaf588e8d119f8490ac61ce968a539406164f5fb600c548484604051610e849392919061450c565b60405180910390a1505050565b600e8181548110610ea157600080fd5b90600052602060002090600c020160009150905080600001549080600101549080600201549080600301549080600401549080600501549080600601549080600701549080600801549080600901549080600a01549080600b015490508c565b3373ffffffffffffffffffffffffffffffffffffffff16610f2183610aba565b73ffffffffffffffffffffffffffffffffffffffff1614610f4157600080fd5b610f496107ed565b8210610f5457600080fd5b610f5c6107ed565b8110610f6757600080fd5b7f3593df2963c20760afeec7bc9ae99f0ad8227ec08877590930b113d33df9c0676001604051610f9791906141c5565b60405180910390a16000600e8381548110610fb557610fb4614acd565b5b90600052602060002090600c02016040518061018001604052908160008201548152602001600182015481526020016002820154815260200160038201548152602001600482015481526020016005820154815260200160068201548152602001600782015481526020016008820154815260200160098201548152602001600a8201548152602001600b8201548152505090506000600e838154811061105f5761105e614acd565b5b90600052602060002090600c02016040518061018001604052908160008201548152602001600182015481526020016002820154815260200160038201548152602001600482015481526020016005820154815260200160068201548152602001600782015481526020016008820154815260200160098201548152602001600a8201548152602001600b82015481525050905060006110fd6120d3565b90507f3593df2963c20760afeec7bc9ae99f0ad8227ec08877590930b113d33df9c067600260405161112f91906141e0565b60405180910390a16000601967ffffffffffffffff81111561115457611153614afc565b5b6040519080825280602002602001820160405280156111825781602001602082028036833780820191505090505b50905083600001518160008151811061119e5761119d614acd565b5b6020026020010181815250508360200151816001815181106111c3576111c2614acd565b5b6020026020010181815250508360400151816002815181106111e8576111e7614acd565b5b60200260200101818152505083606001518160038151811061120d5761120c614acd565b5b60200260200101818152505083608001518160048151811061123257611231614acd565b5b6020026020010181815250508360a001518160058151811061125757611256614acd565b5b6020026020010181815250508360c001518160068151811061127c5761127b614acd565b5b6020026020010181815250508360e00151816007815181106112a1576112a0614acd565b5b602002602001018181525050836101000151816008815181106112c7576112c6614acd565b5b602002602001018181525050836101200151816009815181106112ed576112ec614acd565b5b60200260200101818152505083610140015181600a8151811061131357611312614acd565b5b60200260200101818152505083610160015181600b8151811061133957611338614acd565b5b602002602001018181525050826000015181600c8151811061135e5761135d614acd565b5b602002602001018181525050826020015181600d8151811061138357611382614acd565b5b602002602001018181525050826040015181600e815181106113a8576113a7614acd565b5b602002602001018181525050826060015181600f815181106113cd576113cc614acd565b5b6020026020010181815250508260800151816010815181106113f2576113f1614acd565b5b6020026020010181815250508260a001518160118151811061141757611416614acd565b5b6020026020010181815250508260c001518160128151811061143c5761143b614acd565b5b6020026020010181815250508260e001518160138151811061146157611460614acd565b5b6020026020010181815250508261010001518160148151811061148757611486614acd565b5b602002602001018181525050826101200151816015815181106114ad576114ac614acd565b5b602002602001018181525050826101400151816016815181106114d3576114d2614acd565b5b602002602001018181525050826101600151816017815181106114f9576114f8614acd565b5b602002602001018181525050818160188151811061151a57611519614acd565b5b6020026020010181815250507f3593df2963c20760afeec7bc9ae99f0ad8227ec08877590930b113d33df9c067600360405161155691906141fb565b60405180910390a1600a60009054906101000a900473ffffffffffffffffffffffffffffffffffffffff1673ffffffffffffffffffffffffffffffffffffffff16633e3aa6c534600c547f0397f7783310f752c90187fffbd53489b1ff1f87fcf4636e32dc6bcbbf0b224f856040518563ffffffff1660e01b81526004016115e0939291906144ce565b6020604051808303818588803b1580156115f957600080fd5b505af115801561160d573d6000803e3d6000fd5b50505050506040513d601f19601f820116820180604052508101906116329190613ae2565b5060405180604001604052808581526020018481525060106000848152602001908152602001600020600082015181600001600082015181600001556020820151816001015560408201518160020155606082015181600301556080820151816004015560a0820151816005015560c0820151816006015560e082015181600701556101008201518160080155610120820151816009015561014082015181600a015561016082015181600b01555050602082015181600c01600082015181600001556020820151816001015560408201518160020155606082015181600301556080820151816004015560a0820151816005015560c0820151816006015560e082015181600701556101008201518160080155610120820151816009015561014082015181600a015561016082015181600b015550509050503373ffffffffffffffffffffffffffffffffffffffff167fd02fce1acafa0b604f24aaad2d7c0a36c749f4b333abc05fc83ba197d5e0705c85600001518560000151600c54346040516117c29493929190614543565b60405180910390a2505050505050565b6060600180546117e19061492a565b80601f016020809104026020016040519081016040528092919081815260200182805461180d9061492a565b801561185a5780601f1061182f5761010080835404028352916020019161185a565b820191906000526020600020905b81548152906001019060200180831161183d57829003601f168201915b5050505050905090565b600081118015611875575061028a81105b6118b4576040517f08c379a00000000000000000000000000000000000000000000000000000000081526004016118ab90614418565b60405180910390fd5b6000600e80549050905060006118ca83836120f1565b9050600e8190806001815401808255809150506001900390600052602060002090600c0201600090919091909150600082015181600001556020820151816001015560408201518160020155606082015181600301556080820151816004015560a0820151816005015560c0820151816006015560e082015181600701556101008201518160080155610120820151816009015561014082015181600a015561016082015181600b015550507f4e55bd6db2c9ffa320eac64df3b7d1a3ba28ee53ce174854fc3a1918243aa01c8282602001518360400151846060015185608001516040516119bd959493929190614588565b60405180910390a16119cf3383612882565b505050565b6119e66119df611ccd565b83836128a0565b5050565b6119fb6119f5611ccd565b83611d8e565b611a3a576040517f08c379a0000000000000000000000000000000000000000000000000000000008152600401611a31906143f8565b60405180910390fd5b611a4684848484612a0d565b50505050565b6060611a5782611c61565b611a96576040517f08c379a0000000000000000000000000000000000000000000000000000000008152600401611a8d906143b8565b60405180910390fd5b6000611aa0612a69565b90506000815111611ac05760405180602001604052806000815250611aeb565b80611aca84612a80565b604051602001611adb9291906140c7565b6040516020818303038152906040525b915050919050565b600f60205280600052604060002060009150905080600001549080600101549080600201549080600301549080600401549080600501549080600601549080600701549080600801549080600901549080600a01549080600b015490508c565b6000600560008473ffffffffffffffffffffffffffffffffffffffff1673ffffffffffffffffffffffffffffffffffffffff16815260200190815260200160002060008373ffffffffffffffffffffffffffffffffffffffff1673ffffffffffffffffffffffffffffffffffffffff16815260200190815260200160002060009054906101000a900460ff16905092915050565b60007f780e9d63000000000000000000000000000000000000000000000000000000007bffffffffffffffffffffffffffffffffffffffffffffffffffffffff1916827bffffffffffffffffffffffffffffffffffffffffffffffffffffffff19161480611c5a5750611c5982612be1565b5b9050919050565b60008073ffffffffffffffffffffffffffffffffffffffff166002600084815260200190815260200160002060009054906101000a900473ffffffffffffffffffffffffffffffffffffffff1673ffffffffffffffffffffffffffffffffffffffff1614159050919050565b600033905090565b816004600083815260200190815260200160002060006101000a81548173ffffffffffffffffffffffffffffffffffffffff021916908373ffffffffffffffffffffffffffffffffffffffff160217905550808273ffffffffffffffffffffffffffffffffffffffff16611d4883610aba565b73ffffffffffffffffffffffffffffffffffffffff167f8c5be1e5ebec7d5bd14f71427d1e84f3dd0314c0f7b2291e5b200ac8c7c3b92560405160405180910390a45050565b6000611d9982611c61565b611dd8576040517f08c379a0000000000000000000000000000000000000000000000000000000008152600401611dcf906142f8565b60405180910390fd5b6000611de383610aba565b90508073ffffffffffffffffffffffffffffffffffffffff168473ffffffffffffffffffffffffffffffffffffffff161480611e255750611e248185611b53565b5b80611e6357508373ffffffffffffffffffffffffffffffffffffffff16611e4b84610650565b73ffffffffffffffffffffffffffffffffffffffff16145b91505092915050565b8273ffffffffffffffffffffffffffffffffffffffff16611e8c82610aba565b73ffffffffffffffffffffffffffffffffffffffff1614611ee2576040517f08c379a0000000000000000000000000000000000000000000000000000000008152600401611ed990614278565b60405180910390fd5b600073ffffffffffffffffffffffffffffffffffffffff168273ffffffffffffffffffffffffffffffffffffffff161415611f52576040517f08c379a0000000000000000000000000000000000000000000000000000000008152600401611f49906142b8565b60405180910390fd5b611f5d838383612cc3565b611f68600082611cd5565b6001600360008573ffffffffffffffffffffffffffffffffffffffff1673ffffffffffffffffffffffffffffffffffffffff1681526020019081526020016000206000828254611fb891906147ee565b925050819055506001600360008473ffffffffffffffffffffffffffffffffffffffff1673ffffffffffffffffffffffffffffffffffffffff168152602001908152602001600020600082825461200f9190614767565b92505081905550816002600083815260200190815260200160002060006101000a81548173ffffffffffffffffffffffffffffffffffffffff021916908373ffffffffffffffffffffffffffffffffffffffff160217905550808273ffffffffffffffffffffffffffffffffffffffff168473ffffffffffffffffffffffffffffffffffffffff167fddf252ad1be2c89b69c2b068fc378daa952ba7f163c4a11628f55a4df523b3ef60405160405180910390a46120ce838383612cd3565b505050565b6000600d60008154809291906120e89061498d565b91905055905090565b6120f96137d0565b60018314156121335761212c826098606f606a606f600360636003601e61211e612cd8565b612126612ce9565b8e612d06565b905061287c565b600283141561216d576121668260a7607d607b607e6003600760036028612158612cd8565b612160612ce9565b8e612d06565b905061287c565b60038314156121a7576121a08260bb60a7609160c06003600760036032612192612cd8565b61219a612ce9565b8e612d06565b905061287c565b60048314156121e1576121da82609260726080606860016063600160286121cc612cd8565b6121d4612ce9565b8e612d06565b905061287c565b600583141561221b576122148260a5607f609160796001606360016028612206612cd8565b61220e612ce9565b8e612d06565b905061287c565b60068314156122555761224e8260b960c860a760b36001600960016032612240612cd8565b612248612ce9565b8e612d06565b905061287c565b600783141561228f57612288826097606e60686080600260636002601e61227a612cd8565b612282612ce9565b8e612d06565b905061287c565b60088314156122c9576122c28260a6607e6079609160026063600260286122b4612cd8565b6122bc612ce9565b8e612d06565b905061287c565b6009831415612303576122fc8260ba6094608f60a760026063600260326122ee612cd8565b6122f6612ce9565b8e612d06565b905061287c565b600a8314156123235761231c82600b6063866001612dba565b905061287c565b600b8314156123435761233c82600b6063866002612dba565b905061287c565b600c8314156123635761235c82600b6009866003612dba565b905061287c565b600d8314156123835761237c82600b6007866001612dba565b905061287c565b600e8314156123a35761239c82600b6007866002612dba565b905061287c565b600f8314156123c3576123bc82600b6007866003612dba565b905061287c565b60108314156123e3576123dc8260006009866001612dba565b905061287c565b6011831415612403576123fc8260006009866002612dba565b905061287c565b60128314156124235761241c8260006009866003612dba565b905061287c565b60138314156124435761243c8260006063866001612dba565b905061287c565b60148314156124635761245c8260006063866002612dba565b905061287c565b60158314156124835761247c8260006009866001612dba565b905061287c565b60168314156124a35761249c8260006009866002612dba565b905061287c565b60178314156124c3576124bc8260076063866001612dba565b905061287c565b60188314156124e3576124dc8260076063866002612dba565b905061287c565b6019831415612503576124fc8260046063866002612dba565b905061287c565b601a8314156125235761251c8260046063866003612dba565b905061287c565b601b8314156125435761253c8260086063866001612dba565b905061287c565b601c8314156125635761255c8260086063866002612dba565b905061287c565b601d8314156125835761257c8260076063866001612dba565b905061287c565b601e8314156125a35761259c8260076063866001612dba565b905061287c565b601f8314156125c3576125bc8260076008866003612dba565b905061287c565b60208314156125e3576125dc8260076063866001612dba565b905061287c565b6021831415612603576125fc8260076063866002612dba565b905061287c565b60228314156126235761261c8260076008866003612dba565b905061287c565b60238314156126435761263c8260116063866001612dba565b905061287c565b60248314156126635761265c8260116063866002612dba565b905061287c565b60258314156126835761267c8260016063866002612dba565b905061287c565b60268314156126a35761269c8260016063866003612dba565b905061287c565b60278314156126c3576126bc8260006011866001612dba565b905061287c565b60288314156126e3576126dc8260006011866002612dba565b905061287c565b6029831415612703576126fc8260076009866001612dba565b905061287c565b602a8314156127235761271c8260076009866002612dba565b905061287c565b602b8314156127435761273c8260036007866001612dba565b905061287c565b602c8314156127635761275c8260036007866002612dba565b905061287c565b602d8314156127835761277c8260036007866003612dba565b905061287c565b602e8314156127a35761279c82600b6003866001612dba565b905061287c565b602f8314156127c3576127bc82600b6003866002612dba565b905061287c565b60308314156127e3576127dc82600b6007866001612dba565b905061287c565b6031831415612803576127fc82600b6007866003612dba565b905061287c565b60328314156128235761281c8260086063866002612dba565b905061287c565b60338314156128435761283c8260086063866003612dba565b905061287c565b60348314156128635761285c8260006063866002612dba565b905061287c565b612879826000606386612874612ece565b612dba565b90505b92915050565b61289c828260405180602001604052806000815250612eeb565b5050565b8173ffffffffffffffffffffffffffffffffffffffff168373ffffffffffffffffffffffffffffffffffffffff16141561290f576040517f08c379a0000000000000000000000000000000000000000000000000000000008152600401612906906142d8565b60405180910390fd5b80600560008573ffffffffffffffffffffffffffffffffffffffff1673ffffffffffffffffffffffffffffffffffffffff16815260200190815260200160002060008473ffffffffffffffffffffffffffffffffffffffff1673ffffffffffffffffffffffffffffffffffffffff16815260200190815260200160002060006101000a81548160ff0219169083151502179055508173ffffffffffffffffffffffffffffffffffffffff168373ffffffffffffffffffffffffffffffffffffffff167f17307eab39ab6107e8899845ad3d59bd9653f200f220920489ca2b5937696c3183604051612a00919061418f565b60405180910390a3505050565b612a18848484611e6c565b612a2484848484612f46565b612a63576040517f08c379a0000000000000000000000000000000000000000000000000000000008152600401612a5a90614258565b60405180910390fd5b50505050565b606060405180602001604052806000815250905090565b60606000821415612ac8576040518060400160405280600181526020017f30000000000000000000000000000000000000000000000000000000000000008152509050612bdc565b600082905060005b60008214612afa578080612ae39061498d565b915050600a82612af391906147bd565b9150612ad0565b60008167ffffffffffffffff811115612b1657612b15614afc565b5b6040519080825280601f01601f191660200182016040528015612b485781602001600182028036833780820191505090505b5090505b60008514612bd557600182612b6191906147ee565b9150600a85612b7091906149e0565b6030612b7c9190614767565b60f81b818381518110612b9257612b91614acd565b5b60200101907effffffffffffffffffffffffffffffffffffffffffffffffffffffffffffff1916908160001a905350600a85612bce91906147bd565b9450612b4c565b8093505050505b919050565b60007f80ac58cd000000000000000000000000000000000000000000000000000000007bffffffffffffffffffffffffffffffffffffffffffffffffffffffff1916827bffffffffffffffffffffffffffffffffffffffffffffffffffffffff19161480612cac57507f5b5e139f000000000000000000000000000000000000000000000000000000007bffffffffffffffffffffffffffffffffffffffffffffffffffffffff1916827bffffffffffffffffffffffffffffffffffffffffffffffffffffffff1916145b80612cbc5750612cbb826130dd565b5b9050919050565b612cce838383613147565b505050565b505050565b6000612ce4601161325b565b905090565b60006028612cf7603261325b565b612d019190614767565b905090565b612d0e6137d0565b6040518061018001604052808e8152602001612d286132b7565b8e612d339190614767565b8152602001612d406132b7565b8d612d4b9190614767565b8152602001612d586132b7565b8c612d639190614767565b8152602001612d706132b7565b8b612d7b9190614767565b81526020018981526020018881526020018781526020018681526020018581526020018481526020018381525090509c9b505050505050505050505050565b612dc26137d0565b6000606490506002831415612de157601481612dde9190614767565b90505b6003831415612dfa57603281612df79190614767565b90505b6004831415612e1357604681612e109190614767565b90505b604051806101800160405280888152602001612e2d6132b7565b83612e389190614767565b8152602001612e456132b7565b83612e509190614767565b8152602001612e5d6132b7565b83612e689190614767565b8152602001612e756132b7565b83612e809190614767565b8152602001878152602001868152602001878152602001612e9f612ce9565b8152602001612eac612cd8565b8152602001612eb9612ce9565b81526020018581525091505095945050505050565b60006001612edc600261325b565b612ee69190614767565b905090565b612ef583836132c8565b612f026000848484612f46565b612f41576040517f08c379a0000000000000000000000000000000000000000000000000000000008152600401612f3890614258565b60405180910390fd5b505050565b6000612f678473ffffffffffffffffffffffffffffffffffffffff166134a2565b156130d0578373ffffffffffffffffffffffffffffffffffffffff1663150b7a02612f90611ccd565b8786866040518563ffffffff1660e01b8152600401612fb29493929190614143565b602060405180830381600087803b158015612fcc57600080fd5b505af1925050508015612ffd57506040513d601f19601f82011682018060405250810190612ffa9190613b3c565b60015b613080573d806000811461302d576040519150601f19603f3d011682016040523d82523d6000602084013e613032565b606091505b50600081511415613078576040517f08c379a000000000000000000000000000000000000000000000000000000000815260040161306f90614258565b60405180910390fd5b805181602001fd5b63150b7a0260e01b7bffffffffffffffffffffffffffffffffffffffffffffffffffffffff1916817bffffffffffffffffffffffffffffffffffffffffffffffffffffffff1916149150506130d5565b600190505b949350505050565b60007f01ffc9a7000000000000000000000000000000000000000000000000000000007bffffffffffffffffffffffffffffffffffffffffffffffffffffffff1916827bffffffffffffffffffffffffffffffffffffffffffffffffffffffff1916149050919050565b6131528383836134c5565b600073ffffffffffffffffffffffffffffffffffffffff168373ffffffffffffffffffffffffffffffffffffffff16141561319557613190816134ca565b6131d4565b8173ffffffffffffffffffffffffffffffffffffffff168373ffffffffffffffffffffffffffffffffffffffff16146131d3576131d28382613513565b5b5b600073ffffffffffffffffffffffffffffffffffffffff168273ffffffffffffffffffffffffffffffffffffffff1614156132175761321281613680565b613256565b8273ffffffffffffffffffffffffffffffffffffffff168273ffffffffffffffffffffffffffffffffffffffff1614613255576132548282613751565b5b5b505050565b6000600b60008154809291906132709061498d565b9190505550814442600b5460405160200161328d939291906140eb565b6040516020818303038152906040528051906020012060001c6132b091906149e0565b9050919050565b60006132c3601461325b565b905090565b600073ffffffffffffffffffffffffffffffffffffffff168273ffffffffffffffffffffffffffffffffffffffff161415613338576040517f08c379a000000000000000000000000000000000000000000000000000000000815260040161332f90614378565b60405180910390fd5b61334181611c61565b15613381576040517f08c379a000000000000000000000000000000000000000000000000000000000815260040161337890614298565b60405180910390fd5b61338d60008383612cc3565b6001600360008473ffffffffffffffffffffffffffffffffffffffff1673ffffffffffffffffffffffffffffffffffffffff16815260200190815260200160002060008282546133dd9190614767565b92505081905550816002600083815260200190815260200160002060006101000a81548173ffffffffffffffffffffffffffffffffffffffff021916908373ffffffffffffffffffffffffffffffffffffffff160217905550808273ffffffffffffffffffffffffffffffffffffffff16600073ffffffffffffffffffffffffffffffffffffffff167fddf252ad1be2c89b69c2b068fc378daa952ba7f163c4a11628f55a4df523b3ef60405160405180910390a461349e60008383612cd3565b5050565b6000808273ffffffffffffffffffffffffffffffffffffffff163b119050919050565b505050565b6008805490506009600083815260200190815260200160002081905550600881908060018154018082558091505060019003906000526020600020016000909190919091505550565b6000600161352084610b6c565b61352a91906147ee565b905060006007600084815260200190815260200160002054905081811461360f576000600660008673ffffffffffffffffffffffffffffffffffffffff1673ffffffffffffffffffffffffffffffffffffffff168152602001908152602001600020600084815260200190815260200160002054905080600660008773ffffffffffffffffffffffffffffffffffffffff1673ffffffffffffffffffffffffffffffffffffffff168152602001908152602001600020600084815260200190815260200160002081905550816007600083815260200190815260200160002081905550505b6007600084815260200190815260200160002060009055600660008573ffffffffffffffffffffffffffffffffffffffff1673ffffffffffffffffffffffffffffffffffffffff16815260200190815260200160002060008381526020019081526020016000206000905550505050565b6000600160088054905061369491906147ee565b90506000600960008481526020019081526020016000205490506000600883815481106136c4576136c3614acd565b5b9060005260206000200154905080600883815481106136e6576136e5614acd565b5b90600052602060002001819055508160096000838152602001908152602001600020819055506009600085815260200190815260200160002060009055600880548061373557613734614a9e565b5b6001900381819060005260206000200160009055905550505050565b600061375c83610b6c565b905081600660008573ffffffffffffffffffffffffffffffffffffffff1673ffffffffffffffffffffffffffffffffffffffff168152602001908152602001600020600083815260200190815260200160002081905550806007600084815260200190815260200160002081905550505050565b6040518061018001604052806000815260200160008152602001600081526020016000815260200160008152602001600081526020016000815260200160008152602001600081526020016000815260200160008152602001600081525090565b600061384461383f846146ba565b614695565b9050828152602081018484840111156138605761385f614b30565b5b61386b8482856148e8565b509392505050565b6000813590506138828161501d565b92915050565b60008135905061389781615034565b92915050565b6000815190506138ac8161504b565b92915050565b6000813590506138c181615062565b92915050565b6000815190506138d681615062565b92915050565b600082601f8301126138f1576138f0614b2b565b5b8135613901848260208601613831565b91505092915050565b60008135905061391981615079565b92915050565b60006020828403121561393557613934614b3a565b5b600061394384828501613873565b91505092915050565b6000806040838503121561396357613962614b3a565b5b600061397185828601613873565b925050602061398285828601613873565b9150509250929050565b6000806000606084860312156139a5576139a4614b3a565b5b60006139b386828701613873565b93505060206139c486828701613873565b92505060406139d58682870161390a565b9150509250925092565b600080600080608085870312156139f9576139f8614b3a565b5b6000613a0787828801613873565b9450506020613a1887828801613873565b9350506040613a298782880161390a565b925050606085013567ffffffffffffffff811115613a4a57613a49614b35565b5b613a56878288016138dc565b91505092959194509250565b60008060408385031215613a7957613a78614b3a565b5b6000613a8785828601613873565b9250506020613a9885828601613888565b9150509250929050565b60008060408385031215613ab957613ab8614b3a565b5b6000613ac785828601613873565b9250506020613ad88582860161390a565b9150509250929050565b600060208284031215613af857613af7614b3a565b5b6000613b068482850161389d565b91505092915050565b600060208284031215613b2557613b24614b3a565b5b6000613b33848285016138b2565b91505092915050565b600060208284031215613b5257613b51614b3a565b5b6000613b60848285016138c7565b91505092915050565b600060208284031215613b7f57613b7e614b3a565b5b6000613b8d8482850161390a565b91505092915050565b60008060408385031215613bad57613bac614b3a565b5b6000613bbb8582860161390a565b9250506020613bcc8582860161390a565b9150509250929050565b6000613be28383614092565b60208301905092915050565b613bf781614822565b82525050565b6000613c08826146fb565b613c128185614729565b9350613c1d836146eb565b8060005b83811015613c4e578151613c358882613bd6565b9750613c408361471c565b925050600181019050613c21565b5085935050505092915050565b613c6481614834565b82525050565b6000613c7582614706565b613c7f818561473a565b9350613c8f8185602086016148f7565b613c9881614b3f565b840191505092915050565b613cac816148a0565b82525050565b613cbb816148b2565b82525050565b613cca816148c4565b82525050565b613cd9816148d6565b82525050565b6000613cea82614711565b613cf4818561474b565b9350613d048185602086016148f7565b613d0d81614b3f565b840191505092915050565b6000613d2382614711565b613d2d818561475c565b9350613d3d8185602086016148f7565b80840191505092915050565b6000613d56602b8361474b565b9150613d6182614b50565b604082019050919050565b6000613d7960328361474b565b9150613d8482614b9f565b604082019050919050565b6000613d9c60258361474b565b9150613da782614bee565b604082019050919050565b6000613dbf601c8361474b565b9150613dca82614c3d565b602082019050919050565b6000613de260248361474b565b9150613ded82614c66565b604082019050919050565b6000613e0560198361474b565b9150613e1082614cb5565b602082019050919050565b6000613e28602c8361474b565b9150613e3382614cde565b604082019050919050565b6000613e4b60388361474b565b9150613e5682614d2d565b604082019050919050565b6000613e6e602a8361474b565b9150613e7982614d7c565b604082019050919050565b6000613e9160298361474b565b9150613e9c82614dcb565b604082019050919050565b6000613eb460208361474b565b9150613ebf82614e1a565b602082019050919050565b6000613ed7602c8361474b565b9150613ee282614e43565b604082019050919050565b6000613efa602f8361474b565b9150613f0582614e92565b604082019050919050565b6000613f1d60218361474b565b9150613f2882614ee1565b604082019050919050565b6000613f4060318361474b565b9150613f4b82614f30565b604082019050919050565b6000613f6360318361474b565b9150613f6e82614f7f565b604082019050919050565b6000613f86602c8361474b565b9150613f9182614fce565b604082019050919050565b61018082016000820151613fb36000850182614092565b506020820151613fc66020850182614092565b506040820151613fd96040850182614092565b506060820151613fec6060850182614092565b506080820151613fff6080850182614092565b5060a082015161401260a0850182614092565b5060c082015161402560c0850182614092565b5060e082015161403860e0850182614092565b5061010082015161404d610100850182614092565b50610120820151614062610120850182614092565b50610140820151614077610140850182614092565b5061016082015161408c610160850182614092565b50505050565b61409b81614896565b82525050565b6140aa81614896565b82525050565b6140c16140bc82614896565b6149d6565b82525050565b60006140d38285613d18565b91506140df8284613d18565b91508190509392505050565b60006140f782866140b0565b60208201915061410782856140b0565b60208201915061411782846140b0565b602082019150819050949350505050565b600060208201905061413d6000830184613bee565b92915050565b60006080820190506141586000830187613bee565b6141656020830186613bee565b61417260408301856140a1565b81810360608301526141848184613c6a565b905095945050505050565b60006020820190506141a46000830184613c5b565b92915050565b60006020820190506141bf6000830184613ca3565b92915050565b60006020820190506141da6000830184613cb2565b92915050565b60006020820190506141f56000830184613cc1565b92915050565b60006020820190506142106000830184613cd0565b92915050565b600060208201905081810360008301526142308184613cdf565b905092915050565b6000602082019050818103600083015261425181613d49565b9050919050565b6000602082019050818103600083015261427181613d6c565b9050919050565b6000602082019050818103600083015261429181613d8f565b9050919050565b600060208201905081810360008301526142b181613db2565b9050919050565b600060208201905081810360008301526142d181613dd5565b9050919050565b600060208201905081810360008301526142f181613df8565b9050919050565b6000602082019050818103600083015261431181613e1b565b9050919050565b6000602082019050818103600083015261433181613e3e565b9050919050565b6000602082019050818103600083015261435181613e61565b9050919050565b6000602082019050818103600083015261437181613e84565b9050919050565b6000602082019050818103600083015261439181613ea7565b9050919050565b600060208201905081810360008301526143b181613eca565b9050919050565b600060208201905081810360008301526143d181613eed565b9050919050565b600060208201905081810360008301526143f181613f10565b9050919050565b6000602082019050818103600083015261441181613f33565b9050919050565b6000602082019050818103600083015261443181613f56565b9050919050565b6000602082019050818103600083015261445181613f79565b9050919050565b60006103008201905061446e6000830185613f9c565b61447c610180830184613f9c565b9392505050565b600060208201905061449860008301846140a1565b92915050565b60006040820190506144b360008301856140a1565b81810360208301526144c58184613bfd565b90509392505050565b60006060820190506144e360008301866140a1565b6144f060208301856140a1565b81810360408301526145028184613bfd565b9050949350505050565b600060608201905061452160008301866140a1565b61452e60208301856140a1565b61453b60408301846140a1565b949350505050565b600060808201905061455860008301876140a1565b61456560208301866140a1565b61457260408301856140a1565b61457f60608301846140a1565b95945050505050565b600060a08201905061459d60008301886140a1565b6145aa60208301876140a1565b6145b760408301866140a1565b6145c460608301856140a1565b6145d160808301846140a1565b9695505050505050565b6000610180820190506145f1600083018f6140a1565b6145fe602083018e6140a1565b61460b604083018d6140a1565b614618606083018c6140a1565b614625608083018b6140a1565b61463260a083018a6140a1565b61463f60c08301896140a1565b61464c60e08301886140a1565b61465a6101008301876140a1565b6146686101208301866140a1565b6146766101408301856140a1565b6146846101608301846140a1565b9d9c50505050505050505050505050565b600061469f6146b0565b90506146ab828261495c565b919050565b6000604051905090565b600067ffffffffffffffff8211156146d5576146d4614afc565b5b6146de82614b3f565b9050602081019050919050565b6000819050602082019050919050565b600081519050919050565b600081519050919050565b600081519050919050565b6000602082019050919050565b600082825260208201905092915050565b600082825260208201905092915050565b600082825260208201905092915050565b600081905092915050565b600061477282614896565b915061477d83614896565b9250827fffffffffffffffffffffffffffffffffffffffffffffffffffffffffffffffff038211156147b2576147b1614a11565b5b828201905092915050565b60006147c882614896565b91506147d383614896565b9250826147e3576147e2614a40565b5b828204905092915050565b60006147f982614896565b915061480483614896565b92508282101561481757614816614a11565b5b828203905092915050565b600061482d82614876565b9050919050565b60008115159050919050565b6000819050919050565b60007fffffffff0000000000000000000000000000000000000000000000000000000082169050919050565b600073ffffffffffffffffffffffffffffffffffffffff82169050919050565b6000819050919050565b60006148ab82614896565b9050919050565b60006148bd82614896565b9050919050565b60006148cf82614896565b9050919050565b60006148e182614896565b9050919050565b82818337600083830152505050565b60005b838110156149155780820151818401526020810190506148fa565b83811115614924576000848401525b50505050565b6000600282049050600182168061494257607f821691505b6020821081141561495657614955614a6f565b5b50919050565b61496582614b3f565b810181811067ffffffffffffffff8211171561498457614983614afc565b5b80604052505050565b600061499882614896565b91507fffffffffffffffffffffffffffffffffffffffffffffffffffffffffffffffff8214156149cb576149ca614a11565b5b600182019050919050565b6000819050919050565b60006149eb82614896565b91506149f683614896565b925082614a0657614a05614a40565b5b828206905092915050565b7f4e487b7100000000000000000000000000000000000000000000000000000000600052601160045260246000fd5b7f4e487b7100000000000000000000000000000000000000000000000000000000600052601260045260246000fd5b7f4e487b7100000000000000000000000000000000000000000000000000000000600052602260045260246000fd5b7f4e487b7100000000000000000000000000000000000000000000000000000000600052603160045260246000fd5b7f4e487b7100000000000000000000000000000000000000000000000000000000600052603260045260246000fd5b7f4e487b7100000000000000000000000000000000000000000000000000000000600052604160045260246000fd5b600080fd5b600080fd5b600080fd5b600080fd5b6000601f19601f8301169050919050565b7f455243373231456e756d657261626c653a206f776e657220696e646578206f7560008201527f74206f6620626f756e6473000000000000000000000000000000000000000000602082015250565b7f4552433732313a207472616e7366657220746f206e6f6e20455243373231526560008201527f63656976657220696d706c656d656e7465720000000000000000000000000000602082015250565b7f4552433732313a207472616e736665722066726f6d20696e636f72726563742060008201527f6f776e6572000000000000000000000000000000000000000000000000000000602082015250565b7f4552433732313a20746f6b656e20616c7265616479206d696e74656400000000600082015250565b7f4552433732313a207472616e7366657220746f20746865207a65726f2061646460008201527f7265737300000000000000000000000000000000000000000000000000000000602082015250565b7f4552433732313a20617070726f766520746f2063616c6c657200000000000000600082015250565b7f4552433732313a206f70657261746f7220717565727920666f72206e6f6e657860008201527f697374656e7420746f6b656e0000000000000000000000000000000000000000602082015250565b7f4552433732313a20617070726f76652063616c6c6572206973206e6f74206f7760008201527f6e6572206e6f7220617070726f76656420666f7220616c6c0000000000000000602082015250565b7f4552433732313a2062616c616e636520717565727920666f7220746865207a6560008201527f726f206164647265737300000000000000000000000000000000000000000000602082015250565b7f4552433732313a206f776e657220717565727920666f72206e6f6e657869737460008201527f656e7420746f6b656e0000000000000000000000000000000000000000000000602082015250565b7f4552433732313a206d696e7420746f20746865207a65726f2061646472657373600082015250565b7f4552433732313a20617070726f76656420717565727920666f72206e6f6e657860008201527f697374656e7420746f6b656e0000000000000000000000000000000000000000602082015250565b7f4552433732314d657461646174613a2055524920717565727920666f72206e6f60008201527f6e6578697374656e7420746f6b656e0000000000000000000000000000000000602082015250565b7f4552433732313a20617070726f76616c20746f2063757272656e74206f776e6560008201527f7200000000000000000000000000000000000000000000000000000000000000602082015250565b7f4552433732313a207472616e736665722063616c6c6572206973206e6f74206f60008201527f776e6572206e6f7220617070726f766564000000000000000000000000000000602082015250565b7f4f6e6c792076616c696420646578206e756d626572732e204d7573742062652060008201527f6265747765656e203120616e6420363439000000000000000000000000000000602082015250565b7f455243373231456e756d657261626c653a20676c6f62616c20696e646578206f60008201527f7574206f6620626f756e64730000000000000000000000000000000000000000602082015250565b61502681614822565b811461503157600080fd5b50565b61503d81614834565b811461504857600080fd5b50565b61505481614840565b811461505f57600080fd5b50565b61506b8161484a565b811461507657600080fd5b50565b61508281614896565b811461508d57600080fd5b5056fea264697066735822122000d3e7209555e45c36a3aa6cff19f784a87518686b02fae8dfb9cadca64227ab64736f6c63430008070033",
			"opcodes": "PUSH1 0x80 PUSH1 0x40 MSTORE PUSH1 0x0 PUSH1 0xB SSTORE PUSH32 0x37FFD04FA12A5AB356E2D4D1436E2AB09CC5255373CCA1D4A52FEEA480BF338 PUSH1 0xC SSTORE PUSH1 0x0 PUSH1 0xD SSTORE CALLVALUE DUP1 ISZERO PUSH3 0x3F JUMPI PUSH1 0x0 DUP1 REVERT JUMPDEST POP PUSH1 0x40 MLOAD DUP1 PUSH1 0x40 ADD PUSH1 0x40 MSTORE DUP1 PUSH1 0x3 DUP2 MSTORE PUSH1 0x20 ADD PUSH32 0x4E46540000000000000000000000000000000000000000000000000000000000 DUP2 MSTORE POP PUSH1 0x40 MLOAD DUP1 PUSH1 0x40 ADD PUSH1 0x40 MSTORE DUP1 PUSH1 0x2 DUP2 MSTORE PUSH1 0x20 ADD PUSH32 0x4343000000000000000000000000000000000000000000000000000000000000 DUP2 MSTORE POP DUP2 PUSH1 0x0 SWAP1 DUP1 MLOAD SWAP1 PUSH1 0x20 ADD SWAP1 PUSH3 0xC4 SWAP3 SWAP2 SWAP1 PUSH3 0x13B JUMP JUMPDEST POP DUP1 PUSH1 0x1 SWAP1 DUP1 MLOAD SWAP1 PUSH1 0x20 ADD SWAP1 PUSH3 0xDD SWAP3 SWAP2 SWAP1 PUSH3 0x13B JUMP JUMPDEST POP POP POP PUSH20 0xDE29D060D45901FB19ED6C6E959EB22D8626708E PUSH1 0xA PUSH1 0x0 PUSH2 0x100 EXP DUP2 SLOAD DUP2 PUSH20 0xFFFFFFFFFFFFFFFFFFFFFFFFFFFFFFFFFFFFFFFF MUL NOT AND SWAP1 DUP4 PUSH20 0xFFFFFFFFFFFFFFFFFFFFFFFFFFFFFFFFFFFFFFFF AND MUL OR SWAP1 SSTORE POP PUSH3 0x250 JUMP JUMPDEST DUP3 DUP1 SLOAD PUSH3 0x149 SWAP1 PUSH3 0x1EB JUMP JUMPDEST SWAP1 PUSH1 0x0 MSTORE PUSH1 0x20 PUSH1 0x0 KECCAK256 SWAP1 PUSH1 0x1F ADD PUSH1 0x20 SWAP1 DIV DUP2 ADD SWAP3 DUP3 PUSH3 0x16D JUMPI PUSH1 0x0 DUP6 SSTORE PUSH3 0x1B9 JUMP JUMPDEST DUP3 PUSH1 0x1F LT PUSH3 0x188 JUMPI DUP1 MLOAD PUSH1 0xFF NOT AND DUP4 DUP1 ADD OR DUP6 SSTORE PUSH3 0x1B9 JUMP JUMPDEST DUP3 DUP1 ADD PUSH1 0x1 ADD DUP6 SSTORE DUP3 ISZERO PUSH3 0x1B9 JUMPI SWAP2 DUP3 ADD JUMPDEST DUP3 DUP2 GT ISZERO PUSH3 0x1B8 JUMPI DUP3 MLOAD DUP3 SSTORE SWAP2 PUSH1 0x20 ADD SWAP2 SWAP1 PUSH1 0x1 ADD SWAP1 PUSH3 0x19B JUMP JUMPDEST JUMPDEST POP SWAP1 POP PUSH3 0x1C8 SWAP2 SWAP1 PUSH3 0x1CC JUMP JUMPDEST POP SWAP1 JUMP JUMPDEST JUMPDEST DUP1 DUP3 GT ISZERO PUSH3 0x1E7 JUMPI PUSH1 0x0 DUP2 PUSH1 0x0 SWAP1 SSTORE POP PUSH1 0x1 ADD PUSH3 0x1CD JUMP JUMPDEST POP SWAP1 JUMP JUMPDEST PUSH1 0x0 PUSH1 0x2 DUP3 DIV SWAP1 POP PUSH1 0x1 DUP3 AND DUP1 PUSH3 0x204 JUMPI PUSH1 0x7F DUP3 AND SWAP2 POP JUMPDEST PUSH1 0x20 DUP3 LT DUP2 EQ ISZERO PUSH3 0x21B JUMPI PUSH3 0x21A PUSH3 0x221 JUMP JUMPDEST JUMPDEST POP SWAP2 SWAP1 POP JUMP JUMPDEST PUSH32 0x4E487B7100000000000000000000000000000000000000000000000000000000 PUSH1 0x0 MSTORE PUSH1 0x22 PUSH1 0x4 MSTORE PUSH1 0x24 PUSH1 0x0 REVERT JUMPDEST PUSH2 0x50C6 DUP1 PUSH3 0x260 PUSH1 0x0 CODECOPY PUSH1 0x0 RETURN INVALID PUSH1 0x80 PUSH1 0x40 MSTORE PUSH1 0x4 CALLDATASIZE LT PUSH2 0x135 JUMPI PUSH1 0x0 CALLDATALOAD PUSH1 0xE0 SHR DUP1 PUSH4 0x70A08231 GT PUSH2 0xAB JUMPI DUP1 PUSH4 0xA0712D68 GT PUSH2 0x6F JUMPI DUP1 PUSH4 0xA0712D68 EQ PUSH2 0x46F JUMPI DUP1 PUSH4 0xA22CB465 EQ PUSH2 0x498 JUMPI DUP1 PUSH4 0xB88D4FDE EQ PUSH2 0x4C1 JUMPI DUP1 PUSH4 0xC87B56DD EQ PUSH2 0x4EA JUMPI DUP1 PUSH4 0xD82FE3B7 EQ PUSH2 0x527 JUMPI DUP1 PUSH4 0xE985E9C5 EQ PUSH2 0x56F JUMPI PUSH2 0x135 JUMP JUMPDEST DUP1 PUSH4 0x70A08231 EQ PUSH2 0x37A JUMPI DUP1 PUSH4 0x72E84E3C EQ PUSH2 0x3B7 JUMPI DUP1 PUSH4 0x85831079 EQ PUSH2 0x3E0 JUMPI DUP1 PUSH4 0x85B1C79D EQ PUSH2 0x428 JUMPI DUP1 PUSH4 0x95D89B41 EQ PUSH2 0x444 JUMPI PUSH2 0x135 JUMP JUMPDEST DUP1 PUSH4 0x1992F36D GT PUSH2 0xFD JUMPI DUP1 PUSH4 0x1992F36D EQ PUSH2 0x233 JUMPI DUP1 PUSH4 0x23B872DD EQ PUSH2 0x271 JUMPI DUP1 PUSH4 0x2F745C59 EQ PUSH2 0x29A JUMPI DUP1 PUSH4 0x42842E0E EQ PUSH2 0x2D7 JUMPI DUP1 PUSH4 0x4F6CCCE7 EQ PUSH2 0x300 JUMPI DUP1 PUSH4 0x6352211E EQ PUSH2 0x33D JUMPI PUSH2 0x135 JUMP JUMPDEST DUP1 PUSH4 0x1FFC9A7 EQ PUSH2 0x13A JUMPI DUP1 PUSH4 0x6FDDE03 EQ PUSH2 0x177 JUMPI DUP1 PUSH4 0x81812FC EQ PUSH2 0x1A2 JUMPI DUP1 PUSH4 0x95EA7B3 EQ PUSH2 0x1DF JUMPI DUP1 PUSH4 0x18160DDD EQ PUSH2 0x208 JUMPI JUMPDEST PUSH1 0x0 DUP1 REVERT JUMPDEST CALLVALUE DUP1 ISZERO PUSH2 0x146 JUMPI PUSH1 0x0 DUP1 REVERT JUMPDEST POP PUSH2 0x161 PUSH1 0x4 DUP1 CALLDATASIZE SUB DUP2 ADD SWAP1 PUSH2 0x15C SWAP2 SWAP1 PUSH2 0x3B0F JUMP JUMPDEST PUSH2 0x5AC JUMP JUMPDEST PUSH1 0x40 MLOAD PUSH2 0x16E SWAP2 SWAP1 PUSH2 0x418F JUMP JUMPDEST PUSH1 0x40 MLOAD DUP1 SWAP2 SUB SWAP1 RETURN JUMPDEST CALLVALUE DUP1 ISZERO PUSH2 0x183 JUMPI PUSH1 0x0 DUP1 REVERT JUMPDEST POP PUSH2 0x18C PUSH2 0x5BE JUMP JUMPDEST PUSH1 0x40 MLOAD PUSH2 0x199 SWAP2 SWAP1 PUSH2 0x4216 JUMP JUMPDEST PUSH1 0x40 MLOAD DUP1 SWAP2 SUB SWAP1 RETURN JUMPDEST CALLVALUE DUP1 ISZERO PUSH2 0x1AE JUMPI PUSH1 0x0 DUP1 REVERT JUMPDEST POP PUSH2 0x1C9 PUSH1 0x4 DUP1 CALLDATASIZE SUB DUP2 ADD SWAP1 PUSH2 0x1C4 SWAP2 SWAP1 PUSH2 0x3B69 JUMP JUMPDEST PUSH2 0x650 JUMP JUMPDEST PUSH1 0x40 MLOAD PUSH2 0x1D6 SWAP2 SWAP1 PUSH2 0x4128 JUMP JUMPDEST PUSH1 0x40 MLOAD DUP1 SWAP2 SUB SWAP1 RETURN JUMPDEST CALLVALUE DUP1 ISZERO PUSH2 0x1EB JUMPI PUSH1 0x0 DUP1 REVERT JUMPDEST POP PUSH2 0x206 PUSH1 0x4 DUP1 CALLDATASIZE SUB DUP2 ADD SWAP1 PUSH2 0x201 SWAP2 SWAP1 PUSH2 0x3AA2 JUMP JUMPDEST PUSH2 0x6D5 JUMP JUMPDEST STOP JUMPDEST CALLVALUE DUP1 ISZERO PUSH2 0x214 JUMPI PUSH1 0x0 DUP1 REVERT JUMPDEST POP PUSH2 0x21D PUSH2 0x7ED JUMP JUMPDEST PUSH1 0x40 MLOAD PUSH2 0x22A SWAP2 SWAP1 PUSH2 0x4483 JUMP JUMPDEST PUSH1 0x40 MLOAD DUP1 SWAP2 SUB SWAP1 RETURN JUMPDEST CALLVALUE DUP1 ISZERO PUSH2 0x23F JUMPI PUSH1 0x0 DUP1 REVERT JUMPDEST POP PUSH2 0x25A PUSH1 0x4 DUP1 CALLDATASIZE SUB DUP2 ADD SWAP1 PUSH2 0x255 SWAP2 SWAP1 PUSH2 0x3B69 JUMP JUMPDEST PUSH2 0x7FA JUMP JUMPDEST PUSH1 0x40 MLOAD PUSH2 0x268 SWAP3 SWAP2 SWAP1 PUSH2 0x4458 JUMP JUMPDEST PUSH1 0x40 MLOAD DUP1 SWAP2 SUB SWAP1 RETURN JUMPDEST CALLVALUE DUP1 ISZERO PUSH2 0x27D JUMPI PUSH1 0x0 DUP1 REVERT JUMPDEST POP PUSH2 0x298 PUSH1 0x4 DUP1 CALLDATASIZE SUB DUP2 ADD SWAP1 PUSH2 0x293 SWAP2 SWAP1 PUSH2 0x398C JUMP JUMPDEST PUSH2 0x924 JUMP JUMPDEST STOP JUMPDEST CALLVALUE DUP1 ISZERO PUSH2 0x2A6 JUMPI PUSH1 0x0 DUP1 REVERT JUMPDEST POP PUSH2 0x2C1 PUSH1 0x4 DUP1 CALLDATASIZE SUB DUP2 ADD SWAP1 PUSH2 0x2BC SWAP2 SWAP1 PUSH2 0x3AA2 JUMP JUMPDEST PUSH2 0x984 JUMP JUMPDEST PUSH1 0x40 MLOAD PUSH2 0x2CE SWAP2 SWAP1 PUSH2 0x4483 JUMP JUMPDEST PUSH1 0x40 MLOAD DUP1 SWAP2 SUB SWAP1 RETURN JUMPDEST CALLVALUE DUP1 ISZERO PUSH2 0x2E3 JUMPI PUSH1 0x0 DUP1 REVERT JUMPDEST POP PUSH2 0x2FE PUSH1 0x4 DUP1 CALLDATASIZE SUB DUP2 ADD SWAP1 PUSH2 0x2F9 SWAP2 SWAP1 PUSH2 0x398C JUMP JUMPDEST PUSH2 0xA29 JUMP JUMPDEST STOP JUMPDEST CALLVALUE DUP1 ISZERO PUSH2 0x30C JUMPI PUSH1 0x0 DUP1 REVERT JUMPDEST POP PUSH2 0x327 PUSH1 0x4 DUP1 CALLDATASIZE SUB DUP2 ADD SWAP1 PUSH2 0x322 SWAP2 SWAP1 PUSH2 0x3B69 JUMP JUMPDEST PUSH2 0xA49 JUMP JUMPDEST PUSH1 0x40 MLOAD PUSH2 0x334 SWAP2 SWAP1 PUSH2 0x4483 JUMP JUMPDEST PUSH1 0x40 MLOAD DUP1 SWAP2 SUB SWAP1 RETURN JUMPDEST CALLVALUE DUP1 ISZERO PUSH2 0x349 JUMPI PUSH1 0x0 DUP1 REVERT JUMPDEST POP PUSH2 0x364 PUSH1 0x4 DUP1 CALLDATASIZE SUB DUP2 ADD SWAP1 PUSH2 0x35F SWAP2 SWAP1 PUSH2 0x3B69 JUMP JUMPDEST PUSH2 0xABA JUMP JUMPDEST PUSH1 0x40 MLOAD PUSH2 0x371 SWAP2 SWAP1 PUSH2 0x4128 JUMP JUMPDEST PUSH1 0x40 MLOAD DUP1 SWAP2 SUB SWAP1 RETURN JUMPDEST CALLVALUE DUP1 ISZERO PUSH2 0x386 JUMPI PUSH1 0x0 DUP1 REVERT JUMPDEST POP PUSH2 0x3A1 PUSH1 0x4 DUP1 CALLDATASIZE SUB DUP2 ADD SWAP1 PUSH2 0x39C SWAP2 SWAP1 PUSH2 0x391F JUMP JUMPDEST PUSH2 0xB6C JUMP JUMPDEST PUSH1 0x40 MLOAD PUSH2 0x3AE SWAP2 SWAP1 PUSH2 0x4483 JUMP JUMPDEST PUSH1 0x40 MLOAD DUP1 SWAP2 SUB SWAP1 RETURN JUMPDEST CALLVALUE DUP1 ISZERO PUSH2 0x3C3 JUMPI PUSH1 0x0 DUP1 REVERT JUMPDEST POP PUSH2 0x3DE PUSH1 0x4 DUP1 CALLDATASIZE SUB DUP2 ADD SWAP1 PUSH2 0x3D9 SWAP2 SWAP1 PUSH2 0x3B96 JUMP JUMPDEST PUSH2 0xC24 JUMP JUMPDEST STOP JUMPDEST CALLVALUE DUP1 ISZERO PUSH2 0x3EC JUMPI PUSH1 0x0 DUP1 REVERT JUMPDEST POP PUSH2 0x407 PUSH1 0x4 DUP1 CALLDATASIZE SUB DUP2 ADD SWAP1 PUSH2 0x402 SWAP2 SWAP1 PUSH2 0x3B69 JUMP JUMPDEST PUSH2 0xE91 JUMP JUMPDEST PUSH1 0x40 MLOAD PUSH2 0x41F SWAP13 SWAP12 SWAP11 SWAP10 SWAP9 SWAP8 SWAP7 SWAP6 SWAP5 SWAP4 SWAP3 SWAP2 SWAP1 PUSH2 0x45DB JUMP JUMPDEST PUSH1 0x40 MLOAD DUP1 SWAP2 SUB SWAP1 RETURN JUMPDEST PUSH2 0x442 PUSH1 0x4 DUP1 CALLDATASIZE SUB DUP2 ADD SWAP1 PUSH2 0x43D SWAP2 SWAP1 PUSH2 0x3B96 JUMP JUMPDEST PUSH2 0xF01 JUMP JUMPDEST STOP JUMPDEST CALLVALUE DUP1 ISZERO PUSH2 0x450 JUMPI PUSH1 0x0 DUP1 REVERT JUMPDEST POP PUSH2 0x459 PUSH2 0x17D2 JUMP JUMPDEST PUSH1 0x40 MLOAD PUSH2 0x466 SWAP2 SWAP1 PUSH2 0x4216 JUMP JUMPDEST PUSH1 0x40 MLOAD DUP1 SWAP2 SUB SWAP1 RETURN JUMPDEST CALLVALUE DUP1 ISZERO PUSH2 0x47B JUMPI PUSH1 0x0 DUP1 REVERT JUMPDEST POP PUSH2 0x496 PUSH1 0x4 DUP1 CALLDATASIZE SUB DUP2 ADD SWAP1 PUSH2 0x491 SWAP2 SWAP1 PUSH2 0x3B69 JUMP JUMPDEST PUSH2 0x1864 JUMP JUMPDEST STOP JUMPDEST CALLVALUE DUP1 ISZERO PUSH2 0x4A4 JUMPI PUSH1 0x0 DUP1 REVERT JUMPDEST POP PUSH2 0x4BF PUSH1 0x4 DUP1 CALLDATASIZE SUB DUP2 ADD SWAP1 PUSH2 0x4BA SWAP2 SWAP1 PUSH2 0x3A62 JUMP JUMPDEST PUSH2 0x19D4 JUMP JUMPDEST STOP JUMPDEST CALLVALUE DUP1 ISZERO PUSH2 0x4CD JUMPI PUSH1 0x0 DUP1 REVERT JUMPDEST POP PUSH2 0x4E8 PUSH1 0x4 DUP1 CALLDATASIZE SUB DUP2 ADD SWAP1 PUSH2 0x4E3 SWAP2 SWAP1 PUSH2 0x39DF JUMP JUMPDEST PUSH2 0x19EA JUMP JUMPDEST STOP JUMPDEST CALLVALUE DUP1 ISZERO PUSH2 0x4F6 JUMPI PUSH1 0x0 DUP1 REVERT JUMPDEST POP PUSH2 0x511 PUSH1 0x4 DUP1 CALLDATASIZE SUB DUP2 ADD SWAP1 PUSH2 0x50C SWAP2 SWAP1 PUSH2 0x3B69 JUMP JUMPDEST PUSH2 0x1A4C JUMP JUMPDEST PUSH1 0x40 MLOAD PUSH2 0x51E SWAP2 SWAP1 PUSH2 0x4216 JUMP JUMPDEST PUSH1 0x40 MLOAD DUP1 SWAP2 SUB SWAP1 RETURN JUMPDEST CALLVALUE DUP1 ISZERO PUSH2 0x533 JUMPI PUSH1 0x0 DUP1 REVERT JUMPDEST POP PUSH2 0x54E PUSH1 0x4 DUP1 CALLDATASIZE SUB DUP2 ADD SWAP1 PUSH2 0x549 SWAP2 SWAP1 PUSH2 0x3B69 JUMP JUMPDEST PUSH2 0x1AF3 JUMP JUMPDEST PUSH1 0x40 MLOAD PUSH2 0x566 SWAP13 SWAP12 SWAP11 SWAP10 SWAP9 SWAP8 SWAP7 SWAP6 SWAP5 SWAP4 SWAP3 SWAP2 SWAP1 PUSH2 0x45DB JUMP JUMPDEST PUSH1 0x40 MLOAD DUP1 SWAP2 SUB SWAP1 RETURN JUMPDEST CALLVALUE DUP1 ISZERO PUSH2 0x57B JUMPI PUSH1 0x0 DUP1 REVERT JUMPDEST POP PUSH2 0x596 PUSH1 0x4 DUP1 CALLDATASIZE SUB DUP2 ADD SWAP1 PUSH2 0x591 SWAP2 SWAP1 PUSH2 0x394C JUMP JUMPDEST PUSH2 0x1B53 JUMP JUMPDEST PUSH1 0x40 MLOAD PUSH2 0x5A3 SWAP2 SWAP1 PUSH2 0x418F JUMP JUMPDEST PUSH1 0x40 MLOAD DUP1 SWAP2 SUB SWAP1 RETURN JUMPDEST PUSH1 0x0 PUSH2 0x5B7 DUP3 PUSH2 0x1BE7 JUMP JUMPDEST SWAP1 POP SWAP2 SWAP1 POP JUMP JUMPDEST PUSH1 0x60 PUSH1 0x0 DUP1 SLOAD PUSH2 0x5CD SWAP1 PUSH2 0x492A JUMP JUMPDEST DUP1 PUSH1 0x1F ADD PUSH1 0x20 DUP1 SWAP2 DIV MUL PUSH1 0x20 ADD PUSH1 0x40 MLOAD SWAP1 DUP2 ADD PUSH1 0x40 MSTORE DUP1 SWAP3 SWAP2 SWAP1 DUP2 DUP2 MSTORE PUSH1 0x20 ADD DUP3 DUP1 SLOAD PUSH2 0x5F9 SWAP1 PUSH2 0x492A JUMP JUMPDEST DUP1 ISZERO PUSH2 0x646 JUMPI DUP1 PUSH1 0x1F LT PUSH2 0x61B JUMPI PUSH2 0x100 DUP1 DUP4 SLOAD DIV MUL DUP4 MSTORE SWAP2 PUSH1 0x20 ADD SWAP2 PUSH2 0x646 JUMP JUMPDEST DUP3 ADD SWAP2 SWAP1 PUSH1 0x0 MSTORE PUSH1 0x20 PUSH1 0x0 KECCAK256 SWAP1 JUMPDEST DUP2 SLOAD DUP2 MSTORE SWAP1 PUSH1 0x1 ADD SWAP1 PUSH1 0x20 ADD DUP1 DUP4 GT PUSH2 0x629 JUMPI DUP3 SWAP1 SUB PUSH1 0x1F AND DUP3 ADD SWAP2 JUMPDEST POP POP POP POP POP SWAP1 POP SWAP1 JUMP JUMPDEST PUSH1 0x0 PUSH2 0x65B DUP3 PUSH2 0x1C61 JUMP JUMPDEST PUSH2 0x69A JUMPI PUSH1 0x40 MLOAD PUSH32 0x8C379A000000000000000000000000000000000000000000000000000000000 DUP2 MSTORE PUSH1 0x4 ADD PUSH2 0x691 SWAP1 PUSH2 0x4398 JUMP JUMPDEST PUSH1 0x40 MLOAD DUP1 SWAP2 SUB SWAP1 REVERT JUMPDEST PUSH1 0x4 PUSH1 0x0 DUP4 DUP2 MSTORE PUSH1 0x20 ADD SWAP1 DUP2 MSTORE PUSH1 0x20 ADD PUSH1 0x0 KECCAK256 PUSH1 0x0 SWAP1 SLOAD SWAP1 PUSH2 0x100 EXP SWAP1 DIV PUSH20 0xFFFFFFFFFFFFFFFFFFFFFFFFFFFFFFFFFFFFFFFF AND SWAP1 POP SWAP2 SWAP1 POP JUMP JUMPDEST PUSH1 0x0 PUSH2 0x6E0 DUP3 PUSH2 0xABA JUMP JUMPDEST SWAP1 POP DUP1 PUSH20 0xFFFFFFFFFFFFFFFFFFFFFFFFFFFFFFFFFFFFFFFF AND DUP4 PUSH20 0xFFFFFFFFFFFFFFFFFFFFFFFFFFFFFFFFFFFFFFFF AND EQ ISZERO PUSH2 0x751 JUMPI PUSH1 0x40 MLOAD PUSH32 0x8C379A000000000000000000000000000000000000000000000000000000000 DUP2 MSTORE PUSH1 0x4 ADD PUSH2 0x748 SWAP1 PUSH2 0x43D8 JUMP JUMPDEST PUSH1 0x40 MLOAD DUP1 SWAP2 SUB SWAP1 REVERT JUMPDEST DUP1 PUSH20 0xFFFFFFFFFFFFFFFFFFFFFFFFFFFFFFFFFFFFFFFF AND PUSH2 0x770 PUSH2 0x1CCD JUMP JUMPDEST PUSH20 0xFFFFFFFFFFFFFFFFFFFFFFFFFFFFFFFFFFFFFFFF AND EQ DUP1 PUSH2 0x79F JUMPI POP PUSH2 0x79E DUP2 PUSH2 0x799 PUSH2 0x1CCD JUMP JUMPDEST PUSH2 0x1B53 JUMP JUMPDEST JUMPDEST PUSH2 0x7DE JUMPI PUSH1 0x40 MLOAD PUSH32 0x8C379A000000000000000000000000000000000000000000000000000000000 DUP2 MSTORE PUSH1 0x4 ADD PUSH2 0x7D5 SWAP1 PUSH2 0x4318 JUMP JUMPDEST PUSH1 0x40 MLOAD DUP1 SWAP2 SUB SWAP1 REVERT JUMPDEST PUSH2 0x7E8 DUP4 DUP4 PUSH2 0x1CD5 JUMP JUMPDEST POP POP POP JUMP JUMPDEST PUSH1 0x0 PUSH1 0x8 DUP1 SLOAD SWAP1 POP SWAP1 POP SWAP1 JUMP JUMPDEST PUSH1 0x10 PUSH1 0x20 MSTORE DUP1 PUSH1 0x0 MSTORE PUSH1 0x40 PUSH1 0x0 KECCAK256 PUSH1 0x0 SWAP2 POP SWAP1 POP DUP1 PUSH1 0x0 ADD PUSH1 0x40 MLOAD DUP1 PUSH2 0x180 ADD PUSH1 0x40 MSTORE SWAP1 DUP2 PUSH1 0x0 DUP3 ADD SLOAD DUP2 MSTORE PUSH1 0x20 ADD PUSH1 0x1 DUP3 ADD SLOAD DUP2 MSTORE PUSH1 0x20 ADD PUSH1 0x2 DUP3 ADD SLOAD DUP2 MSTORE PUSH1 0x20 ADD PUSH1 0x3 DUP3 ADD SLOAD DUP2 MSTORE PUSH1 0x20 ADD PUSH1 0x4 DUP3 ADD SLOAD DUP2 MSTORE PUSH1 0x20 ADD PUSH1 0x5 DUP3 ADD SLOAD DUP2 MSTORE PUSH1 0x20 ADD PUSH1 0x6 DUP3 ADD SLOAD DUP2 MSTORE PUSH1 0x20 ADD PUSH1 0x7 DUP3 ADD SLOAD DUP2 MSTORE PUSH1 0x20 ADD PUSH1 0x8 DUP3 ADD SLOAD DUP2 MSTORE PUSH1 0x20 ADD PUSH1 0x9 DUP3 ADD SLOAD DUP2 MSTORE PUSH1 0x20 ADD PUSH1 0xA DUP3 ADD SLOAD DUP2 MSTORE PUSH1 0x20 ADD PUSH1 0xB DUP3 ADD SLOAD DUP2 MSTORE POP POP SWAP1 DUP1 PUSH1 0xC ADD PUSH1 0x40 MLOAD DUP1 PUSH2 0x180 ADD PUSH1 0x40 MSTORE SWAP1 DUP2 PUSH1 0x0 DUP3 ADD SLOAD DUP2 MSTORE PUSH1 0x20 ADD PUSH1 0x1 DUP3 ADD SLOAD DUP2 MSTORE PUSH1 0x20 ADD PUSH1 0x2 DUP3 ADD SLOAD DUP2 MSTORE PUSH1 0x20 ADD PUSH1 0x3 DUP3 ADD SLOAD DUP2 MSTORE PUSH1 0x20 ADD PUSH1 0x4 DUP3 ADD SLOAD DUP2 MSTORE PUSH1 0x20 ADD PUSH1 0x5 DUP3 ADD SLOAD DUP2 MSTORE PUSH1 0x20 ADD PUSH1 0x6 DUP3 ADD SLOAD DUP2 MSTORE PUSH1 0x20 ADD PUSH1 0x7 DUP3 ADD SLOAD DUP2 MSTORE PUSH1 0x20 ADD PUSH1 0x8 DUP3 ADD SLOAD DUP2 MSTORE PUSH1 0x20 ADD PUSH1 0x9 DUP3 ADD SLOAD DUP2 MSTORE PUSH1 0x20 ADD PUSH1 0xA DUP3 ADD SLOAD DUP2 MSTORE PUSH1 0x20 ADD PUSH1 0xB DUP3 ADD SLOAD DUP2 MSTORE POP POP SWAP1 POP DUP3 JUMP JUMPDEST PUSH2 0x935 PUSH2 0x92F PUSH2 0x1CCD JUMP JUMPDEST DUP3 PUSH2 0x1D8E JUMP JUMPDEST PUSH2 0x974 JUMPI PUSH1 0x40 MLOAD PUSH32 0x8C379A000000000000000000000000000000000000000000000000000000000 DUP2 MSTORE PUSH1 0x4 ADD PUSH2 0x96B SWAP1 PUSH2 0x43F8 JUMP JUMPDEST PUSH1 0x40 MLOAD DUP1 SWAP2 SUB SWAP1 REVERT JUMPDEST PUSH2 0x97F DUP4 DUP4 DUP4 PUSH2 0x1E6C JUMP JUMPDEST POP POP POP JUMP JUMPDEST PUSH1 0x0 PUSH2 0x98F DUP4 PUSH2 0xB6C JUMP JUMPDEST DUP3 LT PUSH2 0x9D0 JUMPI PUSH1 0x40 MLOAD PUSH32 0x8C379A000000000000000000000000000000000000000000000000000000000 DUP2 MSTORE PUSH1 0x4 ADD PUSH2 0x9C7 SWAP1 PUSH2 0x4238 JUMP JUMPDEST PUSH1 0x40 MLOAD DUP1 SWAP2 SUB SWAP1 REVERT JUMPDEST PUSH1 0x6 PUSH1 0x0 DUP5 PUSH20 0xFFFFFFFFFFFFFFFFFFFFFFFFFFFFFFFFFFFFFFFF AND PUSH20 0xFFFFFFFFFFFFFFFFFFFFFFFFFFFFFFFFFFFFFFFF AND DUP2 MSTORE PUSH1 0x20 ADD SWAP1 DUP2 MSTORE PUSH1 0x20 ADD PUSH1 0x0 KECCAK256 PUSH1 0x0 DUP4 DUP2 MSTORE PUSH1 0x20 ADD SWAP1 DUP2 MSTORE PUSH1 0x20 ADD PUSH1 0x0 KECCAK256 SLOAD SWAP1 POP SWAP3 SWAP2 POP POP JUMP JUMPDEST PUSH2 0xA44 DUP4 DUP4 DUP4 PUSH1 0x40 MLOAD DUP1 PUSH1 0x20 ADD PUSH1 0x40 MSTORE DUP1 PUSH1 0x0 DUP2 MSTORE POP PUSH2 0x19EA JUMP JUMPDEST POP POP POP JUMP JUMPDEST PUSH1 0x0 PUSH2 0xA53 PUSH2 0x7ED JUMP JUMPDEST DUP3 LT PUSH2 0xA94 JUMPI PUSH1 0x40 MLOAD PUSH32 0x8C379A000000000000000000000000000000000000000000000000000000000 DUP2 MSTORE PUSH1 0x4 ADD PUSH2 0xA8B SWAP1 PUSH2 0x4438 JUMP JUMPDEST PUSH1 0x40 MLOAD DUP1 SWAP2 SUB SWAP1 REVERT JUMPDEST PUSH1 0x8 DUP3 DUP2 SLOAD DUP2 LT PUSH2 0xAA8 JUMPI PUSH2 0xAA7 PUSH2 0x4ACD JUMP JUMPDEST JUMPDEST SWAP1 PUSH1 0x0 MSTORE PUSH1 0x20 PUSH1 0x0 KECCAK256 ADD SLOAD SWAP1 POP SWAP2 SWAP1 POP JUMP JUMPDEST PUSH1 0x0 DUP1 PUSH1 0x2 PUSH1 0x0 DUP5 DUP2 MSTORE PUSH1 0x20 ADD SWAP1 DUP2 MSTORE PUSH1 0x20 ADD PUSH1 0x0 KECCAK256 PUSH1 0x0 SWAP1 SLOAD SWAP1 PUSH2 0x100 EXP SWAP1 DIV PUSH20 0xFFFFFFFFFFFFFFFFFFFFFFFFFFFFFFFFFFFFFFFF AND SWAP1 POP PUSH1 0x0 PUSH20 0xFFFFFFFFFFFFFFFFFFFFFFFFFFFFFFFFFFFFFFFF AND DUP2 PUSH20 0xFFFFFFFFFFFFFFFFFFFFFFFFFFFFFFFFFFFFFFFF AND EQ ISZERO PUSH2 0xB63 JUMPI PUSH1 0x40 MLOAD PUSH32 0x8C379A000000000000000000000000000000000000000000000000000000000 DUP2 MSTORE PUSH1 0x4 ADD PUSH2 0xB5A SWAP1 PUSH2 0x4358 JUMP JUMPDEST PUSH1 0x40 MLOAD DUP1 SWAP2 SUB SWAP1 REVERT JUMPDEST DUP1 SWAP2 POP POP SWAP2 SWAP1 POP JUMP JUMPDEST PUSH1 0x0 DUP1 PUSH20 0xFFFFFFFFFFFFFFFFFFFFFFFFFFFFFFFFFFFFFFFF AND DUP3 PUSH20 0xFFFFFFFFFFFFFFFFFFFFFFFFFFFFFFFFFFFFFFFF AND EQ ISZERO PUSH2 0xBDD JUMPI PUSH1 0x40 MLOAD PUSH32 0x8C379A000000000000000000000000000000000000000000000000000000000 DUP2 MSTORE PUSH1 0x4 ADD PUSH2 0xBD4 SWAP1 PUSH2 0x4338 JUMP JUMPDEST PUSH1 0x40 MLOAD DUP1 SWAP2 SUB SWAP1 REVERT JUMPDEST PUSH1 0x3 PUSH1 0x0 DUP4 PUSH20 0xFFFFFFFFFFFFFFFFFFFFFFFFFFFFFFFFFFFFFFFF AND PUSH20 0xFFFFFFFFFFFFFFFFFFFFFFFFFFFFFFFFFFFFFFFF AND DUP2 MSTORE PUSH1 0x20 ADD SWAP1 DUP2 MSTORE PUSH1 0x20 ADD PUSH1 0x0 KECCAK256 SLOAD SWAP1 POP SWAP2 SWAP1 POP JUMP JUMPDEST PUSH32 0xED9918E573B159B62731BC88263B9CE84E79C6335FBBA2B28F981840126E16F PUSH2 0x2B67 PUSH1 0x40 MLOAD PUSH2 0xC55 SWAP2 SWAP1 PUSH2 0x41AA JUMP JUMPDEST PUSH1 0x40 MLOAD DUP1 SWAP2 SUB SWAP1 LOG1 PUSH1 0x0 PUSH1 0x2 PUSH8 0xFFFFFFFFFFFFFFFF DUP2 GT ISZERO PUSH2 0xC7A JUMPI PUSH2 0xC79 PUSH2 0x4AFC JUMP JUMPDEST JUMPDEST PUSH1 0x40 MLOAD SWAP1 DUP1 DUP3 MSTORE DUP1 PUSH1 0x20 MUL PUSH1 0x20 ADD DUP3 ADD PUSH1 0x40 MSTORE DUP1 ISZERO PUSH2 0xCA8 JUMPI DUP2 PUSH1 0x20 ADD PUSH1 0x20 DUP3 MUL DUP1 CALLDATASIZE DUP4 CALLDATACOPY DUP1 DUP3 ADD SWAP2 POP POP SWAP1 POP JUMPDEST POP SWAP1 POP DUP3 DUP2 PUSH1 0x0 DUP2 MLOAD DUP2 LT PUSH2 0xCC0 JUMPI PUSH2 0xCBF PUSH2 0x4ACD JUMP JUMPDEST JUMPDEST PUSH1 0x20 MUL PUSH1 0x20 ADD ADD DUP2 DUP2 MSTORE POP POP DUP2 DUP2 PUSH1 0x1 DUP2 MLOAD DUP2 LT PUSH2 0xCE1 JUMPI PUSH2 0xCE0 PUSH2 0x4ACD JUMP JUMPDEST JUMPDEST PUSH1 0x20 MUL PUSH1 0x20 ADD ADD DUP2 DUP2 MSTORE POP POP PUSH1 0xA PUSH1 0x0 SWAP1 SLOAD SWAP1 PUSH2 0x100 EXP SWAP1 DIV PUSH20 0xFFFFFFFFFFFFFFFFFFFFFFFFFFFFFFFFFFFFFFFF AND PUSH20 0xFFFFFFFFFFFFFFFFFFFFFFFFFFFFFFFFFFFFFFFF AND PUSH4 0x2C9DD5C0 PUSH1 0xC SLOAD DUP4 PUSH1 0x40 MLOAD DUP4 PUSH4 0xFFFFFFFF AND PUSH1 0xE0 SHL DUP2 MSTORE PUSH1 0x4 ADD PUSH2 0xD4C SWAP3 SWAP2 SWAP1 PUSH2 0x449E JUMP JUMPDEST PUSH1 0x20 PUSH1 0x40 MLOAD DUP1 DUP4 SUB DUP2 PUSH1 0x0 DUP8 DUP1 EXTCODESIZE ISZERO DUP1 ISZERO PUSH2 0xD66 JUMPI PUSH1 0x0 DUP1 REVERT JUMPDEST POP GAS CALL ISZERO DUP1 ISZERO PUSH2 0xD7A JUMPI RETURNDATASIZE PUSH1 0x0 DUP1 RETURNDATACOPY RETURNDATASIZE PUSH1 0x0 REVERT JUMPDEST POP POP POP POP PUSH1 0x40 MLOAD RETURNDATASIZE PUSH1 0x1F NOT PUSH1 0x1F DUP3 ADD AND DUP3 ADD DUP1 PUSH1 0x40 MSTORE POP DUP2 ADD SWAP1 PUSH2 0xD9E SWAP2 SWAP1 PUSH2 0x3AE2 JUMP JUMPDEST POP PUSH1 0xE DUP4 DUP2 SLOAD DUP2 LT PUSH2 0xDB3 JUMPI PUSH2 0xDB2 PUSH2 0x4ACD JUMP JUMPDEST JUMPDEST SWAP1 PUSH1 0x0 MSTORE PUSH1 0x20 PUSH1 0x0 KECCAK256 SWAP1 PUSH1 0xC MUL ADD PUSH1 0xF PUSH1 0x0 DUP5 DUP2 MSTORE PUSH1 0x20 ADD SWAP1 DUP2 MSTORE PUSH1 0x20 ADD PUSH1 0x0 KECCAK256 PUSH1 0x0 DUP3 ADD SLOAD DUP2 PUSH1 0x0 ADD SSTORE PUSH1 0x1 DUP3 ADD SLOAD DUP2 PUSH1 0x1 ADD SSTORE PUSH1 0x2 DUP3 ADD SLOAD DUP2 PUSH1 0x2 ADD SSTORE PUSH1 0x3 DUP3 ADD SLOAD DUP2 PUSH1 0x3 ADD SSTORE PUSH1 0x4 DUP3 ADD SLOAD DUP2 PUSH1 0x4 ADD SSTORE PUSH1 0x5 DUP3 ADD SLOAD DUP2 PUSH1 0x5 ADD SSTORE PUSH1 0x6 DUP3 ADD SLOAD DUP2 PUSH1 0x6 ADD SSTORE PUSH1 0x7 DUP3 ADD SLOAD DUP2 PUSH1 0x7 ADD SSTORE PUSH1 0x8 DUP3 ADD SLOAD DUP2 PUSH1 0x8 ADD SSTORE PUSH1 0x9 DUP3 ADD SLOAD DUP2 PUSH1 0x9 ADD SSTORE PUSH1 0xA DUP3 ADD SLOAD DUP2 PUSH1 0xA ADD SSTORE PUSH1 0xB DUP3 ADD SLOAD DUP2 PUSH1 0xB ADD SSTORE SWAP1 POP POP PUSH32 0xB8D7090364DA4A6371334296AAF588E8D119F8490AC61CE968A539406164F5FB PUSH1 0xC SLOAD DUP5 DUP5 PUSH1 0x40 MLOAD PUSH2 0xE84 SWAP4 SWAP3 SWAP2 SWAP1 PUSH2 0x450C JUMP JUMPDEST PUSH1 0x40 MLOAD DUP1 SWAP2 SUB SWAP1 LOG1 POP POP POP JUMP JUMPDEST PUSH1 0xE DUP2 DUP2 SLOAD DUP2 LT PUSH2 0xEA1 JUMPI PUSH1 0x0 DUP1 REVERT JUMPDEST SWAP1 PUSH1 0x0 MSTORE PUSH1 0x20 PUSH1 0x0 KECCAK256 SWAP1 PUSH1 0xC MUL ADD PUSH1 0x0 SWAP2 POP SWAP1 POP DUP1 PUSH1 0x0 ADD SLOAD SWAP1 DUP1 PUSH1 0x1 ADD SLOAD SWAP1 DUP1 PUSH1 0x2 ADD SLOAD SWAP1 DUP1 PUSH1 0x3 ADD SLOAD SWAP1 DUP1 PUSH1 0x4 ADD SLOAD SWAP1 DUP1 PUSH1 0x5 ADD SLOAD SWAP1 DUP1 PUSH1 0x6 ADD SLOAD SWAP1 DUP1 PUSH1 0x7 ADD SLOAD SWAP1 DUP1 PUSH1 0x8 ADD SLOAD SWAP1 DUP1 PUSH1 0x9 ADD SLOAD SWAP1 DUP1 PUSH1 0xA ADD SLOAD SWAP1 DUP1 PUSH1 0xB ADD SLOAD SWAP1 POP DUP13 JUMP JUMPDEST CALLER PUSH20 0xFFFFFFFFFFFFFFFFFFFFFFFFFFFFFFFFFFFFFFFF AND PUSH2 0xF21 DUP4 PUSH2 0xABA JUMP JUMPDEST PUSH20 0xFFFFFFFFFFFFFFFFFFFFFFFFFFFFFFFFFFFFFFFF AND EQ PUSH2 0xF41 JUMPI PUSH1 0x0 DUP1 REVERT JUMPDEST PUSH2 0xF49 PUSH2 0x7ED JUMP JUMPDEST DUP3 LT PUSH2 0xF54 JUMPI PUSH1 0x0 DUP1 REVERT JUMPDEST PUSH2 0xF5C PUSH2 0x7ED JUMP JUMPDEST DUP2 LT PUSH2 0xF67 JUMPI PUSH1 0x0 DUP1 REVERT JUMPDEST PUSH32 0x3593DF2963C20760AFEEC7BC9AE99F0AD8227EC08877590930B113D33DF9C067 PUSH1 0x1 PUSH1 0x40 MLOAD PUSH2 0xF97 SWAP2 SWAP1 PUSH2 0x41C5 JUMP JUMPDEST PUSH1 0x40 MLOAD DUP1 SWAP2 SUB SWAP1 LOG1 PUSH1 0x0 PUSH1 0xE DUP4 DUP2 SLOAD DUP2 LT PUSH2 0xFB5 JUMPI PUSH2 0xFB4 PUSH2 0x4ACD JUMP JUMPDEST JUMPDEST SWAP1 PUSH1 0x0 MSTORE PUSH1 0x20 PUSH1 0x0 KECCAK256 SWAP1 PUSH1 0xC MUL ADD PUSH1 0x40 MLOAD DUP1 PUSH2 0x180 ADD PUSH1 0x40 MSTORE SWAP1 DUP2 PUSH1 0x0 DUP3 ADD SLOAD DUP2 MSTORE PUSH1 0x20 ADD PUSH1 0x1 DUP3 ADD SLOAD DUP2 MSTORE PUSH1 0x20 ADD PUSH1 0x2 DUP3 ADD SLOAD DUP2 MSTORE PUSH1 0x20 ADD PUSH1 0x3 DUP3 ADD SLOAD DUP2 MSTORE PUSH1 0x20 ADD PUSH1 0x4 DUP3 ADD SLOAD DUP2 MSTORE PUSH1 0x20 ADD PUSH1 0x5 DUP3 ADD SLOAD DUP2 MSTORE PUSH1 0x20 ADD PUSH1 0x6 DUP3 ADD SLOAD DUP2 MSTORE PUSH1 0x20 ADD PUSH1 0x7 DUP3 ADD SLOAD DUP2 MSTORE PUSH1 0x20 ADD PUSH1 0x8 DUP3 ADD SLOAD DUP2 MSTORE PUSH1 0x20 ADD PUSH1 0x9 DUP3 ADD SLOAD DUP2 MSTORE PUSH1 0x20 ADD PUSH1 0xA DUP3 ADD SLOAD DUP2 MSTORE PUSH1 0x20 ADD PUSH1 0xB DUP3 ADD SLOAD DUP2 MSTORE POP POP SWAP1 POP PUSH1 0x0 PUSH1 0xE DUP4 DUP2 SLOAD DUP2 LT PUSH2 0x105F JUMPI PUSH2 0x105E PUSH2 0x4ACD JUMP JUMPDEST JUMPDEST SWAP1 PUSH1 0x0 MSTORE PUSH1 0x20 PUSH1 0x0 KECCAK256 SWAP1 PUSH1 0xC MUL ADD PUSH1 0x40 MLOAD DUP1 PUSH2 0x180 ADD PUSH1 0x40 MSTORE SWAP1 DUP2 PUSH1 0x0 DUP3 ADD SLOAD DUP2 MSTORE PUSH1 0x20 ADD PUSH1 0x1 DUP3 ADD SLOAD DUP2 MSTORE PUSH1 0x20 ADD PUSH1 0x2 DUP3 ADD SLOAD DUP2 MSTORE PUSH1 0x20 ADD PUSH1 0x3 DUP3 ADD SLOAD DUP2 MSTORE PUSH1 0x20 ADD PUSH1 0x4 DUP3 ADD SLOAD DUP2 MSTORE PUSH1 0x20 ADD PUSH1 0x5 DUP3 ADD SLOAD DUP2 MSTORE PUSH1 0x20 ADD PUSH1 0x6 DUP3 ADD SLOAD DUP2 MSTORE PUSH1 0x20 ADD PUSH1 0x7 DUP3 ADD SLOAD DUP2 MSTORE PUSH1 0x20 ADD PUSH1 0x8 DUP3 ADD SLOAD DUP2 MSTORE PUSH1 0x20 ADD PUSH1 0x9 DUP3 ADD SLOAD DUP2 MSTORE PUSH1 0x20 ADD PUSH1 0xA DUP3 ADD SLOAD DUP2 MSTORE PUSH1 0x20 ADD PUSH1 0xB DUP3 ADD SLOAD DUP2 MSTORE POP POP SWAP1 POP PUSH1 0x0 PUSH2 0x10FD PUSH2 0x20D3 JUMP JUMPDEST SWAP1 POP PUSH32 0x3593DF2963C20760AFEEC7BC9AE99F0AD8227EC08877590930B113D33DF9C067 PUSH1 0x2 PUSH1 0x40 MLOAD PUSH2 0x112F SWAP2 SWAP1 PUSH2 0x41E0 JUMP JUMPDEST PUSH1 0x40 MLOAD DUP1 SWAP2 SUB SWAP1 LOG1 PUSH1 0x0 PUSH1 0x19 PUSH8 0xFFFFFFFFFFFFFFFF DUP2 GT ISZERO PUSH2 0x1154 JUMPI PUSH2 0x1153 PUSH2 0x4AFC JUMP JUMPDEST JUMPDEST PUSH1 0x40 MLOAD SWAP1 DUP1 DUP3 MSTORE DUP1 PUSH1 0x20 MUL PUSH1 0x20 ADD DUP3 ADD PUSH1 0x40 MSTORE DUP1 ISZERO PUSH2 0x1182 JUMPI DUP2 PUSH1 0x20 ADD PUSH1 0x20 DUP3 MUL DUP1 CALLDATASIZE DUP4 CALLDATACOPY DUP1 DUP3 ADD SWAP2 POP POP SWAP1 POP JUMPDEST POP SWAP1 POP DUP4 PUSH1 0x0 ADD MLOAD DUP2 PUSH1 0x0 DUP2 MLOAD DUP2 LT PUSH2 0x119E JUMPI PUSH2 0x119D PUSH2 0x4ACD JUMP JUMPDEST JUMPDEST PUSH1 0x20 MUL PUSH1 0x20 ADD ADD DUP2 DUP2 MSTORE POP POP DUP4 PUSH1 0x20 ADD MLOAD DUP2 PUSH1 0x1 DUP2 MLOAD DUP2 LT PUSH2 0x11C3 JUMPI PUSH2 0x11C2 PUSH2 0x4ACD JUMP JUMPDEST JUMPDEST PUSH1 0x20 MUL PUSH1 0x20 ADD ADD DUP2 DUP2 MSTORE POP POP DUP4 PUSH1 0x40 ADD MLOAD DUP2 PUSH1 0x2 DUP2 MLOAD DUP2 LT PUSH2 0x11E8 JUMPI PUSH2 0x11E7 PUSH2 0x4ACD JUMP JUMPDEST JUMPDEST PUSH1 0x20 MUL PUSH1 0x20 ADD ADD DUP2 DUP2 MSTORE POP POP DUP4 PUSH1 0x60 ADD MLOAD DUP2 PUSH1 0x3 DUP2 MLOAD DUP2 LT PUSH2 0x120D JUMPI PUSH2 0x120C PUSH2 0x4ACD JUMP JUMPDEST JUMPDEST PUSH1 0x20 MUL PUSH1 0x20 ADD ADD DUP2 DUP2 MSTORE POP POP DUP4 PUSH1 0x80 ADD MLOAD DUP2 PUSH1 0x4 DUP2 MLOAD DUP2 LT PUSH2 0x1232 JUMPI PUSH2 0x1231 PUSH2 0x4ACD JUMP JUMPDEST JUMPDEST PUSH1 0x20 MUL PUSH1 0x20 ADD ADD DUP2 DUP2 MSTORE POP POP DUP4 PUSH1 0xA0 ADD MLOAD DUP2 PUSH1 0x5 DUP2 MLOAD DUP2 LT PUSH2 0x1257 JUMPI PUSH2 0x1256 PUSH2 0x4ACD JUMP JUMPDEST JUMPDEST PUSH1 0x20 MUL PUSH1 0x20 ADD ADD DUP2 DUP2 MSTORE POP POP DUP4 PUSH1 0xC0 ADD MLOAD DUP2 PUSH1 0x6 DUP2 MLOAD DUP2 LT PUSH2 0x127C JUMPI PUSH2 0x127B PUSH2 0x4ACD JUMP JUMPDEST JUMPDEST PUSH1 0x20 MUL PUSH1 0x20 ADD ADD DUP2 DUP2 MSTORE POP POP DUP4 PUSH1 0xE0 ADD MLOAD DUP2 PUSH1 0x7 DUP2 MLOAD DUP2 LT PUSH2 0x12A1 JUMPI PUSH2 0x12A0 PUSH2 0x4ACD JUMP JUMPDEST JUMPDEST PUSH1 0x20 MUL PUSH1 0x20 ADD ADD DUP2 DUP2 MSTORE POP POP DUP4 PUSH2 0x100 ADD MLOAD DUP2 PUSH1 0x8 DUP2 MLOAD DUP2 LT PUSH2 0x12C7 JUMPI PUSH2 0x12C6 PUSH2 0x4ACD JUMP JUMPDEST JUMPDEST PUSH1 0x20 MUL PUSH1 0x20 ADD ADD DUP2 DUP2 MSTORE POP POP DUP4 PUSH2 0x120 ADD MLOAD DUP2 PUSH1 0x9 DUP2 MLOAD DUP2 LT PUSH2 0x12ED JUMPI PUSH2 0x12EC PUSH2 0x4ACD JUMP JUMPDEST JUMPDEST PUSH1 0x20 MUL PUSH1 0x20 ADD ADD DUP2 DUP2 MSTORE POP POP DUP4 PUSH2 0x140 ADD MLOAD DUP2 PUSH1 0xA DUP2 MLOAD DUP2 LT PUSH2 0x1313 JUMPI PUSH2 0x1312 PUSH2 0x4ACD JUMP JUMPDEST JUMPDEST PUSH1 0x20 MUL PUSH1 0x20 ADD ADD DUP2 DUP2 MSTORE POP POP DUP4 PUSH2 0x160 ADD MLOAD DUP2 PUSH1 0xB DUP2 MLOAD DUP2 LT PUSH2 0x1339 JUMPI PUSH2 0x1338 PUSH2 0x4ACD JUMP JUMPDEST JUMPDEST PUSH1 0x20 MUL PUSH1 0x20 ADD ADD DUP2 DUP2 MSTORE POP POP DUP3 PUSH1 0x0 ADD MLOAD DUP2 PUSH1 0xC DUP2 MLOAD DUP2 LT PUSH2 0x135E JUMPI PUSH2 0x135D PUSH2 0x4ACD JUMP JUMPDEST JUMPDEST PUSH1 0x20 MUL PUSH1 0x20 ADD ADD DUP2 DUP2 MSTORE POP POP DUP3 PUSH1 0x20 ADD MLOAD DUP2 PUSH1 0xD DUP2 MLOAD DUP2 LT PUSH2 0x1383 JUMPI PUSH2 0x1382 PUSH2 0x4ACD JUMP JUMPDEST JUMPDEST PUSH1 0x20 MUL PUSH1 0x20 ADD ADD DUP2 DUP2 MSTORE POP POP DUP3 PUSH1 0x40 ADD MLOAD DUP2 PUSH1 0xE DUP2 MLOAD DUP2 LT PUSH2 0x13A8 JUMPI PUSH2 0x13A7 PUSH2 0x4ACD JUMP JUMPDEST JUMPDEST PUSH1 0x20 MUL PUSH1 0x20 ADD ADD DUP2 DUP2 MSTORE POP POP DUP3 PUSH1 0x60 ADD MLOAD DUP2 PUSH1 0xF DUP2 MLOAD DUP2 LT PUSH2 0x13CD JUMPI PUSH2 0x13CC PUSH2 0x4ACD JUMP JUMPDEST JUMPDEST PUSH1 0x20 MUL PUSH1 0x20 ADD ADD DUP2 DUP2 MSTORE POP POP DUP3 PUSH1 0x80 ADD MLOAD DUP2 PUSH1 0x10 DUP2 MLOAD DUP2 LT PUSH2 0x13F2 JUMPI PUSH2 0x13F1 PUSH2 0x4ACD JUMP JUMPDEST JUMPDEST PUSH1 0x20 MUL PUSH1 0x20 ADD ADD DUP2 DUP2 MSTORE POP POP DUP3 PUSH1 0xA0 ADD MLOAD DUP2 PUSH1 0x11 DUP2 MLOAD DUP2 LT PUSH2 0x1417 JUMPI PUSH2 0x1416 PUSH2 0x4ACD JUMP JUMPDEST JUMPDEST PUSH1 0x20 MUL PUSH1 0x20 ADD ADD DUP2 DUP2 MSTORE POP POP DUP3 PUSH1 0xC0 ADD MLOAD DUP2 PUSH1 0x12 DUP2 MLOAD DUP2 LT PUSH2 0x143C JUMPI PUSH2 0x143B PUSH2 0x4ACD JUMP JUMPDEST JUMPDEST PUSH1 0x20 MUL PUSH1 0x20 ADD ADD DUP2 DUP2 MSTORE POP POP DUP3 PUSH1 0xE0 ADD MLOAD DUP2 PUSH1 0x13 DUP2 MLOAD DUP2 LT PUSH2 0x1461 JUMPI PUSH2 0x1460 PUSH2 0x4ACD JUMP JUMPDEST JUMPDEST PUSH1 0x20 MUL PUSH1 0x20 ADD ADD DUP2 DUP2 MSTORE POP POP DUP3 PUSH2 0x100 ADD MLOAD DUP2 PUSH1 0x14 DUP2 MLOAD DUP2 LT PUSH2 0x1487 JUMPI PUSH2 0x1486 PUSH2 0x4ACD JUMP JUMPDEST JUMPDEST PUSH1 0x20 MUL PUSH1 0x20 ADD ADD DUP2 DUP2 MSTORE POP POP DUP3 PUSH2 0x120 ADD MLOAD DUP2 PUSH1 0x15 DUP2 MLOAD DUP2 LT PUSH2 0x14AD JUMPI PUSH2 0x14AC PUSH2 0x4ACD JUMP JUMPDEST JUMPDEST PUSH1 0x20 MUL PUSH1 0x20 ADD ADD DUP2 DUP2 MSTORE POP POP DUP3 PUSH2 0x140 ADD MLOAD DUP2 PUSH1 0x16 DUP2 MLOAD DUP2 LT PUSH2 0x14D3 JUMPI PUSH2 0x14D2 PUSH2 0x4ACD JUMP JUMPDEST JUMPDEST PUSH1 0x20 MUL PUSH1 0x20 ADD ADD DUP2 DUP2 MSTORE POP POP DUP3 PUSH2 0x160 ADD MLOAD DUP2 PUSH1 0x17 DUP2 MLOAD DUP2 LT PUSH2 0x14F9 JUMPI PUSH2 0x14F8 PUSH2 0x4ACD JUMP JUMPDEST JUMPDEST PUSH1 0x20 MUL PUSH1 0x20 ADD ADD DUP2 DUP2 MSTORE POP POP DUP2 DUP2 PUSH1 0x18 DUP2 MLOAD DUP2 LT PUSH2 0x151A JUMPI PUSH2 0x1519 PUSH2 0x4ACD JUMP JUMPDEST JUMPDEST PUSH1 0x20 MUL PUSH1 0x20 ADD ADD DUP2 DUP2 MSTORE POP POP PUSH32 0x3593DF2963C20760AFEEC7BC9AE99F0AD8227EC08877590930B113D33DF9C067 PUSH1 0x3 PUSH1 0x40 MLOAD PUSH2 0x1556 SWAP2 SWAP1 PUSH2 0x41FB JUMP JUMPDEST PUSH1 0x40 MLOAD DUP1 SWAP2 SUB SWAP1 LOG1 PUSH1 0xA PUSH1 0x0 SWAP1 SLOAD SWAP1 PUSH2 0x100 EXP SWAP1 DIV PUSH20 0xFFFFFFFFFFFFFFFFFFFFFFFFFFFFFFFFFFFFFFFF AND PUSH20 0xFFFFFFFFFFFFFFFFFFFFFFFFFFFFFFFFFFFFFFFF AND PUSH4 0x3E3AA6C5 CALLVALUE PUSH1 0xC SLOAD PUSH32 0x397F7783310F752C90187FFFBD53489B1FF1F87FCF4636E32DC6BCBBF0B224F DUP6 PUSH1 0x40 MLOAD DUP6 PUSH4 0xFFFFFFFF AND PUSH1 0xE0 SHL DUP2 MSTORE PUSH1 0x4 ADD PUSH2 0x15E0 SWAP4 SWAP3 SWAP2 SWAP1 PUSH2 0x44CE JUMP JUMPDEST PUSH1 0x20 PUSH1 0x40 MLOAD DUP1 DUP4 SUB DUP2 DUP6 DUP9 DUP1 EXTCODESIZE ISZERO DUP1 ISZERO PUSH2 0x15F9 JUMPI PUSH1 0x0 DUP1 REVERT JUMPDEST POP GAS CALL ISZERO DUP1 ISZERO PUSH2 0x160D JUMPI RETURNDATASIZE PUSH1 0x0 DUP1 RETURNDATACOPY RETURNDATASIZE PUSH1 0x0 REVERT JUMPDEST POP POP POP POP POP PUSH1 0x40 MLOAD RETURNDATASIZE PUSH1 0x1F NOT PUSH1 0x1F DUP3 ADD AND DUP3 ADD DUP1 PUSH1 0x40 MSTORE POP DUP2 ADD SWAP1 PUSH2 0x1632 SWAP2 SWAP1 PUSH2 0x3AE2 JUMP JUMPDEST POP PUSH1 0x40 MLOAD DUP1 PUSH1 0x40 ADD PUSH1 0x40 MSTORE DUP1 DUP6 DUP2 MSTORE PUSH1 0x20 ADD DUP5 DUP2 MSTORE POP PUSH1 0x10 PUSH1 0x0 DUP5 DUP2 MSTORE PUSH1 0x20 ADD SWAP1 DUP2 MSTORE PUSH1 0x20 ADD PUSH1 0x0 KECCAK256 PUSH1 0x0 DUP3 ADD MLOAD DUP2 PUSH1 0x0 ADD PUSH1 0x0 DUP3 ADD MLOAD DUP2 PUSH1 0x0 ADD SSTORE PUSH1 0x20 DUP3 ADD MLOAD DUP2 PUSH1 0x1 ADD SSTORE PUSH1 0x40 DUP3 ADD MLOAD DUP2 PUSH1 0x2 ADD SSTORE PUSH1 0x60 DUP3 ADD MLOAD DUP2 PUSH1 0x3 ADD SSTORE PUSH1 0x80 DUP3 ADD MLOAD DUP2 PUSH1 0x4 ADD SSTORE PUSH1 0xA0 DUP3 ADD MLOAD DUP2 PUSH1 0x5 ADD SSTORE PUSH1 0xC0 DUP3 ADD MLOAD DUP2 PUSH1 0x6 ADD SSTORE PUSH1 0xE0 DUP3 ADD MLOAD DUP2 PUSH1 0x7 ADD SSTORE PUSH2 0x100 DUP3 ADD MLOAD DUP2 PUSH1 0x8 ADD SSTORE PUSH2 0x120 DUP3 ADD MLOAD DUP2 PUSH1 0x9 ADD SSTORE PUSH2 0x140 DUP3 ADD MLOAD DUP2 PUSH1 0xA ADD SSTORE PUSH2 0x160 DUP3 ADD MLOAD DUP2 PUSH1 0xB ADD SSTORE POP POP PUSH1 0x20 DUP3 ADD MLOAD DUP2 PUSH1 0xC ADD PUSH1 0x0 DUP3 ADD MLOAD DUP2 PUSH1 0x0 ADD SSTORE PUSH1 0x20 DUP3 ADD MLOAD DUP2 PUSH1 0x1 ADD SSTORE PUSH1 0x40 DUP3 ADD MLOAD DUP2 PUSH1 0x2 ADD SSTORE PUSH1 0x60 DUP3 ADD MLOAD DUP2 PUSH1 0x3 ADD SSTORE PUSH1 0x80 DUP3 ADD MLOAD DUP2 PUSH1 0x4 ADD SSTORE PUSH1 0xA0 DUP3 ADD MLOAD DUP2 PUSH1 0x5 ADD SSTORE PUSH1 0xC0 DUP3 ADD MLOAD DUP2 PUSH1 0x6 ADD SSTORE PUSH1 0xE0 DUP3 ADD MLOAD DUP2 PUSH1 0x7 ADD SSTORE PUSH2 0x100 DUP3 ADD MLOAD DUP2 PUSH1 0x8 ADD SSTORE PUSH2 0x120 DUP3 ADD MLOAD DUP2 PUSH1 0x9 ADD SSTORE PUSH2 0x140 DUP3 ADD MLOAD DUP2 PUSH1 0xA ADD SSTORE PUSH2 0x160 DUP3 ADD MLOAD DUP2 PUSH1 0xB ADD SSTORE POP POP SWAP1 POP POP CALLER PUSH20 0xFFFFFFFFFFFFFFFFFFFFFFFFFFFFFFFFFFFFFFFF AND PUSH32 0xD02FCE1ACAFA0B604F24AAAD2D7C0A36C749F4B333ABC05FC83BA197D5E0705C DUP6 PUSH1 0x0 ADD MLOAD DUP6 PUSH1 0x0 ADD MLOAD PUSH1 0xC SLOAD CALLVALUE PUSH1 0x40 MLOAD PUSH2 0x17C2 SWAP5 SWAP4 SWAP3 SWAP2 SWAP1 PUSH2 0x4543 JUMP JUMPDEST PUSH1 0x40 MLOAD DUP1 SWAP2 SUB SWAP1 LOG2 POP POP POP POP POP POP JUMP JUMPDEST PUSH1 0x60 PUSH1 0x1 DUP1 SLOAD PUSH2 0x17E1 SWAP1 PUSH2 0x492A JUMP JUMPDEST DUP1 PUSH1 0x1F ADD PUSH1 0x20 DUP1 SWAP2 DIV MUL PUSH1 0x20 ADD PUSH1 0x40 MLOAD SWAP1 DUP2 ADD PUSH1 0x40 MSTORE DUP1 SWAP3 SWAP2 SWAP1 DUP2 DUP2 MSTORE PUSH1 0x20 ADD DUP3 DUP1 SLOAD PUSH2 0x180D SWAP1 PUSH2 0x492A JUMP JUMPDEST DUP1 ISZERO PUSH2 0x185A JUMPI DUP1 PUSH1 0x1F LT PUSH2 0x182F JUMPI PUSH2 0x100 DUP1 DUP4 SLOAD DIV MUL DUP4 MSTORE SWAP2 PUSH1 0x20 ADD SWAP2 PUSH2 0x185A JUMP JUMPDEST DUP3 ADD SWAP2 SWAP1 PUSH1 0x0 MSTORE PUSH1 0x20 PUSH1 0x0 KECCAK256 SWAP1 JUMPDEST DUP2 SLOAD DUP2 MSTORE SWAP1 PUSH1 0x1 ADD SWAP1 PUSH1 0x20 ADD DUP1 DUP4 GT PUSH2 0x183D JUMPI DUP3 SWAP1 SUB PUSH1 0x1F AND DUP3 ADD SWAP2 JUMPDEST POP POP POP POP POP SWAP1 POP SWAP1 JUMP JUMPDEST PUSH1 0x0 DUP2 GT DUP1 ISZERO PUSH2 0x1875 JUMPI POP PUSH2 0x28A DUP2 LT JUMPDEST PUSH2 0x18B4 JUMPI PUSH1 0x40 MLOAD PUSH32 0x8C379A000000000000000000000000000000000000000000000000000000000 DUP2 MSTORE PUSH1 0x4 ADD PUSH2 0x18AB SWAP1 PUSH2 0x4418 JUMP JUMPDEST PUSH1 0x40 MLOAD DUP1 SWAP2 SUB SWAP1 REVERT JUMPDEST PUSH1 0x0 PUSH1 0xE DUP1 SLOAD SWAP1 POP SWAP1 POP PUSH1 0x0 PUSH2 0x18CA DUP4 DUP4 PUSH2 0x20F1 JUMP JUMPDEST SWAP1 POP PUSH1 0xE DUP2 SWAP1 DUP1 PUSH1 0x1 DUP2 SLOAD ADD DUP1 DUP3 SSTORE DUP1 SWAP2 POP POP PUSH1 0x1 SWAP1 SUB SWAP1 PUSH1 0x0 MSTORE PUSH1 0x20 PUSH1 0x0 KECCAK256 SWAP1 PUSH1 0xC MUL ADD PUSH1 0x0 SWAP1 SWAP2 SWAP1 SWAP2 SWAP1 SWAP2 POP PUSH1 0x0 DUP3 ADD MLOAD DUP2 PUSH1 0x0 ADD SSTORE PUSH1 0x20 DUP3 ADD MLOAD DUP2 PUSH1 0x1 ADD SSTORE PUSH1 0x40 DUP3 ADD MLOAD DUP2 PUSH1 0x2 ADD SSTORE PUSH1 0x60 DUP3 ADD MLOAD DUP2 PUSH1 0x3 ADD SSTORE PUSH1 0x80 DUP3 ADD MLOAD DUP2 PUSH1 0x4 ADD SSTORE PUSH1 0xA0 DUP3 ADD MLOAD DUP2 PUSH1 0x5 ADD SSTORE PUSH1 0xC0 DUP3 ADD MLOAD DUP2 PUSH1 0x6 ADD SSTORE PUSH1 0xE0 DUP3 ADD MLOAD DUP2 PUSH1 0x7 ADD SSTORE PUSH2 0x100 DUP3 ADD MLOAD DUP2 PUSH1 0x8 ADD SSTORE PUSH2 0x120 DUP3 ADD MLOAD DUP2 PUSH1 0x9 ADD SSTORE PUSH2 0x140 DUP3 ADD MLOAD DUP2 PUSH1 0xA ADD SSTORE PUSH2 0x160 DUP3 ADD MLOAD DUP2 PUSH1 0xB ADD SSTORE POP POP PUSH32 0x4E55BD6DB2C9FFA320EAC64DF3B7D1A3BA28EE53CE174854FC3A1918243AA01C DUP3 DUP3 PUSH1 0x20 ADD MLOAD DUP4 PUSH1 0x40 ADD MLOAD DUP5 PUSH1 0x60 ADD MLOAD DUP6 PUSH1 0x80 ADD MLOAD PUSH1 0x40 MLOAD PUSH2 0x19BD SWAP6 SWAP5 SWAP4 SWAP3 SWAP2 SWAP1 PUSH2 0x4588 JUMP JUMPDEST PUSH1 0x40 MLOAD DUP1 SWAP2 SUB SWAP1 LOG1 PUSH2 0x19CF CALLER DUP4 PUSH2 0x2882 JUMP JUMPDEST POP POP POP JUMP JUMPDEST PUSH2 0x19E6 PUSH2 0x19DF PUSH2 0x1CCD JUMP JUMPDEST DUP4 DUP4 PUSH2 0x28A0 JUMP JUMPDEST POP POP JUMP JUMPDEST PUSH2 0x19FB PUSH2 0x19F5 PUSH2 0x1CCD JUMP JUMPDEST DUP4 PUSH2 0x1D8E JUMP JUMPDEST PUSH2 0x1A3A JUMPI PUSH1 0x40 MLOAD PUSH32 0x8C379A000000000000000000000000000000000000000000000000000000000 DUP2 MSTORE PUSH1 0x4 ADD PUSH2 0x1A31 SWAP1 PUSH2 0x43F8 JUMP JUMPDEST PUSH1 0x40 MLOAD DUP1 SWAP2 SUB SWAP1 REVERT JUMPDEST PUSH2 0x1A46 DUP5 DUP5 DUP5 DUP5 PUSH2 0x2A0D JUMP JUMPDEST POP POP POP POP JUMP JUMPDEST PUSH1 0x60 PUSH2 0x1A57 DUP3 PUSH2 0x1C61 JUMP JUMPDEST PUSH2 0x1A96 JUMPI PUSH1 0x40 MLOAD PUSH32 0x8C379A000000000000000000000000000000000000000000000000000000000 DUP2 MSTORE PUSH1 0x4 ADD PUSH2 0x1A8D SWAP1 PUSH2 0x43B8 JUMP JUMPDEST PUSH1 0x40 MLOAD DUP1 SWAP2 SUB SWAP1 REVERT JUMPDEST PUSH1 0x0 PUSH2 0x1AA0 PUSH2 0x2A69 JUMP JUMPDEST SWAP1 POP PUSH1 0x0 DUP2 MLOAD GT PUSH2 0x1AC0 JUMPI PUSH1 0x40 MLOAD DUP1 PUSH1 0x20 ADD PUSH1 0x40 MSTORE DUP1 PUSH1 0x0 DUP2 MSTORE POP PUSH2 0x1AEB JUMP JUMPDEST DUP1 PUSH2 0x1ACA DUP5 PUSH2 0x2A80 JUMP JUMPDEST PUSH1 0x40 MLOAD PUSH1 0x20 ADD PUSH2 0x1ADB SWAP3 SWAP2 SWAP1 PUSH2 0x40C7 JUMP JUMPDEST PUSH1 0x40 MLOAD PUSH1 0x20 DUP2 DUP4 SUB SUB DUP2 MSTORE SWAP1 PUSH1 0x40 MSTORE JUMPDEST SWAP2 POP POP SWAP2 SWAP1 POP JUMP JUMPDEST PUSH1 0xF PUSH1 0x20 MSTORE DUP1 PUSH1 0x0 MSTORE PUSH1 0x40 PUSH1 0x0 KECCAK256 PUSH1 0x0 SWAP2 POP SWAP1 POP DUP1 PUSH1 0x0 ADD SLOAD SWAP1 DUP1 PUSH1 0x1 ADD SLOAD SWAP1 DUP1 PUSH1 0x2 ADD SLOAD SWAP1 DUP1 PUSH1 0x3 ADD SLOAD SWAP1 DUP1 PUSH1 0x4 ADD SLOAD SWAP1 DUP1 PUSH1 0x5 ADD SLOAD SWAP1 DUP1 PUSH1 0x6 ADD SLOAD SWAP1 DUP1 PUSH1 0x7 ADD SLOAD SWAP1 DUP1 PUSH1 0x8 ADD SLOAD SWAP1 DUP1 PUSH1 0x9 ADD SLOAD SWAP1 DUP1 PUSH1 0xA ADD SLOAD SWAP1 DUP1 PUSH1 0xB ADD SLOAD SWAP1 POP DUP13 JUMP JUMPDEST PUSH1 0x0 PUSH1 0x5 PUSH1 0x0 DUP5 PUSH20 0xFFFFFFFFFFFFFFFFFFFFFFFFFFFFFFFFFFFFFFFF AND PUSH20 0xFFFFFFFFFFFFFFFFFFFFFFFFFFFFFFFFFFFFFFFF AND DUP2 MSTORE PUSH1 0x20 ADD SWAP1 DUP2 MSTORE PUSH1 0x20 ADD PUSH1 0x0 KECCAK256 PUSH1 0x0 DUP4 PUSH20 0xFFFFFFFFFFFFFFFFFFFFFFFFFFFFFFFFFFFFFFFF AND PUSH20 0xFFFFFFFFFFFFFFFFFFFFFFFFFFFFFFFFFFFFFFFF AND DUP2 MSTORE PUSH1 0x20 ADD SWAP1 DUP2 MSTORE PUSH1 0x20 ADD PUSH1 0x0 KECCAK256 PUSH1 0x0 SWAP1 SLOAD SWAP1 PUSH2 0x100 EXP SWAP1 DIV PUSH1 0xFF AND SWAP1 POP SWAP3 SWAP2 POP POP JUMP JUMPDEST PUSH1 0x0 PUSH32 0x780E9D6300000000000000000000000000000000000000000000000000000000 PUSH28 0xFFFFFFFFFFFFFFFFFFFFFFFFFFFFFFFFFFFFFFFFFFFFFFFFFFFFFFFF NOT AND DUP3 PUSH28 0xFFFFFFFFFFFFFFFFFFFFFFFFFFFFFFFFFFFFFFFFFFFFFFFFFFFFFFFF NOT AND EQ DUP1 PUSH2 0x1C5A JUMPI POP PUSH2 0x1C59 DUP3 PUSH2 0x2BE1 JUMP JUMPDEST JUMPDEST SWAP1 POP SWAP2 SWAP1 POP JUMP JUMPDEST PUSH1 0x0 DUP1 PUSH20 0xFFFFFFFFFFFFFFFFFFFFFFFFFFFFFFFFFFFFFFFF AND PUSH1 0x2 PUSH1 0x0 DUP5 DUP2 MSTORE PUSH1 0x20 ADD SWAP1 DUP2 MSTORE PUSH1 0x20 ADD PUSH1 0x0 KECCAK256 PUSH1 0x0 SWAP1 SLOAD SWAP1 PUSH2 0x100 EXP SWAP1 DIV PUSH20 0xFFFFFFFFFFFFFFFFFFFFFFFFFFFFFFFFFFFFFFFF AND PUSH20 0xFFFFFFFFFFFFFFFFFFFFFFFFFFFFFFFFFFFFFFFF AND EQ ISZERO SWAP1 POP SWAP2 SWAP1 POP JUMP JUMPDEST PUSH1 0x0 CALLER SWAP1 POP SWAP1 JUMP JUMPDEST DUP2 PUSH1 0x4 PUSH1 0x0 DUP4 DUP2 MSTORE PUSH1 0x20 ADD SWAP1 DUP2 MSTORE PUSH1 0x20 ADD PUSH1 0x0 KECCAK256 PUSH1 0x0 PUSH2 0x100 EXP DUP2 SLOAD DUP2 PUSH20 0xFFFFFFFFFFFFFFFFFFFFFFFFFFFFFFFFFFFFFFFF MUL NOT AND SWAP1 DUP4 PUSH20 0xFFFFFFFFFFFFFFFFFFFFFFFFFFFFFFFFFFFFFFFF AND MUL OR SWAP1 SSTORE POP DUP1 DUP3 PUSH20 0xFFFFFFFFFFFFFFFFFFFFFFFFFFFFFFFFFFFFFFFF AND PUSH2 0x1D48 DUP4 PUSH2 0xABA JUMP JUMPDEST PUSH20 0xFFFFFFFFFFFFFFFFFFFFFFFFFFFFFFFFFFFFFFFF AND PUSH32 0x8C5BE1E5EBEC7D5BD14F71427D1E84F3DD0314C0F7B2291E5B200AC8C7C3B925 PUSH1 0x40 MLOAD PUSH1 0x40 MLOAD DUP1 SWAP2 SUB SWAP1 LOG4 POP POP JUMP JUMPDEST PUSH1 0x0 PUSH2 0x1D99 DUP3 PUSH2 0x1C61 JUMP JUMPDEST PUSH2 0x1DD8 JUMPI PUSH1 0x40 MLOAD PUSH32 0x8C379A000000000000000000000000000000000000000000000000000000000 DUP2 MSTORE PUSH1 0x4 ADD PUSH2 0x1DCF SWAP1 PUSH2 0x42F8 JUMP JUMPDEST PUSH1 0x40 MLOAD DUP1 SWAP2 SUB SWAP1 REVERT JUMPDEST PUSH1 0x0 PUSH2 0x1DE3 DUP4 PUSH2 0xABA JUMP JUMPDEST SWAP1 POP DUP1 PUSH20 0xFFFFFFFFFFFFFFFFFFFFFFFFFFFFFFFFFFFFFFFF AND DUP5 PUSH20 0xFFFFFFFFFFFFFFFFFFFFFFFFFFFFFFFFFFFFFFFF AND EQ DUP1 PUSH2 0x1E25 JUMPI POP PUSH2 0x1E24 DUP2 DUP6 PUSH2 0x1B53 JUMP JUMPDEST JUMPDEST DUP1 PUSH2 0x1E63 JUMPI POP DUP4 PUSH20 0xFFFFFFFFFFFFFFFFFFFFFFFFFFFFFFFFFFFFFFFF AND PUSH2 0x1E4B DUP5 PUSH2 0x650 JUMP JUMPDEST PUSH20 0xFFFFFFFFFFFFFFFFFFFFFFFFFFFFFFFFFFFFFFFF AND EQ JUMPDEST SWAP2 POP POP SWAP3 SWAP2 POP POP JUMP JUMPDEST DUP3 PUSH20 0xFFFFFFFFFFFFFFFFFFFFFFFFFFFFFFFFFFFFFFFF AND PUSH2 0x1E8C DUP3 PUSH2 0xABA JUMP JUMPDEST PUSH20 0xFFFFFFFFFFFFFFFFFFFFFFFFFFFFFFFFFFFFFFFF AND EQ PUSH2 0x1EE2 JUMPI PUSH1 0x40 MLOAD PUSH32 0x8C379A000000000000000000000000000000000000000000000000000000000 DUP2 MSTORE PUSH1 0x4 ADD PUSH2 0x1ED9 SWAP1 PUSH2 0x4278 JUMP JUMPDEST PUSH1 0x40 MLOAD DUP1 SWAP2 SUB SWAP1 REVERT JUMPDEST PUSH1 0x0 PUSH20 0xFFFFFFFFFFFFFFFFFFFFFFFFFFFFFFFFFFFFFFFF AND DUP3 PUSH20 0xFFFFFFFFFFFFFFFFFFFFFFFFFFFFFFFFFFFFFFFF AND EQ ISZERO PUSH2 0x1F52 JUMPI PUSH1 0x40 MLOAD PUSH32 0x8C379A000000000000000000000000000000000000000000000000000000000 DUP2 MSTORE PUSH1 0x4 ADD PUSH2 0x1F49 SWAP1 PUSH2 0x42B8 JUMP JUMPDEST PUSH1 0x40 MLOAD DUP1 SWAP2 SUB SWAP1 REVERT JUMPDEST PUSH2 0x1F5D DUP4 DUP4 DUP4 PUSH2 0x2CC3 JUMP JUMPDEST PUSH2 0x1F68 PUSH1 0x0 DUP3 PUSH2 0x1CD5 JUMP JUMPDEST PUSH1 0x1 PUSH1 0x3 PUSH1 0x0 DUP6 PUSH20 0xFFFFFFFFFFFFFFFFFFFFFFFFFFFFFFFFFFFFFFFF AND PUSH20 0xFFFFFFFFFFFFFFFFFFFFFFFFFFFFFFFFFFFFFFFF AND DUP2 MSTORE PUSH1 0x20 ADD SWAP1 DUP2 MSTORE PUSH1 0x20 ADD PUSH1 0x0 KECCAK256 PUSH1 0x0 DUP3 DUP3 SLOAD PUSH2 0x1FB8 SWAP2 SWAP1 PUSH2 0x47EE JUMP JUMPDEST SWAP3 POP POP DUP2 SWAP1 SSTORE POP PUSH1 0x1 PUSH1 0x3 PUSH1 0x0 DUP5 PUSH20 0xFFFFFFFFFFFFFFFFFFFFFFFFFFFFFFFFFFFFFFFF AND PUSH20 0xFFFFFFFFFFFFFFFFFFFFFFFFFFFFFFFFFFFFFFFF AND DUP2 MSTORE PUSH1 0x20 ADD SWAP1 DUP2 MSTORE PUSH1 0x20 ADD PUSH1 0x0 KECCAK256 PUSH1 0x0 DUP3 DUP3 SLOAD PUSH2 0x200F SWAP2 SWAP1 PUSH2 0x4767 JUMP JUMPDEST SWAP3 POP POP DUP2 SWAP1 SSTORE POP DUP2 PUSH1 0x2 PUSH1 0x0 DUP4 DUP2 MSTORE PUSH1 0x20 ADD SWAP1 DUP2 MSTORE PUSH1 0x20 ADD PUSH1 0x0 KECCAK256 PUSH1 0x0 PUSH2 0x100 EXP DUP2 SLOAD DUP2 PUSH20 0xFFFFFFFFFFFFFFFFFFFFFFFFFFFFFFFFFFFFFFFF MUL NOT AND SWAP1 DUP4 PUSH20 0xFFFFFFFFFFFFFFFFFFFFFFFFFFFFFFFFFFFFFFFF AND MUL OR SWAP1 SSTORE POP DUP1 DUP3 PUSH20 0xFFFFFFFFFFFFFFFFFFFFFFFFFFFFFFFFFFFFFFFF AND DUP5 PUSH20 0xFFFFFFFFFFFFFFFFFFFFFFFFFFFFFFFFFFFFFFFF AND PUSH32 0xDDF252AD1BE2C89B69C2B068FC378DAA952BA7F163C4A11628F55A4DF523B3EF PUSH1 0x40 MLOAD PUSH1 0x40 MLOAD DUP1 SWAP2 SUB SWAP1 LOG4 PUSH2 0x20CE DUP4 DUP4 DUP4 PUSH2 0x2CD3 JUMP JUMPDEST POP POP POP JUMP JUMPDEST PUSH1 0x0 PUSH1 0xD PUSH1 0x0 DUP2 SLOAD DUP1 SWAP3 SWAP2 SWAP1 PUSH2 0x20E8 SWAP1 PUSH2 0x498D JUMP JUMPDEST SWAP2 SWAP1 POP SSTORE SWAP1 POP SWAP1 JUMP JUMPDEST PUSH2 0x20F9 PUSH2 0x37D0 JUMP JUMPDEST PUSH1 0x1 DUP4 EQ ISZERO PUSH2 0x2133 JUMPI PUSH2 0x212C DUP3 PUSH1 0x98 PUSH1 0x6F PUSH1 0x6A PUSH1 0x6F PUSH1 0x3 PUSH1 0x63 PUSH1 0x3 PUSH1 0x1E PUSH2 0x211E PUSH2 0x2CD8 JUMP JUMPDEST PUSH2 0x2126 PUSH2 0x2CE9 JUMP JUMPDEST DUP15 PUSH2 0x2D06 JUMP JUMPDEST SWAP1 POP PUSH2 0x287C JUMP JUMPDEST PUSH1 0x2 DUP4 EQ ISZERO PUSH2 0x216D JUMPI PUSH2 0x2166 DUP3 PUSH1 0xA7 PUSH1 0x7D PUSH1 0x7B PUSH1 0x7E PUSH1 0x3 PUSH1 0x7 PUSH1 0x3 PUSH1 0x28 PUSH2 0x2158 PUSH2 0x2CD8 JUMP JUMPDEST PUSH2 0x2160 PUSH2 0x2CE9 JUMP JUMPDEST DUP15 PUSH2 0x2D06 JUMP JUMPDEST SWAP1 POP PUSH2 0x287C JUMP JUMPDEST PUSH1 0x3 DUP4 EQ ISZERO PUSH2 0x21A7 JUMPI PUSH2 0x21A0 DUP3 PUSH1 0xBB PUSH1 0xA7 PUSH1 0x91 PUSH1 0xC0 PUSH1 0x3 PUSH1 0x7 PUSH1 0x3 PUSH1 0x32 PUSH2 0x2192 PUSH2 0x2CD8 JUMP JUMPDEST PUSH2 0x219A PUSH2 0x2CE9 JUMP JUMPDEST DUP15 PUSH2 0x2D06 JUMP JUMPDEST SWAP1 POP PUSH2 0x287C JUMP JUMPDEST PUSH1 0x4 DUP4 EQ ISZERO PUSH2 0x21E1 JUMPI PUSH2 0x21DA DUP3 PUSH1 0x92 PUSH1 0x72 PUSH1 0x80 PUSH1 0x68 PUSH1 0x1 PUSH1 0x63 PUSH1 0x1 PUSH1 0x28 PUSH2 0x21CC PUSH2 0x2CD8 JUMP JUMPDEST PUSH2 0x21D4 PUSH2 0x2CE9 JUMP JUMPDEST DUP15 PUSH2 0x2D06 JUMP JUMPDEST SWAP1 POP PUSH2 0x287C JUMP JUMPDEST PUSH1 0x5 DUP4 EQ ISZERO PUSH2 0x221B JUMPI PUSH2 0x2214 DUP3 PUSH1 0xA5 PUSH1 0x7F PUSH1 0x91 PUSH1 0x79 PUSH1 0x1 PUSH1 0x63 PUSH1 0x1 PUSH1 0x28 PUSH2 0x2206 PUSH2 0x2CD8 JUMP JUMPDEST PUSH2 0x220E PUSH2 0x2CE9 JUMP JUMPDEST DUP15 PUSH2 0x2D06 JUMP JUMPDEST SWAP1 POP PUSH2 0x287C JUMP JUMPDEST PUSH1 0x6 DUP4 EQ ISZERO PUSH2 0x2255 JUMPI PUSH2 0x224E DUP3 PUSH1 0xB9 PUSH1 0xC8 PUSH1 0xA7 PUSH1 0xB3 PUSH1 0x1 PUSH1 0x9 PUSH1 0x1 PUSH1 0x32 PUSH2 0x2240 PUSH2 0x2CD8 JUMP JUMPDEST PUSH2 0x2248 PUSH2 0x2CE9 JUMP JUMPDEST DUP15 PUSH2 0x2D06 JUMP JUMPDEST SWAP1 POP PUSH2 0x287C JUMP JUMPDEST PUSH1 0x7 DUP4 EQ ISZERO PUSH2 0x228F JUMPI PUSH2 0x2288 DUP3 PUSH1 0x97 PUSH1 0x6E PUSH1 0x68 PUSH1 0x80 PUSH1 0x2 PUSH1 0x63 PUSH1 0x2 PUSH1 0x1E PUSH2 0x227A PUSH2 0x2CD8 JUMP JUMPDEST PUSH2 0x2282 PUSH2 0x2CE9 JUMP JUMPDEST DUP15 PUSH2 0x2D06 JUMP JUMPDEST SWAP1 POP PUSH2 0x287C JUMP JUMPDEST PUSH1 0x8 DUP4 EQ ISZERO PUSH2 0x22C9 JUMPI PUSH2 0x22C2 DUP3 PUSH1 0xA6 PUSH1 0x7E PUSH1 0x79 PUSH1 0x91 PUSH1 0x2 PUSH1 0x63 PUSH1 0x2 PUSH1 0x28 PUSH2 0x22B4 PUSH2 0x2CD8 JUMP JUMPDEST PUSH2 0x22BC PUSH2 0x2CE9 JUMP JUMPDEST DUP15 PUSH2 0x2D06 JUMP JUMPDEST SWAP1 POP PUSH2 0x287C JUMP JUMPDEST PUSH1 0x9 DUP4 EQ ISZERO PUSH2 0x2303 JUMPI PUSH2 0x22FC DUP3 PUSH1 0xBA PUSH1 0x94 PUSH1 0x8F PUSH1 0xA7 PUSH1 0x2 PUSH1 0x63 PUSH1 0x2 PUSH1 0x32 PUSH2 0x22EE PUSH2 0x2CD8 JUMP JUMPDEST PUSH2 0x22F6 PUSH2 0x2CE9 JUMP JUMPDEST DUP15 PUSH2 0x2D06 JUMP JUMPDEST SWAP1 POP PUSH2 0x287C JUMP JUMPDEST PUSH1 0xA DUP4 EQ ISZERO PUSH2 0x2323 JUMPI PUSH2 0x231C DUP3 PUSH1 0xB PUSH1 0x63 DUP7 PUSH1 0x1 PUSH2 0x2DBA JUMP JUMPDEST SWAP1 POP PUSH2 0x287C JUMP JUMPDEST PUSH1 0xB DUP4 EQ ISZERO PUSH2 0x2343 JUMPI PUSH2 0x233C DUP3 PUSH1 0xB PUSH1 0x63 DUP7 PUSH1 0x2 PUSH2 0x2DBA JUMP JUMPDEST SWAP1 POP PUSH2 0x287C JUMP JUMPDEST PUSH1 0xC DUP4 EQ ISZERO PUSH2 0x2363 JUMPI PUSH2 0x235C DUP3 PUSH1 0xB PUSH1 0x9 DUP7 PUSH1 0x3 PUSH2 0x2DBA JUMP JUMPDEST SWAP1 POP PUSH2 0x287C JUMP JUMPDEST PUSH1 0xD DUP4 EQ ISZERO PUSH2 0x2383 JUMPI PUSH2 0x237C DUP3 PUSH1 0xB PUSH1 0x7 DUP7 PUSH1 0x1 PUSH2 0x2DBA JUMP JUMPDEST SWAP1 POP PUSH2 0x287C JUMP JUMPDEST PUSH1 0xE DUP4 EQ ISZERO PUSH2 0x23A3 JUMPI PUSH2 0x239C DUP3 PUSH1 0xB PUSH1 0x7 DUP7 PUSH1 0x2 PUSH2 0x2DBA JUMP JUMPDEST SWAP1 POP PUSH2 0x287C JUMP JUMPDEST PUSH1 0xF DUP4 EQ ISZERO PUSH2 0x23C3 JUMPI PUSH2 0x23BC DUP3 PUSH1 0xB PUSH1 0x7 DUP7 PUSH1 0x3 PUSH2 0x2DBA JUMP JUMPDEST SWAP1 POP PUSH2 0x287C JUMP JUMPDEST PUSH1 0x10 DUP4 EQ ISZERO PUSH2 0x23E3 JUMPI PUSH2 0x23DC DUP3 PUSH1 0x0 PUSH1 0x9 DUP7 PUSH1 0x1 PUSH2 0x2DBA JUMP JUMPDEST SWAP1 POP PUSH2 0x287C JUMP JUMPDEST PUSH1 0x11 DUP4 EQ ISZERO PUSH2 0x2403 JUMPI PUSH2 0x23FC DUP3 PUSH1 0x0 PUSH1 0x9 DUP7 PUSH1 0x2 PUSH2 0x2DBA JUMP JUMPDEST SWAP1 POP PUSH2 0x287C JUMP JUMPDEST PUSH1 0x12 DUP4 EQ ISZERO PUSH2 0x2423 JUMPI PUSH2 0x241C DUP3 PUSH1 0x0 PUSH1 0x9 DUP7 PUSH1 0x3 PUSH2 0x2DBA JUMP JUMPDEST SWAP1 POP PUSH2 0x287C JUMP JUMPDEST PUSH1 0x13 DUP4 EQ ISZERO PUSH2 0x2443 JUMPI PUSH2 0x243C DUP3 PUSH1 0x0 PUSH1 0x63 DUP7 PUSH1 0x1 PUSH2 0x2DBA JUMP JUMPDEST SWAP1 POP PUSH2 0x287C JUMP JUMPDEST PUSH1 0x14 DUP4 EQ ISZERO PUSH2 0x2463 JUMPI PUSH2 0x245C DUP3 PUSH1 0x0 PUSH1 0x63 DUP7 PUSH1 0x2 PUSH2 0x2DBA JUMP JUMPDEST SWAP1 POP PUSH2 0x287C JUMP JUMPDEST PUSH1 0x15 DUP4 EQ ISZERO PUSH2 0x2483 JUMPI PUSH2 0x247C DUP3 PUSH1 0x0 PUSH1 0x9 DUP7 PUSH1 0x1 PUSH2 0x2DBA JUMP JUMPDEST SWAP1 POP PUSH2 0x287C JUMP JUMPDEST PUSH1 0x16 DUP4 EQ ISZERO PUSH2 0x24A3 JUMPI PUSH2 0x249C DUP3 PUSH1 0x0 PUSH1 0x9 DUP7 PUSH1 0x2 PUSH2 0x2DBA JUMP JUMPDEST SWAP1 POP PUSH2 0x287C JUMP JUMPDEST PUSH1 0x17 DUP4 EQ ISZERO PUSH2 0x24C3 JUMPI PUSH2 0x24BC DUP3 PUSH1 0x7 PUSH1 0x63 DUP7 PUSH1 0x1 PUSH2 0x2DBA JUMP JUMPDEST SWAP1 POP PUSH2 0x287C JUMP JUMPDEST PUSH1 0x18 DUP4 EQ ISZERO PUSH2 0x24E3 JUMPI PUSH2 0x24DC DUP3 PUSH1 0x7 PUSH1 0x63 DUP7 PUSH1 0x2 PUSH2 0x2DBA JUMP JUMPDEST SWAP1 POP PUSH2 0x287C JUMP JUMPDEST PUSH1 0x19 DUP4 EQ ISZERO PUSH2 0x2503 JUMPI PUSH2 0x24FC DUP3 PUSH1 0x4 PUSH1 0x63 DUP7 PUSH1 0x2 PUSH2 0x2DBA JUMP JUMPDEST SWAP1 POP PUSH2 0x287C JUMP JUMPDEST PUSH1 0x1A DUP4 EQ ISZERO PUSH2 0x2523 JUMPI PUSH2 0x251C DUP3 PUSH1 0x4 PUSH1 0x63 DUP7 PUSH1 0x3 PUSH2 0x2DBA JUMP JUMPDEST SWAP1 POP PUSH2 0x287C JUMP JUMPDEST PUSH1 0x1B DUP4 EQ ISZERO PUSH2 0x2543 JUMPI PUSH2 0x253C DUP3 PUSH1 0x8 PUSH1 0x63 DUP7 PUSH1 0x1 PUSH2 0x2DBA JUMP JUMPDEST SWAP1 POP PUSH2 0x287C JUMP JUMPDEST PUSH1 0x1C DUP4 EQ ISZERO PUSH2 0x2563 JUMPI PUSH2 0x255C DUP3 PUSH1 0x8 PUSH1 0x63 DUP7 PUSH1 0x2 PUSH2 0x2DBA JUMP JUMPDEST SWAP1 POP PUSH2 0x287C JUMP JUMPDEST PUSH1 0x1D DUP4 EQ ISZERO PUSH2 0x2583 JUMPI PUSH2 0x257C DUP3 PUSH1 0x7 PUSH1 0x63 DUP7 PUSH1 0x1 PUSH2 0x2DBA JUMP JUMPDEST SWAP1 POP PUSH2 0x287C JUMP JUMPDEST PUSH1 0x1E DUP4 EQ ISZERO PUSH2 0x25A3 JUMPI PUSH2 0x259C DUP3 PUSH1 0x7 PUSH1 0x63 DUP7 PUSH1 0x1 PUSH2 0x2DBA JUMP JUMPDEST SWAP1 POP PUSH2 0x287C JUMP JUMPDEST PUSH1 0x1F DUP4 EQ ISZERO PUSH2 0x25C3 JUMPI PUSH2 0x25BC DUP3 PUSH1 0x7 PUSH1 0x8 DUP7 PUSH1 0x3 PUSH2 0x2DBA JUMP JUMPDEST SWAP1 POP PUSH2 0x287C JUMP JUMPDEST PUSH1 0x20 DUP4 EQ ISZERO PUSH2 0x25E3 JUMPI PUSH2 0x25DC DUP3 PUSH1 0x7 PUSH1 0x63 DUP7 PUSH1 0x1 PUSH2 0x2DBA JUMP JUMPDEST SWAP1 POP PUSH2 0x287C JUMP JUMPDEST PUSH1 0x21 DUP4 EQ ISZERO PUSH2 0x2603 JUMPI PUSH2 0x25FC DUP3 PUSH1 0x7 PUSH1 0x63 DUP7 PUSH1 0x2 PUSH2 0x2DBA JUMP JUMPDEST SWAP1 POP PUSH2 0x287C JUMP JUMPDEST PUSH1 0x22 DUP4 EQ ISZERO PUSH2 0x2623 JUMPI PUSH2 0x261C DUP3 PUSH1 0x7 PUSH1 0x8 DUP7 PUSH1 0x3 PUSH2 0x2DBA JUMP JUMPDEST SWAP1 POP PUSH2 0x287C JUMP JUMPDEST PUSH1 0x23 DUP4 EQ ISZERO PUSH2 0x2643 JUMPI PUSH2 0x263C DUP3 PUSH1 0x11 PUSH1 0x63 DUP7 PUSH1 0x1 PUSH2 0x2DBA JUMP JUMPDEST SWAP1 POP PUSH2 0x287C JUMP JUMPDEST PUSH1 0x24 DUP4 EQ ISZERO PUSH2 0x2663 JUMPI PUSH2 0x265C DUP3 PUSH1 0x11 PUSH1 0x63 DUP7 PUSH1 0x2 PUSH2 0x2DBA JUMP JUMPDEST SWAP1 POP PUSH2 0x287C JUMP JUMPDEST PUSH1 0x25 DUP4 EQ ISZERO PUSH2 0x2683 JUMPI PUSH2 0x267C DUP3 PUSH1 0x1 PUSH1 0x63 DUP7 PUSH1 0x2 PUSH2 0x2DBA JUMP JUMPDEST SWAP1 POP PUSH2 0x287C JUMP JUMPDEST PUSH1 0x26 DUP4 EQ ISZERO PUSH2 0x26A3 JUMPI PUSH2 0x269C DUP3 PUSH1 0x1 PUSH1 0x63 DUP7 PUSH1 0x3 PUSH2 0x2DBA JUMP JUMPDEST SWAP1 POP PUSH2 0x287C JUMP JUMPDEST PUSH1 0x27 DUP4 EQ ISZERO PUSH2 0x26C3 JUMPI PUSH2 0x26BC DUP3 PUSH1 0x0 PUSH1 0x11 DUP7 PUSH1 0x1 PUSH2 0x2DBA JUMP JUMPDEST SWAP1 POP PUSH2 0x287C JUMP JUMPDEST PUSH1 0x28 DUP4 EQ ISZERO PUSH2 0x26E3 JUMPI PUSH2 0x26DC DUP3 PUSH1 0x0 PUSH1 0x11 DUP7 PUSH1 0x2 PUSH2 0x2DBA JUMP JUMPDEST SWAP1 POP PUSH2 0x287C JUMP JUMPDEST PUSH1 0x29 DUP4 EQ ISZERO PUSH2 0x2703 JUMPI PUSH2 0x26FC DUP3 PUSH1 0x7 PUSH1 0x9 DUP7 PUSH1 0x1 PUSH2 0x2DBA JUMP JUMPDEST SWAP1 POP PUSH2 0x287C JUMP JUMPDEST PUSH1 0x2A DUP4 EQ ISZERO PUSH2 0x2723 JUMPI PUSH2 0x271C DUP3 PUSH1 0x7 PUSH1 0x9 DUP7 PUSH1 0x2 PUSH2 0x2DBA JUMP JUMPDEST SWAP1 POP PUSH2 0x287C JUMP JUMPDEST PUSH1 0x2B DUP4 EQ ISZERO PUSH2 0x2743 JUMPI PUSH2 0x273C DUP3 PUSH1 0x3 PUSH1 0x7 DUP7 PUSH1 0x1 PUSH2 0x2DBA JUMP JUMPDEST SWAP1 POP PUSH2 0x287C JUMP JUMPDEST PUSH1 0x2C DUP4 EQ ISZERO PUSH2 0x2763 JUMPI PUSH2 0x275C DUP3 PUSH1 0x3 PUSH1 0x7 DUP7 PUSH1 0x2 PUSH2 0x2DBA JUMP JUMPDEST SWAP1 POP PUSH2 0x287C JUMP JUMPDEST PUSH1 0x2D DUP4 EQ ISZERO PUSH2 0x2783 JUMPI PUSH2 0x277C DUP3 PUSH1 0x3 PUSH1 0x7 DUP7 PUSH1 0x3 PUSH2 0x2DBA JUMP JUMPDEST SWAP1 POP PUSH2 0x287C JUMP JUMPDEST PUSH1 0x2E DUP4 EQ ISZERO PUSH2 0x27A3 JUMPI PUSH2 0x279C DUP3 PUSH1 0xB PUSH1 0x3 DUP7 PUSH1 0x1 PUSH2 0x2DBA JUMP JUMPDEST SWAP1 POP PUSH2 0x287C JUMP JUMPDEST PUSH1 0x2F DUP4 EQ ISZERO PUSH2 0x27C3 JUMPI PUSH2 0x27BC DUP3 PUSH1 0xB PUSH1 0x3 DUP7 PUSH1 0x2 PUSH2 0x2DBA JUMP JUMPDEST SWAP1 POP PUSH2 0x287C JUMP JUMPDEST PUSH1 0x30 DUP4 EQ ISZERO PUSH2 0x27E3 JUMPI PUSH2 0x27DC DUP3 PUSH1 0xB PUSH1 0x7 DUP7 PUSH1 0x1 PUSH2 0x2DBA JUMP JUMPDEST SWAP1 POP PUSH2 0x287C JUMP JUMPDEST PUSH1 0x31 DUP4 EQ ISZERO PUSH2 0x2803 JUMPI PUSH2 0x27FC DUP3 PUSH1 0xB PUSH1 0x7 DUP7 PUSH1 0x3 PUSH2 0x2DBA JUMP JUMPDEST SWAP1 POP PUSH2 0x287C JUMP JUMPDEST PUSH1 0x32 DUP4 EQ ISZERO PUSH2 0x2823 JUMPI PUSH2 0x281C DUP3 PUSH1 0x8 PUSH1 0x63 DUP7 PUSH1 0x2 PUSH2 0x2DBA JUMP JUMPDEST SWAP1 POP PUSH2 0x287C JUMP JUMPDEST PUSH1 0x33 DUP4 EQ ISZERO PUSH2 0x2843 JUMPI PUSH2 0x283C DUP3 PUSH1 0x8 PUSH1 0x63 DUP7 PUSH1 0x3 PUSH2 0x2DBA JUMP JUMPDEST SWAP1 POP PUSH2 0x287C JUMP JUMPDEST PUSH1 0x34 DUP4 EQ ISZERO PUSH2 0x2863 JUMPI PUSH2 0x285C DUP3 PUSH1 0x0 PUSH1 0x63 DUP7 PUSH1 0x2 PUSH2 0x2DBA JUMP JUMPDEST SWAP1 POP PUSH2 0x287C JUMP JUMPDEST PUSH2 0x2879 DUP3 PUSH1 0x0 PUSH1 0x63 DUP7 PUSH2 0x2874 PUSH2 0x2ECE JUMP JUMPDEST PUSH2 0x2DBA JUMP JUMPDEST SWAP1 POP JUMPDEST SWAP3 SWAP2 POP POP JUMP JUMPDEST PUSH2 0x289C DUP3 DUP3 PUSH1 0x40 MLOAD DUP1 PUSH1 0x20 ADD PUSH1 0x40 MSTORE DUP1 PUSH1 0x0 DUP2 MSTORE POP PUSH2 0x2EEB JUMP JUMPDEST POP POP JUMP JUMPDEST DUP2 PUSH20 0xFFFFFFFFFFFFFFFFFFFFFFFFFFFFFFFFFFFFFFFF AND DUP4 PUSH20 0xFFFFFFFFFFFFFFFFFFFFFFFFFFFFFFFFFFFFFFFF AND EQ ISZERO PUSH2 0x290F JUMPI PUSH1 0x40 MLOAD PUSH32 0x8C379A000000000000000000000000000000000000000000000000000000000 DUP2 MSTORE PUSH1 0x4 ADD PUSH2 0x2906 SWAP1 PUSH2 0x42D8 JUMP JUMPDEST PUSH1 0x40 MLOAD DUP1 SWAP2 SUB SWAP1 REVERT JUMPDEST DUP1 PUSH1 0x5 PUSH1 0x0 DUP6 PUSH20 0xFFFFFFFFFFFFFFFFFFFFFFFFFFFFFFFFFFFFFFFF AND PUSH20 0xFFFFFFFFFFFFFFFFFFFFFFFFFFFFFFFFFFFFFFFF AND DUP2 MSTORE PUSH1 0x20 ADD SWAP1 DUP2 MSTORE PUSH1 0x20 ADD PUSH1 0x0 KECCAK256 PUSH1 0x0 DUP5 PUSH20 0xFFFFFFFFFFFFFFFFFFFFFFFFFFFFFFFFFFFFFFFF AND PUSH20 0xFFFFFFFFFFFFFFFFFFFFFFFFFFFFFFFFFFFFFFFF AND DUP2 MSTORE PUSH1 0x20 ADD SWAP1 DUP2 MSTORE PUSH1 0x20 ADD PUSH1 0x0 KECCAK256 PUSH1 0x0 PUSH2 0x100 EXP DUP2 SLOAD DUP2 PUSH1 0xFF MUL NOT AND SWAP1 DUP4 ISZERO ISZERO MUL OR SWAP1 SSTORE POP DUP2 PUSH20 0xFFFFFFFFFFFFFFFFFFFFFFFFFFFFFFFFFFFFFFFF AND DUP4 PUSH20 0xFFFFFFFFFFFFFFFFFFFFFFFFFFFFFFFFFFFFFFFF AND PUSH32 0x17307EAB39AB6107E8899845AD3D59BD9653F200F220920489CA2B5937696C31 DUP4 PUSH1 0x40 MLOAD PUSH2 0x2A00 SWAP2 SWAP1 PUSH2 0x418F JUMP JUMPDEST PUSH1 0x40 MLOAD DUP1 SWAP2 SUB SWAP1 LOG3 POP POP POP JUMP JUMPDEST PUSH2 0x2A18 DUP5 DUP5 DUP5 PUSH2 0x1E6C JUMP JUMPDEST PUSH2 0x2A24 DUP5 DUP5 DUP5 DUP5 PUSH2 0x2F46 JUMP JUMPDEST PUSH2 0x2A63 JUMPI PUSH1 0x40 MLOAD PUSH32 0x8C379A000000000000000000000000000000000000000000000000000000000 DUP2 MSTORE PUSH1 0x4 ADD PUSH2 0x2A5A SWAP1 PUSH2 0x4258 JUMP JUMPDEST PUSH1 0x40 MLOAD DUP1 SWAP2 SUB SWAP1 REVERT JUMPDEST POP POP POP POP JUMP JUMPDEST PUSH1 0x60 PUSH1 0x40 MLOAD DUP1 PUSH1 0x20 ADD PUSH1 0x40 MSTORE DUP1 PUSH1 0x0 DUP2 MSTORE POP SWAP1 POP SWAP1 JUMP JUMPDEST PUSH1 0x60 PUSH1 0x0 DUP3 EQ ISZERO PUSH2 0x2AC8 JUMPI PUSH1 0x40 MLOAD DUP1 PUSH1 0x40 ADD PUSH1 0x40 MSTORE DUP1 PUSH1 0x1 DUP2 MSTORE PUSH1 0x20 ADD PUSH32 0x3000000000000000000000000000000000000000000000000000000000000000 DUP2 MSTORE POP SWAP1 POP PUSH2 0x2BDC JUMP JUMPDEST PUSH1 0x0 DUP3 SWAP1 POP PUSH1 0x0 JUMPDEST PUSH1 0x0 DUP3 EQ PUSH2 0x2AFA JUMPI DUP1 DUP1 PUSH2 0x2AE3 SWAP1 PUSH2 0x498D JUMP JUMPDEST SWAP2 POP POP PUSH1 0xA DUP3 PUSH2 0x2AF3 SWAP2 SWAP1 PUSH2 0x47BD JUMP JUMPDEST SWAP2 POP PUSH2 0x2AD0 JUMP JUMPDEST PUSH1 0x0 DUP2 PUSH8 0xFFFFFFFFFFFFFFFF DUP2 GT ISZERO PUSH2 0x2B16 JUMPI PUSH2 0x2B15 PUSH2 0x4AFC JUMP JUMPDEST JUMPDEST PUSH1 0x40 MLOAD SWAP1 DUP1 DUP3 MSTORE DUP1 PUSH1 0x1F ADD PUSH1 0x1F NOT AND PUSH1 0x20 ADD DUP3 ADD PUSH1 0x40 MSTORE DUP1 ISZERO PUSH2 0x2B48 JUMPI DUP2 PUSH1 0x20 ADD PUSH1 0x1 DUP3 MUL DUP1 CALLDATASIZE DUP4 CALLDATACOPY DUP1 DUP3 ADD SWAP2 POP POP SWAP1 POP JUMPDEST POP SWAP1 POP JUMPDEST PUSH1 0x0 DUP6 EQ PUSH2 0x2BD5 JUMPI PUSH1 0x1 DUP3 PUSH2 0x2B61 SWAP2 SWAP1 PUSH2 0x47EE JUMP JUMPDEST SWAP2 POP PUSH1 0xA DUP6 PUSH2 0x2B70 SWAP2 SWAP1 PUSH2 0x49E0 JUMP JUMPDEST PUSH1 0x30 PUSH2 0x2B7C SWAP2 SWAP1 PUSH2 0x4767 JUMP JUMPDEST PUSH1 0xF8 SHL DUP2 DUP4 DUP2 MLOAD DUP2 LT PUSH2 0x2B92 JUMPI PUSH2 0x2B91 PUSH2 0x4ACD JUMP JUMPDEST JUMPDEST PUSH1 0x20 ADD ADD SWAP1 PUSH31 0xFFFFFFFFFFFFFFFFFFFFFFFFFFFFFFFFFFFFFFFFFFFFFFFFFFFFFFFFFFFFFF NOT AND SWAP1 DUP2 PUSH1 0x0 BYTE SWAP1 MSTORE8 POP PUSH1 0xA DUP6 PUSH2 0x2BCE SWAP2 SWAP1 PUSH2 0x47BD JUMP JUMPDEST SWAP5 POP PUSH2 0x2B4C JUMP JUMPDEST DUP1 SWAP4 POP POP POP POP JUMPDEST SWAP2 SWAP1 POP JUMP JUMPDEST PUSH1 0x0 PUSH32 0x80AC58CD00000000000000000000000000000000000000000000000000000000 PUSH28 0xFFFFFFFFFFFFFFFFFFFFFFFFFFFFFFFFFFFFFFFFFFFFFFFFFFFFFFFF NOT AND DUP3 PUSH28 0xFFFFFFFFFFFFFFFFFFFFFFFFFFFFFFFFFFFFFFFFFFFFFFFFFFFFFFFF NOT AND EQ DUP1 PUSH2 0x2CAC JUMPI POP PUSH32 0x5B5E139F00000000000000000000000000000000000000000000000000000000 PUSH28 0xFFFFFFFFFFFFFFFFFFFFFFFFFFFFFFFFFFFFFFFFFFFFFFFFFFFFFFFF NOT AND DUP3 PUSH28 0xFFFFFFFFFFFFFFFFFFFFFFFFFFFFFFFFFFFFFFFFFFFFFFFFFFFFFFFF NOT AND EQ JUMPDEST DUP1 PUSH2 0x2CBC JUMPI POP PUSH2 0x2CBB DUP3 PUSH2 0x30DD JUMP JUMPDEST JUMPDEST SWAP1 POP SWAP2 SWAP1 POP JUMP JUMPDEST PUSH2 0x2CCE DUP4 DUP4 DUP4 PUSH2 0x3147 JUMP JUMPDEST POP POP POP JUMP JUMPDEST POP POP POP JUMP JUMPDEST PUSH1 0x0 PUSH2 0x2CE4 PUSH1 0x11 PUSH2 0x325B JUMP JUMPDEST SWAP1 POP SWAP1 JUMP JUMPDEST PUSH1 0x0 PUSH1 0x28 PUSH2 0x2CF7 PUSH1 0x32 PUSH2 0x325B JUMP JUMPDEST PUSH2 0x2D01 SWAP2 SWAP1 PUSH2 0x4767 JUMP JUMPDEST SWAP1 POP SWAP1 JUMP JUMPDEST PUSH2 0x2D0E PUSH2 0x37D0 JUMP JUMPDEST PUSH1 0x40 MLOAD DUP1 PUSH2 0x180 ADD PUSH1 0x40 MSTORE DUP1 DUP15 DUP2 MSTORE PUSH1 0x20 ADD PUSH2 0x2D28 PUSH2 0x32B7 JUMP JUMPDEST DUP15 PUSH2 0x2D33 SWAP2 SWAP1 PUSH2 0x4767 JUMP JUMPDEST DUP2 MSTORE PUSH1 0x20 ADD PUSH2 0x2D40 PUSH2 0x32B7 JUMP JUMPDEST DUP14 PUSH2 0x2D4B SWAP2 SWAP1 PUSH2 0x4767 JUMP JUMPDEST DUP2 MSTORE PUSH1 0x20 ADD PUSH2 0x2D58 PUSH2 0x32B7 JUMP JUMPDEST DUP13 PUSH2 0x2D63 SWAP2 SWAP1 PUSH2 0x4767 JUMP JUMPDEST DUP2 MSTORE PUSH1 0x20 ADD PUSH2 0x2D70 PUSH2 0x32B7 JUMP JUMPDEST DUP12 PUSH2 0x2D7B SWAP2 SWAP1 PUSH2 0x4767 JUMP JUMPDEST DUP2 MSTORE PUSH1 0x20 ADD DUP10 DUP2 MSTORE PUSH1 0x20 ADD DUP9 DUP2 MSTORE PUSH1 0x20 ADD DUP8 DUP2 MSTORE PUSH1 0x20 ADD DUP7 DUP2 MSTORE PUSH1 0x20 ADD DUP6 DUP2 MSTORE PUSH1 0x20 ADD DUP5 DUP2 MSTORE PUSH1 0x20 ADD DUP4 DUP2 MSTORE POP SWAP1 POP SWAP13 SWAP12 POP POP POP POP POP POP POP POP POP POP POP POP JUMP JUMPDEST PUSH2 0x2DC2 PUSH2 0x37D0 JUMP JUMPDEST PUSH1 0x0 PUSH1 0x64 SWAP1 POP PUSH1 0x2 DUP4 EQ ISZERO PUSH2 0x2DE1 JUMPI PUSH1 0x14 DUP2 PUSH2 0x2DDE SWAP2 SWAP1 PUSH2 0x4767 JUMP JUMPDEST SWAP1 POP JUMPDEST PUSH1 0x3 DUP4 EQ ISZERO PUSH2 0x2DFA JUMPI PUSH1 0x32 DUP2 PUSH2 0x2DF7 SWAP2 SWAP1 PUSH2 0x4767 JUMP JUMPDEST SWAP1 POP JUMPDEST PUSH1 0x4 DUP4 EQ ISZERO PUSH2 0x2E13 JUMPI PUSH1 0x46 DUP2 PUSH2 0x2E10 SWAP2 SWAP1 PUSH2 0x4767 JUMP JUMPDEST SWAP1 POP JUMPDEST PUSH1 0x40 MLOAD DUP1 PUSH2 0x180 ADD PUSH1 0x40 MSTORE DUP1 DUP9 DUP2 MSTORE PUSH1 0x20 ADD PUSH2 0x2E2D PUSH2 0x32B7 JUMP JUMPDEST DUP4 PUSH2 0x2E38 SWAP2 SWAP1 PUSH2 0x4767 JUMP JUMPDEST DUP2 MSTORE PUSH1 0x20 ADD PUSH2 0x2E45 PUSH2 0x32B7 JUMP JUMPDEST DUP4 PUSH2 0x2E50 SWAP2 SWAP1 PUSH2 0x4767 JUMP JUMPDEST DUP2 MSTORE PUSH1 0x20 ADD PUSH2 0x2E5D PUSH2 0x32B7 JUMP JUMPDEST DUP4 PUSH2 0x2E68 SWAP2 SWAP1 PUSH2 0x4767 JUMP JUMPDEST DUP2 MSTORE PUSH1 0x20 ADD PUSH2 0x2E75 PUSH2 0x32B7 JUMP JUMPDEST DUP4 PUSH2 0x2E80 SWAP2 SWAP1 PUSH2 0x4767 JUMP JUMPDEST DUP2 MSTORE PUSH1 0x20 ADD DUP8 DUP2 MSTORE PUSH1 0x20 ADD DUP7 DUP2 MSTORE PUSH1 0x20 ADD DUP8 DUP2 MSTORE PUSH1 0x20 ADD PUSH2 0x2E9F PUSH2 0x2CE9 JUMP JUMPDEST DUP2 MSTORE PUSH1 0x20 ADD PUSH2 0x2EAC PUSH2 0x2CD8 JUMP JUMPDEST DUP2 MSTORE PUSH1 0x20 ADD PUSH2 0x2EB9 PUSH2 0x2CE9 JUMP JUMPDEST DUP2 MSTORE PUSH1 0x20 ADD DUP6 DUP2 MSTORE POP SWAP2 POP POP SWAP6 SWAP5 POP POP POP POP POP JUMP JUMPDEST PUSH1 0x0 PUSH1 0x1 PUSH2 0x2EDC PUSH1 0x2 PUSH2 0x325B JUMP JUMPDEST PUSH2 0x2EE6 SWAP2 SWAP1 PUSH2 0x4767 JUMP JUMPDEST SWAP1 POP SWAP1 JUMP JUMPDEST PUSH2 0x2EF5 DUP4 DUP4 PUSH2 0x32C8 JUMP JUMPDEST PUSH2 0x2F02 PUSH1 0x0 DUP5 DUP5 DUP5 PUSH2 0x2F46 JUMP JUMPDEST PUSH2 0x2F41 JUMPI PUSH1 0x40 MLOAD PUSH32 0x8C379A000000000000000000000000000000000000000000000000000000000 DUP2 MSTORE PUSH1 0x4 ADD PUSH2 0x2F38 SWAP1 PUSH2 0x4258 JUMP JUMPDEST PUSH1 0x40 MLOAD DUP1 SWAP2 SUB SWAP1 REVERT JUMPDEST POP POP POP JUMP JUMPDEST PUSH1 0x0 PUSH2 0x2F67 DUP5 PUSH20 0xFFFFFFFFFFFFFFFFFFFFFFFFFFFFFFFFFFFFFFFF AND PUSH2 0x34A2 JUMP JUMPDEST ISZERO PUSH2 0x30D0 JUMPI DUP4 PUSH20 0xFFFFFFFFFFFFFFFFFFFFFFFFFFFFFFFFFFFFFFFF AND PUSH4 0x150B7A02 PUSH2 0x2F90 PUSH2 0x1CCD JUMP JUMPDEST DUP8 DUP7 DUP7 PUSH1 0x40 MLOAD DUP6 PUSH4 0xFFFFFFFF AND PUSH1 0xE0 SHL DUP2 MSTORE PUSH1 0x4 ADD PUSH2 0x2FB2 SWAP5 SWAP4 SWAP3 SWAP2 SWAP1 PUSH2 0x4143 JUMP JUMPDEST PUSH1 0x20 PUSH1 0x40 MLOAD DUP1 DUP4 SUB DUP2 PUSH1 0x0 DUP8 DUP1 EXTCODESIZE ISZERO DUP1 ISZERO PUSH2 0x2FCC JUMPI PUSH1 0x0 DUP1 REVERT JUMPDEST POP GAS CALL SWAP3 POP POP POP DUP1 ISZERO PUSH2 0x2FFD JUMPI POP PUSH1 0x40 MLOAD RETURNDATASIZE PUSH1 0x1F NOT PUSH1 0x1F DUP3 ADD AND DUP3 ADD DUP1 PUSH1 0x40 MSTORE POP DUP2 ADD SWAP1 PUSH2 0x2FFA SWAP2 SWAP1 PUSH2 0x3B3C JUMP JUMPDEST PUSH1 0x1 JUMPDEST PUSH2 0x3080 JUMPI RETURNDATASIZE DUP1 PUSH1 0x0 DUP2 EQ PUSH2 0x302D JUMPI PUSH1 0x40 MLOAD SWAP2 POP PUSH1 0x1F NOT PUSH1 0x3F RETURNDATASIZE ADD AND DUP3 ADD PUSH1 0x40 MSTORE RETURNDATASIZE DUP3 MSTORE RETURNDATASIZE PUSH1 0x0 PUSH1 0x20 DUP5 ADD RETURNDATACOPY PUSH2 0x3032 JUMP JUMPDEST PUSH1 0x60 SWAP2 POP JUMPDEST POP PUSH1 0x0 DUP2 MLOAD EQ ISZERO PUSH2 0x3078 JUMPI PUSH1 0x40 MLOAD PUSH32 0x8C379A000000000000000000000000000000000000000000000000000000000 DUP2 MSTORE PUSH1 0x4 ADD PUSH2 0x306F SWAP1 PUSH2 0x4258 JUMP JUMPDEST PUSH1 0x40 MLOAD DUP1 SWAP2 SUB SWAP1 REVERT JUMPDEST DUP1 MLOAD DUP2 PUSH1 0x20 ADD REVERT JUMPDEST PUSH4 0x150B7A02 PUSH1 0xE0 SHL PUSH28 0xFFFFFFFFFFFFFFFFFFFFFFFFFFFFFFFFFFFFFFFFFFFFFFFFFFFFFFFF NOT AND DUP2 PUSH28 0xFFFFFFFFFFFFFFFFFFFFFFFFFFFFFFFFFFFFFFFFFFFFFFFFFFFFFFFF NOT AND EQ SWAP2 POP POP PUSH2 0x30D5 JUMP JUMPDEST PUSH1 0x1 SWAP1 POP JUMPDEST SWAP5 SWAP4 POP POP POP POP JUMP JUMPDEST PUSH1 0x0 PUSH32 0x1FFC9A700000000000000000000000000000000000000000000000000000000 PUSH28 0xFFFFFFFFFFFFFFFFFFFFFFFFFFFFFFFFFFFFFFFFFFFFFFFFFFFFFFFF NOT AND DUP3 PUSH28 0xFFFFFFFFFFFFFFFFFFFFFFFFFFFFFFFFFFFFFFFFFFFFFFFFFFFFFFFF NOT AND EQ SWAP1 POP SWAP2 SWAP1 POP JUMP JUMPDEST PUSH2 0x3152 DUP4 DUP4 DUP4 PUSH2 0x34C5 JUMP JUMPDEST PUSH1 0x0 PUSH20 0xFFFFFFFFFFFFFFFFFFFFFFFFFFFFFFFFFFFFFFFF AND DUP4 PUSH20 0xFFFFFFFFFFFFFFFFFFFFFFFFFFFFFFFFFFFFFFFF AND EQ ISZERO PUSH2 0x3195 JUMPI PUSH2 0x3190 DUP2 PUSH2 0x34CA JUMP JUMPDEST PUSH2 0x31D4 JUMP JUMPDEST DUP2 PUSH20 0xFFFFFFFFFFFFFFFFFFFFFFFFFFFFFFFFFFFFFFFF AND DUP4 PUSH20 0xFFFFFFFFFFFFFFFFFFFFFFFFFFFFFFFFFFFFFFFF AND EQ PUSH2 0x31D3 JUMPI PUSH2 0x31D2 DUP4 DUP3 PUSH2 0x3513 JUMP JUMPDEST JUMPDEST JUMPDEST PUSH1 0x0 PUSH20 0xFFFFFFFFFFFFFFFFFFFFFFFFFFFFFFFFFFFFFFFF AND DUP3 PUSH20 0xFFFFFFFFFFFFFFFFFFFFFFFFFFFFFFFFFFFFFFFF AND EQ ISZERO PUSH2 0x3217 JUMPI PUSH2 0x3212 DUP2 PUSH2 0x3680 JUMP JUMPDEST PUSH2 0x3256 JUMP JUMPDEST DUP3 PUSH20 0xFFFFFFFFFFFFFFFFFFFFFFFFFFFFFFFFFFFFFFFF AND DUP3 PUSH20 0xFFFFFFFFFFFFFFFFFFFFFFFFFFFFFFFFFFFFFFFF AND EQ PUSH2 0x3255 JUMPI PUSH2 0x3254 DUP3 DUP3 PUSH2 0x3751 JUMP JUMPDEST JUMPDEST JUMPDEST POP POP POP JUMP JUMPDEST PUSH1 0x0 PUSH1 0xB PUSH1 0x0 DUP2 SLOAD DUP1 SWAP3 SWAP2 SWAP1 PUSH2 0x3270 SWAP1 PUSH2 0x498D JUMP JUMPDEST SWAP2 SWAP1 POP SSTORE POP DUP2 DIFFICULTY TIMESTAMP PUSH1 0xB SLOAD PUSH1 0x40 MLOAD PUSH1 0x20 ADD PUSH2 0x328D SWAP4 SWAP3 SWAP2 SWAP1 PUSH2 0x40EB JUMP JUMPDEST PUSH1 0x40 MLOAD PUSH1 0x20 DUP2 DUP4 SUB SUB DUP2 MSTORE SWAP1 PUSH1 0x40 MSTORE DUP1 MLOAD SWAP1 PUSH1 0x20 ADD KECCAK256 PUSH1 0x0 SHR PUSH2 0x32B0 SWAP2 SWAP1 PUSH2 0x49E0 JUMP JUMPDEST SWAP1 POP SWAP2 SWAP1 POP JUMP JUMPDEST PUSH1 0x0 PUSH2 0x32C3 PUSH1 0x14 PUSH2 0x325B JUMP JUMPDEST SWAP1 POP SWAP1 JUMP JUMPDEST PUSH1 0x0 PUSH20 0xFFFFFFFFFFFFFFFFFFFFFFFFFFFFFFFFFFFFFFFF AND DUP3 PUSH20 0xFFFFFFFFFFFFFFFFFFFFFFFFFFFFFFFFFFFFFFFF AND EQ ISZERO PUSH2 0x3338 JUMPI PUSH1 0x40 MLOAD PUSH32 0x8C379A000000000000000000000000000000000000000000000000000000000 DUP2 MSTORE PUSH1 0x4 ADD PUSH2 0x332F SWAP1 PUSH2 0x4378 JUMP JUMPDEST PUSH1 0x40 MLOAD DUP1 SWAP2 SUB SWAP1 REVERT JUMPDEST PUSH2 0x3341 DUP2 PUSH2 0x1C61 JUMP JUMPDEST ISZERO PUSH2 0x3381 JUMPI PUSH1 0x40 MLOAD PUSH32 0x8C379A000000000000000000000000000000000000000000000000000000000 DUP2 MSTORE PUSH1 0x4 ADD PUSH2 0x3378 SWAP1 PUSH2 0x4298 JUMP JUMPDEST PUSH1 0x40 MLOAD DUP1 SWAP2 SUB SWAP1 REVERT JUMPDEST PUSH2 0x338D PUSH1 0x0 DUP4 DUP4 PUSH2 0x2CC3 JUMP JUMPDEST PUSH1 0x1 PUSH1 0x3 PUSH1 0x0 DUP5 PUSH20 0xFFFFFFFFFFFFFFFFFFFFFFFFFFFFFFFFFFFFFFFF AND PUSH20 0xFFFFFFFFFFFFFFFFFFFFFFFFFFFFFFFFFFFFFFFF AND DUP2 MSTORE PUSH1 0x20 ADD SWAP1 DUP2 MSTORE PUSH1 0x20 ADD PUSH1 0x0 KECCAK256 PUSH1 0x0 DUP3 DUP3 SLOAD PUSH2 0x33DD SWAP2 SWAP1 PUSH2 0x4767 JUMP JUMPDEST SWAP3 POP POP DUP2 SWAP1 SSTORE POP DUP2 PUSH1 0x2 PUSH1 0x0 DUP4 DUP2 MSTORE PUSH1 0x20 ADD SWAP1 DUP2 MSTORE PUSH1 0x20 ADD PUSH1 0x0 KECCAK256 PUSH1 0x0 PUSH2 0x100 EXP DUP2 SLOAD DUP2 PUSH20 0xFFFFFFFFFFFFFFFFFFFFFFFFFFFFFFFFFFFFFFFF MUL NOT AND SWAP1 DUP4 PUSH20 0xFFFFFFFFFFFFFFFFFFFFFFFFFFFFFFFFFFFFFFFF AND MUL OR SWAP1 SSTORE POP DUP1 DUP3 PUSH20 0xFFFFFFFFFFFFFFFFFFFFFFFFFFFFFFFFFFFFFFFF AND PUSH1 0x0 PUSH20 0xFFFFFFFFFFFFFFFFFFFFFFFFFFFFFFFFFFFFFFFF AND PUSH32 0xDDF252AD1BE2C89B69C2B068FC378DAA952BA7F163C4A11628F55A4DF523B3EF PUSH1 0x40 MLOAD PUSH1 0x40 MLOAD DUP1 SWAP2 SUB SWAP1 LOG4 PUSH2 0x349E PUSH1 0x0 DUP4 DUP4 PUSH2 0x2CD3 JUMP JUMPDEST POP POP JUMP JUMPDEST PUSH1 0x0 DUP1 DUP3 PUSH20 0xFFFFFFFFFFFFFFFFFFFFFFFFFFFFFFFFFFFFFFFF AND EXTCODESIZE GT SWAP1 POP SWAP2 SWAP1 POP JUMP JUMPDEST POP POP POP JUMP JUMPDEST PUSH1 0x8 DUP1 SLOAD SWAP1 POP PUSH1 0x9 PUSH1 0x0 DUP4 DUP2 MSTORE PUSH1 0x20 ADD SWAP1 DUP2 MSTORE PUSH1 0x20 ADD PUSH1 0x0 KECCAK256 DUP2 SWAP1 SSTORE POP PUSH1 0x8 DUP2 SWAP1 DUP1 PUSH1 0x1 DUP2 SLOAD ADD DUP1 DUP3 SSTORE DUP1 SWAP2 POP POP PUSH1 0x1 SWAP1 SUB SWAP1 PUSH1 0x0 MSTORE PUSH1 0x20 PUSH1 0x0 KECCAK256 ADD PUSH1 0x0 SWAP1 SWAP2 SWAP1 SWAP2 SWAP1 SWAP2 POP SSTORE POP JUMP JUMPDEST PUSH1 0x0 PUSH1 0x1 PUSH2 0x3520 DUP5 PUSH2 0xB6C JUMP JUMPDEST PUSH2 0x352A SWAP2 SWAP1 PUSH2 0x47EE JUMP JUMPDEST SWAP1 POP PUSH1 0x0 PUSH1 0x7 PUSH1 0x0 DUP5 DUP2 MSTORE PUSH1 0x20 ADD SWAP1 DUP2 MSTORE PUSH1 0x20 ADD PUSH1 0x0 KECCAK256 SLOAD SWAP1 POP DUP2 DUP2 EQ PUSH2 0x360F JUMPI PUSH1 0x0 PUSH1 0x6 PUSH1 0x0 DUP7 PUSH20 0xFFFFFFFFFFFFFFFFFFFFFFFFFFFFFFFFFFFFFFFF AND PUSH20 0xFFFFFFFFFFFFFFFFFFFFFFFFFFFFFFFFFFFFFFFF AND DUP2 MSTORE PUSH1 0x20 ADD SWAP1 DUP2 MSTORE PUSH1 0x20 ADD PUSH1 0x0 KECCAK256 PUSH1 0x0 DUP5 DUP2 MSTORE PUSH1 0x20 ADD SWAP1 DUP2 MSTORE PUSH1 0x20 ADD PUSH1 0x0 KECCAK256 SLOAD SWAP1 POP DUP1 PUSH1 0x6 PUSH1 0x0 DUP8 PUSH20 0xFFFFFFFFFFFFFFFFFFFFFFFFFFFFFFFFFFFFFFFF AND PUSH20 0xFFFFFFFFFFFFFFFFFFFFFFFFFFFFFFFFFFFFFFFF AND DUP2 MSTORE PUSH1 0x20 ADD SWAP1 DUP2 MSTORE PUSH1 0x20 ADD PUSH1 0x0 KECCAK256 PUSH1 0x0 DUP5 DUP2 MSTORE PUSH1 0x20 ADD SWAP1 DUP2 MSTORE PUSH1 0x20 ADD PUSH1 0x0 KECCAK256 DUP2 SWAP1 SSTORE POP DUP2 PUSH1 0x7 PUSH1 0x0 DUP4 DUP2 MSTORE PUSH1 0x20 ADD SWAP1 DUP2 MSTORE PUSH1 0x20 ADD PUSH1 0x0 KECCAK256 DUP2 SWAP1 SSTORE POP POP JUMPDEST PUSH1 0x7 PUSH1 0x0 DUP5 DUP2 MSTORE PUSH1 0x20 ADD SWAP1 DUP2 MSTORE PUSH1 0x20 ADD PUSH1 0x0 KECCAK256 PUSH1 0x0 SWAP1 SSTORE PUSH1 0x6 PUSH1 0x0 DUP6 PUSH20 0xFFFFFFFFFFFFFFFFFFFFFFFFFFFFFFFFFFFFFFFF AND PUSH20 0xFFFFFFFFFFFFFFFFFFFFFFFFFFFFFFFFFFFFFFFF AND DUP2 MSTORE PUSH1 0x20 ADD SWAP1 DUP2 MSTORE PUSH1 0x20 ADD PUSH1 0x0 KECCAK256 PUSH1 0x0 DUP4 DUP2 MSTORE PUSH1 0x20 ADD SWAP1 DUP2 MSTORE PUSH1 0x20 ADD PUSH1 0x0 KECCAK256 PUSH1 0x0 SWAP1 SSTORE POP POP POP POP JUMP JUMPDEST PUSH1 0x0 PUSH1 0x1 PUSH1 0x8 DUP1 SLOAD SWAP1 POP PUSH2 0x3694 SWAP2 SWAP1 PUSH2 0x47EE JUMP JUMPDEST SWAP1 POP PUSH1 0x0 PUSH1 0x9 PUSH1 0x0 DUP5 DUP2 MSTORE PUSH1 0x20 ADD SWAP1 DUP2 MSTORE PUSH1 0x20 ADD PUSH1 0x0 KECCAK256 SLOAD SWAP1 POP PUSH1 0x0 PUSH1 0x8 DUP4 DUP2 SLOAD DUP2 LT PUSH2 0x36C4 JUMPI PUSH2 0x36C3 PUSH2 0x4ACD JUMP JUMPDEST JUMPDEST SWAP1 PUSH1 0x0 MSTORE PUSH1 0x20 PUSH1 0x0 KECCAK256 ADD SLOAD SWAP1 POP DUP1 PUSH1 0x8 DUP4 DUP2 SLOAD DUP2 LT PUSH2 0x36E6 JUMPI PUSH2 0x36E5 PUSH2 0x4ACD JUMP JUMPDEST JUMPDEST SWAP1 PUSH1 0x0 MSTORE PUSH1 0x20 PUSH1 0x0 KECCAK256 ADD DUP2 SWAP1 SSTORE POP DUP2 PUSH1 0x9 PUSH1 0x0 DUP4 DUP2 MSTORE PUSH1 0x20 ADD SWAP1 DUP2 MSTORE PUSH1 0x20 ADD PUSH1 0x0 KECCAK256 DUP2 SWAP1 SSTORE POP PUSH1 0x9 PUSH1 0x0 DUP6 DUP2 MSTORE PUSH1 0x20 ADD SWAP1 DUP2 MSTORE PUSH1 0x20 ADD PUSH1 0x0 KECCAK256 PUSH1 0x0 SWAP1 SSTORE PUSH1 0x8 DUP1 SLOAD DUP1 PUSH2 0x3735 JUMPI PUSH2 0x3734 PUSH2 0x4A9E JUMP JUMPDEST JUMPDEST PUSH1 0x1 SWAP1 SUB DUP2 DUP2 SWAP1 PUSH1 0x0 MSTORE PUSH1 0x20 PUSH1 0x0 KECCAK256 ADD PUSH1 0x0 SWAP1 SSTORE SWAP1 SSTORE POP POP POP POP JUMP JUMPDEST PUSH1 0x0 PUSH2 0x375C DUP4 PUSH2 0xB6C JUMP JUMPDEST SWAP1 POP DUP2 PUSH1 0x6 PUSH1 0x0 DUP6 PUSH20 0xFFFFFFFFFFFFFFFFFFFFFFFFFFFFFFFFFFFFFFFF AND PUSH20 0xFFFFFFFFFFFFFFFFFFFFFFFFFFFFFFFFFFFFFFFF AND DUP2 MSTORE PUSH1 0x20 ADD SWAP1 DUP2 MSTORE PUSH1 0x20 ADD PUSH1 0x0 KECCAK256 PUSH1 0x0 DUP4 DUP2 MSTORE PUSH1 0x20 ADD SWAP1 DUP2 MSTORE PUSH1 0x20 ADD PUSH1 0x0 KECCAK256 DUP2 SWAP1 SSTORE POP DUP1 PUSH1 0x7 PUSH1 0x0 DUP5 DUP2 MSTORE PUSH1 0x20 ADD SWAP1 DUP2 MSTORE PUSH1 0x20 ADD PUSH1 0x0 KECCAK256 DUP2 SWAP1 SSTORE POP POP POP POP JUMP JUMPDEST PUSH1 0x40 MLOAD DUP1 PUSH2 0x180 ADD PUSH1 0x40 MSTORE DUP1 PUSH1 0x0 DUP2 MSTORE PUSH1 0x20 ADD PUSH1 0x0 DUP2 MSTORE PUSH1 0x20 ADD PUSH1 0x0 DUP2 MSTORE PUSH1 0x20 ADD PUSH1 0x0 DUP2 MSTORE PUSH1 0x20 ADD PUSH1 0x0 DUP2 MSTORE PUSH1 0x20 ADD PUSH1 0x0 DUP2 MSTORE PUSH1 0x20 ADD PUSH1 0x0 DUP2 MSTORE PUSH1 0x20 ADD PUSH1 0x0 DUP2 MSTORE PUSH1 0x20 ADD PUSH1 0x0 DUP2 MSTORE PUSH1 0x20 ADD PUSH1 0x0 DUP2 MSTORE PUSH1 0x20 ADD PUSH1 0x0 DUP2 MSTORE PUSH1 0x20 ADD PUSH1 0x0 DUP2 MSTORE POP SWAP1 JUMP JUMPDEST PUSH1 0x0 PUSH2 0x3844 PUSH2 0x383F DUP5 PUSH2 0x46BA JUMP JUMPDEST PUSH2 0x4695 JUMP JUMPDEST SWAP1 POP DUP3 DUP2 MSTORE PUSH1 0x20 DUP2 ADD DUP5 DUP5 DUP5 ADD GT ISZERO PUSH2 0x3860 JUMPI PUSH2 0x385F PUSH2 0x4B30 JUMP JUMPDEST JUMPDEST PUSH2 0x386B DUP5 DUP3 DUP6 PUSH2 0x48E8 JUMP JUMPDEST POP SWAP4 SWAP3 POP POP POP JUMP JUMPDEST PUSH1 0x0 DUP2 CALLDATALOAD SWAP1 POP PUSH2 0x3882 DUP2 PUSH2 0x501D JUMP JUMPDEST SWAP3 SWAP2 POP POP JUMP JUMPDEST PUSH1 0x0 DUP2 CALLDATALOAD SWAP1 POP PUSH2 0x3897 DUP2 PUSH2 0x5034 JUMP JUMPDEST SWAP3 SWAP2 POP POP JUMP JUMPDEST PUSH1 0x0 DUP2 MLOAD SWAP1 POP PUSH2 0x38AC DUP2 PUSH2 0x504B JUMP JUMPDEST SWAP3 SWAP2 POP POP JUMP JUMPDEST PUSH1 0x0 DUP2 CALLDATALOAD SWAP1 POP PUSH2 0x38C1 DUP2 PUSH2 0x5062 JUMP JUMPDEST SWAP3 SWAP2 POP POP JUMP JUMPDEST PUSH1 0x0 DUP2 MLOAD SWAP1 POP PUSH2 0x38D6 DUP2 PUSH2 0x5062 JUMP JUMPDEST SWAP3 SWAP2 POP POP JUMP JUMPDEST PUSH1 0x0 DUP3 PUSH1 0x1F DUP4 ADD SLT PUSH2 0x38F1 JUMPI PUSH2 0x38F0 PUSH2 0x4B2B JUMP JUMPDEST JUMPDEST DUP2 CALLDATALOAD PUSH2 0x3901 DUP5 DUP3 PUSH1 0x20 DUP7 ADD PUSH2 0x3831 JUMP JUMPDEST SWAP2 POP POP SWAP3 SWAP2 POP POP JUMP JUMPDEST PUSH1 0x0 DUP2 CALLDATALOAD SWAP1 POP PUSH2 0x3919 DUP2 PUSH2 0x5079 JUMP JUMPDEST SWAP3 SWAP2 POP POP JUMP JUMPDEST PUSH1 0x0 PUSH1 0x20 DUP3 DUP5 SUB SLT ISZERO PUSH2 0x3935 JUMPI PUSH2 0x3934 PUSH2 0x4B3A JUMP JUMPDEST JUMPDEST PUSH1 0x0 PUSH2 0x3943 DUP5 DUP3 DUP6 ADD PUSH2 0x3873 JUMP JUMPDEST SWAP2 POP POP SWAP3 SWAP2 POP POP JUMP JUMPDEST PUSH1 0x0 DUP1 PUSH1 0x40 DUP4 DUP6 SUB SLT ISZERO PUSH2 0x3963 JUMPI PUSH2 0x3962 PUSH2 0x4B3A JUMP JUMPDEST JUMPDEST PUSH1 0x0 PUSH2 0x3971 DUP6 DUP3 DUP7 ADD PUSH2 0x3873 JUMP JUMPDEST SWAP3 POP POP PUSH1 0x20 PUSH2 0x3982 DUP6 DUP3 DUP7 ADD PUSH2 0x3873 JUMP JUMPDEST SWAP2 POP POP SWAP3 POP SWAP3 SWAP1 POP JUMP JUMPDEST PUSH1 0x0 DUP1 PUSH1 0x0 PUSH1 0x60 DUP5 DUP7 SUB SLT ISZERO PUSH2 0x39A5 JUMPI PUSH2 0x39A4 PUSH2 0x4B3A JUMP JUMPDEST JUMPDEST PUSH1 0x0 PUSH2 0x39B3 DUP7 DUP3 DUP8 ADD PUSH2 0x3873 JUMP JUMPDEST SWAP4 POP POP PUSH1 0x20 PUSH2 0x39C4 DUP7 DUP3 DUP8 ADD PUSH2 0x3873 JUMP JUMPDEST SWAP3 POP POP PUSH1 0x40 PUSH2 0x39D5 DUP7 DUP3 DUP8 ADD PUSH2 0x390A JUMP JUMPDEST SWAP2 POP POP SWAP3 POP SWAP3 POP SWAP3 JUMP JUMPDEST PUSH1 0x0 DUP1 PUSH1 0x0 DUP1 PUSH1 0x80 DUP6 DUP8 SUB SLT ISZERO PUSH2 0x39F9 JUMPI PUSH2 0x39F8 PUSH2 0x4B3A JUMP JUMPDEST JUMPDEST PUSH1 0x0 PUSH2 0x3A07 DUP8 DUP3 DUP9 ADD PUSH2 0x3873 JUMP JUMPDEST SWAP5 POP POP PUSH1 0x20 PUSH2 0x3A18 DUP8 DUP3 DUP9 ADD PUSH2 0x3873 JUMP JUMPDEST SWAP4 POP POP PUSH1 0x40 PUSH2 0x3A29 DUP8 DUP3 DUP9 ADD PUSH2 0x390A JUMP JUMPDEST SWAP3 POP POP PUSH1 0x60 DUP6 ADD CALLDATALOAD PUSH8 0xFFFFFFFFFFFFFFFF DUP2 GT ISZERO PUSH2 0x3A4A JUMPI PUSH2 0x3A49 PUSH2 0x4B35 JUMP JUMPDEST JUMPDEST PUSH2 0x3A56 DUP8 DUP3 DUP9 ADD PUSH2 0x38DC JUMP JUMPDEST SWAP2 POP POP SWAP3 SWAP6 SWAP2 SWAP5 POP SWAP3 POP JUMP JUMPDEST PUSH1 0x0 DUP1 PUSH1 0x40 DUP4 DUP6 SUB SLT ISZERO PUSH2 0x3A79 JUMPI PUSH2 0x3A78 PUSH2 0x4B3A JUMP JUMPDEST JUMPDEST PUSH1 0x0 PUSH2 0x3A87 DUP6 DUP3 DUP7 ADD PUSH2 0x3873 JUMP JUMPDEST SWAP3 POP POP PUSH1 0x20 PUSH2 0x3A98 DUP6 DUP3 DUP7 ADD PUSH2 0x3888 JUMP JUMPDEST SWAP2 POP POP SWAP3 POP SWAP3 SWAP1 POP JUMP JUMPDEST PUSH1 0x0 DUP1 PUSH1 0x40 DUP4 DUP6 SUB SLT ISZERO PUSH2 0x3AB9 JUMPI PUSH2 0x3AB8 PUSH2 0x4B3A JUMP JUMPDEST JUMPDEST PUSH1 0x0 PUSH2 0x3AC7 DUP6 DUP3 DUP7 ADD PUSH2 0x3873 JUMP JUMPDEST SWAP3 POP POP PUSH1 0x20 PUSH2 0x3AD8 DUP6 DUP3 DUP7 ADD PUSH2 0x390A JUMP JUMPDEST SWAP2 POP POP SWAP3 POP SWAP3 SWAP1 POP JUMP JUMPDEST PUSH1 0x0 PUSH1 0x20 DUP3 DUP5 SUB SLT ISZERO PUSH2 0x3AF8 JUMPI PUSH2 0x3AF7 PUSH2 0x4B3A JUMP JUMPDEST JUMPDEST PUSH1 0x0 PUSH2 0x3B06 DUP5 DUP3 DUP6 ADD PUSH2 0x389D JUMP JUMPDEST SWAP2 POP POP SWAP3 SWAP2 POP POP JUMP JUMPDEST PUSH1 0x0 PUSH1 0x20 DUP3 DUP5 SUB SLT ISZERO PUSH2 0x3B25 JUMPI PUSH2 0x3B24 PUSH2 0x4B3A JUMP JUMPDEST JUMPDEST PUSH1 0x0 PUSH2 0x3B33 DUP5 DUP3 DUP6 ADD PUSH2 0x38B2 JUMP JUMPDEST SWAP2 POP POP SWAP3 SWAP2 POP POP JUMP JUMPDEST PUSH1 0x0 PUSH1 0x20 DUP3 DUP5 SUB SLT ISZERO PUSH2 0x3B52 JUMPI PUSH2 0x3B51 PUSH2 0x4B3A JUMP JUMPDEST JUMPDEST PUSH1 0x0 PUSH2 0x3B60 DUP5 DUP3 DUP6 ADD PUSH2 0x38C7 JUMP JUMPDEST SWAP2 POP POP SWAP3 SWAP2 POP POP JUMP JUMPDEST PUSH1 0x0 PUSH1 0x20 DUP3 DUP5 SUB SLT ISZERO PUSH2 0x3B7F JUMPI PUSH2 0x3B7E PUSH2 0x4B3A JUMP JUMPDEST JUMPDEST PUSH1 0x0 PUSH2 0x3B8D DUP5 DUP3 DUP6 ADD PUSH2 0x390A JUMP JUMPDEST SWAP2 POP POP SWAP3 SWAP2 POP POP JUMP JUMPDEST PUSH1 0x0 DUP1 PUSH1 0x40 DUP4 DUP6 SUB SLT ISZERO PUSH2 0x3BAD JUMPI PUSH2 0x3BAC PUSH2 0x4B3A JUMP JUMPDEST JUMPDEST PUSH1 0x0 PUSH2 0x3BBB DUP6 DUP3 DUP7 ADD PUSH2 0x390A JUMP JUMPDEST SWAP3 POP POP PUSH1 0x20 PUSH2 0x3BCC DUP6 DUP3 DUP7 ADD PUSH2 0x390A JUMP JUMPDEST SWAP2 POP POP SWAP3 POP SWAP3 SWAP1 POP JUMP JUMPDEST PUSH1 0x0 PUSH2 0x3BE2 DUP4 DUP4 PUSH2 0x4092 JUMP JUMPDEST PUSH1 0x20 DUP4 ADD SWAP1 POP SWAP3 SWAP2 POP POP JUMP JUMPDEST PUSH2 0x3BF7 DUP2 PUSH2 0x4822 JUMP JUMPDEST DUP3 MSTORE POP POP JUMP JUMPDEST PUSH1 0x0 PUSH2 0x3C08 DUP3 PUSH2 0x46FB JUMP JUMPDEST PUSH2 0x3C12 DUP2 DUP6 PUSH2 0x4729 JUMP JUMPDEST SWAP4 POP PUSH2 0x3C1D DUP4 PUSH2 0x46EB JUMP JUMPDEST DUP1 PUSH1 0x0 JUMPDEST DUP4 DUP2 LT ISZERO PUSH2 0x3C4E JUMPI DUP2 MLOAD PUSH2 0x3C35 DUP9 DUP3 PUSH2 0x3BD6 JUMP JUMPDEST SWAP8 POP PUSH2 0x3C40 DUP4 PUSH2 0x471C JUMP JUMPDEST SWAP3 POP POP PUSH1 0x1 DUP2 ADD SWAP1 POP PUSH2 0x3C21 JUMP JUMPDEST POP DUP6 SWAP4 POP POP POP POP SWAP3 SWAP2 POP POP JUMP JUMPDEST PUSH2 0x3C64 DUP2 PUSH2 0x4834 JUMP JUMPDEST DUP3 MSTORE POP POP JUMP JUMPDEST PUSH1 0x0 PUSH2 0x3C75 DUP3 PUSH2 0x4706 JUMP JUMPDEST PUSH2 0x3C7F DUP2 DUP6 PUSH2 0x473A JUMP JUMPDEST SWAP4 POP PUSH2 0x3C8F DUP2 DUP6 PUSH1 0x20 DUP7 ADD PUSH2 0x48F7 JUMP JUMPDEST PUSH2 0x3C98 DUP2 PUSH2 0x4B3F JUMP JUMPDEST DUP5 ADD SWAP2 POP POP SWAP3 SWAP2 POP POP JUMP JUMPDEST PUSH2 0x3CAC DUP2 PUSH2 0x48A0 JUMP JUMPDEST DUP3 MSTORE POP POP JUMP JUMPDEST PUSH2 0x3CBB DUP2 PUSH2 0x48B2 JUMP JUMPDEST DUP3 MSTORE POP POP JUMP JUMPDEST PUSH2 0x3CCA DUP2 PUSH2 0x48C4 JUMP JUMPDEST DUP3 MSTORE POP POP JUMP JUMPDEST PUSH2 0x3CD9 DUP2 PUSH2 0x48D6 JUMP JUMPDEST DUP3 MSTORE POP POP JUMP JUMPDEST PUSH1 0x0 PUSH2 0x3CEA DUP3 PUSH2 0x4711 JUMP JUMPDEST PUSH2 0x3CF4 DUP2 DUP6 PUSH2 0x474B JUMP JUMPDEST SWAP4 POP PUSH2 0x3D04 DUP2 DUP6 PUSH1 0x20 DUP7 ADD PUSH2 0x48F7 JUMP JUMPDEST PUSH2 0x3D0D DUP2 PUSH2 0x4B3F JUMP JUMPDEST DUP5 ADD SWAP2 POP POP SWAP3 SWAP2 POP POP JUMP JUMPDEST PUSH1 0x0 PUSH2 0x3D23 DUP3 PUSH2 0x4711 JUMP JUMPDEST PUSH2 0x3D2D DUP2 DUP6 PUSH2 0x475C JUMP JUMPDEST SWAP4 POP PUSH2 0x3D3D DUP2 DUP6 PUSH1 0x20 DUP7 ADD PUSH2 0x48F7 JUMP JUMPDEST DUP1 DUP5 ADD SWAP2 POP POP SWAP3 SWAP2 POP POP JUMP JUMPDEST PUSH1 0x0 PUSH2 0x3D56 PUSH1 0x2B DUP4 PUSH2 0x474B JUMP JUMPDEST SWAP2 POP PUSH2 0x3D61 DUP3 PUSH2 0x4B50 JUMP JUMPDEST PUSH1 0x40 DUP3 ADD SWAP1 POP SWAP2 SWAP1 POP JUMP JUMPDEST PUSH1 0x0 PUSH2 0x3D79 PUSH1 0x32 DUP4 PUSH2 0x474B JUMP JUMPDEST SWAP2 POP PUSH2 0x3D84 DUP3 PUSH2 0x4B9F JUMP JUMPDEST PUSH1 0x40 DUP3 ADD SWAP1 POP SWAP2 SWAP1 POP JUMP JUMPDEST PUSH1 0x0 PUSH2 0x3D9C PUSH1 0x25 DUP4 PUSH2 0x474B JUMP JUMPDEST SWAP2 POP PUSH2 0x3DA7 DUP3 PUSH2 0x4BEE JUMP JUMPDEST PUSH1 0x40 DUP3 ADD SWAP1 POP SWAP2 SWAP1 POP JUMP JUMPDEST PUSH1 0x0 PUSH2 0x3DBF PUSH1 0x1C DUP4 PUSH2 0x474B JUMP JUMPDEST SWAP2 POP PUSH2 0x3DCA DUP3 PUSH2 0x4C3D JUMP JUMPDEST PUSH1 0x20 DUP3 ADD SWAP1 POP SWAP2 SWAP1 POP JUMP JUMPDEST PUSH1 0x0 PUSH2 0x3DE2 PUSH1 0x24 DUP4 PUSH2 0x474B JUMP JUMPDEST SWAP2 POP PUSH2 0x3DED DUP3 PUSH2 0x4C66 JUMP JUMPDEST PUSH1 0x40 DUP3 ADD SWAP1 POP SWAP2 SWAP1 POP JUMP JUMPDEST PUSH1 0x0 PUSH2 0x3E05 PUSH1 0x19 DUP4 PUSH2 0x474B JUMP JUMPDEST SWAP2 POP PUSH2 0x3E10 DUP3 PUSH2 0x4CB5 JUMP JUMPDEST PUSH1 0x20 DUP3 ADD SWAP1 POP SWAP2 SWAP1 POP JUMP JUMPDEST PUSH1 0x0 PUSH2 0x3E28 PUSH1 0x2C DUP4 PUSH2 0x474B JUMP JUMPDEST SWAP2 POP PUSH2 0x3E33 DUP3 PUSH2 0x4CDE JUMP JUMPDEST PUSH1 0x40 DUP3 ADD SWAP1 POP SWAP2 SWAP1 POP JUMP JUMPDEST PUSH1 0x0 PUSH2 0x3E4B PUSH1 0x38 DUP4 PUSH2 0x474B JUMP JUMPDEST SWAP2 POP PUSH2 0x3E56 DUP3 PUSH2 0x4D2D JUMP JUMPDEST PUSH1 0x40 DUP3 ADD SWAP1 POP SWAP2 SWAP1 POP JUMP JUMPDEST PUSH1 0x0 PUSH2 0x3E6E PUSH1 0x2A DUP4 PUSH2 0x474B JUMP JUMPDEST SWAP2 POP PUSH2 0x3E79 DUP3 PUSH2 0x4D7C JUMP JUMPDEST PUSH1 0x40 DUP3 ADD SWAP1 POP SWAP2 SWAP1 POP JUMP JUMPDEST PUSH1 0x0 PUSH2 0x3E91 PUSH1 0x29 DUP4 PUSH2 0x474B JUMP JUMPDEST SWAP2 POP PUSH2 0x3E9C DUP3 PUSH2 0x4DCB JUMP JUMPDEST PUSH1 0x40 DUP3 ADD SWAP1 POP SWAP2 SWAP1 POP JUMP JUMPDEST PUSH1 0x0 PUSH2 0x3EB4 PUSH1 0x20 DUP4 PUSH2 0x474B JUMP JUMPDEST SWAP2 POP PUSH2 0x3EBF DUP3 PUSH2 0x4E1A JUMP JUMPDEST PUSH1 0x20 DUP3 ADD SWAP1 POP SWAP2 SWAP1 POP JUMP JUMPDEST PUSH1 0x0 PUSH2 0x3ED7 PUSH1 0x2C DUP4 PUSH2 0x474B JUMP JUMPDEST SWAP2 POP PUSH2 0x3EE2 DUP3 PUSH2 0x4E43 JUMP JUMPDEST PUSH1 0x40 DUP3 ADD SWAP1 POP SWAP2 SWAP1 POP JUMP JUMPDEST PUSH1 0x0 PUSH2 0x3EFA PUSH1 0x2F DUP4 PUSH2 0x474B JUMP JUMPDEST SWAP2 POP PUSH2 0x3F05 DUP3 PUSH2 0x4E92 JUMP JUMPDEST PUSH1 0x40 DUP3 ADD SWAP1 POP SWAP2 SWAP1 POP JUMP JUMPDEST PUSH1 0x0 PUSH2 0x3F1D PUSH1 0x21 DUP4 PUSH2 0x474B JUMP JUMPDEST SWAP2 POP PUSH2 0x3F28 DUP3 PUSH2 0x4EE1 JUMP JUMPDEST PUSH1 0x40 DUP3 ADD SWAP1 POP SWAP2 SWAP1 POP JUMP JUMPDEST PUSH1 0x0 PUSH2 0x3F40 PUSH1 0x31 DUP4 PUSH2 0x474B JUMP JUMPDEST SWAP2 POP PUSH2 0x3F4B DUP3 PUSH2 0x4F30 JUMP JUMPDEST PUSH1 0x40 DUP3 ADD SWAP1 POP SWAP2 SWAP1 POP JUMP JUMPDEST PUSH1 0x0 PUSH2 0x3F63 PUSH1 0x31 DUP4 PUSH2 0x474B JUMP JUMPDEST SWAP2 POP PUSH2 0x3F6E DUP3 PUSH2 0x4F7F JUMP JUMPDEST PUSH1 0x40 DUP3 ADD SWAP1 POP SWAP2 SWAP1 POP JUMP JUMPDEST PUSH1 0x0 PUSH2 0x3F86 PUSH1 0x2C DUP4 PUSH2 0x474B JUMP JUMPDEST SWAP2 POP PUSH2 0x3F91 DUP3 PUSH2 0x4FCE JUMP JUMPDEST PUSH1 0x40 DUP3 ADD SWAP1 POP SWAP2 SWAP1 POP JUMP JUMPDEST PUSH2 0x180 DUP3 ADD PUSH1 0x0 DUP3 ADD MLOAD PUSH2 0x3FB3 PUSH1 0x0 DUP6 ADD DUP3 PUSH2 0x4092 JUMP JUMPDEST POP PUSH1 0x20 DUP3 ADD MLOAD PUSH2 0x3FC6 PUSH1 0x20 DUP6 ADD DUP3 PUSH2 0x4092 JUMP JUMPDEST POP PUSH1 0x40 DUP3 ADD MLOAD PUSH2 0x3FD9 PUSH1 0x40 DUP6 ADD DUP3 PUSH2 0x4092 JUMP JUMPDEST POP PUSH1 0x60 DUP3 ADD MLOAD PUSH2 0x3FEC PUSH1 0x60 DUP6 ADD DUP3 PUSH2 0x4092 JUMP JUMPDEST POP PUSH1 0x80 DUP3 ADD MLOAD PUSH2 0x3FFF PUSH1 0x80 DUP6 ADD DUP3 PUSH2 0x4092 JUMP JUMPDEST POP PUSH1 0xA0 DUP3 ADD MLOAD PUSH2 0x4012 PUSH1 0xA0 DUP6 ADD DUP3 PUSH2 0x4092 JUMP JUMPDEST POP PUSH1 0xC0 DUP3 ADD MLOAD PUSH2 0x4025 PUSH1 0xC0 DUP6 ADD DUP3 PUSH2 0x4092 JUMP JUMPDEST POP PUSH1 0xE0 DUP3 ADD MLOAD PUSH2 0x4038 PUSH1 0xE0 DUP6 ADD DUP3 PUSH2 0x4092 JUMP JUMPDEST POP PUSH2 0x100 DUP3 ADD MLOAD PUSH2 0x404D PUSH2 0x100 DUP6 ADD DUP3 PUSH2 0x4092 JUMP JUMPDEST POP PUSH2 0x120 DUP3 ADD MLOAD PUSH2 0x4062 PUSH2 0x120 DUP6 ADD DUP3 PUSH2 0x4092 JUMP JUMPDEST POP PUSH2 0x140 DUP3 ADD MLOAD PUSH2 0x4077 PUSH2 0x140 DUP6 ADD DUP3 PUSH2 0x4092 JUMP JUMPDEST POP PUSH2 0x160 DUP3 ADD MLOAD PUSH2 0x408C PUSH2 0x160 DUP6 ADD DUP3 PUSH2 0x4092 JUMP JUMPDEST POP POP POP POP JUMP JUMPDEST PUSH2 0x409B DUP2 PUSH2 0x4896 JUMP JUMPDEST DUP3 MSTORE POP POP JUMP JUMPDEST PUSH2 0x40AA DUP2 PUSH2 0x4896 JUMP JUMPDEST DUP3 MSTORE POP POP JUMP JUMPDEST PUSH2 0x40C1 PUSH2 0x40BC DUP3 PUSH2 0x4896 JUMP JUMPDEST PUSH2 0x49D6 JUMP JUMPDEST DUP3 MSTORE POP POP JUMP JUMPDEST PUSH1 0x0 PUSH2 0x40D3 DUP3 DUP6 PUSH2 0x3D18 JUMP JUMPDEST SWAP2 POP PUSH2 0x40DF DUP3 DUP5 PUSH2 0x3D18 JUMP JUMPDEST SWAP2 POP DUP2 SWAP1 POP SWAP4 SWAP3 POP POP POP JUMP JUMPDEST PUSH1 0x0 PUSH2 0x40F7 DUP3 DUP7 PUSH2 0x40B0 JUMP JUMPDEST PUSH1 0x20 DUP3 ADD SWAP2 POP PUSH2 0x4107 DUP3 DUP6 PUSH2 0x40B0 JUMP JUMPDEST PUSH1 0x20 DUP3 ADD SWAP2 POP PUSH2 0x4117 DUP3 DUP5 PUSH2 0x40B0 JUMP JUMPDEST PUSH1 0x20 DUP3 ADD SWAP2 POP DUP2 SWAP1 POP SWAP5 SWAP4 POP POP POP POP JUMP JUMPDEST PUSH1 0x0 PUSH1 0x20 DUP3 ADD SWAP1 POP PUSH2 0x413D PUSH1 0x0 DUP4 ADD DUP5 PUSH2 0x3BEE JUMP JUMPDEST SWAP3 SWAP2 POP POP JUMP JUMPDEST PUSH1 0x0 PUSH1 0x80 DUP3 ADD SWAP1 POP PUSH2 0x4158 PUSH1 0x0 DUP4 ADD DUP8 PUSH2 0x3BEE JUMP JUMPDEST PUSH2 0x4165 PUSH1 0x20 DUP4 ADD DUP7 PUSH2 0x3BEE JUMP JUMPDEST PUSH2 0x4172 PUSH1 0x40 DUP4 ADD DUP6 PUSH2 0x40A1 JUMP JUMPDEST DUP2 DUP2 SUB PUSH1 0x60 DUP4 ADD MSTORE PUSH2 0x4184 DUP2 DUP5 PUSH2 0x3C6A JUMP JUMPDEST SWAP1 POP SWAP6 SWAP5 POP POP POP POP POP JUMP JUMPDEST PUSH1 0x0 PUSH1 0x20 DUP3 ADD SWAP1 POP PUSH2 0x41A4 PUSH1 0x0 DUP4 ADD DUP5 PUSH2 0x3C5B JUMP JUMPDEST SWAP3 SWAP2 POP POP JUMP JUMPDEST PUSH1 0x0 PUSH1 0x20 DUP3 ADD SWAP1 POP PUSH2 0x41BF PUSH1 0x0 DUP4 ADD DUP5 PUSH2 0x3CA3 JUMP JUMPDEST SWAP3 SWAP2 POP POP JUMP JUMPDEST PUSH1 0x0 PUSH1 0x20 DUP3 ADD SWAP1 POP PUSH2 0x41DA PUSH1 0x0 DUP4 ADD DUP5 PUSH2 0x3CB2 JUMP JUMPDEST SWAP3 SWAP2 POP POP JUMP JUMPDEST PUSH1 0x0 PUSH1 0x20 DUP3 ADD SWAP1 POP PUSH2 0x41F5 PUSH1 0x0 DUP4 ADD DUP5 PUSH2 0x3CC1 JUMP JUMPDEST SWAP3 SWAP2 POP POP JUMP JUMPDEST PUSH1 0x0 PUSH1 0x20 DUP3 ADD SWAP1 POP PUSH2 0x4210 PUSH1 0x0 DUP4 ADD DUP5 PUSH2 0x3CD0 JUMP JUMPDEST SWAP3 SWAP2 POP POP JUMP JUMPDEST PUSH1 0x0 PUSH1 0x20 DUP3 ADD SWAP1 POP DUP2 DUP2 SUB PUSH1 0x0 DUP4 ADD MSTORE PUSH2 0x4230 DUP2 DUP5 PUSH2 0x3CDF JUMP JUMPDEST SWAP1 POP SWAP3 SWAP2 POP POP JUMP JUMPDEST PUSH1 0x0 PUSH1 0x20 DUP3 ADD SWAP1 POP DUP2 DUP2 SUB PUSH1 0x0 DUP4 ADD MSTORE PUSH2 0x4251 DUP2 PUSH2 0x3D49 JUMP JUMPDEST SWAP1 POP SWAP2 SWAP1 POP JUMP JUMPDEST PUSH1 0x0 PUSH1 0x20 DUP3 ADD SWAP1 POP DUP2 DUP2 SUB PUSH1 0x0 DUP4 ADD MSTORE PUSH2 0x4271 DUP2 PUSH2 0x3D6C JUMP JUMPDEST SWAP1 POP SWAP2 SWAP1 POP JUMP JUMPDEST PUSH1 0x0 PUSH1 0x20 DUP3 ADD SWAP1 POP DUP2 DUP2 SUB PUSH1 0x0 DUP4 ADD MSTORE PUSH2 0x4291 DUP2 PUSH2 0x3D8F JUMP JUMPDEST SWAP1 POP SWAP2 SWAP1 POP JUMP JUMPDEST PUSH1 0x0 PUSH1 0x20 DUP3 ADD SWAP1 POP DUP2 DUP2 SUB PUSH1 0x0 DUP4 ADD MSTORE PUSH2 0x42B1 DUP2 PUSH2 0x3DB2 JUMP JUMPDEST SWAP1 POP SWAP2 SWAP1 POP JUMP JUMPDEST PUSH1 0x0 PUSH1 0x20 DUP3 ADD SWAP1 POP DUP2 DUP2 SUB PUSH1 0x0 DUP4 ADD MSTORE PUSH2 0x42D1 DUP2 PUSH2 0x3DD5 JUMP JUMPDEST SWAP1 POP SWAP2 SWAP1 POP JUMP JUMPDEST PUSH1 0x0 PUSH1 0x20 DUP3 ADD SWAP1 POP DUP2 DUP2 SUB PUSH1 0x0 DUP4 ADD MSTORE PUSH2 0x42F1 DUP2 PUSH2 0x3DF8 JUMP JUMPDEST SWAP1 POP SWAP2 SWAP1 POP JUMP JUMPDEST PUSH1 0x0 PUSH1 0x20 DUP3 ADD SWAP1 POP DUP2 DUP2 SUB PUSH1 0x0 DUP4 ADD MSTORE PUSH2 0x4311 DUP2 PUSH2 0x3E1B JUMP JUMPDEST SWAP1 POP SWAP2 SWAP1 POP JUMP JUMPDEST PUSH1 0x0 PUSH1 0x20 DUP3 ADD SWAP1 POP DUP2 DUP2 SUB PUSH1 0x0 DUP4 ADD MSTORE PUSH2 0x4331 DUP2 PUSH2 0x3E3E JUMP JUMPDEST SWAP1 POP SWAP2 SWAP1 POP JUMP JUMPDEST PUSH1 0x0 PUSH1 0x20 DUP3 ADD SWAP1 POP DUP2 DUP2 SUB PUSH1 0x0 DUP4 ADD MSTORE PUSH2 0x4351 DUP2 PUSH2 0x3E61 JUMP JUMPDEST SWAP1 POP SWAP2 SWAP1 POP JUMP JUMPDEST PUSH1 0x0 PUSH1 0x20 DUP3 ADD SWAP1 POP DUP2 DUP2 SUB PUSH1 0x0 DUP4 ADD MSTORE PUSH2 0x4371 DUP2 PUSH2 0x3E84 JUMP JUMPDEST SWAP1 POP SWAP2 SWAP1 POP JUMP JUMPDEST PUSH1 0x0 PUSH1 0x20 DUP3 ADD SWAP1 POP DUP2 DUP2 SUB PUSH1 0x0 DUP4 ADD MSTORE PUSH2 0x4391 DUP2 PUSH2 0x3EA7 JUMP JUMPDEST SWAP1 POP SWAP2 SWAP1 POP JUMP JUMPDEST PUSH1 0x0 PUSH1 0x20 DUP3 ADD SWAP1 POP DUP2 DUP2 SUB PUSH1 0x0 DUP4 ADD MSTORE PUSH2 0x43B1 DUP2 PUSH2 0x3ECA JUMP JUMPDEST SWAP1 POP SWAP2 SWAP1 POP JUMP JUMPDEST PUSH1 0x0 PUSH1 0x20 DUP3 ADD SWAP1 POP DUP2 DUP2 SUB PUSH1 0x0 DUP4 ADD MSTORE PUSH2 0x43D1 DUP2 PUSH2 0x3EED JUMP JUMPDEST SWAP1 POP SWAP2 SWAP1 POP JUMP JUMPDEST PUSH1 0x0 PUSH1 0x20 DUP3 ADD SWAP1 POP DUP2 DUP2 SUB PUSH1 0x0 DUP4 ADD MSTORE PUSH2 0x43F1 DUP2 PUSH2 0x3F10 JUMP JUMPDEST SWAP1 POP SWAP2 SWAP1 POP JUMP JUMPDEST PUSH1 0x0 PUSH1 0x20 DUP3 ADD SWAP1 POP DUP2 DUP2 SUB PUSH1 0x0 DUP4 ADD MSTORE PUSH2 0x4411 DUP2 PUSH2 0x3F33 JUMP JUMPDEST SWAP1 POP SWAP2 SWAP1 POP JUMP JUMPDEST PUSH1 0x0 PUSH1 0x20 DUP3 ADD SWAP1 POP DUP2 DUP2 SUB PUSH1 0x0 DUP4 ADD MSTORE PUSH2 0x4431 DUP2 PUSH2 0x3F56 JUMP JUMPDEST SWAP1 POP SWAP2 SWAP1 POP JUMP JUMPDEST PUSH1 0x0 PUSH1 0x20 DUP3 ADD SWAP1 POP DUP2 DUP2 SUB PUSH1 0x0 DUP4 ADD MSTORE PUSH2 0x4451 DUP2 PUSH2 0x3F79 JUMP JUMPDEST SWAP1 POP SWAP2 SWAP1 POP JUMP JUMPDEST PUSH1 0x0 PUSH2 0x300 DUP3 ADD SWAP1 POP PUSH2 0x446E PUSH1 0x0 DUP4 ADD DUP6 PUSH2 0x3F9C JUMP JUMPDEST PUSH2 0x447C PUSH2 0x180 DUP4 ADD DUP5 PUSH2 0x3F9C JUMP JUMPDEST SWAP4 SWAP3 POP POP POP JUMP JUMPDEST PUSH1 0x0 PUSH1 0x20 DUP3 ADD SWAP1 POP PUSH2 0x4498 PUSH1 0x0 DUP4 ADD DUP5 PUSH2 0x40A1 JUMP JUMPDEST SWAP3 SWAP2 POP POP JUMP JUMPDEST PUSH1 0x0 PUSH1 0x40 DUP3 ADD SWAP1 POP PUSH2 0x44B3 PUSH1 0x0 DUP4 ADD DUP6 PUSH2 0x40A1 JUMP JUMPDEST DUP2 DUP2 SUB PUSH1 0x20 DUP4 ADD MSTORE PUSH2 0x44C5 DUP2 DUP5 PUSH2 0x3BFD JUMP JUMPDEST SWAP1 POP SWAP4 SWAP3 POP POP POP JUMP JUMPDEST PUSH1 0x0 PUSH1 0x60 DUP3 ADD SWAP1 POP PUSH2 0x44E3 PUSH1 0x0 DUP4 ADD DUP7 PUSH2 0x40A1 JUMP JUMPDEST PUSH2 0x44F0 PUSH1 0x20 DUP4 ADD DUP6 PUSH2 0x40A1 JUMP JUMPDEST DUP2 DUP2 SUB PUSH1 0x40 DUP4 ADD MSTORE PUSH2 0x4502 DUP2 DUP5 PUSH2 0x3BFD JUMP JUMPDEST SWAP1 POP SWAP5 SWAP4 POP POP POP POP JUMP JUMPDEST PUSH1 0x0 PUSH1 0x60 DUP3 ADD SWAP1 POP PUSH2 0x4521 PUSH1 0x0 DUP4 ADD DUP7 PUSH2 0x40A1 JUMP JUMPDEST PUSH2 0x452E PUSH1 0x20 DUP4 ADD DUP6 PUSH2 0x40A1 JUMP JUMPDEST PUSH2 0x453B PUSH1 0x40 DUP4 ADD DUP5 PUSH2 0x40A1 JUMP JUMPDEST SWAP5 SWAP4 POP POP POP POP JUMP JUMPDEST PUSH1 0x0 PUSH1 0x80 DUP3 ADD SWAP1 POP PUSH2 0x4558 PUSH1 0x0 DUP4 ADD DUP8 PUSH2 0x40A1 JUMP JUMPDEST PUSH2 0x4565 PUSH1 0x20 DUP4 ADD DUP7 PUSH2 0x40A1 JUMP JUMPDEST PUSH2 0x4572 PUSH1 0x40 DUP4 ADD DUP6 PUSH2 0x40A1 JUMP JUMPDEST PUSH2 0x457F PUSH1 0x60 DUP4 ADD DUP5 PUSH2 0x40A1 JUMP JUMPDEST SWAP6 SWAP5 POP POP POP POP POP JUMP JUMPDEST PUSH1 0x0 PUSH1 0xA0 DUP3 ADD SWAP1 POP PUSH2 0x459D PUSH1 0x0 DUP4 ADD DUP9 PUSH2 0x40A1 JUMP JUMPDEST PUSH2 0x45AA PUSH1 0x20 DUP4 ADD DUP8 PUSH2 0x40A1 JUMP JUMPDEST PUSH2 0x45B7 PUSH1 0x40 DUP4 ADD DUP7 PUSH2 0x40A1 JUMP JUMPDEST PUSH2 0x45C4 PUSH1 0x60 DUP4 ADD DUP6 PUSH2 0x40A1 JUMP JUMPDEST PUSH2 0x45D1 PUSH1 0x80 DUP4 ADD DUP5 PUSH2 0x40A1 JUMP JUMPDEST SWAP7 SWAP6 POP POP POP POP POP POP JUMP JUMPDEST PUSH1 0x0 PUSH2 0x180 DUP3 ADD SWAP1 POP PUSH2 0x45F1 PUSH1 0x0 DUP4 ADD DUP16 PUSH2 0x40A1 JUMP JUMPDEST PUSH2 0x45FE PUSH1 0x20 DUP4 ADD DUP15 PUSH2 0x40A1 JUMP JUMPDEST PUSH2 0x460B PUSH1 0x40 DUP4 ADD DUP14 PUSH2 0x40A1 JUMP JUMPDEST PUSH2 0x4618 PUSH1 0x60 DUP4 ADD DUP13 PUSH2 0x40A1 JUMP JUMPDEST PUSH2 0x4625 PUSH1 0x80 DUP4 ADD DUP12 PUSH2 0x40A1 JUMP JUMPDEST PUSH2 0x4632 PUSH1 0xA0 DUP4 ADD DUP11 PUSH2 0x40A1 JUMP JUMPDEST PUSH2 0x463F PUSH1 0xC0 DUP4 ADD DUP10 PUSH2 0x40A1 JUMP JUMPDEST PUSH2 0x464C PUSH1 0xE0 DUP4 ADD DUP9 PUSH2 0x40A1 JUMP JUMPDEST PUSH2 0x465A PUSH2 0x100 DUP4 ADD DUP8 PUSH2 0x40A1 JUMP JUMPDEST PUSH2 0x4668 PUSH2 0x120 DUP4 ADD DUP7 PUSH2 0x40A1 JUMP JUMPDEST PUSH2 0x4676 PUSH2 0x140 DUP4 ADD DUP6 PUSH2 0x40A1 JUMP JUMPDEST PUSH2 0x4684 PUSH2 0x160 DUP4 ADD DUP5 PUSH2 0x40A1 JUMP JUMPDEST SWAP14 SWAP13 POP POP POP POP POP POP POP POP POP POP POP POP POP JUMP JUMPDEST PUSH1 0x0 PUSH2 0x469F PUSH2 0x46B0 JUMP JUMPDEST SWAP1 POP PUSH2 0x46AB DUP3 DUP3 PUSH2 0x495C JUMP JUMPDEST SWAP2 SWAP1 POP JUMP JUMPDEST PUSH1 0x0 PUSH1 0x40 MLOAD SWAP1 POP SWAP1 JUMP JUMPDEST PUSH1 0x0 PUSH8 0xFFFFFFFFFFFFFFFF DUP3 GT ISZERO PUSH2 0x46D5 JUMPI PUSH2 0x46D4 PUSH2 0x4AFC JUMP JUMPDEST JUMPDEST PUSH2 0x46DE DUP3 PUSH2 0x4B3F JUMP JUMPDEST SWAP1 POP PUSH1 0x20 DUP2 ADD SWAP1 POP SWAP2 SWAP1 POP JUMP JUMPDEST PUSH1 0x0 DUP2 SWAP1 POP PUSH1 0x20 DUP3 ADD SWAP1 POP SWAP2 SWAP1 POP JUMP JUMPDEST PUSH1 0x0 DUP2 MLOAD SWAP1 POP SWAP2 SWAP1 POP JUMP JUMPDEST PUSH1 0x0 DUP2 MLOAD SWAP1 POP SWAP2 SWAP1 POP JUMP JUMPDEST PUSH1 0x0 DUP2 MLOAD SWAP1 POP SWAP2 SWAP1 POP JUMP JUMPDEST PUSH1 0x0 PUSH1 0x20 DUP3 ADD SWAP1 POP SWAP2 SWAP1 POP JUMP JUMPDEST PUSH1 0x0 DUP3 DUP3 MSTORE PUSH1 0x20 DUP3 ADD SWAP1 POP SWAP3 SWAP2 POP POP JUMP JUMPDEST PUSH1 0x0 DUP3 DUP3 MSTORE PUSH1 0x20 DUP3 ADD SWAP1 POP SWAP3 SWAP2 POP POP JUMP JUMPDEST PUSH1 0x0 DUP3 DUP3 MSTORE PUSH1 0x20 DUP3 ADD SWAP1 POP SWAP3 SWAP2 POP POP JUMP JUMPDEST PUSH1 0x0 DUP2 SWAP1 POP SWAP3 SWAP2 POP POP JUMP JUMPDEST PUSH1 0x0 PUSH2 0x4772 DUP3 PUSH2 0x4896 JUMP JUMPDEST SWAP2 POP PUSH2 0x477D DUP4 PUSH2 0x4896 JUMP JUMPDEST SWAP3 POP DUP3 PUSH32 0xFFFFFFFFFFFFFFFFFFFFFFFFFFFFFFFFFFFFFFFFFFFFFFFFFFFFFFFFFFFFFFFF SUB DUP3 GT ISZERO PUSH2 0x47B2 JUMPI PUSH2 0x47B1 PUSH2 0x4A11 JUMP JUMPDEST JUMPDEST DUP3 DUP3 ADD SWAP1 POP SWAP3 SWAP2 POP POP JUMP JUMPDEST PUSH1 0x0 PUSH2 0x47C8 DUP3 PUSH2 0x4896 JUMP JUMPDEST SWAP2 POP PUSH2 0x47D3 DUP4 PUSH2 0x4896 JUMP JUMPDEST SWAP3 POP DUP3 PUSH2 0x47E3 JUMPI PUSH2 0x47E2 PUSH2 0x4A40 JUMP JUMPDEST JUMPDEST DUP3 DUP3 DIV SWAP1 POP SWAP3 SWAP2 POP POP JUMP JUMPDEST PUSH1 0x0 PUSH2 0x47F9 DUP3 PUSH2 0x4896 JUMP JUMPDEST SWAP2 POP PUSH2 0x4804 DUP4 PUSH2 0x4896 JUMP JUMPDEST SWAP3 POP DUP3 DUP3 LT ISZERO PUSH2 0x4817 JUMPI PUSH2 0x4816 PUSH2 0x4A11 JUMP JUMPDEST JUMPDEST DUP3 DUP3 SUB SWAP1 POP SWAP3 SWAP2 POP POP JUMP JUMPDEST PUSH1 0x0 PUSH2 0x482D DUP3 PUSH2 0x4876 JUMP JUMPDEST SWAP1 POP SWAP2 SWAP1 POP JUMP JUMPDEST PUSH1 0x0 DUP2 ISZERO ISZERO SWAP1 POP SWAP2 SWAP1 POP JUMP JUMPDEST PUSH1 0x0 DUP2 SWAP1 POP SWAP2 SWAP1 POP JUMP JUMPDEST PUSH1 0x0 PUSH32 0xFFFFFFFF00000000000000000000000000000000000000000000000000000000 DUP3 AND SWAP1 POP SWAP2 SWAP1 POP JUMP JUMPDEST PUSH1 0x0 PUSH20 0xFFFFFFFFFFFFFFFFFFFFFFFFFFFFFFFFFFFFFFFF DUP3 AND SWAP1 POP SWAP2 SWAP1 POP JUMP JUMPDEST PUSH1 0x0 DUP2 SWAP1 POP SWAP2 SWAP1 POP JUMP JUMPDEST PUSH1 0x0 PUSH2 0x48AB DUP3 PUSH2 0x4896 JUMP JUMPDEST SWAP1 POP SWAP2 SWAP1 POP JUMP JUMPDEST PUSH1 0x0 PUSH2 0x48BD DUP3 PUSH2 0x4896 JUMP JUMPDEST SWAP1 POP SWAP2 SWAP1 POP JUMP JUMPDEST PUSH1 0x0 PUSH2 0x48CF DUP3 PUSH2 0x4896 JUMP JUMPDEST SWAP1 POP SWAP2 SWAP1 POP JUMP JUMPDEST PUSH1 0x0 PUSH2 0x48E1 DUP3 PUSH2 0x4896 JUMP JUMPDEST SWAP1 POP SWAP2 SWAP1 POP JUMP JUMPDEST DUP3 DUP2 DUP4 CALLDATACOPY PUSH1 0x0 DUP4 DUP4 ADD MSTORE POP POP POP JUMP JUMPDEST PUSH1 0x0 JUMPDEST DUP4 DUP2 LT ISZERO PUSH2 0x4915 JUMPI DUP1 DUP3 ADD MLOAD DUP2 DUP5 ADD MSTORE PUSH1 0x20 DUP2 ADD SWAP1 POP PUSH2 0x48FA JUMP JUMPDEST DUP4 DUP2 GT ISZERO PUSH2 0x4924 JUMPI PUSH1 0x0 DUP5 DUP5 ADD MSTORE JUMPDEST POP POP POP POP JUMP JUMPDEST PUSH1 0x0 PUSH1 0x2 DUP3 DIV SWAP1 POP PUSH1 0x1 DUP3 AND DUP1 PUSH2 0x4942 JUMPI PUSH1 0x7F DUP3 AND SWAP2 POP JUMPDEST PUSH1 0x20 DUP3 LT DUP2 EQ ISZERO PUSH2 0x4956 JUMPI PUSH2 0x4955 PUSH2 0x4A6F JUMP JUMPDEST JUMPDEST POP SWAP2 SWAP1 POP JUMP JUMPDEST PUSH2 0x4965 DUP3 PUSH2 0x4B3F JUMP JUMPDEST DUP2 ADD DUP2 DUP2 LT PUSH8 0xFFFFFFFFFFFFFFFF DUP3 GT OR ISZERO PUSH2 0x4984 JUMPI PUSH2 0x4983 PUSH2 0x4AFC JUMP JUMPDEST JUMPDEST DUP1 PUSH1 0x40 MSTORE POP POP POP JUMP JUMPDEST PUSH1 0x0 PUSH2 0x4998 DUP3 PUSH2 0x4896 JUMP JUMPDEST SWAP2 POP PUSH32 0xFFFFFFFFFFFFFFFFFFFFFFFFFFFFFFFFFFFFFFFFFFFFFFFFFFFFFFFFFFFFFFFF DUP3 EQ ISZERO PUSH2 0x49CB JUMPI PUSH2 0x49CA PUSH2 0x4A11 JUMP JUMPDEST JUMPDEST PUSH1 0x1 DUP3 ADD SWAP1 POP SWAP2 SWAP1 POP JUMP JUMPDEST PUSH1 0x0 DUP2 SWAP1 POP SWAP2 SWAP1 POP JUMP JUMPDEST PUSH1 0x0 PUSH2 0x49EB DUP3 PUSH2 0x4896 JUMP JUMPDEST SWAP2 POP PUSH2 0x49F6 DUP4 PUSH2 0x4896 JUMP JUMPDEST SWAP3 POP DUP3 PUSH2 0x4A06 JUMPI PUSH2 0x4A05 PUSH2 0x4A40 JUMP JUMPDEST JUMPDEST DUP3 DUP3 MOD SWAP1 POP SWAP3 SWAP2 POP POP JUMP JUMPDEST PUSH32 0x4E487B7100000000000000000000000000000000000000000000000000000000 PUSH1 0x0 MSTORE PUSH1 0x11 PUSH1 0x4 MSTORE PUSH1 0x24 PUSH1 0x0 REVERT JUMPDEST PUSH32 0x4E487B7100000000000000000000000000000000000000000000000000000000 PUSH1 0x0 MSTORE PUSH1 0x12 PUSH1 0x4 MSTORE PUSH1 0x24 PUSH1 0x0 REVERT JUMPDEST PUSH32 0x4E487B7100000000000000000000000000000000000000000000000000000000 PUSH1 0x0 MSTORE PUSH1 0x22 PUSH1 0x4 MSTORE PUSH1 0x24 PUSH1 0x0 REVERT JUMPDEST PUSH32 0x4E487B7100000000000000000000000000000000000000000000000000000000 PUSH1 0x0 MSTORE PUSH1 0x31 PUSH1 0x4 MSTORE PUSH1 0x24 PUSH1 0x0 REVERT JUMPDEST PUSH32 0x4E487B7100000000000000000000000000000000000000000000000000000000 PUSH1 0x0 MSTORE PUSH1 0x32 PUSH1 0x4 MSTORE PUSH1 0x24 PUSH1 0x0 REVERT JUMPDEST PUSH32 0x4E487B7100000000000000000000000000000000000000000000000000000000 PUSH1 0x0 MSTORE PUSH1 0x41 PUSH1 0x4 MSTORE PUSH1 0x24 PUSH1 0x0 REVERT JUMPDEST PUSH1 0x0 DUP1 REVERT JUMPDEST PUSH1 0x0 DUP1 REVERT JUMPDEST PUSH1 0x0 DUP1 REVERT JUMPDEST PUSH1 0x0 DUP1 REVERT JUMPDEST PUSH1 0x0 PUSH1 0x1F NOT PUSH1 0x1F DUP4 ADD AND SWAP1 POP SWAP2 SWAP1 POP JUMP JUMPDEST PUSH32 0x455243373231456E756D657261626C653A206F776E657220696E646578206F75 PUSH1 0x0 DUP3 ADD MSTORE PUSH32 0x74206F6620626F756E6473000000000000000000000000000000000000000000 PUSH1 0x20 DUP3 ADD MSTORE POP JUMP JUMPDEST PUSH32 0x4552433732313A207472616E7366657220746F206E6F6E204552433732315265 PUSH1 0x0 DUP3 ADD MSTORE PUSH32 0x63656976657220696D706C656D656E7465720000000000000000000000000000 PUSH1 0x20 DUP3 ADD MSTORE POP JUMP JUMPDEST PUSH32 0x4552433732313A207472616E736665722066726F6D20696E636F727265637420 PUSH1 0x0 DUP3 ADD MSTORE PUSH32 0x6F776E6572000000000000000000000000000000000000000000000000000000 PUSH1 0x20 DUP3 ADD MSTORE POP JUMP JUMPDEST PUSH32 0x4552433732313A20746F6B656E20616C7265616479206D696E74656400000000 PUSH1 0x0 DUP3 ADD MSTORE POP JUMP JUMPDEST PUSH32 0x4552433732313A207472616E7366657220746F20746865207A65726F20616464 PUSH1 0x0 DUP3 ADD MSTORE PUSH32 0x7265737300000000000000000000000000000000000000000000000000000000 PUSH1 0x20 DUP3 ADD MSTORE POP JUMP JUMPDEST PUSH32 0x4552433732313A20617070726F766520746F2063616C6C657200000000000000 PUSH1 0x0 DUP3 ADD MSTORE POP JUMP JUMPDEST PUSH32 0x4552433732313A206F70657261746F7220717565727920666F72206E6F6E6578 PUSH1 0x0 DUP3 ADD MSTORE PUSH32 0x697374656E7420746F6B656E0000000000000000000000000000000000000000 PUSH1 0x20 DUP3 ADD MSTORE POP JUMP JUMPDEST PUSH32 0x4552433732313A20617070726F76652063616C6C6572206973206E6F74206F77 PUSH1 0x0 DUP3 ADD MSTORE PUSH32 0x6E6572206E6F7220617070726F76656420666F7220616C6C0000000000000000 PUSH1 0x20 DUP3 ADD MSTORE POP JUMP JUMPDEST PUSH32 0x4552433732313A2062616C616E636520717565727920666F7220746865207A65 PUSH1 0x0 DUP3 ADD MSTORE PUSH32 0x726F206164647265737300000000000000000000000000000000000000000000 PUSH1 0x20 DUP3 ADD MSTORE POP JUMP JUMPDEST PUSH32 0x4552433732313A206F776E657220717565727920666F72206E6F6E6578697374 PUSH1 0x0 DUP3 ADD MSTORE PUSH32 0x656E7420746F6B656E0000000000000000000000000000000000000000000000 PUSH1 0x20 DUP3 ADD MSTORE POP JUMP JUMPDEST PUSH32 0x4552433732313A206D696E7420746F20746865207A65726F2061646472657373 PUSH1 0x0 DUP3 ADD MSTORE POP JUMP JUMPDEST PUSH32 0x4552433732313A20617070726F76656420717565727920666F72206E6F6E6578 PUSH1 0x0 DUP3 ADD MSTORE PUSH32 0x697374656E7420746F6B656E0000000000000000000000000000000000000000 PUSH1 0x20 DUP3 ADD MSTORE POP JUMP JUMPDEST PUSH32 0x4552433732314D657461646174613A2055524920717565727920666F72206E6F PUSH1 0x0 DUP3 ADD MSTORE PUSH32 0x6E6578697374656E7420746F6B656E0000000000000000000000000000000000 PUSH1 0x20 DUP3 ADD MSTORE POP JUMP JUMPDEST PUSH32 0x4552433732313A20617070726F76616C20746F2063757272656E74206F776E65 PUSH1 0x0 DUP3 ADD MSTORE PUSH32 0x7200000000000000000000000000000000000000000000000000000000000000 PUSH1 0x20 DUP3 ADD MSTORE POP JUMP JUMPDEST PUSH32 0x4552433732313A207472616E736665722063616C6C6572206973206E6F74206F PUSH1 0x0 DUP3 ADD MSTORE PUSH32 0x776E6572206E6F7220617070726F766564000000000000000000000000000000 PUSH1 0x20 DUP3 ADD MSTORE POP JUMP JUMPDEST PUSH32 0x4F6E6C792076616C696420646578206E756D626572732E204D75737420626520 PUSH1 0x0 DUP3 ADD MSTORE PUSH32 0x6265747765656E203120616E6420363439000000000000000000000000000000 PUSH1 0x20 DUP3 ADD MSTORE POP JUMP JUMPDEST PUSH32 0x455243373231456E756D657261626C653A20676C6F62616C20696E646578206F PUSH1 0x0 DUP3 ADD MSTORE PUSH32 0x7574206F6620626F756E64730000000000000000000000000000000000000000 PUSH1 0x20 DUP3 ADD MSTORE POP JUMP JUMPDEST PUSH2 0x5026 DUP2 PUSH2 0x4822 JUMP JUMPDEST DUP2 EQ PUSH2 0x5031 JUMPI PUSH1 0x0 DUP1 REVERT JUMPDEST POP JUMP JUMPDEST PUSH2 0x503D DUP2 PUSH2 0x4834 JUMP JUMPDEST DUP2 EQ PUSH2 0x5048 JUMPI PUSH1 0x0 DUP1 REVERT JUMPDEST POP JUMP JUMPDEST PUSH2 0x5054 DUP2 PUSH2 0x4840 JUMP JUMPDEST DUP2 EQ PUSH2 0x505F JUMPI PUSH1 0x0 DUP1 REVERT JUMPDEST POP JUMP JUMPDEST PUSH2 0x506B DUP2 PUSH2 0x484A JUMP JUMPDEST DUP2 EQ PUSH2 0x5076 JUMPI PUSH1 0x0 DUP1 REVERT JUMPDEST POP JUMP JUMPDEST PUSH2 0x5082 DUP2 PUSH2 0x4896 JUMP JUMPDEST DUP2 EQ PUSH2 0x508D JUMPI PUSH1 0x0 DUP1 REVERT JUMPDEST POP JUMP INVALID LOG2 PUSH5 0x6970667358 0x22 SLT KECCAK256 STOP 0xD3 0xE7 KECCAK256 SWAP6 SSTORE 0xE4 0x5C CALLDATASIZE LOG3 0xAA PUSH13 0xFF19F784A87518686B02FAE8DF 0xB9 0xCA 0xDC 0xA6 TIMESTAMP 0x27 0xAB PUSH5 0x736F6C6343 STOP ADDMOD SMOD STOP CALLER "
		},
		"gasEstimates": {
			"creation": {
				"codeDepositCost": "4135600",
				"executionCost": "infinite",
				"totalCost": "infinite"
			},
			"external": {
				"approve(address,uint256)": "infinite",
				"balanceOf(address)": "2902",
				"fightIDToFighters(uint256)": "infinite",
				"fightIDToWinnerPokemon(uint256)": "infinite",
				"getApproved(uint256)": "5228",
				"get_winner(uint256,uint256)": "infinite",
				"isApprovedForAll(address,address)": "infinite",
				"mint(uint256)": "infinite",
				"name()": "infinite",
				"ownerOf(uint256)": "3110",
				"pokemons(uint256)": "infinite",
				"safeTransferFrom(address,address,uint256)": "infinite",
				"safeTransferFrom(address,address,uint256,bytes)": "infinite",
				"sendPokemonsToL2(uint256,uint256)": "infinite",
				"setApprovalForAll(address,bool)": "infinite",
				"supportsInterface(bytes4)": "929",
				"symbol()": "infinite",
				"tokenByIndex(uint256)": "infinite",
				"tokenOfOwnerByIndex(address,uint256)": "infinite",
				"tokenURI(uint256)": "3417",
				"totalSupply()": "2557",
				"transferFrom(address,address,uint256)": "infinite"
			},
			"internal": {
				"_beforeTokenTransfer(address,address,uint256)": "infinite",
				"createFightID()": "24378",
				"createPokemon(uint256,uint256,uint256,uint256,uint256,uint256,uint256,uint256,uint256,uint256,uint256,uint256)": "infinite",
				"createPokemonByNameId(uint256,uint256)": "infinite",
				"createPokemonOther(uint256,uint256,uint256,uint256,uint256)": "infinite",
				"getDamage()": "infinite",
				"getDv()": "infinite",
				"getStrength()": "infinite",
				"getType()": "infinite",
				"random(uint256)": "infinite"
			}
		},
		"methodIdentifiers": {
			"approve(address,uint256)": "095ea7b3",
			"balanceOf(address)": "70a08231",
			"fightIDToFighters(uint256)": "1992f36d",
			"fightIDToWinnerPokemon(uint256)": "d82fe3b7",
			"getApproved(uint256)": "081812fc",
			"get_winner(uint256,uint256)": "72e84e3c",
			"isApprovedForAll(address,address)": "e985e9c5",
			"mint(uint256)": "a0712d68",
			"name()": "06fdde03",
			"ownerOf(uint256)": "6352211e",
			"pokemons(uint256)": "85831079",
			"safeTransferFrom(address,address,uint256)": "42842e0e",
			"safeTransferFrom(address,address,uint256,bytes)": "b88d4fde",
			"sendPokemonsToL2(uint256,uint256)": "85b1c79d",
			"setApprovalForAll(address,bool)": "a22cb465",
			"supportsInterface(bytes4)": "01ffc9a7",
			"symbol()": "95d89b41",
			"tokenByIndex(uint256)": "4f6ccce7",
			"tokenOfOwnerByIndex(address,uint256)": "2f745c59",
			"tokenURI(uint256)": "c87b56dd",
			"totalSupply()": "18160ddd",
			"transferFrom(address,address,uint256)": "23b872dd"
		}
	},
	"abi": [
		{
			"inputs": [],
			"stateMutability": "nonpayable",
			"type": "constructor"
		},
		{
			"anonymous": false,
			"inputs": [
				{
					"indexed": true,
					"internalType": "address",
					"name": "owner",
					"type": "address"
				},
				{
					"indexed": true,
					"internalType": "address",
					"name": "approved",
					"type": "address"
				},
				{
					"indexed": true,
					"internalType": "uint256",
					"name": "tokenId",
					"type": "uint256"
				}
			],
			"name": "Approval",
			"type": "event"
		},
		{
			"anonymous": false,
			"inputs": [
				{
					"indexed": true,
					"internalType": "address",
					"name": "owner",
					"type": "address"
				},
				{
					"indexed": true,
					"internalType": "address",
					"name": "operator",
					"type": "address"
				},
				{
					"indexed": false,
					"internalType": "bool",
					"name": "approved",
					"type": "bool"
				}
			],
			"name": "ApprovalForAll",
			"type": "event"
		},
		{
			"anonymous": false,
			"inputs": [
				{
					"indexed": true,
					"internalType": "address",
					"name": "from",
					"type": "address"
				},
				{
					"indexed": true,
					"internalType": "address",
					"name": "to",
					"type": "address"
				},
				{
					"indexed": true,
					"internalType": "uint256",
					"name": "tokenId",
					"type": "uint256"
				}
			],
			"name": "Transfer",
			"type": "event"
		},
		{
			"anonymous": false,
			"inputs": [
				{
					"indexed": false,
					"internalType": "uint256",
					"name": "uuid",
					"type": "uint256"
				},
				{
					"indexed": false,
					"internalType": "uint256",
					"name": "hp",
					"type": "uint256"
				},
				{
					"indexed": false,
					"internalType": "uint256",
					"name": "atk",
					"type": "uint256"
				},
				{
					"indexed": false,
					"internalType": "uint256",
					"name": "init",
					"type": "uint256"
				},
				{
					"indexed": false,
					"internalType": "uint256",
					"name": "def",
					"type": "uint256"
				}
			],
			"name": "createdRandomPkmn",
			"type": "event"
		},
		{
			"anonymous": false,
			"inputs": [
				{
					"indexed": false,
					"internalType": "uint256",
					"name": "message",
					"type": "uint256"
				}
			],
			"name": "enteredFunc",
			"type": "event"
		},
		{
			"anonymous": false,
			"inputs": [
				{
					"indexed": false,
					"internalType": "uint256",
					"name": "message",
					"type": "uint256"
				}
			],
			"name": "gettingWinnerEntered",
			"type": "event"
		},
		{
			"anonymous": false,
			"inputs": [
				{
					"indexed": false,
					"internalType": "uint256",
					"name": "l2contract",
					"type": "uint256"
				},
				{
					"indexed": false,
					"internalType": "uint256",
					"name": "_winnerPok",
					"type": "uint256"
				},
				{
					"indexed": false,
					"internalType": "uint256",
					"name": "_fightID",
					"type": "uint256"
				}
			],
			"name": "gettingWinnerFinished",
			"type": "event"
		},
		{
			"anonymous": false,
			"inputs": [
				{
					"indexed": true,
					"internalType": "address",
					"name": "_from",
					"type": "address"
				},
				{
					"indexed": false,
					"internalType": "uint256",
					"name": "_pok1",
					"type": "uint256"
				},
				{
					"indexed": false,
					"internalType": "uint256",
					"name": "_pok2",
					"type": "uint256"
				},
				{
					"indexed": false,
					"internalType": "uint256",
					"name": "l2Contract",
					"type": "uint256"
				},
				{
					"indexed": false,
					"internalType": "uint256",
					"name": "_value",
					"type": "uint256"
				}
			],
			"name": "startFight",
			"type": "event"
		},
		{
			"anonymous": false,
			"inputs": [
				{
					"indexed": false,
					"internalType": "uint256",
					"name": "message",
					"type": "uint256"
				}
			],
			"name": "startFightMessage",
			"type": "event"
		},
		{
			"inputs": [
				{
					"internalType": "address",
					"name": "to",
					"type": "address"
				},
				{
					"internalType": "uint256",
					"name": "tokenId",
					"type": "uint256"
				}
			],
			"name": "approve",
			"outputs": [],
			"stateMutability": "nonpayable",
			"type": "function"
		},
		{
			"inputs": [
				{
					"internalType": "address",
					"name": "owner",
					"type": "address"
				}
			],
			"name": "balanceOf",
			"outputs": [
				{
					"internalType": "uint256",
					"name": "",
					"type": "uint256"
				}
			],
			"stateMutability": "view",
			"type": "function"
		},
		{
			"inputs": [
				{
					"internalType": "uint256",
					"name": "",
					"type": "uint256"
				}
			],
			"name": "fightIDToFighters",
			"outputs": [
				{
					"components": [
						{
							"internalType": "uint256",
							"name": "id",
							"type": "uint256"
						},
						{
							"internalType": "uint256",
							"name": "hp",
							"type": "uint256"
						},
						{
							"internalType": "uint256",
							"name": "atk",
							"type": "uint256"
						},
						{
							"internalType": "uint256",
							"name": "init",
							"type": "uint256"
						},
						{
							"internalType": "uint256",
							"name": "def",
							"type": "uint256"
						},
						{
							"internalType": "uint256",
							"name": "type1",
							"type": "uint256"
						},
						{
							"internalType": "uint256",
							"name": "type2",
							"type": "uint256"
						},
						{
							"internalType": "uint256",
							"name": "atk1_type",
							"type": "uint256"
						},
						{
							"internalType": "uint256",
							"name": "atk1_damage",
							"type": "uint256"
						},
						{
							"internalType": "uint256",
							"name": "atk2_type",
							"type": "uint256"
						},
						{
							"internalType": "uint256",
							"name": "atk2_damage",
							"type": "uint256"
						},
						{
							"internalType": "uint256",
							"name": "name_id",
							"type": "uint256"
						}
					],
					"internalType": "struct NFT.Pokemon",
					"name": "pok1",
					"type": "tuple"
				},
				{
					"components": [
						{
							"internalType": "uint256",
							"name": "id",
							"type": "uint256"
						},
						{
							"internalType": "uint256",
							"name": "hp",
							"type": "uint256"
						},
						{
							"internalType": "uint256",
							"name": "atk",
							"type": "uint256"
						},
						{
							"internalType": "uint256",
							"name": "init",
							"type": "uint256"
						},
						{
							"internalType": "uint256",
							"name": "def",
							"type": "uint256"
						},
						{
							"internalType": "uint256",
							"name": "type1",
							"type": "uint256"
						},
						{
							"internalType": "uint256",
							"name": "type2",
							"type": "uint256"
						},
						{
							"internalType": "uint256",
							"name": "atk1_type",
							"type": "uint256"
						},
						{
							"internalType": "uint256",
							"name": "atk1_damage",
							"type": "uint256"
						},
						{
							"internalType": "uint256",
							"name": "atk2_type",
							"type": "uint256"
						},
						{
							"internalType": "uint256",
							"name": "atk2_damage",
							"type": "uint256"
						},
						{
							"internalType": "uint256",
							"name": "name_id",
							"type": "uint256"
						}
					],
					"internalType": "struct NFT.Pokemon",
					"name": "pok2",
					"type": "tuple"
				}
			],
			"stateMutability": "view",
			"type": "function"
		},
		{
			"inputs": [
				{
					"internalType": "uint256",
					"name": "",
					"type": "uint256"
				}
			],
			"name": "fightIDToWinnerPokemon",
			"outputs": [
				{
					"internalType": "uint256",
					"name": "id",
					"type": "uint256"
				},
				{
					"internalType": "uint256",
					"name": "hp",
					"type": "uint256"
				},
				{
					"internalType": "uint256",
					"name": "atk",
					"type": "uint256"
				},
				{
					"internalType": "uint256",
					"name": "init",
					"type": "uint256"
				},
				{
					"internalType": "uint256",
					"name": "def",
					"type": "uint256"
				},
				{
					"internalType": "uint256",
					"name": "type1",
					"type": "uint256"
				},
				{
					"internalType": "uint256",
					"name": "type2",
					"type": "uint256"
				},
				{
					"internalType": "uint256",
					"name": "atk1_type",
					"type": "uint256"
				},
				{
					"internalType": "uint256",
					"name": "atk1_damage",
					"type": "uint256"
				},
				{
					"internalType": "uint256",
					"name": "atk2_type",
					"type": "uint256"
				},
				{
					"internalType": "uint256",
					"name": "atk2_damage",
					"type": "uint256"
				},
				{
					"internalType": "uint256",
					"name": "name_id",
					"type": "uint256"
				}
			],
			"stateMutability": "view",
			"type": "function"
		},
		{
			"inputs": [
				{
					"internalType": "uint256",
					"name": "tokenId",
					"type": "uint256"
				}
			],
			"name": "getApproved",
			"outputs": [
				{
					"internalType": "address",
					"name": "",
					"type": "address"
				}
			],
			"stateMutability": "view",
			"type": "function"
		},
		{
			"inputs": [
				{
					"internalType": "uint256",
					"name": "pokemonWinnerID",
					"type": "uint256"
				},
				{
					"internalType": "uint256",
					"name": "fightID",
					"type": "uint256"
				}
			],
			"name": "get_winner",
			"outputs": [],
			"stateMutability": "nonpayable",
			"type": "function"
		},
		{
			"inputs": [
				{
					"internalType": "address",
					"name": "owner",
					"type": "address"
				},
				{
					"internalType": "address",
					"name": "operator",
					"type": "address"
				}
			],
			"name": "isApprovedForAll",
			"outputs": [
				{
					"internalType": "bool",
					"name": "",
					"type": "bool"
				}
			],
			"stateMutability": "view",
			"type": "function"
		},
		{
			"inputs": [
				{
					"internalType": "uint256",
					"name": "_name_id",
					"type": "uint256"
				}
			],
			"name": "mint",
			"outputs": [],
			"stateMutability": "nonpayable",
			"type": "function"
		},
		{
			"inputs": [],
			"name": "name",
			"outputs": [
				{
					"internalType": "string",
					"name": "",
					"type": "string"
				}
			],
			"stateMutability": "view",
			"type": "function"
		},
		{
			"inputs": [
				{
					"internalType": "uint256",
					"name": "tokenId",
					"type": "uint256"
				}
			],
			"name": "ownerOf",
			"outputs": [
				{
					"internalType": "address",
					"name": "",
					"type": "address"
				}
			],
			"stateMutability": "view",
			"type": "function"
		},
		{
			"inputs": [
				{
					"internalType": "uint256",
					"name": "",
					"type": "uint256"
				}
			],
			"name": "pokemons",
			"outputs": [
				{
					"internalType": "uint256",
					"name": "id",
					"type": "uint256"
				},
				{
					"internalType": "uint256",
					"name": "hp",
					"type": "uint256"
				},
				{
					"internalType": "uint256",
					"name": "atk",
					"type": "uint256"
				},
				{
					"internalType": "uint256",
					"name": "init",
					"type": "uint256"
				},
				{
					"internalType": "uint256",
					"name": "def",
					"type": "uint256"
				},
				{
					"internalType": "uint256",
					"name": "type1",
					"type": "uint256"
				},
				{
					"internalType": "uint256",
					"name": "type2",
					"type": "uint256"
				},
				{
					"internalType": "uint256",
					"name": "atk1_type",
					"type": "uint256"
				},
				{
					"internalType": "uint256",
					"name": "atk1_damage",
					"type": "uint256"
				},
				{
					"internalType": "uint256",
					"name": "atk2_type",
					"type": "uint256"
				},
				{
					"internalType": "uint256",
					"name": "atk2_damage",
					"type": "uint256"
				},
				{
					"internalType": "uint256",
					"name": "name_id",
					"type": "uint256"
				}
			],
			"stateMutability": "view",
			"type": "function"
		},
		{
			"inputs": [
				{
					"internalType": "address",
					"name": "from",
					"type": "address"
				},
				{
					"internalType": "address",
					"name": "to",
					"type": "address"
				},
				{
					"internalType": "uint256",
					"name": "tokenId",
					"type": "uint256"
				}
			],
			"name": "safeTransferFrom",
			"outputs": [],
			"stateMutability": "nonpayable",
			"type": "function"
		},
		{
			"inputs": [
				{
					"internalType": "address",
					"name": "from",
					"type": "address"
				},
				{
					"internalType": "address",
					"name": "to",
					"type": "address"
				},
				{
					"internalType": "uint256",
					"name": "tokenId",
					"type": "uint256"
				},
				{
					"internalType": "bytes",
					"name": "_data",
					"type": "bytes"
				}
			],
			"name": "safeTransferFrom",
			"outputs": [],
			"stateMutability": "nonpayable",
			"type": "function"
		},
		{
			"inputs": [
				{
					"internalType": "uint256",
					"name": "myPok",
					"type": "uint256"
				},
				{
					"internalType": "uint256",
					"name": "enemyPok",
					"type": "uint256"
				}
			],
			"name": "sendPokemonsToL2",
			"outputs": [],
			"stateMutability": "payable",
			"type": "function"
		},
		{
			"inputs": [
				{
					"internalType": "address",
					"name": "operator",
					"type": "address"
				},
				{
					"internalType": "bool",
					"name": "approved",
					"type": "bool"
				}
			],
			"name": "setApprovalForAll",
			"outputs": [],
			"stateMutability": "nonpayable",
			"type": "function"
		},
		{
			"inputs": [
				{
					"internalType": "bytes4",
					"name": "interfaceId",
					"type": "bytes4"
				}
			],
			"name": "supportsInterface",
			"outputs": [
				{
					"internalType": "bool",
					"name": "",
					"type": "bool"
				}
			],
			"stateMutability": "view",
			"type": "function"
		},
		{
			"inputs": [],
			"name": "symbol",
			"outputs": [
				{
					"internalType": "string",
					"name": "",
					"type": "string"
				}
			],
			"stateMutability": "view",
			"type": "function"
		},
		{
			"inputs": [
				{
					"internalType": "uint256",
					"name": "index",
					"type": "uint256"
				}
			],
			"name": "tokenByIndex",
			"outputs": [
				{
					"internalType": "uint256",
					"name": "",
					"type": "uint256"
				}
			],
			"stateMutability": "view",
			"type": "function"
		},
		{
			"inputs": [
				{
					"internalType": "address",
					"name": "owner",
					"type": "address"
				},
				{
					"internalType": "uint256",
					"name": "index",
					"type": "uint256"
				}
			],
			"name": "tokenOfOwnerByIndex",
			"outputs": [
				{
					"internalType": "uint256",
					"name": "",
					"type": "uint256"
				}
			],
			"stateMutability": "view",
			"type": "function"
		},
		{
			"inputs": [
				{
					"internalType": "uint256",
					"name": "tokenId",
					"type": "uint256"
				}
			],
			"name": "tokenURI",
			"outputs": [
				{
					"internalType": "string",
					"name": "",
					"type": "string"
				}
			],
			"stateMutability": "view",
			"type": "function"
		},
		{
			"inputs": [],
			"name": "totalSupply",
			"outputs": [
				{
					"internalType": "uint256",
					"name": "",
					"type": "uint256"
				}
			],
			"stateMutability": "view",
			"type": "function"
		},
		{
			"inputs": [
				{
					"internalType": "address",
					"name": "from",
					"type": "address"
				},
				{
					"internalType": "address",
					"name": "to",
					"type": "address"
				},
				{
					"internalType": "uint256",
					"name": "tokenId",
					"type": "uint256"
				}
			],
			"name": "transferFrom",
			"outputs": [],
			"stateMutability": "nonpayable",
			"type": "function"
		}
	]
}