{
  "data": {
    "bytecode": {
      "linkReferences": {},
      "object": "60806040527f02ceca6b6d4d9f6b0da9a08f01b328fc06539267740fe1e14526fbba7f78e0c9600b556000600c556000600d553480156200003f57600080fd5b506040518060400160405280600a81526020017f506f6b656d6f6e4e4654000000000000000000000000000000000000000000008152506040518060400160405280600481526020017f504b4d4e000000000000000000000000000000000000000000000000000000008152508160009080519060200190620000c49291906200013b565b508060019080519060200190620000dd9291906200013b565b50505073de29d060d45901fb19ed6c6e959eb22d8626708e600a60006101000a81548173ffffffffffffffffffffffffffffffffffffffff021916908373ffffffffffffffffffffffffffffffffffffffff16021790555062000250565b8280546200014990620001eb565b90600052602060002090601f0160209004810192826200016d5760008555620001b9565b82601f106200018857805160ff1916838001178555620001b9565b82800160010185558215620001b9579182015b82811115620001b85782518255916020019190600101906200019b565b5b509050620001c89190620001cc565b5090565b5b80821115620001e7576000816000905550600101620001cd565b5090565b600060028204905060018216806200020457607f821691505b602082108114156200021b576200021a62000221565b5b50919050565b7f4e487b7100000000000000000000000000000000000000000000000000000000600052602260045260246000fd5b61505280620002606000396000f3fe6080604052600436106101405760003560e01c806370a08231116100b6578063ad5dbc291161006f578063ad5dbc29146104a3578063b88d4fde146104cc578063c87b56dd146104f5578063d5f39a5b14610532578063d82fe3b71461056f578063e985e9c5146105b757610140565b806370a082311461038557806385831079146103c257806385b1c79d1461040a57806395d89b4114610426578063a0712d6814610451578063a22cb4651461047a57610140565b80631992f36d116101085780631992f36d1461023e57806323b872dd1461027c5780632f745c59146102a557806342842e0e146102e25780634f6ccce71461030b5780636352211e1461034857610140565b806301ffc9a71461014557806306fdde0314610182578063081812fc146101ad578063095ea7b3146101ea57806318160ddd14610213575b600080fd5b34801561015157600080fd5b5061016c60048036038101906101679190613b49565b6105f4565b6040516101799190614203565b60405180910390f35b34801561018e57600080fd5b50610197610606565b6040516101a49190614239565b60405180910390f35b3480156101b957600080fd5b506101d460048036038101906101cf9190613ba3565b610698565b6040516101e1919061419c565b60405180910390f35b3480156101f657600080fd5b50610211600480360381019061020c9190613adc565b61071d565b005b34801561021f57600080fd5b50610228610835565b60405161023591906144a6565b60405180910390f35b34801561024a57600080fd5b5061026560048036038101906102609190613ba3565b610842565b60405161027392919061447b565b60405180910390f35b34801561028857600080fd5b506102a3600480360381019061029e91906139c6565b61096c565b005b3480156102b157600080fd5b506102cc60048036038101906102c79190613adc565b6109cc565b6040516102d991906144a6565b60405180910390f35b3480156102ee57600080fd5b50610309600480360381019061030491906139c6565b610a71565b005b34801561031757600080fd5b50610332600480360381019061032d9190613ba3565b610a91565b60405161033f91906144a6565b60405180910390f35b34801561035457600080fd5b5061036f600480360381019061036a9190613ba3565b610b02565b60405161037c919061419c565b60405180910390f35b34801561039157600080fd5b506103ac60048036038101906103a79190613959565b610bb4565b6040516103b991906144a6565b60405180910390f35b3480156103ce57600080fd5b506103e960048036038101906103e49190613ba3565b610c6c565b6040516104019c9b9a9998979695949392919061459d565b60405180910390f35b610424600480360381019061041f9190613bd0565b610cdc565b005b34801561043257600080fd5b5061043b611551565b6040516104489190614239565b60405180910390f35b34801561045d57600080fd5b5061047860048036038101906104739190613ba3565b6115e3565b005b34801561048657600080fd5b506104a1600480360381019061049c9190613a9c565b611711565b005b3480156104af57600080fd5b506104ca60048036038101906104c59190613c10565b611727565b005b3480156104d857600080fd5b506104f360048036038101906104ee9190613a19565b611a1d565b005b34801561050157600080fd5b5061051c60048036038101906105179190613ba3565b611a7f565b6040516105299190614239565b60405180910390f35b34801561053e57600080fd5b5061055960048036038101906105549190613ba3565b611b26565b60405161056691906144a6565b60405180910390f35b34801561057b57600080fd5b5061059660048036038101906105919190613ba3565b611b3e565b6040516105ae9c9b9a9998979695949392919061459d565b60405180910390f35b3480156105c357600080fd5b506105de60048036038101906105d99190613986565b611b9e565b6040516105eb9190614203565b60405180910390f35b60006105ff82611c32565b9050919050565b606060008054610615906148b6565b80601f0160208091040260200160405190810160405280929190818152602001828054610641906148b6565b801561068e5780601f106106635761010080835404028352916020019161068e565b820191906000526020600020905b81548152906001019060200180831161067157829003601f168201915b5050505050905090565b60006106a382611cac565b6106e2576040517f08c379a00000000000000000000000000000000000000000000000000000000081526004016106d9906143bb565b60405180910390fd5b6004600083815260200190815260200160002060009054906101000a900473ffffffffffffffffffffffffffffffffffffffff169050919050565b600061072882610b02565b90508073ffffffffffffffffffffffffffffffffffffffff168373ffffffffffffffffffffffffffffffffffffffff161415610799576040517f08c379a0000000000000000000000000000000000000000000000000000000008152600401610790906143fb565b60405180910390fd5b8073ffffffffffffffffffffffffffffffffffffffff166107b8611d18565b73ffffffffffffffffffffffffffffffffffffffff1614806107e757506107e6816107e1611d18565b611b9e565b5b610826576040517f08c379a000000000000000000000000000000000000000000000000000000000815260040161081d9061433b565b60405180910390fd5b6108308383611d20565b505050565b6000600880549050905090565b6011602052806000526040600020600091509050806000016040518061018001604052908160008201548152602001600182015481526020016002820154815260200160038201548152602001600482015481526020016005820154815260200160068201548152602001600782015481526020016008820154815260200160098201548152602001600a8201548152602001600b820154815250509080600c016040518061018001604052908160008201548152602001600182015481526020016002820154815260200160038201548152602001600482015481526020016005820154815260200160068201548152602001600782015481526020016008820154815260200160098201548152602001600a8201548152602001600b82015481525050905082565b61097d610977611d18565b82611dd9565b6109bc576040517f08c379a00000000000000000000000000000000000000000000000000000000081526004016109b39061441b565b60405180910390fd5b6109c7838383611eb7565b505050565b60006109d783610bb4565b8210610a18576040517f08c379a0000000000000000000000000000000000000000000000000000000008152600401610a0f9061425b565b60405180910390fd5b600660008473ffffffffffffffffffffffffffffffffffffffff1673ffffffffffffffffffffffffffffffffffffffff168152602001908152602001600020600083815260200190815260200160002054905092915050565b610a8c83838360405180602001604052806000815250611a1d565b505050565b6000610a9b610835565b8210610adc576040517f08c379a0000000000000000000000000000000000000000000000000000000008152600401610ad39061443b565b60405180910390fd5b60088281548110610af057610aef614a59565b5b90600052602060002001549050919050565b6000806002600084815260200190815260200160002060009054906101000a900473ffffffffffffffffffffffffffffffffffffffff169050600073ffffffffffffffffffffffffffffffffffffffff168173ffffffffffffffffffffffffffffffffffffffff161415610bab576040517f08c379a0000000000000000000000000000000000000000000000000000000008152600401610ba29061437b565b60405180910390fd5b80915050919050565b60008073ffffffffffffffffffffffffffffffffffffffff168273ffffffffffffffffffffffffffffffffffffffff161415610c25576040517f08c379a0000000000000000000000000000000000000000000000000000000008152600401610c1c9061435b565b60405180910390fd5b600360008373ffffffffffffffffffffffffffffffffffffffff1673ffffffffffffffffffffffffffffffffffffffff168152602001908152602001600020549050919050565b600f8181548110610c7c57600080fd5b90600052602060002090600c020160009150905080600001549080600101549080600201549080600301549080600401549080600501549080600601549080600701549080600801549080600901549080600a01549080600b015490508c565b66470de4df820000341015610cf057600080fd5b3373ffffffffffffffffffffffffffffffffffffffff16610d1083610b02565b73ffffffffffffffffffffffffffffffffffffffff1614610d3057600080fd5b610d38610835565b8210610d4357600080fd5b610d4b610835565b8110610d5657600080fd5b7f3593df2963c20760afeec7bc9ae99f0ad8227ec08877590930b113d33df9c0676001604051610d86919061421e565b60405180910390a16000600f8381548110610da457610da3614a59565b5b90600052602060002090600c02016040518061018001604052908160008201548152602001600182015481526020016002820154815260200160038201548152602001600482015481526020016005820154815260200160068201548152602001600782015481526020016008820154815260200160098201548152602001600a8201548152602001600b8201548152505090506000600f8381548110610e4e57610e4d614a59565b5b90600052602060002090600c02016040518061018001604052908160008201548152602001600182015481526020016002820154815260200160038201548152602001600482015481526020016005820154815260200160068201548152602001600782015481526020016008820154815260200160098201548152602001600a8201548152602001600b8201548152505090506000610eec61211e565b90506000601967ffffffffffffffff811115610f0b57610f0a614a88565b5b604051908082528060200260200182016040528015610f395781602001602082028036833780820191505090505b509050836000015181600081518110610f5557610f54614a59565b5b602002602001018181525050836020015181600181518110610f7a57610f79614a59565b5b602002602001018181525050836040015181600281518110610f9f57610f9e614a59565b5b602002602001018181525050836060015181600381518110610fc457610fc3614a59565b5b602002602001018181525050836080015181600481518110610fe957610fe8614a59565b5b6020026020010181815250508360a001518160058151811061100e5761100d614a59565b5b6020026020010181815250508360c001518160068151811061103357611032614a59565b5b6020026020010181815250508360e001518160078151811061105857611057614a59565b5b6020026020010181815250508361010001518160088151811061107e5761107d614a59565b5b602002602001018181525050836101200151816009815181106110a4576110a3614a59565b5b60200260200101818152505083610140015181600a815181106110ca576110c9614a59565b5b60200260200101818152505083610160015181600b815181106110f0576110ef614a59565b5b602002602001018181525050826000015181600c8151811061111557611114614a59565b5b602002602001018181525050826020015181600d8151811061113a57611139614a59565b5b602002602001018181525050826040015181600e8151811061115f5761115e614a59565b5b602002602001018181525050826060015181600f8151811061118457611183614a59565b5b6020026020010181815250508260800151816010815181106111a9576111a8614a59565b5b6020026020010181815250508260a00151816011815181106111ce576111cd614a59565b5b6020026020010181815250508260c00151816012815181106111f3576111f2614a59565b5b6020026020010181815250508260e001518160138151811061121857611217614a59565b5b6020026020010181815250508261010001518160148151811061123e5761123d614a59565b5b6020026020010181815250508261012001518160158151811061126457611263614a59565b5b6020026020010181815250508261014001518160168151811061128a57611289614a59565b5b602002602001018181525050826101600151816017815181106112b0576112af614a59565b5b60200260200101818152505081816018815181106112d1576112d0614a59565b5b602002602001018181525050600a60009054906101000a900473ffffffffffffffffffffffffffffffffffffffff1673ffffffffffffffffffffffffffffffffffffffff16633e3aa6c534600b547f02d8dd67d94ff9987fba396772e78af45776e50ec5231a489977b2973c8ad302856040518563ffffffff1660e01b815260040161135f9392919061451a565b6020604051808303818588803b15801561137857600080fd5b505af115801561138c573d6000803e3d6000fd5b50505050506040513d601f19601f820116820180604052508101906113b19190613b1c565b5060405180604001604052808581526020018481525060116000848152602001908152602001600020600082015181600001600082015181600001556020820151816001015560408201518160020155606082015181600301556080820151816004015560a0820151816005015560c0820151816006015560e082015181600701556101008201518160080155610120820151816009015561014082015181600a015561016082015181600b01555050602082015181600c01600082015181600001556020820151816001015560408201518160020155606082015181600301556080820151816004015560a0820151816005015560c0820151816006015560e082015181600701556101008201518160080155610120820151816009015561014082015181600a015561016082015181600b015550509050503373ffffffffffffffffffffffffffffffffffffffff167fd02fce1acafa0b604f24aaad2d7c0a36c749f4b333abc05fc83ba197d5e0705c85600001518560000151600b54346040516115419493929190614558565b60405180910390a2505050505050565b606060018054611560906148b6565b80601f016020809104026020016040519081016040528092919081815260200182805461158c906148b6565b80156115d95780601f106115ae576101008083540402835291602001916115d9565b820191906000526020600020905b8154815290600101906020018083116115bc57829003601f168201915b5050505050905090565b6000811180156115f35750603581105b611632576040517f08c379a00000000000000000000000000000000000000000000000000000000081526004016116299061445b565b60405180910390fd5b600061163e600e61213c565b9050600061164c838361214a565b9050600f8190806001815401808255809150506001900390600052602060002090600c0201600090919091909150600082015181600001556020820151816001015560408201518160020155606082015181600301556080820151816004015560a0820151816005015560c0820151816006015560e082015181600701556101008201518160080155610120820151816009015561014082015181600a015561016082015181600b0155505061170233836128c3565b61170c600e6128e1565b505050565b61172361171c611d18565b83836128f7565b5050565b7f0ed9918e573b159b62731bc88263b9ce84e79c6335fbba2b28f981840126e16f6001604051611757919061421e565b60405180910390a16000600467ffffffffffffffff81111561177c5761177b614a88565b5b6040519080825280602002602001820160405280156117aa5781602001602082028036833780820191505090505b50905084816000815181106117c2576117c1614a59565b5b60200260200101818152505083816001815181106117e3576117e2614a59565b5b602002602001018181525050828160028151811061180457611803614a59565b5b602002602001018181525050818160038151811061182557611824614a59565b5b602002602001018181525050600a60009054906101000a900473ffffffffffffffffffffffffffffffffffffffff1673ffffffffffffffffffffffffffffffffffffffff16632c9dd5c0600b54836040518363ffffffff1660e01b81526004016118909291906144c1565b602060405180830381600087803b1580156118aa57600080fd5b505af11580156118be573d6000803e3d6000fd5b505050506040513d601f19601f820116820180604052508101906118e29190613b1c565b50600f85815481106118f7576118f6614a59565b5b90600052602060002090600c02016010600086815260200190815260200160002060008201548160000155600182015481600101556002820154816002015560038201548160030155600482015481600401556005820154816005015560068201548160060155600782015481600701556008820154816008015560098201548160090155600a82015481600a0155600b82015481600b0155905050600160126000878152602001908152602001600020546119b39190614729565b60126000878152602001908152602001600020819055507f510a8d0a61f3ec9ef2328338cfc3429d30261d8781d56dd0507cb19e2ed63a9c856012600088815260200190815260200160002054604051611a0e9291906144f1565b60405180910390a15050505050565b611a2e611a28611d18565b83611dd9565b611a6d576040517f08c379a0000000000000000000000000000000000000000000000000000000008152600401611a649061441b565b60405180910390fd5b611a7984848484612a64565b50505050565b6060611a8a82611cac565b611ac9576040517f08c379a0000000000000000000000000000000000000000000000000000000008152600401611ac0906143db565b60405180910390fd5b6000611ad3612ac0565b90506000815111611af35760405180602001604052806000815250611b1e565b80611afd84612ad7565b604051602001611b0e92919061413b565b6040516020818303038152906040525b915050919050565b60126020528060005260406000206000915090505481565b601060205280600052604060002060009150905080600001549080600101549080600201549080600301549080600401549080600501549080600601549080600701549080600801549080600901549080600a01549080600b015490508c565b6000600560008473ffffffffffffffffffffffffffffffffffffffff1673ffffffffffffffffffffffffffffffffffffffff16815260200190815260200160002060008373ffffffffffffffffffffffffffffffffffffffff1673ffffffffffffffffffffffffffffffffffffffff16815260200190815260200160002060009054906101000a900460ff16905092915050565b60007f780e9d63000000000000000000000000000000000000000000000000000000007bffffffffffffffffffffffffffffffffffffffffffffffffffffffff1916827bffffffffffffffffffffffffffffffffffffffffffffffffffffffff19161480611ca55750611ca482612c38565b5b9050919050565b60008073ffffffffffffffffffffffffffffffffffffffff166002600084815260200190815260200160002060009054906101000a900473ffffffffffffffffffffffffffffffffffffffff1673ffffffffffffffffffffffffffffffffffffffff1614159050919050565b600033905090565b816004600083815260200190815260200160002060006101000a81548173ffffffffffffffffffffffffffffffffffffffff021916908373ffffffffffffffffffffffffffffffffffffffff160217905550808273ffffffffffffffffffffffffffffffffffffffff16611d9383610b02565b73ffffffffffffffffffffffffffffffffffffffff167f8c5be1e5ebec7d5bd14f71427d1e84f3dd0314c0f7b2291e5b200ac8c7c3b92560405160405180910390a45050565b6000611de482611cac565b611e23576040517f08c379a0000000000000000000000000000000000000000000000000000000008152600401611e1a9061431b565b60405180910390fd5b6000611e2e83610b02565b90508073ffffffffffffffffffffffffffffffffffffffff168473ffffffffffffffffffffffffffffffffffffffff161480611e705750611e6f8185611b9e565b5b80611eae57508373ffffffffffffffffffffffffffffffffffffffff16611e9684610698565b73ffffffffffffffffffffffffffffffffffffffff16145b91505092915050565b8273ffffffffffffffffffffffffffffffffffffffff16611ed782610b02565b73ffffffffffffffffffffffffffffffffffffffff1614611f2d576040517f08c379a0000000000000000000000000000000000000000000000000000000008152600401611f249061429b565b60405180910390fd5b600073ffffffffffffffffffffffffffffffffffffffff168273ffffffffffffffffffffffffffffffffffffffff161415611f9d576040517f08c379a0000000000000000000000000000000000000000000000000000000008152600401611f94906142db565b60405180910390fd5b611fa8838383612d1a565b611fb3600082611d20565b6001600360008573ffffffffffffffffffffffffffffffffffffffff1673ffffffffffffffffffffffffffffffffffffffff168152602001908152602001600020600082825461200391906147b0565b925050819055506001600360008473ffffffffffffffffffffffffffffffffffffffff1673ffffffffffffffffffffffffffffffffffffffff168152602001908152602001600020600082825461205a9190614729565b92505081905550816002600083815260200190815260200160002060006101000a81548173ffffffffffffffffffffffffffffffffffffffff021916908373ffffffffffffffffffffffffffffffffffffffff160217905550808273ffffffffffffffffffffffffffffffffffffffff168473ffffffffffffffffffffffffffffffffffffffff167fddf252ad1be2c89b69c2b068fc378daa952ba7f163c4a11628f55a4df523b3ef60405160405180910390a4612119838383612d2a565b505050565b6000600c600081548092919061213390614919565b91905055905090565b600081600001549050919050565b61215261380a565b600183141561218c57612185826098606f606a606f600360636003601e612177612d2f565b61217f612d40565b8e612d5d565b90506128bd565b60028314156121c6576121bf8260a7607d607b607e60036007600360286121b1612d2f565b6121b9612d40565b8e612d5d565b90506128bd565b6003831415612200576121f98260bb60a7609160c060036007600360326121eb612d2f565b6121f3612d40565b8e612d5d565b90506128bd565b600483141561223a576122338260926072608060686001606360016028612225612d2f565b61222d612d40565b8e612d5d565b90506128bd565b60058314156122745761226d8260a5607f60916079600160636001602861225f612d2f565b612267612d40565b8e612d5d565b90506128bd565b60068314156122ae576122a78260b960c860a760b36001600960016032612299612d2f565b6122a1612d40565b8e612d5d565b90506128bd565b60078314156122e8576122e1826097606e60686080600260636002601e6122d3612d2f565b6122db612d40565b8e612d5d565b90506128bd565b60088314156123225761231b8260a6607e60796091600260636002602861230d612d2f565b612315612d40565b8e612d5d565b90506128bd565b600983141561235c576123558260ba6094608f60a76002606360026032612347612d2f565b61234f612d40565b8e612d5d565b90506128bd565b600a83141561237c5761237582600b6063866001612e11565b90506128bd565b600b83141561239c5761239582600b6063866002612e11565b90506128bd565b600c8314156123bc576123b582600b6009866003612e11565b90506128bd565b600d8314156123dc576123d582600b6007866001612e11565b90506128bd565b600e8314156123fc576123f582600b6007866002612e11565b90506128bd565b600f83141561241c5761241582600b6007866003612e11565b90506128bd565b601083141561243c576124358260006009866001612e11565b90506128bd565b601183141561245c576124558260006009866002612e11565b90506128bd565b601283141561247c576124758260006009866003612e11565b90506128bd565b601383141561249c576124958260006063866001612e11565b90506128bd565b60148314156124bc576124b58260006063866002612e11565b90506128bd565b60158314156124dc576124d58260006009866001612e11565b90506128bd565b60168314156124fc576124f58260006009866002612e11565b90506128bd565b601783141561251c576125158260076063866001612e11565b90506128bd565b601883141561253c576125358260076063866002612e11565b90506128bd565b601983141561255c576125558260046063866002612e11565b90506128bd565b601a83141561257c576125758260046063866003612e11565b90506128bd565b601b83141561259c576125958260086063866001612e11565b90506128bd565b601c8314156125bc576125b58260086063866002612e11565b90506128bd565b601d8314156125dc576125d58260076063866001612e11565b90506128bd565b601e8314156125fc576125f58260076063866001612e11565b90506128bd565b601f83141561261c576126158260076008866003612e11565b90506128bd565b602083141561263c576126358260076063866001612e11565b90506128bd565b602183141561265c576126558260076063866002612e11565b90506128bd565b602283141561267c576126758260076008866003612e11565b90506128bd565b602383141561269c576126958260116063866001612e11565b90506128bd565b60248314156126bc576126b58260116063866002612e11565b90506128bd565b60258314156126dc576126d58260016063866002612e11565b90506128bd565b60268314156126fc576126f58260016063866003612e11565b90506128bd565b602783141561271c576127158260006011866001612e11565b90506128bd565b602883141561273c576127358260006011866002612e11565b90506128bd565b602983141561275c576127558260076009866001612e11565b90506128bd565b602a83141561277c576127758260076009866002612e11565b90506128bd565b602b83141561279c576127958260036007866001612e11565b90506128bd565b602c8314156127bc576127b58260036007866002612e11565b90506128bd565b602d8314156127dc576127d58260036007866003612e11565b90506128bd565b602e8314156127fc576127f582600b6003866001612e11565b90506128bd565b602f83141561281c5761281582600b6003866002612e11565b90506128bd565b603083141561283c5761283582600b6007866001612e11565b90506128bd565b603183141561285c5761285582600b6007866003612e11565b90506128bd565b603283141561287c576128758260086063866002612e11565b90506128bd565b603383141561289c576128958260086063866003612e11565b90506128bd565b60348314156128bc576128b58260006063866002612e11565b90506128bd565b5b92915050565b6128dd828260405180602001604052806000815250612f25565b5050565b6001816000016000828254019250508190555050565b8173ffffffffffffffffffffffffffffffffffffffff168373ffffffffffffffffffffffffffffffffffffffff161415612966576040517f08c379a000000000000000000000000000000000000000000000000000000000815260040161295d906142fb565b60405180910390fd5b80600560008573ffffffffffffffffffffffffffffffffffffffff1673ffffffffffffffffffffffffffffffffffffffff16815260200190815260200160002060008473ffffffffffffffffffffffffffffffffffffffff1673ffffffffffffffffffffffffffffffffffffffff16815260200190815260200160002060006101000a81548160ff0219169083151502179055508173ffffffffffffffffffffffffffffffffffffffff168373ffffffffffffffffffffffffffffffffffffffff167f17307eab39ab6107e8899845ad3d59bd9653f200f220920489ca2b5937696c3183604051612a579190614203565b60405180910390a3505050565b612a6f848484611eb7565b612a7b84848484612f80565b612aba576040517f08c379a0000000000000000000000000000000000000000000000000000000008152600401612ab19061427b565b60405180910390fd5b50505050565b606060405180602001604052806000815250905090565b60606000821415612b1f576040518060400160405280600181526020017f30000000000000000000000000000000000000000000000000000000000000008152509050612c33565b600082905060005b60008214612b51578080612b3a90614919565b915050600a82612b4a919061477f565b9150612b27565b60008167ffffffffffffffff811115612b6d57612b6c614a88565b5b6040519080825280601f01601f191660200182016040528015612b9f5781602001600182028036833780820191505090505b5090505b60008514612c2c57600182612bb891906147b0565b9150600a85612bc7919061496c565b6030612bd39190614729565b60f81b818381518110612be957612be8614a59565b5b60200101907effffffffffffffffffffffffffffffffffffffffffffffffffffffffffffff1916908160001a905350600a85612c25919061477f565b9450612ba3565b8093505050505b919050565b60007f80ac58cd000000000000000000000000000000000000000000000000000000007bffffffffffffffffffffffffffffffffffffffffffffffffffffffff1916827bffffffffffffffffffffffffffffffffffffffffffffffffffffffff19161480612d0357507f5b5e139f000000000000000000000000000000000000000000000000000000007bffffffffffffffffffffffffffffffffffffffffffffffffffffffff1916827bffffffffffffffffffffffffffffffffffffffffffffffffffffffff1916145b80612d135750612d1282613117565b5b9050919050565b612d25838383613181565b505050565b505050565b6000612d3b6011613295565b905090565b60006028612d4e6032613295565b612d589190614729565b905090565b612d6561380a565b6040518061018001604052808e8152602001612d7f6132f1565b8e612d8a9190614729565b8152602001612d976132f1565b8d612da29190614729565b8152602001612daf6132f1565b8c612dba9190614729565b8152602001612dc76132f1565b8b612dd29190614729565b81526020018981526020018881526020018781526020018681526020018581526020018481526020018381525090509c9b505050505050505050505050565b612e1961380a565b6000606490506002831415612e3857601481612e359190614729565b90505b6003831415612e5157603281612e4e9190614729565b90505b6004831415612e6a57604681612e679190614729565b90505b604051806101800160405280888152602001612e846132f1565b83612e8f9190614729565b8152602001612e9c6132f1565b83612ea79190614729565b8152602001612eb46132f1565b83612ebf9190614729565b8152602001612ecc6132f1565b83612ed79190614729565b8152602001878152602001868152602001878152602001612ef6612d40565b8152602001612f03612d2f565b8152602001612f10612d40565b81526020018581525091505095945050505050565b612f2f8383613302565b612f3c6000848484612f80565b612f7b576040517f08c379a0000000000000000000000000000000000000000000000000000000008152600401612f729061427b565b60405180910390fd5b505050565b6000612fa18473ffffffffffffffffffffffffffffffffffffffff166134dc565b1561310a578373ffffffffffffffffffffffffffffffffffffffff1663150b7a02612fca611d18565b8786866040518563ffffffff1660e01b8152600401612fec94939291906141b7565b602060405180830381600087803b15801561300657600080fd5b505af192505050801561303757506040513d601f19601f820116820180604052508101906130349190613b76565b60015b6130ba573d8060008114613067576040519150601f19603f3d011682016040523d82523d6000602084013e61306c565b606091505b506000815114156130b2576040517f08c379a00000000000000000000000000000000000000000000000000000000081526004016130a99061427b565b60405180910390fd5b805181602001fd5b63150b7a0260e01b7bffffffffffffffffffffffffffffffffffffffffffffffffffffffff1916817bffffffffffffffffffffffffffffffffffffffffffffffffffffffff19161491505061310f565b600190505b949350505050565b60007f01ffc9a7000000000000000000000000000000000000000000000000000000007bffffffffffffffffffffffffffffffffffffffffffffffffffffffff1916827bffffffffffffffffffffffffffffffffffffffffffffffffffffffff1916149050919050565b61318c8383836134ff565b600073ffffffffffffffffffffffffffffffffffffffff168373ffffffffffffffffffffffffffffffffffffffff1614156131cf576131ca81613504565b61320e565b8173ffffffffffffffffffffffffffffffffffffffff168373ffffffffffffffffffffffffffffffffffffffff161461320d5761320c838261354d565b5b5b600073ffffffffffffffffffffffffffffffffffffffff168273ffffffffffffffffffffffffffffffffffffffff1614156132515761324c816136ba565b613290565b8273ffffffffffffffffffffffffffffffffffffffff168273ffffffffffffffffffffffffffffffffffffffff161461328f5761328e828261378b565b5b5b505050565b6000600d60008154809291906132aa90614919565b9190505550814442600d546040516020016132c79392919061415f565b6040516020818303038152906040528051906020012060001c6132ea919061496c565b9050919050565b60006132fd6014613295565b905090565b600073ffffffffffffffffffffffffffffffffffffffff168273ffffffffffffffffffffffffffffffffffffffff161415613372576040517f08c379a00000000000000000000000000000000000000000000000000000000081526004016133699061439b565b60405180910390fd5b61337b81611cac565b156133bb576040517f08c379a00000000000000000000000000000000000000000000000000000000081526004016133b2906142bb565b60405180910390fd5b6133c760008383612d1a565b6001600360008473ffffffffffffffffffffffffffffffffffffffff1673ffffffffffffffffffffffffffffffffffffffff16815260200190815260200160002060008282546134179190614729565b92505081905550816002600083815260200190815260200160002060006101000a81548173ffffffffffffffffffffffffffffffffffffffff021916908373ffffffffffffffffffffffffffffffffffffffff160217905550808273ffffffffffffffffffffffffffffffffffffffff16600073ffffffffffffffffffffffffffffffffffffffff167fddf252ad1be2c89b69c2b068fc378daa952ba7f163c4a11628f55a4df523b3ef60405160405180910390a46134d860008383612d2a565b5050565b6000808273ffffffffffffffffffffffffffffffffffffffff163b119050919050565b505050565b6008805490506009600083815260200190815260200160002081905550600881908060018154018082558091505060019003906000526020600020016000909190919091505550565b6000600161355a84610bb4565b61356491906147b0565b9050600060076000848152602001908152602001600020549050818114613649576000600660008673ffffffffffffffffffffffffffffffffffffffff1673ffffffffffffffffffffffffffffffffffffffff168152602001908152602001600020600084815260200190815260200160002054905080600660008773ffffffffffffffffffffffffffffffffffffffff1673ffffffffffffffffffffffffffffffffffffffff168152602001908152602001600020600084815260200190815260200160002081905550816007600083815260200190815260200160002081905550505b6007600084815260200190815260200160002060009055600660008573ffffffffffffffffffffffffffffffffffffffff1673ffffffffffffffffffffffffffffffffffffffff16815260200190815260200160002060008381526020019081526020016000206000905550505050565b600060016008805490506136ce91906147b0565b90506000600960008481526020019081526020016000205490506000600883815481106136fe576136fd614a59565b5b9060005260206000200154905080600883815481106137205761371f614a59565b5b90600052602060002001819055508160096000838152602001908152602001600020819055506009600085815260200190815260200160002060009055600880548061376f5761376e614a2a565b5b6001900381819060005260206000200160009055905550505050565b600061379683610bb4565b905081600660008573ffffffffffffffffffffffffffffffffffffffff1673ffffffffffffffffffffffffffffffffffffffff168152602001908152602001600020600083815260200190815260200160002081905550806007600084815260200190815260200160002081905550505050565b6040518061018001604052806000815260200160008152602001600081526020016000815260200160008152602001600081526020016000815260200160008152602001600081526020016000815260200160008152602001600081525090565b600061387e6138798461467c565b614657565b90508281526020810184848401111561389a57613899614abc565b5b6138a5848285614874565b509392505050565b6000813590506138bc81614fa9565b92915050565b6000813590506138d181614fc0565b92915050565b6000815190506138e681614fd7565b92915050565b6000813590506138fb81614fee565b92915050565b60008151905061391081614fee565b92915050565b600082601f83011261392b5761392a614ab7565b5b813561393b84826020860161386b565b91505092915050565b60008135905061395381615005565b92915050565b60006020828403121561396f5761396e614ac6565b5b600061397d848285016138ad565b91505092915050565b6000806040838503121561399d5761399c614ac6565b5b60006139ab858286016138ad565b92505060206139bc858286016138ad565b9150509250929050565b6000806000606084860312156139df576139de614ac6565b5b60006139ed868287016138ad565b93505060206139fe868287016138ad565b9250506040613a0f86828701613944565b9150509250925092565b60008060008060808587031215613a3357613a32614ac6565b5b6000613a41878288016138ad565b9450506020613a52878288016138ad565b9350506040613a6387828801613944565b925050606085013567ffffffffffffffff811115613a8457613a83614ac1565b5b613a9087828801613916565b91505092959194509250565b60008060408385031215613ab357613ab2614ac6565b5b6000613ac1858286016138ad565b9250506020613ad2858286016138c2565b9150509250929050565b60008060408385031215613af357613af2614ac6565b5b6000613b01858286016138ad565b9250506020613b1285828601613944565b9150509250929050565b600060208284031215613b3257613b31614ac6565b5b6000613b40848285016138d7565b91505092915050565b600060208284031215613b5f57613b5e614ac6565b5b6000613b6d848285016138ec565b91505092915050565b600060208284031215613b8c57613b8b614ac6565b5b6000613b9a84828501613901565b91505092915050565b600060208284031215613bb957613bb8614ac6565b5b6000613bc784828501613944565b91505092915050565b60008060408385031215613be757613be6614ac6565b5b6000613bf585828601613944565b9250506020613c0685828601613944565b9150509250929050565b60008060008060808587031215613c2a57613c29614ac6565b5b6000613c3887828801613944565b9450506020613c4987828801613944565b9350506040613c5a87828801613944565b9250506060613c6b87828801613944565b91505092959194509250565b6000613c838383614106565b60208301905092915050565b613c98816147e4565b82525050565b6000613ca9826146bd565b613cb381856146eb565b9350613cbe836146ad565b8060005b83811015613cef578151613cd68882613c77565b9750613ce1836146de565b925050600181019050613cc2565b5085935050505092915050565b613d05816147f6565b82525050565b6000613d16826146c8565b613d2081856146fc565b9350613d30818560208601614883565b613d3981614acb565b840191505092915050565b613d4d81614862565b82525050565b6000613d5e826146d3565b613d68818561470d565b9350613d78818560208601614883565b613d8181614acb565b840191505092915050565b6000613d97826146d3565b613da1818561471e565b9350613db1818560208601614883565b80840191505092915050565b6000613dca602b8361470d565b9150613dd582614adc565b604082019050919050565b6000613ded60328361470d565b9150613df882614b2b565b604082019050919050565b6000613e1060258361470d565b9150613e1b82614b7a565b604082019050919050565b6000613e33601c8361470d565b9150613e3e82614bc9565b602082019050919050565b6000613e5660248361470d565b9150613e6182614bf2565b604082019050919050565b6000613e7960198361470d565b9150613e8482614c41565b602082019050919050565b6000613e9c602c8361470d565b9150613ea782614c6a565b604082019050919050565b6000613ebf60388361470d565b9150613eca82614cb9565b604082019050919050565b6000613ee2602a8361470d565b9150613eed82614d08565b604082019050919050565b6000613f0560298361470d565b9150613f1082614d57565b604082019050919050565b6000613f2860208361470d565b9150613f3382614da6565b602082019050919050565b6000613f4b602c8361470d565b9150613f5682614dcf565b604082019050919050565b6000613f6e602f8361470d565b9150613f7982614e1e565b604082019050919050565b6000613f9160218361470d565b9150613f9c82614e6d565b604082019050919050565b6000613fb460318361470d565b9150613fbf82614ebc565b604082019050919050565b6000613fd7602c8361470d565b9150613fe282614f0b565b604082019050919050565b6000613ffa60308361470d565b915061400582614f5a565b604082019050919050565b610180820160008201516140276000850182614106565b50602082015161403a6020850182614106565b50604082015161404d6040850182614106565b5060608201516140606060850182614106565b5060808201516140736080850182614106565b5060a082015161408660a0850182614106565b5060c082015161409960c0850182614106565b5060e08201516140ac60e0850182614106565b506101008201516140c1610100850182614106565b506101208201516140d6610120850182614106565b506101408201516140eb610140850182614106565b50610160820151614100610160850182614106565b50505050565b61410f81614858565b82525050565b61411e81614858565b82525050565b61413561413082614858565b614962565b82525050565b60006141478285613d8c565b91506141538284613d8c565b91508190509392505050565b600061416b8286614124565b60208201915061417b8285614124565b60208201915061418b8284614124565b602082019150819050949350505050565b60006020820190506141b16000830184613c8f565b92915050565b60006080820190506141cc6000830187613c8f565b6141d96020830186613c8f565b6141e66040830185614115565b81810360608301526141f88184613d0b565b905095945050505050565b60006020820190506142186000830184613cfc565b92915050565b60006020820190506142336000830184613d44565b92915050565b600060208201905081810360008301526142538184613d53565b905092915050565b6000602082019050818103600083015261427481613dbd565b9050919050565b6000602082019050818103600083015261429481613de0565b9050919050565b600060208201905081810360008301526142b481613e03565b9050919050565b600060208201905081810360008301526142d481613e26565b9050919050565b600060208201905081810360008301526142f481613e49565b9050919050565b6000602082019050818103600083015261431481613e6c565b9050919050565b6000602082019050818103600083015261433481613e8f565b9050919050565b6000602082019050818103600083015261435481613eb2565b9050919050565b6000602082019050818103600083015261437481613ed5565b9050919050565b6000602082019050818103600083015261439481613ef8565b9050919050565b600060208201905081810360008301526143b481613f1b565b9050919050565b600060208201905081810360008301526143d481613f3e565b9050919050565b600060208201905081810360008301526143f481613f61565b9050919050565b6000602082019050818103600083015261441481613f84565b9050919050565b6000602082019050818103600083015261443481613fa7565b9050919050565b6000602082019050818103600083015261445481613fca565b9050919050565b6000602082019050818103600083015261447481613fed565b9050919050565b6000610300820190506144916000830185614010565b61449f610180830184614010565b9392505050565b60006020820190506144bb6000830184614115565b92915050565b60006040820190506144d66000830185614115565b81810360208301526144e88184613c9e565b90509392505050565b60006040820190506145066000830185614115565b6145136020830184614115565b9392505050565b600060608201905061452f6000830186614115565b61453c6020830185614115565b818103604083015261454e8184613c9e565b9050949350505050565b600060808201905061456d6000830187614115565b61457a6020830186614115565b6145876040830185614115565b6145946060830184614115565b95945050505050565b6000610180820190506145b3600083018f614115565b6145c0602083018e614115565b6145cd604083018d614115565b6145da606083018c614115565b6145e7608083018b614115565b6145f460a083018a614115565b61460160c0830189614115565b61460e60e0830188614115565b61461c610100830187614115565b61462a610120830186614115565b614638610140830185614115565b614646610160830184614115565b9d9c50505050505050505050505050565b6000614661614672565b905061466d82826148e8565b919050565b6000604051905090565b600067ffffffffffffffff82111561469757614696614a88565b5b6146a082614acb565b9050602081019050919050565b6000819050602082019050919050565b600081519050919050565b600081519050919050565b600081519050919050565b6000602082019050919050565b600082825260208201905092915050565b600082825260208201905092915050565b600082825260208201905092915050565b600081905092915050565b600061473482614858565b915061473f83614858565b9250827fffffffffffffffffffffffffffffffffffffffffffffffffffffffffffffffff038211156147745761477361499d565b5b828201905092915050565b600061478a82614858565b915061479583614858565b9250826147a5576147a46149cc565b5b828204905092915050565b60006147bb82614858565b91506147c683614858565b9250828210156147d9576147d861499d565b5b828203905092915050565b60006147ef82614838565b9050919050565b60008115159050919050565b6000819050919050565b60007fffffffff0000000000000000000000000000000000000000000000000000000082169050919050565b600073ffffffffffffffffffffffffffffffffffffffff82169050919050565b6000819050919050565b600061486d82614858565b9050919050565b82818337600083830152505050565b60005b838110156148a1578082015181840152602081019050614886565b838111156148b0576000848401525b50505050565b600060028204905060018216806148ce57607f821691505b602082108114156148e2576148e16149fb565b5b50919050565b6148f182614acb565b810181811067ffffffffffffffff821117156149105761490f614a88565b5b80604052505050565b600061492482614858565b91507fffffffffffffffffffffffffffffffffffffffffffffffffffffffffffffffff8214156149575761495661499d565b5b600182019050919050565b6000819050919050565b600061497782614858565b915061498283614858565b925082614992576149916149cc565b5b828206905092915050565b7f4e487b7100000000000000000000000000000000000000000000000000000000600052601160045260246000fd5b7f4e487b7100000000000000000000000000000000000000000000000000000000600052601260045260246000fd5b7f4e487b7100000000000000000000000000000000000000000000000000000000600052602260045260246000fd5b7f4e487b7100000000000000000000000000000000000000000000000000000000600052603160045260246000fd5b7f4e487b7100000000000000000000000000000000000000000000000000000000600052603260045260246000fd5b7f4e487b7100000000000000000000000000000000000000000000000000000000600052604160045260246000fd5b600080fd5b600080fd5b600080fd5b600080fd5b6000601f19601f8301169050919050565b7f455243373231456e756d657261626c653a206f776e657220696e646578206f7560008201527f74206f6620626f756e6473000000000000000000000000000000000000000000602082015250565b7f4552433732313a207472616e7366657220746f206e6f6e20455243373231526560008201527f63656976657220696d706c656d656e7465720000000000000000000000000000602082015250565b7f4552433732313a207472616e736665722066726f6d20696e636f72726563742060008201527f6f776e6572000000000000000000000000000000000000000000000000000000602082015250565b7f4552433732313a20746f6b656e20616c7265616479206d696e74656400000000600082015250565b7f4552433732313a207472616e7366657220746f20746865207a65726f2061646460008201527f7265737300000000000000000000000000000000000000000000000000000000602082015250565b7f4552433732313a20617070726f766520746f2063616c6c657200000000000000600082015250565b7f4552433732313a206f70657261746f7220717565727920666f72206e6f6e657860008201527f697374656e7420746f6b656e0000000000000000000000000000000000000000602082015250565b7f4552433732313a20617070726f76652063616c6c6572206973206e6f74206f7760008201527f6e6572206e6f7220617070726f76656420666f7220616c6c0000000000000000602082015250565b7f4552433732313a2062616c616e636520717565727920666f7220746865207a6560008201527f726f206164647265737300000000000000000000000000000000000000000000602082015250565b7f4552433732313a206f776e657220717565727920666f72206e6f6e657869737460008201527f656e7420746f6b656e0000000000000000000000000000000000000000000000602082015250565b7f4552433732313a206d696e7420746f20746865207a65726f2061646472657373600082015250565b7f4552433732313a20617070726f76656420717565727920666f72206e6f6e657860008201527f697374656e7420746f6b656e0000000000000000000000000000000000000000602082015250565b7f4552433732314d657461646174613a2055524920717565727920666f72206e6f60008201527f6e6578697374656e7420746f6b656e0000000000000000000000000000000000602082015250565b7f4552433732313a20617070726f76616c20746f2063757272656e74206f776e6560008201527f7200000000000000000000000000000000000000000000000000000000000000602082015250565b7f4552433732313a207472616e736665722063616c6c6572206973206e6f74206f60008201527f776e6572206e6f7220617070726f766564000000000000000000000000000000602082015250565b7f455243373231456e756d657261626c653a20676c6f62616c20696e646578206f60008201527f7574206f6620626f756e64730000000000000000000000000000000000000000602082015250565b7f4f6e6c792076616c696420646578206e756d626572732e204d7573742062652060008201527f6265747765656e203120616e6420353200000000000000000000000000000000602082015250565b614fb2816147e4565b8114614fbd57600080fd5b50565b614fc9816147f6565b8114614fd457600080fd5b50565b614fe081614802565b8114614feb57600080fd5b50565b614ff78161480c565b811461500257600080fd5b50565b61500e81614858565b811461501957600080fd5b5056fea2646970667358221220c4768244b04d86a37d1c50af8f9ab1a52471c51c5b347ba5fb1e0fd0b252fc7264736f6c63430008070033",
      "opcodes": "PUSH1 0x80 PUSH1 0x40 MSTORE PUSH32 0x2CECA6B6D4D9F6B0DA9A08F01B328FC06539267740FE1E14526FBBA7F78E0C9 PUSH1 0xB SSTORE PUSH1 0x0 PUSH1 0xC SSTORE PUSH1 0x0 PUSH1 0xD SSTORE CALLVALUE DUP1 ISZERO PUSH3 0x3F JUMPI PUSH1 0x0 DUP1 REVERT JUMPDEST POP PUSH1 0x40 MLOAD DUP1 PUSH1 0x40 ADD PUSH1 0x40 MSTORE DUP1 PUSH1 0xA DUP2 MSTORE PUSH1 0x20 ADD PUSH32 0x506F6B656D6F6E4E465400000000000000000000000000000000000000000000 DUP2 MSTORE POP PUSH1 0x40 MLOAD DUP1 PUSH1 0x40 ADD PUSH1 0x40 MSTORE DUP1 PUSH1 0x4 DUP2 MSTORE PUSH1 0x20 ADD PUSH32 0x504B4D4E00000000000000000000000000000000000000000000000000000000 DUP2 MSTORE POP DUP2 PUSH1 0x0 SWAP1 DUP1 MLOAD SWAP1 PUSH1 0x20 ADD SWAP1 PUSH3 0xC4 SWAP3 SWAP2 SWAP1 PUSH3 0x13B JUMP JUMPDEST POP DUP1 PUSH1 0x1 SWAP1 DUP1 MLOAD SWAP1 PUSH1 0x20 ADD SWAP1 PUSH3 0xDD SWAP3 SWAP2 SWAP1 PUSH3 0x13B JUMP JUMPDEST POP POP POP PUSH20 0xDE29D060D45901FB19ED6C6E959EB22D8626708E PUSH1 0xA PUSH1 0x0 PUSH2 0x100 EXP DUP2 SLOAD DUP2 PUSH20 0xFFFFFFFFFFFFFFFFFFFFFFFFFFFFFFFFFFFFFFFF MUL NOT AND SWAP1 DUP4 PUSH20 0xFFFFFFFFFFFFFFFFFFFFFFFFFFFFFFFFFFFFFFFF AND MUL OR SWAP1 SSTORE POP PUSH3 0x250 JUMP JUMPDEST DUP3 DUP1 SLOAD PUSH3 0x149 SWAP1 PUSH3 0x1EB JUMP JUMPDEST SWAP1 PUSH1 0x0 MSTORE PUSH1 0x20 PUSH1 0x0 KECCAK256 SWAP1 PUSH1 0x1F ADD PUSH1 0x20 SWAP1 DIV DUP2 ADD SWAP3 DUP3 PUSH3 0x16D JUMPI PUSH1 0x0 DUP6 SSTORE PUSH3 0x1B9 JUMP JUMPDEST DUP3 PUSH1 0x1F LT PUSH3 0x188 JUMPI DUP1 MLOAD PUSH1 0xFF NOT AND DUP4 DUP1 ADD OR DUP6 SSTORE PUSH3 0x1B9 JUMP JUMPDEST DUP3 DUP1 ADD PUSH1 0x1 ADD DUP6 SSTORE DUP3 ISZERO PUSH3 0x1B9 JUMPI SWAP2 DUP3 ADD JUMPDEST DUP3 DUP2 GT ISZERO PUSH3 0x1B8 JUMPI DUP3 MLOAD DUP3 SSTORE SWAP2 PUSH1 0x20 ADD SWAP2 SWAP1 PUSH1 0x1 ADD SWAP1 PUSH3 0x19B JUMP JUMPDEST JUMPDEST POP SWAP1 POP PUSH3 0x1C8 SWAP2 SWAP1 PUSH3 0x1CC JUMP JUMPDEST POP SWAP1 JUMP JUMPDEST JUMPDEST DUP1 DUP3 GT ISZERO PUSH3 0x1E7 JUMPI PUSH1 0x0 DUP2 PUSH1 0x0 SWAP1 SSTORE POP PUSH1 0x1 ADD PUSH3 0x1CD JUMP JUMPDEST POP SWAP1 JUMP JUMPDEST PUSH1 0x0 PUSH1 0x2 DUP3 DIV SWAP1 POP PUSH1 0x1 DUP3 AND DUP1 PUSH3 0x204 JUMPI PUSH1 0x7F DUP3 AND SWAP2 POP JUMPDEST PUSH1 0x20 DUP3 LT DUP2 EQ ISZERO PUSH3 0x21B JUMPI PUSH3 0x21A PUSH3 0x221 JUMP JUMPDEST JUMPDEST POP SWAP2 SWAP1 POP JUMP JUMPDEST PUSH32 0x4E487B7100000000000000000000000000000000000000000000000000000000 PUSH1 0x0 MSTORE PUSH1 0x22 PUSH1 0x4 MSTORE PUSH1 0x24 PUSH1 0x0 REVERT JUMPDEST PUSH2 0x5052 DUP1 PUSH3 0x260 PUSH1 0x0 CODECOPY PUSH1 0x0 RETURN INVALID PUSH1 0x80 PUSH1 0x40 MSTORE PUSH1 0x4 CALLDATASIZE LT PUSH2 0x140 JUMPI PUSH1 0x0 CALLDATALOAD PUSH1 0xE0 SHR DUP1 PUSH4 0x70A08231 GT PUSH2 0xB6 JUMPI DUP1 PUSH4 0xAD5DBC29 GT PUSH2 0x6F JUMPI DUP1 PUSH4 0xAD5DBC29 EQ PUSH2 0x4A3 JUMPI DUP1 PUSH4 0xB88D4FDE EQ PUSH2 0x4CC JUMPI DUP1 PUSH4 0xC87B56DD EQ PUSH2 0x4F5 JUMPI DUP1 PUSH4 0xD5F39A5B EQ PUSH2 0x532 JUMPI DUP1 PUSH4 0xD82FE3B7 EQ PUSH2 0x56F JUMPI DUP1 PUSH4 0xE985E9C5 EQ PUSH2 0x5B7 JUMPI PUSH2 0x140 JUMP JUMPDEST DUP1 PUSH4 0x70A08231 EQ PUSH2 0x385 JUMPI DUP1 PUSH4 0x85831079 EQ PUSH2 0x3C2 JUMPI DUP1 PUSH4 0x85B1C79D EQ PUSH2 0x40A JUMPI DUP1 PUSH4 0x95D89B41 EQ PUSH2 0x426 JUMPI DUP1 PUSH4 0xA0712D68 EQ PUSH2 0x451 JUMPI DUP1 PUSH4 0xA22CB465 EQ PUSH2 0x47A JUMPI PUSH2 0x140 JUMP JUMPDEST DUP1 PUSH4 0x1992F36D GT PUSH2 0x108 JUMPI DUP1 PUSH4 0x1992F36D EQ PUSH2 0x23E JUMPI DUP1 PUSH4 0x23B872DD EQ PUSH2 0x27C JUMPI DUP1 PUSH4 0x2F745C59 EQ PUSH2 0x2A5 JUMPI DUP1 PUSH4 0x42842E0E EQ PUSH2 0x2E2 JUMPI DUP1 PUSH4 0x4F6CCCE7 EQ PUSH2 0x30B JUMPI DUP1 PUSH4 0x6352211E EQ PUSH2 0x348 JUMPI PUSH2 0x140 JUMP JUMPDEST DUP1 PUSH4 0x1FFC9A7 EQ PUSH2 0x145 JUMPI DUP1 PUSH4 0x6FDDE03 EQ PUSH2 0x182 JUMPI DUP1 PUSH4 0x81812FC EQ PUSH2 0x1AD JUMPI DUP1 PUSH4 0x95EA7B3 EQ PUSH2 0x1EA JUMPI DUP1 PUSH4 0x18160DDD EQ PUSH2 0x213 JUMPI JUMPDEST PUSH1 0x0 DUP1 REVERT JUMPDEST CALLVALUE DUP1 ISZERO PUSH2 0x151 JUMPI PUSH1 0x0 DUP1 REVERT JUMPDEST POP PUSH2 0x16C PUSH1 0x4 DUP1 CALLDATASIZE SUB DUP2 ADD SWAP1 PUSH2 0x167 SWAP2 SWAP1 PUSH2 0x3B49 JUMP JUMPDEST PUSH2 0x5F4 JUMP JUMPDEST PUSH1 0x40 MLOAD PUSH2 0x179 SWAP2 SWAP1 PUSH2 0x4203 JUMP JUMPDEST PUSH1 0x40 MLOAD DUP1 SWAP2 SUB SWAP1 RETURN JUMPDEST CALLVALUE DUP1 ISZERO PUSH2 0x18E JUMPI PUSH1 0x0 DUP1 REVERT JUMPDEST POP PUSH2 0x197 PUSH2 0x606 JUMP JUMPDEST PUSH1 0x40 MLOAD PUSH2 0x1A4 SWAP2 SWAP1 PUSH2 0x4239 JUMP JUMPDEST PUSH1 0x40 MLOAD DUP1 SWAP2 SUB SWAP1 RETURN JUMPDEST CALLVALUE DUP1 ISZERO PUSH2 0x1B9 JUMPI PUSH1 0x0 DUP1 REVERT JUMPDEST POP PUSH2 0x1D4 PUSH1 0x4 DUP1 CALLDATASIZE SUB DUP2 ADD SWAP1 PUSH2 0x1CF SWAP2 SWAP1 PUSH2 0x3BA3 JUMP JUMPDEST PUSH2 0x698 JUMP JUMPDEST PUSH1 0x40 MLOAD PUSH2 0x1E1 SWAP2 SWAP1 PUSH2 0x419C JUMP JUMPDEST PUSH1 0x40 MLOAD DUP1 SWAP2 SUB SWAP1 RETURN JUMPDEST CALLVALUE DUP1 ISZERO PUSH2 0x1F6 JUMPI PUSH1 0x0 DUP1 REVERT JUMPDEST POP PUSH2 0x211 PUSH1 0x4 DUP1 CALLDATASIZE SUB DUP2 ADD SWAP1 PUSH2 0x20C SWAP2 SWAP1 PUSH2 0x3ADC JUMP JUMPDEST PUSH2 0x71D JUMP JUMPDEST STOP JUMPDEST CALLVALUE DUP1 ISZERO PUSH2 0x21F JUMPI PUSH1 0x0 DUP1 REVERT JUMPDEST POP PUSH2 0x228 PUSH2 0x835 JUMP JUMPDEST PUSH1 0x40 MLOAD PUSH2 0x235 SWAP2 SWAP1 PUSH2 0x44A6 JUMP JUMPDEST PUSH1 0x40 MLOAD DUP1 SWAP2 SUB SWAP1 RETURN JUMPDEST CALLVALUE DUP1 ISZERO PUSH2 0x24A JUMPI PUSH1 0x0 DUP1 REVERT JUMPDEST POP PUSH2 0x265 PUSH1 0x4 DUP1 CALLDATASIZE SUB DUP2 ADD SWAP1 PUSH2 0x260 SWAP2 SWAP1 PUSH2 0x3BA3 JUMP JUMPDEST PUSH2 0x842 JUMP JUMPDEST PUSH1 0x40 MLOAD PUSH2 0x273 SWAP3 SWAP2 SWAP1 PUSH2 0x447B JUMP JUMPDEST PUSH1 0x40 MLOAD DUP1 SWAP2 SUB SWAP1 RETURN JUMPDEST CALLVALUE DUP1 ISZERO PUSH2 0x288 JUMPI PUSH1 0x0 DUP1 REVERT JUMPDEST POP PUSH2 0x2A3 PUSH1 0x4 DUP1 CALLDATASIZE SUB DUP2 ADD SWAP1 PUSH2 0x29E SWAP2 SWAP1 PUSH2 0x39C6 JUMP JUMPDEST PUSH2 0x96C JUMP JUMPDEST STOP JUMPDEST CALLVALUE DUP1 ISZERO PUSH2 0x2B1 JUMPI PUSH1 0x0 DUP1 REVERT JUMPDEST POP PUSH2 0x2CC PUSH1 0x4 DUP1 CALLDATASIZE SUB DUP2 ADD SWAP1 PUSH2 0x2C7 SWAP2 SWAP1 PUSH2 0x3ADC JUMP JUMPDEST PUSH2 0x9CC JUMP JUMPDEST PUSH1 0x40 MLOAD PUSH2 0x2D9 SWAP2 SWAP1 PUSH2 0x44A6 JUMP JUMPDEST PUSH1 0x40 MLOAD DUP1 SWAP2 SUB SWAP1 RETURN JUMPDEST CALLVALUE DUP1 ISZERO PUSH2 0x2EE JUMPI PUSH1 0x0 DUP1 REVERT JUMPDEST POP PUSH2 0x309 PUSH1 0x4 DUP1 CALLDATASIZE SUB DUP2 ADD SWAP1 PUSH2 0x304 SWAP2 SWAP1 PUSH2 0x39C6 JUMP JUMPDEST PUSH2 0xA71 JUMP JUMPDEST STOP JUMPDEST CALLVALUE DUP1 ISZERO PUSH2 0x317 JUMPI PUSH1 0x0 DUP1 REVERT JUMPDEST POP PUSH2 0x332 PUSH1 0x4 DUP1 CALLDATASIZE SUB DUP2 ADD SWAP1 PUSH2 0x32D SWAP2 SWAP1 PUSH2 0x3BA3 JUMP JUMPDEST PUSH2 0xA91 JUMP JUMPDEST PUSH1 0x40 MLOAD PUSH2 0x33F SWAP2 SWAP1 PUSH2 0x44A6 JUMP JUMPDEST PUSH1 0x40 MLOAD DUP1 SWAP2 SUB SWAP1 RETURN JUMPDEST CALLVALUE DUP1 ISZERO PUSH2 0x354 JUMPI PUSH1 0x0 DUP1 REVERT JUMPDEST POP PUSH2 0x36F PUSH1 0x4 DUP1 CALLDATASIZE SUB DUP2 ADD SWAP1 PUSH2 0x36A SWAP2 SWAP1 PUSH2 0x3BA3 JUMP JUMPDEST PUSH2 0xB02 JUMP JUMPDEST PUSH1 0x40 MLOAD PUSH2 0x37C SWAP2 SWAP1 PUSH2 0x419C JUMP JUMPDEST PUSH1 0x40 MLOAD DUP1 SWAP2 SUB SWAP1 RETURN JUMPDEST CALLVALUE DUP1 ISZERO PUSH2 0x391 JUMPI PUSH1 0x0 DUP1 REVERT JUMPDEST POP PUSH2 0x3AC PUSH1 0x4 DUP1 CALLDATASIZE SUB DUP2 ADD SWAP1 PUSH2 0x3A7 SWAP2 SWAP1 PUSH2 0x3959 JUMP JUMPDEST PUSH2 0xBB4 JUMP JUMPDEST PUSH1 0x40 MLOAD PUSH2 0x3B9 SWAP2 SWAP1 PUSH2 0x44A6 JUMP JUMPDEST PUSH1 0x40 MLOAD DUP1 SWAP2 SUB SWAP1 RETURN JUMPDEST CALLVALUE DUP1 ISZERO PUSH2 0x3CE JUMPI PUSH1 0x0 DUP1 REVERT JUMPDEST POP PUSH2 0x3E9 PUSH1 0x4 DUP1 CALLDATASIZE SUB DUP2 ADD SWAP1 PUSH2 0x3E4 SWAP2 SWAP1 PUSH2 0x3BA3 JUMP JUMPDEST PUSH2 0xC6C JUMP JUMPDEST PUSH1 0x40 MLOAD PUSH2 0x401 SWAP13 SWAP12 SWAP11 SWAP10 SWAP9 SWAP8 SWAP7 SWAP6 SWAP5 SWAP4 SWAP3 SWAP2 SWAP1 PUSH2 0x459D JUMP JUMPDEST PUSH1 0x40 MLOAD DUP1 SWAP2 SUB SWAP1 RETURN JUMPDEST PUSH2 0x424 PUSH1 0x4 DUP1 CALLDATASIZE SUB DUP2 ADD SWAP1 PUSH2 0x41F SWAP2 SWAP1 PUSH2 0x3BD0 JUMP JUMPDEST PUSH2 0xCDC JUMP JUMPDEST STOP JUMPDEST CALLVALUE DUP1 ISZERO PUSH2 0x432 JUMPI PUSH1 0x0 DUP1 REVERT JUMPDEST POP PUSH2 0x43B PUSH2 0x1551 JUMP JUMPDEST PUSH1 0x40 MLOAD PUSH2 0x448 SWAP2 SWAP1 PUSH2 0x4239 JUMP JUMPDEST PUSH1 0x40 MLOAD DUP1 SWAP2 SUB SWAP1 RETURN JUMPDEST CALLVALUE DUP1 ISZERO PUSH2 0x45D JUMPI PUSH1 0x0 DUP1 REVERT JUMPDEST POP PUSH2 0x478 PUSH1 0x4 DUP1 CALLDATASIZE SUB DUP2 ADD SWAP1 PUSH2 0x473 SWAP2 SWAP1 PUSH2 0x3BA3 JUMP JUMPDEST PUSH2 0x15E3 JUMP JUMPDEST STOP JUMPDEST CALLVALUE DUP1 ISZERO PUSH2 0x486 JUMPI PUSH1 0x0 DUP1 REVERT JUMPDEST POP PUSH2 0x4A1 PUSH1 0x4 DUP1 CALLDATASIZE SUB DUP2 ADD SWAP1 PUSH2 0x49C SWAP2 SWAP1 PUSH2 0x3A9C JUMP JUMPDEST PUSH2 0x1711 JUMP JUMPDEST STOP JUMPDEST CALLVALUE DUP1 ISZERO PUSH2 0x4AF JUMPI PUSH1 0x0 DUP1 REVERT JUMPDEST POP PUSH2 0x4CA PUSH1 0x4 DUP1 CALLDATASIZE SUB DUP2 ADD SWAP1 PUSH2 0x4C5 SWAP2 SWAP1 PUSH2 0x3C10 JUMP JUMPDEST PUSH2 0x1727 JUMP JUMPDEST STOP JUMPDEST CALLVALUE DUP1 ISZERO PUSH2 0x4D8 JUMPI PUSH1 0x0 DUP1 REVERT JUMPDEST POP PUSH2 0x4F3 PUSH1 0x4 DUP1 CALLDATASIZE SUB DUP2 ADD SWAP1 PUSH2 0x4EE SWAP2 SWAP1 PUSH2 0x3A19 JUMP JUMPDEST PUSH2 0x1A1D JUMP JUMPDEST STOP JUMPDEST CALLVALUE DUP1 ISZERO PUSH2 0x501 JUMPI PUSH1 0x0 DUP1 REVERT JUMPDEST POP PUSH2 0x51C PUSH1 0x4 DUP1 CALLDATASIZE SUB DUP2 ADD SWAP1 PUSH2 0x517 SWAP2 SWAP1 PUSH2 0x3BA3 JUMP JUMPDEST PUSH2 0x1A7F JUMP JUMPDEST PUSH1 0x40 MLOAD PUSH2 0x529 SWAP2 SWAP1 PUSH2 0x4239 JUMP JUMPDEST PUSH1 0x40 MLOAD DUP1 SWAP2 SUB SWAP1 RETURN JUMPDEST CALLVALUE DUP1 ISZERO PUSH2 0x53E JUMPI PUSH1 0x0 DUP1 REVERT JUMPDEST POP PUSH2 0x559 PUSH1 0x4 DUP1 CALLDATASIZE SUB DUP2 ADD SWAP1 PUSH2 0x554 SWAP2 SWAP1 PUSH2 0x3BA3 JUMP JUMPDEST PUSH2 0x1B26 JUMP JUMPDEST PUSH1 0x40 MLOAD PUSH2 0x566 SWAP2 SWAP1 PUSH2 0x44A6 JUMP JUMPDEST PUSH1 0x40 MLOAD DUP1 SWAP2 SUB SWAP1 RETURN JUMPDEST CALLVALUE DUP1 ISZERO PUSH2 0x57B JUMPI PUSH1 0x0 DUP1 REVERT JUMPDEST POP PUSH2 0x596 PUSH1 0x4 DUP1 CALLDATASIZE SUB DUP2 ADD SWAP1 PUSH2 0x591 SWAP2 SWAP1 PUSH2 0x3BA3 JUMP JUMPDEST PUSH2 0x1B3E JUMP JUMPDEST PUSH1 0x40 MLOAD PUSH2 0x5AE SWAP13 SWAP12 SWAP11 SWAP10 SWAP9 SWAP8 SWAP7 SWAP6 SWAP5 SWAP4 SWAP3 SWAP2 SWAP1 PUSH2 0x459D JUMP JUMPDEST PUSH1 0x40 MLOAD DUP1 SWAP2 SUB SWAP1 RETURN JUMPDEST CALLVALUE DUP1 ISZERO PUSH2 0x5C3 JUMPI PUSH1 0x0 DUP1 REVERT JUMPDEST POP PUSH2 0x5DE PUSH1 0x4 DUP1 CALLDATASIZE SUB DUP2 ADD SWAP1 PUSH2 0x5D9 SWAP2 SWAP1 PUSH2 0x3986 JUMP JUMPDEST PUSH2 0x1B9E JUMP JUMPDEST PUSH1 0x40 MLOAD PUSH2 0x5EB SWAP2 SWAP1 PUSH2 0x4203 JUMP JUMPDEST PUSH1 0x40 MLOAD DUP1 SWAP2 SUB SWAP1 RETURN JUMPDEST PUSH1 0x0 PUSH2 0x5FF DUP3 PUSH2 0x1C32 JUMP JUMPDEST SWAP1 POP SWAP2 SWAP1 POP JUMP JUMPDEST PUSH1 0x60 PUSH1 0x0 DUP1 SLOAD PUSH2 0x615 SWAP1 PUSH2 0x48B6 JUMP JUMPDEST DUP1 PUSH1 0x1F ADD PUSH1 0x20 DUP1 SWAP2 DIV MUL PUSH1 0x20 ADD PUSH1 0x40 MLOAD SWAP1 DUP2 ADD PUSH1 0x40 MSTORE DUP1 SWAP3 SWAP2 SWAP1 DUP2 DUP2 MSTORE PUSH1 0x20 ADD DUP3 DUP1 SLOAD PUSH2 0x641 SWAP1 PUSH2 0x48B6 JUMP JUMPDEST DUP1 ISZERO PUSH2 0x68E JUMPI DUP1 PUSH1 0x1F LT PUSH2 0x663 JUMPI PUSH2 0x100 DUP1 DUP4 SLOAD DIV MUL DUP4 MSTORE SWAP2 PUSH1 0x20 ADD SWAP2 PUSH2 0x68E JUMP JUMPDEST DUP3 ADD SWAP2 SWAP1 PUSH1 0x0 MSTORE PUSH1 0x20 PUSH1 0x0 KECCAK256 SWAP1 JUMPDEST DUP2 SLOAD DUP2 MSTORE SWAP1 PUSH1 0x1 ADD SWAP1 PUSH1 0x20 ADD DUP1 DUP4 GT PUSH2 0x671 JUMPI DUP3 SWAP1 SUB PUSH1 0x1F AND DUP3 ADD SWAP2 JUMPDEST POP POP POP POP POP SWAP1 POP SWAP1 JUMP JUMPDEST PUSH1 0x0 PUSH2 0x6A3 DUP3 PUSH2 0x1CAC JUMP JUMPDEST PUSH2 0x6E2 JUMPI PUSH1 0x40 MLOAD PUSH32 0x8C379A000000000000000000000000000000000000000000000000000000000 DUP2 MSTORE PUSH1 0x4 ADD PUSH2 0x6D9 SWAP1 PUSH2 0x43BB JUMP JUMPDEST PUSH1 0x40 MLOAD DUP1 SWAP2 SUB SWAP1 REVERT JUMPDEST PUSH1 0x4 PUSH1 0x0 DUP4 DUP2 MSTORE PUSH1 0x20 ADD SWAP1 DUP2 MSTORE PUSH1 0x20 ADD PUSH1 0x0 KECCAK256 PUSH1 0x0 SWAP1 SLOAD SWAP1 PUSH2 0x100 EXP SWAP1 DIV PUSH20 0xFFFFFFFFFFFFFFFFFFFFFFFFFFFFFFFFFFFFFFFF AND SWAP1 POP SWAP2 SWAP1 POP JUMP JUMPDEST PUSH1 0x0 PUSH2 0x728 DUP3 PUSH2 0xB02 JUMP JUMPDEST SWAP1 POP DUP1 PUSH20 0xFFFFFFFFFFFFFFFFFFFFFFFFFFFFFFFFFFFFFFFF AND DUP4 PUSH20 0xFFFFFFFFFFFFFFFFFFFFFFFFFFFFFFFFFFFFFFFF AND EQ ISZERO PUSH2 0x799 JUMPI PUSH1 0x40 MLOAD PUSH32 0x8C379A000000000000000000000000000000000000000000000000000000000 DUP2 MSTORE PUSH1 0x4 ADD PUSH2 0x790 SWAP1 PUSH2 0x43FB JUMP JUMPDEST PUSH1 0x40 MLOAD DUP1 SWAP2 SUB SWAP1 REVERT JUMPDEST DUP1 PUSH20 0xFFFFFFFFFFFFFFFFFFFFFFFFFFFFFFFFFFFFFFFF AND PUSH2 0x7B8 PUSH2 0x1D18 JUMP JUMPDEST PUSH20 0xFFFFFFFFFFFFFFFFFFFFFFFFFFFFFFFFFFFFFFFF AND EQ DUP1 PUSH2 0x7E7 JUMPI POP PUSH2 0x7E6 DUP2 PUSH2 0x7E1 PUSH2 0x1D18 JUMP JUMPDEST PUSH2 0x1B9E JUMP JUMPDEST JUMPDEST PUSH2 0x826 JUMPI PUSH1 0x40 MLOAD PUSH32 0x8C379A000000000000000000000000000000000000000000000000000000000 DUP2 MSTORE PUSH1 0x4 ADD PUSH2 0x81D SWAP1 PUSH2 0x433B JUMP JUMPDEST PUSH1 0x40 MLOAD DUP1 SWAP2 SUB SWAP1 REVERT JUMPDEST PUSH2 0x830 DUP4 DUP4 PUSH2 0x1D20 JUMP JUMPDEST POP POP POP JUMP JUMPDEST PUSH1 0x0 PUSH1 0x8 DUP1 SLOAD SWAP1 POP SWAP1 POP SWAP1 JUMP JUMPDEST PUSH1 0x11 PUSH1 0x20 MSTORE DUP1 PUSH1 0x0 MSTORE PUSH1 0x40 PUSH1 0x0 KECCAK256 PUSH1 0x0 SWAP2 POP SWAP1 POP DUP1 PUSH1 0x0 ADD PUSH1 0x40 MLOAD DUP1 PUSH2 0x180 ADD PUSH1 0x40 MSTORE SWAP1 DUP2 PUSH1 0x0 DUP3 ADD SLOAD DUP2 MSTORE PUSH1 0x20 ADD PUSH1 0x1 DUP3 ADD SLOAD DUP2 MSTORE PUSH1 0x20 ADD PUSH1 0x2 DUP3 ADD SLOAD DUP2 MSTORE PUSH1 0x20 ADD PUSH1 0x3 DUP3 ADD SLOAD DUP2 MSTORE PUSH1 0x20 ADD PUSH1 0x4 DUP3 ADD SLOAD DUP2 MSTORE PUSH1 0x20 ADD PUSH1 0x5 DUP3 ADD SLOAD DUP2 MSTORE PUSH1 0x20 ADD PUSH1 0x6 DUP3 ADD SLOAD DUP2 MSTORE PUSH1 0x20 ADD PUSH1 0x7 DUP3 ADD SLOAD DUP2 MSTORE PUSH1 0x20 ADD PUSH1 0x8 DUP3 ADD SLOAD DUP2 MSTORE PUSH1 0x20 ADD PUSH1 0x9 DUP3 ADD SLOAD DUP2 MSTORE PUSH1 0x20 ADD PUSH1 0xA DUP3 ADD SLOAD DUP2 MSTORE PUSH1 0x20 ADD PUSH1 0xB DUP3 ADD SLOAD DUP2 MSTORE POP POP SWAP1 DUP1 PUSH1 0xC ADD PUSH1 0x40 MLOAD DUP1 PUSH2 0x180 ADD PUSH1 0x40 MSTORE SWAP1 DUP2 PUSH1 0x0 DUP3 ADD SLOAD DUP2 MSTORE PUSH1 0x20 ADD PUSH1 0x1 DUP3 ADD SLOAD DUP2 MSTORE PUSH1 0x20 ADD PUSH1 0x2 DUP3 ADD SLOAD DUP2 MSTORE PUSH1 0x20 ADD PUSH1 0x3 DUP3 ADD SLOAD DUP2 MSTORE PUSH1 0x20 ADD PUSH1 0x4 DUP3 ADD SLOAD DUP2 MSTORE PUSH1 0x20 ADD PUSH1 0x5 DUP3 ADD SLOAD DUP2 MSTORE PUSH1 0x20 ADD PUSH1 0x6 DUP3 ADD SLOAD DUP2 MSTORE PUSH1 0x20 ADD PUSH1 0x7 DUP3 ADD SLOAD DUP2 MSTORE PUSH1 0x20 ADD PUSH1 0x8 DUP3 ADD SLOAD DUP2 MSTORE PUSH1 0x20 ADD PUSH1 0x9 DUP3 ADD SLOAD DUP2 MSTORE PUSH1 0x20 ADD PUSH1 0xA DUP3 ADD SLOAD DUP2 MSTORE PUSH1 0x20 ADD PUSH1 0xB DUP3 ADD SLOAD DUP2 MSTORE POP POP SWAP1 POP DUP3 JUMP JUMPDEST PUSH2 0x97D PUSH2 0x977 PUSH2 0x1D18 JUMP JUMPDEST DUP3 PUSH2 0x1DD9 JUMP JUMPDEST PUSH2 0x9BC JUMPI PUSH1 0x40 MLOAD PUSH32 0x8C379A000000000000000000000000000000000000000000000000000000000 DUP2 MSTORE PUSH1 0x4 ADD PUSH2 0x9B3 SWAP1 PUSH2 0x441B JUMP JUMPDEST PUSH1 0x40 MLOAD DUP1 SWAP2 SUB SWAP1 REVERT JUMPDEST PUSH2 0x9C7 DUP4 DUP4 DUP4 PUSH2 0x1EB7 JUMP JUMPDEST POP POP POP JUMP JUMPDEST PUSH1 0x0 PUSH2 0x9D7 DUP4 PUSH2 0xBB4 JUMP JUMPDEST DUP3 LT PUSH2 0xA18 JUMPI PUSH1 0x40 MLOAD PUSH32 0x8C379A000000000000000000000000000000000000000000000000000000000 DUP2 MSTORE PUSH1 0x4 ADD PUSH2 0xA0F SWAP1 PUSH2 0x425B JUMP JUMPDEST PUSH1 0x40 MLOAD DUP1 SWAP2 SUB SWAP1 REVERT JUMPDEST PUSH1 0x6 PUSH1 0x0 DUP5 PUSH20 0xFFFFFFFFFFFFFFFFFFFFFFFFFFFFFFFFFFFFFFFF AND PUSH20 0xFFFFFFFFFFFFFFFFFFFFFFFFFFFFFFFFFFFFFFFF AND DUP2 MSTORE PUSH1 0x20 ADD SWAP1 DUP2 MSTORE PUSH1 0x20 ADD PUSH1 0x0 KECCAK256 PUSH1 0x0 DUP4 DUP2 MSTORE PUSH1 0x20 ADD SWAP1 DUP2 MSTORE PUSH1 0x20 ADD PUSH1 0x0 KECCAK256 SLOAD SWAP1 POP SWAP3 SWAP2 POP POP JUMP JUMPDEST PUSH2 0xA8C DUP4 DUP4 DUP4 PUSH1 0x40 MLOAD DUP1 PUSH1 0x20 ADD PUSH1 0x40 MSTORE DUP1 PUSH1 0x0 DUP2 MSTORE POP PUSH2 0x1A1D JUMP JUMPDEST POP POP POP JUMP JUMPDEST PUSH1 0x0 PUSH2 0xA9B PUSH2 0x835 JUMP JUMPDEST DUP3 LT PUSH2 0xADC JUMPI PUSH1 0x40 MLOAD PUSH32 0x8C379A000000000000000000000000000000000000000000000000000000000 DUP2 MSTORE PUSH1 0x4 ADD PUSH2 0xAD3 SWAP1 PUSH2 0x443B JUMP JUMPDEST PUSH1 0x40 MLOAD DUP1 SWAP2 SUB SWAP1 REVERT JUMPDEST PUSH1 0x8 DUP3 DUP2 SLOAD DUP2 LT PUSH2 0xAF0 JUMPI PUSH2 0xAEF PUSH2 0x4A59 JUMP JUMPDEST JUMPDEST SWAP1 PUSH1 0x0 MSTORE PUSH1 0x20 PUSH1 0x0 KECCAK256 ADD SLOAD SWAP1 POP SWAP2 SWAP1 POP JUMP JUMPDEST PUSH1 0x0 DUP1 PUSH1 0x2 PUSH1 0x0 DUP5 DUP2 MSTORE PUSH1 0x20 ADD SWAP1 DUP2 MSTORE PUSH1 0x20 ADD PUSH1 0x0 KECCAK256 PUSH1 0x0 SWAP1 SLOAD SWAP1 PUSH2 0x100 EXP SWAP1 DIV PUSH20 0xFFFFFFFFFFFFFFFFFFFFFFFFFFFFFFFFFFFFFFFF AND SWAP1 POP PUSH1 0x0 PUSH20 0xFFFFFFFFFFFFFFFFFFFFFFFFFFFFFFFFFFFFFFFF AND DUP2 PUSH20 0xFFFFFFFFFFFFFFFFFFFFFFFFFFFFFFFFFFFFFFFF AND EQ ISZERO PUSH2 0xBAB JUMPI PUSH1 0x40 MLOAD PUSH32 0x8C379A000000000000000000000000000000000000000000000000000000000 DUP2 MSTORE PUSH1 0x4 ADD PUSH2 0xBA2 SWAP1 PUSH2 0x437B JUMP JUMPDEST PUSH1 0x40 MLOAD DUP1 SWAP2 SUB SWAP1 REVERT JUMPDEST DUP1 SWAP2 POP POP SWAP2 SWAP1 POP JUMP JUMPDEST PUSH1 0x0 DUP1 PUSH20 0xFFFFFFFFFFFFFFFFFFFFFFFFFFFFFFFFFFFFFFFF AND DUP3 PUSH20 0xFFFFFFFFFFFFFFFFFFFFFFFFFFFFFFFFFFFFFFFF AND EQ ISZERO PUSH2 0xC25 JUMPI PUSH1 0x40 MLOAD PUSH32 0x8C379A000000000000000000000000000000000000000000000000000000000 DUP2 MSTORE PUSH1 0x4 ADD PUSH2 0xC1C SWAP1 PUSH2 0x435B JUMP JUMPDEST PUSH1 0x40 MLOAD DUP1 SWAP2 SUB SWAP1 REVERT JUMPDEST PUSH1 0x3 PUSH1 0x0 DUP4 PUSH20 0xFFFFFFFFFFFFFFFFFFFFFFFFFFFFFFFFFFFFFFFF AND PUSH20 0xFFFFFFFFFFFFFFFFFFFFFFFFFFFFFFFFFFFFFFFF AND DUP2 MSTORE PUSH1 0x20 ADD SWAP1 DUP2 MSTORE PUSH1 0x20 ADD PUSH1 0x0 KECCAK256 SLOAD SWAP1 POP SWAP2 SWAP1 POP JUMP JUMPDEST PUSH1 0xF DUP2 DUP2 SLOAD DUP2 LT PUSH2 0xC7C JUMPI PUSH1 0x0 DUP1 REVERT JUMPDEST SWAP1 PUSH1 0x0 MSTORE PUSH1 0x20 PUSH1 0x0 KECCAK256 SWAP1 PUSH1 0xC MUL ADD PUSH1 0x0 SWAP2 POP SWAP1 POP DUP1 PUSH1 0x0 ADD SLOAD SWAP1 DUP1 PUSH1 0x1 ADD SLOAD SWAP1 DUP1 PUSH1 0x2 ADD SLOAD SWAP1 DUP1 PUSH1 0x3 ADD SLOAD SWAP1 DUP1 PUSH1 0x4 ADD SLOAD SWAP1 DUP1 PUSH1 0x5 ADD SLOAD SWAP1 DUP1 PUSH1 0x6 ADD SLOAD SWAP1 DUP1 PUSH1 0x7 ADD SLOAD SWAP1 DUP1 PUSH1 0x8 ADD SLOAD SWAP1 DUP1 PUSH1 0x9 ADD SLOAD SWAP1 DUP1 PUSH1 0xA ADD SLOAD SWAP1 DUP1 PUSH1 0xB ADD SLOAD SWAP1 POP DUP13 JUMP JUMPDEST PUSH7 0x470DE4DF820000 CALLVALUE LT ISZERO PUSH2 0xCF0 JUMPI PUSH1 0x0 DUP1 REVERT JUMPDEST CALLER PUSH20 0xFFFFFFFFFFFFFFFFFFFFFFFFFFFFFFFFFFFFFFFF AND PUSH2 0xD10 DUP4 PUSH2 0xB02 JUMP JUMPDEST PUSH20 0xFFFFFFFFFFFFFFFFFFFFFFFFFFFFFFFFFFFFFFFF AND EQ PUSH2 0xD30 JUMPI PUSH1 0x0 DUP1 REVERT JUMPDEST PUSH2 0xD38 PUSH2 0x835 JUMP JUMPDEST DUP3 LT PUSH2 0xD43 JUMPI PUSH1 0x0 DUP1 REVERT JUMPDEST PUSH2 0xD4B PUSH2 0x835 JUMP JUMPDEST DUP2 LT PUSH2 0xD56 JUMPI PUSH1 0x0 DUP1 REVERT JUMPDEST PUSH32 0x3593DF2963C20760AFEEC7BC9AE99F0AD8227EC08877590930B113D33DF9C067 PUSH1 0x1 PUSH1 0x40 MLOAD PUSH2 0xD86 SWAP2 SWAP1 PUSH2 0x421E JUMP JUMPDEST PUSH1 0x40 MLOAD DUP1 SWAP2 SUB SWAP1 LOG1 PUSH1 0x0 PUSH1 0xF DUP4 DUP2 SLOAD DUP2 LT PUSH2 0xDA4 JUMPI PUSH2 0xDA3 PUSH2 0x4A59 JUMP JUMPDEST JUMPDEST SWAP1 PUSH1 0x0 MSTORE PUSH1 0x20 PUSH1 0x0 KECCAK256 SWAP1 PUSH1 0xC MUL ADD PUSH1 0x40 MLOAD DUP1 PUSH2 0x180 ADD PUSH1 0x40 MSTORE SWAP1 DUP2 PUSH1 0x0 DUP3 ADD SLOAD DUP2 MSTORE PUSH1 0x20 ADD PUSH1 0x1 DUP3 ADD SLOAD DUP2 MSTORE PUSH1 0x20 ADD PUSH1 0x2 DUP3 ADD SLOAD DUP2 MSTORE PUSH1 0x20 ADD PUSH1 0x3 DUP3 ADD SLOAD DUP2 MSTORE PUSH1 0x20 ADD PUSH1 0x4 DUP3 ADD SLOAD DUP2 MSTORE PUSH1 0x20 ADD PUSH1 0x5 DUP3 ADD SLOAD DUP2 MSTORE PUSH1 0x20 ADD PUSH1 0x6 DUP3 ADD SLOAD DUP2 MSTORE PUSH1 0x20 ADD PUSH1 0x7 DUP3 ADD SLOAD DUP2 MSTORE PUSH1 0x20 ADD PUSH1 0x8 DUP3 ADD SLOAD DUP2 MSTORE PUSH1 0x20 ADD PUSH1 0x9 DUP3 ADD SLOAD DUP2 MSTORE PUSH1 0x20 ADD PUSH1 0xA DUP3 ADD SLOAD DUP2 MSTORE PUSH1 0x20 ADD PUSH1 0xB DUP3 ADD SLOAD DUP2 MSTORE POP POP SWAP1 POP PUSH1 0x0 PUSH1 0xF DUP4 DUP2 SLOAD DUP2 LT PUSH2 0xE4E JUMPI PUSH2 0xE4D PUSH2 0x4A59 JUMP JUMPDEST JUMPDEST SWAP1 PUSH1 0x0 MSTORE PUSH1 0x20 PUSH1 0x0 KECCAK256 SWAP1 PUSH1 0xC MUL ADD PUSH1 0x40 MLOAD DUP1 PUSH2 0x180 ADD PUSH1 0x40 MSTORE SWAP1 DUP2 PUSH1 0x0 DUP3 ADD SLOAD DUP2 MSTORE PUSH1 0x20 ADD PUSH1 0x1 DUP3 ADD SLOAD DUP2 MSTORE PUSH1 0x20 ADD PUSH1 0x2 DUP3 ADD SLOAD DUP2 MSTORE PUSH1 0x20 ADD PUSH1 0x3 DUP3 ADD SLOAD DUP2 MSTORE PUSH1 0x20 ADD PUSH1 0x4 DUP3 ADD SLOAD DUP2 MSTORE PUSH1 0x20 ADD PUSH1 0x5 DUP3 ADD SLOAD DUP2 MSTORE PUSH1 0x20 ADD PUSH1 0x6 DUP3 ADD SLOAD DUP2 MSTORE PUSH1 0x20 ADD PUSH1 0x7 DUP3 ADD SLOAD DUP2 MSTORE PUSH1 0x20 ADD PUSH1 0x8 DUP3 ADD SLOAD DUP2 MSTORE PUSH1 0x20 ADD PUSH1 0x9 DUP3 ADD SLOAD DUP2 MSTORE PUSH1 0x20 ADD PUSH1 0xA DUP3 ADD SLOAD DUP2 MSTORE PUSH1 0x20 ADD PUSH1 0xB DUP3 ADD SLOAD DUP2 MSTORE POP POP SWAP1 POP PUSH1 0x0 PUSH2 0xEEC PUSH2 0x211E JUMP JUMPDEST SWAP1 POP PUSH1 0x0 PUSH1 0x19 PUSH8 0xFFFFFFFFFFFFFFFF DUP2 GT ISZERO PUSH2 0xF0B JUMPI PUSH2 0xF0A PUSH2 0x4A88 JUMP JUMPDEST JUMPDEST PUSH1 0x40 MLOAD SWAP1 DUP1 DUP3 MSTORE DUP1 PUSH1 0x20 MUL PUSH1 0x20 ADD DUP3 ADD PUSH1 0x40 MSTORE DUP1 ISZERO PUSH2 0xF39 JUMPI DUP2 PUSH1 0x20 ADD PUSH1 0x20 DUP3 MUL DUP1 CALLDATASIZE DUP4 CALLDATACOPY DUP1 DUP3 ADD SWAP2 POP POP SWAP1 POP JUMPDEST POP SWAP1 POP DUP4 PUSH1 0x0 ADD MLOAD DUP2 PUSH1 0x0 DUP2 MLOAD DUP2 LT PUSH2 0xF55 JUMPI PUSH2 0xF54 PUSH2 0x4A59 JUMP JUMPDEST JUMPDEST PUSH1 0x20 MUL PUSH1 0x20 ADD ADD DUP2 DUP2 MSTORE POP POP DUP4 PUSH1 0x20 ADD MLOAD DUP2 PUSH1 0x1 DUP2 MLOAD DUP2 LT PUSH2 0xF7A JUMPI PUSH2 0xF79 PUSH2 0x4A59 JUMP JUMPDEST JUMPDEST PUSH1 0x20 MUL PUSH1 0x20 ADD ADD DUP2 DUP2 MSTORE POP POP DUP4 PUSH1 0x40 ADD MLOAD DUP2 PUSH1 0x2 DUP2 MLOAD DUP2 LT PUSH2 0xF9F JUMPI PUSH2 0xF9E PUSH2 0x4A59 JUMP JUMPDEST JUMPDEST PUSH1 0x20 MUL PUSH1 0x20 ADD ADD DUP2 DUP2 MSTORE POP POP DUP4 PUSH1 0x60 ADD MLOAD DUP2 PUSH1 0x3 DUP2 MLOAD DUP2 LT PUSH2 0xFC4 JUMPI PUSH2 0xFC3 PUSH2 0x4A59 JUMP JUMPDEST JUMPDEST PUSH1 0x20 MUL PUSH1 0x20 ADD ADD DUP2 DUP2 MSTORE POP POP DUP4 PUSH1 0x80 ADD MLOAD DUP2 PUSH1 0x4 DUP2 MLOAD DUP2 LT PUSH2 0xFE9 JUMPI PUSH2 0xFE8 PUSH2 0x4A59 JUMP JUMPDEST JUMPDEST PUSH1 0x20 MUL PUSH1 0x20 ADD ADD DUP2 DUP2 MSTORE POP POP DUP4 PUSH1 0xA0 ADD MLOAD DUP2 PUSH1 0x5 DUP2 MLOAD DUP2 LT PUSH2 0x100E JUMPI PUSH2 0x100D PUSH2 0x4A59 JUMP JUMPDEST JUMPDEST PUSH1 0x20 MUL PUSH1 0x20 ADD ADD DUP2 DUP2 MSTORE POP POP DUP4 PUSH1 0xC0 ADD MLOAD DUP2 PUSH1 0x6 DUP2 MLOAD DUP2 LT PUSH2 0x1033 JUMPI PUSH2 0x1032 PUSH2 0x4A59 JUMP JUMPDEST JUMPDEST PUSH1 0x20 MUL PUSH1 0x20 ADD ADD DUP2 DUP2 MSTORE POP POP DUP4 PUSH1 0xE0 ADD MLOAD DUP2 PUSH1 0x7 DUP2 MLOAD DUP2 LT PUSH2 0x1058 JUMPI PUSH2 0x1057 PUSH2 0x4A59 JUMP JUMPDEST JUMPDEST PUSH1 0x20 MUL PUSH1 0x20 ADD ADD DUP2 DUP2 MSTORE POP POP DUP4 PUSH2 0x100 ADD MLOAD DUP2 PUSH1 0x8 DUP2 MLOAD DUP2 LT PUSH2 0x107E JUMPI PUSH2 0x107D PUSH2 0x4A59 JUMP JUMPDEST JUMPDEST PUSH1 0x20 MUL PUSH1 0x20 ADD ADD DUP2 DUP2 MSTORE POP POP DUP4 PUSH2 0x120 ADD MLOAD DUP2 PUSH1 0x9 DUP2 MLOAD DUP2 LT PUSH2 0x10A4 JUMPI PUSH2 0x10A3 PUSH2 0x4A59 JUMP JUMPDEST JUMPDEST PUSH1 0x20 MUL PUSH1 0x20 ADD ADD DUP2 DUP2 MSTORE POP POP DUP4 PUSH2 0x140 ADD MLOAD DUP2 PUSH1 0xA DUP2 MLOAD DUP2 LT PUSH2 0x10CA JUMPI PUSH2 0x10C9 PUSH2 0x4A59 JUMP JUMPDEST JUMPDEST PUSH1 0x20 MUL PUSH1 0x20 ADD ADD DUP2 DUP2 MSTORE POP POP DUP4 PUSH2 0x160 ADD MLOAD DUP2 PUSH1 0xB DUP2 MLOAD DUP2 LT PUSH2 0x10F0 JUMPI PUSH2 0x10EF PUSH2 0x4A59 JUMP JUMPDEST JUMPDEST PUSH1 0x20 MUL PUSH1 0x20 ADD ADD DUP2 DUP2 MSTORE POP POP DUP3 PUSH1 0x0 ADD MLOAD DUP2 PUSH1 0xC DUP2 MLOAD DUP2 LT PUSH2 0x1115 JUMPI PUSH2 0x1114 PUSH2 0x4A59 JUMP JUMPDEST JUMPDEST PUSH1 0x20 MUL PUSH1 0x20 ADD ADD DUP2 DUP2 MSTORE POP POP DUP3 PUSH1 0x20 ADD MLOAD DUP2 PUSH1 0xD DUP2 MLOAD DUP2 LT PUSH2 0x113A JUMPI PUSH2 0x1139 PUSH2 0x4A59 JUMP JUMPDEST JUMPDEST PUSH1 0x20 MUL PUSH1 0x20 ADD ADD DUP2 DUP2 MSTORE POP POP DUP3 PUSH1 0x40 ADD MLOAD DUP2 PUSH1 0xE DUP2 MLOAD DUP2 LT PUSH2 0x115F JUMPI PUSH2 0x115E PUSH2 0x4A59 JUMP JUMPDEST JUMPDEST PUSH1 0x20 MUL PUSH1 0x20 ADD ADD DUP2 DUP2 MSTORE POP POP DUP3 PUSH1 0x60 ADD MLOAD DUP2 PUSH1 0xF DUP2 MLOAD DUP2 LT PUSH2 0x1184 JUMPI PUSH2 0x1183 PUSH2 0x4A59 JUMP JUMPDEST JUMPDEST PUSH1 0x20 MUL PUSH1 0x20 ADD ADD DUP2 DUP2 MSTORE POP POP DUP3 PUSH1 0x80 ADD MLOAD DUP2 PUSH1 0x10 DUP2 MLOAD DUP2 LT PUSH2 0x11A9 JUMPI PUSH2 0x11A8 PUSH2 0x4A59 JUMP JUMPDEST JUMPDEST PUSH1 0x20 MUL PUSH1 0x20 ADD ADD DUP2 DUP2 MSTORE POP POP DUP3 PUSH1 0xA0 ADD MLOAD DUP2 PUSH1 0x11 DUP2 MLOAD DUP2 LT PUSH2 0x11CE JUMPI PUSH2 0x11CD PUSH2 0x4A59 JUMP JUMPDEST JUMPDEST PUSH1 0x20 MUL PUSH1 0x20 ADD ADD DUP2 DUP2 MSTORE POP POP DUP3 PUSH1 0xC0 ADD MLOAD DUP2 PUSH1 0x12 DUP2 MLOAD DUP2 LT PUSH2 0x11F3 JUMPI PUSH2 0x11F2 PUSH2 0x4A59 JUMP JUMPDEST JUMPDEST PUSH1 0x20 MUL PUSH1 0x20 ADD ADD DUP2 DUP2 MSTORE POP POP DUP3 PUSH1 0xE0 ADD MLOAD DUP2 PUSH1 0x13 DUP2 MLOAD DUP2 LT PUSH2 0x1218 JUMPI PUSH2 0x1217 PUSH2 0x4A59 JUMP JUMPDEST JUMPDEST PUSH1 0x20 MUL PUSH1 0x20 ADD ADD DUP2 DUP2 MSTORE POP POP DUP3 PUSH2 0x100 ADD MLOAD DUP2 PUSH1 0x14 DUP2 MLOAD DUP2 LT PUSH2 0x123E JUMPI PUSH2 0x123D PUSH2 0x4A59 JUMP JUMPDEST JUMPDEST PUSH1 0x20 MUL PUSH1 0x20 ADD ADD DUP2 DUP2 MSTORE POP POP DUP3 PUSH2 0x120 ADD MLOAD DUP2 PUSH1 0x15 DUP2 MLOAD DUP2 LT PUSH2 0x1264 JUMPI PUSH2 0x1263 PUSH2 0x4A59 JUMP JUMPDEST JUMPDEST PUSH1 0x20 MUL PUSH1 0x20 ADD ADD DUP2 DUP2 MSTORE POP POP DUP3 PUSH2 0x140 ADD MLOAD DUP2 PUSH1 0x16 DUP2 MLOAD DUP2 LT PUSH2 0x128A JUMPI PUSH2 0x1289 PUSH2 0x4A59 JUMP JUMPDEST JUMPDEST PUSH1 0x20 MUL PUSH1 0x20 ADD ADD DUP2 DUP2 MSTORE POP POP DUP3 PUSH2 0x160 ADD MLOAD DUP2 PUSH1 0x17 DUP2 MLOAD DUP2 LT PUSH2 0x12B0 JUMPI PUSH2 0x12AF PUSH2 0x4A59 JUMP JUMPDEST JUMPDEST PUSH1 0x20 MUL PUSH1 0x20 ADD ADD DUP2 DUP2 MSTORE POP POP DUP2 DUP2 PUSH1 0x18 DUP2 MLOAD DUP2 LT PUSH2 0x12D1 JUMPI PUSH2 0x12D0 PUSH2 0x4A59 JUMP JUMPDEST JUMPDEST PUSH1 0x20 MUL PUSH1 0x20 ADD ADD DUP2 DUP2 MSTORE POP POP PUSH1 0xA PUSH1 0x0 SWAP1 SLOAD SWAP1 PUSH2 0x100 EXP SWAP1 DIV PUSH20 0xFFFFFFFFFFFFFFFFFFFFFFFFFFFFFFFFFFFFFFFF AND PUSH20 0xFFFFFFFFFFFFFFFFFFFFFFFFFFFFFFFFFFFFFFFF AND PUSH4 0x3E3AA6C5 CALLVALUE PUSH1 0xB SLOAD PUSH32 0x2D8DD67D94FF9987FBA396772E78AF45776E50EC5231A489977B2973C8AD302 DUP6 PUSH1 0x40 MLOAD DUP6 PUSH4 0xFFFFFFFF AND PUSH1 0xE0 SHL DUP2 MSTORE PUSH1 0x4 ADD PUSH2 0x135F SWAP4 SWAP3 SWAP2 SWAP1 PUSH2 0x451A JUMP JUMPDEST PUSH1 0x20 PUSH1 0x40 MLOAD DUP1 DUP4 SUB DUP2 DUP6 DUP9 DUP1 EXTCODESIZE ISZERO DUP1 ISZERO PUSH2 0x1378 JUMPI PUSH1 0x0 DUP1 REVERT JUMPDEST POP GAS CALL ISZERO DUP1 ISZERO PUSH2 0x138C JUMPI RETURNDATASIZE PUSH1 0x0 DUP1 RETURNDATACOPY RETURNDATASIZE PUSH1 0x0 REVERT JUMPDEST POP POP POP POP POP PUSH1 0x40 MLOAD RETURNDATASIZE PUSH1 0x1F NOT PUSH1 0x1F DUP3 ADD AND DUP3 ADD DUP1 PUSH1 0x40 MSTORE POP DUP2 ADD SWAP1 PUSH2 0x13B1 SWAP2 SWAP1 PUSH2 0x3B1C JUMP JUMPDEST POP PUSH1 0x40 MLOAD DUP1 PUSH1 0x40 ADD PUSH1 0x40 MSTORE DUP1 DUP6 DUP2 MSTORE PUSH1 0x20 ADD DUP5 DUP2 MSTORE POP PUSH1 0x11 PUSH1 0x0 DUP5 DUP2 MSTORE PUSH1 0x20 ADD SWAP1 DUP2 MSTORE PUSH1 0x20 ADD PUSH1 0x0 KECCAK256 PUSH1 0x0 DUP3 ADD MLOAD DUP2 PUSH1 0x0 ADD PUSH1 0x0 DUP3 ADD MLOAD DUP2 PUSH1 0x0 ADD SSTORE PUSH1 0x20 DUP3 ADD MLOAD DUP2 PUSH1 0x1 ADD SSTORE PUSH1 0x40 DUP3 ADD MLOAD DUP2 PUSH1 0x2 ADD SSTORE PUSH1 0x60 DUP3 ADD MLOAD DUP2 PUSH1 0x3 ADD SSTORE PUSH1 0x80 DUP3 ADD MLOAD DUP2 PUSH1 0x4 ADD SSTORE PUSH1 0xA0 DUP3 ADD MLOAD DUP2 PUSH1 0x5 ADD SSTORE PUSH1 0xC0 DUP3 ADD MLOAD DUP2 PUSH1 0x6 ADD SSTORE PUSH1 0xE0 DUP3 ADD MLOAD DUP2 PUSH1 0x7 ADD SSTORE PUSH2 0x100 DUP3 ADD MLOAD DUP2 PUSH1 0x8 ADD SSTORE PUSH2 0x120 DUP3 ADD MLOAD DUP2 PUSH1 0x9 ADD SSTORE PUSH2 0x140 DUP3 ADD MLOAD DUP2 PUSH1 0xA ADD SSTORE PUSH2 0x160 DUP3 ADD MLOAD DUP2 PUSH1 0xB ADD SSTORE POP POP PUSH1 0x20 DUP3 ADD MLOAD DUP2 PUSH1 0xC ADD PUSH1 0x0 DUP3 ADD MLOAD DUP2 PUSH1 0x0 ADD SSTORE PUSH1 0x20 DUP3 ADD MLOAD DUP2 PUSH1 0x1 ADD SSTORE PUSH1 0x40 DUP3 ADD MLOAD DUP2 PUSH1 0x2 ADD SSTORE PUSH1 0x60 DUP3 ADD MLOAD DUP2 PUSH1 0x3 ADD SSTORE PUSH1 0x80 DUP3 ADD MLOAD DUP2 PUSH1 0x4 ADD SSTORE PUSH1 0xA0 DUP3 ADD MLOAD DUP2 PUSH1 0x5 ADD SSTORE PUSH1 0xC0 DUP3 ADD MLOAD DUP2 PUSH1 0x6 ADD SSTORE PUSH1 0xE0 DUP3 ADD MLOAD DUP2 PUSH1 0x7 ADD SSTORE PUSH2 0x100 DUP3 ADD MLOAD DUP2 PUSH1 0x8 ADD SSTORE PUSH2 0x120 DUP3 ADD MLOAD DUP2 PUSH1 0x9 ADD SSTORE PUSH2 0x140 DUP3 ADD MLOAD DUP2 PUSH1 0xA ADD SSTORE PUSH2 0x160 DUP3 ADD MLOAD DUP2 PUSH1 0xB ADD SSTORE POP POP SWAP1 POP POP CALLER PUSH20 0xFFFFFFFFFFFFFFFFFFFFFFFFFFFFFFFFFFFFFFFF AND PUSH32 0xD02FCE1ACAFA0B604F24AAAD2D7C0A36C749F4B333ABC05FC83BA197D5E0705C DUP6 PUSH1 0x0 ADD MLOAD DUP6 PUSH1 0x0 ADD MLOAD PUSH1 0xB SLOAD CALLVALUE PUSH1 0x40 MLOAD PUSH2 0x1541 SWAP5 SWAP4 SWAP3 SWAP2 SWAP1 PUSH2 0x4558 JUMP JUMPDEST PUSH1 0x40 MLOAD DUP1 SWAP2 SUB SWAP1 LOG2 POP POP POP POP POP POP JUMP JUMPDEST PUSH1 0x60 PUSH1 0x1 DUP1 SLOAD PUSH2 0x1560 SWAP1 PUSH2 0x48B6 JUMP JUMPDEST DUP1 PUSH1 0x1F ADD PUSH1 0x20 DUP1 SWAP2 DIV MUL PUSH1 0x20 ADD PUSH1 0x40 MLOAD SWAP1 DUP2 ADD PUSH1 0x40 MSTORE DUP1 SWAP3 SWAP2 SWAP1 DUP2 DUP2 MSTORE PUSH1 0x20 ADD DUP3 DUP1 SLOAD PUSH2 0x158C SWAP1 PUSH2 0x48B6 JUMP JUMPDEST DUP1 ISZERO PUSH2 0x15D9 JUMPI DUP1 PUSH1 0x1F LT PUSH2 0x15AE JUMPI PUSH2 0x100 DUP1 DUP4 SLOAD DIV MUL DUP4 MSTORE SWAP2 PUSH1 0x20 ADD SWAP2 PUSH2 0x15D9 JUMP JUMPDEST DUP3 ADD SWAP2 SWAP1 PUSH1 0x0 MSTORE PUSH1 0x20 PUSH1 0x0 KECCAK256 SWAP1 JUMPDEST DUP2 SLOAD DUP2 MSTORE SWAP1 PUSH1 0x1 ADD SWAP1 PUSH1 0x20 ADD DUP1 DUP4 GT PUSH2 0x15BC JUMPI DUP3 SWAP1 SUB PUSH1 0x1F AND DUP3 ADD SWAP2 JUMPDEST POP POP POP POP POP SWAP1 POP SWAP1 JUMP JUMPDEST PUSH1 0x0 DUP2 GT DUP1 ISZERO PUSH2 0x15F3 JUMPI POP PUSH1 0x35 DUP2 LT JUMPDEST PUSH2 0x1632 JUMPI PUSH1 0x40 MLOAD PUSH32 0x8C379A000000000000000000000000000000000000000000000000000000000 DUP2 MSTORE PUSH1 0x4 ADD PUSH2 0x1629 SWAP1 PUSH2 0x445B JUMP JUMPDEST PUSH1 0x40 MLOAD DUP1 SWAP2 SUB SWAP1 REVERT JUMPDEST PUSH1 0x0 PUSH2 0x163E PUSH1 0xE PUSH2 0x213C JUMP JUMPDEST SWAP1 POP PUSH1 0x0 PUSH2 0x164C DUP4 DUP4 PUSH2 0x214A JUMP JUMPDEST SWAP1 POP PUSH1 0xF DUP2 SWAP1 DUP1 PUSH1 0x1 DUP2 SLOAD ADD DUP1 DUP3 SSTORE DUP1 SWAP2 POP POP PUSH1 0x1 SWAP1 SUB SWAP1 PUSH1 0x0 MSTORE PUSH1 0x20 PUSH1 0x0 KECCAK256 SWAP1 PUSH1 0xC MUL ADD PUSH1 0x0 SWAP1 SWAP2 SWAP1 SWAP2 SWAP1 SWAP2 POP PUSH1 0x0 DUP3 ADD MLOAD DUP2 PUSH1 0x0 ADD SSTORE PUSH1 0x20 DUP3 ADD MLOAD DUP2 PUSH1 0x1 ADD SSTORE PUSH1 0x40 DUP3 ADD MLOAD DUP2 PUSH1 0x2 ADD SSTORE PUSH1 0x60 DUP3 ADD MLOAD DUP2 PUSH1 0x3 ADD SSTORE PUSH1 0x80 DUP3 ADD MLOAD DUP2 PUSH1 0x4 ADD SSTORE PUSH1 0xA0 DUP3 ADD MLOAD DUP2 PUSH1 0x5 ADD SSTORE PUSH1 0xC0 DUP3 ADD MLOAD DUP2 PUSH1 0x6 ADD SSTORE PUSH1 0xE0 DUP3 ADD MLOAD DUP2 PUSH1 0x7 ADD SSTORE PUSH2 0x100 DUP3 ADD MLOAD DUP2 PUSH1 0x8 ADD SSTORE PUSH2 0x120 DUP3 ADD MLOAD DUP2 PUSH1 0x9 ADD SSTORE PUSH2 0x140 DUP3 ADD MLOAD DUP2 PUSH1 0xA ADD SSTORE PUSH2 0x160 DUP3 ADD MLOAD DUP2 PUSH1 0xB ADD SSTORE POP POP PUSH2 0x1702 CALLER DUP4 PUSH2 0x28C3 JUMP JUMPDEST PUSH2 0x170C PUSH1 0xE PUSH2 0x28E1 JUMP JUMPDEST POP POP POP JUMP JUMPDEST PUSH2 0x1723 PUSH2 0x171C PUSH2 0x1D18 JUMP JUMPDEST DUP4 DUP4 PUSH2 0x28F7 JUMP JUMPDEST POP POP JUMP JUMPDEST PUSH32 0xED9918E573B159B62731BC88263B9CE84E79C6335FBBA2B28F981840126E16F PUSH1 0x1 PUSH1 0x40 MLOAD PUSH2 0x1757 SWAP2 SWAP1 PUSH2 0x421E JUMP JUMPDEST PUSH1 0x40 MLOAD DUP1 SWAP2 SUB SWAP1 LOG1 PUSH1 0x0 PUSH1 0x4 PUSH8 0xFFFFFFFFFFFFFFFF DUP2 GT ISZERO PUSH2 0x177C JUMPI PUSH2 0x177B PUSH2 0x4A88 JUMP JUMPDEST JUMPDEST PUSH1 0x40 MLOAD SWAP1 DUP1 DUP3 MSTORE DUP1 PUSH1 0x20 MUL PUSH1 0x20 ADD DUP3 ADD PUSH1 0x40 MSTORE DUP1 ISZERO PUSH2 0x17AA JUMPI DUP2 PUSH1 0x20 ADD PUSH1 0x20 DUP3 MUL DUP1 CALLDATASIZE DUP4 CALLDATACOPY DUP1 DUP3 ADD SWAP2 POP POP SWAP1 POP JUMPDEST POP SWAP1 POP DUP5 DUP2 PUSH1 0x0 DUP2 MLOAD DUP2 LT PUSH2 0x17C2 JUMPI PUSH2 0x17C1 PUSH2 0x4A59 JUMP JUMPDEST JUMPDEST PUSH1 0x20 MUL PUSH1 0x20 ADD ADD DUP2 DUP2 MSTORE POP POP DUP4 DUP2 PUSH1 0x1 DUP2 MLOAD DUP2 LT PUSH2 0x17E3 JUMPI PUSH2 0x17E2 PUSH2 0x4A59 JUMP JUMPDEST JUMPDEST PUSH1 0x20 MUL PUSH1 0x20 ADD ADD DUP2 DUP2 MSTORE POP POP DUP3 DUP2 PUSH1 0x2 DUP2 MLOAD DUP2 LT PUSH2 0x1804 JUMPI PUSH2 0x1803 PUSH2 0x4A59 JUMP JUMPDEST JUMPDEST PUSH1 0x20 MUL PUSH1 0x20 ADD ADD DUP2 DUP2 MSTORE POP POP DUP2 DUP2 PUSH1 0x3 DUP2 MLOAD DUP2 LT PUSH2 0x1825 JUMPI PUSH2 0x1824 PUSH2 0x4A59 JUMP JUMPDEST JUMPDEST PUSH1 0x20 MUL PUSH1 0x20 ADD ADD DUP2 DUP2 MSTORE POP POP PUSH1 0xA PUSH1 0x0 SWAP1 SLOAD SWAP1 PUSH2 0x100 EXP SWAP1 DIV PUSH20 0xFFFFFFFFFFFFFFFFFFFFFFFFFFFFFFFFFFFFFFFF AND PUSH20 0xFFFFFFFFFFFFFFFFFFFFFFFFFFFFFFFFFFFFFFFF AND PUSH4 0x2C9DD5C0 PUSH1 0xB SLOAD DUP4 PUSH1 0x40 MLOAD DUP4 PUSH4 0xFFFFFFFF AND PUSH1 0xE0 SHL DUP2 MSTORE PUSH1 0x4 ADD PUSH2 0x1890 SWAP3 SWAP2 SWAP1 PUSH2 0x44C1 JUMP JUMPDEST PUSH1 0x20 PUSH1 0x40 MLOAD DUP1 DUP4 SUB DUP2 PUSH1 0x0 DUP8 DUP1 EXTCODESIZE ISZERO DUP1 ISZERO PUSH2 0x18AA JUMPI PUSH1 0x0 DUP1 REVERT JUMPDEST POP GAS CALL ISZERO DUP1 ISZERO PUSH2 0x18BE JUMPI RETURNDATASIZE PUSH1 0x0 DUP1 RETURNDATACOPY RETURNDATASIZE PUSH1 0x0 REVERT JUMPDEST POP POP POP POP PUSH1 0x40 MLOAD RETURNDATASIZE PUSH1 0x1F NOT PUSH1 0x1F DUP3 ADD AND DUP3 ADD DUP1 PUSH1 0x40 MSTORE POP DUP2 ADD SWAP1 PUSH2 0x18E2 SWAP2 SWAP1 PUSH2 0x3B1C JUMP JUMPDEST POP PUSH1 0xF DUP6 DUP2 SLOAD DUP2 LT PUSH2 0x18F7 JUMPI PUSH2 0x18F6 PUSH2 0x4A59 JUMP JUMPDEST JUMPDEST SWAP1 PUSH1 0x0 MSTORE PUSH1 0x20 PUSH1 0x0 KECCAK256 SWAP1 PUSH1 0xC MUL ADD PUSH1 0x10 PUSH1 0x0 DUP7 DUP2 MSTORE PUSH1 0x20 ADD SWAP1 DUP2 MSTORE PUSH1 0x20 ADD PUSH1 0x0 KECCAK256 PUSH1 0x0 DUP3 ADD SLOAD DUP2 PUSH1 0x0 ADD SSTORE PUSH1 0x1 DUP3 ADD SLOAD DUP2 PUSH1 0x1 ADD SSTORE PUSH1 0x2 DUP3 ADD SLOAD DUP2 PUSH1 0x2 ADD SSTORE PUSH1 0x3 DUP3 ADD SLOAD DUP2 PUSH1 0x3 ADD SSTORE PUSH1 0x4 DUP3 ADD SLOAD DUP2 PUSH1 0x4 ADD SSTORE PUSH1 0x5 DUP3 ADD SLOAD DUP2 PUSH1 0x5 ADD SSTORE PUSH1 0x6 DUP3 ADD SLOAD DUP2 PUSH1 0x6 ADD SSTORE PUSH1 0x7 DUP3 ADD SLOAD DUP2 PUSH1 0x7 ADD SSTORE PUSH1 0x8 DUP3 ADD SLOAD DUP2 PUSH1 0x8 ADD SSTORE PUSH1 0x9 DUP3 ADD SLOAD DUP2 PUSH1 0x9 ADD SSTORE PUSH1 0xA DUP3 ADD SLOAD DUP2 PUSH1 0xA ADD SSTORE PUSH1 0xB DUP3 ADD SLOAD DUP2 PUSH1 0xB ADD SSTORE SWAP1 POP POP PUSH1 0x1 PUSH1 0x12 PUSH1 0x0 DUP8 DUP2 MSTORE PUSH1 0x20 ADD SWAP1 DUP2 MSTORE PUSH1 0x20 ADD PUSH1 0x0 KECCAK256 SLOAD PUSH2 0x19B3 SWAP2 SWAP1 PUSH2 0x4729 JUMP JUMPDEST PUSH1 0x12 PUSH1 0x0 DUP8 DUP2 MSTORE PUSH1 0x20 ADD SWAP1 DUP2 MSTORE PUSH1 0x20 ADD PUSH1 0x0 KECCAK256 DUP2 SWAP1 SSTORE POP PUSH32 0x510A8D0A61F3EC9EF2328338CFC3429D30261D8781D56DD0507CB19E2ED63A9C DUP6 PUSH1 0x12 PUSH1 0x0 DUP9 DUP2 MSTORE PUSH1 0x20 ADD SWAP1 DUP2 MSTORE PUSH1 0x20 ADD PUSH1 0x0 KECCAK256 SLOAD PUSH1 0x40 MLOAD PUSH2 0x1A0E SWAP3 SWAP2 SWAP1 PUSH2 0x44F1 JUMP JUMPDEST PUSH1 0x40 MLOAD DUP1 SWAP2 SUB SWAP1 LOG1 POP POP POP POP POP JUMP JUMPDEST PUSH2 0x1A2E PUSH2 0x1A28 PUSH2 0x1D18 JUMP JUMPDEST DUP4 PUSH2 0x1DD9 JUMP JUMPDEST PUSH2 0x1A6D JUMPI PUSH1 0x40 MLOAD PUSH32 0x8C379A000000000000000000000000000000000000000000000000000000000 DUP2 MSTORE PUSH1 0x4 ADD PUSH2 0x1A64 SWAP1 PUSH2 0x441B JUMP JUMPDEST PUSH1 0x40 MLOAD DUP1 SWAP2 SUB SWAP1 REVERT JUMPDEST PUSH2 0x1A79 DUP5 DUP5 DUP5 DUP5 PUSH2 0x2A64 JUMP JUMPDEST POP POP POP POP JUMP JUMPDEST PUSH1 0x60 PUSH2 0x1A8A DUP3 PUSH2 0x1CAC JUMP JUMPDEST PUSH2 0x1AC9 JUMPI PUSH1 0x40 MLOAD PUSH32 0x8C379A000000000000000000000000000000000000000000000000000000000 DUP2 MSTORE PUSH1 0x4 ADD PUSH2 0x1AC0 SWAP1 PUSH2 0x43DB JUMP JUMPDEST PUSH1 0x40 MLOAD DUP1 SWAP2 SUB SWAP1 REVERT JUMPDEST PUSH1 0x0 PUSH2 0x1AD3 PUSH2 0x2AC0 JUMP JUMPDEST SWAP1 POP PUSH1 0x0 DUP2 MLOAD GT PUSH2 0x1AF3 JUMPI PUSH1 0x40 MLOAD DUP1 PUSH1 0x20 ADD PUSH1 0x40 MSTORE DUP1 PUSH1 0x0 DUP2 MSTORE POP PUSH2 0x1B1E JUMP JUMPDEST DUP1 PUSH2 0x1AFD DUP5 PUSH2 0x2AD7 JUMP JUMPDEST PUSH1 0x40 MLOAD PUSH1 0x20 ADD PUSH2 0x1B0E SWAP3 SWAP2 SWAP1 PUSH2 0x413B JUMP JUMPDEST PUSH1 0x40 MLOAD PUSH1 0x20 DUP2 DUP4 SUB SUB DUP2 MSTORE SWAP1 PUSH1 0x40 MSTORE JUMPDEST SWAP2 POP POP SWAP2 SWAP1 POP JUMP JUMPDEST PUSH1 0x12 PUSH1 0x20 MSTORE DUP1 PUSH1 0x0 MSTORE PUSH1 0x40 PUSH1 0x0 KECCAK256 PUSH1 0x0 SWAP2 POP SWAP1 POP SLOAD DUP2 JUMP JUMPDEST PUSH1 0x10 PUSH1 0x20 MSTORE DUP1 PUSH1 0x0 MSTORE PUSH1 0x40 PUSH1 0x0 KECCAK256 PUSH1 0x0 SWAP2 POP SWAP1 POP DUP1 PUSH1 0x0 ADD SLOAD SWAP1 DUP1 PUSH1 0x1 ADD SLOAD SWAP1 DUP1 PUSH1 0x2 ADD SLOAD SWAP1 DUP1 PUSH1 0x3 ADD SLOAD SWAP1 DUP1 PUSH1 0x4 ADD SLOAD SWAP1 DUP1 PUSH1 0x5 ADD SLOAD SWAP1 DUP1 PUSH1 0x6 ADD SLOAD SWAP1 DUP1 PUSH1 0x7 ADD SLOAD SWAP1 DUP1 PUSH1 0x8 ADD SLOAD SWAP1 DUP1 PUSH1 0x9 ADD SLOAD SWAP1 DUP1 PUSH1 0xA ADD SLOAD SWAP1 DUP1 PUSH1 0xB ADD SLOAD SWAP1 POP DUP13 JUMP JUMPDEST PUSH1 0x0 PUSH1 0x5 PUSH1 0x0 DUP5 PUSH20 0xFFFFFFFFFFFFFFFFFFFFFFFFFFFFFFFFFFFFFFFF AND PUSH20 0xFFFFFFFFFFFFFFFFFFFFFFFFFFFFFFFFFFFFFFFF AND DUP2 MSTORE PUSH1 0x20 ADD SWAP1 DUP2 MSTORE PUSH1 0x20 ADD PUSH1 0x0 KECCAK256 PUSH1 0x0 DUP4 PUSH20 0xFFFFFFFFFFFFFFFFFFFFFFFFFFFFFFFFFFFFFFFF AND PUSH20 0xFFFFFFFFFFFFFFFFFFFFFFFFFFFFFFFFFFFFFFFF AND DUP2 MSTORE PUSH1 0x20 ADD SWAP1 DUP2 MSTORE PUSH1 0x20 ADD PUSH1 0x0 KECCAK256 PUSH1 0x0 SWAP1 SLOAD SWAP1 PUSH2 0x100 EXP SWAP1 DIV PUSH1 0xFF AND SWAP1 POP SWAP3 SWAP2 POP POP JUMP JUMPDEST PUSH1 0x0 PUSH32 0x780E9D6300000000000000000000000000000000000000000000000000000000 PUSH28 0xFFFFFFFFFFFFFFFFFFFFFFFFFFFFFFFFFFFFFFFFFFFFFFFFFFFFFFFF NOT AND DUP3 PUSH28 0xFFFFFFFFFFFFFFFFFFFFFFFFFFFFFFFFFFFFFFFFFFFFFFFFFFFFFFFF NOT AND EQ DUP1 PUSH2 0x1CA5 JUMPI POP PUSH2 0x1CA4 DUP3 PUSH2 0x2C38 JUMP JUMPDEST JUMPDEST SWAP1 POP SWAP2 SWAP1 POP JUMP JUMPDEST PUSH1 0x0 DUP1 PUSH20 0xFFFFFFFFFFFFFFFFFFFFFFFFFFFFFFFFFFFFFFFF AND PUSH1 0x2 PUSH1 0x0 DUP5 DUP2 MSTORE PUSH1 0x20 ADD SWAP1 DUP2 MSTORE PUSH1 0x20 ADD PUSH1 0x0 KECCAK256 PUSH1 0x0 SWAP1 SLOAD SWAP1 PUSH2 0x100 EXP SWAP1 DIV PUSH20 0xFFFFFFFFFFFFFFFFFFFFFFFFFFFFFFFFFFFFFFFF AND PUSH20 0xFFFFFFFFFFFFFFFFFFFFFFFFFFFFFFFFFFFFFFFF AND EQ ISZERO SWAP1 POP SWAP2 SWAP1 POP JUMP JUMPDEST PUSH1 0x0 CALLER SWAP1 POP SWAP1 JUMP JUMPDEST DUP2 PUSH1 0x4 PUSH1 0x0 DUP4 DUP2 MSTORE PUSH1 0x20 ADD SWAP1 DUP2 MSTORE PUSH1 0x20 ADD PUSH1 0x0 KECCAK256 PUSH1 0x0 PUSH2 0x100 EXP DUP2 SLOAD DUP2 PUSH20 0xFFFFFFFFFFFFFFFFFFFFFFFFFFFFFFFFFFFFFFFF MUL NOT AND SWAP1 DUP4 PUSH20 0xFFFFFFFFFFFFFFFFFFFFFFFFFFFFFFFFFFFFFFFF AND MUL OR SWAP1 SSTORE POP DUP1 DUP3 PUSH20 0xFFFFFFFFFFFFFFFFFFFFFFFFFFFFFFFFFFFFFFFF AND PUSH2 0x1D93 DUP4 PUSH2 0xB02 JUMP JUMPDEST PUSH20 0xFFFFFFFFFFFFFFFFFFFFFFFFFFFFFFFFFFFFFFFF AND PUSH32 0x8C5BE1E5EBEC7D5BD14F71427D1E84F3DD0314C0F7B2291E5B200AC8C7C3B925 PUSH1 0x40 MLOAD PUSH1 0x40 MLOAD DUP1 SWAP2 SUB SWAP1 LOG4 POP POP JUMP JUMPDEST PUSH1 0x0 PUSH2 0x1DE4 DUP3 PUSH2 0x1CAC JUMP JUMPDEST PUSH2 0x1E23 JUMPI PUSH1 0x40 MLOAD PUSH32 0x8C379A000000000000000000000000000000000000000000000000000000000 DUP2 MSTORE PUSH1 0x4 ADD PUSH2 0x1E1A SWAP1 PUSH2 0x431B JUMP JUMPDEST PUSH1 0x40 MLOAD DUP1 SWAP2 SUB SWAP1 REVERT JUMPDEST PUSH1 0x0 PUSH2 0x1E2E DUP4 PUSH2 0xB02 JUMP JUMPDEST SWAP1 POP DUP1 PUSH20 0xFFFFFFFFFFFFFFFFFFFFFFFFFFFFFFFFFFFFFFFF AND DUP5 PUSH20 0xFFFFFFFFFFFFFFFFFFFFFFFFFFFFFFFFFFFFFFFF AND EQ DUP1 PUSH2 0x1E70 JUMPI POP PUSH2 0x1E6F DUP2 DUP6 PUSH2 0x1B9E JUMP JUMPDEST JUMPDEST DUP1 PUSH2 0x1EAE JUMPI POP DUP4 PUSH20 0xFFFFFFFFFFFFFFFFFFFFFFFFFFFFFFFFFFFFFFFF AND PUSH2 0x1E96 DUP5 PUSH2 0x698 JUMP JUMPDEST PUSH20 0xFFFFFFFFFFFFFFFFFFFFFFFFFFFFFFFFFFFFFFFF AND EQ JUMPDEST SWAP2 POP POP SWAP3 SWAP2 POP POP JUMP JUMPDEST DUP3 PUSH20 0xFFFFFFFFFFFFFFFFFFFFFFFFFFFFFFFFFFFFFFFF AND PUSH2 0x1ED7 DUP3 PUSH2 0xB02 JUMP JUMPDEST PUSH20 0xFFFFFFFFFFFFFFFFFFFFFFFFFFFFFFFFFFFFFFFF AND EQ PUSH2 0x1F2D JUMPI PUSH1 0x40 MLOAD PUSH32 0x8C379A000000000000000000000000000000000000000000000000000000000 DUP2 MSTORE PUSH1 0x4 ADD PUSH2 0x1F24 SWAP1 PUSH2 0x429B JUMP JUMPDEST PUSH1 0x40 MLOAD DUP1 SWAP2 SUB SWAP1 REVERT JUMPDEST PUSH1 0x0 PUSH20 0xFFFFFFFFFFFFFFFFFFFFFFFFFFFFFFFFFFFFFFFF AND DUP3 PUSH20 0xFFFFFFFFFFFFFFFFFFFFFFFFFFFFFFFFFFFFFFFF AND EQ ISZERO PUSH2 0x1F9D JUMPI PUSH1 0x40 MLOAD PUSH32 0x8C379A000000000000000000000000000000000000000000000000000000000 DUP2 MSTORE PUSH1 0x4 ADD PUSH2 0x1F94 SWAP1 PUSH2 0x42DB JUMP JUMPDEST PUSH1 0x40 MLOAD DUP1 SWAP2 SUB SWAP1 REVERT JUMPDEST PUSH2 0x1FA8 DUP4 DUP4 DUP4 PUSH2 0x2D1A JUMP JUMPDEST PUSH2 0x1FB3 PUSH1 0x0 DUP3 PUSH2 0x1D20 JUMP JUMPDEST PUSH1 0x1 PUSH1 0x3 PUSH1 0x0 DUP6 PUSH20 0xFFFFFFFFFFFFFFFFFFFFFFFFFFFFFFFFFFFFFFFF AND PUSH20 0xFFFFFFFFFFFFFFFFFFFFFFFFFFFFFFFFFFFFFFFF AND DUP2 MSTORE PUSH1 0x20 ADD SWAP1 DUP2 MSTORE PUSH1 0x20 ADD PUSH1 0x0 KECCAK256 PUSH1 0x0 DUP3 DUP3 SLOAD PUSH2 0x2003 SWAP2 SWAP1 PUSH2 0x47B0 JUMP JUMPDEST SWAP3 POP POP DUP2 SWAP1 SSTORE POP PUSH1 0x1 PUSH1 0x3 PUSH1 0x0 DUP5 PUSH20 0xFFFFFFFFFFFFFFFFFFFFFFFFFFFFFFFFFFFFFFFF AND PUSH20 0xFFFFFFFFFFFFFFFFFFFFFFFFFFFFFFFFFFFFFFFF AND DUP2 MSTORE PUSH1 0x20 ADD SWAP1 DUP2 MSTORE PUSH1 0x20 ADD PUSH1 0x0 KECCAK256 PUSH1 0x0 DUP3 DUP3 SLOAD PUSH2 0x205A SWAP2 SWAP1 PUSH2 0x4729 JUMP JUMPDEST SWAP3 POP POP DUP2 SWAP1 SSTORE POP DUP2 PUSH1 0x2 PUSH1 0x0 DUP4 DUP2 MSTORE PUSH1 0x20 ADD SWAP1 DUP2 MSTORE PUSH1 0x20 ADD PUSH1 0x0 KECCAK256 PUSH1 0x0 PUSH2 0x100 EXP DUP2 SLOAD DUP2 PUSH20 0xFFFFFFFFFFFFFFFFFFFFFFFFFFFFFFFFFFFFFFFF MUL NOT AND SWAP1 DUP4 PUSH20 0xFFFFFFFFFFFFFFFFFFFFFFFFFFFFFFFFFFFFFFFF AND MUL OR SWAP1 SSTORE POP DUP1 DUP3 PUSH20 0xFFFFFFFFFFFFFFFFFFFFFFFFFFFFFFFFFFFFFFFF AND DUP5 PUSH20 0xFFFFFFFFFFFFFFFFFFFFFFFFFFFFFFFFFFFFFFFF AND PUSH32 0xDDF252AD1BE2C89B69C2B068FC378DAA952BA7F163C4A11628F55A4DF523B3EF PUSH1 0x40 MLOAD PUSH1 0x40 MLOAD DUP1 SWAP2 SUB SWAP1 LOG4 PUSH2 0x2119 DUP4 DUP4 DUP4 PUSH2 0x2D2A JUMP JUMPDEST POP POP POP JUMP JUMPDEST PUSH1 0x0 PUSH1 0xC PUSH1 0x0 DUP2 SLOAD DUP1 SWAP3 SWAP2 SWAP1 PUSH2 0x2133 SWAP1 PUSH2 0x4919 JUMP JUMPDEST SWAP2 SWAP1 POP SSTORE SWAP1 POP SWAP1 JUMP JUMPDEST PUSH1 0x0 DUP2 PUSH1 0x0 ADD SLOAD SWAP1 POP SWAP2 SWAP1 POP JUMP JUMPDEST PUSH2 0x2152 PUSH2 0x380A JUMP JUMPDEST PUSH1 0x1 DUP4 EQ ISZERO PUSH2 0x218C JUMPI PUSH2 0x2185 DUP3 PUSH1 0x98 PUSH1 0x6F PUSH1 0x6A PUSH1 0x6F PUSH1 0x3 PUSH1 0x63 PUSH1 0x3 PUSH1 0x1E PUSH2 0x2177 PUSH2 0x2D2F JUMP JUMPDEST PUSH2 0x217F PUSH2 0x2D40 JUMP JUMPDEST DUP15 PUSH2 0x2D5D JUMP JUMPDEST SWAP1 POP PUSH2 0x28BD JUMP JUMPDEST PUSH1 0x2 DUP4 EQ ISZERO PUSH2 0x21C6 JUMPI PUSH2 0x21BF DUP3 PUSH1 0xA7 PUSH1 0x7D PUSH1 0x7B PUSH1 0x7E PUSH1 0x3 PUSH1 0x7 PUSH1 0x3 PUSH1 0x28 PUSH2 0x21B1 PUSH2 0x2D2F JUMP JUMPDEST PUSH2 0x21B9 PUSH2 0x2D40 JUMP JUMPDEST DUP15 PUSH2 0x2D5D JUMP JUMPDEST SWAP1 POP PUSH2 0x28BD JUMP JUMPDEST PUSH1 0x3 DUP4 EQ ISZERO PUSH2 0x2200 JUMPI PUSH2 0x21F9 DUP3 PUSH1 0xBB PUSH1 0xA7 PUSH1 0x91 PUSH1 0xC0 PUSH1 0x3 PUSH1 0x7 PUSH1 0x3 PUSH1 0x32 PUSH2 0x21EB PUSH2 0x2D2F JUMP JUMPDEST PUSH2 0x21F3 PUSH2 0x2D40 JUMP JUMPDEST DUP15 PUSH2 0x2D5D JUMP JUMPDEST SWAP1 POP PUSH2 0x28BD JUMP JUMPDEST PUSH1 0x4 DUP4 EQ ISZERO PUSH2 0x223A JUMPI PUSH2 0x2233 DUP3 PUSH1 0x92 PUSH1 0x72 PUSH1 0x80 PUSH1 0x68 PUSH1 0x1 PUSH1 0x63 PUSH1 0x1 PUSH1 0x28 PUSH2 0x2225 PUSH2 0x2D2F JUMP JUMPDEST PUSH2 0x222D PUSH2 0x2D40 JUMP JUMPDEST DUP15 PUSH2 0x2D5D JUMP JUMPDEST SWAP1 POP PUSH2 0x28BD JUMP JUMPDEST PUSH1 0x5 DUP4 EQ ISZERO PUSH2 0x2274 JUMPI PUSH2 0x226D DUP3 PUSH1 0xA5 PUSH1 0x7F PUSH1 0x91 PUSH1 0x79 PUSH1 0x1 PUSH1 0x63 PUSH1 0x1 PUSH1 0x28 PUSH2 0x225F PUSH2 0x2D2F JUMP JUMPDEST PUSH2 0x2267 PUSH2 0x2D40 JUMP JUMPDEST DUP15 PUSH2 0x2D5D JUMP JUMPDEST SWAP1 POP PUSH2 0x28BD JUMP JUMPDEST PUSH1 0x6 DUP4 EQ ISZERO PUSH2 0x22AE JUMPI PUSH2 0x22A7 DUP3 PUSH1 0xB9 PUSH1 0xC8 PUSH1 0xA7 PUSH1 0xB3 PUSH1 0x1 PUSH1 0x9 PUSH1 0x1 PUSH1 0x32 PUSH2 0x2299 PUSH2 0x2D2F JUMP JUMPDEST PUSH2 0x22A1 PUSH2 0x2D40 JUMP JUMPDEST DUP15 PUSH2 0x2D5D JUMP JUMPDEST SWAP1 POP PUSH2 0x28BD JUMP JUMPDEST PUSH1 0x7 DUP4 EQ ISZERO PUSH2 0x22E8 JUMPI PUSH2 0x22E1 DUP3 PUSH1 0x97 PUSH1 0x6E PUSH1 0x68 PUSH1 0x80 PUSH1 0x2 PUSH1 0x63 PUSH1 0x2 PUSH1 0x1E PUSH2 0x22D3 PUSH2 0x2D2F JUMP JUMPDEST PUSH2 0x22DB PUSH2 0x2D40 JUMP JUMPDEST DUP15 PUSH2 0x2D5D JUMP JUMPDEST SWAP1 POP PUSH2 0x28BD JUMP JUMPDEST PUSH1 0x8 DUP4 EQ ISZERO PUSH2 0x2322 JUMPI PUSH2 0x231B DUP3 PUSH1 0xA6 PUSH1 0x7E PUSH1 0x79 PUSH1 0x91 PUSH1 0x2 PUSH1 0x63 PUSH1 0x2 PUSH1 0x28 PUSH2 0x230D PUSH2 0x2D2F JUMP JUMPDEST PUSH2 0x2315 PUSH2 0x2D40 JUMP JUMPDEST DUP15 PUSH2 0x2D5D JUMP JUMPDEST SWAP1 POP PUSH2 0x28BD JUMP JUMPDEST PUSH1 0x9 DUP4 EQ ISZERO PUSH2 0x235C JUMPI PUSH2 0x2355 DUP3 PUSH1 0xBA PUSH1 0x94 PUSH1 0x8F PUSH1 0xA7 PUSH1 0x2 PUSH1 0x63 PUSH1 0x2 PUSH1 0x32 PUSH2 0x2347 PUSH2 0x2D2F JUMP JUMPDEST PUSH2 0x234F PUSH2 0x2D40 JUMP JUMPDEST DUP15 PUSH2 0x2D5D JUMP JUMPDEST SWAP1 POP PUSH2 0x28BD JUMP JUMPDEST PUSH1 0xA DUP4 EQ ISZERO PUSH2 0x237C JUMPI PUSH2 0x2375 DUP3 PUSH1 0xB PUSH1 0x63 DUP7 PUSH1 0x1 PUSH2 0x2E11 JUMP JUMPDEST SWAP1 POP PUSH2 0x28BD JUMP JUMPDEST PUSH1 0xB DUP4 EQ ISZERO PUSH2 0x239C JUMPI PUSH2 0x2395 DUP3 PUSH1 0xB PUSH1 0x63 DUP7 PUSH1 0x2 PUSH2 0x2E11 JUMP JUMPDEST SWAP1 POP PUSH2 0x28BD JUMP JUMPDEST PUSH1 0xC DUP4 EQ ISZERO PUSH2 0x23BC JUMPI PUSH2 0x23B5 DUP3 PUSH1 0xB PUSH1 0x9 DUP7 PUSH1 0x3 PUSH2 0x2E11 JUMP JUMPDEST SWAP1 POP PUSH2 0x28BD JUMP JUMPDEST PUSH1 0xD DUP4 EQ ISZERO PUSH2 0x23DC JUMPI PUSH2 0x23D5 DUP3 PUSH1 0xB PUSH1 0x7 DUP7 PUSH1 0x1 PUSH2 0x2E11 JUMP JUMPDEST SWAP1 POP PUSH2 0x28BD JUMP JUMPDEST PUSH1 0xE DUP4 EQ ISZERO PUSH2 0x23FC JUMPI PUSH2 0x23F5 DUP3 PUSH1 0xB PUSH1 0x7 DUP7 PUSH1 0x2 PUSH2 0x2E11 JUMP JUMPDEST SWAP1 POP PUSH2 0x28BD JUMP JUMPDEST PUSH1 0xF DUP4 EQ ISZERO PUSH2 0x241C JUMPI PUSH2 0x2415 DUP3 PUSH1 0xB PUSH1 0x7 DUP7 PUSH1 0x3 PUSH2 0x2E11 JUMP JUMPDEST SWAP1 POP PUSH2 0x28BD JUMP JUMPDEST PUSH1 0x10 DUP4 EQ ISZERO PUSH2 0x243C JUMPI PUSH2 0x2435 DUP3 PUSH1 0x0 PUSH1 0x9 DUP7 PUSH1 0x1 PUSH2 0x2E11 JUMP JUMPDEST SWAP1 POP PUSH2 0x28BD JUMP JUMPDEST PUSH1 0x11 DUP4 EQ ISZERO PUSH2 0x245C JUMPI PUSH2 0x2455 DUP3 PUSH1 0x0 PUSH1 0x9 DUP7 PUSH1 0x2 PUSH2 0x2E11 JUMP JUMPDEST SWAP1 POP PUSH2 0x28BD JUMP JUMPDEST PUSH1 0x12 DUP4 EQ ISZERO PUSH2 0x247C JUMPI PUSH2 0x2475 DUP3 PUSH1 0x0 PUSH1 0x9 DUP7 PUSH1 0x3 PUSH2 0x2E11 JUMP JUMPDEST SWAP1 POP PUSH2 0x28BD JUMP JUMPDEST PUSH1 0x13 DUP4 EQ ISZERO PUSH2 0x249C JUMPI PUSH2 0x2495 DUP3 PUSH1 0x0 PUSH1 0x63 DUP7 PUSH1 0x1 PUSH2 0x2E11 JUMP JUMPDEST SWAP1 POP PUSH2 0x28BD JUMP JUMPDEST PUSH1 0x14 DUP4 EQ ISZERO PUSH2 0x24BC JUMPI PUSH2 0x24B5 DUP3 PUSH1 0x0 PUSH1 0x63 DUP7 PUSH1 0x2 PUSH2 0x2E11 JUMP JUMPDEST SWAP1 POP PUSH2 0x28BD JUMP JUMPDEST PUSH1 0x15 DUP4 EQ ISZERO PUSH2 0x24DC JUMPI PUSH2 0x24D5 DUP3 PUSH1 0x0 PUSH1 0x9 DUP7 PUSH1 0x1 PUSH2 0x2E11 JUMP JUMPDEST SWAP1 POP PUSH2 0x28BD JUMP JUMPDEST PUSH1 0x16 DUP4 EQ ISZERO PUSH2 0x24FC JUMPI PUSH2 0x24F5 DUP3 PUSH1 0x0 PUSH1 0x9 DUP7 PUSH1 0x2 PUSH2 0x2E11 JUMP JUMPDEST SWAP1 POP PUSH2 0x28BD JUMP JUMPDEST PUSH1 0x17 DUP4 EQ ISZERO PUSH2 0x251C JUMPI PUSH2 0x2515 DUP3 PUSH1 0x7 PUSH1 0x63 DUP7 PUSH1 0x1 PUSH2 0x2E11 JUMP JUMPDEST SWAP1 POP PUSH2 0x28BD JUMP JUMPDEST PUSH1 0x18 DUP4 EQ ISZERO PUSH2 0x253C JUMPI PUSH2 0x2535 DUP3 PUSH1 0x7 PUSH1 0x63 DUP7 PUSH1 0x2 PUSH2 0x2E11 JUMP JUMPDEST SWAP1 POP PUSH2 0x28BD JUMP JUMPDEST PUSH1 0x19 DUP4 EQ ISZERO PUSH2 0x255C JUMPI PUSH2 0x2555 DUP3 PUSH1 0x4 PUSH1 0x63 DUP7 PUSH1 0x2 PUSH2 0x2E11 JUMP JUMPDEST SWAP1 POP PUSH2 0x28BD JUMP JUMPDEST PUSH1 0x1A DUP4 EQ ISZERO PUSH2 0x257C JUMPI PUSH2 0x2575 DUP3 PUSH1 0x4 PUSH1 0x63 DUP7 PUSH1 0x3 PUSH2 0x2E11 JUMP JUMPDEST SWAP1 POP PUSH2 0x28BD JUMP JUMPDEST PUSH1 0x1B DUP4 EQ ISZERO PUSH2 0x259C JUMPI PUSH2 0x2595 DUP3 PUSH1 0x8 PUSH1 0x63 DUP7 PUSH1 0x1 PUSH2 0x2E11 JUMP JUMPDEST SWAP1 POP PUSH2 0x28BD JUMP JUMPDEST PUSH1 0x1C DUP4 EQ ISZERO PUSH2 0x25BC JUMPI PUSH2 0x25B5 DUP3 PUSH1 0x8 PUSH1 0x63 DUP7 PUSH1 0x2 PUSH2 0x2E11 JUMP JUMPDEST SWAP1 POP PUSH2 0x28BD JUMP JUMPDEST PUSH1 0x1D DUP4 EQ ISZERO PUSH2 0x25DC JUMPI PUSH2 0x25D5 DUP3 PUSH1 0x7 PUSH1 0x63 DUP7 PUSH1 0x1 PUSH2 0x2E11 JUMP JUMPDEST SWAP1 POP PUSH2 0x28BD JUMP JUMPDEST PUSH1 0x1E DUP4 EQ ISZERO PUSH2 0x25FC JUMPI PUSH2 0x25F5 DUP3 PUSH1 0x7 PUSH1 0x63 DUP7 PUSH1 0x1 PUSH2 0x2E11 JUMP JUMPDEST SWAP1 POP PUSH2 0x28BD JUMP JUMPDEST PUSH1 0x1F DUP4 EQ ISZERO PUSH2 0x261C JUMPI PUSH2 0x2615 DUP3 PUSH1 0x7 PUSH1 0x8 DUP7 PUSH1 0x3 PUSH2 0x2E11 JUMP JUMPDEST SWAP1 POP PUSH2 0x28BD JUMP JUMPDEST PUSH1 0x20 DUP4 EQ ISZERO PUSH2 0x263C JUMPI PUSH2 0x2635 DUP3 PUSH1 0x7 PUSH1 0x63 DUP7 PUSH1 0x1 PUSH2 0x2E11 JUMP JUMPDEST SWAP1 POP PUSH2 0x28BD JUMP JUMPDEST PUSH1 0x21 DUP4 EQ ISZERO PUSH2 0x265C JUMPI PUSH2 0x2655 DUP3 PUSH1 0x7 PUSH1 0x63 DUP7 PUSH1 0x2 PUSH2 0x2E11 JUMP JUMPDEST SWAP1 POP PUSH2 0x28BD JUMP JUMPDEST PUSH1 0x22 DUP4 EQ ISZERO PUSH2 0x267C JUMPI PUSH2 0x2675 DUP3 PUSH1 0x7 PUSH1 0x8 DUP7 PUSH1 0x3 PUSH2 0x2E11 JUMP JUMPDEST SWAP1 POP PUSH2 0x28BD JUMP JUMPDEST PUSH1 0x23 DUP4 EQ ISZERO PUSH2 0x269C JUMPI PUSH2 0x2695 DUP3 PUSH1 0x11 PUSH1 0x63 DUP7 PUSH1 0x1 PUSH2 0x2E11 JUMP JUMPDEST SWAP1 POP PUSH2 0x28BD JUMP JUMPDEST PUSH1 0x24 DUP4 EQ ISZERO PUSH2 0x26BC JUMPI PUSH2 0x26B5 DUP3 PUSH1 0x11 PUSH1 0x63 DUP7 PUSH1 0x2 PUSH2 0x2E11 JUMP JUMPDEST SWAP1 POP PUSH2 0x28BD JUMP JUMPDEST PUSH1 0x25 DUP4 EQ ISZERO PUSH2 0x26DC JUMPI PUSH2 0x26D5 DUP3 PUSH1 0x1 PUSH1 0x63 DUP7 PUSH1 0x2 PUSH2 0x2E11 JUMP JUMPDEST SWAP1 POP PUSH2 0x28BD JUMP JUMPDEST PUSH1 0x26 DUP4 EQ ISZERO PUSH2 0x26FC JUMPI PUSH2 0x26F5 DUP3 PUSH1 0x1 PUSH1 0x63 DUP7 PUSH1 0x3 PUSH2 0x2E11 JUMP JUMPDEST SWAP1 POP PUSH2 0x28BD JUMP JUMPDEST PUSH1 0x27 DUP4 EQ ISZERO PUSH2 0x271C JUMPI PUSH2 0x2715 DUP3 PUSH1 0x0 PUSH1 0x11 DUP7 PUSH1 0x1 PUSH2 0x2E11 JUMP JUMPDEST SWAP1 POP PUSH2 0x28BD JUMP JUMPDEST PUSH1 0x28 DUP4 EQ ISZERO PUSH2 0x273C JUMPI PUSH2 0x2735 DUP3 PUSH1 0x0 PUSH1 0x11 DUP7 PUSH1 0x2 PUSH2 0x2E11 JUMP JUMPDEST SWAP1 POP PUSH2 0x28BD JUMP JUMPDEST PUSH1 0x29 DUP4 EQ ISZERO PUSH2 0x275C JUMPI PUSH2 0x2755 DUP3 PUSH1 0x7 PUSH1 0x9 DUP7 PUSH1 0x1 PUSH2 0x2E11 JUMP JUMPDEST SWAP1 POP PUSH2 0x28BD JUMP JUMPDEST PUSH1 0x2A DUP4 EQ ISZERO PUSH2 0x277C JUMPI PUSH2 0x2775 DUP3 PUSH1 0x7 PUSH1 0x9 DUP7 PUSH1 0x2 PUSH2 0x2E11 JUMP JUMPDEST SWAP1 POP PUSH2 0x28BD JUMP JUMPDEST PUSH1 0x2B DUP4 EQ ISZERO PUSH2 0x279C JUMPI PUSH2 0x2795 DUP3 PUSH1 0x3 PUSH1 0x7 DUP7 PUSH1 0x1 PUSH2 0x2E11 JUMP JUMPDEST SWAP1 POP PUSH2 0x28BD JUMP JUMPDEST PUSH1 0x2C DUP4 EQ ISZERO PUSH2 0x27BC JUMPI PUSH2 0x27B5 DUP3 PUSH1 0x3 PUSH1 0x7 DUP7 PUSH1 0x2 PUSH2 0x2E11 JUMP JUMPDEST SWAP1 POP PUSH2 0x28BD JUMP JUMPDEST PUSH1 0x2D DUP4 EQ ISZERO PUSH2 0x27DC JUMPI PUSH2 0x27D5 DUP3 PUSH1 0x3 PUSH1 0x7 DUP7 PUSH1 0x3 PUSH2 0x2E11 JUMP JUMPDEST SWAP1 POP PUSH2 0x28BD JUMP JUMPDEST PUSH1 0x2E DUP4 EQ ISZERO PUSH2 0x27FC JUMPI PUSH2 0x27F5 DUP3 PUSH1 0xB PUSH1 0x3 DUP7 PUSH1 0x1 PUSH2 0x2E11 JUMP JUMPDEST SWAP1 POP PUSH2 0x28BD JUMP JUMPDEST PUSH1 0x2F DUP4 EQ ISZERO PUSH2 0x281C JUMPI PUSH2 0x2815 DUP3 PUSH1 0xB PUSH1 0x3 DUP7 PUSH1 0x2 PUSH2 0x2E11 JUMP JUMPDEST SWAP1 POP PUSH2 0x28BD JUMP JUMPDEST PUSH1 0x30 DUP4 EQ ISZERO PUSH2 0x283C JUMPI PUSH2 0x2835 DUP3 PUSH1 0xB PUSH1 0x7 DUP7 PUSH1 0x1 PUSH2 0x2E11 JUMP JUMPDEST SWAP1 POP PUSH2 0x28BD JUMP JUMPDEST PUSH1 0x31 DUP4 EQ ISZERO PUSH2 0x285C JUMPI PUSH2 0x2855 DUP3 PUSH1 0xB PUSH1 0x7 DUP7 PUSH1 0x3 PUSH2 0x2E11 JUMP JUMPDEST SWAP1 POP PUSH2 0x28BD JUMP JUMPDEST PUSH1 0x32 DUP4 EQ ISZERO PUSH2 0x287C JUMPI PUSH2 0x2875 DUP3 PUSH1 0x8 PUSH1 0x63 DUP7 PUSH1 0x2 PUSH2 0x2E11 JUMP JUMPDEST SWAP1 POP PUSH2 0x28BD JUMP JUMPDEST PUSH1 0x33 DUP4 EQ ISZERO PUSH2 0x289C JUMPI PUSH2 0x2895 DUP3 PUSH1 0x8 PUSH1 0x63 DUP7 PUSH1 0x3 PUSH2 0x2E11 JUMP JUMPDEST SWAP1 POP PUSH2 0x28BD JUMP JUMPDEST PUSH1 0x34 DUP4 EQ ISZERO PUSH2 0x28BC JUMPI PUSH2 0x28B5 DUP3 PUSH1 0x0 PUSH1 0x63 DUP7 PUSH1 0x2 PUSH2 0x2E11 JUMP JUMPDEST SWAP1 POP PUSH2 0x28BD JUMP JUMPDEST JUMPDEST SWAP3 SWAP2 POP POP JUMP JUMPDEST PUSH2 0x28DD DUP3 DUP3 PUSH1 0x40 MLOAD DUP1 PUSH1 0x20 ADD PUSH1 0x40 MSTORE DUP1 PUSH1 0x0 DUP2 MSTORE POP PUSH2 0x2F25 JUMP JUMPDEST POP POP JUMP JUMPDEST PUSH1 0x1 DUP2 PUSH1 0x0 ADD PUSH1 0x0 DUP3 DUP3 SLOAD ADD SWAP3 POP POP DUP2 SWAP1 SSTORE POP POP JUMP JUMPDEST DUP2 PUSH20 0xFFFFFFFFFFFFFFFFFFFFFFFFFFFFFFFFFFFFFFFF AND DUP4 PUSH20 0xFFFFFFFFFFFFFFFFFFFFFFFFFFFFFFFFFFFFFFFF AND EQ ISZERO PUSH2 0x2966 JUMPI PUSH1 0x40 MLOAD PUSH32 0x8C379A000000000000000000000000000000000000000000000000000000000 DUP2 MSTORE PUSH1 0x4 ADD PUSH2 0x295D SWAP1 PUSH2 0x42FB JUMP JUMPDEST PUSH1 0x40 MLOAD DUP1 SWAP2 SUB SWAP1 REVERT JUMPDEST DUP1 PUSH1 0x5 PUSH1 0x0 DUP6 PUSH20 0xFFFFFFFFFFFFFFFFFFFFFFFFFFFFFFFFFFFFFFFF AND PUSH20 0xFFFFFFFFFFFFFFFFFFFFFFFFFFFFFFFFFFFFFFFF AND DUP2 MSTORE PUSH1 0x20 ADD SWAP1 DUP2 MSTORE PUSH1 0x20 ADD PUSH1 0x0 KECCAK256 PUSH1 0x0 DUP5 PUSH20 0xFFFFFFFFFFFFFFFFFFFFFFFFFFFFFFFFFFFFFFFF AND PUSH20 0xFFFFFFFFFFFFFFFFFFFFFFFFFFFFFFFFFFFFFFFF AND DUP2 MSTORE PUSH1 0x20 ADD SWAP1 DUP2 MSTORE PUSH1 0x20 ADD PUSH1 0x0 KECCAK256 PUSH1 0x0 PUSH2 0x100 EXP DUP2 SLOAD DUP2 PUSH1 0xFF MUL NOT AND SWAP1 DUP4 ISZERO ISZERO MUL OR SWAP1 SSTORE POP DUP2 PUSH20 0xFFFFFFFFFFFFFFFFFFFFFFFFFFFFFFFFFFFFFFFF AND DUP4 PUSH20 0xFFFFFFFFFFFFFFFFFFFFFFFFFFFFFFFFFFFFFFFF AND PUSH32 0x17307EAB39AB6107E8899845AD3D59BD9653F200F220920489CA2B5937696C31 DUP4 PUSH1 0x40 MLOAD PUSH2 0x2A57 SWAP2 SWAP1 PUSH2 0x4203 JUMP JUMPDEST PUSH1 0x40 MLOAD DUP1 SWAP2 SUB SWAP1 LOG3 POP POP POP JUMP JUMPDEST PUSH2 0x2A6F DUP5 DUP5 DUP5 PUSH2 0x1EB7 JUMP JUMPDEST PUSH2 0x2A7B DUP5 DUP5 DUP5 DUP5 PUSH2 0x2F80 JUMP JUMPDEST PUSH2 0x2ABA JUMPI PUSH1 0x40 MLOAD PUSH32 0x8C379A000000000000000000000000000000000000000000000000000000000 DUP2 MSTORE PUSH1 0x4 ADD PUSH2 0x2AB1 SWAP1 PUSH2 0x427B JUMP JUMPDEST PUSH1 0x40 MLOAD DUP1 SWAP2 SUB SWAP1 REVERT JUMPDEST POP POP POP POP JUMP JUMPDEST PUSH1 0x60 PUSH1 0x40 MLOAD DUP1 PUSH1 0x20 ADD PUSH1 0x40 MSTORE DUP1 PUSH1 0x0 DUP2 MSTORE POP SWAP1 POP SWAP1 JUMP JUMPDEST PUSH1 0x60 PUSH1 0x0 DUP3 EQ ISZERO PUSH2 0x2B1F JUMPI PUSH1 0x40 MLOAD DUP1 PUSH1 0x40 ADD PUSH1 0x40 MSTORE DUP1 PUSH1 0x1 DUP2 MSTORE PUSH1 0x20 ADD PUSH32 0x3000000000000000000000000000000000000000000000000000000000000000 DUP2 MSTORE POP SWAP1 POP PUSH2 0x2C33 JUMP JUMPDEST PUSH1 0x0 DUP3 SWAP1 POP PUSH1 0x0 JUMPDEST PUSH1 0x0 DUP3 EQ PUSH2 0x2B51 JUMPI DUP1 DUP1 PUSH2 0x2B3A SWAP1 PUSH2 0x4919 JUMP JUMPDEST SWAP2 POP POP PUSH1 0xA DUP3 PUSH2 0x2B4A SWAP2 SWAP1 PUSH2 0x477F JUMP JUMPDEST SWAP2 POP PUSH2 0x2B27 JUMP JUMPDEST PUSH1 0x0 DUP2 PUSH8 0xFFFFFFFFFFFFFFFF DUP2 GT ISZERO PUSH2 0x2B6D JUMPI PUSH2 0x2B6C PUSH2 0x4A88 JUMP JUMPDEST JUMPDEST PUSH1 0x40 MLOAD SWAP1 DUP1 DUP3 MSTORE DUP1 PUSH1 0x1F ADD PUSH1 0x1F NOT AND PUSH1 0x20 ADD DUP3 ADD PUSH1 0x40 MSTORE DUP1 ISZERO PUSH2 0x2B9F JUMPI DUP2 PUSH1 0x20 ADD PUSH1 0x1 DUP3 MUL DUP1 CALLDATASIZE DUP4 CALLDATACOPY DUP1 DUP3 ADD SWAP2 POP POP SWAP1 POP JUMPDEST POP SWAP1 POP JUMPDEST PUSH1 0x0 DUP6 EQ PUSH2 0x2C2C JUMPI PUSH1 0x1 DUP3 PUSH2 0x2BB8 SWAP2 SWAP1 PUSH2 0x47B0 JUMP JUMPDEST SWAP2 POP PUSH1 0xA DUP6 PUSH2 0x2BC7 SWAP2 SWAP1 PUSH2 0x496C JUMP JUMPDEST PUSH1 0x30 PUSH2 0x2BD3 SWAP2 SWAP1 PUSH2 0x4729 JUMP JUMPDEST PUSH1 0xF8 SHL DUP2 DUP4 DUP2 MLOAD DUP2 LT PUSH2 0x2BE9 JUMPI PUSH2 0x2BE8 PUSH2 0x4A59 JUMP JUMPDEST JUMPDEST PUSH1 0x20 ADD ADD SWAP1 PUSH31 0xFFFFFFFFFFFFFFFFFFFFFFFFFFFFFFFFFFFFFFFFFFFFFFFFFFFFFFFFFFFFFF NOT AND SWAP1 DUP2 PUSH1 0x0 BYTE SWAP1 MSTORE8 POP PUSH1 0xA DUP6 PUSH2 0x2C25 SWAP2 SWAP1 PUSH2 0x477F JUMP JUMPDEST SWAP5 POP PUSH2 0x2BA3 JUMP JUMPDEST DUP1 SWAP4 POP POP POP POP JUMPDEST SWAP2 SWAP1 POP JUMP JUMPDEST PUSH1 0x0 PUSH32 0x80AC58CD00000000000000000000000000000000000000000000000000000000 PUSH28 0xFFFFFFFFFFFFFFFFFFFFFFFFFFFFFFFFFFFFFFFFFFFFFFFFFFFFFFFF NOT AND DUP3 PUSH28 0xFFFFFFFFFFFFFFFFFFFFFFFFFFFFFFFFFFFFFFFFFFFFFFFFFFFFFFFF NOT AND EQ DUP1 PUSH2 0x2D03 JUMPI POP PUSH32 0x5B5E139F00000000000000000000000000000000000000000000000000000000 PUSH28 0xFFFFFFFFFFFFFFFFFFFFFFFFFFFFFFFFFFFFFFFFFFFFFFFFFFFFFFFF NOT AND DUP3 PUSH28 0xFFFFFFFFFFFFFFFFFFFFFFFFFFFFFFFFFFFFFFFFFFFFFFFFFFFFFFFF NOT AND EQ JUMPDEST DUP1 PUSH2 0x2D13 JUMPI POP PUSH2 0x2D12 DUP3 PUSH2 0x3117 JUMP JUMPDEST JUMPDEST SWAP1 POP SWAP2 SWAP1 POP JUMP JUMPDEST PUSH2 0x2D25 DUP4 DUP4 DUP4 PUSH2 0x3181 JUMP JUMPDEST POP POP POP JUMP JUMPDEST POP POP POP JUMP JUMPDEST PUSH1 0x0 PUSH2 0x2D3B PUSH1 0x11 PUSH2 0x3295 JUMP JUMPDEST SWAP1 POP SWAP1 JUMP JUMPDEST PUSH1 0x0 PUSH1 0x28 PUSH2 0x2D4E PUSH1 0x32 PUSH2 0x3295 JUMP JUMPDEST PUSH2 0x2D58 SWAP2 SWAP1 PUSH2 0x4729 JUMP JUMPDEST SWAP1 POP SWAP1 JUMP JUMPDEST PUSH2 0x2D65 PUSH2 0x380A JUMP JUMPDEST PUSH1 0x40 MLOAD DUP1 PUSH2 0x180 ADD PUSH1 0x40 MSTORE DUP1 DUP15 DUP2 MSTORE PUSH1 0x20 ADD PUSH2 0x2D7F PUSH2 0x32F1 JUMP JUMPDEST DUP15 PUSH2 0x2D8A SWAP2 SWAP1 PUSH2 0x4729 JUMP JUMPDEST DUP2 MSTORE PUSH1 0x20 ADD PUSH2 0x2D97 PUSH2 0x32F1 JUMP JUMPDEST DUP14 PUSH2 0x2DA2 SWAP2 SWAP1 PUSH2 0x4729 JUMP JUMPDEST DUP2 MSTORE PUSH1 0x20 ADD PUSH2 0x2DAF PUSH2 0x32F1 JUMP JUMPDEST DUP13 PUSH2 0x2DBA SWAP2 SWAP1 PUSH2 0x4729 JUMP JUMPDEST DUP2 MSTORE PUSH1 0x20 ADD PUSH2 0x2DC7 PUSH2 0x32F1 JUMP JUMPDEST DUP12 PUSH2 0x2DD2 SWAP2 SWAP1 PUSH2 0x4729 JUMP JUMPDEST DUP2 MSTORE PUSH1 0x20 ADD DUP10 DUP2 MSTORE PUSH1 0x20 ADD DUP9 DUP2 MSTORE PUSH1 0x20 ADD DUP8 DUP2 MSTORE PUSH1 0x20 ADD DUP7 DUP2 MSTORE PUSH1 0x20 ADD DUP6 DUP2 MSTORE PUSH1 0x20 ADD DUP5 DUP2 MSTORE PUSH1 0x20 ADD DUP4 DUP2 MSTORE POP SWAP1 POP SWAP13 SWAP12 POP POP POP POP POP POP POP POP POP POP POP POP JUMP JUMPDEST PUSH2 0x2E19 PUSH2 0x380A JUMP JUMPDEST PUSH1 0x0 PUSH1 0x64 SWAP1 POP PUSH1 0x2 DUP4 EQ ISZERO PUSH2 0x2E38 JUMPI PUSH1 0x14 DUP2 PUSH2 0x2E35 SWAP2 SWAP1 PUSH2 0x4729 JUMP JUMPDEST SWAP1 POP JUMPDEST PUSH1 0x3 DUP4 EQ ISZERO PUSH2 0x2E51 JUMPI PUSH1 0x32 DUP2 PUSH2 0x2E4E SWAP2 SWAP1 PUSH2 0x4729 JUMP JUMPDEST SWAP1 POP JUMPDEST PUSH1 0x4 DUP4 EQ ISZERO PUSH2 0x2E6A JUMPI PUSH1 0x46 DUP2 PUSH2 0x2E67 SWAP2 SWAP1 PUSH2 0x4729 JUMP JUMPDEST SWAP1 POP JUMPDEST PUSH1 0x40 MLOAD DUP1 PUSH2 0x180 ADD PUSH1 0x40 MSTORE DUP1 DUP9 DUP2 MSTORE PUSH1 0x20 ADD PUSH2 0x2E84 PUSH2 0x32F1 JUMP JUMPDEST DUP4 PUSH2 0x2E8F SWAP2 SWAP1 PUSH2 0x4729 JUMP JUMPDEST DUP2 MSTORE PUSH1 0x20 ADD PUSH2 0x2E9C PUSH2 0x32F1 JUMP JUMPDEST DUP4 PUSH2 0x2EA7 SWAP2 SWAP1 PUSH2 0x4729 JUMP JUMPDEST DUP2 MSTORE PUSH1 0x20 ADD PUSH2 0x2EB4 PUSH2 0x32F1 JUMP JUMPDEST DUP4 PUSH2 0x2EBF SWAP2 SWAP1 PUSH2 0x4729 JUMP JUMPDEST DUP2 MSTORE PUSH1 0x20 ADD PUSH2 0x2ECC PUSH2 0x32F1 JUMP JUMPDEST DUP4 PUSH2 0x2ED7 SWAP2 SWAP1 PUSH2 0x4729 JUMP JUMPDEST DUP2 MSTORE PUSH1 0x20 ADD DUP8 DUP2 MSTORE PUSH1 0x20 ADD DUP7 DUP2 MSTORE PUSH1 0x20 ADD DUP8 DUP2 MSTORE PUSH1 0x20 ADD PUSH2 0x2EF6 PUSH2 0x2D40 JUMP JUMPDEST DUP2 MSTORE PUSH1 0x20 ADD PUSH2 0x2F03 PUSH2 0x2D2F JUMP JUMPDEST DUP2 MSTORE PUSH1 0x20 ADD PUSH2 0x2F10 PUSH2 0x2D40 JUMP JUMPDEST DUP2 MSTORE PUSH1 0x20 ADD DUP6 DUP2 MSTORE POP SWAP2 POP POP SWAP6 SWAP5 POP POP POP POP POP JUMP JUMPDEST PUSH2 0x2F2F DUP4 DUP4 PUSH2 0x3302 JUMP JUMPDEST PUSH2 0x2F3C PUSH1 0x0 DUP5 DUP5 DUP5 PUSH2 0x2F80 JUMP JUMPDEST PUSH2 0x2F7B JUMPI PUSH1 0x40 MLOAD PUSH32 0x8C379A000000000000000000000000000000000000000000000000000000000 DUP2 MSTORE PUSH1 0x4 ADD PUSH2 0x2F72 SWAP1 PUSH2 0x427B JUMP JUMPDEST PUSH1 0x40 MLOAD DUP1 SWAP2 SUB SWAP1 REVERT JUMPDEST POP POP POP JUMP JUMPDEST PUSH1 0x0 PUSH2 0x2FA1 DUP5 PUSH20 0xFFFFFFFFFFFFFFFFFFFFFFFFFFFFFFFFFFFFFFFF AND PUSH2 0x34DC JUMP JUMPDEST ISZERO PUSH2 0x310A JUMPI DUP4 PUSH20 0xFFFFFFFFFFFFFFFFFFFFFFFFFFFFFFFFFFFFFFFF AND PUSH4 0x150B7A02 PUSH2 0x2FCA PUSH2 0x1D18 JUMP JUMPDEST DUP8 DUP7 DUP7 PUSH1 0x40 MLOAD DUP6 PUSH4 0xFFFFFFFF AND PUSH1 0xE0 SHL DUP2 MSTORE PUSH1 0x4 ADD PUSH2 0x2FEC SWAP5 SWAP4 SWAP3 SWAP2 SWAP1 PUSH2 0x41B7 JUMP JUMPDEST PUSH1 0x20 PUSH1 0x40 MLOAD DUP1 DUP4 SUB DUP2 PUSH1 0x0 DUP8 DUP1 EXTCODESIZE ISZERO DUP1 ISZERO PUSH2 0x3006 JUMPI PUSH1 0x0 DUP1 REVERT JUMPDEST POP GAS CALL SWAP3 POP POP POP DUP1 ISZERO PUSH2 0x3037 JUMPI POP PUSH1 0x40 MLOAD RETURNDATASIZE PUSH1 0x1F NOT PUSH1 0x1F DUP3 ADD AND DUP3 ADD DUP1 PUSH1 0x40 MSTORE POP DUP2 ADD SWAP1 PUSH2 0x3034 SWAP2 SWAP1 PUSH2 0x3B76 JUMP JUMPDEST PUSH1 0x1 JUMPDEST PUSH2 0x30BA JUMPI RETURNDATASIZE DUP1 PUSH1 0x0 DUP2 EQ PUSH2 0x3067 JUMPI PUSH1 0x40 MLOAD SWAP2 POP PUSH1 0x1F NOT PUSH1 0x3F RETURNDATASIZE ADD AND DUP3 ADD PUSH1 0x40 MSTORE RETURNDATASIZE DUP3 MSTORE RETURNDATASIZE PUSH1 0x0 PUSH1 0x20 DUP5 ADD RETURNDATACOPY PUSH2 0x306C JUMP JUMPDEST PUSH1 0x60 SWAP2 POP JUMPDEST POP PUSH1 0x0 DUP2 MLOAD EQ ISZERO PUSH2 0x30B2 JUMPI PUSH1 0x40 MLOAD PUSH32 0x8C379A000000000000000000000000000000000000000000000000000000000 DUP2 MSTORE PUSH1 0x4 ADD PUSH2 0x30A9 SWAP1 PUSH2 0x427B JUMP JUMPDEST PUSH1 0x40 MLOAD DUP1 SWAP2 SUB SWAP1 REVERT JUMPDEST DUP1 MLOAD DUP2 PUSH1 0x20 ADD REVERT JUMPDEST PUSH4 0x150B7A02 PUSH1 0xE0 SHL PUSH28 0xFFFFFFFFFFFFFFFFFFFFFFFFFFFFFFFFFFFFFFFFFFFFFFFFFFFFFFFF NOT AND DUP2 PUSH28 0xFFFFFFFFFFFFFFFFFFFFFFFFFFFFFFFFFFFFFFFFFFFFFFFFFFFFFFFF NOT AND EQ SWAP2 POP POP PUSH2 0x310F JUMP JUMPDEST PUSH1 0x1 SWAP1 POP JUMPDEST SWAP5 SWAP4 POP POP POP POP JUMP JUMPDEST PUSH1 0x0 PUSH32 0x1FFC9A700000000000000000000000000000000000000000000000000000000 PUSH28 0xFFFFFFFFFFFFFFFFFFFFFFFFFFFFFFFFFFFFFFFFFFFFFFFFFFFFFFFF NOT AND DUP3 PUSH28 0xFFFFFFFFFFFFFFFFFFFFFFFFFFFFFFFFFFFFFFFFFFFFFFFFFFFFFFFF NOT AND EQ SWAP1 POP SWAP2 SWAP1 POP JUMP JUMPDEST PUSH2 0x318C DUP4 DUP4 DUP4 PUSH2 0x34FF JUMP JUMPDEST PUSH1 0x0 PUSH20 0xFFFFFFFFFFFFFFFFFFFFFFFFFFFFFFFFFFFFFFFF AND DUP4 PUSH20 0xFFFFFFFFFFFFFFFFFFFFFFFFFFFFFFFFFFFFFFFF AND EQ ISZERO PUSH2 0x31CF JUMPI PUSH2 0x31CA DUP2 PUSH2 0x3504 JUMP JUMPDEST PUSH2 0x320E JUMP JUMPDEST DUP2 PUSH20 0xFFFFFFFFFFFFFFFFFFFFFFFFFFFFFFFFFFFFFFFF AND DUP4 PUSH20 0xFFFFFFFFFFFFFFFFFFFFFFFFFFFFFFFFFFFFFFFF AND EQ PUSH2 0x320D JUMPI PUSH2 0x320C DUP4 DUP3 PUSH2 0x354D JUMP JUMPDEST JUMPDEST JUMPDEST PUSH1 0x0 PUSH20 0xFFFFFFFFFFFFFFFFFFFFFFFFFFFFFFFFFFFFFFFF AND DUP3 PUSH20 0xFFFFFFFFFFFFFFFFFFFFFFFFFFFFFFFFFFFFFFFF AND EQ ISZERO PUSH2 0x3251 JUMPI PUSH2 0x324C DUP2 PUSH2 0x36BA JUMP JUMPDEST PUSH2 0x3290 JUMP JUMPDEST DUP3 PUSH20 0xFFFFFFFFFFFFFFFFFFFFFFFFFFFFFFFFFFFFFFFF AND DUP3 PUSH20 0xFFFFFFFFFFFFFFFFFFFFFFFFFFFFFFFFFFFFFFFF AND EQ PUSH2 0x328F JUMPI PUSH2 0x328E DUP3 DUP3 PUSH2 0x378B JUMP JUMPDEST JUMPDEST JUMPDEST POP POP POP JUMP JUMPDEST PUSH1 0x0 PUSH1 0xD PUSH1 0x0 DUP2 SLOAD DUP1 SWAP3 SWAP2 SWAP1 PUSH2 0x32AA SWAP1 PUSH2 0x4919 JUMP JUMPDEST SWAP2 SWAP1 POP SSTORE POP DUP2 DIFFICULTY TIMESTAMP PUSH1 0xD SLOAD PUSH1 0x40 MLOAD PUSH1 0x20 ADD PUSH2 0x32C7 SWAP4 SWAP3 SWAP2 SWAP1 PUSH2 0x415F JUMP JUMPDEST PUSH1 0x40 MLOAD PUSH1 0x20 DUP2 DUP4 SUB SUB DUP2 MSTORE SWAP1 PUSH1 0x40 MSTORE DUP1 MLOAD SWAP1 PUSH1 0x20 ADD KECCAK256 PUSH1 0x0 SHR PUSH2 0x32EA SWAP2 SWAP1 PUSH2 0x496C JUMP JUMPDEST SWAP1 POP SWAP2 SWAP1 POP JUMP JUMPDEST PUSH1 0x0 PUSH2 0x32FD PUSH1 0x14 PUSH2 0x3295 JUMP JUMPDEST SWAP1 POP SWAP1 JUMP JUMPDEST PUSH1 0x0 PUSH20 0xFFFFFFFFFFFFFFFFFFFFFFFFFFFFFFFFFFFFFFFF AND DUP3 PUSH20 0xFFFFFFFFFFFFFFFFFFFFFFFFFFFFFFFFFFFFFFFF AND EQ ISZERO PUSH2 0x3372 JUMPI PUSH1 0x40 MLOAD PUSH32 0x8C379A000000000000000000000000000000000000000000000000000000000 DUP2 MSTORE PUSH1 0x4 ADD PUSH2 0x3369 SWAP1 PUSH2 0x439B JUMP JUMPDEST PUSH1 0x40 MLOAD DUP1 SWAP2 SUB SWAP1 REVERT JUMPDEST PUSH2 0x337B DUP2 PUSH2 0x1CAC JUMP JUMPDEST ISZERO PUSH2 0x33BB JUMPI PUSH1 0x40 MLOAD PUSH32 0x8C379A000000000000000000000000000000000000000000000000000000000 DUP2 MSTORE PUSH1 0x4 ADD PUSH2 0x33B2 SWAP1 PUSH2 0x42BB JUMP JUMPDEST PUSH1 0x40 MLOAD DUP1 SWAP2 SUB SWAP1 REVERT JUMPDEST PUSH2 0x33C7 PUSH1 0x0 DUP4 DUP4 PUSH2 0x2D1A JUMP JUMPDEST PUSH1 0x1 PUSH1 0x3 PUSH1 0x0 DUP5 PUSH20 0xFFFFFFFFFFFFFFFFFFFFFFFFFFFFFFFFFFFFFFFF AND PUSH20 0xFFFFFFFFFFFFFFFFFFFFFFFFFFFFFFFFFFFFFFFF AND DUP2 MSTORE PUSH1 0x20 ADD SWAP1 DUP2 MSTORE PUSH1 0x20 ADD PUSH1 0x0 KECCAK256 PUSH1 0x0 DUP3 DUP3 SLOAD PUSH2 0x3417 SWAP2 SWAP1 PUSH2 0x4729 JUMP JUMPDEST SWAP3 POP POP DUP2 SWAP1 SSTORE POP DUP2 PUSH1 0x2 PUSH1 0x0 DUP4 DUP2 MSTORE PUSH1 0x20 ADD SWAP1 DUP2 MSTORE PUSH1 0x20 ADD PUSH1 0x0 KECCAK256 PUSH1 0x0 PUSH2 0x100 EXP DUP2 SLOAD DUP2 PUSH20 0xFFFFFFFFFFFFFFFFFFFFFFFFFFFFFFFFFFFFFFFF MUL NOT AND SWAP1 DUP4 PUSH20 0xFFFFFFFFFFFFFFFFFFFFFFFFFFFFFFFFFFFFFFFF AND MUL OR SWAP1 SSTORE POP DUP1 DUP3 PUSH20 0xFFFFFFFFFFFFFFFFFFFFFFFFFFFFFFFFFFFFFFFF AND PUSH1 0x0 PUSH20 0xFFFFFFFFFFFFFFFFFFFFFFFFFFFFFFFFFFFFFFFF AND PUSH32 0xDDF252AD1BE2C89B69C2B068FC378DAA952BA7F163C4A11628F55A4DF523B3EF PUSH1 0x40 MLOAD PUSH1 0x40 MLOAD DUP1 SWAP2 SUB SWAP1 LOG4 PUSH2 0x34D8 PUSH1 0x0 DUP4 DUP4 PUSH2 0x2D2A JUMP JUMPDEST POP POP JUMP JUMPDEST PUSH1 0x0 DUP1 DUP3 PUSH20 0xFFFFFFFFFFFFFFFFFFFFFFFFFFFFFFFFFFFFFFFF AND EXTCODESIZE GT SWAP1 POP SWAP2 SWAP1 POP JUMP JUMPDEST POP POP POP JUMP JUMPDEST PUSH1 0x8 DUP1 SLOAD SWAP1 POP PUSH1 0x9 PUSH1 0x0 DUP4 DUP2 MSTORE PUSH1 0x20 ADD SWAP1 DUP2 MSTORE PUSH1 0x20 ADD PUSH1 0x0 KECCAK256 DUP2 SWAP1 SSTORE POP PUSH1 0x8 DUP2 SWAP1 DUP1 PUSH1 0x1 DUP2 SLOAD ADD DUP1 DUP3 SSTORE DUP1 SWAP2 POP POP PUSH1 0x1 SWAP1 SUB SWAP1 PUSH1 0x0 MSTORE PUSH1 0x20 PUSH1 0x0 KECCAK256 ADD PUSH1 0x0 SWAP1 SWAP2 SWAP1 SWAP2 SWAP1 SWAP2 POP SSTORE POP JUMP JUMPDEST PUSH1 0x0 PUSH1 0x1 PUSH2 0x355A DUP5 PUSH2 0xBB4 JUMP JUMPDEST PUSH2 0x3564 SWAP2 SWAP1 PUSH2 0x47B0 JUMP JUMPDEST SWAP1 POP PUSH1 0x0 PUSH1 0x7 PUSH1 0x0 DUP5 DUP2 MSTORE PUSH1 0x20 ADD SWAP1 DUP2 MSTORE PUSH1 0x20 ADD PUSH1 0x0 KECCAK256 SLOAD SWAP1 POP DUP2 DUP2 EQ PUSH2 0x3649 JUMPI PUSH1 0x0 PUSH1 0x6 PUSH1 0x0 DUP7 PUSH20 0xFFFFFFFFFFFFFFFFFFFFFFFFFFFFFFFFFFFFFFFF AND PUSH20 0xFFFFFFFFFFFFFFFFFFFFFFFFFFFFFFFFFFFFFFFF AND DUP2 MSTORE PUSH1 0x20 ADD SWAP1 DUP2 MSTORE PUSH1 0x20 ADD PUSH1 0x0 KECCAK256 PUSH1 0x0 DUP5 DUP2 MSTORE PUSH1 0x20 ADD SWAP1 DUP2 MSTORE PUSH1 0x20 ADD PUSH1 0x0 KECCAK256 SLOAD SWAP1 POP DUP1 PUSH1 0x6 PUSH1 0x0 DUP8 PUSH20 0xFFFFFFFFFFFFFFFFFFFFFFFFFFFFFFFFFFFFFFFF AND PUSH20 0xFFFFFFFFFFFFFFFFFFFFFFFFFFFFFFFFFFFFFFFF AND DUP2 MSTORE PUSH1 0x20 ADD SWAP1 DUP2 MSTORE PUSH1 0x20 ADD PUSH1 0x0 KECCAK256 PUSH1 0x0 DUP5 DUP2 MSTORE PUSH1 0x20 ADD SWAP1 DUP2 MSTORE PUSH1 0x20 ADD PUSH1 0x0 KECCAK256 DUP2 SWAP1 SSTORE POP DUP2 PUSH1 0x7 PUSH1 0x0 DUP4 DUP2 MSTORE PUSH1 0x20 ADD SWAP1 DUP2 MSTORE PUSH1 0x20 ADD PUSH1 0x0 KECCAK256 DUP2 SWAP1 SSTORE POP POP JUMPDEST PUSH1 0x7 PUSH1 0x0 DUP5 DUP2 MSTORE PUSH1 0x20 ADD SWAP1 DUP2 MSTORE PUSH1 0x20 ADD PUSH1 0x0 KECCAK256 PUSH1 0x0 SWAP1 SSTORE PUSH1 0x6 PUSH1 0x0 DUP6 PUSH20 0xFFFFFFFFFFFFFFFFFFFFFFFFFFFFFFFFFFFFFFFF AND PUSH20 0xFFFFFFFFFFFFFFFFFFFFFFFFFFFFFFFFFFFFFFFF AND DUP2 MSTORE PUSH1 0x20 ADD SWAP1 DUP2 MSTORE PUSH1 0x20 ADD PUSH1 0x0 KECCAK256 PUSH1 0x0 DUP4 DUP2 MSTORE PUSH1 0x20 ADD SWAP1 DUP2 MSTORE PUSH1 0x20 ADD PUSH1 0x0 KECCAK256 PUSH1 0x0 SWAP1 SSTORE POP POP POP POP JUMP JUMPDEST PUSH1 0x0 PUSH1 0x1 PUSH1 0x8 DUP1 SLOAD SWAP1 POP PUSH2 0x36CE SWAP2 SWAP1 PUSH2 0x47B0 JUMP JUMPDEST SWAP1 POP PUSH1 0x0 PUSH1 0x9 PUSH1 0x0 DUP5 DUP2 MSTORE PUSH1 0x20 ADD SWAP1 DUP2 MSTORE PUSH1 0x20 ADD PUSH1 0x0 KECCAK256 SLOAD SWAP1 POP PUSH1 0x0 PUSH1 0x8 DUP4 DUP2 SLOAD DUP2 LT PUSH2 0x36FE JUMPI PUSH2 0x36FD PUSH2 0x4A59 JUMP JUMPDEST JUMPDEST SWAP1 PUSH1 0x0 MSTORE PUSH1 0x20 PUSH1 0x0 KECCAK256 ADD SLOAD SWAP1 POP DUP1 PUSH1 0x8 DUP4 DUP2 SLOAD DUP2 LT PUSH2 0x3720 JUMPI PUSH2 0x371F PUSH2 0x4A59 JUMP JUMPDEST JUMPDEST SWAP1 PUSH1 0x0 MSTORE PUSH1 0x20 PUSH1 0x0 KECCAK256 ADD DUP2 SWAP1 SSTORE POP DUP2 PUSH1 0x9 PUSH1 0x0 DUP4 DUP2 MSTORE PUSH1 0x20 ADD SWAP1 DUP2 MSTORE PUSH1 0x20 ADD PUSH1 0x0 KECCAK256 DUP2 SWAP1 SSTORE POP PUSH1 0x9 PUSH1 0x0 DUP6 DUP2 MSTORE PUSH1 0x20 ADD SWAP1 DUP2 MSTORE PUSH1 0x20 ADD PUSH1 0x0 KECCAK256 PUSH1 0x0 SWAP1 SSTORE PUSH1 0x8 DUP1 SLOAD DUP1 PUSH2 0x376F JUMPI PUSH2 0x376E PUSH2 0x4A2A JUMP JUMPDEST JUMPDEST PUSH1 0x1 SWAP1 SUB DUP2 DUP2 SWAP1 PUSH1 0x0 MSTORE PUSH1 0x20 PUSH1 0x0 KECCAK256 ADD PUSH1 0x0 SWAP1 SSTORE SWAP1 SSTORE POP POP POP POP JUMP JUMPDEST PUSH1 0x0 PUSH2 0x3796 DUP4 PUSH2 0xBB4 JUMP JUMPDEST SWAP1 POP DUP2 PUSH1 0x6 PUSH1 0x0 DUP6 PUSH20 0xFFFFFFFFFFFFFFFFFFFFFFFFFFFFFFFFFFFFFFFF AND PUSH20 0xFFFFFFFFFFFFFFFFFFFFFFFFFFFFFFFFFFFFFFFF AND DUP2 MSTORE PUSH1 0x20 ADD SWAP1 DUP2 MSTORE PUSH1 0x20 ADD PUSH1 0x0 KECCAK256 PUSH1 0x0 DUP4 DUP2 MSTORE PUSH1 0x20 ADD SWAP1 DUP2 MSTORE PUSH1 0x20 ADD PUSH1 0x0 KECCAK256 DUP2 SWAP1 SSTORE POP DUP1 PUSH1 0x7 PUSH1 0x0 DUP5 DUP2 MSTORE PUSH1 0x20 ADD SWAP1 DUP2 MSTORE PUSH1 0x20 ADD PUSH1 0x0 KECCAK256 DUP2 SWAP1 SSTORE POP POP POP POP JUMP JUMPDEST PUSH1 0x40 MLOAD DUP1 PUSH2 0x180 ADD PUSH1 0x40 MSTORE DUP1 PUSH1 0x0 DUP2 MSTORE PUSH1 0x20 ADD PUSH1 0x0 DUP2 MSTORE PUSH1 0x20 ADD PUSH1 0x0 DUP2 MSTORE PUSH1 0x20 ADD PUSH1 0x0 DUP2 MSTORE PUSH1 0x20 ADD PUSH1 0x0 DUP2 MSTORE PUSH1 0x20 ADD PUSH1 0x0 DUP2 MSTORE PUSH1 0x20 ADD PUSH1 0x0 DUP2 MSTORE PUSH1 0x20 ADD PUSH1 0x0 DUP2 MSTORE PUSH1 0x20 ADD PUSH1 0x0 DUP2 MSTORE PUSH1 0x20 ADD PUSH1 0x0 DUP2 MSTORE PUSH1 0x20 ADD PUSH1 0x0 DUP2 MSTORE PUSH1 0x20 ADD PUSH1 0x0 DUP2 MSTORE POP SWAP1 JUMP JUMPDEST PUSH1 0x0 PUSH2 0x387E PUSH2 0x3879 DUP5 PUSH2 0x467C JUMP JUMPDEST PUSH2 0x4657 JUMP JUMPDEST SWAP1 POP DUP3 DUP2 MSTORE PUSH1 0x20 DUP2 ADD DUP5 DUP5 DUP5 ADD GT ISZERO PUSH2 0x389A JUMPI PUSH2 0x3899 PUSH2 0x4ABC JUMP JUMPDEST JUMPDEST PUSH2 0x38A5 DUP5 DUP3 DUP6 PUSH2 0x4874 JUMP JUMPDEST POP SWAP4 SWAP3 POP POP POP JUMP JUMPDEST PUSH1 0x0 DUP2 CALLDATALOAD SWAP1 POP PUSH2 0x38BC DUP2 PUSH2 0x4FA9 JUMP JUMPDEST SWAP3 SWAP2 POP POP JUMP JUMPDEST PUSH1 0x0 DUP2 CALLDATALOAD SWAP1 POP PUSH2 0x38D1 DUP2 PUSH2 0x4FC0 JUMP JUMPDEST SWAP3 SWAP2 POP POP JUMP JUMPDEST PUSH1 0x0 DUP2 MLOAD SWAP1 POP PUSH2 0x38E6 DUP2 PUSH2 0x4FD7 JUMP JUMPDEST SWAP3 SWAP2 POP POP JUMP JUMPDEST PUSH1 0x0 DUP2 CALLDATALOAD SWAP1 POP PUSH2 0x38FB DUP2 PUSH2 0x4FEE JUMP JUMPDEST SWAP3 SWAP2 POP POP JUMP JUMPDEST PUSH1 0x0 DUP2 MLOAD SWAP1 POP PUSH2 0x3910 DUP2 PUSH2 0x4FEE JUMP JUMPDEST SWAP3 SWAP2 POP POP JUMP JUMPDEST PUSH1 0x0 DUP3 PUSH1 0x1F DUP4 ADD SLT PUSH2 0x392B JUMPI PUSH2 0x392A PUSH2 0x4AB7 JUMP JUMPDEST JUMPDEST DUP2 CALLDATALOAD PUSH2 0x393B DUP5 DUP3 PUSH1 0x20 DUP7 ADD PUSH2 0x386B JUMP JUMPDEST SWAP2 POP POP SWAP3 SWAP2 POP POP JUMP JUMPDEST PUSH1 0x0 DUP2 CALLDATALOAD SWAP1 POP PUSH2 0x3953 DUP2 PUSH2 0x5005 JUMP JUMPDEST SWAP3 SWAP2 POP POP JUMP JUMPDEST PUSH1 0x0 PUSH1 0x20 DUP3 DUP5 SUB SLT ISZERO PUSH2 0x396F JUMPI PUSH2 0x396E PUSH2 0x4AC6 JUMP JUMPDEST JUMPDEST PUSH1 0x0 PUSH2 0x397D DUP5 DUP3 DUP6 ADD PUSH2 0x38AD JUMP JUMPDEST SWAP2 POP POP SWAP3 SWAP2 POP POP JUMP JUMPDEST PUSH1 0x0 DUP1 PUSH1 0x40 DUP4 DUP6 SUB SLT ISZERO PUSH2 0x399D JUMPI PUSH2 0x399C PUSH2 0x4AC6 JUMP JUMPDEST JUMPDEST PUSH1 0x0 PUSH2 0x39AB DUP6 DUP3 DUP7 ADD PUSH2 0x38AD JUMP JUMPDEST SWAP3 POP POP PUSH1 0x20 PUSH2 0x39BC DUP6 DUP3 DUP7 ADD PUSH2 0x38AD JUMP JUMPDEST SWAP2 POP POP SWAP3 POP SWAP3 SWAP1 POP JUMP JUMPDEST PUSH1 0x0 DUP1 PUSH1 0x0 PUSH1 0x60 DUP5 DUP7 SUB SLT ISZERO PUSH2 0x39DF JUMPI PUSH2 0x39DE PUSH2 0x4AC6 JUMP JUMPDEST JUMPDEST PUSH1 0x0 PUSH2 0x39ED DUP7 DUP3 DUP8 ADD PUSH2 0x38AD JUMP JUMPDEST SWAP4 POP POP PUSH1 0x20 PUSH2 0x39FE DUP7 DUP3 DUP8 ADD PUSH2 0x38AD JUMP JUMPDEST SWAP3 POP POP PUSH1 0x40 PUSH2 0x3A0F DUP7 DUP3 DUP8 ADD PUSH2 0x3944 JUMP JUMPDEST SWAP2 POP POP SWAP3 POP SWAP3 POP SWAP3 JUMP JUMPDEST PUSH1 0x0 DUP1 PUSH1 0x0 DUP1 PUSH1 0x80 DUP6 DUP8 SUB SLT ISZERO PUSH2 0x3A33 JUMPI PUSH2 0x3A32 PUSH2 0x4AC6 JUMP JUMPDEST JUMPDEST PUSH1 0x0 PUSH2 0x3A41 DUP8 DUP3 DUP9 ADD PUSH2 0x38AD JUMP JUMPDEST SWAP5 POP POP PUSH1 0x20 PUSH2 0x3A52 DUP8 DUP3 DUP9 ADD PUSH2 0x38AD JUMP JUMPDEST SWAP4 POP POP PUSH1 0x40 PUSH2 0x3A63 DUP8 DUP3 DUP9 ADD PUSH2 0x3944 JUMP JUMPDEST SWAP3 POP POP PUSH1 0x60 DUP6 ADD CALLDATALOAD PUSH8 0xFFFFFFFFFFFFFFFF DUP2 GT ISZERO PUSH2 0x3A84 JUMPI PUSH2 0x3A83 PUSH2 0x4AC1 JUMP JUMPDEST JUMPDEST PUSH2 0x3A90 DUP8 DUP3 DUP9 ADD PUSH2 0x3916 JUMP JUMPDEST SWAP2 POP POP SWAP3 SWAP6 SWAP2 SWAP5 POP SWAP3 POP JUMP JUMPDEST PUSH1 0x0 DUP1 PUSH1 0x40 DUP4 DUP6 SUB SLT ISZERO PUSH2 0x3AB3 JUMPI PUSH2 0x3AB2 PUSH2 0x4AC6 JUMP JUMPDEST JUMPDEST PUSH1 0x0 PUSH2 0x3AC1 DUP6 DUP3 DUP7 ADD PUSH2 0x38AD JUMP JUMPDEST SWAP3 POP POP PUSH1 0x20 PUSH2 0x3AD2 DUP6 DUP3 DUP7 ADD PUSH2 0x38C2 JUMP JUMPDEST SWAP2 POP POP SWAP3 POP SWAP3 SWAP1 POP JUMP JUMPDEST PUSH1 0x0 DUP1 PUSH1 0x40 DUP4 DUP6 SUB SLT ISZERO PUSH2 0x3AF3 JUMPI PUSH2 0x3AF2 PUSH2 0x4AC6 JUMP JUMPDEST JUMPDEST PUSH1 0x0 PUSH2 0x3B01 DUP6 DUP3 DUP7 ADD PUSH2 0x38AD JUMP JUMPDEST SWAP3 POP POP PUSH1 0x20 PUSH2 0x3B12 DUP6 DUP3 DUP7 ADD PUSH2 0x3944 JUMP JUMPDEST SWAP2 POP POP SWAP3 POP SWAP3 SWAP1 POP JUMP JUMPDEST PUSH1 0x0 PUSH1 0x20 DUP3 DUP5 SUB SLT ISZERO PUSH2 0x3B32 JUMPI PUSH2 0x3B31 PUSH2 0x4AC6 JUMP JUMPDEST JUMPDEST PUSH1 0x0 PUSH2 0x3B40 DUP5 DUP3 DUP6 ADD PUSH2 0x38D7 JUMP JUMPDEST SWAP2 POP POP SWAP3 SWAP2 POP POP JUMP JUMPDEST PUSH1 0x0 PUSH1 0x20 DUP3 DUP5 SUB SLT ISZERO PUSH2 0x3B5F JUMPI PUSH2 0x3B5E PUSH2 0x4AC6 JUMP JUMPDEST JUMPDEST PUSH1 0x0 PUSH2 0x3B6D DUP5 DUP3 DUP6 ADD PUSH2 0x38EC JUMP JUMPDEST SWAP2 POP POP SWAP3 SWAP2 POP POP JUMP JUMPDEST PUSH1 0x0 PUSH1 0x20 DUP3 DUP5 SUB SLT ISZERO PUSH2 0x3B8C JUMPI PUSH2 0x3B8B PUSH2 0x4AC6 JUMP JUMPDEST JUMPDEST PUSH1 0x0 PUSH2 0x3B9A DUP5 DUP3 DUP6 ADD PUSH2 0x3901 JUMP JUMPDEST SWAP2 POP POP SWAP3 SWAP2 POP POP JUMP JUMPDEST PUSH1 0x0 PUSH1 0x20 DUP3 DUP5 SUB SLT ISZERO PUSH2 0x3BB9 JUMPI PUSH2 0x3BB8 PUSH2 0x4AC6 JUMP JUMPDEST JUMPDEST PUSH1 0x0 PUSH2 0x3BC7 DUP5 DUP3 DUP6 ADD PUSH2 0x3944 JUMP JUMPDEST SWAP2 POP POP SWAP3 SWAP2 POP POP JUMP JUMPDEST PUSH1 0x0 DUP1 PUSH1 0x40 DUP4 DUP6 SUB SLT ISZERO PUSH2 0x3BE7 JUMPI PUSH2 0x3BE6 PUSH2 0x4AC6 JUMP JUMPDEST JUMPDEST PUSH1 0x0 PUSH2 0x3BF5 DUP6 DUP3 DUP7 ADD PUSH2 0x3944 JUMP JUMPDEST SWAP3 POP POP PUSH1 0x20 PUSH2 0x3C06 DUP6 DUP3 DUP7 ADD PUSH2 0x3944 JUMP JUMPDEST SWAP2 POP POP SWAP3 POP SWAP3 SWAP1 POP JUMP JUMPDEST PUSH1 0x0 DUP1 PUSH1 0x0 DUP1 PUSH1 0x80 DUP6 DUP8 SUB SLT ISZERO PUSH2 0x3C2A JUMPI PUSH2 0x3C29 PUSH2 0x4AC6 JUMP JUMPDEST JUMPDEST PUSH1 0x0 PUSH2 0x3C38 DUP8 DUP3 DUP9 ADD PUSH2 0x3944 JUMP JUMPDEST SWAP5 POP POP PUSH1 0x20 PUSH2 0x3C49 DUP8 DUP3 DUP9 ADD PUSH2 0x3944 JUMP JUMPDEST SWAP4 POP POP PUSH1 0x40 PUSH2 0x3C5A DUP8 DUP3 DUP9 ADD PUSH2 0x3944 JUMP JUMPDEST SWAP3 POP POP PUSH1 0x60 PUSH2 0x3C6B DUP8 DUP3 DUP9 ADD PUSH2 0x3944 JUMP JUMPDEST SWAP2 POP POP SWAP3 SWAP6 SWAP2 SWAP5 POP SWAP3 POP JUMP JUMPDEST PUSH1 0x0 PUSH2 0x3C83 DUP4 DUP4 PUSH2 0x4106 JUMP JUMPDEST PUSH1 0x20 DUP4 ADD SWAP1 POP SWAP3 SWAP2 POP POP JUMP JUMPDEST PUSH2 0x3C98 DUP2 PUSH2 0x47E4 JUMP JUMPDEST DUP3 MSTORE POP POP JUMP JUMPDEST PUSH1 0x0 PUSH2 0x3CA9 DUP3 PUSH2 0x46BD JUMP JUMPDEST PUSH2 0x3CB3 DUP2 DUP6 PUSH2 0x46EB JUMP JUMPDEST SWAP4 POP PUSH2 0x3CBE DUP4 PUSH2 0x46AD JUMP JUMPDEST DUP1 PUSH1 0x0 JUMPDEST DUP4 DUP2 LT ISZERO PUSH2 0x3CEF JUMPI DUP2 MLOAD PUSH2 0x3CD6 DUP9 DUP3 PUSH2 0x3C77 JUMP JUMPDEST SWAP8 POP PUSH2 0x3CE1 DUP4 PUSH2 0x46DE JUMP JUMPDEST SWAP3 POP POP PUSH1 0x1 DUP2 ADD SWAP1 POP PUSH2 0x3CC2 JUMP JUMPDEST POP DUP6 SWAP4 POP POP POP POP SWAP3 SWAP2 POP POP JUMP JUMPDEST PUSH2 0x3D05 DUP2 PUSH2 0x47F6 JUMP JUMPDEST DUP3 MSTORE POP POP JUMP JUMPDEST PUSH1 0x0 PUSH2 0x3D16 DUP3 PUSH2 0x46C8 JUMP JUMPDEST PUSH2 0x3D20 DUP2 DUP6 PUSH2 0x46FC JUMP JUMPDEST SWAP4 POP PUSH2 0x3D30 DUP2 DUP6 PUSH1 0x20 DUP7 ADD PUSH2 0x4883 JUMP JUMPDEST PUSH2 0x3D39 DUP2 PUSH2 0x4ACB JUMP JUMPDEST DUP5 ADD SWAP2 POP POP SWAP3 SWAP2 POP POP JUMP JUMPDEST PUSH2 0x3D4D DUP2 PUSH2 0x4862 JUMP JUMPDEST DUP3 MSTORE POP POP JUMP JUMPDEST PUSH1 0x0 PUSH2 0x3D5E DUP3 PUSH2 0x46D3 JUMP JUMPDEST PUSH2 0x3D68 DUP2 DUP6 PUSH2 0x470D JUMP JUMPDEST SWAP4 POP PUSH2 0x3D78 DUP2 DUP6 PUSH1 0x20 DUP7 ADD PUSH2 0x4883 JUMP JUMPDEST PUSH2 0x3D81 DUP2 PUSH2 0x4ACB JUMP JUMPDEST DUP5 ADD SWAP2 POP POP SWAP3 SWAP2 POP POP JUMP JUMPDEST PUSH1 0x0 PUSH2 0x3D97 DUP3 PUSH2 0x46D3 JUMP JUMPDEST PUSH2 0x3DA1 DUP2 DUP6 PUSH2 0x471E JUMP JUMPDEST SWAP4 POP PUSH2 0x3DB1 DUP2 DUP6 PUSH1 0x20 DUP7 ADD PUSH2 0x4883 JUMP JUMPDEST DUP1 DUP5 ADD SWAP2 POP POP SWAP3 SWAP2 POP POP JUMP JUMPDEST PUSH1 0x0 PUSH2 0x3DCA PUSH1 0x2B DUP4 PUSH2 0x470D JUMP JUMPDEST SWAP2 POP PUSH2 0x3DD5 DUP3 PUSH2 0x4ADC JUMP JUMPDEST PUSH1 0x40 DUP3 ADD SWAP1 POP SWAP2 SWAP1 POP JUMP JUMPDEST PUSH1 0x0 PUSH2 0x3DED PUSH1 0x32 DUP4 PUSH2 0x470D JUMP JUMPDEST SWAP2 POP PUSH2 0x3DF8 DUP3 PUSH2 0x4B2B JUMP JUMPDEST PUSH1 0x40 DUP3 ADD SWAP1 POP SWAP2 SWAP1 POP JUMP JUMPDEST PUSH1 0x0 PUSH2 0x3E10 PUSH1 0x25 DUP4 PUSH2 0x470D JUMP JUMPDEST SWAP2 POP PUSH2 0x3E1B DUP3 PUSH2 0x4B7A JUMP JUMPDEST PUSH1 0x40 DUP3 ADD SWAP1 POP SWAP2 SWAP1 POP JUMP JUMPDEST PUSH1 0x0 PUSH2 0x3E33 PUSH1 0x1C DUP4 PUSH2 0x470D JUMP JUMPDEST SWAP2 POP PUSH2 0x3E3E DUP3 PUSH2 0x4BC9 JUMP JUMPDEST PUSH1 0x20 DUP3 ADD SWAP1 POP SWAP2 SWAP1 POP JUMP JUMPDEST PUSH1 0x0 PUSH2 0x3E56 PUSH1 0x24 DUP4 PUSH2 0x470D JUMP JUMPDEST SWAP2 POP PUSH2 0x3E61 DUP3 PUSH2 0x4BF2 JUMP JUMPDEST PUSH1 0x40 DUP3 ADD SWAP1 POP SWAP2 SWAP1 POP JUMP JUMPDEST PUSH1 0x0 PUSH2 0x3E79 PUSH1 0x19 DUP4 PUSH2 0x470D JUMP JUMPDEST SWAP2 POP PUSH2 0x3E84 DUP3 PUSH2 0x4C41 JUMP JUMPDEST PUSH1 0x20 DUP3 ADD SWAP1 POP SWAP2 SWAP1 POP JUMP JUMPDEST PUSH1 0x0 PUSH2 0x3E9C PUSH1 0x2C DUP4 PUSH2 0x470D JUMP JUMPDEST SWAP2 POP PUSH2 0x3EA7 DUP3 PUSH2 0x4C6A JUMP JUMPDEST PUSH1 0x40 DUP3 ADD SWAP1 POP SWAP2 SWAP1 POP JUMP JUMPDEST PUSH1 0x0 PUSH2 0x3EBF PUSH1 0x38 DUP4 PUSH2 0x470D JUMP JUMPDEST SWAP2 POP PUSH2 0x3ECA DUP3 PUSH2 0x4CB9 JUMP JUMPDEST PUSH1 0x40 DUP3 ADD SWAP1 POP SWAP2 SWAP1 POP JUMP JUMPDEST PUSH1 0x0 PUSH2 0x3EE2 PUSH1 0x2A DUP4 PUSH2 0x470D JUMP JUMPDEST SWAP2 POP PUSH2 0x3EED DUP3 PUSH2 0x4D08 JUMP JUMPDEST PUSH1 0x40 DUP3 ADD SWAP1 POP SWAP2 SWAP1 POP JUMP JUMPDEST PUSH1 0x0 PUSH2 0x3F05 PUSH1 0x29 DUP4 PUSH2 0x470D JUMP JUMPDEST SWAP2 POP PUSH2 0x3F10 DUP3 PUSH2 0x4D57 JUMP JUMPDEST PUSH1 0x40 DUP3 ADD SWAP1 POP SWAP2 SWAP1 POP JUMP JUMPDEST PUSH1 0x0 PUSH2 0x3F28 PUSH1 0x20 DUP4 PUSH2 0x470D JUMP JUMPDEST SWAP2 POP PUSH2 0x3F33 DUP3 PUSH2 0x4DA6 JUMP JUMPDEST PUSH1 0x20 DUP3 ADD SWAP1 POP SWAP2 SWAP1 POP JUMP JUMPDEST PUSH1 0x0 PUSH2 0x3F4B PUSH1 0x2C DUP4 PUSH2 0x470D JUMP JUMPDEST SWAP2 POP PUSH2 0x3F56 DUP3 PUSH2 0x4DCF JUMP JUMPDEST PUSH1 0x40 DUP3 ADD SWAP1 POP SWAP2 SWAP1 POP JUMP JUMPDEST PUSH1 0x0 PUSH2 0x3F6E PUSH1 0x2F DUP4 PUSH2 0x470D JUMP JUMPDEST SWAP2 POP PUSH2 0x3F79 DUP3 PUSH2 0x4E1E JUMP JUMPDEST PUSH1 0x40 DUP3 ADD SWAP1 POP SWAP2 SWAP1 POP JUMP JUMPDEST PUSH1 0x0 PUSH2 0x3F91 PUSH1 0x21 DUP4 PUSH2 0x470D JUMP JUMPDEST SWAP2 POP PUSH2 0x3F9C DUP3 PUSH2 0x4E6D JUMP JUMPDEST PUSH1 0x40 DUP3 ADD SWAP1 POP SWAP2 SWAP1 POP JUMP JUMPDEST PUSH1 0x0 PUSH2 0x3FB4 PUSH1 0x31 DUP4 PUSH2 0x470D JUMP JUMPDEST SWAP2 POP PUSH2 0x3FBF DUP3 PUSH2 0x4EBC JUMP JUMPDEST PUSH1 0x40 DUP3 ADD SWAP1 POP SWAP2 SWAP1 POP JUMP JUMPDEST PUSH1 0x0 PUSH2 0x3FD7 PUSH1 0x2C DUP4 PUSH2 0x470D JUMP JUMPDEST SWAP2 POP PUSH2 0x3FE2 DUP3 PUSH2 0x4F0B JUMP JUMPDEST PUSH1 0x40 DUP3 ADD SWAP1 POP SWAP2 SWAP1 POP JUMP JUMPDEST PUSH1 0x0 PUSH2 0x3FFA PUSH1 0x30 DUP4 PUSH2 0x470D JUMP JUMPDEST SWAP2 POP PUSH2 0x4005 DUP3 PUSH2 0x4F5A JUMP JUMPDEST PUSH1 0x40 DUP3 ADD SWAP1 POP SWAP2 SWAP1 POP JUMP JUMPDEST PUSH2 0x180 DUP3 ADD PUSH1 0x0 DUP3 ADD MLOAD PUSH2 0x4027 PUSH1 0x0 DUP6 ADD DUP3 PUSH2 0x4106 JUMP JUMPDEST POP PUSH1 0x20 DUP3 ADD MLOAD PUSH2 0x403A PUSH1 0x20 DUP6 ADD DUP3 PUSH2 0x4106 JUMP JUMPDEST POP PUSH1 0x40 DUP3 ADD MLOAD PUSH2 0x404D PUSH1 0x40 DUP6 ADD DUP3 PUSH2 0x4106 JUMP JUMPDEST POP PUSH1 0x60 DUP3 ADD MLOAD PUSH2 0x4060 PUSH1 0x60 DUP6 ADD DUP3 PUSH2 0x4106 JUMP JUMPDEST POP PUSH1 0x80 DUP3 ADD MLOAD PUSH2 0x4073 PUSH1 0x80 DUP6 ADD DUP3 PUSH2 0x4106 JUMP JUMPDEST POP PUSH1 0xA0 DUP3 ADD MLOAD PUSH2 0x4086 PUSH1 0xA0 DUP6 ADD DUP3 PUSH2 0x4106 JUMP JUMPDEST POP PUSH1 0xC0 DUP3 ADD MLOAD PUSH2 0x4099 PUSH1 0xC0 DUP6 ADD DUP3 PUSH2 0x4106 JUMP JUMPDEST POP PUSH1 0xE0 DUP3 ADD MLOAD PUSH2 0x40AC PUSH1 0xE0 DUP6 ADD DUP3 PUSH2 0x4106 JUMP JUMPDEST POP PUSH2 0x100 DUP3 ADD MLOAD PUSH2 0x40C1 PUSH2 0x100 DUP6 ADD DUP3 PUSH2 0x4106 JUMP JUMPDEST POP PUSH2 0x120 DUP3 ADD MLOAD PUSH2 0x40D6 PUSH2 0x120 DUP6 ADD DUP3 PUSH2 0x4106 JUMP JUMPDEST POP PUSH2 0x140 DUP3 ADD MLOAD PUSH2 0x40EB PUSH2 0x140 DUP6 ADD DUP3 PUSH2 0x4106 JUMP JUMPDEST POP PUSH2 0x160 DUP3 ADD MLOAD PUSH2 0x4100 PUSH2 0x160 DUP6 ADD DUP3 PUSH2 0x4106 JUMP JUMPDEST POP POP POP POP JUMP JUMPDEST PUSH2 0x410F DUP2 PUSH2 0x4858 JUMP JUMPDEST DUP3 MSTORE POP POP JUMP JUMPDEST PUSH2 0x411E DUP2 PUSH2 0x4858 JUMP JUMPDEST DUP3 MSTORE POP POP JUMP JUMPDEST PUSH2 0x4135 PUSH2 0x4130 DUP3 PUSH2 0x4858 JUMP JUMPDEST PUSH2 0x4962 JUMP JUMPDEST DUP3 MSTORE POP POP JUMP JUMPDEST PUSH1 0x0 PUSH2 0x4147 DUP3 DUP6 PUSH2 0x3D8C JUMP JUMPDEST SWAP2 POP PUSH2 0x4153 DUP3 DUP5 PUSH2 0x3D8C JUMP JUMPDEST SWAP2 POP DUP2 SWAP1 POP SWAP4 SWAP3 POP POP POP JUMP JUMPDEST PUSH1 0x0 PUSH2 0x416B DUP3 DUP7 PUSH2 0x4124 JUMP JUMPDEST PUSH1 0x20 DUP3 ADD SWAP2 POP PUSH2 0x417B DUP3 DUP6 PUSH2 0x4124 JUMP JUMPDEST PUSH1 0x20 DUP3 ADD SWAP2 POP PUSH2 0x418B DUP3 DUP5 PUSH2 0x4124 JUMP JUMPDEST PUSH1 0x20 DUP3 ADD SWAP2 POP DUP2 SWAP1 POP SWAP5 SWAP4 POP POP POP POP JUMP JUMPDEST PUSH1 0x0 PUSH1 0x20 DUP3 ADD SWAP1 POP PUSH2 0x41B1 PUSH1 0x0 DUP4 ADD DUP5 PUSH2 0x3C8F JUMP JUMPDEST SWAP3 SWAP2 POP POP JUMP JUMPDEST PUSH1 0x0 PUSH1 0x80 DUP3 ADD SWAP1 POP PUSH2 0x41CC PUSH1 0x0 DUP4 ADD DUP8 PUSH2 0x3C8F JUMP JUMPDEST PUSH2 0x41D9 PUSH1 0x20 DUP4 ADD DUP7 PUSH2 0x3C8F JUMP JUMPDEST PUSH2 0x41E6 PUSH1 0x40 DUP4 ADD DUP6 PUSH2 0x4115 JUMP JUMPDEST DUP2 DUP2 SUB PUSH1 0x60 DUP4 ADD MSTORE PUSH2 0x41F8 DUP2 DUP5 PUSH2 0x3D0B JUMP JUMPDEST SWAP1 POP SWAP6 SWAP5 POP POP POP POP POP JUMP JUMPDEST PUSH1 0x0 PUSH1 0x20 DUP3 ADD SWAP1 POP PUSH2 0x4218 PUSH1 0x0 DUP4 ADD DUP5 PUSH2 0x3CFC JUMP JUMPDEST SWAP3 SWAP2 POP POP JUMP JUMPDEST PUSH1 0x0 PUSH1 0x20 DUP3 ADD SWAP1 POP PUSH2 0x4233 PUSH1 0x0 DUP4 ADD DUP5 PUSH2 0x3D44 JUMP JUMPDEST SWAP3 SWAP2 POP POP JUMP JUMPDEST PUSH1 0x0 PUSH1 0x20 DUP3 ADD SWAP1 POP DUP2 DUP2 SUB PUSH1 0x0 DUP4 ADD MSTORE PUSH2 0x4253 DUP2 DUP5 PUSH2 0x3D53 JUMP JUMPDEST SWAP1 POP SWAP3 SWAP2 POP POP JUMP JUMPDEST PUSH1 0x0 PUSH1 0x20 DUP3 ADD SWAP1 POP DUP2 DUP2 SUB PUSH1 0x0 DUP4 ADD MSTORE PUSH2 0x4274 DUP2 PUSH2 0x3DBD JUMP JUMPDEST SWAP1 POP SWAP2 SWAP1 POP JUMP JUMPDEST PUSH1 0x0 PUSH1 0x20 DUP3 ADD SWAP1 POP DUP2 DUP2 SUB PUSH1 0x0 DUP4 ADD MSTORE PUSH2 0x4294 DUP2 PUSH2 0x3DE0 JUMP JUMPDEST SWAP1 POP SWAP2 SWAP1 POP JUMP JUMPDEST PUSH1 0x0 PUSH1 0x20 DUP3 ADD SWAP1 POP DUP2 DUP2 SUB PUSH1 0x0 DUP4 ADD MSTORE PUSH2 0x42B4 DUP2 PUSH2 0x3E03 JUMP JUMPDEST SWAP1 POP SWAP2 SWAP1 POP JUMP JUMPDEST PUSH1 0x0 PUSH1 0x20 DUP3 ADD SWAP1 POP DUP2 DUP2 SUB PUSH1 0x0 DUP4 ADD MSTORE PUSH2 0x42D4 DUP2 PUSH2 0x3E26 JUMP JUMPDEST SWAP1 POP SWAP2 SWAP1 POP JUMP JUMPDEST PUSH1 0x0 PUSH1 0x20 DUP3 ADD SWAP1 POP DUP2 DUP2 SUB PUSH1 0x0 DUP4 ADD MSTORE PUSH2 0x42F4 DUP2 PUSH2 0x3E49 JUMP JUMPDEST SWAP1 POP SWAP2 SWAP1 POP JUMP JUMPDEST PUSH1 0x0 PUSH1 0x20 DUP3 ADD SWAP1 POP DUP2 DUP2 SUB PUSH1 0x0 DUP4 ADD MSTORE PUSH2 0x4314 DUP2 PUSH2 0x3E6C JUMP JUMPDEST SWAP1 POP SWAP2 SWAP1 POP JUMP JUMPDEST PUSH1 0x0 PUSH1 0x20 DUP3 ADD SWAP1 POP DUP2 DUP2 SUB PUSH1 0x0 DUP4 ADD MSTORE PUSH2 0x4334 DUP2 PUSH2 0x3E8F JUMP JUMPDEST SWAP1 POP SWAP2 SWAP1 POP JUMP JUMPDEST PUSH1 0x0 PUSH1 0x20 DUP3 ADD SWAP1 POP DUP2 DUP2 SUB PUSH1 0x0 DUP4 ADD MSTORE PUSH2 0x4354 DUP2 PUSH2 0x3EB2 JUMP JUMPDEST SWAP1 POP SWAP2 SWAP1 POP JUMP JUMPDEST PUSH1 0x0 PUSH1 0x20 DUP3 ADD SWAP1 POP DUP2 DUP2 SUB PUSH1 0x0 DUP4 ADD MSTORE PUSH2 0x4374 DUP2 PUSH2 0x3ED5 JUMP JUMPDEST SWAP1 POP SWAP2 SWAP1 POP JUMP JUMPDEST PUSH1 0x0 PUSH1 0x20 DUP3 ADD SWAP1 POP DUP2 DUP2 SUB PUSH1 0x0 DUP4 ADD MSTORE PUSH2 0x4394 DUP2 PUSH2 0x3EF8 JUMP JUMPDEST SWAP1 POP SWAP2 SWAP1 POP JUMP JUMPDEST PUSH1 0x0 PUSH1 0x20 DUP3 ADD SWAP1 POP DUP2 DUP2 SUB PUSH1 0x0 DUP4 ADD MSTORE PUSH2 0x43B4 DUP2 PUSH2 0x3F1B JUMP JUMPDEST SWAP1 POP SWAP2 SWAP1 POP JUMP JUMPDEST PUSH1 0x0 PUSH1 0x20 DUP3 ADD SWAP1 POP DUP2 DUP2 SUB PUSH1 0x0 DUP4 ADD MSTORE PUSH2 0x43D4 DUP2 PUSH2 0x3F3E JUMP JUMPDEST SWAP1 POP SWAP2 SWAP1 POP JUMP JUMPDEST PUSH1 0x0 PUSH1 0x20 DUP3 ADD SWAP1 POP DUP2 DUP2 SUB PUSH1 0x0 DUP4 ADD MSTORE PUSH2 0x43F4 DUP2 PUSH2 0x3F61 JUMP JUMPDEST SWAP1 POP SWAP2 SWAP1 POP JUMP JUMPDEST PUSH1 0x0 PUSH1 0x20 DUP3 ADD SWAP1 POP DUP2 DUP2 SUB PUSH1 0x0 DUP4 ADD MSTORE PUSH2 0x4414 DUP2 PUSH2 0x3F84 JUMP JUMPDEST SWAP1 POP SWAP2 SWAP1 POP JUMP JUMPDEST PUSH1 0x0 PUSH1 0x20 DUP3 ADD SWAP1 POP DUP2 DUP2 SUB PUSH1 0x0 DUP4 ADD MSTORE PUSH2 0x4434 DUP2 PUSH2 0x3FA7 JUMP JUMPDEST SWAP1 POP SWAP2 SWAP1 POP JUMP JUMPDEST PUSH1 0x0 PUSH1 0x20 DUP3 ADD SWAP1 POP DUP2 DUP2 SUB PUSH1 0x0 DUP4 ADD MSTORE PUSH2 0x4454 DUP2 PUSH2 0x3FCA JUMP JUMPDEST SWAP1 POP SWAP2 SWAP1 POP JUMP JUMPDEST PUSH1 0x0 PUSH1 0x20 DUP3 ADD SWAP1 POP DUP2 DUP2 SUB PUSH1 0x0 DUP4 ADD MSTORE PUSH2 0x4474 DUP2 PUSH2 0x3FED JUMP JUMPDEST SWAP1 POP SWAP2 SWAP1 POP JUMP JUMPDEST PUSH1 0x0 PUSH2 0x300 DUP3 ADD SWAP1 POP PUSH2 0x4491 PUSH1 0x0 DUP4 ADD DUP6 PUSH2 0x4010 JUMP JUMPDEST PUSH2 0x449F PUSH2 0x180 DUP4 ADD DUP5 PUSH2 0x4010 JUMP JUMPDEST SWAP4 SWAP3 POP POP POP JUMP JUMPDEST PUSH1 0x0 PUSH1 0x20 DUP3 ADD SWAP1 POP PUSH2 0x44BB PUSH1 0x0 DUP4 ADD DUP5 PUSH2 0x4115 JUMP JUMPDEST SWAP3 SWAP2 POP POP JUMP JUMPDEST PUSH1 0x0 PUSH1 0x40 DUP3 ADD SWAP1 POP PUSH2 0x44D6 PUSH1 0x0 DUP4 ADD DUP6 PUSH2 0x4115 JUMP JUMPDEST DUP2 DUP2 SUB PUSH1 0x20 DUP4 ADD MSTORE PUSH2 0x44E8 DUP2 DUP5 PUSH2 0x3C9E JUMP JUMPDEST SWAP1 POP SWAP4 SWAP3 POP POP POP JUMP JUMPDEST PUSH1 0x0 PUSH1 0x40 DUP3 ADD SWAP1 POP PUSH2 0x4506 PUSH1 0x0 DUP4 ADD DUP6 PUSH2 0x4115 JUMP JUMPDEST PUSH2 0x4513 PUSH1 0x20 DUP4 ADD DUP5 PUSH2 0x4115 JUMP JUMPDEST SWAP4 SWAP3 POP POP POP JUMP JUMPDEST PUSH1 0x0 PUSH1 0x60 DUP3 ADD SWAP1 POP PUSH2 0x452F PUSH1 0x0 DUP4 ADD DUP7 PUSH2 0x4115 JUMP JUMPDEST PUSH2 0x453C PUSH1 0x20 DUP4 ADD DUP6 PUSH2 0x4115 JUMP JUMPDEST DUP2 DUP2 SUB PUSH1 0x40 DUP4 ADD MSTORE PUSH2 0x454E DUP2 DUP5 PUSH2 0x3C9E JUMP JUMPDEST SWAP1 POP SWAP5 SWAP4 POP POP POP POP JUMP JUMPDEST PUSH1 0x0 PUSH1 0x80 DUP3 ADD SWAP1 POP PUSH2 0x456D PUSH1 0x0 DUP4 ADD DUP8 PUSH2 0x4115 JUMP JUMPDEST PUSH2 0x457A PUSH1 0x20 DUP4 ADD DUP7 PUSH2 0x4115 JUMP JUMPDEST PUSH2 0x4587 PUSH1 0x40 DUP4 ADD DUP6 PUSH2 0x4115 JUMP JUMPDEST PUSH2 0x4594 PUSH1 0x60 DUP4 ADD DUP5 PUSH2 0x4115 JUMP JUMPDEST SWAP6 SWAP5 POP POP POP POP POP JUMP JUMPDEST PUSH1 0x0 PUSH2 0x180 DUP3 ADD SWAP1 POP PUSH2 0x45B3 PUSH1 0x0 DUP4 ADD DUP16 PUSH2 0x4115 JUMP JUMPDEST PUSH2 0x45C0 PUSH1 0x20 DUP4 ADD DUP15 PUSH2 0x4115 JUMP JUMPDEST PUSH2 0x45CD PUSH1 0x40 DUP4 ADD DUP14 PUSH2 0x4115 JUMP JUMPDEST PUSH2 0x45DA PUSH1 0x60 DUP4 ADD DUP13 PUSH2 0x4115 JUMP JUMPDEST PUSH2 0x45E7 PUSH1 0x80 DUP4 ADD DUP12 PUSH2 0x4115 JUMP JUMPDEST PUSH2 0x45F4 PUSH1 0xA0 DUP4 ADD DUP11 PUSH2 0x4115 JUMP JUMPDEST PUSH2 0x4601 PUSH1 0xC0 DUP4 ADD DUP10 PUSH2 0x4115 JUMP JUMPDEST PUSH2 0x460E PUSH1 0xE0 DUP4 ADD DUP9 PUSH2 0x4115 JUMP JUMPDEST PUSH2 0x461C PUSH2 0x100 DUP4 ADD DUP8 PUSH2 0x4115 JUMP JUMPDEST PUSH2 0x462A PUSH2 0x120 DUP4 ADD DUP7 PUSH2 0x4115 JUMP JUMPDEST PUSH2 0x4638 PUSH2 0x140 DUP4 ADD DUP6 PUSH2 0x4115 JUMP JUMPDEST PUSH2 0x4646 PUSH2 0x160 DUP4 ADD DUP5 PUSH2 0x4115 JUMP JUMPDEST SWAP14 SWAP13 POP POP POP POP POP POP POP POP POP POP POP POP POP JUMP JUMPDEST PUSH1 0x0 PUSH2 0x4661 PUSH2 0x4672 JUMP JUMPDEST SWAP1 POP PUSH2 0x466D DUP3 DUP3 PUSH2 0x48E8 JUMP JUMPDEST SWAP2 SWAP1 POP JUMP JUMPDEST PUSH1 0x0 PUSH1 0x40 MLOAD SWAP1 POP SWAP1 JUMP JUMPDEST PUSH1 0x0 PUSH8 0xFFFFFFFFFFFFFFFF DUP3 GT ISZERO PUSH2 0x4697 JUMPI PUSH2 0x4696 PUSH2 0x4A88 JUMP JUMPDEST JUMPDEST PUSH2 0x46A0 DUP3 PUSH2 0x4ACB JUMP JUMPDEST SWAP1 POP PUSH1 0x20 DUP2 ADD SWAP1 POP SWAP2 SWAP1 POP JUMP JUMPDEST PUSH1 0x0 DUP2 SWAP1 POP PUSH1 0x20 DUP3 ADD SWAP1 POP SWAP2 SWAP1 POP JUMP JUMPDEST PUSH1 0x0 DUP2 MLOAD SWAP1 POP SWAP2 SWAP1 POP JUMP JUMPDEST PUSH1 0x0 DUP2 MLOAD SWAP1 POP SWAP2 SWAP1 POP JUMP JUMPDEST PUSH1 0x0 DUP2 MLOAD SWAP1 POP SWAP2 SWAP1 POP JUMP JUMPDEST PUSH1 0x0 PUSH1 0x20 DUP3 ADD SWAP1 POP SWAP2 SWAP1 POP JUMP JUMPDEST PUSH1 0x0 DUP3 DUP3 MSTORE PUSH1 0x20 DUP3 ADD SWAP1 POP SWAP3 SWAP2 POP POP JUMP JUMPDEST PUSH1 0x0 DUP3 DUP3 MSTORE PUSH1 0x20 DUP3 ADD SWAP1 POP SWAP3 SWAP2 POP POP JUMP JUMPDEST PUSH1 0x0 DUP3 DUP3 MSTORE PUSH1 0x20 DUP3 ADD SWAP1 POP SWAP3 SWAP2 POP POP JUMP JUMPDEST PUSH1 0x0 DUP2 SWAP1 POP SWAP3 SWAP2 POP POP JUMP JUMPDEST PUSH1 0x0 PUSH2 0x4734 DUP3 PUSH2 0x4858 JUMP JUMPDEST SWAP2 POP PUSH2 0x473F DUP4 PUSH2 0x4858 JUMP JUMPDEST SWAP3 POP DUP3 PUSH32 0xFFFFFFFFFFFFFFFFFFFFFFFFFFFFFFFFFFFFFFFFFFFFFFFFFFFFFFFFFFFFFFFF SUB DUP3 GT ISZERO PUSH2 0x4774 JUMPI PUSH2 0x4773 PUSH2 0x499D JUMP JUMPDEST JUMPDEST DUP3 DUP3 ADD SWAP1 POP SWAP3 SWAP2 POP POP JUMP JUMPDEST PUSH1 0x0 PUSH2 0x478A DUP3 PUSH2 0x4858 JUMP JUMPDEST SWAP2 POP PUSH2 0x4795 DUP4 PUSH2 0x4858 JUMP JUMPDEST SWAP3 POP DUP3 PUSH2 0x47A5 JUMPI PUSH2 0x47A4 PUSH2 0x49CC JUMP JUMPDEST JUMPDEST DUP3 DUP3 DIV SWAP1 POP SWAP3 SWAP2 POP POP JUMP JUMPDEST PUSH1 0x0 PUSH2 0x47BB DUP3 PUSH2 0x4858 JUMP JUMPDEST SWAP2 POP PUSH2 0x47C6 DUP4 PUSH2 0x4858 JUMP JUMPDEST SWAP3 POP DUP3 DUP3 LT ISZERO PUSH2 0x47D9 JUMPI PUSH2 0x47D8 PUSH2 0x499D JUMP JUMPDEST JUMPDEST DUP3 DUP3 SUB SWAP1 POP SWAP3 SWAP2 POP POP JUMP JUMPDEST PUSH1 0x0 PUSH2 0x47EF DUP3 PUSH2 0x4838 JUMP JUMPDEST SWAP1 POP SWAP2 SWAP1 POP JUMP JUMPDEST PUSH1 0x0 DUP2 ISZERO ISZERO SWAP1 POP SWAP2 SWAP1 POP JUMP JUMPDEST PUSH1 0x0 DUP2 SWAP1 POP SWAP2 SWAP1 POP JUMP JUMPDEST PUSH1 0x0 PUSH32 0xFFFFFFFF00000000000000000000000000000000000000000000000000000000 DUP3 AND SWAP1 POP SWAP2 SWAP1 POP JUMP JUMPDEST PUSH1 0x0 PUSH20 0xFFFFFFFFFFFFFFFFFFFFFFFFFFFFFFFFFFFFFFFF DUP3 AND SWAP1 POP SWAP2 SWAP1 POP JUMP JUMPDEST PUSH1 0x0 DUP2 SWAP1 POP SWAP2 SWAP1 POP JUMP JUMPDEST PUSH1 0x0 PUSH2 0x486D DUP3 PUSH2 0x4858 JUMP JUMPDEST SWAP1 POP SWAP2 SWAP1 POP JUMP JUMPDEST DUP3 DUP2 DUP4 CALLDATACOPY PUSH1 0x0 DUP4 DUP4 ADD MSTORE POP POP POP JUMP JUMPDEST PUSH1 0x0 JUMPDEST DUP4 DUP2 LT ISZERO PUSH2 0x48A1 JUMPI DUP1 DUP3 ADD MLOAD DUP2 DUP5 ADD MSTORE PUSH1 0x20 DUP2 ADD SWAP1 POP PUSH2 0x4886 JUMP JUMPDEST DUP4 DUP2 GT ISZERO PUSH2 0x48B0 JUMPI PUSH1 0x0 DUP5 DUP5 ADD MSTORE JUMPDEST POP POP POP POP JUMP JUMPDEST PUSH1 0x0 PUSH1 0x2 DUP3 DIV SWAP1 POP PUSH1 0x1 DUP3 AND DUP1 PUSH2 0x48CE JUMPI PUSH1 0x7F DUP3 AND SWAP2 POP JUMPDEST PUSH1 0x20 DUP3 LT DUP2 EQ ISZERO PUSH2 0x48E2 JUMPI PUSH2 0x48E1 PUSH2 0x49FB JUMP JUMPDEST JUMPDEST POP SWAP2 SWAP1 POP JUMP JUMPDEST PUSH2 0x48F1 DUP3 PUSH2 0x4ACB JUMP JUMPDEST DUP2 ADD DUP2 DUP2 LT PUSH8 0xFFFFFFFFFFFFFFFF DUP3 GT OR ISZERO PUSH2 0x4910 JUMPI PUSH2 0x490F PUSH2 0x4A88 JUMP JUMPDEST JUMPDEST DUP1 PUSH1 0x40 MSTORE POP POP POP JUMP JUMPDEST PUSH1 0x0 PUSH2 0x4924 DUP3 PUSH2 0x4858 JUMP JUMPDEST SWAP2 POP PUSH32 0xFFFFFFFFFFFFFFFFFFFFFFFFFFFFFFFFFFFFFFFFFFFFFFFFFFFFFFFFFFFFFFFF DUP3 EQ ISZERO PUSH2 0x4957 JUMPI PUSH2 0x4956 PUSH2 0x499D JUMP JUMPDEST JUMPDEST PUSH1 0x1 DUP3 ADD SWAP1 POP SWAP2 SWAP1 POP JUMP JUMPDEST PUSH1 0x0 DUP2 SWAP1 POP SWAP2 SWAP1 POP JUMP JUMPDEST PUSH1 0x0 PUSH2 0x4977 DUP3 PUSH2 0x4858 JUMP JUMPDEST SWAP2 POP PUSH2 0x4982 DUP4 PUSH2 0x4858 JUMP JUMPDEST SWAP3 POP DUP3 PUSH2 0x4992 JUMPI PUSH2 0x4991 PUSH2 0x49CC JUMP JUMPDEST JUMPDEST DUP3 DUP3 MOD SWAP1 POP SWAP3 SWAP2 POP POP JUMP JUMPDEST PUSH32 0x4E487B7100000000000000000000000000000000000000000000000000000000 PUSH1 0x0 MSTORE PUSH1 0x11 PUSH1 0x4 MSTORE PUSH1 0x24 PUSH1 0x0 REVERT JUMPDEST PUSH32 0x4E487B7100000000000000000000000000000000000000000000000000000000 PUSH1 0x0 MSTORE PUSH1 0x12 PUSH1 0x4 MSTORE PUSH1 0x24 PUSH1 0x0 REVERT JUMPDEST PUSH32 0x4E487B7100000000000000000000000000000000000000000000000000000000 PUSH1 0x0 MSTORE PUSH1 0x22 PUSH1 0x4 MSTORE PUSH1 0x24 PUSH1 0x0 REVERT JUMPDEST PUSH32 0x4E487B7100000000000000000000000000000000000000000000000000000000 PUSH1 0x0 MSTORE PUSH1 0x31 PUSH1 0x4 MSTORE PUSH1 0x24 PUSH1 0x0 REVERT JUMPDEST PUSH32 0x4E487B7100000000000000000000000000000000000000000000000000000000 PUSH1 0x0 MSTORE PUSH1 0x32 PUSH1 0x4 MSTORE PUSH1 0x24 PUSH1 0x0 REVERT JUMPDEST PUSH32 0x4E487B7100000000000000000000000000000000000000000000000000000000 PUSH1 0x0 MSTORE PUSH1 0x41 PUSH1 0x4 MSTORE PUSH1 0x24 PUSH1 0x0 REVERT JUMPDEST PUSH1 0x0 DUP1 REVERT JUMPDEST PUSH1 0x0 DUP1 REVERT JUMPDEST PUSH1 0x0 DUP1 REVERT JUMPDEST PUSH1 0x0 DUP1 REVERT JUMPDEST PUSH1 0x0 PUSH1 0x1F NOT PUSH1 0x1F DUP4 ADD AND SWAP1 POP SWAP2 SWAP1 POP JUMP JUMPDEST PUSH32 0x455243373231456E756D657261626C653A206F776E657220696E646578206F75 PUSH1 0x0 DUP3 ADD MSTORE PUSH32 0x74206F6620626F756E6473000000000000000000000000000000000000000000 PUSH1 0x20 DUP3 ADD MSTORE POP JUMP JUMPDEST PUSH32 0x4552433732313A207472616E7366657220746F206E6F6E204552433732315265 PUSH1 0x0 DUP3 ADD MSTORE PUSH32 0x63656976657220696D706C656D656E7465720000000000000000000000000000 PUSH1 0x20 DUP3 ADD MSTORE POP JUMP JUMPDEST PUSH32 0x4552433732313A207472616E736665722066726F6D20696E636F727265637420 PUSH1 0x0 DUP3 ADD MSTORE PUSH32 0x6F776E6572000000000000000000000000000000000000000000000000000000 PUSH1 0x20 DUP3 ADD MSTORE POP JUMP JUMPDEST PUSH32 0x4552433732313A20746F6B656E20616C7265616479206D696E74656400000000 PUSH1 0x0 DUP3 ADD MSTORE POP JUMP JUMPDEST PUSH32 0x4552433732313A207472616E7366657220746F20746865207A65726F20616464 PUSH1 0x0 DUP3 ADD MSTORE PUSH32 0x7265737300000000000000000000000000000000000000000000000000000000 PUSH1 0x20 DUP3 ADD MSTORE POP JUMP JUMPDEST PUSH32 0x4552433732313A20617070726F766520746F2063616C6C657200000000000000 PUSH1 0x0 DUP3 ADD MSTORE POP JUMP JUMPDEST PUSH32 0x4552433732313A206F70657261746F7220717565727920666F72206E6F6E6578 PUSH1 0x0 DUP3 ADD MSTORE PUSH32 0x697374656E7420746F6B656E0000000000000000000000000000000000000000 PUSH1 0x20 DUP3 ADD MSTORE POP JUMP JUMPDEST PUSH32 0x4552433732313A20617070726F76652063616C6C6572206973206E6F74206F77 PUSH1 0x0 DUP3 ADD MSTORE PUSH32 0x6E6572206E6F7220617070726F76656420666F7220616C6C0000000000000000 PUSH1 0x20 DUP3 ADD MSTORE POP JUMP JUMPDEST PUSH32 0x4552433732313A2062616C616E636520717565727920666F7220746865207A65 PUSH1 0x0 DUP3 ADD MSTORE PUSH32 0x726F206164647265737300000000000000000000000000000000000000000000 PUSH1 0x20 DUP3 ADD MSTORE POP JUMP JUMPDEST PUSH32 0x4552433732313A206F776E657220717565727920666F72206E6F6E6578697374 PUSH1 0x0 DUP3 ADD MSTORE PUSH32 0x656E7420746F6B656E0000000000000000000000000000000000000000000000 PUSH1 0x20 DUP3 ADD MSTORE POP JUMP JUMPDEST PUSH32 0x4552433732313A206D696E7420746F20746865207A65726F2061646472657373 PUSH1 0x0 DUP3 ADD MSTORE POP JUMP JUMPDEST PUSH32 0x4552433732313A20617070726F76656420717565727920666F72206E6F6E6578 PUSH1 0x0 DUP3 ADD MSTORE PUSH32 0x697374656E7420746F6B656E0000000000000000000000000000000000000000 PUSH1 0x20 DUP3 ADD MSTORE POP JUMP JUMPDEST PUSH32 0x4552433732314D657461646174613A2055524920717565727920666F72206E6F PUSH1 0x0 DUP3 ADD MSTORE PUSH32 0x6E6578697374656E7420746F6B656E0000000000000000000000000000000000 PUSH1 0x20 DUP3 ADD MSTORE POP JUMP JUMPDEST PUSH32 0x4552433732313A20617070726F76616C20746F2063757272656E74206F776E65 PUSH1 0x0 DUP3 ADD MSTORE PUSH32 0x7200000000000000000000000000000000000000000000000000000000000000 PUSH1 0x20 DUP3 ADD MSTORE POP JUMP JUMPDEST PUSH32 0x4552433732313A207472616E736665722063616C6C6572206973206E6F74206F PUSH1 0x0 DUP3 ADD MSTORE PUSH32 0x776E6572206E6F7220617070726F766564000000000000000000000000000000 PUSH1 0x20 DUP3 ADD MSTORE POP JUMP JUMPDEST PUSH32 0x455243373231456E756D657261626C653A20676C6F62616C20696E646578206F PUSH1 0x0 DUP3 ADD MSTORE PUSH32 0x7574206F6620626F756E64730000000000000000000000000000000000000000 PUSH1 0x20 DUP3 ADD MSTORE POP JUMP JUMPDEST PUSH32 0x4F6E6C792076616C696420646578206E756D626572732E204D75737420626520 PUSH1 0x0 DUP3 ADD MSTORE PUSH32 0x6265747765656E203120616E6420353200000000000000000000000000000000 PUSH1 0x20 DUP3 ADD MSTORE POP JUMP JUMPDEST PUSH2 0x4FB2 DUP2 PUSH2 0x47E4 JUMP JUMPDEST DUP2 EQ PUSH2 0x4FBD JUMPI PUSH1 0x0 DUP1 REVERT JUMPDEST POP JUMP JUMPDEST PUSH2 0x4FC9 DUP2 PUSH2 0x47F6 JUMP JUMPDEST DUP2 EQ PUSH2 0x4FD4 JUMPI PUSH1 0x0 DUP1 REVERT JUMPDEST POP JUMP JUMPDEST PUSH2 0x4FE0 DUP2 PUSH2 0x4802 JUMP JUMPDEST DUP2 EQ PUSH2 0x4FEB JUMPI PUSH1 0x0 DUP1 REVERT JUMPDEST POP JUMP JUMPDEST PUSH2 0x4FF7 DUP2 PUSH2 0x480C JUMP JUMPDEST DUP2 EQ PUSH2 0x5002 JUMPI PUSH1 0x0 DUP1 REVERT JUMPDEST POP JUMP JUMPDEST PUSH2 0x500E DUP2 PUSH2 0x4858 JUMP JUMPDEST DUP2 EQ PUSH2 0x5019 JUMPI PUSH1 0x0 DUP1 REVERT JUMPDEST POP JUMP INVALID LOG2 PUSH5 0x6970667358 0x22 SLT KECCAK256 0xC4 PUSH23 0x8244B04D86A37D1C50AF8F9AB1A52471C51C5B347BA5FB 0x1E 0xF 0xD0 0xB2 MSTORE 0xFC PUSH19 0x64736F6C634300080700330000000000000000 "
    },
    "gasEstimates": {
      "creation": {
        "codeDepositCost": "4112400",
        "executionCost": "infinite",
        "totalCost": "infinite"
      },
      "external": {
        "approve(address,uint256)": "infinite",
        "balanceOf(address)": "2902",
        "consumeMessage(uint256,uint256,uint256,uint256)": "infinite",
        "fightIDToFighters(uint256)": "infinite",
        "fightIDToWinnerPokemon(uint256)": "infinite",
        "getApproved(uint256)": "5228",
        "isApprovedForAll(address,address)": "infinite",
        "mint(uint256)": "infinite",
        "name()": "infinite",
        "ownerOf(uint256)": "3110",
        "pokemonIDToFightsWon(uint256)": "infinite",
        "pokemons(uint256)": "infinite",
        "safeTransferFrom(address,address,uint256)": "infinite",
        "safeTransferFrom(address,address,uint256,bytes)": "infinite",
        "sendPokemonsToL2(uint256,uint256)": "infinite",
        "setApprovalForAll(address,bool)": "infinite",
        "supportsInterface(bytes4)": "929",
        "symbol()": "infinite",
        "tokenByIndex(uint256)": "infinite",
        "tokenOfOwnerByIndex(address,uint256)": "infinite",
        "tokenURI(uint256)": "3395",
        "totalSupply()": "2557",
        "transferFrom(address,address,uint256)": "infinite"
      },
      "internal": {
        "_beforeTokenTransfer(address,address,uint256)": "infinite",
        "createFightID()": "24378",
        "createPokemon(uint256,uint256,uint256,uint256,uint256,uint256,uint256,uint256,uint256,uint256,uint256,uint256)": "infinite",
        "createPokemonByNameId(uint256,uint256)": "infinite",
        "createPokemonOther(uint256,uint256,uint256,uint256,uint256)": "infinite",
        "getDamage()": "infinite",
        "getDv()": "infinite",
        "getType()": "infinite",
        "random(uint256)": "infinite"
      }
    },
    "methodIdentifiers": {
      "approve(address,uint256)": "095ea7b3",
      "balanceOf(address)": "70a08231",
      "consumeMessage(uint256,uint256,uint256,uint256)": "ad5dbc29",
      "fightIDToFighters(uint256)": "1992f36d",
      "fightIDToWinnerPokemon(uint256)": "d82fe3b7",
      "getApproved(uint256)": "081812fc",
      "isApprovedForAll(address,address)": "e985e9c5",
      "mint(uint256)": "a0712d68",
      "name()": "06fdde03",
      "ownerOf(uint256)": "6352211e",
      "pokemonIDToFightsWon(uint256)": "d5f39a5b",
      "pokemons(uint256)": "85831079",
      "safeTransferFrom(address,address,uint256)": "42842e0e",
      "safeTransferFrom(address,address,uint256,bytes)": "b88d4fde",
      "sendPokemonsToL2(uint256,uint256)": "85b1c79d",
      "setApprovalForAll(address,bool)": "a22cb465",
      "supportsInterface(bytes4)": "01ffc9a7",
      "symbol()": "95d89b41",
      "tokenByIndex(uint256)": "4f6ccce7",
      "tokenOfOwnerByIndex(address,uint256)": "2f745c59",
      "tokenURI(uint256)": "c87b56dd",
      "totalSupply()": "18160ddd",
      "transferFrom(address,address,uint256)": "23b872dd"
    }
  },
  "abi": [
    {
      "inputs": [],
      "stateMutability": "nonpayable",
      "type": "constructor"
    },
    {
      "anonymous": false,
      "inputs": [
        {
          "indexed": true,
          "internalType": "address",
          "name": "owner",
          "type": "address"
        },
        {
          "indexed": true,
          "internalType": "address",
          "name": "approved",
          "type": "address"
        },
        {
          "indexed": true,
          "internalType": "uint256",
          "name": "tokenId",
          "type": "uint256"
        }
      ],
      "name": "Approval",
      "type": "event"
    },
    {
      "anonymous": false,
      "inputs": [
        {
          "indexed": true,
          "internalType": "address",
          "name": "owner",
          "type": "address"
        },
        {
          "indexed": true,
          "internalType": "address",
          "name": "operator",
          "type": "address"
        },
        {
          "indexed": false,
          "internalType": "bool",
          "name": "approved",
          "type": "bool"
        }
      ],
      "name": "ApprovalForAll",
      "type": "event"
    },
    {
      "anonymous": false,
      "inputs": [
        {
          "indexed": true,
          "internalType": "address",
          "name": "from",
          "type": "address"
        },
        {
          "indexed": true,
          "internalType": "address",
          "name": "to",
          "type": "address"
        },
        {
          "indexed": true,
          "internalType": "uint256",
          "name": "tokenId",
          "type": "uint256"
        }
      ],
      "name": "Transfer",
      "type": "event"
    },
    {
      "anonymous": false,
      "inputs": [
        {
          "indexed": false,
          "internalType": "uint256",
          "name": "uuid",
          "type": "uint256"
        },
        {
          "indexed": false,
          "internalType": "uint256",
          "name": "hp",
          "type": "uint256"
        },
        {
          "indexed": false,
          "internalType": "uint256",
          "name": "atk",
          "type": "uint256"
        },
        {
          "indexed": false,
          "internalType": "uint256",
          "name": "init",
          "type": "uint256"
        },
        {
          "indexed": false,
          "internalType": "uint256",
          "name": "def",
          "type": "uint256"
        }
      ],
      "name": "createdRandomPkmn",
      "type": "event"
    },
    {
      "anonymous": false,
      "inputs": [
        {
          "indexed": false,
          "internalType": "uint256",
          "name": "message",
          "type": "uint256"
        }
      ],
      "name": "enteredFunc",
      "type": "event"
    },
    {
      "anonymous": false,
      "inputs": [
        {
          "indexed": false,
          "internalType": "uint256",
          "name": "message",
          "type": "uint256"
        }
      ],
      "name": "gettingWinnerEntered",
      "type": "event"
    },
    {
      "anonymous": false,
      "inputs": [
        {
          "indexed": false,
          "internalType": "uint256",
          "name": "l2contract",
          "type": "uint256"
        },
        {
          "indexed": false,
          "internalType": "uint256",
          "name": "_winnerPok",
          "type": "uint256"
        },
        {
          "indexed": false,
          "internalType": "uint256",
          "name": "_fightID",
          "type": "uint256"
        }
      ],
      "name": "gettingWinnerFinished",
      "type": "event"
    },
    {
      "anonymous": false,
      "inputs": [
        {
          "indexed": true,
          "internalType": "address",
          "name": "_from",
          "type": "address"
        },
        {
          "indexed": false,
          "internalType": "uint256",
          "name": "_pok1",
          "type": "uint256"
        },
        {
          "indexed": false,
          "internalType": "uint256",
          "name": "_pok2",
          "type": "uint256"
        },
        {
          "indexed": false,
          "internalType": "uint256",
          "name": "l2Contract",
          "type": "uint256"
        },
        {
          "indexed": false,
          "internalType": "uint256",
          "name": "_value",
          "type": "uint256"
        }
      ],
      "name": "startFight",
      "type": "event"
    },
    {
      "anonymous": false,
      "inputs": [
        {
          "indexed": false,
          "internalType": "uint256",
          "name": "message",
          "type": "uint256"
        }
      ],
      "name": "startFightMessage",
      "type": "event"
    },
    {
      "anonymous": false,
      "inputs": [
        {
          "indexed": false,
          "internalType": "uint256",
          "name": "winnerPokID",
          "type": "uint256"
        },
        {
          "indexed": false,
          "internalType": "uint256",
          "name": "roundsWon",
          "type": "uint256"
        }
      ],
      "name": "winnerCount",
      "type": "event"
    },
    {
      "inputs": [
        {
          "internalType": "address",
          "name": "to",
          "type": "address"
        },
        {
          "internalType": "uint256",
          "name": "tokenId",
          "type": "uint256"
        }
      ],
      "name": "approve",
      "outputs": [],
      "stateMutability": "nonpayable",
      "type": "function"
    },
    {
      "inputs": [
        {
          "internalType": "address",
          "name": "owner",
          "type": "address"
        }
      ],
      "name": "balanceOf",
      "outputs": [
        {
          "internalType": "uint256",
          "name": "",
          "type": "uint256"
        }
      ],
      "stateMutability": "view",
      "type": "function"
    },
    {
      "inputs": [
        {
          "internalType": "uint256",
          "name": "pokemonWinnerID",
          "type": "uint256"
        },
        {
          "internalType": "uint256",
          "name": "fightID",
          "type": "uint256"
        },
        {
          "internalType": "uint256",
          "name": "effFast",
          "type": "uint256"
        },
        {
          "internalType": "uint256",
          "name": "effSlow",
          "type": "uint256"
        }
      ],
      "name": "consumeMessage",
      "outputs": [],
      "stateMutability": "nonpayable",
      "type": "function"
    },
    {
      "inputs": [
        {
          "internalType": "uint256",
          "name": "",
          "type": "uint256"
        }
      ],
      "name": "fightIDToFighters",
      "outputs": [
        {
          "components": [
            {
              "internalType": "uint256",
              "name": "id",
              "type": "uint256"
            },
            {
              "internalType": "uint256",
              "name": "hp",
              "type": "uint256"
            },
            {
              "internalType": "uint256",
              "name": "atk",
              "type": "uint256"
            },
            {
              "internalType": "uint256",
              "name": "init",
              "type": "uint256"
            },
            {
              "internalType": "uint256",
              "name": "def",
              "type": "uint256"
            },
            {
              "internalType": "uint256",
              "name": "type1",
              "type": "uint256"
            },
            {
              "internalType": "uint256",
              "name": "type2",
              "type": "uint256"
            },
            {
              "internalType": "uint256",
              "name": "atk1_type",
              "type": "uint256"
            },
            {
              "internalType": "uint256",
              "name": "atk1_damage",
              "type": "uint256"
            },
            {
              "internalType": "uint256",
              "name": "atk2_type",
              "type": "uint256"
            },
            {
              "internalType": "uint256",
              "name": "atk2_damage",
              "type": "uint256"
            },
            {
              "internalType": "uint256",
              "name": "name_id",
              "type": "uint256"
            }
          ],
          "internalType": "struct NFT.Pokemon",
          "name": "pok1",
          "type": "tuple"
        },
        {
          "components": [
            {
              "internalType": "uint256",
              "name": "id",
              "type": "uint256"
            },
            {
              "internalType": "uint256",
              "name": "hp",
              "type": "uint256"
            },
            {
              "internalType": "uint256",
              "name": "atk",
              "type": "uint256"
            },
            {
              "internalType": "uint256",
              "name": "init",
              "type": "uint256"
            },
            {
              "internalType": "uint256",
              "name": "def",
              "type": "uint256"
            },
            {
              "internalType": "uint256",
              "name": "type1",
              "type": "uint256"
            },
            {
              "internalType": "uint256",
              "name": "type2",
              "type": "uint256"
            },
            {
              "internalType": "uint256",
              "name": "atk1_type",
              "type": "uint256"
            },
            {
              "internalType": "uint256",
              "name": "atk1_damage",
              "type": "uint256"
            },
            {
              "internalType": "uint256",
              "name": "atk2_type",
              "type": "uint256"
            },
            {
              "internalType": "uint256",
              "name": "atk2_damage",
              "type": "uint256"
            },
            {
              "internalType": "uint256",
              "name": "name_id",
              "type": "uint256"
            }
          ],
          "internalType": "struct NFT.Pokemon",
          "name": "pok2",
          "type": "tuple"
        }
      ],
      "stateMutability": "view",
      "type": "function"
    },
    {
      "inputs": [
        {
          "internalType": "uint256",
          "name": "",
          "type": "uint256"
        }
      ],
      "name": "fightIDToWinnerPokemon",
      "outputs": [
        {
          "internalType": "uint256",
          "name": "id",
          "type": "uint256"
        },
        {
          "internalType": "uint256",
          "name": "hp",
          "type": "uint256"
        },
        {
          "internalType": "uint256",
          "name": "atk",
          "type": "uint256"
        },
        {
          "internalType": "uint256",
          "name": "init",
          "type": "uint256"
        },
        {
          "internalType": "uint256",
          "name": "def",
          "type": "uint256"
        },
        {
          "internalType": "uint256",
          "name": "type1",
          "type": "uint256"
        },
        {
          "internalType": "uint256",
          "name": "type2",
          "type": "uint256"
        },
        {
          "internalType": "uint256",
          "name": "atk1_type",
          "type": "uint256"
        },
        {
          "internalType": "uint256",
          "name": "atk1_damage",
          "type": "uint256"
        },
        {
          "internalType": "uint256",
          "name": "atk2_type",
          "type": "uint256"
        },
        {
          "internalType": "uint256",
          "name": "atk2_damage",
          "type": "uint256"
        },
        {
          "internalType": "uint256",
          "name": "name_id",
          "type": "uint256"
        }
      ],
      "stateMutability": "view",
      "type": "function"
    },
    {
      "inputs": [
        {
          "internalType": "uint256",
          "name": "tokenId",
          "type": "uint256"
        }
      ],
      "name": "getApproved",
      "outputs": [
        {
          "internalType": "address",
          "name": "",
          "type": "address"
        }
      ],
      "stateMutability": "view",
      "type": "function"
    },
    {
      "inputs": [
        {
          "internalType": "address",
          "name": "owner",
          "type": "address"
        },
        {
          "internalType": "address",
          "name": "operator",
          "type": "address"
        }
      ],
      "name": "isApprovedForAll",
      "outputs": [
        {
          "internalType": "bool",
          "name": "",
          "type": "bool"
        }
      ],
      "stateMutability": "view",
      "type": "function"
    },
    {
      "inputs": [
        {
          "internalType": "uint256",
          "name": "_name_id",
          "type": "uint256"
        }
      ],
      "name": "mint",
      "outputs": [],
      "stateMutability": "nonpayable",
      "type": "function"
    },
    {
      "inputs": [],
      "name": "name",
      "outputs": [
        {
          "internalType": "string",
          "name": "",
          "type": "string"
        }
      ],
      "stateMutability": "view",
      "type": "function"
    },
    {
      "inputs": [
        {
          "internalType": "uint256",
          "name": "tokenId",
          "type": "uint256"
        }
      ],
      "name": "ownerOf",
      "outputs": [
        {
          "internalType": "address",
          "name": "",
          "type": "address"
        }
      ],
      "stateMutability": "view",
      "type": "function"
    },
    {
      "inputs": [
        {
          "internalType": "uint256",
          "name": "",
          "type": "uint256"
        }
      ],
      "name": "pokemonIDToFightsWon",
      "outputs": [
        {
          "internalType": "uint256",
          "name": "",
          "type": "uint256"
        }
      ],
      "stateMutability": "view",
      "type": "function"
    },
    {
      "inputs": [
        {
          "internalType": "uint256",
          "name": "",
          "type": "uint256"
        }
      ],
      "name": "pokemons",
      "outputs": [
        {
          "internalType": "uint256",
          "name": "id",
          "type": "uint256"
        },
        {
          "internalType": "uint256",
          "name": "hp",
          "type": "uint256"
        },
        {
          "internalType": "uint256",
          "name": "atk",
          "type": "uint256"
        },
        {
          "internalType": "uint256",
          "name": "init",
          "type": "uint256"
        },
        {
          "internalType": "uint256",
          "name": "def",
          "type": "uint256"
        },
        {
          "internalType": "uint256",
          "name": "type1",
          "type": "uint256"
        },
        {
          "internalType": "uint256",
          "name": "type2",
          "type": "uint256"
        },
        {
          "internalType": "uint256",
          "name": "atk1_type",
          "type": "uint256"
        },
        {
          "internalType": "uint256",
          "name": "atk1_damage",
          "type": "uint256"
        },
        {
          "internalType": "uint256",
          "name": "atk2_type",
          "type": "uint256"
        },
        {
          "internalType": "uint256",
          "name": "atk2_damage",
          "type": "uint256"
        },
        {
          "internalType": "uint256",
          "name": "name_id",
          "type": "uint256"
        }
      ],
      "stateMutability": "view",
      "type": "function"
    },
    {
      "inputs": [
        {
          "internalType": "address",
          "name": "from",
          "type": "address"
        },
        {
          "internalType": "address",
          "name": "to",
          "type": "address"
        },
        {
          "internalType": "uint256",
          "name": "tokenId",
          "type": "uint256"
        }
      ],
      "name": "safeTransferFrom",
      "outputs": [],
      "stateMutability": "nonpayable",
      "type": "function"
    },
    {
      "inputs": [
        {
          "internalType": "address",
          "name": "from",
          "type": "address"
        },
        {
          "internalType": "address",
          "name": "to",
          "type": "address"
        },
        {
          "internalType": "uint256",
          "name": "tokenId",
          "type": "uint256"
        },
        {
          "internalType": "bytes",
          "name": "_data",
          "type": "bytes"
        }
      ],
      "name": "safeTransferFrom",
      "outputs": [],
      "stateMutability": "nonpayable",
      "type": "function"
    },
    {
      "inputs": [
        {
          "internalType": "uint256",
          "name": "myPok",
          "type": "uint256"
        },
        {
          "internalType": "uint256",
          "name": "enemyPok",
          "type": "uint256"
        }
      ],
      "name": "sendPokemonsToL2",
      "outputs": [],
      "stateMutability": "payable",
      "type": "function"
    },
    {
      "inputs": [
        {
          "internalType": "address",
          "name": "operator",
          "type": "address"
        },
        {
          "internalType": "bool",
          "name": "approved",
          "type": "bool"
        }
      ],
      "name": "setApprovalForAll",
      "outputs": [],
      "stateMutability": "nonpayable",
      "type": "function"
    },
    {
      "inputs": [
        {
          "internalType": "bytes4",
          "name": "interfaceId",
          "type": "bytes4"
        }
      ],
      "name": "supportsInterface",
      "outputs": [
        {
          "internalType": "bool",
          "name": "",
          "type": "bool"
        }
      ],
      "stateMutability": "view",
      "type": "function"
    },
    {
      "inputs": [],
      "name": "symbol",
      "outputs": [
        {
          "internalType": "string",
          "name": "",
          "type": "string"
        }
      ],
      "stateMutability": "view",
      "type": "function"
    },
    {
      "inputs": [
        {
          "internalType": "uint256",
          "name": "index",
          "type": "uint256"
        }
      ],
      "name": "tokenByIndex",
      "outputs": [
        {
          "internalType": "uint256",
          "name": "",
          "type": "uint256"
        }
      ],
      "stateMutability": "view",
      "type": "function"
    },
    {
      "inputs": [
        {
          "internalType": "address",
          "name": "owner",
          "type": "address"
        },
        {
          "internalType": "uint256",
          "name": "index",
          "type": "uint256"
        }
      ],
      "name": "tokenOfOwnerByIndex",
      "outputs": [
        {
          "internalType": "uint256",
          "name": "",
          "type": "uint256"
        }
      ],
      "stateMutability": "view",
      "type": "function"
    },
    {
      "inputs": [
        {
          "internalType": "uint256",
          "name": "tokenId",
          "type": "uint256"
        }
      ],
      "name": "tokenURI",
      "outputs": [
        {
          "internalType": "string",
          "name": "",
          "type": "string"
        }
      ],
      "stateMutability": "view",
      "type": "function"
    },
    {
      "inputs": [],
      "name": "totalSupply",
      "outputs": [
        {
          "internalType": "uint256",
          "name": "",
          "type": "uint256"
        }
      ],
      "stateMutability": "view",
      "type": "function"
    },
    {
      "inputs": [
        {
          "internalType": "address",
          "name": "from",
          "type": "address"
        },
        {
          "internalType": "address",
          "name": "to",
          "type": "address"
        },
        {
          "internalType": "uint256",
          "name": "tokenId",
          "type": "uint256"
        }
      ],
      "name": "transferFrom",
      "outputs": [],
      "stateMutability": "nonpayable",
      "type": "function"
    }
  ]
}