{
  "data": {
    "bytecode": {
      "linkReferences": {},
      "object": "60806040527f02ceca6b6d4d9f6b0da9a08f01b328fc06539267740fe1e14526fbba7f78e0c9600b556000600c556000600d553480156200003f57600080fd5b506040518060400160405280600a81526020017f506f6b656d6f6e4e4654000000000000000000000000000000000000000000008152506040518060400160405280600481526020017f504b4d4e000000000000000000000000000000000000000000000000000000008152508160009080519060200190620000c49291906200013b565b508060019080519060200190620000dd9291906200013b565b50505073de29d060d45901fb19ed6c6e959eb22d8626708e600a60006101000a81548173ffffffffffffffffffffffffffffffffffffffff021916908373ffffffffffffffffffffffffffffffffffffffff16021790555062000250565b8280546200014990620001eb565b90600052602060002090601f0160209004810192826200016d5760008555620001b9565b82601f106200018857805160ff1916838001178555620001b9565b82800160010185558215620001b9579182015b82811115620001b85782518255916020019190600101906200019b565b5b509050620001c89190620001cc565b5090565b5b80821115620001e7576000816000905550600101620001cd565b5090565b600060028204905060018216806200020457607f821691505b602082108114156200021b576200021a62000221565b5b50919050565b7f4e487b7100000000000000000000000000000000000000000000000000000000600052602260045260246000fd5b61510780620002606000396000f3fe6080604052600436106101405760003560e01c80636352211e116100b6578063a22cb4651161006f578063a22cb465146104a3578063b88d4fde146104cc578063c87b56dd146104f5578063d5f39a5b14610532578063d82fe3b71461056f578063e985e9c5146105b757610140565b80636352211e1461037157806370a08231146103ae57806385831079146103eb57806385b1c79d1461043357806395d89b411461044f578063a0712d681461047a57610140565b80631992f36d116101085780631992f36d1461023e57806323b872dd1461027c5780632f745c59146102a557806342842e0e146102e25780634c64c94d1461030b5780634f6ccce71461033457610140565b806301ffc9a71461014557806306fdde0314610182578063081812fc146101ad578063095ea7b3146101ea57806318160ddd14610213575b600080fd5b34801561015157600080fd5b5061016c60048036038101906101679190613b8b565b6105f4565b6040516101799190614254565b60405180910390f35b34801561018e57600080fd5b50610197610606565b6040516101a491906142a5565b60405180910390f35b3480156101b957600080fd5b506101d460048036038101906101cf9190613be5565b610698565b6040516101e191906141ed565b60405180910390f35b3480156101f657600080fd5b50610211600480360381019061020c9190613b1e565b61071d565b005b34801561021f57600080fd5b50610228610835565b6040516102359190614512565b60405180910390f35b34801561024a57600080fd5b5061026560048036038101906102609190613be5565b610842565b6040516102739291906144e7565b60405180910390f35b34801561028857600080fd5b506102a3600480360381019061029e9190613a08565b61096c565b005b3480156102b157600080fd5b506102cc60048036038101906102c79190613b1e565b6109cc565b6040516102d99190614512565b60405180910390f35b3480156102ee57600080fd5b5061030960048036038101906103049190613a08565b610a71565b005b34801561031757600080fd5b50610332600480360381019061032d9190613c52565b610a91565b005b34801561034057600080fd5b5061035b60048036038101906103569190613be5565b610dc5565b6040516103689190614512565b60405180910390f35b34801561037d57600080fd5b5061039860048036038101906103939190613be5565b610e36565b6040516103a591906141ed565b60405180910390f35b3480156103ba57600080fd5b506103d560048036038101906103d0919061399b565b610ee8565b6040516103e29190614512565b60405180910390f35b3480156103f757600080fd5b50610412600480360381019061040d9190613be5565b610fa0565b60405161042a9c9b9a99989796959493929190614640565b60405180910390f35b61044d60048036038101906104489190613c12565b611010565b005b34801561045b57600080fd5b50610464611885565b60405161047191906142a5565b60405180910390f35b34801561048657600080fd5b506104a1600480360381019061049c9190613be5565b611917565b005b3480156104af57600080fd5b506104ca60048036038101906104c59190613ade565b611a38565b005b3480156104d857600080fd5b506104f360048036038101906104ee9190613a5b565b611a4e565b005b34801561050157600080fd5b5061051c60048036038101906105179190613be5565b611ab0565b60405161052991906142a5565b60405180910390f35b34801561053e57600080fd5b5061055960048036038101906105549190613be5565b611b57565b6040516105669190614512565b60405180910390f35b34801561057b57600080fd5b5061059660048036038101906105919190613be5565b611b6f565b6040516105ae9c9b9a99989796959493929190614640565b60405180910390f35b3480156105c357600080fd5b506105de60048036038101906105d991906139c8565b611bcf565b6040516105eb9190614254565b60405180910390f35b60006105ff82611c63565b9050919050565b6060600080546106159061496b565b80601f01602080910402602001604051908101604052809291908181526020018280546106419061496b565b801561068e5780601f106106635761010080835404028352916020019161068e565b820191906000526020600020905b81548152906001019060200180831161067157829003601f168201915b5050505050905090565b60006106a382611cdd565b6106e2576040517f08c379a00000000000000000000000000000000000000000000000000000000081526004016106d990614427565b60405180910390fd5b6004600083815260200190815260200160002060009054906101000a900473ffffffffffffffffffffffffffffffffffffffff169050919050565b600061072882610e36565b90508073ffffffffffffffffffffffffffffffffffffffff168373ffffffffffffffffffffffffffffffffffffffff161415610799576040517f08c379a000000000000000000000000000000000000000000000000000000000815260040161079090614467565b60405180910390fd5b8073ffffffffffffffffffffffffffffffffffffffff166107b8611d49565b73ffffffffffffffffffffffffffffffffffffffff1614806107e757506107e6816107e1611d49565b611bcf565b5b610826576040517f08c379a000000000000000000000000000000000000000000000000000000000815260040161081d906143a7565b60405180910390fd5b6108308383611d51565b505050565b6000600880549050905090565b6010602052806000526040600020600091509050806000016040518061018001604052908160008201548152602001600182015481526020016002820154815260200160038201548152602001600482015481526020016005820154815260200160068201548152602001600782015481526020016008820154815260200160098201548152602001600a8201548152602001600b820154815250509080600c016040518061018001604052908160008201548152602001600182015481526020016002820154815260200160038201548152602001600482015481526020016005820154815260200160068201548152602001600782015481526020016008820154815260200160098201548152602001600a8201548152602001600b82015481525050905082565b61097d610977611d49565b82611e0a565b6109bc576040517f08c379a00000000000000000000000000000000000000000000000000000000081526004016109b390614487565b60405180910390fd5b6109c7838383611ee8565b505050565b60006109d783610ee8565b8210610a18576040517f08c379a0000000000000000000000000000000000000000000000000000000008152600401610a0f906142c7565b60405180910390fd5b600660008473ffffffffffffffffffffffffffffffffffffffff1673ffffffffffffffffffffffffffffffffffffffff168152602001908152602001600020600083815260200190815260200160002054905092915050565b610a8c83838360405180602001604052806000815250611a4e565b505050565b7f0ed9918e573b159b62731bc88263b9ce84e79c6335fbba2b28f981840126e16f612b67604051610ac2919061426f565b60405180910390a16000600467ffffffffffffffff811115610ae757610ae6614b3d565b5b604051908082528060200260200182016040528015610b155781602001602082028036833780820191505090505b5090508481600081518110610b2d57610b2c614b0e565b5b6020026020010181815250508381600181518110610b4e57610b4d614b0e565b5b6020026020010181815250508281600281518110610b6f57610b6e614b0e565b5b6020026020010181815250508181600381518110610b9057610b8f614b0e565b5b602002602001018181525050600a60009054906101000a900473ffffffffffffffffffffffffffffffffffffffff1673ffffffffffffffffffffffffffffffffffffffff16632c9dd5c0600b54836040518363ffffffff1660e01b8152600401610bfb92919061452d565b602060405180830381600087803b158015610c1557600080fd5b505af1158015610c29573d6000803e3d6000fd5b505050506040513d601f19601f82011682018060405250810190610c4d9190613b5e565b50600e8581548110610c6257610c61614b0e565b5b90600052602060002090600c0201600f600086815260200190815260200160002060008201548160000155600182015481600101556002820154816002015560038201548160030155600482015481600401556005820154816005015560068201548160060155600782015481600701556008820154816008015560098201548160090155600a82015481600a0155600b82015481600b015590505060016011600087815260200190815260200160002054610d1e91906147cc565b60116000878152602001908152602001600020819055507f510a8d0a61f3ec9ef2328338cfc3429d30261d8781d56dd0507cb19e2ed63a9c856011600088815260200190815260200160002054604051610d7992919061455d565b60405180910390a17fb8d7090364da4a6371334296aaf588e8d119f8490ac61ce968a539406164f5fb600b548686604051610db6939291906145c4565b60405180910390a15050505050565b6000610dcf610835565b8210610e10576040517f08c379a0000000000000000000000000000000000000000000000000000000008152600401610e07906144c7565b60405180910390fd5b60088281548110610e2457610e23614b0e565b5b90600052602060002001549050919050565b6000806002600084815260200190815260200160002060009054906101000a900473ffffffffffffffffffffffffffffffffffffffff169050600073ffffffffffffffffffffffffffffffffffffffff168173ffffffffffffffffffffffffffffffffffffffff161415610edf576040517f08c379a0000000000000000000000000000000000000000000000000000000008152600401610ed6906143e7565b60405180910390fd5b80915050919050565b60008073ffffffffffffffffffffffffffffffffffffffff168273ffffffffffffffffffffffffffffffffffffffff161415610f59576040517f08c379a0000000000000000000000000000000000000000000000000000000008152600401610f50906143c7565b60405180910390fd5b600360008373ffffffffffffffffffffffffffffffffffffffff1673ffffffffffffffffffffffffffffffffffffffff168152602001908152602001600020549050919050565b600e8181548110610fb057600080fd5b90600052602060002090600c020160009150905080600001549080600101549080600201549080600301549080600401549080600501549080600601549080600701549080600801549080600901549080600a01549080600b015490508c565b66470de4df82000034101561102457600080fd5b3373ffffffffffffffffffffffffffffffffffffffff1661104483610e36565b73ffffffffffffffffffffffffffffffffffffffff161461106457600080fd5b61106c610835565b821061107757600080fd5b61107f610835565b811061108a57600080fd5b7f3593df2963c20760afeec7bc9ae99f0ad8227ec08877590930b113d33df9c06760016040516110ba919061428a565b60405180910390a16000600e83815481106110d8576110d7614b0e565b5b90600052602060002090600c02016040518061018001604052908160008201548152602001600182015481526020016002820154815260200160038201548152602001600482015481526020016005820154815260200160068201548152602001600782015481526020016008820154815260200160098201548152602001600a8201548152602001600b8201548152505090506000600e838154811061118257611181614b0e565b5b90600052602060002090600c02016040518061018001604052908160008201548152602001600182015481526020016002820154815260200160038201548152602001600482015481526020016005820154815260200160068201548152602001600782015481526020016008820154815260200160098201548152602001600a8201548152602001600b820154815250509050600061122061214f565b90506000601967ffffffffffffffff81111561123f5761123e614b3d565b5b60405190808252806020026020018201604052801561126d5781602001602082028036833780820191505090505b50905083600001518160008151811061128957611288614b0e565b5b6020026020010181815250508360200151816001815181106112ae576112ad614b0e565b5b6020026020010181815250508360400151816002815181106112d3576112d2614b0e565b5b6020026020010181815250508360600151816003815181106112f8576112f7614b0e565b5b60200260200101818152505083608001518160048151811061131d5761131c614b0e565b5b6020026020010181815250508360a001518160058151811061134257611341614b0e565b5b6020026020010181815250508360c001518160068151811061136757611366614b0e565b5b6020026020010181815250508360e001518160078151811061138c5761138b614b0e565b5b602002602001018181525050836101000151816008815181106113b2576113b1614b0e565b5b602002602001018181525050836101200151816009815181106113d8576113d7614b0e565b5b60200260200101818152505083610140015181600a815181106113fe576113fd614b0e565b5b60200260200101818152505083610160015181600b8151811061142457611423614b0e565b5b602002602001018181525050826000015181600c8151811061144957611448614b0e565b5b602002602001018181525050826020015181600d8151811061146e5761146d614b0e565b5b602002602001018181525050826040015181600e8151811061149357611492614b0e565b5b602002602001018181525050826060015181600f815181106114b8576114b7614b0e565b5b6020026020010181815250508260800151816010815181106114dd576114dc614b0e565b5b6020026020010181815250508260a001518160118151811061150257611501614b0e565b5b6020026020010181815250508260c001518160128151811061152757611526614b0e565b5b6020026020010181815250508260e001518160138151811061154c5761154b614b0e565b5b6020026020010181815250508261010001518160148151811061157257611571614b0e565b5b6020026020010181815250508261012001518160158151811061159857611597614b0e565b5b602002602001018181525050826101400151816016815181106115be576115bd614b0e565b5b602002602001018181525050826101600151816017815181106115e4576115e3614b0e565b5b602002602001018181525050818160188151811061160557611604614b0e565b5b602002602001018181525050600a60009054906101000a900473ffffffffffffffffffffffffffffffffffffffff1673ffffffffffffffffffffffffffffffffffffffff16633e3aa6c534600b547f02d8dd67d94ff9987fba396772e78af45776e50ec5231a489977b2973c8ad302856040518563ffffffff1660e01b815260040161169393929190614586565b6020604051808303818588803b1580156116ac57600080fd5b505af11580156116c0573d6000803e3d6000fd5b50505050506040513d601f19601f820116820180604052508101906116e59190613b5e565b5060405180604001604052808581526020018481525060106000848152602001908152602001600020600082015181600001600082015181600001556020820151816001015560408201518160020155606082015181600301556080820151816004015560a0820151816005015560c0820151816006015560e082015181600701556101008201518160080155610120820151816009015561014082015181600a015561016082015181600b01555050602082015181600c01600082015181600001556020820151816001015560408201518160020155606082015181600301556080820151816004015560a0820151816005015560c0820151816006015560e082015181600701556101008201518160080155610120820151816009015561014082015181600a015561016082015181600b015550509050503373ffffffffffffffffffffffffffffffffffffffff167fd02fce1acafa0b604f24aaad2d7c0a36c749f4b333abc05fc83ba197d5e0705c85600001518560000151600b543460405161187594939291906145fb565b60405180910390a2505050505050565b6060600180546118949061496b565b80601f01602080910402602001604051908101604052809291908181526020018280546118c09061496b565b801561190d5780601f106118e25761010080835404028352916020019161190d565b820191906000526020600020905b8154815290600101906020018083116118f057829003601f168201915b5050505050905090565b600081118015611928575061028a81105b611967576040517f08c379a000000000000000000000000000000000000000000000000000000000815260040161195e906144a7565b60405180910390fd5b6000600e805490509050600061197d838361216d565b9050600e8190806001815401808255809150506001900390600052602060002090600c0201600090919091909150600082015181600001556020820151816001015560408201518160020155606082015181600301556080820151816004015560a0820151816005015560c0820151816006015560e082015181600701556101008201518160080155610120820151816009015561014082015181600a015561016082015181600b01555050611a3333836128fe565b505050565b611a4a611a43611d49565b838361291c565b5050565b611a5f611a59611d49565b83611e0a565b611a9e576040517f08c379a0000000000000000000000000000000000000000000000000000000008152600401611a9590614487565b60405180910390fd5b611aaa84848484612a89565b50505050565b6060611abb82611cdd565b611afa576040517f08c379a0000000000000000000000000000000000000000000000000000000008152600401611af190614447565b60405180910390fd5b6000611b04612ae5565b90506000815111611b245760405180602001604052806000815250611b4f565b80611b2e84612afc565b604051602001611b3f92919061418c565b6040516020818303038152906040525b915050919050565b60116020528060005260406000206000915090505481565b600f60205280600052604060002060009150905080600001549080600101549080600201549080600301549080600401549080600501549080600601549080600701549080600801549080600901549080600a01549080600b015490508c565b6000600560008473ffffffffffffffffffffffffffffffffffffffff1673ffffffffffffffffffffffffffffffffffffffff16815260200190815260200160002060008373ffffffffffffffffffffffffffffffffffffffff1673ffffffffffffffffffffffffffffffffffffffff16815260200190815260200160002060009054906101000a900460ff16905092915050565b60007f780e9d63000000000000000000000000000000000000000000000000000000007bffffffffffffffffffffffffffffffffffffffffffffffffffffffff1916827bffffffffffffffffffffffffffffffffffffffffffffffffffffffff19161480611cd65750611cd582612c5d565b5b9050919050565b60008073ffffffffffffffffffffffffffffffffffffffff166002600084815260200190815260200160002060009054906101000a900473ffffffffffffffffffffffffffffffffffffffff1673ffffffffffffffffffffffffffffffffffffffff1614159050919050565b600033905090565b816004600083815260200190815260200160002060006101000a81548173ffffffffffffffffffffffffffffffffffffffff021916908373ffffffffffffffffffffffffffffffffffffffff160217905550808273ffffffffffffffffffffffffffffffffffffffff16611dc483610e36565b73ffffffffffffffffffffffffffffffffffffffff167f8c5be1e5ebec7d5bd14f71427d1e84f3dd0314c0f7b2291e5b200ac8c7c3b92560405160405180910390a45050565b6000611e1582611cdd565b611e54576040517f08c379a0000000000000000000000000000000000000000000000000000000008152600401611e4b90614387565b60405180910390fd5b6000611e5f83610e36565b90508073ffffffffffffffffffffffffffffffffffffffff168473ffffffffffffffffffffffffffffffffffffffff161480611ea15750611ea08185611bcf565b5b80611edf57508373ffffffffffffffffffffffffffffffffffffffff16611ec784610698565b73ffffffffffffffffffffffffffffffffffffffff16145b91505092915050565b8273ffffffffffffffffffffffffffffffffffffffff16611f0882610e36565b73ffffffffffffffffffffffffffffffffffffffff1614611f5e576040517f08c379a0000000000000000000000000000000000000000000000000000000008152600401611f5590614307565b60405180910390fd5b600073ffffffffffffffffffffffffffffffffffffffff168273ffffffffffffffffffffffffffffffffffffffff161415611fce576040517f08c379a0000000000000000000000000000000000000000000000000000000008152600401611fc590614347565b60405180910390fd5b611fd9838383612d3f565b611fe4600082611d51565b6001600360008573ffffffffffffffffffffffffffffffffffffffff1673ffffffffffffffffffffffffffffffffffffffff16815260200190815260200160002060008282546120349190614853565b925050819055506001600360008473ffffffffffffffffffffffffffffffffffffffff1673ffffffffffffffffffffffffffffffffffffffff168152602001908152602001600020600082825461208b91906147cc565b92505081905550816002600083815260200190815260200160002060006101000a81548173ffffffffffffffffffffffffffffffffffffffff021916908373ffffffffffffffffffffffffffffffffffffffff160217905550808273ffffffffffffffffffffffffffffffffffffffff168473ffffffffffffffffffffffffffffffffffffffff167fddf252ad1be2c89b69c2b068fc378daa952ba7f163c4a11628f55a4df523b3ef60405160405180910390a461214a838383612d4f565b505050565b6000600c6000815480929190612164906149ce565b91905055905090565b61217561384c565b60018314156121af576121a8826098606f606a606f600360636003601e61219a612d54565b6121a2612d65565b8e612d82565b90506128f8565b60028314156121e9576121e28260a7607d607b607e60036007600360286121d4612d54565b6121dc612d65565b8e612d82565b90506128f8565b60038314156122235761221c8260bb60a7609160c0600360076003603261220e612d54565b612216612d65565b8e612d82565b90506128f8565b600483141561225d576122568260926072608060686001606360016028612248612d54565b612250612d65565b8e612d82565b90506128f8565b6005831415612297576122908260a5607f609160796001606360016028612282612d54565b61228a612d65565b8e612d82565b90506128f8565b60068314156122d1576122ca8260b960c860a760b360016009600160326122bc612d54565b6122c4612d65565b8e612d82565b90506128f8565b600783141561230b57612304826097606e60686080600260636002601e6122f6612d54565b6122fe612d65565b8e612d82565b90506128f8565b60088314156123455761233e8260a6607e607960916002606360026028612330612d54565b612338612d65565b8e612d82565b90506128f8565b600983141561237f576123788260ba6094608f60a7600260636002603261236a612d54565b612372612d65565b8e612d82565b90506128f8565b600a83141561239f5761239882600b6063866001612e36565b90506128f8565b600b8314156123bf576123b882600b6063866002612e36565b90506128f8565b600c8314156123df576123d882600b6009866003612e36565b90506128f8565b600d8314156123ff576123f882600b6007866001612e36565b90506128f8565b600e83141561241f5761241882600b6007866002612e36565b90506128f8565b600f83141561243f5761243882600b6007866003612e36565b90506128f8565b601083141561245f576124588260006009866001612e36565b90506128f8565b601183141561247f576124788260006009866002612e36565b90506128f8565b601283141561249f576124988260006009866003612e36565b90506128f8565b60138314156124bf576124b88260006063866001612e36565b90506128f8565b60148314156124df576124d88260006063866002612e36565b90506128f8565b60158314156124ff576124f88260006009866001612e36565b90506128f8565b601683141561251f576125188260006009866002612e36565b90506128f8565b601783141561253f576125388260076063866001612e36565b90506128f8565b601883141561255f576125588260076063866002612e36565b90506128f8565b601983141561257f576125788260046063866002612e36565b90506128f8565b601a83141561259f576125988260046063866003612e36565b90506128f8565b601b8314156125bf576125b88260086063866001612e36565b90506128f8565b601c8314156125df576125d88260086063866002612e36565b90506128f8565b601d8314156125ff576125f88260076063866001612e36565b90506128f8565b601e83141561261f576126188260076063866001612e36565b90506128f8565b601f83141561263f576126388260076008866003612e36565b90506128f8565b602083141561265f576126588260076063866001612e36565b90506128f8565b602183141561267f576126788260076063866002612e36565b90506128f8565b602283141561269f576126988260076008866003612e36565b90506128f8565b60238314156126bf576126b88260116063866001612e36565b90506128f8565b60248314156126df576126d88260116063866002612e36565b90506128f8565b60258314156126ff576126f88260016063866002612e36565b90506128f8565b602683141561271f576127188260016063866003612e36565b90506128f8565b602783141561273f576127388260006011866001612e36565b90506128f8565b602883141561275f576127588260006011866002612e36565b90506128f8565b602983141561277f576127788260076009866001612e36565b90506128f8565b602a83141561279f576127988260076009866002612e36565b90506128f8565b602b8314156127bf576127b88260036007866001612e36565b90506128f8565b602c8314156127df576127d88260036007866002612e36565b90506128f8565b602d8314156127ff576127f88260036007866003612e36565b90506128f8565b602e83141561281f5761281882600b6003866001612e36565b90506128f8565b602f83141561283f5761283882600b6003866002612e36565b90506128f8565b603083141561285f5761285882600b6007866001612e36565b90506128f8565b603183141561287f5761287882600b6007866003612e36565b90506128f8565b603283141561289f576128988260086063866002612e36565b90506128f8565b60338314156128bf576128b88260086063866003612e36565b90506128f8565b60348314156128df576128d88260006063866002612e36565b90506128f8565b6128f58260006063866128f0612f4a565b612e36565b90505b92915050565b612918828260405180602001604052806000815250612f67565b5050565b8173ffffffffffffffffffffffffffffffffffffffff168373ffffffffffffffffffffffffffffffffffffffff16141561298b576040517f08c379a000000000000000000000000000000000000000000000000000000000815260040161298290614367565b60405180910390fd5b80600560008573ffffffffffffffffffffffffffffffffffffffff1673ffffffffffffffffffffffffffffffffffffffff16815260200190815260200160002060008473ffffffffffffffffffffffffffffffffffffffff1673ffffffffffffffffffffffffffffffffffffffff16815260200190815260200160002060006101000a81548160ff0219169083151502179055508173ffffffffffffffffffffffffffffffffffffffff168373ffffffffffffffffffffffffffffffffffffffff167f17307eab39ab6107e8899845ad3d59bd9653f200f220920489ca2b5937696c3183604051612a7c9190614254565b60405180910390a3505050565b612a94848484611ee8565b612aa084848484612fc2565b612adf576040517f08c379a0000000000000000000000000000000000000000000000000000000008152600401612ad6906142e7565b60405180910390fd5b50505050565b606060405180602001604052806000815250905090565b60606000821415612b44576040518060400160405280600181526020017f30000000000000000000000000000000000000000000000000000000000000008152509050612c58565b600082905060005b60008214612b76578080612b5f906149ce565b915050600a82612b6f9190614822565b9150612b4c565b60008167ffffffffffffffff811115612b9257612b91614b3d565b5b6040519080825280601f01601f191660200182016040528015612bc45781602001600182028036833780820191505090505b5090505b60008514612c5157600182612bdd9190614853565b9150600a85612bec9190614a21565b6030612bf891906147cc565b60f81b818381518110612c0e57612c0d614b0e565b5b60200101907effffffffffffffffffffffffffffffffffffffffffffffffffffffffffffff1916908160001a905350600a85612c4a9190614822565b9450612bc8565b8093505050505b919050565b60007f80ac58cd000000000000000000000000000000000000000000000000000000007bffffffffffffffffffffffffffffffffffffffffffffffffffffffff1916827bffffffffffffffffffffffffffffffffffffffffffffffffffffffff19161480612d2857507f5b5e139f000000000000000000000000000000000000000000000000000000007bffffffffffffffffffffffffffffffffffffffffffffffffffffffff1916827bffffffffffffffffffffffffffffffffffffffffffffffffffffffff1916145b80612d385750612d3782613159565b5b9050919050565b612d4a8383836131c3565b505050565b505050565b6000612d6060116132d7565b905090565b60006028612d7360326132d7565b612d7d91906147cc565b905090565b612d8a61384c565b6040518061018001604052808e8152602001612da4613333565b8e612daf91906147cc565b8152602001612dbc613333565b8d612dc791906147cc565b8152602001612dd4613333565b8c612ddf91906147cc565b8152602001612dec613333565b8b612df791906147cc565b81526020018981526020018881526020018781526020018681526020018581526020018481526020018381525090509c9b505050505050505050505050565b612e3e61384c565b6000606490506002831415612e5d57601481612e5a91906147cc565b90505b6003831415612e7657603281612e7391906147cc565b90505b6004831415612e8f57604681612e8c91906147cc565b90505b604051806101800160405280888152602001612ea9613333565b83612eb491906147cc565b8152602001612ec1613333565b83612ecc91906147cc565b8152602001612ed9613333565b83612ee491906147cc565b8152602001612ef1613333565b83612efc91906147cc565b8152602001878152602001868152602001878152602001612f1b612d65565b8152602001612f28612d54565b8152602001612f35612d65565b81526020018581525091505095945050505050565b60006001612f5860026132d7565b612f6291906147cc565b905090565b612f718383613344565b612f7e6000848484612fc2565b612fbd576040517f08c379a0000000000000000000000000000000000000000000000000000000008152600401612fb4906142e7565b60405180910390fd5b505050565b6000612fe38473ffffffffffffffffffffffffffffffffffffffff1661351e565b1561314c578373ffffffffffffffffffffffffffffffffffffffff1663150b7a0261300c611d49565b8786866040518563ffffffff1660e01b815260040161302e9493929190614208565b602060405180830381600087803b15801561304857600080fd5b505af192505050801561307957506040513d601f19601f820116820180604052508101906130769190613bb8565b60015b6130fc573d80600081146130a9576040519150601f19603f3d011682016040523d82523d6000602084013e6130ae565b606091505b506000815114156130f4576040517f08c379a00000000000000000000000000000000000000000000000000000000081526004016130eb906142e7565b60405180910390fd5b805181602001fd5b63150b7a0260e01b7bffffffffffffffffffffffffffffffffffffffffffffffffffffffff1916817bffffffffffffffffffffffffffffffffffffffffffffffffffffffff191614915050613151565b600190505b949350505050565b60007f01ffc9a7000000000000000000000000000000000000000000000000000000007bffffffffffffffffffffffffffffffffffffffffffffffffffffffff1916827bffffffffffffffffffffffffffffffffffffffffffffffffffffffff1916149050919050565b6131ce838383613541565b600073ffffffffffffffffffffffffffffffffffffffff168373ffffffffffffffffffffffffffffffffffffffff1614156132115761320c81613546565b613250565b8173ffffffffffffffffffffffffffffffffffffffff168373ffffffffffffffffffffffffffffffffffffffff161461324f5761324e838261358f565b5b5b600073ffffffffffffffffffffffffffffffffffffffff168273ffffffffffffffffffffffffffffffffffffffff1614156132935761328e816136fc565b6132d2565b8273ffffffffffffffffffffffffffffffffffffffff168273ffffffffffffffffffffffffffffffffffffffff16146132d1576132d082826137cd565b5b5b505050565b6000600d60008154809291906132ec906149ce565b9190505550814442600d54604051602001613309939291906141b0565b6040516020818303038152906040528051906020012060001c61332c9190614a21565b9050919050565b600061333f60146132d7565b905090565b600073ffffffffffffffffffffffffffffffffffffffff168273ffffffffffffffffffffffffffffffffffffffff1614156133b4576040517f08c379a00000000000000000000000000000000000000000000000000000000081526004016133ab90614407565b60405180910390fd5b6133bd81611cdd565b156133fd576040517f08c379a00000000000000000000000000000000000000000000000000000000081526004016133f490614327565b60405180910390fd5b61340960008383612d3f565b6001600360008473ffffffffffffffffffffffffffffffffffffffff1673ffffffffffffffffffffffffffffffffffffffff168152602001908152602001600020600082825461345991906147cc565b92505081905550816002600083815260200190815260200160002060006101000a81548173ffffffffffffffffffffffffffffffffffffffff021916908373ffffffffffffffffffffffffffffffffffffffff160217905550808273ffffffffffffffffffffffffffffffffffffffff16600073ffffffffffffffffffffffffffffffffffffffff167fddf252ad1be2c89b69c2b068fc378daa952ba7f163c4a11628f55a4df523b3ef60405160405180910390a461351a60008383612d4f565b5050565b6000808273ffffffffffffffffffffffffffffffffffffffff163b119050919050565b505050565b6008805490506009600083815260200190815260200160002081905550600881908060018154018082558091505060019003906000526020600020016000909190919091505550565b6000600161359c84610ee8565b6135a69190614853565b905060006007600084815260200190815260200160002054905081811461368b576000600660008673ffffffffffffffffffffffffffffffffffffffff1673ffffffffffffffffffffffffffffffffffffffff168152602001908152602001600020600084815260200190815260200160002054905080600660008773ffffffffffffffffffffffffffffffffffffffff1673ffffffffffffffffffffffffffffffffffffffff168152602001908152602001600020600084815260200190815260200160002081905550816007600083815260200190815260200160002081905550505b6007600084815260200190815260200160002060009055600660008573ffffffffffffffffffffffffffffffffffffffff1673ffffffffffffffffffffffffffffffffffffffff16815260200190815260200160002060008381526020019081526020016000206000905550505050565b600060016008805490506137109190614853565b90506000600960008481526020019081526020016000205490506000600883815481106137405761373f614b0e565b5b90600052602060002001549050806008838154811061376257613761614b0e565b5b9060005260206000200181905550816009600083815260200190815260200160002081905550600960008581526020019081526020016000206000905560088054806137b1576137b0614adf565b5b6001900381819060005260206000200160009055905550505050565b60006137d883610ee8565b905081600660008573ffffffffffffffffffffffffffffffffffffffff1673ffffffffffffffffffffffffffffffffffffffff168152602001908152602001600020600083815260200190815260200160002081905550806007600084815260200190815260200160002081905550505050565b6040518061018001604052806000815260200160008152602001600081526020016000815260200160008152602001600081526020016000815260200160008152602001600081526020016000815260200160008152602001600081525090565b60006138c06138bb8461471f565b6146fa565b9050828152602081018484840111156138dc576138db614b71565b5b6138e7848285614929565b509392505050565b6000813590506138fe8161505e565b92915050565b60008135905061391381615075565b92915050565b6000815190506139288161508c565b92915050565b60008135905061393d816150a3565b92915050565b600081519050613952816150a3565b92915050565b600082601f83011261396d5761396c614b6c565b5b813561397d8482602086016138ad565b91505092915050565b600081359050613995816150ba565b92915050565b6000602082840312156139b1576139b0614b7b565b5b60006139bf848285016138ef565b91505092915050565b600080604083850312156139df576139de614b7b565b5b60006139ed858286016138ef565b92505060206139fe858286016138ef565b9150509250929050565b600080600060608486031215613a2157613a20614b7b565b5b6000613a2f868287016138ef565b9350506020613a40868287016138ef565b9250506040613a5186828701613986565b9150509250925092565b60008060008060808587031215613a7557613a74614b7b565b5b6000613a83878288016138ef565b9450506020613a94878288016138ef565b9350506040613aa587828801613986565b925050606085013567ffffffffffffffff811115613ac657613ac5614b76565b5b613ad287828801613958565b91505092959194509250565b60008060408385031215613af557613af4614b7b565b5b6000613b03858286016138ef565b9250506020613b1485828601613904565b9150509250929050565b60008060408385031215613b3557613b34614b7b565b5b6000613b43858286016138ef565b9250506020613b5485828601613986565b9150509250929050565b600060208284031215613b7457613b73614b7b565b5b6000613b8284828501613919565b91505092915050565b600060208284031215613ba157613ba0614b7b565b5b6000613baf8482850161392e565b91505092915050565b600060208284031215613bce57613bcd614b7b565b5b6000613bdc84828501613943565b91505092915050565b600060208284031215613bfb57613bfa614b7b565b5b6000613c0984828501613986565b91505092915050565b60008060408385031215613c2957613c28614b7b565b5b6000613c3785828601613986565b9250506020613c4885828601613986565b9150509250929050565b60008060008060808587031215613c6c57613c6b614b7b565b5b6000613c7a87828801613986565b9450506020613c8b87828801613986565b9350506040613c9c87828801613986565b9250506060613cad87828801613986565b91505092959194509250565b6000613cc58383614157565b60208301905092915050565b613cda81614887565b82525050565b6000613ceb82614760565b613cf5818561478e565b9350613d0083614750565b8060005b83811015613d31578151613d188882613cb9565b9750613d2383614781565b925050600181019050613d04565b5085935050505092915050565b613d4781614899565b82525050565b6000613d588261476b565b613d62818561479f565b9350613d72818560208601614938565b613d7b81614b80565b840191505092915050565b613d8f81614905565b82525050565b613d9e81614917565b82525050565b6000613daf82614776565b613db981856147b0565b9350613dc9818560208601614938565b613dd281614b80565b840191505092915050565b6000613de882614776565b613df281856147c1565b9350613e02818560208601614938565b80840191505092915050565b6000613e1b602b836147b0565b9150613e2682614b91565b604082019050919050565b6000613e3e6032836147b0565b9150613e4982614be0565b604082019050919050565b6000613e616025836147b0565b9150613e6c82614c2f565b604082019050919050565b6000613e84601c836147b0565b9150613e8f82614c7e565b602082019050919050565b6000613ea76024836147b0565b9150613eb282614ca7565b604082019050919050565b6000613eca6019836147b0565b9150613ed582614cf6565b602082019050919050565b6000613eed602c836147b0565b9150613ef882614d1f565b604082019050919050565b6000613f106038836147b0565b9150613f1b82614d6e565b604082019050919050565b6000613f33602a836147b0565b9150613f3e82614dbd565b604082019050919050565b6000613f566029836147b0565b9150613f6182614e0c565b604082019050919050565b6000613f796020836147b0565b9150613f8482614e5b565b602082019050919050565b6000613f9c602c836147b0565b9150613fa782614e84565b604082019050919050565b6000613fbf602f836147b0565b9150613fca82614ed3565b604082019050919050565b6000613fe26021836147b0565b9150613fed82614f22565b604082019050919050565b60006140056031836147b0565b915061401082614f71565b604082019050919050565b60006140286031836147b0565b915061403382614fc0565b604082019050919050565b600061404b602c836147b0565b91506140568261500f565b604082019050919050565b610180820160008201516140786000850182614157565b50602082015161408b6020850182614157565b50604082015161409e6040850182614157565b5060608201516140b16060850182614157565b5060808201516140c46080850182614157565b5060a08201516140d760a0850182614157565b5060c08201516140ea60c0850182614157565b5060e08201516140fd60e0850182614157565b50610100820151614112610100850182614157565b50610120820151614127610120850182614157565b5061014082015161413c610140850182614157565b50610160820151614151610160850182614157565b50505050565b614160816148fb565b82525050565b61416f816148fb565b82525050565b614186614181826148fb565b614a17565b82525050565b60006141988285613ddd565b91506141a48284613ddd565b91508190509392505050565b60006141bc8286614175565b6020820191506141cc8285614175565b6020820191506141dc8284614175565b602082019150819050949350505050565b60006020820190506142026000830184613cd1565b92915050565b600060808201905061421d6000830187613cd1565b61422a6020830186613cd1565b6142376040830185614166565b81810360608301526142498184613d4d565b905095945050505050565b60006020820190506142696000830184613d3e565b92915050565b60006020820190506142846000830184613d86565b92915050565b600060208201905061429f6000830184613d95565b92915050565b600060208201905081810360008301526142bf8184613da4565b905092915050565b600060208201905081810360008301526142e081613e0e565b9050919050565b6000602082019050818103600083015261430081613e31565b9050919050565b6000602082019050818103600083015261432081613e54565b9050919050565b6000602082019050818103600083015261434081613e77565b9050919050565b6000602082019050818103600083015261436081613e9a565b9050919050565b6000602082019050818103600083015261438081613ebd565b9050919050565b600060208201905081810360008301526143a081613ee0565b9050919050565b600060208201905081810360008301526143c081613f03565b9050919050565b600060208201905081810360008301526143e081613f26565b9050919050565b6000602082019050818103600083015261440081613f49565b9050919050565b6000602082019050818103600083015261442081613f6c565b9050919050565b6000602082019050818103600083015261444081613f8f565b9050919050565b6000602082019050818103600083015261446081613fb2565b9050919050565b6000602082019050818103600083015261448081613fd5565b9050919050565b600060208201905081810360008301526144a081613ff8565b9050919050565b600060208201905081810360008301526144c08161401b565b9050919050565b600060208201905081810360008301526144e08161403e565b9050919050565b6000610300820190506144fd6000830185614061565b61450b610180830184614061565b9392505050565b60006020820190506145276000830184614166565b92915050565b60006040820190506145426000830185614166565b81810360208301526145548184613ce0565b90509392505050565b60006040820190506145726000830185614166565b61457f6020830184614166565b9392505050565b600060608201905061459b6000830186614166565b6145a86020830185614166565b81810360408301526145ba8184613ce0565b9050949350505050565b60006060820190506145d96000830186614166565b6145e66020830185614166565b6145f36040830184614166565b949350505050565b60006080820190506146106000830187614166565b61461d6020830186614166565b61462a6040830185614166565b6146376060830184614166565b95945050505050565b600061018082019050614656600083018f614166565b614663602083018e614166565b614670604083018d614166565b61467d606083018c614166565b61468a608083018b614166565b61469760a083018a614166565b6146a460c0830189614166565b6146b160e0830188614166565b6146bf610100830187614166565b6146cd610120830186614166565b6146db610140830185614166565b6146e9610160830184614166565b9d9c50505050505050505050505050565b6000614704614715565b9050614710828261499d565b919050565b6000604051905090565b600067ffffffffffffffff82111561473a57614739614b3d565b5b61474382614b80565b9050602081019050919050565b6000819050602082019050919050565b600081519050919050565b600081519050919050565b600081519050919050565b6000602082019050919050565b600082825260208201905092915050565b600082825260208201905092915050565b600082825260208201905092915050565b600081905092915050565b60006147d7826148fb565b91506147e2836148fb565b9250827fffffffffffffffffffffffffffffffffffffffffffffffffffffffffffffffff0382111561481757614816614a52565b5b828201905092915050565b600061482d826148fb565b9150614838836148fb565b92508261484857614847614a81565b5b828204905092915050565b600061485e826148fb565b9150614869836148fb565b92508282101561487c5761487b614a52565b5b828203905092915050565b6000614892826148db565b9050919050565b60008115159050919050565b6000819050919050565b60007fffffffff0000000000000000000000000000000000000000000000000000000082169050919050565b600073ffffffffffffffffffffffffffffffffffffffff82169050919050565b6000819050919050565b6000614910826148fb565b9050919050565b6000614922826148fb565b9050919050565b82818337600083830152505050565b60005b8381101561495657808201518184015260208101905061493b565b83811115614965576000848401525b50505050565b6000600282049050600182168061498357607f821691505b6020821081141561499757614996614ab0565b5b50919050565b6149a682614b80565b810181811067ffffffffffffffff821117156149c5576149c4614b3d565b5b80604052505050565b60006149d9826148fb565b91507fffffffffffffffffffffffffffffffffffffffffffffffffffffffffffffffff821415614a0c57614a0b614a52565b5b600182019050919050565b6000819050919050565b6000614a2c826148fb565b9150614a37836148fb565b925082614a4757614a46614a81565b5b828206905092915050565b7f4e487b7100000000000000000000000000000000000000000000000000000000600052601160045260246000fd5b7f4e487b7100000000000000000000000000000000000000000000000000000000600052601260045260246000fd5b7f4e487b7100000000000000000000000000000000000000000000000000000000600052602260045260246000fd5b7f4e487b7100000000000000000000000000000000000000000000000000000000600052603160045260246000fd5b7f4e487b7100000000000000000000000000000000000000000000000000000000600052603260045260246000fd5b7f4e487b7100000000000000000000000000000000000000000000000000000000600052604160045260246000fd5b600080fd5b600080fd5b600080fd5b600080fd5b6000601f19601f8301169050919050565b7f455243373231456e756d657261626c653a206f776e657220696e646578206f7560008201527f74206f6620626f756e6473000000000000000000000000000000000000000000602082015250565b7f4552433732313a207472616e7366657220746f206e6f6e20455243373231526560008201527f63656976657220696d706c656d656e7465720000000000000000000000000000602082015250565b7f4552433732313a207472616e736665722066726f6d20696e636f72726563742060008201527f6f776e6572000000000000000000000000000000000000000000000000000000602082015250565b7f4552433732313a20746f6b656e20616c7265616479206d696e74656400000000600082015250565b7f4552433732313a207472616e7366657220746f20746865207a65726f2061646460008201527f7265737300000000000000000000000000000000000000000000000000000000602082015250565b7f4552433732313a20617070726f766520746f2063616c6c657200000000000000600082015250565b7f4552433732313a206f70657261746f7220717565727920666f72206e6f6e657860008201527f697374656e7420746f6b656e0000000000000000000000000000000000000000602082015250565b7f4552433732313a20617070726f76652063616c6c6572206973206e6f74206f7760008201527f6e6572206e6f7220617070726f76656420666f7220616c6c0000000000000000602082015250565b7f4552433732313a2062616c616e636520717565727920666f7220746865207a6560008201527f726f206164647265737300000000000000000000000000000000000000000000602082015250565b7f4552433732313a206f776e657220717565727920666f72206e6f6e657869737460008201527f656e7420746f6b656e0000000000000000000000000000000000000000000000602082015250565b7f4552433732313a206d696e7420746f20746865207a65726f2061646472657373600082015250565b7f4552433732313a20617070726f76656420717565727920666f72206e6f6e657860008201527f697374656e7420746f6b656e0000000000000000000000000000000000000000602082015250565b7f4552433732314d657461646174613a2055524920717565727920666f72206e6f60008201527f6e6578697374656e7420746f6b656e0000000000000000000000000000000000602082015250565b7f4552433732313a20617070726f76616c20746f2063757272656e74206f776e6560008201527f7200000000000000000000000000000000000000000000000000000000000000602082015250565b7f4552433732313a207472616e736665722063616c6c6572206973206e6f74206f60008201527f776e6572206e6f7220617070726f766564000000000000000000000000000000602082015250565b7f4f6e6c792076616c696420646578206e756d626572732e204d7573742062652060008201527f6265747765656e203120616e6420363439000000000000000000000000000000602082015250565b7f455243373231456e756d657261626c653a20676c6f62616c20696e646578206f60008201527f7574206f6620626f756e64730000000000000000000000000000000000000000602082015250565b61506781614887565b811461507257600080fd5b50565b61507e81614899565b811461508957600080fd5b50565b615095816148a5565b81146150a057600080fd5b50565b6150ac816148af565b81146150b757600080fd5b50565b6150c3816148fb565b81146150ce57600080fd5b5056fea2646970667358221220fa9cd544675c181909dd9f62947c8aa8500b29489b2290e929d75ab051f536eb64736f6c63430008070033",
      "opcodes": "PUSH1 0x80 PUSH1 0x40 MSTORE PUSH32 0x2CECA6B6D4D9F6B0DA9A08F01B328FC06539267740FE1E14526FBBA7F78E0C9 PUSH1 0xB SSTORE PUSH1 0x0 PUSH1 0xC SSTORE PUSH1 0x0 PUSH1 0xD SSTORE CALLVALUE DUP1 ISZERO PUSH3 0x3F JUMPI PUSH1 0x0 DUP1 REVERT JUMPDEST POP PUSH1 0x40 MLOAD DUP1 PUSH1 0x40 ADD PUSH1 0x40 MSTORE DUP1 PUSH1 0xA DUP2 MSTORE PUSH1 0x20 ADD PUSH32 0x506F6B656D6F6E4E465400000000000000000000000000000000000000000000 DUP2 MSTORE POP PUSH1 0x40 MLOAD DUP1 PUSH1 0x40 ADD PUSH1 0x40 MSTORE DUP1 PUSH1 0x4 DUP2 MSTORE PUSH1 0x20 ADD PUSH32 0x504B4D4E00000000000000000000000000000000000000000000000000000000 DUP2 MSTORE POP DUP2 PUSH1 0x0 SWAP1 DUP1 MLOAD SWAP1 PUSH1 0x20 ADD SWAP1 PUSH3 0xC4 SWAP3 SWAP2 SWAP1 PUSH3 0x13B JUMP JUMPDEST POP DUP1 PUSH1 0x1 SWAP1 DUP1 MLOAD SWAP1 PUSH1 0x20 ADD SWAP1 PUSH3 0xDD SWAP3 SWAP2 SWAP1 PUSH3 0x13B JUMP JUMPDEST POP POP POP PUSH20 0xDE29D060D45901FB19ED6C6E959EB22D8626708E PUSH1 0xA PUSH1 0x0 PUSH2 0x100 EXP DUP2 SLOAD DUP2 PUSH20 0xFFFFFFFFFFFFFFFFFFFFFFFFFFFFFFFFFFFFFFFF MUL NOT AND SWAP1 DUP4 PUSH20 0xFFFFFFFFFFFFFFFFFFFFFFFFFFFFFFFFFFFFFFFF AND MUL OR SWAP1 SSTORE POP PUSH3 0x250 JUMP JUMPDEST DUP3 DUP1 SLOAD PUSH3 0x149 SWAP1 PUSH3 0x1EB JUMP JUMPDEST SWAP1 PUSH1 0x0 MSTORE PUSH1 0x20 PUSH1 0x0 KECCAK256 SWAP1 PUSH1 0x1F ADD PUSH1 0x20 SWAP1 DIV DUP2 ADD SWAP3 DUP3 PUSH3 0x16D JUMPI PUSH1 0x0 DUP6 SSTORE PUSH3 0x1B9 JUMP JUMPDEST DUP3 PUSH1 0x1F LT PUSH3 0x188 JUMPI DUP1 MLOAD PUSH1 0xFF NOT AND DUP4 DUP1 ADD OR DUP6 SSTORE PUSH3 0x1B9 JUMP JUMPDEST DUP3 DUP1 ADD PUSH1 0x1 ADD DUP6 SSTORE DUP3 ISZERO PUSH3 0x1B9 JUMPI SWAP2 DUP3 ADD JUMPDEST DUP3 DUP2 GT ISZERO PUSH3 0x1B8 JUMPI DUP3 MLOAD DUP3 SSTORE SWAP2 PUSH1 0x20 ADD SWAP2 SWAP1 PUSH1 0x1 ADD SWAP1 PUSH3 0x19B JUMP JUMPDEST JUMPDEST POP SWAP1 POP PUSH3 0x1C8 SWAP2 SWAP1 PUSH3 0x1CC JUMP JUMPDEST POP SWAP1 JUMP JUMPDEST JUMPDEST DUP1 DUP3 GT ISZERO PUSH3 0x1E7 JUMPI PUSH1 0x0 DUP2 PUSH1 0x0 SWAP1 SSTORE POP PUSH1 0x1 ADD PUSH3 0x1CD JUMP JUMPDEST POP SWAP1 JUMP JUMPDEST PUSH1 0x0 PUSH1 0x2 DUP3 DIV SWAP1 POP PUSH1 0x1 DUP3 AND DUP1 PUSH3 0x204 JUMPI PUSH1 0x7F DUP3 AND SWAP2 POP JUMPDEST PUSH1 0x20 DUP3 LT DUP2 EQ ISZERO PUSH3 0x21B JUMPI PUSH3 0x21A PUSH3 0x221 JUMP JUMPDEST JUMPDEST POP SWAP2 SWAP1 POP JUMP JUMPDEST PUSH32 0x4E487B7100000000000000000000000000000000000000000000000000000000 PUSH1 0x0 MSTORE PUSH1 0x22 PUSH1 0x4 MSTORE PUSH1 0x24 PUSH1 0x0 REVERT JUMPDEST PUSH2 0x5107 DUP1 PUSH3 0x260 PUSH1 0x0 CODECOPY PUSH1 0x0 RETURN INVALID PUSH1 0x80 PUSH1 0x40 MSTORE PUSH1 0x4 CALLDATASIZE LT PUSH2 0x140 JUMPI PUSH1 0x0 CALLDATALOAD PUSH1 0xE0 SHR DUP1 PUSH4 0x6352211E GT PUSH2 0xB6 JUMPI DUP1 PUSH4 0xA22CB465 GT PUSH2 0x6F JUMPI DUP1 PUSH4 0xA22CB465 EQ PUSH2 0x4A3 JUMPI DUP1 PUSH4 0xB88D4FDE EQ PUSH2 0x4CC JUMPI DUP1 PUSH4 0xC87B56DD EQ PUSH2 0x4F5 JUMPI DUP1 PUSH4 0xD5F39A5B EQ PUSH2 0x532 JUMPI DUP1 PUSH4 0xD82FE3B7 EQ PUSH2 0x56F JUMPI DUP1 PUSH4 0xE985E9C5 EQ PUSH2 0x5B7 JUMPI PUSH2 0x140 JUMP JUMPDEST DUP1 PUSH4 0x6352211E EQ PUSH2 0x371 JUMPI DUP1 PUSH4 0x70A08231 EQ PUSH2 0x3AE JUMPI DUP1 PUSH4 0x85831079 EQ PUSH2 0x3EB JUMPI DUP1 PUSH4 0x85B1C79D EQ PUSH2 0x433 JUMPI DUP1 PUSH4 0x95D89B41 EQ PUSH2 0x44F JUMPI DUP1 PUSH4 0xA0712D68 EQ PUSH2 0x47A JUMPI PUSH2 0x140 JUMP JUMPDEST DUP1 PUSH4 0x1992F36D GT PUSH2 0x108 JUMPI DUP1 PUSH4 0x1992F36D EQ PUSH2 0x23E JUMPI DUP1 PUSH4 0x23B872DD EQ PUSH2 0x27C JUMPI DUP1 PUSH4 0x2F745C59 EQ PUSH2 0x2A5 JUMPI DUP1 PUSH4 0x42842E0E EQ PUSH2 0x2E2 JUMPI DUP1 PUSH4 0x4C64C94D EQ PUSH2 0x30B JUMPI DUP1 PUSH4 0x4F6CCCE7 EQ PUSH2 0x334 JUMPI PUSH2 0x140 JUMP JUMPDEST DUP1 PUSH4 0x1FFC9A7 EQ PUSH2 0x145 JUMPI DUP1 PUSH4 0x6FDDE03 EQ PUSH2 0x182 JUMPI DUP1 PUSH4 0x81812FC EQ PUSH2 0x1AD JUMPI DUP1 PUSH4 0x95EA7B3 EQ PUSH2 0x1EA JUMPI DUP1 PUSH4 0x18160DDD EQ PUSH2 0x213 JUMPI JUMPDEST PUSH1 0x0 DUP1 REVERT JUMPDEST CALLVALUE DUP1 ISZERO PUSH2 0x151 JUMPI PUSH1 0x0 DUP1 REVERT JUMPDEST POP PUSH2 0x16C PUSH1 0x4 DUP1 CALLDATASIZE SUB DUP2 ADD SWAP1 PUSH2 0x167 SWAP2 SWAP1 PUSH2 0x3B8B JUMP JUMPDEST PUSH2 0x5F4 JUMP JUMPDEST PUSH1 0x40 MLOAD PUSH2 0x179 SWAP2 SWAP1 PUSH2 0x4254 JUMP JUMPDEST PUSH1 0x40 MLOAD DUP1 SWAP2 SUB SWAP1 RETURN JUMPDEST CALLVALUE DUP1 ISZERO PUSH2 0x18E JUMPI PUSH1 0x0 DUP1 REVERT JUMPDEST POP PUSH2 0x197 PUSH2 0x606 JUMP JUMPDEST PUSH1 0x40 MLOAD PUSH2 0x1A4 SWAP2 SWAP1 PUSH2 0x42A5 JUMP JUMPDEST PUSH1 0x40 MLOAD DUP1 SWAP2 SUB SWAP1 RETURN JUMPDEST CALLVALUE DUP1 ISZERO PUSH2 0x1B9 JUMPI PUSH1 0x0 DUP1 REVERT JUMPDEST POP PUSH2 0x1D4 PUSH1 0x4 DUP1 CALLDATASIZE SUB DUP2 ADD SWAP1 PUSH2 0x1CF SWAP2 SWAP1 PUSH2 0x3BE5 JUMP JUMPDEST PUSH2 0x698 JUMP JUMPDEST PUSH1 0x40 MLOAD PUSH2 0x1E1 SWAP2 SWAP1 PUSH2 0x41ED JUMP JUMPDEST PUSH1 0x40 MLOAD DUP1 SWAP2 SUB SWAP1 RETURN JUMPDEST CALLVALUE DUP1 ISZERO PUSH2 0x1F6 JUMPI PUSH1 0x0 DUP1 REVERT JUMPDEST POP PUSH2 0x211 PUSH1 0x4 DUP1 CALLDATASIZE SUB DUP2 ADD SWAP1 PUSH2 0x20C SWAP2 SWAP1 PUSH2 0x3B1E JUMP JUMPDEST PUSH2 0x71D JUMP JUMPDEST STOP JUMPDEST CALLVALUE DUP1 ISZERO PUSH2 0x21F JUMPI PUSH1 0x0 DUP1 REVERT JUMPDEST POP PUSH2 0x228 PUSH2 0x835 JUMP JUMPDEST PUSH1 0x40 MLOAD PUSH2 0x235 SWAP2 SWAP1 PUSH2 0x4512 JUMP JUMPDEST PUSH1 0x40 MLOAD DUP1 SWAP2 SUB SWAP1 RETURN JUMPDEST CALLVALUE DUP1 ISZERO PUSH2 0x24A JUMPI PUSH1 0x0 DUP1 REVERT JUMPDEST POP PUSH2 0x265 PUSH1 0x4 DUP1 CALLDATASIZE SUB DUP2 ADD SWAP1 PUSH2 0x260 SWAP2 SWAP1 PUSH2 0x3BE5 JUMP JUMPDEST PUSH2 0x842 JUMP JUMPDEST PUSH1 0x40 MLOAD PUSH2 0x273 SWAP3 SWAP2 SWAP1 PUSH2 0x44E7 JUMP JUMPDEST PUSH1 0x40 MLOAD DUP1 SWAP2 SUB SWAP1 RETURN JUMPDEST CALLVALUE DUP1 ISZERO PUSH2 0x288 JUMPI PUSH1 0x0 DUP1 REVERT JUMPDEST POP PUSH2 0x2A3 PUSH1 0x4 DUP1 CALLDATASIZE SUB DUP2 ADD SWAP1 PUSH2 0x29E SWAP2 SWAP1 PUSH2 0x3A08 JUMP JUMPDEST PUSH2 0x96C JUMP JUMPDEST STOP JUMPDEST CALLVALUE DUP1 ISZERO PUSH2 0x2B1 JUMPI PUSH1 0x0 DUP1 REVERT JUMPDEST POP PUSH2 0x2CC PUSH1 0x4 DUP1 CALLDATASIZE SUB DUP2 ADD SWAP1 PUSH2 0x2C7 SWAP2 SWAP1 PUSH2 0x3B1E JUMP JUMPDEST PUSH2 0x9CC JUMP JUMPDEST PUSH1 0x40 MLOAD PUSH2 0x2D9 SWAP2 SWAP1 PUSH2 0x4512 JUMP JUMPDEST PUSH1 0x40 MLOAD DUP1 SWAP2 SUB SWAP1 RETURN JUMPDEST CALLVALUE DUP1 ISZERO PUSH2 0x2EE JUMPI PUSH1 0x0 DUP1 REVERT JUMPDEST POP PUSH2 0x309 PUSH1 0x4 DUP1 CALLDATASIZE SUB DUP2 ADD SWAP1 PUSH2 0x304 SWAP2 SWAP1 PUSH2 0x3A08 JUMP JUMPDEST PUSH2 0xA71 JUMP JUMPDEST STOP JUMPDEST CALLVALUE DUP1 ISZERO PUSH2 0x317 JUMPI PUSH1 0x0 DUP1 REVERT JUMPDEST POP PUSH2 0x332 PUSH1 0x4 DUP1 CALLDATASIZE SUB DUP2 ADD SWAP1 PUSH2 0x32D SWAP2 SWAP1 PUSH2 0x3C52 JUMP JUMPDEST PUSH2 0xA91 JUMP JUMPDEST STOP JUMPDEST CALLVALUE DUP1 ISZERO PUSH2 0x340 JUMPI PUSH1 0x0 DUP1 REVERT JUMPDEST POP PUSH2 0x35B PUSH1 0x4 DUP1 CALLDATASIZE SUB DUP2 ADD SWAP1 PUSH2 0x356 SWAP2 SWAP1 PUSH2 0x3BE5 JUMP JUMPDEST PUSH2 0xDC5 JUMP JUMPDEST PUSH1 0x40 MLOAD PUSH2 0x368 SWAP2 SWAP1 PUSH2 0x4512 JUMP JUMPDEST PUSH1 0x40 MLOAD DUP1 SWAP2 SUB SWAP1 RETURN JUMPDEST CALLVALUE DUP1 ISZERO PUSH2 0x37D JUMPI PUSH1 0x0 DUP1 REVERT JUMPDEST POP PUSH2 0x398 PUSH1 0x4 DUP1 CALLDATASIZE SUB DUP2 ADD SWAP1 PUSH2 0x393 SWAP2 SWAP1 PUSH2 0x3BE5 JUMP JUMPDEST PUSH2 0xE36 JUMP JUMPDEST PUSH1 0x40 MLOAD PUSH2 0x3A5 SWAP2 SWAP1 PUSH2 0x41ED JUMP JUMPDEST PUSH1 0x40 MLOAD DUP1 SWAP2 SUB SWAP1 RETURN JUMPDEST CALLVALUE DUP1 ISZERO PUSH2 0x3BA JUMPI PUSH1 0x0 DUP1 REVERT JUMPDEST POP PUSH2 0x3D5 PUSH1 0x4 DUP1 CALLDATASIZE SUB DUP2 ADD SWAP1 PUSH2 0x3D0 SWAP2 SWAP1 PUSH2 0x399B JUMP JUMPDEST PUSH2 0xEE8 JUMP JUMPDEST PUSH1 0x40 MLOAD PUSH2 0x3E2 SWAP2 SWAP1 PUSH2 0x4512 JUMP JUMPDEST PUSH1 0x40 MLOAD DUP1 SWAP2 SUB SWAP1 RETURN JUMPDEST CALLVALUE DUP1 ISZERO PUSH2 0x3F7 JUMPI PUSH1 0x0 DUP1 REVERT JUMPDEST POP PUSH2 0x412 PUSH1 0x4 DUP1 CALLDATASIZE SUB DUP2 ADD SWAP1 PUSH2 0x40D SWAP2 SWAP1 PUSH2 0x3BE5 JUMP JUMPDEST PUSH2 0xFA0 JUMP JUMPDEST PUSH1 0x40 MLOAD PUSH2 0x42A SWAP13 SWAP12 SWAP11 SWAP10 SWAP9 SWAP8 SWAP7 SWAP6 SWAP5 SWAP4 SWAP3 SWAP2 SWAP1 PUSH2 0x4640 JUMP JUMPDEST PUSH1 0x40 MLOAD DUP1 SWAP2 SUB SWAP1 RETURN JUMPDEST PUSH2 0x44D PUSH1 0x4 DUP1 CALLDATASIZE SUB DUP2 ADD SWAP1 PUSH2 0x448 SWAP2 SWAP1 PUSH2 0x3C12 JUMP JUMPDEST PUSH2 0x1010 JUMP JUMPDEST STOP JUMPDEST CALLVALUE DUP1 ISZERO PUSH2 0x45B JUMPI PUSH1 0x0 DUP1 REVERT JUMPDEST POP PUSH2 0x464 PUSH2 0x1885 JUMP JUMPDEST PUSH1 0x40 MLOAD PUSH2 0x471 SWAP2 SWAP1 PUSH2 0x42A5 JUMP JUMPDEST PUSH1 0x40 MLOAD DUP1 SWAP2 SUB SWAP1 RETURN JUMPDEST CALLVALUE DUP1 ISZERO PUSH2 0x486 JUMPI PUSH1 0x0 DUP1 REVERT JUMPDEST POP PUSH2 0x4A1 PUSH1 0x4 DUP1 CALLDATASIZE SUB DUP2 ADD SWAP1 PUSH2 0x49C SWAP2 SWAP1 PUSH2 0x3BE5 JUMP JUMPDEST PUSH2 0x1917 JUMP JUMPDEST STOP JUMPDEST CALLVALUE DUP1 ISZERO PUSH2 0x4AF JUMPI PUSH1 0x0 DUP1 REVERT JUMPDEST POP PUSH2 0x4CA PUSH1 0x4 DUP1 CALLDATASIZE SUB DUP2 ADD SWAP1 PUSH2 0x4C5 SWAP2 SWAP1 PUSH2 0x3ADE JUMP JUMPDEST PUSH2 0x1A38 JUMP JUMPDEST STOP JUMPDEST CALLVALUE DUP1 ISZERO PUSH2 0x4D8 JUMPI PUSH1 0x0 DUP1 REVERT JUMPDEST POP PUSH2 0x4F3 PUSH1 0x4 DUP1 CALLDATASIZE SUB DUP2 ADD SWAP1 PUSH2 0x4EE SWAP2 SWAP1 PUSH2 0x3A5B JUMP JUMPDEST PUSH2 0x1A4E JUMP JUMPDEST STOP JUMPDEST CALLVALUE DUP1 ISZERO PUSH2 0x501 JUMPI PUSH1 0x0 DUP1 REVERT JUMPDEST POP PUSH2 0x51C PUSH1 0x4 DUP1 CALLDATASIZE SUB DUP2 ADD SWAP1 PUSH2 0x517 SWAP2 SWAP1 PUSH2 0x3BE5 JUMP JUMPDEST PUSH2 0x1AB0 JUMP JUMPDEST PUSH1 0x40 MLOAD PUSH2 0x529 SWAP2 SWAP1 PUSH2 0x42A5 JUMP JUMPDEST PUSH1 0x40 MLOAD DUP1 SWAP2 SUB SWAP1 RETURN JUMPDEST CALLVALUE DUP1 ISZERO PUSH2 0x53E JUMPI PUSH1 0x0 DUP1 REVERT JUMPDEST POP PUSH2 0x559 PUSH1 0x4 DUP1 CALLDATASIZE SUB DUP2 ADD SWAP1 PUSH2 0x554 SWAP2 SWAP1 PUSH2 0x3BE5 JUMP JUMPDEST PUSH2 0x1B57 JUMP JUMPDEST PUSH1 0x40 MLOAD PUSH2 0x566 SWAP2 SWAP1 PUSH2 0x4512 JUMP JUMPDEST PUSH1 0x40 MLOAD DUP1 SWAP2 SUB SWAP1 RETURN JUMPDEST CALLVALUE DUP1 ISZERO PUSH2 0x57B JUMPI PUSH1 0x0 DUP1 REVERT JUMPDEST POP PUSH2 0x596 PUSH1 0x4 DUP1 CALLDATASIZE SUB DUP2 ADD SWAP1 PUSH2 0x591 SWAP2 SWAP1 PUSH2 0x3BE5 JUMP JUMPDEST PUSH2 0x1B6F JUMP JUMPDEST PUSH1 0x40 MLOAD PUSH2 0x5AE SWAP13 SWAP12 SWAP11 SWAP10 SWAP9 SWAP8 SWAP7 SWAP6 SWAP5 SWAP4 SWAP3 SWAP2 SWAP1 PUSH2 0x4640 JUMP JUMPDEST PUSH1 0x40 MLOAD DUP1 SWAP2 SUB SWAP1 RETURN JUMPDEST CALLVALUE DUP1 ISZERO PUSH2 0x5C3 JUMPI PUSH1 0x0 DUP1 REVERT JUMPDEST POP PUSH2 0x5DE PUSH1 0x4 DUP1 CALLDATASIZE SUB DUP2 ADD SWAP1 PUSH2 0x5D9 SWAP2 SWAP1 PUSH2 0x39C8 JUMP JUMPDEST PUSH2 0x1BCF JUMP JUMPDEST PUSH1 0x40 MLOAD PUSH2 0x5EB SWAP2 SWAP1 PUSH2 0x4254 JUMP JUMPDEST PUSH1 0x40 MLOAD DUP1 SWAP2 SUB SWAP1 RETURN JUMPDEST PUSH1 0x0 PUSH2 0x5FF DUP3 PUSH2 0x1C63 JUMP JUMPDEST SWAP1 POP SWAP2 SWAP1 POP JUMP JUMPDEST PUSH1 0x60 PUSH1 0x0 DUP1 SLOAD PUSH2 0x615 SWAP1 PUSH2 0x496B JUMP JUMPDEST DUP1 PUSH1 0x1F ADD PUSH1 0x20 DUP1 SWAP2 DIV MUL PUSH1 0x20 ADD PUSH1 0x40 MLOAD SWAP1 DUP2 ADD PUSH1 0x40 MSTORE DUP1 SWAP3 SWAP2 SWAP1 DUP2 DUP2 MSTORE PUSH1 0x20 ADD DUP3 DUP1 SLOAD PUSH2 0x641 SWAP1 PUSH2 0x496B JUMP JUMPDEST DUP1 ISZERO PUSH2 0x68E JUMPI DUP1 PUSH1 0x1F LT PUSH2 0x663 JUMPI PUSH2 0x100 DUP1 DUP4 SLOAD DIV MUL DUP4 MSTORE SWAP2 PUSH1 0x20 ADD SWAP2 PUSH2 0x68E JUMP JUMPDEST DUP3 ADD SWAP2 SWAP1 PUSH1 0x0 MSTORE PUSH1 0x20 PUSH1 0x0 KECCAK256 SWAP1 JUMPDEST DUP2 SLOAD DUP2 MSTORE SWAP1 PUSH1 0x1 ADD SWAP1 PUSH1 0x20 ADD DUP1 DUP4 GT PUSH2 0x671 JUMPI DUP3 SWAP1 SUB PUSH1 0x1F AND DUP3 ADD SWAP2 JUMPDEST POP POP POP POP POP SWAP1 POP SWAP1 JUMP JUMPDEST PUSH1 0x0 PUSH2 0x6A3 DUP3 PUSH2 0x1CDD JUMP JUMPDEST PUSH2 0x6E2 JUMPI PUSH1 0x40 MLOAD PUSH32 0x8C379A000000000000000000000000000000000000000000000000000000000 DUP2 MSTORE PUSH1 0x4 ADD PUSH2 0x6D9 SWAP1 PUSH2 0x4427 JUMP JUMPDEST PUSH1 0x40 MLOAD DUP1 SWAP2 SUB SWAP1 REVERT JUMPDEST PUSH1 0x4 PUSH1 0x0 DUP4 DUP2 MSTORE PUSH1 0x20 ADD SWAP1 DUP2 MSTORE PUSH1 0x20 ADD PUSH1 0x0 KECCAK256 PUSH1 0x0 SWAP1 SLOAD SWAP1 PUSH2 0x100 EXP SWAP1 DIV PUSH20 0xFFFFFFFFFFFFFFFFFFFFFFFFFFFFFFFFFFFFFFFF AND SWAP1 POP SWAP2 SWAP1 POP JUMP JUMPDEST PUSH1 0x0 PUSH2 0x728 DUP3 PUSH2 0xE36 JUMP JUMPDEST SWAP1 POP DUP1 PUSH20 0xFFFFFFFFFFFFFFFFFFFFFFFFFFFFFFFFFFFFFFFF AND DUP4 PUSH20 0xFFFFFFFFFFFFFFFFFFFFFFFFFFFFFFFFFFFFFFFF AND EQ ISZERO PUSH2 0x799 JUMPI PUSH1 0x40 MLOAD PUSH32 0x8C379A000000000000000000000000000000000000000000000000000000000 DUP2 MSTORE PUSH1 0x4 ADD PUSH2 0x790 SWAP1 PUSH2 0x4467 JUMP JUMPDEST PUSH1 0x40 MLOAD DUP1 SWAP2 SUB SWAP1 REVERT JUMPDEST DUP1 PUSH20 0xFFFFFFFFFFFFFFFFFFFFFFFFFFFFFFFFFFFFFFFF AND PUSH2 0x7B8 PUSH2 0x1D49 JUMP JUMPDEST PUSH20 0xFFFFFFFFFFFFFFFFFFFFFFFFFFFFFFFFFFFFFFFF AND EQ DUP1 PUSH2 0x7E7 JUMPI POP PUSH2 0x7E6 DUP2 PUSH2 0x7E1 PUSH2 0x1D49 JUMP JUMPDEST PUSH2 0x1BCF JUMP JUMPDEST JUMPDEST PUSH2 0x826 JUMPI PUSH1 0x40 MLOAD PUSH32 0x8C379A000000000000000000000000000000000000000000000000000000000 DUP2 MSTORE PUSH1 0x4 ADD PUSH2 0x81D SWAP1 PUSH2 0x43A7 JUMP JUMPDEST PUSH1 0x40 MLOAD DUP1 SWAP2 SUB SWAP1 REVERT JUMPDEST PUSH2 0x830 DUP4 DUP4 PUSH2 0x1D51 JUMP JUMPDEST POP POP POP JUMP JUMPDEST PUSH1 0x0 PUSH1 0x8 DUP1 SLOAD SWAP1 POP SWAP1 POP SWAP1 JUMP JUMPDEST PUSH1 0x10 PUSH1 0x20 MSTORE DUP1 PUSH1 0x0 MSTORE PUSH1 0x40 PUSH1 0x0 KECCAK256 PUSH1 0x0 SWAP2 POP SWAP1 POP DUP1 PUSH1 0x0 ADD PUSH1 0x40 MLOAD DUP1 PUSH2 0x180 ADD PUSH1 0x40 MSTORE SWAP1 DUP2 PUSH1 0x0 DUP3 ADD SLOAD DUP2 MSTORE PUSH1 0x20 ADD PUSH1 0x1 DUP3 ADD SLOAD DUP2 MSTORE PUSH1 0x20 ADD PUSH1 0x2 DUP3 ADD SLOAD DUP2 MSTORE PUSH1 0x20 ADD PUSH1 0x3 DUP3 ADD SLOAD DUP2 MSTORE PUSH1 0x20 ADD PUSH1 0x4 DUP3 ADD SLOAD DUP2 MSTORE PUSH1 0x20 ADD PUSH1 0x5 DUP3 ADD SLOAD DUP2 MSTORE PUSH1 0x20 ADD PUSH1 0x6 DUP3 ADD SLOAD DUP2 MSTORE PUSH1 0x20 ADD PUSH1 0x7 DUP3 ADD SLOAD DUP2 MSTORE PUSH1 0x20 ADD PUSH1 0x8 DUP3 ADD SLOAD DUP2 MSTORE PUSH1 0x20 ADD PUSH1 0x9 DUP3 ADD SLOAD DUP2 MSTORE PUSH1 0x20 ADD PUSH1 0xA DUP3 ADD SLOAD DUP2 MSTORE PUSH1 0x20 ADD PUSH1 0xB DUP3 ADD SLOAD DUP2 MSTORE POP POP SWAP1 DUP1 PUSH1 0xC ADD PUSH1 0x40 MLOAD DUP1 PUSH2 0x180 ADD PUSH1 0x40 MSTORE SWAP1 DUP2 PUSH1 0x0 DUP3 ADD SLOAD DUP2 MSTORE PUSH1 0x20 ADD PUSH1 0x1 DUP3 ADD SLOAD DUP2 MSTORE PUSH1 0x20 ADD PUSH1 0x2 DUP3 ADD SLOAD DUP2 MSTORE PUSH1 0x20 ADD PUSH1 0x3 DUP3 ADD SLOAD DUP2 MSTORE PUSH1 0x20 ADD PUSH1 0x4 DUP3 ADD SLOAD DUP2 MSTORE PUSH1 0x20 ADD PUSH1 0x5 DUP3 ADD SLOAD DUP2 MSTORE PUSH1 0x20 ADD PUSH1 0x6 DUP3 ADD SLOAD DUP2 MSTORE PUSH1 0x20 ADD PUSH1 0x7 DUP3 ADD SLOAD DUP2 MSTORE PUSH1 0x20 ADD PUSH1 0x8 DUP3 ADD SLOAD DUP2 MSTORE PUSH1 0x20 ADD PUSH1 0x9 DUP3 ADD SLOAD DUP2 MSTORE PUSH1 0x20 ADD PUSH1 0xA DUP3 ADD SLOAD DUP2 MSTORE PUSH1 0x20 ADD PUSH1 0xB DUP3 ADD SLOAD DUP2 MSTORE POP POP SWAP1 POP DUP3 JUMP JUMPDEST PUSH2 0x97D PUSH2 0x977 PUSH2 0x1D49 JUMP JUMPDEST DUP3 PUSH2 0x1E0A JUMP JUMPDEST PUSH2 0x9BC JUMPI PUSH1 0x40 MLOAD PUSH32 0x8C379A000000000000000000000000000000000000000000000000000000000 DUP2 MSTORE PUSH1 0x4 ADD PUSH2 0x9B3 SWAP1 PUSH2 0x4487 JUMP JUMPDEST PUSH1 0x40 MLOAD DUP1 SWAP2 SUB SWAP1 REVERT JUMPDEST PUSH2 0x9C7 DUP4 DUP4 DUP4 PUSH2 0x1EE8 JUMP JUMPDEST POP POP POP JUMP JUMPDEST PUSH1 0x0 PUSH2 0x9D7 DUP4 PUSH2 0xEE8 JUMP JUMPDEST DUP3 LT PUSH2 0xA18 JUMPI PUSH1 0x40 MLOAD PUSH32 0x8C379A000000000000000000000000000000000000000000000000000000000 DUP2 MSTORE PUSH1 0x4 ADD PUSH2 0xA0F SWAP1 PUSH2 0x42C7 JUMP JUMPDEST PUSH1 0x40 MLOAD DUP1 SWAP2 SUB SWAP1 REVERT JUMPDEST PUSH1 0x6 PUSH1 0x0 DUP5 PUSH20 0xFFFFFFFFFFFFFFFFFFFFFFFFFFFFFFFFFFFFFFFF AND PUSH20 0xFFFFFFFFFFFFFFFFFFFFFFFFFFFFFFFFFFFFFFFF AND DUP2 MSTORE PUSH1 0x20 ADD SWAP1 DUP2 MSTORE PUSH1 0x20 ADD PUSH1 0x0 KECCAK256 PUSH1 0x0 DUP4 DUP2 MSTORE PUSH1 0x20 ADD SWAP1 DUP2 MSTORE PUSH1 0x20 ADD PUSH1 0x0 KECCAK256 SLOAD SWAP1 POP SWAP3 SWAP2 POP POP JUMP JUMPDEST PUSH2 0xA8C DUP4 DUP4 DUP4 PUSH1 0x40 MLOAD DUP1 PUSH1 0x20 ADD PUSH1 0x40 MSTORE DUP1 PUSH1 0x0 DUP2 MSTORE POP PUSH2 0x1A4E JUMP JUMPDEST POP POP POP JUMP JUMPDEST PUSH32 0xED9918E573B159B62731BC88263B9CE84E79C6335FBBA2B28F981840126E16F PUSH2 0x2B67 PUSH1 0x40 MLOAD PUSH2 0xAC2 SWAP2 SWAP1 PUSH2 0x426F JUMP JUMPDEST PUSH1 0x40 MLOAD DUP1 SWAP2 SUB SWAP1 LOG1 PUSH1 0x0 PUSH1 0x4 PUSH8 0xFFFFFFFFFFFFFFFF DUP2 GT ISZERO PUSH2 0xAE7 JUMPI PUSH2 0xAE6 PUSH2 0x4B3D JUMP JUMPDEST JUMPDEST PUSH1 0x40 MLOAD SWAP1 DUP1 DUP3 MSTORE DUP1 PUSH1 0x20 MUL PUSH1 0x20 ADD DUP3 ADD PUSH1 0x40 MSTORE DUP1 ISZERO PUSH2 0xB15 JUMPI DUP2 PUSH1 0x20 ADD PUSH1 0x20 DUP3 MUL DUP1 CALLDATASIZE DUP4 CALLDATACOPY DUP1 DUP3 ADD SWAP2 POP POP SWAP1 POP JUMPDEST POP SWAP1 POP DUP5 DUP2 PUSH1 0x0 DUP2 MLOAD DUP2 LT PUSH2 0xB2D JUMPI PUSH2 0xB2C PUSH2 0x4B0E JUMP JUMPDEST JUMPDEST PUSH1 0x20 MUL PUSH1 0x20 ADD ADD DUP2 DUP2 MSTORE POP POP DUP4 DUP2 PUSH1 0x1 DUP2 MLOAD DUP2 LT PUSH2 0xB4E JUMPI PUSH2 0xB4D PUSH2 0x4B0E JUMP JUMPDEST JUMPDEST PUSH1 0x20 MUL PUSH1 0x20 ADD ADD DUP2 DUP2 MSTORE POP POP DUP3 DUP2 PUSH1 0x2 DUP2 MLOAD DUP2 LT PUSH2 0xB6F JUMPI PUSH2 0xB6E PUSH2 0x4B0E JUMP JUMPDEST JUMPDEST PUSH1 0x20 MUL PUSH1 0x20 ADD ADD DUP2 DUP2 MSTORE POP POP DUP2 DUP2 PUSH1 0x3 DUP2 MLOAD DUP2 LT PUSH2 0xB90 JUMPI PUSH2 0xB8F PUSH2 0x4B0E JUMP JUMPDEST JUMPDEST PUSH1 0x20 MUL PUSH1 0x20 ADD ADD DUP2 DUP2 MSTORE POP POP PUSH1 0xA PUSH1 0x0 SWAP1 SLOAD SWAP1 PUSH2 0x100 EXP SWAP1 DIV PUSH20 0xFFFFFFFFFFFFFFFFFFFFFFFFFFFFFFFFFFFFFFFF AND PUSH20 0xFFFFFFFFFFFFFFFFFFFFFFFFFFFFFFFFFFFFFFFF AND PUSH4 0x2C9DD5C0 PUSH1 0xB SLOAD DUP4 PUSH1 0x40 MLOAD DUP4 PUSH4 0xFFFFFFFF AND PUSH1 0xE0 SHL DUP2 MSTORE PUSH1 0x4 ADD PUSH2 0xBFB SWAP3 SWAP2 SWAP1 PUSH2 0x452D JUMP JUMPDEST PUSH1 0x20 PUSH1 0x40 MLOAD DUP1 DUP4 SUB DUP2 PUSH1 0x0 DUP8 DUP1 EXTCODESIZE ISZERO DUP1 ISZERO PUSH2 0xC15 JUMPI PUSH1 0x0 DUP1 REVERT JUMPDEST POP GAS CALL ISZERO DUP1 ISZERO PUSH2 0xC29 JUMPI RETURNDATASIZE PUSH1 0x0 DUP1 RETURNDATACOPY RETURNDATASIZE PUSH1 0x0 REVERT JUMPDEST POP POP POP POP PUSH1 0x40 MLOAD RETURNDATASIZE PUSH1 0x1F NOT PUSH1 0x1F DUP3 ADD AND DUP3 ADD DUP1 PUSH1 0x40 MSTORE POP DUP2 ADD SWAP1 PUSH2 0xC4D SWAP2 SWAP1 PUSH2 0x3B5E JUMP JUMPDEST POP PUSH1 0xE DUP6 DUP2 SLOAD DUP2 LT PUSH2 0xC62 JUMPI PUSH2 0xC61 PUSH2 0x4B0E JUMP JUMPDEST JUMPDEST SWAP1 PUSH1 0x0 MSTORE PUSH1 0x20 PUSH1 0x0 KECCAK256 SWAP1 PUSH1 0xC MUL ADD PUSH1 0xF PUSH1 0x0 DUP7 DUP2 MSTORE PUSH1 0x20 ADD SWAP1 DUP2 MSTORE PUSH1 0x20 ADD PUSH1 0x0 KECCAK256 PUSH1 0x0 DUP3 ADD SLOAD DUP2 PUSH1 0x0 ADD SSTORE PUSH1 0x1 DUP3 ADD SLOAD DUP2 PUSH1 0x1 ADD SSTORE PUSH1 0x2 DUP3 ADD SLOAD DUP2 PUSH1 0x2 ADD SSTORE PUSH1 0x3 DUP3 ADD SLOAD DUP2 PUSH1 0x3 ADD SSTORE PUSH1 0x4 DUP3 ADD SLOAD DUP2 PUSH1 0x4 ADD SSTORE PUSH1 0x5 DUP3 ADD SLOAD DUP2 PUSH1 0x5 ADD SSTORE PUSH1 0x6 DUP3 ADD SLOAD DUP2 PUSH1 0x6 ADD SSTORE PUSH1 0x7 DUP3 ADD SLOAD DUP2 PUSH1 0x7 ADD SSTORE PUSH1 0x8 DUP3 ADD SLOAD DUP2 PUSH1 0x8 ADD SSTORE PUSH1 0x9 DUP3 ADD SLOAD DUP2 PUSH1 0x9 ADD SSTORE PUSH1 0xA DUP3 ADD SLOAD DUP2 PUSH1 0xA ADD SSTORE PUSH1 0xB DUP3 ADD SLOAD DUP2 PUSH1 0xB ADD SSTORE SWAP1 POP POP PUSH1 0x1 PUSH1 0x11 PUSH1 0x0 DUP8 DUP2 MSTORE PUSH1 0x20 ADD SWAP1 DUP2 MSTORE PUSH1 0x20 ADD PUSH1 0x0 KECCAK256 SLOAD PUSH2 0xD1E SWAP2 SWAP1 PUSH2 0x47CC JUMP JUMPDEST PUSH1 0x11 PUSH1 0x0 DUP8 DUP2 MSTORE PUSH1 0x20 ADD SWAP1 DUP2 MSTORE PUSH1 0x20 ADD PUSH1 0x0 KECCAK256 DUP2 SWAP1 SSTORE POP PUSH32 0x510A8D0A61F3EC9EF2328338CFC3429D30261D8781D56DD0507CB19E2ED63A9C DUP6 PUSH1 0x11 PUSH1 0x0 DUP9 DUP2 MSTORE PUSH1 0x20 ADD SWAP1 DUP2 MSTORE PUSH1 0x20 ADD PUSH1 0x0 KECCAK256 SLOAD PUSH1 0x40 MLOAD PUSH2 0xD79 SWAP3 SWAP2 SWAP1 PUSH2 0x455D JUMP JUMPDEST PUSH1 0x40 MLOAD DUP1 SWAP2 SUB SWAP1 LOG1 PUSH32 0xB8D7090364DA4A6371334296AAF588E8D119F8490AC61CE968A539406164F5FB PUSH1 0xB SLOAD DUP7 DUP7 PUSH1 0x40 MLOAD PUSH2 0xDB6 SWAP4 SWAP3 SWAP2 SWAP1 PUSH2 0x45C4 JUMP JUMPDEST PUSH1 0x40 MLOAD DUP1 SWAP2 SUB SWAP1 LOG1 POP POP POP POP POP JUMP JUMPDEST PUSH1 0x0 PUSH2 0xDCF PUSH2 0x835 JUMP JUMPDEST DUP3 LT PUSH2 0xE10 JUMPI PUSH1 0x40 MLOAD PUSH32 0x8C379A000000000000000000000000000000000000000000000000000000000 DUP2 MSTORE PUSH1 0x4 ADD PUSH2 0xE07 SWAP1 PUSH2 0x44C7 JUMP JUMPDEST PUSH1 0x40 MLOAD DUP1 SWAP2 SUB SWAP1 REVERT JUMPDEST PUSH1 0x8 DUP3 DUP2 SLOAD DUP2 LT PUSH2 0xE24 JUMPI PUSH2 0xE23 PUSH2 0x4B0E JUMP JUMPDEST JUMPDEST SWAP1 PUSH1 0x0 MSTORE PUSH1 0x20 PUSH1 0x0 KECCAK256 ADD SLOAD SWAP1 POP SWAP2 SWAP1 POP JUMP JUMPDEST PUSH1 0x0 DUP1 PUSH1 0x2 PUSH1 0x0 DUP5 DUP2 MSTORE PUSH1 0x20 ADD SWAP1 DUP2 MSTORE PUSH1 0x20 ADD PUSH1 0x0 KECCAK256 PUSH1 0x0 SWAP1 SLOAD SWAP1 PUSH2 0x100 EXP SWAP1 DIV PUSH20 0xFFFFFFFFFFFFFFFFFFFFFFFFFFFFFFFFFFFFFFFF AND SWAP1 POP PUSH1 0x0 PUSH20 0xFFFFFFFFFFFFFFFFFFFFFFFFFFFFFFFFFFFFFFFF AND DUP2 PUSH20 0xFFFFFFFFFFFFFFFFFFFFFFFFFFFFFFFFFFFFFFFF AND EQ ISZERO PUSH2 0xEDF JUMPI PUSH1 0x40 MLOAD PUSH32 0x8C379A000000000000000000000000000000000000000000000000000000000 DUP2 MSTORE PUSH1 0x4 ADD PUSH2 0xED6 SWAP1 PUSH2 0x43E7 JUMP JUMPDEST PUSH1 0x40 MLOAD DUP1 SWAP2 SUB SWAP1 REVERT JUMPDEST DUP1 SWAP2 POP POP SWAP2 SWAP1 POP JUMP JUMPDEST PUSH1 0x0 DUP1 PUSH20 0xFFFFFFFFFFFFFFFFFFFFFFFFFFFFFFFFFFFFFFFF AND DUP3 PUSH20 0xFFFFFFFFFFFFFFFFFFFFFFFFFFFFFFFFFFFFFFFF AND EQ ISZERO PUSH2 0xF59 JUMPI PUSH1 0x40 MLOAD PUSH32 0x8C379A000000000000000000000000000000000000000000000000000000000 DUP2 MSTORE PUSH1 0x4 ADD PUSH2 0xF50 SWAP1 PUSH2 0x43C7 JUMP JUMPDEST PUSH1 0x40 MLOAD DUP1 SWAP2 SUB SWAP1 REVERT JUMPDEST PUSH1 0x3 PUSH1 0x0 DUP4 PUSH20 0xFFFFFFFFFFFFFFFFFFFFFFFFFFFFFFFFFFFFFFFF AND PUSH20 0xFFFFFFFFFFFFFFFFFFFFFFFFFFFFFFFFFFFFFFFF AND DUP2 MSTORE PUSH1 0x20 ADD SWAP1 DUP2 MSTORE PUSH1 0x20 ADD PUSH1 0x0 KECCAK256 SLOAD SWAP1 POP SWAP2 SWAP1 POP JUMP JUMPDEST PUSH1 0xE DUP2 DUP2 SLOAD DUP2 LT PUSH2 0xFB0 JUMPI PUSH1 0x0 DUP1 REVERT JUMPDEST SWAP1 PUSH1 0x0 MSTORE PUSH1 0x20 PUSH1 0x0 KECCAK256 SWAP1 PUSH1 0xC MUL ADD PUSH1 0x0 SWAP2 POP SWAP1 POP DUP1 PUSH1 0x0 ADD SLOAD SWAP1 DUP1 PUSH1 0x1 ADD SLOAD SWAP1 DUP1 PUSH1 0x2 ADD SLOAD SWAP1 DUP1 PUSH1 0x3 ADD SLOAD SWAP1 DUP1 PUSH1 0x4 ADD SLOAD SWAP1 DUP1 PUSH1 0x5 ADD SLOAD SWAP1 DUP1 PUSH1 0x6 ADD SLOAD SWAP1 DUP1 PUSH1 0x7 ADD SLOAD SWAP1 DUP1 PUSH1 0x8 ADD SLOAD SWAP1 DUP1 PUSH1 0x9 ADD SLOAD SWAP1 DUP1 PUSH1 0xA ADD SLOAD SWAP1 DUP1 PUSH1 0xB ADD SLOAD SWAP1 POP DUP13 JUMP JUMPDEST PUSH7 0x470DE4DF820000 CALLVALUE LT ISZERO PUSH2 0x1024 JUMPI PUSH1 0x0 DUP1 REVERT JUMPDEST CALLER PUSH20 0xFFFFFFFFFFFFFFFFFFFFFFFFFFFFFFFFFFFFFFFF AND PUSH2 0x1044 DUP4 PUSH2 0xE36 JUMP JUMPDEST PUSH20 0xFFFFFFFFFFFFFFFFFFFFFFFFFFFFFFFFFFFFFFFF AND EQ PUSH2 0x1064 JUMPI PUSH1 0x0 DUP1 REVERT JUMPDEST PUSH2 0x106C PUSH2 0x835 JUMP JUMPDEST DUP3 LT PUSH2 0x1077 JUMPI PUSH1 0x0 DUP1 REVERT JUMPDEST PUSH2 0x107F PUSH2 0x835 JUMP JUMPDEST DUP2 LT PUSH2 0x108A JUMPI PUSH1 0x0 DUP1 REVERT JUMPDEST PUSH32 0x3593DF2963C20760AFEEC7BC9AE99F0AD8227EC08877590930B113D33DF9C067 PUSH1 0x1 PUSH1 0x40 MLOAD PUSH2 0x10BA SWAP2 SWAP1 PUSH2 0x428A JUMP JUMPDEST PUSH1 0x40 MLOAD DUP1 SWAP2 SUB SWAP1 LOG1 PUSH1 0x0 PUSH1 0xE DUP4 DUP2 SLOAD DUP2 LT PUSH2 0x10D8 JUMPI PUSH2 0x10D7 PUSH2 0x4B0E JUMP JUMPDEST JUMPDEST SWAP1 PUSH1 0x0 MSTORE PUSH1 0x20 PUSH1 0x0 KECCAK256 SWAP1 PUSH1 0xC MUL ADD PUSH1 0x40 MLOAD DUP1 PUSH2 0x180 ADD PUSH1 0x40 MSTORE SWAP1 DUP2 PUSH1 0x0 DUP3 ADD SLOAD DUP2 MSTORE PUSH1 0x20 ADD PUSH1 0x1 DUP3 ADD SLOAD DUP2 MSTORE PUSH1 0x20 ADD PUSH1 0x2 DUP3 ADD SLOAD DUP2 MSTORE PUSH1 0x20 ADD PUSH1 0x3 DUP3 ADD SLOAD DUP2 MSTORE PUSH1 0x20 ADD PUSH1 0x4 DUP3 ADD SLOAD DUP2 MSTORE PUSH1 0x20 ADD PUSH1 0x5 DUP3 ADD SLOAD DUP2 MSTORE PUSH1 0x20 ADD PUSH1 0x6 DUP3 ADD SLOAD DUP2 MSTORE PUSH1 0x20 ADD PUSH1 0x7 DUP3 ADD SLOAD DUP2 MSTORE PUSH1 0x20 ADD PUSH1 0x8 DUP3 ADD SLOAD DUP2 MSTORE PUSH1 0x20 ADD PUSH1 0x9 DUP3 ADD SLOAD DUP2 MSTORE PUSH1 0x20 ADD PUSH1 0xA DUP3 ADD SLOAD DUP2 MSTORE PUSH1 0x20 ADD PUSH1 0xB DUP3 ADD SLOAD DUP2 MSTORE POP POP SWAP1 POP PUSH1 0x0 PUSH1 0xE DUP4 DUP2 SLOAD DUP2 LT PUSH2 0x1182 JUMPI PUSH2 0x1181 PUSH2 0x4B0E JUMP JUMPDEST JUMPDEST SWAP1 PUSH1 0x0 MSTORE PUSH1 0x20 PUSH1 0x0 KECCAK256 SWAP1 PUSH1 0xC MUL ADD PUSH1 0x40 MLOAD DUP1 PUSH2 0x180 ADD PUSH1 0x40 MSTORE SWAP1 DUP2 PUSH1 0x0 DUP3 ADD SLOAD DUP2 MSTORE PUSH1 0x20 ADD PUSH1 0x1 DUP3 ADD SLOAD DUP2 MSTORE PUSH1 0x20 ADD PUSH1 0x2 DUP3 ADD SLOAD DUP2 MSTORE PUSH1 0x20 ADD PUSH1 0x3 DUP3 ADD SLOAD DUP2 MSTORE PUSH1 0x20 ADD PUSH1 0x4 DUP3 ADD SLOAD DUP2 MSTORE PUSH1 0x20 ADD PUSH1 0x5 DUP3 ADD SLOAD DUP2 MSTORE PUSH1 0x20 ADD PUSH1 0x6 DUP3 ADD SLOAD DUP2 MSTORE PUSH1 0x20 ADD PUSH1 0x7 DUP3 ADD SLOAD DUP2 MSTORE PUSH1 0x20 ADD PUSH1 0x8 DUP3 ADD SLOAD DUP2 MSTORE PUSH1 0x20 ADD PUSH1 0x9 DUP3 ADD SLOAD DUP2 MSTORE PUSH1 0x20 ADD PUSH1 0xA DUP3 ADD SLOAD DUP2 MSTORE PUSH1 0x20 ADD PUSH1 0xB DUP3 ADD SLOAD DUP2 MSTORE POP POP SWAP1 POP PUSH1 0x0 PUSH2 0x1220 PUSH2 0x214F JUMP JUMPDEST SWAP1 POP PUSH1 0x0 PUSH1 0x19 PUSH8 0xFFFFFFFFFFFFFFFF DUP2 GT ISZERO PUSH2 0x123F JUMPI PUSH2 0x123E PUSH2 0x4B3D JUMP JUMPDEST JUMPDEST PUSH1 0x40 MLOAD SWAP1 DUP1 DUP3 MSTORE DUP1 PUSH1 0x20 MUL PUSH1 0x20 ADD DUP3 ADD PUSH1 0x40 MSTORE DUP1 ISZERO PUSH2 0x126D JUMPI DUP2 PUSH1 0x20 ADD PUSH1 0x20 DUP3 MUL DUP1 CALLDATASIZE DUP4 CALLDATACOPY DUP1 DUP3 ADD SWAP2 POP POP SWAP1 POP JUMPDEST POP SWAP1 POP DUP4 PUSH1 0x0 ADD MLOAD DUP2 PUSH1 0x0 DUP2 MLOAD DUP2 LT PUSH2 0x1289 JUMPI PUSH2 0x1288 PUSH2 0x4B0E JUMP JUMPDEST JUMPDEST PUSH1 0x20 MUL PUSH1 0x20 ADD ADD DUP2 DUP2 MSTORE POP POP DUP4 PUSH1 0x20 ADD MLOAD DUP2 PUSH1 0x1 DUP2 MLOAD DUP2 LT PUSH2 0x12AE JUMPI PUSH2 0x12AD PUSH2 0x4B0E JUMP JUMPDEST JUMPDEST PUSH1 0x20 MUL PUSH1 0x20 ADD ADD DUP2 DUP2 MSTORE POP POP DUP4 PUSH1 0x40 ADD MLOAD DUP2 PUSH1 0x2 DUP2 MLOAD DUP2 LT PUSH2 0x12D3 JUMPI PUSH2 0x12D2 PUSH2 0x4B0E JUMP JUMPDEST JUMPDEST PUSH1 0x20 MUL PUSH1 0x20 ADD ADD DUP2 DUP2 MSTORE POP POP DUP4 PUSH1 0x60 ADD MLOAD DUP2 PUSH1 0x3 DUP2 MLOAD DUP2 LT PUSH2 0x12F8 JUMPI PUSH2 0x12F7 PUSH2 0x4B0E JUMP JUMPDEST JUMPDEST PUSH1 0x20 MUL PUSH1 0x20 ADD ADD DUP2 DUP2 MSTORE POP POP DUP4 PUSH1 0x80 ADD MLOAD DUP2 PUSH1 0x4 DUP2 MLOAD DUP2 LT PUSH2 0x131D JUMPI PUSH2 0x131C PUSH2 0x4B0E JUMP JUMPDEST JUMPDEST PUSH1 0x20 MUL PUSH1 0x20 ADD ADD DUP2 DUP2 MSTORE POP POP DUP4 PUSH1 0xA0 ADD MLOAD DUP2 PUSH1 0x5 DUP2 MLOAD DUP2 LT PUSH2 0x1342 JUMPI PUSH2 0x1341 PUSH2 0x4B0E JUMP JUMPDEST JUMPDEST PUSH1 0x20 MUL PUSH1 0x20 ADD ADD DUP2 DUP2 MSTORE POP POP DUP4 PUSH1 0xC0 ADD MLOAD DUP2 PUSH1 0x6 DUP2 MLOAD DUP2 LT PUSH2 0x1367 JUMPI PUSH2 0x1366 PUSH2 0x4B0E JUMP JUMPDEST JUMPDEST PUSH1 0x20 MUL PUSH1 0x20 ADD ADD DUP2 DUP2 MSTORE POP POP DUP4 PUSH1 0xE0 ADD MLOAD DUP2 PUSH1 0x7 DUP2 MLOAD DUP2 LT PUSH2 0x138C JUMPI PUSH2 0x138B PUSH2 0x4B0E JUMP JUMPDEST JUMPDEST PUSH1 0x20 MUL PUSH1 0x20 ADD ADD DUP2 DUP2 MSTORE POP POP DUP4 PUSH2 0x100 ADD MLOAD DUP2 PUSH1 0x8 DUP2 MLOAD DUP2 LT PUSH2 0x13B2 JUMPI PUSH2 0x13B1 PUSH2 0x4B0E JUMP JUMPDEST JUMPDEST PUSH1 0x20 MUL PUSH1 0x20 ADD ADD DUP2 DUP2 MSTORE POP POP DUP4 PUSH2 0x120 ADD MLOAD DUP2 PUSH1 0x9 DUP2 MLOAD DUP2 LT PUSH2 0x13D8 JUMPI PUSH2 0x13D7 PUSH2 0x4B0E JUMP JUMPDEST JUMPDEST PUSH1 0x20 MUL PUSH1 0x20 ADD ADD DUP2 DUP2 MSTORE POP POP DUP4 PUSH2 0x140 ADD MLOAD DUP2 PUSH1 0xA DUP2 MLOAD DUP2 LT PUSH2 0x13FE JUMPI PUSH2 0x13FD PUSH2 0x4B0E JUMP JUMPDEST JUMPDEST PUSH1 0x20 MUL PUSH1 0x20 ADD ADD DUP2 DUP2 MSTORE POP POP DUP4 PUSH2 0x160 ADD MLOAD DUP2 PUSH1 0xB DUP2 MLOAD DUP2 LT PUSH2 0x1424 JUMPI PUSH2 0x1423 PUSH2 0x4B0E JUMP JUMPDEST JUMPDEST PUSH1 0x20 MUL PUSH1 0x20 ADD ADD DUP2 DUP2 MSTORE POP POP DUP3 PUSH1 0x0 ADD MLOAD DUP2 PUSH1 0xC DUP2 MLOAD DUP2 LT PUSH2 0x1449 JUMPI PUSH2 0x1448 PUSH2 0x4B0E JUMP JUMPDEST JUMPDEST PUSH1 0x20 MUL PUSH1 0x20 ADD ADD DUP2 DUP2 MSTORE POP POP DUP3 PUSH1 0x20 ADD MLOAD DUP2 PUSH1 0xD DUP2 MLOAD DUP2 LT PUSH2 0x146E JUMPI PUSH2 0x146D PUSH2 0x4B0E JUMP JUMPDEST JUMPDEST PUSH1 0x20 MUL PUSH1 0x20 ADD ADD DUP2 DUP2 MSTORE POP POP DUP3 PUSH1 0x40 ADD MLOAD DUP2 PUSH1 0xE DUP2 MLOAD DUP2 LT PUSH2 0x1493 JUMPI PUSH2 0x1492 PUSH2 0x4B0E JUMP JUMPDEST JUMPDEST PUSH1 0x20 MUL PUSH1 0x20 ADD ADD DUP2 DUP2 MSTORE POP POP DUP3 PUSH1 0x60 ADD MLOAD DUP2 PUSH1 0xF DUP2 MLOAD DUP2 LT PUSH2 0x14B8 JUMPI PUSH2 0x14B7 PUSH2 0x4B0E JUMP JUMPDEST JUMPDEST PUSH1 0x20 MUL PUSH1 0x20 ADD ADD DUP2 DUP2 MSTORE POP POP DUP3 PUSH1 0x80 ADD MLOAD DUP2 PUSH1 0x10 DUP2 MLOAD DUP2 LT PUSH2 0x14DD JUMPI PUSH2 0x14DC PUSH2 0x4B0E JUMP JUMPDEST JUMPDEST PUSH1 0x20 MUL PUSH1 0x20 ADD ADD DUP2 DUP2 MSTORE POP POP DUP3 PUSH1 0xA0 ADD MLOAD DUP2 PUSH1 0x11 DUP2 MLOAD DUP2 LT PUSH2 0x1502 JUMPI PUSH2 0x1501 PUSH2 0x4B0E JUMP JUMPDEST JUMPDEST PUSH1 0x20 MUL PUSH1 0x20 ADD ADD DUP2 DUP2 MSTORE POP POP DUP3 PUSH1 0xC0 ADD MLOAD DUP2 PUSH1 0x12 DUP2 MLOAD DUP2 LT PUSH2 0x1527 JUMPI PUSH2 0x1526 PUSH2 0x4B0E JUMP JUMPDEST JUMPDEST PUSH1 0x20 MUL PUSH1 0x20 ADD ADD DUP2 DUP2 MSTORE POP POP DUP3 PUSH1 0xE0 ADD MLOAD DUP2 PUSH1 0x13 DUP2 MLOAD DUP2 LT PUSH2 0x154C JUMPI PUSH2 0x154B PUSH2 0x4B0E JUMP JUMPDEST JUMPDEST PUSH1 0x20 MUL PUSH1 0x20 ADD ADD DUP2 DUP2 MSTORE POP POP DUP3 PUSH2 0x100 ADD MLOAD DUP2 PUSH1 0x14 DUP2 MLOAD DUP2 LT PUSH2 0x1572 JUMPI PUSH2 0x1571 PUSH2 0x4B0E JUMP JUMPDEST JUMPDEST PUSH1 0x20 MUL PUSH1 0x20 ADD ADD DUP2 DUP2 MSTORE POP POP DUP3 PUSH2 0x120 ADD MLOAD DUP2 PUSH1 0x15 DUP2 MLOAD DUP2 LT PUSH2 0x1598 JUMPI PUSH2 0x1597 PUSH2 0x4B0E JUMP JUMPDEST JUMPDEST PUSH1 0x20 MUL PUSH1 0x20 ADD ADD DUP2 DUP2 MSTORE POP POP DUP3 PUSH2 0x140 ADD MLOAD DUP2 PUSH1 0x16 DUP2 MLOAD DUP2 LT PUSH2 0x15BE JUMPI PUSH2 0x15BD PUSH2 0x4B0E JUMP JUMPDEST JUMPDEST PUSH1 0x20 MUL PUSH1 0x20 ADD ADD DUP2 DUP2 MSTORE POP POP DUP3 PUSH2 0x160 ADD MLOAD DUP2 PUSH1 0x17 DUP2 MLOAD DUP2 LT PUSH2 0x15E4 JUMPI PUSH2 0x15E3 PUSH2 0x4B0E JUMP JUMPDEST JUMPDEST PUSH1 0x20 MUL PUSH1 0x20 ADD ADD DUP2 DUP2 MSTORE POP POP DUP2 DUP2 PUSH1 0x18 DUP2 MLOAD DUP2 LT PUSH2 0x1605 JUMPI PUSH2 0x1604 PUSH2 0x4B0E JUMP JUMPDEST JUMPDEST PUSH1 0x20 MUL PUSH1 0x20 ADD ADD DUP2 DUP2 MSTORE POP POP PUSH1 0xA PUSH1 0x0 SWAP1 SLOAD SWAP1 PUSH2 0x100 EXP SWAP1 DIV PUSH20 0xFFFFFFFFFFFFFFFFFFFFFFFFFFFFFFFFFFFFFFFF AND PUSH20 0xFFFFFFFFFFFFFFFFFFFFFFFFFFFFFFFFFFFFFFFF AND PUSH4 0x3E3AA6C5 CALLVALUE PUSH1 0xB SLOAD PUSH32 0x2D8DD67D94FF9987FBA396772E78AF45776E50EC5231A489977B2973C8AD302 DUP6 PUSH1 0x40 MLOAD DUP6 PUSH4 0xFFFFFFFF AND PUSH1 0xE0 SHL DUP2 MSTORE PUSH1 0x4 ADD PUSH2 0x1693 SWAP4 SWAP3 SWAP2 SWAP1 PUSH2 0x4586 JUMP JUMPDEST PUSH1 0x20 PUSH1 0x40 MLOAD DUP1 DUP4 SUB DUP2 DUP6 DUP9 DUP1 EXTCODESIZE ISZERO DUP1 ISZERO PUSH2 0x16AC JUMPI PUSH1 0x0 DUP1 REVERT JUMPDEST POP GAS CALL ISZERO DUP1 ISZERO PUSH2 0x16C0 JUMPI RETURNDATASIZE PUSH1 0x0 DUP1 RETURNDATACOPY RETURNDATASIZE PUSH1 0x0 REVERT JUMPDEST POP POP POP POP POP PUSH1 0x40 MLOAD RETURNDATASIZE PUSH1 0x1F NOT PUSH1 0x1F DUP3 ADD AND DUP3 ADD DUP1 PUSH1 0x40 MSTORE POP DUP2 ADD SWAP1 PUSH2 0x16E5 SWAP2 SWAP1 PUSH2 0x3B5E JUMP JUMPDEST POP PUSH1 0x40 MLOAD DUP1 PUSH1 0x40 ADD PUSH1 0x40 MSTORE DUP1 DUP6 DUP2 MSTORE PUSH1 0x20 ADD DUP5 DUP2 MSTORE POP PUSH1 0x10 PUSH1 0x0 DUP5 DUP2 MSTORE PUSH1 0x20 ADD SWAP1 DUP2 MSTORE PUSH1 0x20 ADD PUSH1 0x0 KECCAK256 PUSH1 0x0 DUP3 ADD MLOAD DUP2 PUSH1 0x0 ADD PUSH1 0x0 DUP3 ADD MLOAD DUP2 PUSH1 0x0 ADD SSTORE PUSH1 0x20 DUP3 ADD MLOAD DUP2 PUSH1 0x1 ADD SSTORE PUSH1 0x40 DUP3 ADD MLOAD DUP2 PUSH1 0x2 ADD SSTORE PUSH1 0x60 DUP3 ADD MLOAD DUP2 PUSH1 0x3 ADD SSTORE PUSH1 0x80 DUP3 ADD MLOAD DUP2 PUSH1 0x4 ADD SSTORE PUSH1 0xA0 DUP3 ADD MLOAD DUP2 PUSH1 0x5 ADD SSTORE PUSH1 0xC0 DUP3 ADD MLOAD DUP2 PUSH1 0x6 ADD SSTORE PUSH1 0xE0 DUP3 ADD MLOAD DUP2 PUSH1 0x7 ADD SSTORE PUSH2 0x100 DUP3 ADD MLOAD DUP2 PUSH1 0x8 ADD SSTORE PUSH2 0x120 DUP3 ADD MLOAD DUP2 PUSH1 0x9 ADD SSTORE PUSH2 0x140 DUP3 ADD MLOAD DUP2 PUSH1 0xA ADD SSTORE PUSH2 0x160 DUP3 ADD MLOAD DUP2 PUSH1 0xB ADD SSTORE POP POP PUSH1 0x20 DUP3 ADD MLOAD DUP2 PUSH1 0xC ADD PUSH1 0x0 DUP3 ADD MLOAD DUP2 PUSH1 0x0 ADD SSTORE PUSH1 0x20 DUP3 ADD MLOAD DUP2 PUSH1 0x1 ADD SSTORE PUSH1 0x40 DUP3 ADD MLOAD DUP2 PUSH1 0x2 ADD SSTORE PUSH1 0x60 DUP3 ADD MLOAD DUP2 PUSH1 0x3 ADD SSTORE PUSH1 0x80 DUP3 ADD MLOAD DUP2 PUSH1 0x4 ADD SSTORE PUSH1 0xA0 DUP3 ADD MLOAD DUP2 PUSH1 0x5 ADD SSTORE PUSH1 0xC0 DUP3 ADD MLOAD DUP2 PUSH1 0x6 ADD SSTORE PUSH1 0xE0 DUP3 ADD MLOAD DUP2 PUSH1 0x7 ADD SSTORE PUSH2 0x100 DUP3 ADD MLOAD DUP2 PUSH1 0x8 ADD SSTORE PUSH2 0x120 DUP3 ADD MLOAD DUP2 PUSH1 0x9 ADD SSTORE PUSH2 0x140 DUP3 ADD MLOAD DUP2 PUSH1 0xA ADD SSTORE PUSH2 0x160 DUP3 ADD MLOAD DUP2 PUSH1 0xB ADD SSTORE POP POP SWAP1 POP POP CALLER PUSH20 0xFFFFFFFFFFFFFFFFFFFFFFFFFFFFFFFFFFFFFFFF AND PUSH32 0xD02FCE1ACAFA0B604F24AAAD2D7C0A36C749F4B333ABC05FC83BA197D5E0705C DUP6 PUSH1 0x0 ADD MLOAD DUP6 PUSH1 0x0 ADD MLOAD PUSH1 0xB SLOAD CALLVALUE PUSH1 0x40 MLOAD PUSH2 0x1875 SWAP5 SWAP4 SWAP3 SWAP2 SWAP1 PUSH2 0x45FB JUMP JUMPDEST PUSH1 0x40 MLOAD DUP1 SWAP2 SUB SWAP1 LOG2 POP POP POP POP POP POP JUMP JUMPDEST PUSH1 0x60 PUSH1 0x1 DUP1 SLOAD PUSH2 0x1894 SWAP1 PUSH2 0x496B JUMP JUMPDEST DUP1 PUSH1 0x1F ADD PUSH1 0x20 DUP1 SWAP2 DIV MUL PUSH1 0x20 ADD PUSH1 0x40 MLOAD SWAP1 DUP2 ADD PUSH1 0x40 MSTORE DUP1 SWAP3 SWAP2 SWAP1 DUP2 DUP2 MSTORE PUSH1 0x20 ADD DUP3 DUP1 SLOAD PUSH2 0x18C0 SWAP1 PUSH2 0x496B JUMP JUMPDEST DUP1 ISZERO PUSH2 0x190D JUMPI DUP1 PUSH1 0x1F LT PUSH2 0x18E2 JUMPI PUSH2 0x100 DUP1 DUP4 SLOAD DIV MUL DUP4 MSTORE SWAP2 PUSH1 0x20 ADD SWAP2 PUSH2 0x190D JUMP JUMPDEST DUP3 ADD SWAP2 SWAP1 PUSH1 0x0 MSTORE PUSH1 0x20 PUSH1 0x0 KECCAK256 SWAP1 JUMPDEST DUP2 SLOAD DUP2 MSTORE SWAP1 PUSH1 0x1 ADD SWAP1 PUSH1 0x20 ADD DUP1 DUP4 GT PUSH2 0x18F0 JUMPI DUP3 SWAP1 SUB PUSH1 0x1F AND DUP3 ADD SWAP2 JUMPDEST POP POP POP POP POP SWAP1 POP SWAP1 JUMP JUMPDEST PUSH1 0x0 DUP2 GT DUP1 ISZERO PUSH2 0x1928 JUMPI POP PUSH2 0x28A DUP2 LT JUMPDEST PUSH2 0x1967 JUMPI PUSH1 0x40 MLOAD PUSH32 0x8C379A000000000000000000000000000000000000000000000000000000000 DUP2 MSTORE PUSH1 0x4 ADD PUSH2 0x195E SWAP1 PUSH2 0x44A7 JUMP JUMPDEST PUSH1 0x40 MLOAD DUP1 SWAP2 SUB SWAP1 REVERT JUMPDEST PUSH1 0x0 PUSH1 0xE DUP1 SLOAD SWAP1 POP SWAP1 POP PUSH1 0x0 PUSH2 0x197D DUP4 DUP4 PUSH2 0x216D JUMP JUMPDEST SWAP1 POP PUSH1 0xE DUP2 SWAP1 DUP1 PUSH1 0x1 DUP2 SLOAD ADD DUP1 DUP3 SSTORE DUP1 SWAP2 POP POP PUSH1 0x1 SWAP1 SUB SWAP1 PUSH1 0x0 MSTORE PUSH1 0x20 PUSH1 0x0 KECCAK256 SWAP1 PUSH1 0xC MUL ADD PUSH1 0x0 SWAP1 SWAP2 SWAP1 SWAP2 SWAP1 SWAP2 POP PUSH1 0x0 DUP3 ADD MLOAD DUP2 PUSH1 0x0 ADD SSTORE PUSH1 0x20 DUP3 ADD MLOAD DUP2 PUSH1 0x1 ADD SSTORE PUSH1 0x40 DUP3 ADD MLOAD DUP2 PUSH1 0x2 ADD SSTORE PUSH1 0x60 DUP3 ADD MLOAD DUP2 PUSH1 0x3 ADD SSTORE PUSH1 0x80 DUP3 ADD MLOAD DUP2 PUSH1 0x4 ADD SSTORE PUSH1 0xA0 DUP3 ADD MLOAD DUP2 PUSH1 0x5 ADD SSTORE PUSH1 0xC0 DUP3 ADD MLOAD DUP2 PUSH1 0x6 ADD SSTORE PUSH1 0xE0 DUP3 ADD MLOAD DUP2 PUSH1 0x7 ADD SSTORE PUSH2 0x100 DUP3 ADD MLOAD DUP2 PUSH1 0x8 ADD SSTORE PUSH2 0x120 DUP3 ADD MLOAD DUP2 PUSH1 0x9 ADD SSTORE PUSH2 0x140 DUP3 ADD MLOAD DUP2 PUSH1 0xA ADD SSTORE PUSH2 0x160 DUP3 ADD MLOAD DUP2 PUSH1 0xB ADD SSTORE POP POP PUSH2 0x1A33 CALLER DUP4 PUSH2 0x28FE JUMP JUMPDEST POP POP POP JUMP JUMPDEST PUSH2 0x1A4A PUSH2 0x1A43 PUSH2 0x1D49 JUMP JUMPDEST DUP4 DUP4 PUSH2 0x291C JUMP JUMPDEST POP POP JUMP JUMPDEST PUSH2 0x1A5F PUSH2 0x1A59 PUSH2 0x1D49 JUMP JUMPDEST DUP4 PUSH2 0x1E0A JUMP JUMPDEST PUSH2 0x1A9E JUMPI PUSH1 0x40 MLOAD PUSH32 0x8C379A000000000000000000000000000000000000000000000000000000000 DUP2 MSTORE PUSH1 0x4 ADD PUSH2 0x1A95 SWAP1 PUSH2 0x4487 JUMP JUMPDEST PUSH1 0x40 MLOAD DUP1 SWAP2 SUB SWAP1 REVERT JUMPDEST PUSH2 0x1AAA DUP5 DUP5 DUP5 DUP5 PUSH2 0x2A89 JUMP JUMPDEST POP POP POP POP JUMP JUMPDEST PUSH1 0x60 PUSH2 0x1ABB DUP3 PUSH2 0x1CDD JUMP JUMPDEST PUSH2 0x1AFA JUMPI PUSH1 0x40 MLOAD PUSH32 0x8C379A000000000000000000000000000000000000000000000000000000000 DUP2 MSTORE PUSH1 0x4 ADD PUSH2 0x1AF1 SWAP1 PUSH2 0x4447 JUMP JUMPDEST PUSH1 0x40 MLOAD DUP1 SWAP2 SUB SWAP1 REVERT JUMPDEST PUSH1 0x0 PUSH2 0x1B04 PUSH2 0x2AE5 JUMP JUMPDEST SWAP1 POP PUSH1 0x0 DUP2 MLOAD GT PUSH2 0x1B24 JUMPI PUSH1 0x40 MLOAD DUP1 PUSH1 0x20 ADD PUSH1 0x40 MSTORE DUP1 PUSH1 0x0 DUP2 MSTORE POP PUSH2 0x1B4F JUMP JUMPDEST DUP1 PUSH2 0x1B2E DUP5 PUSH2 0x2AFC JUMP JUMPDEST PUSH1 0x40 MLOAD PUSH1 0x20 ADD PUSH2 0x1B3F SWAP3 SWAP2 SWAP1 PUSH2 0x418C JUMP JUMPDEST PUSH1 0x40 MLOAD PUSH1 0x20 DUP2 DUP4 SUB SUB DUP2 MSTORE SWAP1 PUSH1 0x40 MSTORE JUMPDEST SWAP2 POP POP SWAP2 SWAP1 POP JUMP JUMPDEST PUSH1 0x11 PUSH1 0x20 MSTORE DUP1 PUSH1 0x0 MSTORE PUSH1 0x40 PUSH1 0x0 KECCAK256 PUSH1 0x0 SWAP2 POP SWAP1 POP SLOAD DUP2 JUMP JUMPDEST PUSH1 0xF PUSH1 0x20 MSTORE DUP1 PUSH1 0x0 MSTORE PUSH1 0x40 PUSH1 0x0 KECCAK256 PUSH1 0x0 SWAP2 POP SWAP1 POP DUP1 PUSH1 0x0 ADD SLOAD SWAP1 DUP1 PUSH1 0x1 ADD SLOAD SWAP1 DUP1 PUSH1 0x2 ADD SLOAD SWAP1 DUP1 PUSH1 0x3 ADD SLOAD SWAP1 DUP1 PUSH1 0x4 ADD SLOAD SWAP1 DUP1 PUSH1 0x5 ADD SLOAD SWAP1 DUP1 PUSH1 0x6 ADD SLOAD SWAP1 DUP1 PUSH1 0x7 ADD SLOAD SWAP1 DUP1 PUSH1 0x8 ADD SLOAD SWAP1 DUP1 PUSH1 0x9 ADD SLOAD SWAP1 DUP1 PUSH1 0xA ADD SLOAD SWAP1 DUP1 PUSH1 0xB ADD SLOAD SWAP1 POP DUP13 JUMP JUMPDEST PUSH1 0x0 PUSH1 0x5 PUSH1 0x0 DUP5 PUSH20 0xFFFFFFFFFFFFFFFFFFFFFFFFFFFFFFFFFFFFFFFF AND PUSH20 0xFFFFFFFFFFFFFFFFFFFFFFFFFFFFFFFFFFFFFFFF AND DUP2 MSTORE PUSH1 0x20 ADD SWAP1 DUP2 MSTORE PUSH1 0x20 ADD PUSH1 0x0 KECCAK256 PUSH1 0x0 DUP4 PUSH20 0xFFFFFFFFFFFFFFFFFFFFFFFFFFFFFFFFFFFFFFFF AND PUSH20 0xFFFFFFFFFFFFFFFFFFFFFFFFFFFFFFFFFFFFFFFF AND DUP2 MSTORE PUSH1 0x20 ADD SWAP1 DUP2 MSTORE PUSH1 0x20 ADD PUSH1 0x0 KECCAK256 PUSH1 0x0 SWAP1 SLOAD SWAP1 PUSH2 0x100 EXP SWAP1 DIV PUSH1 0xFF AND SWAP1 POP SWAP3 SWAP2 POP POP JUMP JUMPDEST PUSH1 0x0 PUSH32 0x780E9D6300000000000000000000000000000000000000000000000000000000 PUSH28 0xFFFFFFFFFFFFFFFFFFFFFFFFFFFFFFFFFFFFFFFFFFFFFFFFFFFFFFFF NOT AND DUP3 PUSH28 0xFFFFFFFFFFFFFFFFFFFFFFFFFFFFFFFFFFFFFFFFFFFFFFFFFFFFFFFF NOT AND EQ DUP1 PUSH2 0x1CD6 JUMPI POP PUSH2 0x1CD5 DUP3 PUSH2 0x2C5D JUMP JUMPDEST JUMPDEST SWAP1 POP SWAP2 SWAP1 POP JUMP JUMPDEST PUSH1 0x0 DUP1 PUSH20 0xFFFFFFFFFFFFFFFFFFFFFFFFFFFFFFFFFFFFFFFF AND PUSH1 0x2 PUSH1 0x0 DUP5 DUP2 MSTORE PUSH1 0x20 ADD SWAP1 DUP2 MSTORE PUSH1 0x20 ADD PUSH1 0x0 KECCAK256 PUSH1 0x0 SWAP1 SLOAD SWAP1 PUSH2 0x100 EXP SWAP1 DIV PUSH20 0xFFFFFFFFFFFFFFFFFFFFFFFFFFFFFFFFFFFFFFFF AND PUSH20 0xFFFFFFFFFFFFFFFFFFFFFFFFFFFFFFFFFFFFFFFF AND EQ ISZERO SWAP1 POP SWAP2 SWAP1 POP JUMP JUMPDEST PUSH1 0x0 CALLER SWAP1 POP SWAP1 JUMP JUMPDEST DUP2 PUSH1 0x4 PUSH1 0x0 DUP4 DUP2 MSTORE PUSH1 0x20 ADD SWAP1 DUP2 MSTORE PUSH1 0x20 ADD PUSH1 0x0 KECCAK256 PUSH1 0x0 PUSH2 0x100 EXP DUP2 SLOAD DUP2 PUSH20 0xFFFFFFFFFFFFFFFFFFFFFFFFFFFFFFFFFFFFFFFF MUL NOT AND SWAP1 DUP4 PUSH20 0xFFFFFFFFFFFFFFFFFFFFFFFFFFFFFFFFFFFFFFFF AND MUL OR SWAP1 SSTORE POP DUP1 DUP3 PUSH20 0xFFFFFFFFFFFFFFFFFFFFFFFFFFFFFFFFFFFFFFFF AND PUSH2 0x1DC4 DUP4 PUSH2 0xE36 JUMP JUMPDEST PUSH20 0xFFFFFFFFFFFFFFFFFFFFFFFFFFFFFFFFFFFFFFFF AND PUSH32 0x8C5BE1E5EBEC7D5BD14F71427D1E84F3DD0314C0F7B2291E5B200AC8C7C3B925 PUSH1 0x40 MLOAD PUSH1 0x40 MLOAD DUP1 SWAP2 SUB SWAP1 LOG4 POP POP JUMP JUMPDEST PUSH1 0x0 PUSH2 0x1E15 DUP3 PUSH2 0x1CDD JUMP JUMPDEST PUSH2 0x1E54 JUMPI PUSH1 0x40 MLOAD PUSH32 0x8C379A000000000000000000000000000000000000000000000000000000000 DUP2 MSTORE PUSH1 0x4 ADD PUSH2 0x1E4B SWAP1 PUSH2 0x4387 JUMP JUMPDEST PUSH1 0x40 MLOAD DUP1 SWAP2 SUB SWAP1 REVERT JUMPDEST PUSH1 0x0 PUSH2 0x1E5F DUP4 PUSH2 0xE36 JUMP JUMPDEST SWAP1 POP DUP1 PUSH20 0xFFFFFFFFFFFFFFFFFFFFFFFFFFFFFFFFFFFFFFFF AND DUP5 PUSH20 0xFFFFFFFFFFFFFFFFFFFFFFFFFFFFFFFFFFFFFFFF AND EQ DUP1 PUSH2 0x1EA1 JUMPI POP PUSH2 0x1EA0 DUP2 DUP6 PUSH2 0x1BCF JUMP JUMPDEST JUMPDEST DUP1 PUSH2 0x1EDF JUMPI POP DUP4 PUSH20 0xFFFFFFFFFFFFFFFFFFFFFFFFFFFFFFFFFFFFFFFF AND PUSH2 0x1EC7 DUP5 PUSH2 0x698 JUMP JUMPDEST PUSH20 0xFFFFFFFFFFFFFFFFFFFFFFFFFFFFFFFFFFFFFFFF AND EQ JUMPDEST SWAP2 POP POP SWAP3 SWAP2 POP POP JUMP JUMPDEST DUP3 PUSH20 0xFFFFFFFFFFFFFFFFFFFFFFFFFFFFFFFFFFFFFFFF AND PUSH2 0x1F08 DUP3 PUSH2 0xE36 JUMP JUMPDEST PUSH20 0xFFFFFFFFFFFFFFFFFFFFFFFFFFFFFFFFFFFFFFFF AND EQ PUSH2 0x1F5E JUMPI PUSH1 0x40 MLOAD PUSH32 0x8C379A000000000000000000000000000000000000000000000000000000000 DUP2 MSTORE PUSH1 0x4 ADD PUSH2 0x1F55 SWAP1 PUSH2 0x4307 JUMP JUMPDEST PUSH1 0x40 MLOAD DUP1 SWAP2 SUB SWAP1 REVERT JUMPDEST PUSH1 0x0 PUSH20 0xFFFFFFFFFFFFFFFFFFFFFFFFFFFFFFFFFFFFFFFF AND DUP3 PUSH20 0xFFFFFFFFFFFFFFFFFFFFFFFFFFFFFFFFFFFFFFFF AND EQ ISZERO PUSH2 0x1FCE JUMPI PUSH1 0x40 MLOAD PUSH32 0x8C379A000000000000000000000000000000000000000000000000000000000 DUP2 MSTORE PUSH1 0x4 ADD PUSH2 0x1FC5 SWAP1 PUSH2 0x4347 JUMP JUMPDEST PUSH1 0x40 MLOAD DUP1 SWAP2 SUB SWAP1 REVERT JUMPDEST PUSH2 0x1FD9 DUP4 DUP4 DUP4 PUSH2 0x2D3F JUMP JUMPDEST PUSH2 0x1FE4 PUSH1 0x0 DUP3 PUSH2 0x1D51 JUMP JUMPDEST PUSH1 0x1 PUSH1 0x3 PUSH1 0x0 DUP6 PUSH20 0xFFFFFFFFFFFFFFFFFFFFFFFFFFFFFFFFFFFFFFFF AND PUSH20 0xFFFFFFFFFFFFFFFFFFFFFFFFFFFFFFFFFFFFFFFF AND DUP2 MSTORE PUSH1 0x20 ADD SWAP1 DUP2 MSTORE PUSH1 0x20 ADD PUSH1 0x0 KECCAK256 PUSH1 0x0 DUP3 DUP3 SLOAD PUSH2 0x2034 SWAP2 SWAP1 PUSH2 0x4853 JUMP JUMPDEST SWAP3 POP POP DUP2 SWAP1 SSTORE POP PUSH1 0x1 PUSH1 0x3 PUSH1 0x0 DUP5 PUSH20 0xFFFFFFFFFFFFFFFFFFFFFFFFFFFFFFFFFFFFFFFF AND PUSH20 0xFFFFFFFFFFFFFFFFFFFFFFFFFFFFFFFFFFFFFFFF AND DUP2 MSTORE PUSH1 0x20 ADD SWAP1 DUP2 MSTORE PUSH1 0x20 ADD PUSH1 0x0 KECCAK256 PUSH1 0x0 DUP3 DUP3 SLOAD PUSH2 0x208B SWAP2 SWAP1 PUSH2 0x47CC JUMP JUMPDEST SWAP3 POP POP DUP2 SWAP1 SSTORE POP DUP2 PUSH1 0x2 PUSH1 0x0 DUP4 DUP2 MSTORE PUSH1 0x20 ADD SWAP1 DUP2 MSTORE PUSH1 0x20 ADD PUSH1 0x0 KECCAK256 PUSH1 0x0 PUSH2 0x100 EXP DUP2 SLOAD DUP2 PUSH20 0xFFFFFFFFFFFFFFFFFFFFFFFFFFFFFFFFFFFFFFFF MUL NOT AND SWAP1 DUP4 PUSH20 0xFFFFFFFFFFFFFFFFFFFFFFFFFFFFFFFFFFFFFFFF AND MUL OR SWAP1 SSTORE POP DUP1 DUP3 PUSH20 0xFFFFFFFFFFFFFFFFFFFFFFFFFFFFFFFFFFFFFFFF AND DUP5 PUSH20 0xFFFFFFFFFFFFFFFFFFFFFFFFFFFFFFFFFFFFFFFF AND PUSH32 0xDDF252AD1BE2C89B69C2B068FC378DAA952BA7F163C4A11628F55A4DF523B3EF PUSH1 0x40 MLOAD PUSH1 0x40 MLOAD DUP1 SWAP2 SUB SWAP1 LOG4 PUSH2 0x214A DUP4 DUP4 DUP4 PUSH2 0x2D4F JUMP JUMPDEST POP POP POP JUMP JUMPDEST PUSH1 0x0 PUSH1 0xC PUSH1 0x0 DUP2 SLOAD DUP1 SWAP3 SWAP2 SWAP1 PUSH2 0x2164 SWAP1 PUSH2 0x49CE JUMP JUMPDEST SWAP2 SWAP1 POP SSTORE SWAP1 POP SWAP1 JUMP JUMPDEST PUSH2 0x2175 PUSH2 0x384C JUMP JUMPDEST PUSH1 0x1 DUP4 EQ ISZERO PUSH2 0x21AF JUMPI PUSH2 0x21A8 DUP3 PUSH1 0x98 PUSH1 0x6F PUSH1 0x6A PUSH1 0x6F PUSH1 0x3 PUSH1 0x63 PUSH1 0x3 PUSH1 0x1E PUSH2 0x219A PUSH2 0x2D54 JUMP JUMPDEST PUSH2 0x21A2 PUSH2 0x2D65 JUMP JUMPDEST DUP15 PUSH2 0x2D82 JUMP JUMPDEST SWAP1 POP PUSH2 0x28F8 JUMP JUMPDEST PUSH1 0x2 DUP4 EQ ISZERO PUSH2 0x21E9 JUMPI PUSH2 0x21E2 DUP3 PUSH1 0xA7 PUSH1 0x7D PUSH1 0x7B PUSH1 0x7E PUSH1 0x3 PUSH1 0x7 PUSH1 0x3 PUSH1 0x28 PUSH2 0x21D4 PUSH2 0x2D54 JUMP JUMPDEST PUSH2 0x21DC PUSH2 0x2D65 JUMP JUMPDEST DUP15 PUSH2 0x2D82 JUMP JUMPDEST SWAP1 POP PUSH2 0x28F8 JUMP JUMPDEST PUSH1 0x3 DUP4 EQ ISZERO PUSH2 0x2223 JUMPI PUSH2 0x221C DUP3 PUSH1 0xBB PUSH1 0xA7 PUSH1 0x91 PUSH1 0xC0 PUSH1 0x3 PUSH1 0x7 PUSH1 0x3 PUSH1 0x32 PUSH2 0x220E PUSH2 0x2D54 JUMP JUMPDEST PUSH2 0x2216 PUSH2 0x2D65 JUMP JUMPDEST DUP15 PUSH2 0x2D82 JUMP JUMPDEST SWAP1 POP PUSH2 0x28F8 JUMP JUMPDEST PUSH1 0x4 DUP4 EQ ISZERO PUSH2 0x225D JUMPI PUSH2 0x2256 DUP3 PUSH1 0x92 PUSH1 0x72 PUSH1 0x80 PUSH1 0x68 PUSH1 0x1 PUSH1 0x63 PUSH1 0x1 PUSH1 0x28 PUSH2 0x2248 PUSH2 0x2D54 JUMP JUMPDEST PUSH2 0x2250 PUSH2 0x2D65 JUMP JUMPDEST DUP15 PUSH2 0x2D82 JUMP JUMPDEST SWAP1 POP PUSH2 0x28F8 JUMP JUMPDEST PUSH1 0x5 DUP4 EQ ISZERO PUSH2 0x2297 JUMPI PUSH2 0x2290 DUP3 PUSH1 0xA5 PUSH1 0x7F PUSH1 0x91 PUSH1 0x79 PUSH1 0x1 PUSH1 0x63 PUSH1 0x1 PUSH1 0x28 PUSH2 0x2282 PUSH2 0x2D54 JUMP JUMPDEST PUSH2 0x228A PUSH2 0x2D65 JUMP JUMPDEST DUP15 PUSH2 0x2D82 JUMP JUMPDEST SWAP1 POP PUSH2 0x28F8 JUMP JUMPDEST PUSH1 0x6 DUP4 EQ ISZERO PUSH2 0x22D1 JUMPI PUSH2 0x22CA DUP3 PUSH1 0xB9 PUSH1 0xC8 PUSH1 0xA7 PUSH1 0xB3 PUSH1 0x1 PUSH1 0x9 PUSH1 0x1 PUSH1 0x32 PUSH2 0x22BC PUSH2 0x2D54 JUMP JUMPDEST PUSH2 0x22C4 PUSH2 0x2D65 JUMP JUMPDEST DUP15 PUSH2 0x2D82 JUMP JUMPDEST SWAP1 POP PUSH2 0x28F8 JUMP JUMPDEST PUSH1 0x7 DUP4 EQ ISZERO PUSH2 0x230B JUMPI PUSH2 0x2304 DUP3 PUSH1 0x97 PUSH1 0x6E PUSH1 0x68 PUSH1 0x80 PUSH1 0x2 PUSH1 0x63 PUSH1 0x2 PUSH1 0x1E PUSH2 0x22F6 PUSH2 0x2D54 JUMP JUMPDEST PUSH2 0x22FE PUSH2 0x2D65 JUMP JUMPDEST DUP15 PUSH2 0x2D82 JUMP JUMPDEST SWAP1 POP PUSH2 0x28F8 JUMP JUMPDEST PUSH1 0x8 DUP4 EQ ISZERO PUSH2 0x2345 JUMPI PUSH2 0x233E DUP3 PUSH1 0xA6 PUSH1 0x7E PUSH1 0x79 PUSH1 0x91 PUSH1 0x2 PUSH1 0x63 PUSH1 0x2 PUSH1 0x28 PUSH2 0x2330 PUSH2 0x2D54 JUMP JUMPDEST PUSH2 0x2338 PUSH2 0x2D65 JUMP JUMPDEST DUP15 PUSH2 0x2D82 JUMP JUMPDEST SWAP1 POP PUSH2 0x28F8 JUMP JUMPDEST PUSH1 0x9 DUP4 EQ ISZERO PUSH2 0x237F JUMPI PUSH2 0x2378 DUP3 PUSH1 0xBA PUSH1 0x94 PUSH1 0x8F PUSH1 0xA7 PUSH1 0x2 PUSH1 0x63 PUSH1 0x2 PUSH1 0x32 PUSH2 0x236A PUSH2 0x2D54 JUMP JUMPDEST PUSH2 0x2372 PUSH2 0x2D65 JUMP JUMPDEST DUP15 PUSH2 0x2D82 JUMP JUMPDEST SWAP1 POP PUSH2 0x28F8 JUMP JUMPDEST PUSH1 0xA DUP4 EQ ISZERO PUSH2 0x239F JUMPI PUSH2 0x2398 DUP3 PUSH1 0xB PUSH1 0x63 DUP7 PUSH1 0x1 PUSH2 0x2E36 JUMP JUMPDEST SWAP1 POP PUSH2 0x28F8 JUMP JUMPDEST PUSH1 0xB DUP4 EQ ISZERO PUSH2 0x23BF JUMPI PUSH2 0x23B8 DUP3 PUSH1 0xB PUSH1 0x63 DUP7 PUSH1 0x2 PUSH2 0x2E36 JUMP JUMPDEST SWAP1 POP PUSH2 0x28F8 JUMP JUMPDEST PUSH1 0xC DUP4 EQ ISZERO PUSH2 0x23DF JUMPI PUSH2 0x23D8 DUP3 PUSH1 0xB PUSH1 0x9 DUP7 PUSH1 0x3 PUSH2 0x2E36 JUMP JUMPDEST SWAP1 POP PUSH2 0x28F8 JUMP JUMPDEST PUSH1 0xD DUP4 EQ ISZERO PUSH2 0x23FF JUMPI PUSH2 0x23F8 DUP3 PUSH1 0xB PUSH1 0x7 DUP7 PUSH1 0x1 PUSH2 0x2E36 JUMP JUMPDEST SWAP1 POP PUSH2 0x28F8 JUMP JUMPDEST PUSH1 0xE DUP4 EQ ISZERO PUSH2 0x241F JUMPI PUSH2 0x2418 DUP3 PUSH1 0xB PUSH1 0x7 DUP7 PUSH1 0x2 PUSH2 0x2E36 JUMP JUMPDEST SWAP1 POP PUSH2 0x28F8 JUMP JUMPDEST PUSH1 0xF DUP4 EQ ISZERO PUSH2 0x243F JUMPI PUSH2 0x2438 DUP3 PUSH1 0xB PUSH1 0x7 DUP7 PUSH1 0x3 PUSH2 0x2E36 JUMP JUMPDEST SWAP1 POP PUSH2 0x28F8 JUMP JUMPDEST PUSH1 0x10 DUP4 EQ ISZERO PUSH2 0x245F JUMPI PUSH2 0x2458 DUP3 PUSH1 0x0 PUSH1 0x9 DUP7 PUSH1 0x1 PUSH2 0x2E36 JUMP JUMPDEST SWAP1 POP PUSH2 0x28F8 JUMP JUMPDEST PUSH1 0x11 DUP4 EQ ISZERO PUSH2 0x247F JUMPI PUSH2 0x2478 DUP3 PUSH1 0x0 PUSH1 0x9 DUP7 PUSH1 0x2 PUSH2 0x2E36 JUMP JUMPDEST SWAP1 POP PUSH2 0x28F8 JUMP JUMPDEST PUSH1 0x12 DUP4 EQ ISZERO PUSH2 0x249F JUMPI PUSH2 0x2498 DUP3 PUSH1 0x0 PUSH1 0x9 DUP7 PUSH1 0x3 PUSH2 0x2E36 JUMP JUMPDEST SWAP1 POP PUSH2 0x28F8 JUMP JUMPDEST PUSH1 0x13 DUP4 EQ ISZERO PUSH2 0x24BF JUMPI PUSH2 0x24B8 DUP3 PUSH1 0x0 PUSH1 0x63 DUP7 PUSH1 0x1 PUSH2 0x2E36 JUMP JUMPDEST SWAP1 POP PUSH2 0x28F8 JUMP JUMPDEST PUSH1 0x14 DUP4 EQ ISZERO PUSH2 0x24DF JUMPI PUSH2 0x24D8 DUP3 PUSH1 0x0 PUSH1 0x63 DUP7 PUSH1 0x2 PUSH2 0x2E36 JUMP JUMPDEST SWAP1 POP PUSH2 0x28F8 JUMP JUMPDEST PUSH1 0x15 DUP4 EQ ISZERO PUSH2 0x24FF JUMPI PUSH2 0x24F8 DUP3 PUSH1 0x0 PUSH1 0x9 DUP7 PUSH1 0x1 PUSH2 0x2E36 JUMP JUMPDEST SWAP1 POP PUSH2 0x28F8 JUMP JUMPDEST PUSH1 0x16 DUP4 EQ ISZERO PUSH2 0x251F JUMPI PUSH2 0x2518 DUP3 PUSH1 0x0 PUSH1 0x9 DUP7 PUSH1 0x2 PUSH2 0x2E36 JUMP JUMPDEST SWAP1 POP PUSH2 0x28F8 JUMP JUMPDEST PUSH1 0x17 DUP4 EQ ISZERO PUSH2 0x253F JUMPI PUSH2 0x2538 DUP3 PUSH1 0x7 PUSH1 0x63 DUP7 PUSH1 0x1 PUSH2 0x2E36 JUMP JUMPDEST SWAP1 POP PUSH2 0x28F8 JUMP JUMPDEST PUSH1 0x18 DUP4 EQ ISZERO PUSH2 0x255F JUMPI PUSH2 0x2558 DUP3 PUSH1 0x7 PUSH1 0x63 DUP7 PUSH1 0x2 PUSH2 0x2E36 JUMP JUMPDEST SWAP1 POP PUSH2 0x28F8 JUMP JUMPDEST PUSH1 0x19 DUP4 EQ ISZERO PUSH2 0x257F JUMPI PUSH2 0x2578 DUP3 PUSH1 0x4 PUSH1 0x63 DUP7 PUSH1 0x2 PUSH2 0x2E36 JUMP JUMPDEST SWAP1 POP PUSH2 0x28F8 JUMP JUMPDEST PUSH1 0x1A DUP4 EQ ISZERO PUSH2 0x259F JUMPI PUSH2 0x2598 DUP3 PUSH1 0x4 PUSH1 0x63 DUP7 PUSH1 0x3 PUSH2 0x2E36 JUMP JUMPDEST SWAP1 POP PUSH2 0x28F8 JUMP JUMPDEST PUSH1 0x1B DUP4 EQ ISZERO PUSH2 0x25BF JUMPI PUSH2 0x25B8 DUP3 PUSH1 0x8 PUSH1 0x63 DUP7 PUSH1 0x1 PUSH2 0x2E36 JUMP JUMPDEST SWAP1 POP PUSH2 0x28F8 JUMP JUMPDEST PUSH1 0x1C DUP4 EQ ISZERO PUSH2 0x25DF JUMPI PUSH2 0x25D8 DUP3 PUSH1 0x8 PUSH1 0x63 DUP7 PUSH1 0x2 PUSH2 0x2E36 JUMP JUMPDEST SWAP1 POP PUSH2 0x28F8 JUMP JUMPDEST PUSH1 0x1D DUP4 EQ ISZERO PUSH2 0x25FF JUMPI PUSH2 0x25F8 DUP3 PUSH1 0x7 PUSH1 0x63 DUP7 PUSH1 0x1 PUSH2 0x2E36 JUMP JUMPDEST SWAP1 POP PUSH2 0x28F8 JUMP JUMPDEST PUSH1 0x1E DUP4 EQ ISZERO PUSH2 0x261F JUMPI PUSH2 0x2618 DUP3 PUSH1 0x7 PUSH1 0x63 DUP7 PUSH1 0x1 PUSH2 0x2E36 JUMP JUMPDEST SWAP1 POP PUSH2 0x28F8 JUMP JUMPDEST PUSH1 0x1F DUP4 EQ ISZERO PUSH2 0x263F JUMPI PUSH2 0x2638 DUP3 PUSH1 0x7 PUSH1 0x8 DUP7 PUSH1 0x3 PUSH2 0x2E36 JUMP JUMPDEST SWAP1 POP PUSH2 0x28F8 JUMP JUMPDEST PUSH1 0x20 DUP4 EQ ISZERO PUSH2 0x265F JUMPI PUSH2 0x2658 DUP3 PUSH1 0x7 PUSH1 0x63 DUP7 PUSH1 0x1 PUSH2 0x2E36 JUMP JUMPDEST SWAP1 POP PUSH2 0x28F8 JUMP JUMPDEST PUSH1 0x21 DUP4 EQ ISZERO PUSH2 0x267F JUMPI PUSH2 0x2678 DUP3 PUSH1 0x7 PUSH1 0x63 DUP7 PUSH1 0x2 PUSH2 0x2E36 JUMP JUMPDEST SWAP1 POP PUSH2 0x28F8 JUMP JUMPDEST PUSH1 0x22 DUP4 EQ ISZERO PUSH2 0x269F JUMPI PUSH2 0x2698 DUP3 PUSH1 0x7 PUSH1 0x8 DUP7 PUSH1 0x3 PUSH2 0x2E36 JUMP JUMPDEST SWAP1 POP PUSH2 0x28F8 JUMP JUMPDEST PUSH1 0x23 DUP4 EQ ISZERO PUSH2 0x26BF JUMPI PUSH2 0x26B8 DUP3 PUSH1 0x11 PUSH1 0x63 DUP7 PUSH1 0x1 PUSH2 0x2E36 JUMP JUMPDEST SWAP1 POP PUSH2 0x28F8 JUMP JUMPDEST PUSH1 0x24 DUP4 EQ ISZERO PUSH2 0x26DF JUMPI PUSH2 0x26D8 DUP3 PUSH1 0x11 PUSH1 0x63 DUP7 PUSH1 0x2 PUSH2 0x2E36 JUMP JUMPDEST SWAP1 POP PUSH2 0x28F8 JUMP JUMPDEST PUSH1 0x25 DUP4 EQ ISZERO PUSH2 0x26FF JUMPI PUSH2 0x26F8 DUP3 PUSH1 0x1 PUSH1 0x63 DUP7 PUSH1 0x2 PUSH2 0x2E36 JUMP JUMPDEST SWAP1 POP PUSH2 0x28F8 JUMP JUMPDEST PUSH1 0x26 DUP4 EQ ISZERO PUSH2 0x271F JUMPI PUSH2 0x2718 DUP3 PUSH1 0x1 PUSH1 0x63 DUP7 PUSH1 0x3 PUSH2 0x2E36 JUMP JUMPDEST SWAP1 POP PUSH2 0x28F8 JUMP JUMPDEST PUSH1 0x27 DUP4 EQ ISZERO PUSH2 0x273F JUMPI PUSH2 0x2738 DUP3 PUSH1 0x0 PUSH1 0x11 DUP7 PUSH1 0x1 PUSH2 0x2E36 JUMP JUMPDEST SWAP1 POP PUSH2 0x28F8 JUMP JUMPDEST PUSH1 0x28 DUP4 EQ ISZERO PUSH2 0x275F JUMPI PUSH2 0x2758 DUP3 PUSH1 0x0 PUSH1 0x11 DUP7 PUSH1 0x2 PUSH2 0x2E36 JUMP JUMPDEST SWAP1 POP PUSH2 0x28F8 JUMP JUMPDEST PUSH1 0x29 DUP4 EQ ISZERO PUSH2 0x277F JUMPI PUSH2 0x2778 DUP3 PUSH1 0x7 PUSH1 0x9 DUP7 PUSH1 0x1 PUSH2 0x2E36 JUMP JUMPDEST SWAP1 POP PUSH2 0x28F8 JUMP JUMPDEST PUSH1 0x2A DUP4 EQ ISZERO PUSH2 0x279F JUMPI PUSH2 0x2798 DUP3 PUSH1 0x7 PUSH1 0x9 DUP7 PUSH1 0x2 PUSH2 0x2E36 JUMP JUMPDEST SWAP1 POP PUSH2 0x28F8 JUMP JUMPDEST PUSH1 0x2B DUP4 EQ ISZERO PUSH2 0x27BF JUMPI PUSH2 0x27B8 DUP3 PUSH1 0x3 PUSH1 0x7 DUP7 PUSH1 0x1 PUSH2 0x2E36 JUMP JUMPDEST SWAP1 POP PUSH2 0x28F8 JUMP JUMPDEST PUSH1 0x2C DUP4 EQ ISZERO PUSH2 0x27DF JUMPI PUSH2 0x27D8 DUP3 PUSH1 0x3 PUSH1 0x7 DUP7 PUSH1 0x2 PUSH2 0x2E36 JUMP JUMPDEST SWAP1 POP PUSH2 0x28F8 JUMP JUMPDEST PUSH1 0x2D DUP4 EQ ISZERO PUSH2 0x27FF JUMPI PUSH2 0x27F8 DUP3 PUSH1 0x3 PUSH1 0x7 DUP7 PUSH1 0x3 PUSH2 0x2E36 JUMP JUMPDEST SWAP1 POP PUSH2 0x28F8 JUMP JUMPDEST PUSH1 0x2E DUP4 EQ ISZERO PUSH2 0x281F JUMPI PUSH2 0x2818 DUP3 PUSH1 0xB PUSH1 0x3 DUP7 PUSH1 0x1 PUSH2 0x2E36 JUMP JUMPDEST SWAP1 POP PUSH2 0x28F8 JUMP JUMPDEST PUSH1 0x2F DUP4 EQ ISZERO PUSH2 0x283F JUMPI PUSH2 0x2838 DUP3 PUSH1 0xB PUSH1 0x3 DUP7 PUSH1 0x2 PUSH2 0x2E36 JUMP JUMPDEST SWAP1 POP PUSH2 0x28F8 JUMP JUMPDEST PUSH1 0x30 DUP4 EQ ISZERO PUSH2 0x285F JUMPI PUSH2 0x2858 DUP3 PUSH1 0xB PUSH1 0x7 DUP7 PUSH1 0x1 PUSH2 0x2E36 JUMP JUMPDEST SWAP1 POP PUSH2 0x28F8 JUMP JUMPDEST PUSH1 0x31 DUP4 EQ ISZERO PUSH2 0x287F JUMPI PUSH2 0x2878 DUP3 PUSH1 0xB PUSH1 0x7 DUP7 PUSH1 0x3 PUSH2 0x2E36 JUMP JUMPDEST SWAP1 POP PUSH2 0x28F8 JUMP JUMPDEST PUSH1 0x32 DUP4 EQ ISZERO PUSH2 0x289F JUMPI PUSH2 0x2898 DUP3 PUSH1 0x8 PUSH1 0x63 DUP7 PUSH1 0x2 PUSH2 0x2E36 JUMP JUMPDEST SWAP1 POP PUSH2 0x28F8 JUMP JUMPDEST PUSH1 0x33 DUP4 EQ ISZERO PUSH2 0x28BF JUMPI PUSH2 0x28B8 DUP3 PUSH1 0x8 PUSH1 0x63 DUP7 PUSH1 0x3 PUSH2 0x2E36 JUMP JUMPDEST SWAP1 POP PUSH2 0x28F8 JUMP JUMPDEST PUSH1 0x34 DUP4 EQ ISZERO PUSH2 0x28DF JUMPI PUSH2 0x28D8 DUP3 PUSH1 0x0 PUSH1 0x63 DUP7 PUSH1 0x2 PUSH2 0x2E36 JUMP JUMPDEST SWAP1 POP PUSH2 0x28F8 JUMP JUMPDEST PUSH2 0x28F5 DUP3 PUSH1 0x0 PUSH1 0x63 DUP7 PUSH2 0x28F0 PUSH2 0x2F4A JUMP JUMPDEST PUSH2 0x2E36 JUMP JUMPDEST SWAP1 POP JUMPDEST SWAP3 SWAP2 POP POP JUMP JUMPDEST PUSH2 0x2918 DUP3 DUP3 PUSH1 0x40 MLOAD DUP1 PUSH1 0x20 ADD PUSH1 0x40 MSTORE DUP1 PUSH1 0x0 DUP2 MSTORE POP PUSH2 0x2F67 JUMP JUMPDEST POP POP JUMP JUMPDEST DUP2 PUSH20 0xFFFFFFFFFFFFFFFFFFFFFFFFFFFFFFFFFFFFFFFF AND DUP4 PUSH20 0xFFFFFFFFFFFFFFFFFFFFFFFFFFFFFFFFFFFFFFFF AND EQ ISZERO PUSH2 0x298B JUMPI PUSH1 0x40 MLOAD PUSH32 0x8C379A000000000000000000000000000000000000000000000000000000000 DUP2 MSTORE PUSH1 0x4 ADD PUSH2 0x2982 SWAP1 PUSH2 0x4367 JUMP JUMPDEST PUSH1 0x40 MLOAD DUP1 SWAP2 SUB SWAP1 REVERT JUMPDEST DUP1 PUSH1 0x5 PUSH1 0x0 DUP6 PUSH20 0xFFFFFFFFFFFFFFFFFFFFFFFFFFFFFFFFFFFFFFFF AND PUSH20 0xFFFFFFFFFFFFFFFFFFFFFFFFFFFFFFFFFFFFFFFF AND DUP2 MSTORE PUSH1 0x20 ADD SWAP1 DUP2 MSTORE PUSH1 0x20 ADD PUSH1 0x0 KECCAK256 PUSH1 0x0 DUP5 PUSH20 0xFFFFFFFFFFFFFFFFFFFFFFFFFFFFFFFFFFFFFFFF AND PUSH20 0xFFFFFFFFFFFFFFFFFFFFFFFFFFFFFFFFFFFFFFFF AND DUP2 MSTORE PUSH1 0x20 ADD SWAP1 DUP2 MSTORE PUSH1 0x20 ADD PUSH1 0x0 KECCAK256 PUSH1 0x0 PUSH2 0x100 EXP DUP2 SLOAD DUP2 PUSH1 0xFF MUL NOT AND SWAP1 DUP4 ISZERO ISZERO MUL OR SWAP1 SSTORE POP DUP2 PUSH20 0xFFFFFFFFFFFFFFFFFFFFFFFFFFFFFFFFFFFFFFFF AND DUP4 PUSH20 0xFFFFFFFFFFFFFFFFFFFFFFFFFFFFFFFFFFFFFFFF AND PUSH32 0x17307EAB39AB6107E8899845AD3D59BD9653F200F220920489CA2B5937696C31 DUP4 PUSH1 0x40 MLOAD PUSH2 0x2A7C SWAP2 SWAP1 PUSH2 0x4254 JUMP JUMPDEST PUSH1 0x40 MLOAD DUP1 SWAP2 SUB SWAP1 LOG3 POP POP POP JUMP JUMPDEST PUSH2 0x2A94 DUP5 DUP5 DUP5 PUSH2 0x1EE8 JUMP JUMPDEST PUSH2 0x2AA0 DUP5 DUP5 DUP5 DUP5 PUSH2 0x2FC2 JUMP JUMPDEST PUSH2 0x2ADF JUMPI PUSH1 0x40 MLOAD PUSH32 0x8C379A000000000000000000000000000000000000000000000000000000000 DUP2 MSTORE PUSH1 0x4 ADD PUSH2 0x2AD6 SWAP1 PUSH2 0x42E7 JUMP JUMPDEST PUSH1 0x40 MLOAD DUP1 SWAP2 SUB SWAP1 REVERT JUMPDEST POP POP POP POP JUMP JUMPDEST PUSH1 0x60 PUSH1 0x40 MLOAD DUP1 PUSH1 0x20 ADD PUSH1 0x40 MSTORE DUP1 PUSH1 0x0 DUP2 MSTORE POP SWAP1 POP SWAP1 JUMP JUMPDEST PUSH1 0x60 PUSH1 0x0 DUP3 EQ ISZERO PUSH2 0x2B44 JUMPI PUSH1 0x40 MLOAD DUP1 PUSH1 0x40 ADD PUSH1 0x40 MSTORE DUP1 PUSH1 0x1 DUP2 MSTORE PUSH1 0x20 ADD PUSH32 0x3000000000000000000000000000000000000000000000000000000000000000 DUP2 MSTORE POP SWAP1 POP PUSH2 0x2C58 JUMP JUMPDEST PUSH1 0x0 DUP3 SWAP1 POP PUSH1 0x0 JUMPDEST PUSH1 0x0 DUP3 EQ PUSH2 0x2B76 JUMPI DUP1 DUP1 PUSH2 0x2B5F SWAP1 PUSH2 0x49CE JUMP JUMPDEST SWAP2 POP POP PUSH1 0xA DUP3 PUSH2 0x2B6F SWAP2 SWAP1 PUSH2 0x4822 JUMP JUMPDEST SWAP2 POP PUSH2 0x2B4C JUMP JUMPDEST PUSH1 0x0 DUP2 PUSH8 0xFFFFFFFFFFFFFFFF DUP2 GT ISZERO PUSH2 0x2B92 JUMPI PUSH2 0x2B91 PUSH2 0x4B3D JUMP JUMPDEST JUMPDEST PUSH1 0x40 MLOAD SWAP1 DUP1 DUP3 MSTORE DUP1 PUSH1 0x1F ADD PUSH1 0x1F NOT AND PUSH1 0x20 ADD DUP3 ADD PUSH1 0x40 MSTORE DUP1 ISZERO PUSH2 0x2BC4 JUMPI DUP2 PUSH1 0x20 ADD PUSH1 0x1 DUP3 MUL DUP1 CALLDATASIZE DUP4 CALLDATACOPY DUP1 DUP3 ADD SWAP2 POP POP SWAP1 POP JUMPDEST POP SWAP1 POP JUMPDEST PUSH1 0x0 DUP6 EQ PUSH2 0x2C51 JUMPI PUSH1 0x1 DUP3 PUSH2 0x2BDD SWAP2 SWAP1 PUSH2 0x4853 JUMP JUMPDEST SWAP2 POP PUSH1 0xA DUP6 PUSH2 0x2BEC SWAP2 SWAP1 PUSH2 0x4A21 JUMP JUMPDEST PUSH1 0x30 PUSH2 0x2BF8 SWAP2 SWAP1 PUSH2 0x47CC JUMP JUMPDEST PUSH1 0xF8 SHL DUP2 DUP4 DUP2 MLOAD DUP2 LT PUSH2 0x2C0E JUMPI PUSH2 0x2C0D PUSH2 0x4B0E JUMP JUMPDEST JUMPDEST PUSH1 0x20 ADD ADD SWAP1 PUSH31 0xFFFFFFFFFFFFFFFFFFFFFFFFFFFFFFFFFFFFFFFFFFFFFFFFFFFFFFFFFFFFFF NOT AND SWAP1 DUP2 PUSH1 0x0 BYTE SWAP1 MSTORE8 POP PUSH1 0xA DUP6 PUSH2 0x2C4A SWAP2 SWAP1 PUSH2 0x4822 JUMP JUMPDEST SWAP5 POP PUSH2 0x2BC8 JUMP JUMPDEST DUP1 SWAP4 POP POP POP POP JUMPDEST SWAP2 SWAP1 POP JUMP JUMPDEST PUSH1 0x0 PUSH32 0x80AC58CD00000000000000000000000000000000000000000000000000000000 PUSH28 0xFFFFFFFFFFFFFFFFFFFFFFFFFFFFFFFFFFFFFFFFFFFFFFFFFFFFFFFF NOT AND DUP3 PUSH28 0xFFFFFFFFFFFFFFFFFFFFFFFFFFFFFFFFFFFFFFFFFFFFFFFFFFFFFFFF NOT AND EQ DUP1 PUSH2 0x2D28 JUMPI POP PUSH32 0x5B5E139F00000000000000000000000000000000000000000000000000000000 PUSH28 0xFFFFFFFFFFFFFFFFFFFFFFFFFFFFFFFFFFFFFFFFFFFFFFFFFFFFFFFF NOT AND DUP3 PUSH28 0xFFFFFFFFFFFFFFFFFFFFFFFFFFFFFFFFFFFFFFFFFFFFFFFFFFFFFFFF NOT AND EQ JUMPDEST DUP1 PUSH2 0x2D38 JUMPI POP PUSH2 0x2D37 DUP3 PUSH2 0x3159 JUMP JUMPDEST JUMPDEST SWAP1 POP SWAP2 SWAP1 POP JUMP JUMPDEST PUSH2 0x2D4A DUP4 DUP4 DUP4 PUSH2 0x31C3 JUMP JUMPDEST POP POP POP JUMP JUMPDEST POP POP POP JUMP JUMPDEST PUSH1 0x0 PUSH2 0x2D60 PUSH1 0x11 PUSH2 0x32D7 JUMP JUMPDEST SWAP1 POP SWAP1 JUMP JUMPDEST PUSH1 0x0 PUSH1 0x28 PUSH2 0x2D73 PUSH1 0x32 PUSH2 0x32D7 JUMP JUMPDEST PUSH2 0x2D7D SWAP2 SWAP1 PUSH2 0x47CC JUMP JUMPDEST SWAP1 POP SWAP1 JUMP JUMPDEST PUSH2 0x2D8A PUSH2 0x384C JUMP JUMPDEST PUSH1 0x40 MLOAD DUP1 PUSH2 0x180 ADD PUSH1 0x40 MSTORE DUP1 DUP15 DUP2 MSTORE PUSH1 0x20 ADD PUSH2 0x2DA4 PUSH2 0x3333 JUMP JUMPDEST DUP15 PUSH2 0x2DAF SWAP2 SWAP1 PUSH2 0x47CC JUMP JUMPDEST DUP2 MSTORE PUSH1 0x20 ADD PUSH2 0x2DBC PUSH2 0x3333 JUMP JUMPDEST DUP14 PUSH2 0x2DC7 SWAP2 SWAP1 PUSH2 0x47CC JUMP JUMPDEST DUP2 MSTORE PUSH1 0x20 ADD PUSH2 0x2DD4 PUSH2 0x3333 JUMP JUMPDEST DUP13 PUSH2 0x2DDF SWAP2 SWAP1 PUSH2 0x47CC JUMP JUMPDEST DUP2 MSTORE PUSH1 0x20 ADD PUSH2 0x2DEC PUSH2 0x3333 JUMP JUMPDEST DUP12 PUSH2 0x2DF7 SWAP2 SWAP1 PUSH2 0x47CC JUMP JUMPDEST DUP2 MSTORE PUSH1 0x20 ADD DUP10 DUP2 MSTORE PUSH1 0x20 ADD DUP9 DUP2 MSTORE PUSH1 0x20 ADD DUP8 DUP2 MSTORE PUSH1 0x20 ADD DUP7 DUP2 MSTORE PUSH1 0x20 ADD DUP6 DUP2 MSTORE PUSH1 0x20 ADD DUP5 DUP2 MSTORE PUSH1 0x20 ADD DUP4 DUP2 MSTORE POP SWAP1 POP SWAP13 SWAP12 POP POP POP POP POP POP POP POP POP POP POP POP JUMP JUMPDEST PUSH2 0x2E3E PUSH2 0x384C JUMP JUMPDEST PUSH1 0x0 PUSH1 0x64 SWAP1 POP PUSH1 0x2 DUP4 EQ ISZERO PUSH2 0x2E5D JUMPI PUSH1 0x14 DUP2 PUSH2 0x2E5A SWAP2 SWAP1 PUSH2 0x47CC JUMP JUMPDEST SWAP1 POP JUMPDEST PUSH1 0x3 DUP4 EQ ISZERO PUSH2 0x2E76 JUMPI PUSH1 0x32 DUP2 PUSH2 0x2E73 SWAP2 SWAP1 PUSH2 0x47CC JUMP JUMPDEST SWAP1 POP JUMPDEST PUSH1 0x4 DUP4 EQ ISZERO PUSH2 0x2E8F JUMPI PUSH1 0x46 DUP2 PUSH2 0x2E8C SWAP2 SWAP1 PUSH2 0x47CC JUMP JUMPDEST SWAP1 POP JUMPDEST PUSH1 0x40 MLOAD DUP1 PUSH2 0x180 ADD PUSH1 0x40 MSTORE DUP1 DUP9 DUP2 MSTORE PUSH1 0x20 ADD PUSH2 0x2EA9 PUSH2 0x3333 JUMP JUMPDEST DUP4 PUSH2 0x2EB4 SWAP2 SWAP1 PUSH2 0x47CC JUMP JUMPDEST DUP2 MSTORE PUSH1 0x20 ADD PUSH2 0x2EC1 PUSH2 0x3333 JUMP JUMPDEST DUP4 PUSH2 0x2ECC SWAP2 SWAP1 PUSH2 0x47CC JUMP JUMPDEST DUP2 MSTORE PUSH1 0x20 ADD PUSH2 0x2ED9 PUSH2 0x3333 JUMP JUMPDEST DUP4 PUSH2 0x2EE4 SWAP2 SWAP1 PUSH2 0x47CC JUMP JUMPDEST DUP2 MSTORE PUSH1 0x20 ADD PUSH2 0x2EF1 PUSH2 0x3333 JUMP JUMPDEST DUP4 PUSH2 0x2EFC SWAP2 SWAP1 PUSH2 0x47CC JUMP JUMPDEST DUP2 MSTORE PUSH1 0x20 ADD DUP8 DUP2 MSTORE PUSH1 0x20 ADD DUP7 DUP2 MSTORE PUSH1 0x20 ADD DUP8 DUP2 MSTORE PUSH1 0x20 ADD PUSH2 0x2F1B PUSH2 0x2D65 JUMP JUMPDEST DUP2 MSTORE PUSH1 0x20 ADD PUSH2 0x2F28 PUSH2 0x2D54 JUMP JUMPDEST DUP2 MSTORE PUSH1 0x20 ADD PUSH2 0x2F35 PUSH2 0x2D65 JUMP JUMPDEST DUP2 MSTORE PUSH1 0x20 ADD DUP6 DUP2 MSTORE POP SWAP2 POP POP SWAP6 SWAP5 POP POP POP POP POP JUMP JUMPDEST PUSH1 0x0 PUSH1 0x1 PUSH2 0x2F58 PUSH1 0x2 PUSH2 0x32D7 JUMP JUMPDEST PUSH2 0x2F62 SWAP2 SWAP1 PUSH2 0x47CC JUMP JUMPDEST SWAP1 POP SWAP1 JUMP JUMPDEST PUSH2 0x2F71 DUP4 DUP4 PUSH2 0x3344 JUMP JUMPDEST PUSH2 0x2F7E PUSH1 0x0 DUP5 DUP5 DUP5 PUSH2 0x2FC2 JUMP JUMPDEST PUSH2 0x2FBD JUMPI PUSH1 0x40 MLOAD PUSH32 0x8C379A000000000000000000000000000000000000000000000000000000000 DUP2 MSTORE PUSH1 0x4 ADD PUSH2 0x2FB4 SWAP1 PUSH2 0x42E7 JUMP JUMPDEST PUSH1 0x40 MLOAD DUP1 SWAP2 SUB SWAP1 REVERT JUMPDEST POP POP POP JUMP JUMPDEST PUSH1 0x0 PUSH2 0x2FE3 DUP5 PUSH20 0xFFFFFFFFFFFFFFFFFFFFFFFFFFFFFFFFFFFFFFFF AND PUSH2 0x351E JUMP JUMPDEST ISZERO PUSH2 0x314C JUMPI DUP4 PUSH20 0xFFFFFFFFFFFFFFFFFFFFFFFFFFFFFFFFFFFFFFFF AND PUSH4 0x150B7A02 PUSH2 0x300C PUSH2 0x1D49 JUMP JUMPDEST DUP8 DUP7 DUP7 PUSH1 0x40 MLOAD DUP6 PUSH4 0xFFFFFFFF AND PUSH1 0xE0 SHL DUP2 MSTORE PUSH1 0x4 ADD PUSH2 0x302E SWAP5 SWAP4 SWAP3 SWAP2 SWAP1 PUSH2 0x4208 JUMP JUMPDEST PUSH1 0x20 PUSH1 0x40 MLOAD DUP1 DUP4 SUB DUP2 PUSH1 0x0 DUP8 DUP1 EXTCODESIZE ISZERO DUP1 ISZERO PUSH2 0x3048 JUMPI PUSH1 0x0 DUP1 REVERT JUMPDEST POP GAS CALL SWAP3 POP POP POP DUP1 ISZERO PUSH2 0x3079 JUMPI POP PUSH1 0x40 MLOAD RETURNDATASIZE PUSH1 0x1F NOT PUSH1 0x1F DUP3 ADD AND DUP3 ADD DUP1 PUSH1 0x40 MSTORE POP DUP2 ADD SWAP1 PUSH2 0x3076 SWAP2 SWAP1 PUSH2 0x3BB8 JUMP JUMPDEST PUSH1 0x1 JUMPDEST PUSH2 0x30FC JUMPI RETURNDATASIZE DUP1 PUSH1 0x0 DUP2 EQ PUSH2 0x30A9 JUMPI PUSH1 0x40 MLOAD SWAP2 POP PUSH1 0x1F NOT PUSH1 0x3F RETURNDATASIZE ADD AND DUP3 ADD PUSH1 0x40 MSTORE RETURNDATASIZE DUP3 MSTORE RETURNDATASIZE PUSH1 0x0 PUSH1 0x20 DUP5 ADD RETURNDATACOPY PUSH2 0x30AE JUMP JUMPDEST PUSH1 0x60 SWAP2 POP JUMPDEST POP PUSH1 0x0 DUP2 MLOAD EQ ISZERO PUSH2 0x30F4 JUMPI PUSH1 0x40 MLOAD PUSH32 0x8C379A000000000000000000000000000000000000000000000000000000000 DUP2 MSTORE PUSH1 0x4 ADD PUSH2 0x30EB SWAP1 PUSH2 0x42E7 JUMP JUMPDEST PUSH1 0x40 MLOAD DUP1 SWAP2 SUB SWAP1 REVERT JUMPDEST DUP1 MLOAD DUP2 PUSH1 0x20 ADD REVERT JUMPDEST PUSH4 0x150B7A02 PUSH1 0xE0 SHL PUSH28 0xFFFFFFFFFFFFFFFFFFFFFFFFFFFFFFFFFFFFFFFFFFFFFFFFFFFFFFFF NOT AND DUP2 PUSH28 0xFFFFFFFFFFFFFFFFFFFFFFFFFFFFFFFFFFFFFFFFFFFFFFFFFFFFFFFF NOT AND EQ SWAP2 POP POP PUSH2 0x3151 JUMP JUMPDEST PUSH1 0x1 SWAP1 POP JUMPDEST SWAP5 SWAP4 POP POP POP POP JUMP JUMPDEST PUSH1 0x0 PUSH32 0x1FFC9A700000000000000000000000000000000000000000000000000000000 PUSH28 0xFFFFFFFFFFFFFFFFFFFFFFFFFFFFFFFFFFFFFFFFFFFFFFFFFFFFFFFF NOT AND DUP3 PUSH28 0xFFFFFFFFFFFFFFFFFFFFFFFFFFFFFFFFFFFFFFFFFFFFFFFFFFFFFFFF NOT AND EQ SWAP1 POP SWAP2 SWAP1 POP JUMP JUMPDEST PUSH2 0x31CE DUP4 DUP4 DUP4 PUSH2 0x3541 JUMP JUMPDEST PUSH1 0x0 PUSH20 0xFFFFFFFFFFFFFFFFFFFFFFFFFFFFFFFFFFFFFFFF AND DUP4 PUSH20 0xFFFFFFFFFFFFFFFFFFFFFFFFFFFFFFFFFFFFFFFF AND EQ ISZERO PUSH2 0x3211 JUMPI PUSH2 0x320C DUP2 PUSH2 0x3546 JUMP JUMPDEST PUSH2 0x3250 JUMP JUMPDEST DUP2 PUSH20 0xFFFFFFFFFFFFFFFFFFFFFFFFFFFFFFFFFFFFFFFF AND DUP4 PUSH20 0xFFFFFFFFFFFFFFFFFFFFFFFFFFFFFFFFFFFFFFFF AND EQ PUSH2 0x324F JUMPI PUSH2 0x324E DUP4 DUP3 PUSH2 0x358F JUMP JUMPDEST JUMPDEST JUMPDEST PUSH1 0x0 PUSH20 0xFFFFFFFFFFFFFFFFFFFFFFFFFFFFFFFFFFFFFFFF AND DUP3 PUSH20 0xFFFFFFFFFFFFFFFFFFFFFFFFFFFFFFFFFFFFFFFF AND EQ ISZERO PUSH2 0x3293 JUMPI PUSH2 0x328E DUP2 PUSH2 0x36FC JUMP JUMPDEST PUSH2 0x32D2 JUMP JUMPDEST DUP3 PUSH20 0xFFFFFFFFFFFFFFFFFFFFFFFFFFFFFFFFFFFFFFFF AND DUP3 PUSH20 0xFFFFFFFFFFFFFFFFFFFFFFFFFFFFFFFFFFFFFFFF AND EQ PUSH2 0x32D1 JUMPI PUSH2 0x32D0 DUP3 DUP3 PUSH2 0x37CD JUMP JUMPDEST JUMPDEST JUMPDEST POP POP POP JUMP JUMPDEST PUSH1 0x0 PUSH1 0xD PUSH1 0x0 DUP2 SLOAD DUP1 SWAP3 SWAP2 SWAP1 PUSH2 0x32EC SWAP1 PUSH2 0x49CE JUMP JUMPDEST SWAP2 SWAP1 POP SSTORE POP DUP2 DIFFICULTY TIMESTAMP PUSH1 0xD SLOAD PUSH1 0x40 MLOAD PUSH1 0x20 ADD PUSH2 0x3309 SWAP4 SWAP3 SWAP2 SWAP1 PUSH2 0x41B0 JUMP JUMPDEST PUSH1 0x40 MLOAD PUSH1 0x20 DUP2 DUP4 SUB SUB DUP2 MSTORE SWAP1 PUSH1 0x40 MSTORE DUP1 MLOAD SWAP1 PUSH1 0x20 ADD KECCAK256 PUSH1 0x0 SHR PUSH2 0x332C SWAP2 SWAP1 PUSH2 0x4A21 JUMP JUMPDEST SWAP1 POP SWAP2 SWAP1 POP JUMP JUMPDEST PUSH1 0x0 PUSH2 0x333F PUSH1 0x14 PUSH2 0x32D7 JUMP JUMPDEST SWAP1 POP SWAP1 JUMP JUMPDEST PUSH1 0x0 PUSH20 0xFFFFFFFFFFFFFFFFFFFFFFFFFFFFFFFFFFFFFFFF AND DUP3 PUSH20 0xFFFFFFFFFFFFFFFFFFFFFFFFFFFFFFFFFFFFFFFF AND EQ ISZERO PUSH2 0x33B4 JUMPI PUSH1 0x40 MLOAD PUSH32 0x8C379A000000000000000000000000000000000000000000000000000000000 DUP2 MSTORE PUSH1 0x4 ADD PUSH2 0x33AB SWAP1 PUSH2 0x4407 JUMP JUMPDEST PUSH1 0x40 MLOAD DUP1 SWAP2 SUB SWAP1 REVERT JUMPDEST PUSH2 0x33BD DUP2 PUSH2 0x1CDD JUMP JUMPDEST ISZERO PUSH2 0x33FD JUMPI PUSH1 0x40 MLOAD PUSH32 0x8C379A000000000000000000000000000000000000000000000000000000000 DUP2 MSTORE PUSH1 0x4 ADD PUSH2 0x33F4 SWAP1 PUSH2 0x4327 JUMP JUMPDEST PUSH1 0x40 MLOAD DUP1 SWAP2 SUB SWAP1 REVERT JUMPDEST PUSH2 0x3409 PUSH1 0x0 DUP4 DUP4 PUSH2 0x2D3F JUMP JUMPDEST PUSH1 0x1 PUSH1 0x3 PUSH1 0x0 DUP5 PUSH20 0xFFFFFFFFFFFFFFFFFFFFFFFFFFFFFFFFFFFFFFFF AND PUSH20 0xFFFFFFFFFFFFFFFFFFFFFFFFFFFFFFFFFFFFFFFF AND DUP2 MSTORE PUSH1 0x20 ADD SWAP1 DUP2 MSTORE PUSH1 0x20 ADD PUSH1 0x0 KECCAK256 PUSH1 0x0 DUP3 DUP3 SLOAD PUSH2 0x3459 SWAP2 SWAP1 PUSH2 0x47CC JUMP JUMPDEST SWAP3 POP POP DUP2 SWAP1 SSTORE POP DUP2 PUSH1 0x2 PUSH1 0x0 DUP4 DUP2 MSTORE PUSH1 0x20 ADD SWAP1 DUP2 MSTORE PUSH1 0x20 ADD PUSH1 0x0 KECCAK256 PUSH1 0x0 PUSH2 0x100 EXP DUP2 SLOAD DUP2 PUSH20 0xFFFFFFFFFFFFFFFFFFFFFFFFFFFFFFFFFFFFFFFF MUL NOT AND SWAP1 DUP4 PUSH20 0xFFFFFFFFFFFFFFFFFFFFFFFFFFFFFFFFFFFFFFFF AND MUL OR SWAP1 SSTORE POP DUP1 DUP3 PUSH20 0xFFFFFFFFFFFFFFFFFFFFFFFFFFFFFFFFFFFFFFFF AND PUSH1 0x0 PUSH20 0xFFFFFFFFFFFFFFFFFFFFFFFFFFFFFFFFFFFFFFFF AND PUSH32 0xDDF252AD1BE2C89B69C2B068FC378DAA952BA7F163C4A11628F55A4DF523B3EF PUSH1 0x40 MLOAD PUSH1 0x40 MLOAD DUP1 SWAP2 SUB SWAP1 LOG4 PUSH2 0x351A PUSH1 0x0 DUP4 DUP4 PUSH2 0x2D4F JUMP JUMPDEST POP POP JUMP JUMPDEST PUSH1 0x0 DUP1 DUP3 PUSH20 0xFFFFFFFFFFFFFFFFFFFFFFFFFFFFFFFFFFFFFFFF AND EXTCODESIZE GT SWAP1 POP SWAP2 SWAP1 POP JUMP JUMPDEST POP POP POP JUMP JUMPDEST PUSH1 0x8 DUP1 SLOAD SWAP1 POP PUSH1 0x9 PUSH1 0x0 DUP4 DUP2 MSTORE PUSH1 0x20 ADD SWAP1 DUP2 MSTORE PUSH1 0x20 ADD PUSH1 0x0 KECCAK256 DUP2 SWAP1 SSTORE POP PUSH1 0x8 DUP2 SWAP1 DUP1 PUSH1 0x1 DUP2 SLOAD ADD DUP1 DUP3 SSTORE DUP1 SWAP2 POP POP PUSH1 0x1 SWAP1 SUB SWAP1 PUSH1 0x0 MSTORE PUSH1 0x20 PUSH1 0x0 KECCAK256 ADD PUSH1 0x0 SWAP1 SWAP2 SWAP1 SWAP2 SWAP1 SWAP2 POP SSTORE POP JUMP JUMPDEST PUSH1 0x0 PUSH1 0x1 PUSH2 0x359C DUP5 PUSH2 0xEE8 JUMP JUMPDEST PUSH2 0x35A6 SWAP2 SWAP1 PUSH2 0x4853 JUMP JUMPDEST SWAP1 POP PUSH1 0x0 PUSH1 0x7 PUSH1 0x0 DUP5 DUP2 MSTORE PUSH1 0x20 ADD SWAP1 DUP2 MSTORE PUSH1 0x20 ADD PUSH1 0x0 KECCAK256 SLOAD SWAP1 POP DUP2 DUP2 EQ PUSH2 0x368B JUMPI PUSH1 0x0 PUSH1 0x6 PUSH1 0x0 DUP7 PUSH20 0xFFFFFFFFFFFFFFFFFFFFFFFFFFFFFFFFFFFFFFFF AND PUSH20 0xFFFFFFFFFFFFFFFFFFFFFFFFFFFFFFFFFFFFFFFF AND DUP2 MSTORE PUSH1 0x20 ADD SWAP1 DUP2 MSTORE PUSH1 0x20 ADD PUSH1 0x0 KECCAK256 PUSH1 0x0 DUP5 DUP2 MSTORE PUSH1 0x20 ADD SWAP1 DUP2 MSTORE PUSH1 0x20 ADD PUSH1 0x0 KECCAK256 SLOAD SWAP1 POP DUP1 PUSH1 0x6 PUSH1 0x0 DUP8 PUSH20 0xFFFFFFFFFFFFFFFFFFFFFFFFFFFFFFFFFFFFFFFF AND PUSH20 0xFFFFFFFFFFFFFFFFFFFFFFFFFFFFFFFFFFFFFFFF AND DUP2 MSTORE PUSH1 0x20 ADD SWAP1 DUP2 MSTORE PUSH1 0x20 ADD PUSH1 0x0 KECCAK256 PUSH1 0x0 DUP5 DUP2 MSTORE PUSH1 0x20 ADD SWAP1 DUP2 MSTORE PUSH1 0x20 ADD PUSH1 0x0 KECCAK256 DUP2 SWAP1 SSTORE POP DUP2 PUSH1 0x7 PUSH1 0x0 DUP4 DUP2 MSTORE PUSH1 0x20 ADD SWAP1 DUP2 MSTORE PUSH1 0x20 ADD PUSH1 0x0 KECCAK256 DUP2 SWAP1 SSTORE POP POP JUMPDEST PUSH1 0x7 PUSH1 0x0 DUP5 DUP2 MSTORE PUSH1 0x20 ADD SWAP1 DUP2 MSTORE PUSH1 0x20 ADD PUSH1 0x0 KECCAK256 PUSH1 0x0 SWAP1 SSTORE PUSH1 0x6 PUSH1 0x0 DUP6 PUSH20 0xFFFFFFFFFFFFFFFFFFFFFFFFFFFFFFFFFFFFFFFF AND PUSH20 0xFFFFFFFFFFFFFFFFFFFFFFFFFFFFFFFFFFFFFFFF AND DUP2 MSTORE PUSH1 0x20 ADD SWAP1 DUP2 MSTORE PUSH1 0x20 ADD PUSH1 0x0 KECCAK256 PUSH1 0x0 DUP4 DUP2 MSTORE PUSH1 0x20 ADD SWAP1 DUP2 MSTORE PUSH1 0x20 ADD PUSH1 0x0 KECCAK256 PUSH1 0x0 SWAP1 SSTORE POP POP POP POP JUMP JUMPDEST PUSH1 0x0 PUSH1 0x1 PUSH1 0x8 DUP1 SLOAD SWAP1 POP PUSH2 0x3710 SWAP2 SWAP1 PUSH2 0x4853 JUMP JUMPDEST SWAP1 POP PUSH1 0x0 PUSH1 0x9 PUSH1 0x0 DUP5 DUP2 MSTORE PUSH1 0x20 ADD SWAP1 DUP2 MSTORE PUSH1 0x20 ADD PUSH1 0x0 KECCAK256 SLOAD SWAP1 POP PUSH1 0x0 PUSH1 0x8 DUP4 DUP2 SLOAD DUP2 LT PUSH2 0x3740 JUMPI PUSH2 0x373F PUSH2 0x4B0E JUMP JUMPDEST JUMPDEST SWAP1 PUSH1 0x0 MSTORE PUSH1 0x20 PUSH1 0x0 KECCAK256 ADD SLOAD SWAP1 POP DUP1 PUSH1 0x8 DUP4 DUP2 SLOAD DUP2 LT PUSH2 0x3762 JUMPI PUSH2 0x3761 PUSH2 0x4B0E JUMP JUMPDEST JUMPDEST SWAP1 PUSH1 0x0 MSTORE PUSH1 0x20 PUSH1 0x0 KECCAK256 ADD DUP2 SWAP1 SSTORE POP DUP2 PUSH1 0x9 PUSH1 0x0 DUP4 DUP2 MSTORE PUSH1 0x20 ADD SWAP1 DUP2 MSTORE PUSH1 0x20 ADD PUSH1 0x0 KECCAK256 DUP2 SWAP1 SSTORE POP PUSH1 0x9 PUSH1 0x0 DUP6 DUP2 MSTORE PUSH1 0x20 ADD SWAP1 DUP2 MSTORE PUSH1 0x20 ADD PUSH1 0x0 KECCAK256 PUSH1 0x0 SWAP1 SSTORE PUSH1 0x8 DUP1 SLOAD DUP1 PUSH2 0x37B1 JUMPI PUSH2 0x37B0 PUSH2 0x4ADF JUMP JUMPDEST JUMPDEST PUSH1 0x1 SWAP1 SUB DUP2 DUP2 SWAP1 PUSH1 0x0 MSTORE PUSH1 0x20 PUSH1 0x0 KECCAK256 ADD PUSH1 0x0 SWAP1 SSTORE SWAP1 SSTORE POP POP POP POP JUMP JUMPDEST PUSH1 0x0 PUSH2 0x37D8 DUP4 PUSH2 0xEE8 JUMP JUMPDEST SWAP1 POP DUP2 PUSH1 0x6 PUSH1 0x0 DUP6 PUSH20 0xFFFFFFFFFFFFFFFFFFFFFFFFFFFFFFFFFFFFFFFF AND PUSH20 0xFFFFFFFFFFFFFFFFFFFFFFFFFFFFFFFFFFFFFFFF AND DUP2 MSTORE PUSH1 0x20 ADD SWAP1 DUP2 MSTORE PUSH1 0x20 ADD PUSH1 0x0 KECCAK256 PUSH1 0x0 DUP4 DUP2 MSTORE PUSH1 0x20 ADD SWAP1 DUP2 MSTORE PUSH1 0x20 ADD PUSH1 0x0 KECCAK256 DUP2 SWAP1 SSTORE POP DUP1 PUSH1 0x7 PUSH1 0x0 DUP5 DUP2 MSTORE PUSH1 0x20 ADD SWAP1 DUP2 MSTORE PUSH1 0x20 ADD PUSH1 0x0 KECCAK256 DUP2 SWAP1 SSTORE POP POP POP POP JUMP JUMPDEST PUSH1 0x40 MLOAD DUP1 PUSH2 0x180 ADD PUSH1 0x40 MSTORE DUP1 PUSH1 0x0 DUP2 MSTORE PUSH1 0x20 ADD PUSH1 0x0 DUP2 MSTORE PUSH1 0x20 ADD PUSH1 0x0 DUP2 MSTORE PUSH1 0x20 ADD PUSH1 0x0 DUP2 MSTORE PUSH1 0x20 ADD PUSH1 0x0 DUP2 MSTORE PUSH1 0x20 ADD PUSH1 0x0 DUP2 MSTORE PUSH1 0x20 ADD PUSH1 0x0 DUP2 MSTORE PUSH1 0x20 ADD PUSH1 0x0 DUP2 MSTORE PUSH1 0x20 ADD PUSH1 0x0 DUP2 MSTORE PUSH1 0x20 ADD PUSH1 0x0 DUP2 MSTORE PUSH1 0x20 ADD PUSH1 0x0 DUP2 MSTORE PUSH1 0x20 ADD PUSH1 0x0 DUP2 MSTORE POP SWAP1 JUMP JUMPDEST PUSH1 0x0 PUSH2 0x38C0 PUSH2 0x38BB DUP5 PUSH2 0x471F JUMP JUMPDEST PUSH2 0x46FA JUMP JUMPDEST SWAP1 POP DUP3 DUP2 MSTORE PUSH1 0x20 DUP2 ADD DUP5 DUP5 DUP5 ADD GT ISZERO PUSH2 0x38DC JUMPI PUSH2 0x38DB PUSH2 0x4B71 JUMP JUMPDEST JUMPDEST PUSH2 0x38E7 DUP5 DUP3 DUP6 PUSH2 0x4929 JUMP JUMPDEST POP SWAP4 SWAP3 POP POP POP JUMP JUMPDEST PUSH1 0x0 DUP2 CALLDATALOAD SWAP1 POP PUSH2 0x38FE DUP2 PUSH2 0x505E JUMP JUMPDEST SWAP3 SWAP2 POP POP JUMP JUMPDEST PUSH1 0x0 DUP2 CALLDATALOAD SWAP1 POP PUSH2 0x3913 DUP2 PUSH2 0x5075 JUMP JUMPDEST SWAP3 SWAP2 POP POP JUMP JUMPDEST PUSH1 0x0 DUP2 MLOAD SWAP1 POP PUSH2 0x3928 DUP2 PUSH2 0x508C JUMP JUMPDEST SWAP3 SWAP2 POP POP JUMP JUMPDEST PUSH1 0x0 DUP2 CALLDATALOAD SWAP1 POP PUSH2 0x393D DUP2 PUSH2 0x50A3 JUMP JUMPDEST SWAP3 SWAP2 POP POP JUMP JUMPDEST PUSH1 0x0 DUP2 MLOAD SWAP1 POP PUSH2 0x3952 DUP2 PUSH2 0x50A3 JUMP JUMPDEST SWAP3 SWAP2 POP POP JUMP JUMPDEST PUSH1 0x0 DUP3 PUSH1 0x1F DUP4 ADD SLT PUSH2 0x396D JUMPI PUSH2 0x396C PUSH2 0x4B6C JUMP JUMPDEST JUMPDEST DUP2 CALLDATALOAD PUSH2 0x397D DUP5 DUP3 PUSH1 0x20 DUP7 ADD PUSH2 0x38AD JUMP JUMPDEST SWAP2 POP POP SWAP3 SWAP2 POP POP JUMP JUMPDEST PUSH1 0x0 DUP2 CALLDATALOAD SWAP1 POP PUSH2 0x3995 DUP2 PUSH2 0x50BA JUMP JUMPDEST SWAP3 SWAP2 POP POP JUMP JUMPDEST PUSH1 0x0 PUSH1 0x20 DUP3 DUP5 SUB SLT ISZERO PUSH2 0x39B1 JUMPI PUSH2 0x39B0 PUSH2 0x4B7B JUMP JUMPDEST JUMPDEST PUSH1 0x0 PUSH2 0x39BF DUP5 DUP3 DUP6 ADD PUSH2 0x38EF JUMP JUMPDEST SWAP2 POP POP SWAP3 SWAP2 POP POP JUMP JUMPDEST PUSH1 0x0 DUP1 PUSH1 0x40 DUP4 DUP6 SUB SLT ISZERO PUSH2 0x39DF JUMPI PUSH2 0x39DE PUSH2 0x4B7B JUMP JUMPDEST JUMPDEST PUSH1 0x0 PUSH2 0x39ED DUP6 DUP3 DUP7 ADD PUSH2 0x38EF JUMP JUMPDEST SWAP3 POP POP PUSH1 0x20 PUSH2 0x39FE DUP6 DUP3 DUP7 ADD PUSH2 0x38EF JUMP JUMPDEST SWAP2 POP POP SWAP3 POP SWAP3 SWAP1 POP JUMP JUMPDEST PUSH1 0x0 DUP1 PUSH1 0x0 PUSH1 0x60 DUP5 DUP7 SUB SLT ISZERO PUSH2 0x3A21 JUMPI PUSH2 0x3A20 PUSH2 0x4B7B JUMP JUMPDEST JUMPDEST PUSH1 0x0 PUSH2 0x3A2F DUP7 DUP3 DUP8 ADD PUSH2 0x38EF JUMP JUMPDEST SWAP4 POP POP PUSH1 0x20 PUSH2 0x3A40 DUP7 DUP3 DUP8 ADD PUSH2 0x38EF JUMP JUMPDEST SWAP3 POP POP PUSH1 0x40 PUSH2 0x3A51 DUP7 DUP3 DUP8 ADD PUSH2 0x3986 JUMP JUMPDEST SWAP2 POP POP SWAP3 POP SWAP3 POP SWAP3 JUMP JUMPDEST PUSH1 0x0 DUP1 PUSH1 0x0 DUP1 PUSH1 0x80 DUP6 DUP8 SUB SLT ISZERO PUSH2 0x3A75 JUMPI PUSH2 0x3A74 PUSH2 0x4B7B JUMP JUMPDEST JUMPDEST PUSH1 0x0 PUSH2 0x3A83 DUP8 DUP3 DUP9 ADD PUSH2 0x38EF JUMP JUMPDEST SWAP5 POP POP PUSH1 0x20 PUSH2 0x3A94 DUP8 DUP3 DUP9 ADD PUSH2 0x38EF JUMP JUMPDEST SWAP4 POP POP PUSH1 0x40 PUSH2 0x3AA5 DUP8 DUP3 DUP9 ADD PUSH2 0x3986 JUMP JUMPDEST SWAP3 POP POP PUSH1 0x60 DUP6 ADD CALLDATALOAD PUSH8 0xFFFFFFFFFFFFFFFF DUP2 GT ISZERO PUSH2 0x3AC6 JUMPI PUSH2 0x3AC5 PUSH2 0x4B76 JUMP JUMPDEST JUMPDEST PUSH2 0x3AD2 DUP8 DUP3 DUP9 ADD PUSH2 0x3958 JUMP JUMPDEST SWAP2 POP POP SWAP3 SWAP6 SWAP2 SWAP5 POP SWAP3 POP JUMP JUMPDEST PUSH1 0x0 DUP1 PUSH1 0x40 DUP4 DUP6 SUB SLT ISZERO PUSH2 0x3AF5 JUMPI PUSH2 0x3AF4 PUSH2 0x4B7B JUMP JUMPDEST JUMPDEST PUSH1 0x0 PUSH2 0x3B03 DUP6 DUP3 DUP7 ADD PUSH2 0x38EF JUMP JUMPDEST SWAP3 POP POP PUSH1 0x20 PUSH2 0x3B14 DUP6 DUP3 DUP7 ADD PUSH2 0x3904 JUMP JUMPDEST SWAP2 POP POP SWAP3 POP SWAP3 SWAP1 POP JUMP JUMPDEST PUSH1 0x0 DUP1 PUSH1 0x40 DUP4 DUP6 SUB SLT ISZERO PUSH2 0x3B35 JUMPI PUSH2 0x3B34 PUSH2 0x4B7B JUMP JUMPDEST JUMPDEST PUSH1 0x0 PUSH2 0x3B43 DUP6 DUP3 DUP7 ADD PUSH2 0x38EF JUMP JUMPDEST SWAP3 POP POP PUSH1 0x20 PUSH2 0x3B54 DUP6 DUP3 DUP7 ADD PUSH2 0x3986 JUMP JUMPDEST SWAP2 POP POP SWAP3 POP SWAP3 SWAP1 POP JUMP JUMPDEST PUSH1 0x0 PUSH1 0x20 DUP3 DUP5 SUB SLT ISZERO PUSH2 0x3B74 JUMPI PUSH2 0x3B73 PUSH2 0x4B7B JUMP JUMPDEST JUMPDEST PUSH1 0x0 PUSH2 0x3B82 DUP5 DUP3 DUP6 ADD PUSH2 0x3919 JUMP JUMPDEST SWAP2 POP POP SWAP3 SWAP2 POP POP JUMP JUMPDEST PUSH1 0x0 PUSH1 0x20 DUP3 DUP5 SUB SLT ISZERO PUSH2 0x3BA1 JUMPI PUSH2 0x3BA0 PUSH2 0x4B7B JUMP JUMPDEST JUMPDEST PUSH1 0x0 PUSH2 0x3BAF DUP5 DUP3 DUP6 ADD PUSH2 0x392E JUMP JUMPDEST SWAP2 POP POP SWAP3 SWAP2 POP POP JUMP JUMPDEST PUSH1 0x0 PUSH1 0x20 DUP3 DUP5 SUB SLT ISZERO PUSH2 0x3BCE JUMPI PUSH2 0x3BCD PUSH2 0x4B7B JUMP JUMPDEST JUMPDEST PUSH1 0x0 PUSH2 0x3BDC DUP5 DUP3 DUP6 ADD PUSH2 0x3943 JUMP JUMPDEST SWAP2 POP POP SWAP3 SWAP2 POP POP JUMP JUMPDEST PUSH1 0x0 PUSH1 0x20 DUP3 DUP5 SUB SLT ISZERO PUSH2 0x3BFB JUMPI PUSH2 0x3BFA PUSH2 0x4B7B JUMP JUMPDEST JUMPDEST PUSH1 0x0 PUSH2 0x3C09 DUP5 DUP3 DUP6 ADD PUSH2 0x3986 JUMP JUMPDEST SWAP2 POP POP SWAP3 SWAP2 POP POP JUMP JUMPDEST PUSH1 0x0 DUP1 PUSH1 0x40 DUP4 DUP6 SUB SLT ISZERO PUSH2 0x3C29 JUMPI PUSH2 0x3C28 PUSH2 0x4B7B JUMP JUMPDEST JUMPDEST PUSH1 0x0 PUSH2 0x3C37 DUP6 DUP3 DUP7 ADD PUSH2 0x3986 JUMP JUMPDEST SWAP3 POP POP PUSH1 0x20 PUSH2 0x3C48 DUP6 DUP3 DUP7 ADD PUSH2 0x3986 JUMP JUMPDEST SWAP2 POP POP SWAP3 POP SWAP3 SWAP1 POP JUMP JUMPDEST PUSH1 0x0 DUP1 PUSH1 0x0 DUP1 PUSH1 0x80 DUP6 DUP8 SUB SLT ISZERO PUSH2 0x3C6C JUMPI PUSH2 0x3C6B PUSH2 0x4B7B JUMP JUMPDEST JUMPDEST PUSH1 0x0 PUSH2 0x3C7A DUP8 DUP3 DUP9 ADD PUSH2 0x3986 JUMP JUMPDEST SWAP5 POP POP PUSH1 0x20 PUSH2 0x3C8B DUP8 DUP3 DUP9 ADD PUSH2 0x3986 JUMP JUMPDEST SWAP4 POP POP PUSH1 0x40 PUSH2 0x3C9C DUP8 DUP3 DUP9 ADD PUSH2 0x3986 JUMP JUMPDEST SWAP3 POP POP PUSH1 0x60 PUSH2 0x3CAD DUP8 DUP3 DUP9 ADD PUSH2 0x3986 JUMP JUMPDEST SWAP2 POP POP SWAP3 SWAP6 SWAP2 SWAP5 POP SWAP3 POP JUMP JUMPDEST PUSH1 0x0 PUSH2 0x3CC5 DUP4 DUP4 PUSH2 0x4157 JUMP JUMPDEST PUSH1 0x20 DUP4 ADD SWAP1 POP SWAP3 SWAP2 POP POP JUMP JUMPDEST PUSH2 0x3CDA DUP2 PUSH2 0x4887 JUMP JUMPDEST DUP3 MSTORE POP POP JUMP JUMPDEST PUSH1 0x0 PUSH2 0x3CEB DUP3 PUSH2 0x4760 JUMP JUMPDEST PUSH2 0x3CF5 DUP2 DUP6 PUSH2 0x478E JUMP JUMPDEST SWAP4 POP PUSH2 0x3D00 DUP4 PUSH2 0x4750 JUMP JUMPDEST DUP1 PUSH1 0x0 JUMPDEST DUP4 DUP2 LT ISZERO PUSH2 0x3D31 JUMPI DUP2 MLOAD PUSH2 0x3D18 DUP9 DUP3 PUSH2 0x3CB9 JUMP JUMPDEST SWAP8 POP PUSH2 0x3D23 DUP4 PUSH2 0x4781 JUMP JUMPDEST SWAP3 POP POP PUSH1 0x1 DUP2 ADD SWAP1 POP PUSH2 0x3D04 JUMP JUMPDEST POP DUP6 SWAP4 POP POP POP POP SWAP3 SWAP2 POP POP JUMP JUMPDEST PUSH2 0x3D47 DUP2 PUSH2 0x4899 JUMP JUMPDEST DUP3 MSTORE POP POP JUMP JUMPDEST PUSH1 0x0 PUSH2 0x3D58 DUP3 PUSH2 0x476B JUMP JUMPDEST PUSH2 0x3D62 DUP2 DUP6 PUSH2 0x479F JUMP JUMPDEST SWAP4 POP PUSH2 0x3D72 DUP2 DUP6 PUSH1 0x20 DUP7 ADD PUSH2 0x4938 JUMP JUMPDEST PUSH2 0x3D7B DUP2 PUSH2 0x4B80 JUMP JUMPDEST DUP5 ADD SWAP2 POP POP SWAP3 SWAP2 POP POP JUMP JUMPDEST PUSH2 0x3D8F DUP2 PUSH2 0x4905 JUMP JUMPDEST DUP3 MSTORE POP POP JUMP JUMPDEST PUSH2 0x3D9E DUP2 PUSH2 0x4917 JUMP JUMPDEST DUP3 MSTORE POP POP JUMP JUMPDEST PUSH1 0x0 PUSH2 0x3DAF DUP3 PUSH2 0x4776 JUMP JUMPDEST PUSH2 0x3DB9 DUP2 DUP6 PUSH2 0x47B0 JUMP JUMPDEST SWAP4 POP PUSH2 0x3DC9 DUP2 DUP6 PUSH1 0x20 DUP7 ADD PUSH2 0x4938 JUMP JUMPDEST PUSH2 0x3DD2 DUP2 PUSH2 0x4B80 JUMP JUMPDEST DUP5 ADD SWAP2 POP POP SWAP3 SWAP2 POP POP JUMP JUMPDEST PUSH1 0x0 PUSH2 0x3DE8 DUP3 PUSH2 0x4776 JUMP JUMPDEST PUSH2 0x3DF2 DUP2 DUP6 PUSH2 0x47C1 JUMP JUMPDEST SWAP4 POP PUSH2 0x3E02 DUP2 DUP6 PUSH1 0x20 DUP7 ADD PUSH2 0x4938 JUMP JUMPDEST DUP1 DUP5 ADD SWAP2 POP POP SWAP3 SWAP2 POP POP JUMP JUMPDEST PUSH1 0x0 PUSH2 0x3E1B PUSH1 0x2B DUP4 PUSH2 0x47B0 JUMP JUMPDEST SWAP2 POP PUSH2 0x3E26 DUP3 PUSH2 0x4B91 JUMP JUMPDEST PUSH1 0x40 DUP3 ADD SWAP1 POP SWAP2 SWAP1 POP JUMP JUMPDEST PUSH1 0x0 PUSH2 0x3E3E PUSH1 0x32 DUP4 PUSH2 0x47B0 JUMP JUMPDEST SWAP2 POP PUSH2 0x3E49 DUP3 PUSH2 0x4BE0 JUMP JUMPDEST PUSH1 0x40 DUP3 ADD SWAP1 POP SWAP2 SWAP1 POP JUMP JUMPDEST PUSH1 0x0 PUSH2 0x3E61 PUSH1 0x25 DUP4 PUSH2 0x47B0 JUMP JUMPDEST SWAP2 POP PUSH2 0x3E6C DUP3 PUSH2 0x4C2F JUMP JUMPDEST PUSH1 0x40 DUP3 ADD SWAP1 POP SWAP2 SWAP1 POP JUMP JUMPDEST PUSH1 0x0 PUSH2 0x3E84 PUSH1 0x1C DUP4 PUSH2 0x47B0 JUMP JUMPDEST SWAP2 POP PUSH2 0x3E8F DUP3 PUSH2 0x4C7E JUMP JUMPDEST PUSH1 0x20 DUP3 ADD SWAP1 POP SWAP2 SWAP1 POP JUMP JUMPDEST PUSH1 0x0 PUSH2 0x3EA7 PUSH1 0x24 DUP4 PUSH2 0x47B0 JUMP JUMPDEST SWAP2 POP PUSH2 0x3EB2 DUP3 PUSH2 0x4CA7 JUMP JUMPDEST PUSH1 0x40 DUP3 ADD SWAP1 POP SWAP2 SWAP1 POP JUMP JUMPDEST PUSH1 0x0 PUSH2 0x3ECA PUSH1 0x19 DUP4 PUSH2 0x47B0 JUMP JUMPDEST SWAP2 POP PUSH2 0x3ED5 DUP3 PUSH2 0x4CF6 JUMP JUMPDEST PUSH1 0x20 DUP3 ADD SWAP1 POP SWAP2 SWAP1 POP JUMP JUMPDEST PUSH1 0x0 PUSH2 0x3EED PUSH1 0x2C DUP4 PUSH2 0x47B0 JUMP JUMPDEST SWAP2 POP PUSH2 0x3EF8 DUP3 PUSH2 0x4D1F JUMP JUMPDEST PUSH1 0x40 DUP3 ADD SWAP1 POP SWAP2 SWAP1 POP JUMP JUMPDEST PUSH1 0x0 PUSH2 0x3F10 PUSH1 0x38 DUP4 PUSH2 0x47B0 JUMP JUMPDEST SWAP2 POP PUSH2 0x3F1B DUP3 PUSH2 0x4D6E JUMP JUMPDEST PUSH1 0x40 DUP3 ADD SWAP1 POP SWAP2 SWAP1 POP JUMP JUMPDEST PUSH1 0x0 PUSH2 0x3F33 PUSH1 0x2A DUP4 PUSH2 0x47B0 JUMP JUMPDEST SWAP2 POP PUSH2 0x3F3E DUP3 PUSH2 0x4DBD JUMP JUMPDEST PUSH1 0x40 DUP3 ADD SWAP1 POP SWAP2 SWAP1 POP JUMP JUMPDEST PUSH1 0x0 PUSH2 0x3F56 PUSH1 0x29 DUP4 PUSH2 0x47B0 JUMP JUMPDEST SWAP2 POP PUSH2 0x3F61 DUP3 PUSH2 0x4E0C JUMP JUMPDEST PUSH1 0x40 DUP3 ADD SWAP1 POP SWAP2 SWAP1 POP JUMP JUMPDEST PUSH1 0x0 PUSH2 0x3F79 PUSH1 0x20 DUP4 PUSH2 0x47B0 JUMP JUMPDEST SWAP2 POP PUSH2 0x3F84 DUP3 PUSH2 0x4E5B JUMP JUMPDEST PUSH1 0x20 DUP3 ADD SWAP1 POP SWAP2 SWAP1 POP JUMP JUMPDEST PUSH1 0x0 PUSH2 0x3F9C PUSH1 0x2C DUP4 PUSH2 0x47B0 JUMP JUMPDEST SWAP2 POP PUSH2 0x3FA7 DUP3 PUSH2 0x4E84 JUMP JUMPDEST PUSH1 0x40 DUP3 ADD SWAP1 POP SWAP2 SWAP1 POP JUMP JUMPDEST PUSH1 0x0 PUSH2 0x3FBF PUSH1 0x2F DUP4 PUSH2 0x47B0 JUMP JUMPDEST SWAP2 POP PUSH2 0x3FCA DUP3 PUSH2 0x4ED3 JUMP JUMPDEST PUSH1 0x40 DUP3 ADD SWAP1 POP SWAP2 SWAP1 POP JUMP JUMPDEST PUSH1 0x0 PUSH2 0x3FE2 PUSH1 0x21 DUP4 PUSH2 0x47B0 JUMP JUMPDEST SWAP2 POP PUSH2 0x3FED DUP3 PUSH2 0x4F22 JUMP JUMPDEST PUSH1 0x40 DUP3 ADD SWAP1 POP SWAP2 SWAP1 POP JUMP JUMPDEST PUSH1 0x0 PUSH2 0x4005 PUSH1 0x31 DUP4 PUSH2 0x47B0 JUMP JUMPDEST SWAP2 POP PUSH2 0x4010 DUP3 PUSH2 0x4F71 JUMP JUMPDEST PUSH1 0x40 DUP3 ADD SWAP1 POP SWAP2 SWAP1 POP JUMP JUMPDEST PUSH1 0x0 PUSH2 0x4028 PUSH1 0x31 DUP4 PUSH2 0x47B0 JUMP JUMPDEST SWAP2 POP PUSH2 0x4033 DUP3 PUSH2 0x4FC0 JUMP JUMPDEST PUSH1 0x40 DUP3 ADD SWAP1 POP SWAP2 SWAP1 POP JUMP JUMPDEST PUSH1 0x0 PUSH2 0x404B PUSH1 0x2C DUP4 PUSH2 0x47B0 JUMP JUMPDEST SWAP2 POP PUSH2 0x4056 DUP3 PUSH2 0x500F JUMP JUMPDEST PUSH1 0x40 DUP3 ADD SWAP1 POP SWAP2 SWAP1 POP JUMP JUMPDEST PUSH2 0x180 DUP3 ADD PUSH1 0x0 DUP3 ADD MLOAD PUSH2 0x4078 PUSH1 0x0 DUP6 ADD DUP3 PUSH2 0x4157 JUMP JUMPDEST POP PUSH1 0x20 DUP3 ADD MLOAD PUSH2 0x408B PUSH1 0x20 DUP6 ADD DUP3 PUSH2 0x4157 JUMP JUMPDEST POP PUSH1 0x40 DUP3 ADD MLOAD PUSH2 0x409E PUSH1 0x40 DUP6 ADD DUP3 PUSH2 0x4157 JUMP JUMPDEST POP PUSH1 0x60 DUP3 ADD MLOAD PUSH2 0x40B1 PUSH1 0x60 DUP6 ADD DUP3 PUSH2 0x4157 JUMP JUMPDEST POP PUSH1 0x80 DUP3 ADD MLOAD PUSH2 0x40C4 PUSH1 0x80 DUP6 ADD DUP3 PUSH2 0x4157 JUMP JUMPDEST POP PUSH1 0xA0 DUP3 ADD MLOAD PUSH2 0x40D7 PUSH1 0xA0 DUP6 ADD DUP3 PUSH2 0x4157 JUMP JUMPDEST POP PUSH1 0xC0 DUP3 ADD MLOAD PUSH2 0x40EA PUSH1 0xC0 DUP6 ADD DUP3 PUSH2 0x4157 JUMP JUMPDEST POP PUSH1 0xE0 DUP3 ADD MLOAD PUSH2 0x40FD PUSH1 0xE0 DUP6 ADD DUP3 PUSH2 0x4157 JUMP JUMPDEST POP PUSH2 0x100 DUP3 ADD MLOAD PUSH2 0x4112 PUSH2 0x100 DUP6 ADD DUP3 PUSH2 0x4157 JUMP JUMPDEST POP PUSH2 0x120 DUP3 ADD MLOAD PUSH2 0x4127 PUSH2 0x120 DUP6 ADD DUP3 PUSH2 0x4157 JUMP JUMPDEST POP PUSH2 0x140 DUP3 ADD MLOAD PUSH2 0x413C PUSH2 0x140 DUP6 ADD DUP3 PUSH2 0x4157 JUMP JUMPDEST POP PUSH2 0x160 DUP3 ADD MLOAD PUSH2 0x4151 PUSH2 0x160 DUP6 ADD DUP3 PUSH2 0x4157 JUMP JUMPDEST POP POP POP POP JUMP JUMPDEST PUSH2 0x4160 DUP2 PUSH2 0x48FB JUMP JUMPDEST DUP3 MSTORE POP POP JUMP JUMPDEST PUSH2 0x416F DUP2 PUSH2 0x48FB JUMP JUMPDEST DUP3 MSTORE POP POP JUMP JUMPDEST PUSH2 0x4186 PUSH2 0x4181 DUP3 PUSH2 0x48FB JUMP JUMPDEST PUSH2 0x4A17 JUMP JUMPDEST DUP3 MSTORE POP POP JUMP JUMPDEST PUSH1 0x0 PUSH2 0x4198 DUP3 DUP6 PUSH2 0x3DDD JUMP JUMPDEST SWAP2 POP PUSH2 0x41A4 DUP3 DUP5 PUSH2 0x3DDD JUMP JUMPDEST SWAP2 POP DUP2 SWAP1 POP SWAP4 SWAP3 POP POP POP JUMP JUMPDEST PUSH1 0x0 PUSH2 0x41BC DUP3 DUP7 PUSH2 0x4175 JUMP JUMPDEST PUSH1 0x20 DUP3 ADD SWAP2 POP PUSH2 0x41CC DUP3 DUP6 PUSH2 0x4175 JUMP JUMPDEST PUSH1 0x20 DUP3 ADD SWAP2 POP PUSH2 0x41DC DUP3 DUP5 PUSH2 0x4175 JUMP JUMPDEST PUSH1 0x20 DUP3 ADD SWAP2 POP DUP2 SWAP1 POP SWAP5 SWAP4 POP POP POP POP JUMP JUMPDEST PUSH1 0x0 PUSH1 0x20 DUP3 ADD SWAP1 POP PUSH2 0x4202 PUSH1 0x0 DUP4 ADD DUP5 PUSH2 0x3CD1 JUMP JUMPDEST SWAP3 SWAP2 POP POP JUMP JUMPDEST PUSH1 0x0 PUSH1 0x80 DUP3 ADD SWAP1 POP PUSH2 0x421D PUSH1 0x0 DUP4 ADD DUP8 PUSH2 0x3CD1 JUMP JUMPDEST PUSH2 0x422A PUSH1 0x20 DUP4 ADD DUP7 PUSH2 0x3CD1 JUMP JUMPDEST PUSH2 0x4237 PUSH1 0x40 DUP4 ADD DUP6 PUSH2 0x4166 JUMP JUMPDEST DUP2 DUP2 SUB PUSH1 0x60 DUP4 ADD MSTORE PUSH2 0x4249 DUP2 DUP5 PUSH2 0x3D4D JUMP JUMPDEST SWAP1 POP SWAP6 SWAP5 POP POP POP POP POP JUMP JUMPDEST PUSH1 0x0 PUSH1 0x20 DUP3 ADD SWAP1 POP PUSH2 0x4269 PUSH1 0x0 DUP4 ADD DUP5 PUSH2 0x3D3E JUMP JUMPDEST SWAP3 SWAP2 POP POP JUMP JUMPDEST PUSH1 0x0 PUSH1 0x20 DUP3 ADD SWAP1 POP PUSH2 0x4284 PUSH1 0x0 DUP4 ADD DUP5 PUSH2 0x3D86 JUMP JUMPDEST SWAP3 SWAP2 POP POP JUMP JUMPDEST PUSH1 0x0 PUSH1 0x20 DUP3 ADD SWAP1 POP PUSH2 0x429F PUSH1 0x0 DUP4 ADD DUP5 PUSH2 0x3D95 JUMP JUMPDEST SWAP3 SWAP2 POP POP JUMP JUMPDEST PUSH1 0x0 PUSH1 0x20 DUP3 ADD SWAP1 POP DUP2 DUP2 SUB PUSH1 0x0 DUP4 ADD MSTORE PUSH2 0x42BF DUP2 DUP5 PUSH2 0x3DA4 JUMP JUMPDEST SWAP1 POP SWAP3 SWAP2 POP POP JUMP JUMPDEST PUSH1 0x0 PUSH1 0x20 DUP3 ADD SWAP1 POP DUP2 DUP2 SUB PUSH1 0x0 DUP4 ADD MSTORE PUSH2 0x42E0 DUP2 PUSH2 0x3E0E JUMP JUMPDEST SWAP1 POP SWAP2 SWAP1 POP JUMP JUMPDEST PUSH1 0x0 PUSH1 0x20 DUP3 ADD SWAP1 POP DUP2 DUP2 SUB PUSH1 0x0 DUP4 ADD MSTORE PUSH2 0x4300 DUP2 PUSH2 0x3E31 JUMP JUMPDEST SWAP1 POP SWAP2 SWAP1 POP JUMP JUMPDEST PUSH1 0x0 PUSH1 0x20 DUP3 ADD SWAP1 POP DUP2 DUP2 SUB PUSH1 0x0 DUP4 ADD MSTORE PUSH2 0x4320 DUP2 PUSH2 0x3E54 JUMP JUMPDEST SWAP1 POP SWAP2 SWAP1 POP JUMP JUMPDEST PUSH1 0x0 PUSH1 0x20 DUP3 ADD SWAP1 POP DUP2 DUP2 SUB PUSH1 0x0 DUP4 ADD MSTORE PUSH2 0x4340 DUP2 PUSH2 0x3E77 JUMP JUMPDEST SWAP1 POP SWAP2 SWAP1 POP JUMP JUMPDEST PUSH1 0x0 PUSH1 0x20 DUP3 ADD SWAP1 POP DUP2 DUP2 SUB PUSH1 0x0 DUP4 ADD MSTORE PUSH2 0x4360 DUP2 PUSH2 0x3E9A JUMP JUMPDEST SWAP1 POP SWAP2 SWAP1 POP JUMP JUMPDEST PUSH1 0x0 PUSH1 0x20 DUP3 ADD SWAP1 POP DUP2 DUP2 SUB PUSH1 0x0 DUP4 ADD MSTORE PUSH2 0x4380 DUP2 PUSH2 0x3EBD JUMP JUMPDEST SWAP1 POP SWAP2 SWAP1 POP JUMP JUMPDEST PUSH1 0x0 PUSH1 0x20 DUP3 ADD SWAP1 POP DUP2 DUP2 SUB PUSH1 0x0 DUP4 ADD MSTORE PUSH2 0x43A0 DUP2 PUSH2 0x3EE0 JUMP JUMPDEST SWAP1 POP SWAP2 SWAP1 POP JUMP JUMPDEST PUSH1 0x0 PUSH1 0x20 DUP3 ADD SWAP1 POP DUP2 DUP2 SUB PUSH1 0x0 DUP4 ADD MSTORE PUSH2 0x43C0 DUP2 PUSH2 0x3F03 JUMP JUMPDEST SWAP1 POP SWAP2 SWAP1 POP JUMP JUMPDEST PUSH1 0x0 PUSH1 0x20 DUP3 ADD SWAP1 POP DUP2 DUP2 SUB PUSH1 0x0 DUP4 ADD MSTORE PUSH2 0x43E0 DUP2 PUSH2 0x3F26 JUMP JUMPDEST SWAP1 POP SWAP2 SWAP1 POP JUMP JUMPDEST PUSH1 0x0 PUSH1 0x20 DUP3 ADD SWAP1 POP DUP2 DUP2 SUB PUSH1 0x0 DUP4 ADD MSTORE PUSH2 0x4400 DUP2 PUSH2 0x3F49 JUMP JUMPDEST SWAP1 POP SWAP2 SWAP1 POP JUMP JUMPDEST PUSH1 0x0 PUSH1 0x20 DUP3 ADD SWAP1 POP DUP2 DUP2 SUB PUSH1 0x0 DUP4 ADD MSTORE PUSH2 0x4420 DUP2 PUSH2 0x3F6C JUMP JUMPDEST SWAP1 POP SWAP2 SWAP1 POP JUMP JUMPDEST PUSH1 0x0 PUSH1 0x20 DUP3 ADD SWAP1 POP DUP2 DUP2 SUB PUSH1 0x0 DUP4 ADD MSTORE PUSH2 0x4440 DUP2 PUSH2 0x3F8F JUMP JUMPDEST SWAP1 POP SWAP2 SWAP1 POP JUMP JUMPDEST PUSH1 0x0 PUSH1 0x20 DUP3 ADD SWAP1 POP DUP2 DUP2 SUB PUSH1 0x0 DUP4 ADD MSTORE PUSH2 0x4460 DUP2 PUSH2 0x3FB2 JUMP JUMPDEST SWAP1 POP SWAP2 SWAP1 POP JUMP JUMPDEST PUSH1 0x0 PUSH1 0x20 DUP3 ADD SWAP1 POP DUP2 DUP2 SUB PUSH1 0x0 DUP4 ADD MSTORE PUSH2 0x4480 DUP2 PUSH2 0x3FD5 JUMP JUMPDEST SWAP1 POP SWAP2 SWAP1 POP JUMP JUMPDEST PUSH1 0x0 PUSH1 0x20 DUP3 ADD SWAP1 POP DUP2 DUP2 SUB PUSH1 0x0 DUP4 ADD MSTORE PUSH2 0x44A0 DUP2 PUSH2 0x3FF8 JUMP JUMPDEST SWAP1 POP SWAP2 SWAP1 POP JUMP JUMPDEST PUSH1 0x0 PUSH1 0x20 DUP3 ADD SWAP1 POP DUP2 DUP2 SUB PUSH1 0x0 DUP4 ADD MSTORE PUSH2 0x44C0 DUP2 PUSH2 0x401B JUMP JUMPDEST SWAP1 POP SWAP2 SWAP1 POP JUMP JUMPDEST PUSH1 0x0 PUSH1 0x20 DUP3 ADD SWAP1 POP DUP2 DUP2 SUB PUSH1 0x0 DUP4 ADD MSTORE PUSH2 0x44E0 DUP2 PUSH2 0x403E JUMP JUMPDEST SWAP1 POP SWAP2 SWAP1 POP JUMP JUMPDEST PUSH1 0x0 PUSH2 0x300 DUP3 ADD SWAP1 POP PUSH2 0x44FD PUSH1 0x0 DUP4 ADD DUP6 PUSH2 0x4061 JUMP JUMPDEST PUSH2 0x450B PUSH2 0x180 DUP4 ADD DUP5 PUSH2 0x4061 JUMP JUMPDEST SWAP4 SWAP3 POP POP POP JUMP JUMPDEST PUSH1 0x0 PUSH1 0x20 DUP3 ADD SWAP1 POP PUSH2 0x4527 PUSH1 0x0 DUP4 ADD DUP5 PUSH2 0x4166 JUMP JUMPDEST SWAP3 SWAP2 POP POP JUMP JUMPDEST PUSH1 0x0 PUSH1 0x40 DUP3 ADD SWAP1 POP PUSH2 0x4542 PUSH1 0x0 DUP4 ADD DUP6 PUSH2 0x4166 JUMP JUMPDEST DUP2 DUP2 SUB PUSH1 0x20 DUP4 ADD MSTORE PUSH2 0x4554 DUP2 DUP5 PUSH2 0x3CE0 JUMP JUMPDEST SWAP1 POP SWAP4 SWAP3 POP POP POP JUMP JUMPDEST PUSH1 0x0 PUSH1 0x40 DUP3 ADD SWAP1 POP PUSH2 0x4572 PUSH1 0x0 DUP4 ADD DUP6 PUSH2 0x4166 JUMP JUMPDEST PUSH2 0x457F PUSH1 0x20 DUP4 ADD DUP5 PUSH2 0x4166 JUMP JUMPDEST SWAP4 SWAP3 POP POP POP JUMP JUMPDEST PUSH1 0x0 PUSH1 0x60 DUP3 ADD SWAP1 POP PUSH2 0x459B PUSH1 0x0 DUP4 ADD DUP7 PUSH2 0x4166 JUMP JUMPDEST PUSH2 0x45A8 PUSH1 0x20 DUP4 ADD DUP6 PUSH2 0x4166 JUMP JUMPDEST DUP2 DUP2 SUB PUSH1 0x40 DUP4 ADD MSTORE PUSH2 0x45BA DUP2 DUP5 PUSH2 0x3CE0 JUMP JUMPDEST SWAP1 POP SWAP5 SWAP4 POP POP POP POP JUMP JUMPDEST PUSH1 0x0 PUSH1 0x60 DUP3 ADD SWAP1 POP PUSH2 0x45D9 PUSH1 0x0 DUP4 ADD DUP7 PUSH2 0x4166 JUMP JUMPDEST PUSH2 0x45E6 PUSH1 0x20 DUP4 ADD DUP6 PUSH2 0x4166 JUMP JUMPDEST PUSH2 0x45F3 PUSH1 0x40 DUP4 ADD DUP5 PUSH2 0x4166 JUMP JUMPDEST SWAP5 SWAP4 POP POP POP POP JUMP JUMPDEST PUSH1 0x0 PUSH1 0x80 DUP3 ADD SWAP1 POP PUSH2 0x4610 PUSH1 0x0 DUP4 ADD DUP8 PUSH2 0x4166 JUMP JUMPDEST PUSH2 0x461D PUSH1 0x20 DUP4 ADD DUP7 PUSH2 0x4166 JUMP JUMPDEST PUSH2 0x462A PUSH1 0x40 DUP4 ADD DUP6 PUSH2 0x4166 JUMP JUMPDEST PUSH2 0x4637 PUSH1 0x60 DUP4 ADD DUP5 PUSH2 0x4166 JUMP JUMPDEST SWAP6 SWAP5 POP POP POP POP POP JUMP JUMPDEST PUSH1 0x0 PUSH2 0x180 DUP3 ADD SWAP1 POP PUSH2 0x4656 PUSH1 0x0 DUP4 ADD DUP16 PUSH2 0x4166 JUMP JUMPDEST PUSH2 0x4663 PUSH1 0x20 DUP4 ADD DUP15 PUSH2 0x4166 JUMP JUMPDEST PUSH2 0x4670 PUSH1 0x40 DUP4 ADD DUP14 PUSH2 0x4166 JUMP JUMPDEST PUSH2 0x467D PUSH1 0x60 DUP4 ADD DUP13 PUSH2 0x4166 JUMP JUMPDEST PUSH2 0x468A PUSH1 0x80 DUP4 ADD DUP12 PUSH2 0x4166 JUMP JUMPDEST PUSH2 0x4697 PUSH1 0xA0 DUP4 ADD DUP11 PUSH2 0x4166 JUMP JUMPDEST PUSH2 0x46A4 PUSH1 0xC0 DUP4 ADD DUP10 PUSH2 0x4166 JUMP JUMPDEST PUSH2 0x46B1 PUSH1 0xE0 DUP4 ADD DUP9 PUSH2 0x4166 JUMP JUMPDEST PUSH2 0x46BF PUSH2 0x100 DUP4 ADD DUP8 PUSH2 0x4166 JUMP JUMPDEST PUSH2 0x46CD PUSH2 0x120 DUP4 ADD DUP7 PUSH2 0x4166 JUMP JUMPDEST PUSH2 0x46DB PUSH2 0x140 DUP4 ADD DUP6 PUSH2 0x4166 JUMP JUMPDEST PUSH2 0x46E9 PUSH2 0x160 DUP4 ADD DUP5 PUSH2 0x4166 JUMP JUMPDEST SWAP14 SWAP13 POP POP POP POP POP POP POP POP POP POP POP POP POP JUMP JUMPDEST PUSH1 0x0 PUSH2 0x4704 PUSH2 0x4715 JUMP JUMPDEST SWAP1 POP PUSH2 0x4710 DUP3 DUP3 PUSH2 0x499D JUMP JUMPDEST SWAP2 SWAP1 POP JUMP JUMPDEST PUSH1 0x0 PUSH1 0x40 MLOAD SWAP1 POP SWAP1 JUMP JUMPDEST PUSH1 0x0 PUSH8 0xFFFFFFFFFFFFFFFF DUP3 GT ISZERO PUSH2 0x473A JUMPI PUSH2 0x4739 PUSH2 0x4B3D JUMP JUMPDEST JUMPDEST PUSH2 0x4743 DUP3 PUSH2 0x4B80 JUMP JUMPDEST SWAP1 POP PUSH1 0x20 DUP2 ADD SWAP1 POP SWAP2 SWAP1 POP JUMP JUMPDEST PUSH1 0x0 DUP2 SWAP1 POP PUSH1 0x20 DUP3 ADD SWAP1 POP SWAP2 SWAP1 POP JUMP JUMPDEST PUSH1 0x0 DUP2 MLOAD SWAP1 POP SWAP2 SWAP1 POP JUMP JUMPDEST PUSH1 0x0 DUP2 MLOAD SWAP1 POP SWAP2 SWAP1 POP JUMP JUMPDEST PUSH1 0x0 DUP2 MLOAD SWAP1 POP SWAP2 SWAP1 POP JUMP JUMPDEST PUSH1 0x0 PUSH1 0x20 DUP3 ADD SWAP1 POP SWAP2 SWAP1 POP JUMP JUMPDEST PUSH1 0x0 DUP3 DUP3 MSTORE PUSH1 0x20 DUP3 ADD SWAP1 POP SWAP3 SWAP2 POP POP JUMP JUMPDEST PUSH1 0x0 DUP3 DUP3 MSTORE PUSH1 0x20 DUP3 ADD SWAP1 POP SWAP3 SWAP2 POP POP JUMP JUMPDEST PUSH1 0x0 DUP3 DUP3 MSTORE PUSH1 0x20 DUP3 ADD SWAP1 POP SWAP3 SWAP2 POP POP JUMP JUMPDEST PUSH1 0x0 DUP2 SWAP1 POP SWAP3 SWAP2 POP POP JUMP JUMPDEST PUSH1 0x0 PUSH2 0x47D7 DUP3 PUSH2 0x48FB JUMP JUMPDEST SWAP2 POP PUSH2 0x47E2 DUP4 PUSH2 0x48FB JUMP JUMPDEST SWAP3 POP DUP3 PUSH32 0xFFFFFFFFFFFFFFFFFFFFFFFFFFFFFFFFFFFFFFFFFFFFFFFFFFFFFFFFFFFFFFFF SUB DUP3 GT ISZERO PUSH2 0x4817 JUMPI PUSH2 0x4816 PUSH2 0x4A52 JUMP JUMPDEST JUMPDEST DUP3 DUP3 ADD SWAP1 POP SWAP3 SWAP2 POP POP JUMP JUMPDEST PUSH1 0x0 PUSH2 0x482D DUP3 PUSH2 0x48FB JUMP JUMPDEST SWAP2 POP PUSH2 0x4838 DUP4 PUSH2 0x48FB JUMP JUMPDEST SWAP3 POP DUP3 PUSH2 0x4848 JUMPI PUSH2 0x4847 PUSH2 0x4A81 JUMP JUMPDEST JUMPDEST DUP3 DUP3 DIV SWAP1 POP SWAP3 SWAP2 POP POP JUMP JUMPDEST PUSH1 0x0 PUSH2 0x485E DUP3 PUSH2 0x48FB JUMP JUMPDEST SWAP2 POP PUSH2 0x4869 DUP4 PUSH2 0x48FB JUMP JUMPDEST SWAP3 POP DUP3 DUP3 LT ISZERO PUSH2 0x487C JUMPI PUSH2 0x487B PUSH2 0x4A52 JUMP JUMPDEST JUMPDEST DUP3 DUP3 SUB SWAP1 POP SWAP3 SWAP2 POP POP JUMP JUMPDEST PUSH1 0x0 PUSH2 0x4892 DUP3 PUSH2 0x48DB JUMP JUMPDEST SWAP1 POP SWAP2 SWAP1 POP JUMP JUMPDEST PUSH1 0x0 DUP2 ISZERO ISZERO SWAP1 POP SWAP2 SWAP1 POP JUMP JUMPDEST PUSH1 0x0 DUP2 SWAP1 POP SWAP2 SWAP1 POP JUMP JUMPDEST PUSH1 0x0 PUSH32 0xFFFFFFFF00000000000000000000000000000000000000000000000000000000 DUP3 AND SWAP1 POP SWAP2 SWAP1 POP JUMP JUMPDEST PUSH1 0x0 PUSH20 0xFFFFFFFFFFFFFFFFFFFFFFFFFFFFFFFFFFFFFFFF DUP3 AND SWAP1 POP SWAP2 SWAP1 POP JUMP JUMPDEST PUSH1 0x0 DUP2 SWAP1 POP SWAP2 SWAP1 POP JUMP JUMPDEST PUSH1 0x0 PUSH2 0x4910 DUP3 PUSH2 0x48FB JUMP JUMPDEST SWAP1 POP SWAP2 SWAP1 POP JUMP JUMPDEST PUSH1 0x0 PUSH2 0x4922 DUP3 PUSH2 0x48FB JUMP JUMPDEST SWAP1 POP SWAP2 SWAP1 POP JUMP JUMPDEST DUP3 DUP2 DUP4 CALLDATACOPY PUSH1 0x0 DUP4 DUP4 ADD MSTORE POP POP POP JUMP JUMPDEST PUSH1 0x0 JUMPDEST DUP4 DUP2 LT ISZERO PUSH2 0x4956 JUMPI DUP1 DUP3 ADD MLOAD DUP2 DUP5 ADD MSTORE PUSH1 0x20 DUP2 ADD SWAP1 POP PUSH2 0x493B JUMP JUMPDEST DUP4 DUP2 GT ISZERO PUSH2 0x4965 JUMPI PUSH1 0x0 DUP5 DUP5 ADD MSTORE JUMPDEST POP POP POP POP JUMP JUMPDEST PUSH1 0x0 PUSH1 0x2 DUP3 DIV SWAP1 POP PUSH1 0x1 DUP3 AND DUP1 PUSH2 0x4983 JUMPI PUSH1 0x7F DUP3 AND SWAP2 POP JUMPDEST PUSH1 0x20 DUP3 LT DUP2 EQ ISZERO PUSH2 0x4997 JUMPI PUSH2 0x4996 PUSH2 0x4AB0 JUMP JUMPDEST JUMPDEST POP SWAP2 SWAP1 POP JUMP JUMPDEST PUSH2 0x49A6 DUP3 PUSH2 0x4B80 JUMP JUMPDEST DUP2 ADD DUP2 DUP2 LT PUSH8 0xFFFFFFFFFFFFFFFF DUP3 GT OR ISZERO PUSH2 0x49C5 JUMPI PUSH2 0x49C4 PUSH2 0x4B3D JUMP JUMPDEST JUMPDEST DUP1 PUSH1 0x40 MSTORE POP POP POP JUMP JUMPDEST PUSH1 0x0 PUSH2 0x49D9 DUP3 PUSH2 0x48FB JUMP JUMPDEST SWAP2 POP PUSH32 0xFFFFFFFFFFFFFFFFFFFFFFFFFFFFFFFFFFFFFFFFFFFFFFFFFFFFFFFFFFFFFFFF DUP3 EQ ISZERO PUSH2 0x4A0C JUMPI PUSH2 0x4A0B PUSH2 0x4A52 JUMP JUMPDEST JUMPDEST PUSH1 0x1 DUP3 ADD SWAP1 POP SWAP2 SWAP1 POP JUMP JUMPDEST PUSH1 0x0 DUP2 SWAP1 POP SWAP2 SWAP1 POP JUMP JUMPDEST PUSH1 0x0 PUSH2 0x4A2C DUP3 PUSH2 0x48FB JUMP JUMPDEST SWAP2 POP PUSH2 0x4A37 DUP4 PUSH2 0x48FB JUMP JUMPDEST SWAP3 POP DUP3 PUSH2 0x4A47 JUMPI PUSH2 0x4A46 PUSH2 0x4A81 JUMP JUMPDEST JUMPDEST DUP3 DUP3 MOD SWAP1 POP SWAP3 SWAP2 POP POP JUMP JUMPDEST PUSH32 0x4E487B7100000000000000000000000000000000000000000000000000000000 PUSH1 0x0 MSTORE PUSH1 0x11 PUSH1 0x4 MSTORE PUSH1 0x24 PUSH1 0x0 REVERT JUMPDEST PUSH32 0x4E487B7100000000000000000000000000000000000000000000000000000000 PUSH1 0x0 MSTORE PUSH1 0x12 PUSH1 0x4 MSTORE PUSH1 0x24 PUSH1 0x0 REVERT JUMPDEST PUSH32 0x4E487B7100000000000000000000000000000000000000000000000000000000 PUSH1 0x0 MSTORE PUSH1 0x22 PUSH1 0x4 MSTORE PUSH1 0x24 PUSH1 0x0 REVERT JUMPDEST PUSH32 0x4E487B7100000000000000000000000000000000000000000000000000000000 PUSH1 0x0 MSTORE PUSH1 0x31 PUSH1 0x4 MSTORE PUSH1 0x24 PUSH1 0x0 REVERT JUMPDEST PUSH32 0x4E487B7100000000000000000000000000000000000000000000000000000000 PUSH1 0x0 MSTORE PUSH1 0x32 PUSH1 0x4 MSTORE PUSH1 0x24 PUSH1 0x0 REVERT JUMPDEST PUSH32 0x4E487B7100000000000000000000000000000000000000000000000000000000 PUSH1 0x0 MSTORE PUSH1 0x41 PUSH1 0x4 MSTORE PUSH1 0x24 PUSH1 0x0 REVERT JUMPDEST PUSH1 0x0 DUP1 REVERT JUMPDEST PUSH1 0x0 DUP1 REVERT JUMPDEST PUSH1 0x0 DUP1 REVERT JUMPDEST PUSH1 0x0 DUP1 REVERT JUMPDEST PUSH1 0x0 PUSH1 0x1F NOT PUSH1 0x1F DUP4 ADD AND SWAP1 POP SWAP2 SWAP1 POP JUMP JUMPDEST PUSH32 0x455243373231456E756D657261626C653A206F776E657220696E646578206F75 PUSH1 0x0 DUP3 ADD MSTORE PUSH32 0x74206F6620626F756E6473000000000000000000000000000000000000000000 PUSH1 0x20 DUP3 ADD MSTORE POP JUMP JUMPDEST PUSH32 0x4552433732313A207472616E7366657220746F206E6F6E204552433732315265 PUSH1 0x0 DUP3 ADD MSTORE PUSH32 0x63656976657220696D706C656D656E7465720000000000000000000000000000 PUSH1 0x20 DUP3 ADD MSTORE POP JUMP JUMPDEST PUSH32 0x4552433732313A207472616E736665722066726F6D20696E636F727265637420 PUSH1 0x0 DUP3 ADD MSTORE PUSH32 0x6F776E6572000000000000000000000000000000000000000000000000000000 PUSH1 0x20 DUP3 ADD MSTORE POP JUMP JUMPDEST PUSH32 0x4552433732313A20746F6B656E20616C7265616479206D696E74656400000000 PUSH1 0x0 DUP3 ADD MSTORE POP JUMP JUMPDEST PUSH32 0x4552433732313A207472616E7366657220746F20746865207A65726F20616464 PUSH1 0x0 DUP3 ADD MSTORE PUSH32 0x7265737300000000000000000000000000000000000000000000000000000000 PUSH1 0x20 DUP3 ADD MSTORE POP JUMP JUMPDEST PUSH32 0x4552433732313A20617070726F766520746F2063616C6C657200000000000000 PUSH1 0x0 DUP3 ADD MSTORE POP JUMP JUMPDEST PUSH32 0x4552433732313A206F70657261746F7220717565727920666F72206E6F6E6578 PUSH1 0x0 DUP3 ADD MSTORE PUSH32 0x697374656E7420746F6B656E0000000000000000000000000000000000000000 PUSH1 0x20 DUP3 ADD MSTORE POP JUMP JUMPDEST PUSH32 0x4552433732313A20617070726F76652063616C6C6572206973206E6F74206F77 PUSH1 0x0 DUP3 ADD MSTORE PUSH32 0x6E6572206E6F7220617070726F76656420666F7220616C6C0000000000000000 PUSH1 0x20 DUP3 ADD MSTORE POP JUMP JUMPDEST PUSH32 0x4552433732313A2062616C616E636520717565727920666F7220746865207A65 PUSH1 0x0 DUP3 ADD MSTORE PUSH32 0x726F206164647265737300000000000000000000000000000000000000000000 PUSH1 0x20 DUP3 ADD MSTORE POP JUMP JUMPDEST PUSH32 0x4552433732313A206F776E657220717565727920666F72206E6F6E6578697374 PUSH1 0x0 DUP3 ADD MSTORE PUSH32 0x656E7420746F6B656E0000000000000000000000000000000000000000000000 PUSH1 0x20 DUP3 ADD MSTORE POP JUMP JUMPDEST PUSH32 0x4552433732313A206D696E7420746F20746865207A65726F2061646472657373 PUSH1 0x0 DUP3 ADD MSTORE POP JUMP JUMPDEST PUSH32 0x4552433732313A20617070726F76656420717565727920666F72206E6F6E6578 PUSH1 0x0 DUP3 ADD MSTORE PUSH32 0x697374656E7420746F6B656E0000000000000000000000000000000000000000 PUSH1 0x20 DUP3 ADD MSTORE POP JUMP JUMPDEST PUSH32 0x4552433732314D657461646174613A2055524920717565727920666F72206E6F PUSH1 0x0 DUP3 ADD MSTORE PUSH32 0x6E6578697374656E7420746F6B656E0000000000000000000000000000000000 PUSH1 0x20 DUP3 ADD MSTORE POP JUMP JUMPDEST PUSH32 0x4552433732313A20617070726F76616C20746F2063757272656E74206F776E65 PUSH1 0x0 DUP3 ADD MSTORE PUSH32 0x7200000000000000000000000000000000000000000000000000000000000000 PUSH1 0x20 DUP3 ADD MSTORE POP JUMP JUMPDEST PUSH32 0x4552433732313A207472616E736665722063616C6C6572206973206E6F74206F PUSH1 0x0 DUP3 ADD MSTORE PUSH32 0x776E6572206E6F7220617070726F766564000000000000000000000000000000 PUSH1 0x20 DUP3 ADD MSTORE POP JUMP JUMPDEST PUSH32 0x4F6E6C792076616C696420646578206E756D626572732E204D75737420626520 PUSH1 0x0 DUP3 ADD MSTORE PUSH32 0x6265747765656E203120616E6420363439000000000000000000000000000000 PUSH1 0x20 DUP3 ADD MSTORE POP JUMP JUMPDEST PUSH32 0x455243373231456E756D657261626C653A20676C6F62616C20696E646578206F PUSH1 0x0 DUP3 ADD MSTORE PUSH32 0x7574206F6620626F756E64730000000000000000000000000000000000000000 PUSH1 0x20 DUP3 ADD MSTORE POP JUMP JUMPDEST PUSH2 0x5067 DUP2 PUSH2 0x4887 JUMP JUMPDEST DUP2 EQ PUSH2 0x5072 JUMPI PUSH1 0x0 DUP1 REVERT JUMPDEST POP JUMP JUMPDEST PUSH2 0x507E DUP2 PUSH2 0x4899 JUMP JUMPDEST DUP2 EQ PUSH2 0x5089 JUMPI PUSH1 0x0 DUP1 REVERT JUMPDEST POP JUMP JUMPDEST PUSH2 0x5095 DUP2 PUSH2 0x48A5 JUMP JUMPDEST DUP2 EQ PUSH2 0x50A0 JUMPI PUSH1 0x0 DUP1 REVERT JUMPDEST POP JUMP JUMPDEST PUSH2 0x50AC DUP2 PUSH2 0x48AF JUMP JUMPDEST DUP2 EQ PUSH2 0x50B7 JUMPI PUSH1 0x0 DUP1 REVERT JUMPDEST POP JUMP JUMPDEST PUSH2 0x50C3 DUP2 PUSH2 0x48FB JUMP JUMPDEST DUP2 EQ PUSH2 0x50CE JUMPI PUSH1 0x0 DUP1 REVERT JUMPDEST POP JUMP INVALID LOG2 PUSH5 0x6970667358 0x22 SLT KECCAK256 STATICCALL SWAP13 0xD5 DIFFICULTY PUSH8 0x5C181909DD9F6294 PUSH29 0x8AA8500B29489B2290E929D75AB051F536EB64736F6C63430008070033 "
    },
    "gasEstimates": {
      "creation": {
        "codeDepositCost": "4148600",
        "executionCost": "infinite",
        "totalCost": "infinite"
      },
      "external": {
        "approve(address,uint256)": "infinite",
        "balanceOf(address)": "2924",
        "fightIDToFighters(uint256)": "infinite",
        "fightIDToWinnerPokemon(uint256)": "infinite",
        "getApproved(uint256)": "5228",
        "get_winner(uint256,uint256,uint256,uint256)": "infinite",
        "isApprovedForAll(address,address)": "infinite",
        "mint(uint256)": "infinite",
        "name()": "infinite",
        "ownerOf(uint256)": "3000",
        "pokemonIDToFightsWon(uint256)": "infinite",
        "pokemons(uint256)": "infinite",
        "safeTransferFrom(address,address,uint256)": "infinite",
        "safeTransferFrom(address,address,uint256,bytes)": "infinite",
        "sendPokemonsToL2(uint256,uint256)": "infinite",
        "setApprovalForAll(address,bool)": "infinite",
        "supportsInterface(bytes4)": "929",
        "symbol()": "infinite",
        "tokenByIndex(uint256)": "infinite",
        "tokenOfOwnerByIndex(address,uint256)": "infinite",
        "tokenURI(uint256)": "3395",
        "totalSupply()": "2557",
        "transferFrom(address,address,uint256)": "infinite"
      },
      "internal": {
        "_beforeTokenTransfer(address,address,uint256)": "infinite",
        "createFightID()": "24378",
        "createPokemon(uint256,uint256,uint256,uint256,uint256,uint256,uint256,uint256,uint256,uint256,uint256,uint256)": "infinite",
        "createPokemonByNameId(uint256,uint256)": "infinite",
        "createPokemonOther(uint256,uint256,uint256,uint256,uint256)": "infinite",
        "getDamage()": "infinite",
        "getDv()": "infinite",
        "getStrength()": "infinite",
        "getType()": "infinite",
        "random(uint256)": "infinite"
      }
    },
    "methodIdentifiers": {
      "approve(address,uint256)": "095ea7b3",
      "balanceOf(address)": "70a08231",
      "fightIDToFighters(uint256)": "1992f36d",
      "fightIDToWinnerPokemon(uint256)": "d82fe3b7",
      "getApproved(uint256)": "081812fc",
      "get_winner(uint256,uint256,uint256,uint256)": "4c64c94d",
      "isApprovedForAll(address,address)": "e985e9c5",
      "mint(uint256)": "a0712d68",
      "name()": "06fdde03",
      "ownerOf(uint256)": "6352211e",
      "pokemonIDToFightsWon(uint256)": "d5f39a5b",
      "pokemons(uint256)": "85831079",
      "safeTransferFrom(address,address,uint256)": "42842e0e",
      "safeTransferFrom(address,address,uint256,bytes)": "b88d4fde",
      "sendPokemonsToL2(uint256,uint256)": "85b1c79d",
      "setApprovalForAll(address,bool)": "a22cb465",
      "supportsInterface(bytes4)": "01ffc9a7",
      "symbol()": "95d89b41",
      "tokenByIndex(uint256)": "4f6ccce7",
      "tokenOfOwnerByIndex(address,uint256)": "2f745c59",
      "tokenURI(uint256)": "c87b56dd",
      "totalSupply()": "18160ddd",
      "transferFrom(address,address,uint256)": "23b872dd"
    }
  },
  "abi": [
    {
      "inputs": [],
      "stateMutability": "nonpayable",
      "type": "constructor"
    },
    {
      "anonymous": false,
      "inputs": [
        {
          "indexed": true,
          "internalType": "address",
          "name": "owner",
          "type": "address"
        },
        {
          "indexed": true,
          "internalType": "address",
          "name": "approved",
          "type": "address"
        },
        {
          "indexed": true,
          "internalType": "uint256",
          "name": "tokenId",
          "type": "uint256"
        }
      ],
      "name": "Approval",
      "type": "event"
    },
    {
      "anonymous": false,
      "inputs": [
        {
          "indexed": true,
          "internalType": "address",
          "name": "owner",
          "type": "address"
        },
        {
          "indexed": true,
          "internalType": "address",
          "name": "operator",
          "type": "address"
        },
        {
          "indexed": false,
          "internalType": "bool",
          "name": "approved",
          "type": "bool"
        }
      ],
      "name": "ApprovalForAll",
      "type": "event"
    },
    {
      "anonymous": false,
      "inputs": [
        {
          "indexed": true,
          "internalType": "address",
          "name": "from",
          "type": "address"
        },
        {
          "indexed": true,
          "internalType": "address",
          "name": "to",
          "type": "address"
        },
        {
          "indexed": true,
          "internalType": "uint256",
          "name": "tokenId",
          "type": "uint256"
        }
      ],
      "name": "Transfer",
      "type": "event"
    },
    {
      "anonymous": false,
      "inputs": [
        {
          "indexed": false,
          "internalType": "uint256",
          "name": "uuid",
          "type": "uint256"
        },
        {
          "indexed": false,
          "internalType": "uint256",
          "name": "hp",
          "type": "uint256"
        },
        {
          "indexed": false,
          "internalType": "uint256",
          "name": "atk",
          "type": "uint256"
        },
        {
          "indexed": false,
          "internalType": "uint256",
          "name": "init",
          "type": "uint256"
        },
        {
          "indexed": false,
          "internalType": "uint256",
          "name": "def",
          "type": "uint256"
        }
      ],
      "name": "createdRandomPkmn",
      "type": "event"
    },
    {
      "anonymous": false,
      "inputs": [
        {
          "indexed": false,
          "internalType": "uint256",
          "name": "message",
          "type": "uint256"
        }
      ],
      "name": "enteredFunc",
      "type": "event"
    },
    {
      "anonymous": false,
      "inputs": [
        {
          "indexed": false,
          "internalType": "uint256",
          "name": "message",
          "type": "uint256"
        }
      ],
      "name": "gettingWinnerEntered",
      "type": "event"
    },
    {
      "anonymous": false,
      "inputs": [
        {
          "indexed": false,
          "internalType": "uint256",
          "name": "l2contract",
          "type": "uint256"
        },
        {
          "indexed": false,
          "internalType": "uint256",
          "name": "_winnerPok",
          "type": "uint256"
        },
        {
          "indexed": false,
          "internalType": "uint256",
          "name": "_fightID",
          "type": "uint256"
        }
      ],
      "name": "gettingWinnerFinished",
      "type": "event"
    },
    {
      "anonymous": false,
      "inputs": [
        {
          "indexed": true,
          "internalType": "address",
          "name": "_from",
          "type": "address"
        },
        {
          "indexed": false,
          "internalType": "uint256",
          "name": "_pok1",
          "type": "uint256"
        },
        {
          "indexed": false,
          "internalType": "uint256",
          "name": "_pok2",
          "type": "uint256"
        },
        {
          "indexed": false,
          "internalType": "uint256",
          "name": "l2Contract",
          "type": "uint256"
        },
        {
          "indexed": false,
          "internalType": "uint256",
          "name": "_value",
          "type": "uint256"
        }
      ],
      "name": "startFight",
      "type": "event"
    },
    {
      "anonymous": false,
      "inputs": [
        {
          "indexed": false,
          "internalType": "uint256",
          "name": "message",
          "type": "uint256"
        }
      ],
      "name": "startFightMessage",
      "type": "event"
    },
    {
      "anonymous": false,
      "inputs": [
        {
          "indexed": false,
          "internalType": "uint256",
          "name": "winnerPokID",
          "type": "uint256"
        },
        {
          "indexed": false,
          "internalType": "uint256",
          "name": "roundsWon",
          "type": "uint256"
        }
      ],
      "name": "winnerCount",
      "type": "event"
    },
    {
      "inputs": [
        {
          "internalType": "address",
          "name": "to",
          "type": "address"
        },
        {
          "internalType": "uint256",
          "name": "tokenId",
          "type": "uint256"
        }
      ],
      "name": "approve",
      "outputs": [],
      "stateMutability": "nonpayable",
      "type": "function"
    },
    {
      "inputs": [
        {
          "internalType": "address",
          "name": "owner",
          "type": "address"
        }
      ],
      "name": "balanceOf",
      "outputs": [
        {
          "internalType": "uint256",
          "name": "",
          "type": "uint256"
        }
      ],
      "stateMutability": "view",
      "type": "function"
    },
    {
      "inputs": [
        {
          "internalType": "uint256",
          "name": "",
          "type": "uint256"
        }
      ],
      "name": "fightIDToFighters",
      "outputs": [
        {
          "components": [
            {
              "internalType": "uint256",
              "name": "id",
              "type": "uint256"
            },
            {
              "internalType": "uint256",
              "name": "hp",
              "type": "uint256"
            },
            {
              "internalType": "uint256",
              "name": "atk",
              "type": "uint256"
            },
            {
              "internalType": "uint256",
              "name": "init",
              "type": "uint256"
            },
            {
              "internalType": "uint256",
              "name": "def",
              "type": "uint256"
            },
            {
              "internalType": "uint256",
              "name": "type1",
              "type": "uint256"
            },
            {
              "internalType": "uint256",
              "name": "type2",
              "type": "uint256"
            },
            {
              "internalType": "uint256",
              "name": "atk1_type",
              "type": "uint256"
            },
            {
              "internalType": "uint256",
              "name": "atk1_damage",
              "type": "uint256"
            },
            {
              "internalType": "uint256",
              "name": "atk2_type",
              "type": "uint256"
            },
            {
              "internalType": "uint256",
              "name": "atk2_damage",
              "type": "uint256"
            },
            {
              "internalType": "uint256",
              "name": "name_id",
              "type": "uint256"
            }
          ],
          "internalType": "struct NFT.Pokemon",
          "name": "pok1",
          "type": "tuple"
        },
        {
          "components": [
            {
              "internalType": "uint256",
              "name": "id",
              "type": "uint256"
            },
            {
              "internalType": "uint256",
              "name": "hp",
              "type": "uint256"
            },
            {
              "internalType": "uint256",
              "name": "atk",
              "type": "uint256"
            },
            {
              "internalType": "uint256",
              "name": "init",
              "type": "uint256"
            },
            {
              "internalType": "uint256",
              "name": "def",
              "type": "uint256"
            },
            {
              "internalType": "uint256",
              "name": "type1",
              "type": "uint256"
            },
            {
              "internalType": "uint256",
              "name": "type2",
              "type": "uint256"
            },
            {
              "internalType": "uint256",
              "name": "atk1_type",
              "type": "uint256"
            },
            {
              "internalType": "uint256",
              "name": "atk1_damage",
              "type": "uint256"
            },
            {
              "internalType": "uint256",
              "name": "atk2_type",
              "type": "uint256"
            },
            {
              "internalType": "uint256",
              "name": "atk2_damage",
              "type": "uint256"
            },
            {
              "internalType": "uint256",
              "name": "name_id",
              "type": "uint256"
            }
          ],
          "internalType": "struct NFT.Pokemon",
          "name": "pok2",
          "type": "tuple"
        }
      ],
      "stateMutability": "view",
      "type": "function"
    },
    {
      "inputs": [
        {
          "internalType": "uint256",
          "name": "",
          "type": "uint256"
        }
      ],
      "name": "fightIDToWinnerPokemon",
      "outputs": [
        {
          "internalType": "uint256",
          "name": "id",
          "type": "uint256"
        },
        {
          "internalType": "uint256",
          "name": "hp",
          "type": "uint256"
        },
        {
          "internalType": "uint256",
          "name": "atk",
          "type": "uint256"
        },
        {
          "internalType": "uint256",
          "name": "init",
          "type": "uint256"
        },
        {
          "internalType": "uint256",
          "name": "def",
          "type": "uint256"
        },
        {
          "internalType": "uint256",
          "name": "type1",
          "type": "uint256"
        },
        {
          "internalType": "uint256",
          "name": "type2",
          "type": "uint256"
        },
        {
          "internalType": "uint256",
          "name": "atk1_type",
          "type": "uint256"
        },
        {
          "internalType": "uint256",
          "name": "atk1_damage",
          "type": "uint256"
        },
        {
          "internalType": "uint256",
          "name": "atk2_type",
          "type": "uint256"
        },
        {
          "internalType": "uint256",
          "name": "atk2_damage",
          "type": "uint256"
        },
        {
          "internalType": "uint256",
          "name": "name_id",
          "type": "uint256"
        }
      ],
      "stateMutability": "view",
      "type": "function"
    },
    {
      "inputs": [
        {
          "internalType": "uint256",
          "name": "tokenId",
          "type": "uint256"
        }
      ],
      "name": "getApproved",
      "outputs": [
        {
          "internalType": "address",
          "name": "",
          "type": "address"
        }
      ],
      "stateMutability": "view",
      "type": "function"
    },
    {
      "inputs": [
        {
          "internalType": "uint256",
          "name": "pokemonWinnerID",
          "type": "uint256"
        },
        {
          "internalType": "uint256",
          "name": "fightID",
          "type": "uint256"
        },
        {
          "internalType": "uint256",
          "name": "effFast",
          "type": "uint256"
        },
        {
          "internalType": "uint256",
          "name": "effSlow",
          "type": "uint256"
        }
      ],
      "name": "get_winner",
      "outputs": [],
      "stateMutability": "nonpayable",
      "type": "function"
    },
    {
      "inputs": [
        {
          "internalType": "address",
          "name": "owner",
          "type": "address"
        },
        {
          "internalType": "address",
          "name": "operator",
          "type": "address"
        }
      ],
      "name": "isApprovedForAll",
      "outputs": [
        {
          "internalType": "bool",
          "name": "",
          "type": "bool"
        }
      ],
      "stateMutability": "view",
      "type": "function"
    },
    {
      "inputs": [
        {
          "internalType": "uint256",
          "name": "_name_id",
          "type": "uint256"
        }
      ],
      "name": "mint",
      "outputs": [],
      "stateMutability": "nonpayable",
      "type": "function"
    },
    {
      "inputs": [],
      "name": "name",
      "outputs": [
        {
          "internalType": "string",
          "name": "",
          "type": "string"
        }
      ],
      "stateMutability": "view",
      "type": "function"
    },
    {
      "inputs": [
        {
          "internalType": "uint256",
          "name": "tokenId",
          "type": "uint256"
        }
      ],
      "name": "ownerOf",
      "outputs": [
        {
          "internalType": "address",
          "name": "",
          "type": "address"
        }
      ],
      "stateMutability": "view",
      "type": "function"
    },
    {
      "inputs": [
        {
          "internalType": "uint256",
          "name": "",
          "type": "uint256"
        }
      ],
      "name": "pokemonIDToFightsWon",
      "outputs": [
        {
          "internalType": "uint256",
          "name": "",
          "type": "uint256"
        }
      ],
      "stateMutability": "view",
      "type": "function"
    },
    {
      "inputs": [
        {
          "internalType": "uint256",
          "name": "",
          "type": "uint256"
        }
      ],
      "name": "pokemons",
      "outputs": [
        {
          "internalType": "uint256",
          "name": "id",
          "type": "uint256"
        },
        {
          "internalType": "uint256",
          "name": "hp",
          "type": "uint256"
        },
        {
          "internalType": "uint256",
          "name": "atk",
          "type": "uint256"
        },
        {
          "internalType": "uint256",
          "name": "init",
          "type": "uint256"
        },
        {
          "internalType": "uint256",
          "name": "def",
          "type": "uint256"
        },
        {
          "internalType": "uint256",
          "name": "type1",
          "type": "uint256"
        },
        {
          "internalType": "uint256",
          "name": "type2",
          "type": "uint256"
        },
        {
          "internalType": "uint256",
          "name": "atk1_type",
          "type": "uint256"
        },
        {
          "internalType": "uint256",
          "name": "atk1_damage",
          "type": "uint256"
        },
        {
          "internalType": "uint256",
          "name": "atk2_type",
          "type": "uint256"
        },
        {
          "internalType": "uint256",
          "name": "atk2_damage",
          "type": "uint256"
        },
        {
          "internalType": "uint256",
          "name": "name_id",
          "type": "uint256"
        }
      ],
      "stateMutability": "view",
      "type": "function"
    },
    {
      "inputs": [
        {
          "internalType": "address",
          "name": "from",
          "type": "address"
        },
        {
          "internalType": "address",
          "name": "to",
          "type": "address"
        },
        {
          "internalType": "uint256",
          "name": "tokenId",
          "type": "uint256"
        }
      ],
      "name": "safeTransferFrom",
      "outputs": [],
      "stateMutability": "nonpayable",
      "type": "function"
    },
    {
      "inputs": [
        {
          "internalType": "address",
          "name": "from",
          "type": "address"
        },
        {
          "internalType": "address",
          "name": "to",
          "type": "address"
        },
        {
          "internalType": "uint256",
          "name": "tokenId",
          "type": "uint256"
        },
        {
          "internalType": "bytes",
          "name": "_data",
          "type": "bytes"
        }
      ],
      "name": "safeTransferFrom",
      "outputs": [],
      "stateMutability": "nonpayable",
      "type": "function"
    },
    {
      "inputs": [
        {
          "internalType": "uint256",
          "name": "myPok",
          "type": "uint256"
        },
        {
          "internalType": "uint256",
          "name": "enemyPok",
          "type": "uint256"
        }
      ],
      "name": "sendPokemonsToL2",
      "outputs": [],
      "stateMutability": "payable",
      "type": "function"
    },
    {
      "inputs": [
        {
          "internalType": "address",
          "name": "operator",
          "type": "address"
        },
        {
          "internalType": "bool",
          "name": "approved",
          "type": "bool"
        }
      ],
      "name": "setApprovalForAll",
      "outputs": [],
      "stateMutability": "nonpayable",
      "type": "function"
    },
    {
      "inputs": [
        {
          "internalType": "bytes4",
          "name": "interfaceId",
          "type": "bytes4"
        }
      ],
      "name": "supportsInterface",
      "outputs": [
        {
          "internalType": "bool",
          "name": "",
          "type": "bool"
        }
      ],
      "stateMutability": "view",
      "type": "function"
    },
    {
      "inputs": [],
      "name": "symbol",
      "outputs": [
        {
          "internalType": "string",
          "name": "",
          "type": "string"
        }
      ],
      "stateMutability": "view",
      "type": "function"
    },
    {
      "inputs": [
        {
          "internalType": "uint256",
          "name": "index",
          "type": "uint256"
        }
      ],
      "name": "tokenByIndex",
      "outputs": [
        {
          "internalType": "uint256",
          "name": "",
          "type": "uint256"
        }
      ],
      "stateMutability": "view",
      "type": "function"
    },
    {
      "inputs": [
        {
          "internalType": "address",
          "name": "owner",
          "type": "address"
        },
        {
          "internalType": "uint256",
          "name": "index",
          "type": "uint256"
        }
      ],
      "name": "tokenOfOwnerByIndex",
      "outputs": [
        {
          "internalType": "uint256",
          "name": "",
          "type": "uint256"
        }
      ],
      "stateMutability": "view",
      "type": "function"
    },
    {
      "inputs": [
        {
          "internalType": "uint256",
          "name": "tokenId",
          "type": "uint256"
        }
      ],
      "name": "tokenURI",
      "outputs": [
        {
          "internalType": "string",
          "name": "",
          "type": "string"
        }
      ],
      "stateMutability": "view",
      "type": "function"
    },
    {
      "inputs": [],
      "name": "totalSupply",
      "outputs": [
        {
          "internalType": "uint256",
          "name": "",
          "type": "uint256"
        }
      ],
      "stateMutability": "view",
      "type": "function"
    },
    {
      "inputs": [
        {
          "internalType": "address",
          "name": "from",
          "type": "address"
        },
        {
          "internalType": "address",
          "name": "to",
          "type": "address"
        },
        {
          "internalType": "uint256",
          "name": "tokenId",
          "type": "uint256"
        }
      ],
      "name": "transferFrom",
      "outputs": [],
      "stateMutability": "nonpayable",
      "type": "function"
    }
  ]
}