{
  "data": {
    "bytecode": {
      "linkReferences": {},
      "object": "60806040527eb19ed1fb6e07d84d9b879743cac13c79b344777ca7e6393c9612b214886ded600b556000600c556000600d553480156200003e57600080fd5b506040518060400160405280600a81526020017f506f6b656d6f6e4e4654000000000000000000000000000000000000000000008152506040518060400160405280600481526020017f504b4d4e000000000000000000000000000000000000000000000000000000008152508160009080519060200190620000c39291906200013a565b508060019080519060200190620000dc9291906200013a565b50505073de29d060d45901fb19ed6c6e959eb22d8626708e600a60006101000a81548173ffffffffffffffffffffffffffffffffffffffff021916908373ffffffffffffffffffffffffffffffffffffffff1602179055506200024f565b8280546200014890620001ea565b90600052602060002090601f0160209004810192826200016c5760008555620001b8565b82601f106200018757805160ff1916838001178555620001b8565b82800160010185558215620001b8579182015b82811115620001b75782518255916020019190600101906200019a565b5b509050620001c79190620001cb565b5090565b5b80821115620001e6576000816000905550600101620001cc565b5090565b600060028204905060018216806200020357607f821691505b602082108114156200021a576200021962000220565b5b50919050565b7f4e487b7100000000000000000000000000000000000000000000000000000000600052602260045260246000fd5b614ebb806200025f6000396000f3fe6080604052600436106101405760003560e01c806370a08231116100b6578063ad5dbc291161006f578063ad5dbc29146104a3578063b88d4fde146104cc578063c87b56dd146104f5578063d5f39a5b14610532578063d82fe3b71461056f578063e985e9c5146105b757610140565b806370a082311461038557806385831079146103c257806385b1c79d1461040a57806395d89b4114610426578063a0712d6814610451578063a22cb4651461047a57610140565b80631992f36d116101085780631992f36d1461023e57806323b872dd1461027c5780632f745c59146102a557806342842e0e146102e25780634f6ccce71461030b5780636352211e1461034857610140565b806301ffc9a71461014557806306fdde0314610182578063081812fc146101ad578063095ea7b3146101ea57806318160ddd14610213575b600080fd5b34801561015157600080fd5b5061016c60048036038101906101679190613a5c565b6105f4565b6040516101799190614107565b60405180910390f35b34801561018e57600080fd5b50610197610606565b6040516101a49190614122565b60405180910390f35b3480156101b957600080fd5b506101d460048036038101906101cf9190613ab6565b610698565b6040516101e191906140a0565b60405180910390f35b3480156101f657600080fd5b50610211600480360381019061020c91906139ef565b61071d565b005b34801561021f57600080fd5b50610228610835565b604051610235919061438f565b60405180910390f35b34801561024a57600080fd5b5061026560048036038101906102609190613ab6565b610842565b604051610273929190614364565b60405180910390f35b34801561028857600080fd5b506102a3600480360381019061029e91906138d9565b61096c565b005b3480156102b157600080fd5b506102cc60048036038101906102c791906139ef565b6109cc565b6040516102d9919061438f565b60405180910390f35b3480156102ee57600080fd5b50610309600480360381019061030491906138d9565b610a71565b005b34801561031757600080fd5b50610332600480360381019061032d9190613ab6565b610a91565b60405161033f919061438f565b60405180910390f35b34801561035457600080fd5b5061036f600480360381019061036a9190613ab6565b610b02565b60405161037c91906140a0565b60405180910390f35b34801561039157600080fd5b506103ac60048036038101906103a7919061386c565b610bb4565b6040516103b9919061438f565b60405180910390f35b3480156103ce57600080fd5b506103e960048036038101906103e49190613ab6565b610c6c565b6040516104019c9b9a99989796959493929190614418565b60405180910390f35b610424600480360381019061041f9190613ae3565b610cdc565b005b34801561043257600080fd5b5061043b6114e4565b6040516104489190614122565b60405180910390f35b34801561045d57600080fd5b5061047860048036038101906104739190613ab6565b611576565b005b34801561048657600080fd5b506104a1600480360381019061049c91906139af565b6116a4565b005b3480156104af57600080fd5b506104ca60048036038101906104c59190613b23565b6116ba565b005b3480156104d857600080fd5b506104f360048036038101906104ee919061392c565b61192c565b005b34801561050157600080fd5b5061051c60048036038101906105179190613ab6565b61198e565b6040516105299190614122565b60405180910390f35b34801561053e57600080fd5b5061055960048036038101906105549190613ab6565b611a35565b604051610566919061438f565b60405180910390f35b34801561057b57600080fd5b5061059660048036038101906105919190613ab6565b611a4d565b6040516105ae9c9b9a99989796959493929190614418565b60405180910390f35b3480156105c357600080fd5b506105de60048036038101906105d99190613899565b611aad565b6040516105eb9190614107565b60405180910390f35b60006105ff82611b41565b9050919050565b6060600080546106159061471f565b80601f01602080910402602001604051908101604052809291908181526020018280546106419061471f565b801561068e5780601f106106635761010080835404028352916020019161068e565b820191906000526020600020905b81548152906001019060200180831161067157829003601f168201915b5050505050905090565b60006106a382611bbb565b6106e2576040517f08c379a00000000000000000000000000000000000000000000000000000000081526004016106d9906142a4565b60405180910390fd5b6004600083815260200190815260200160002060009054906101000a900473ffffffffffffffffffffffffffffffffffffffff169050919050565b600061072882610b02565b90508073ffffffffffffffffffffffffffffffffffffffff168373ffffffffffffffffffffffffffffffffffffffff161415610799576040517f08c379a0000000000000000000000000000000000000000000000000000000008152600401610790906142e4565b60405180910390fd5b8073ffffffffffffffffffffffffffffffffffffffff166107b8611c27565b73ffffffffffffffffffffffffffffffffffffffff1614806107e757506107e6816107e1611c27565b611aad565b5b610826576040517f08c379a000000000000000000000000000000000000000000000000000000000815260040161081d90614224565b60405180910390fd5b6108308383611c2f565b505050565b6000600880549050905090565b6011602052806000526040600020600091509050806000016040518061018001604052908160008201548152602001600182015481526020016002820154815260200160038201548152602001600482015481526020016005820154815260200160068201548152602001600782015481526020016008820154815260200160098201548152602001600a8201548152602001600b820154815250509080600c016040518061018001604052908160008201548152602001600182015481526020016002820154815260200160038201548152602001600482015481526020016005820154815260200160068201548152602001600782015481526020016008820154815260200160098201548152602001600a8201548152602001600b82015481525050905082565b61097d610977611c27565b82611ce8565b6109bc576040517f08c379a00000000000000000000000000000000000000000000000000000000081526004016109b390614304565b60405180910390fd5b6109c7838383611dc6565b505050565b60006109d783610bb4565b8210610a18576040517f08c379a0000000000000000000000000000000000000000000000000000000008152600401610a0f90614144565b60405180910390fd5b600660008473ffffffffffffffffffffffffffffffffffffffff1673ffffffffffffffffffffffffffffffffffffffff168152602001908152602001600020600083815260200190815260200160002054905092915050565b610a8c8383836040518060200160405280600081525061192c565b505050565b6000610a9b610835565b8210610adc576040517f08c379a0000000000000000000000000000000000000000000000000000000008152600401610ad390614324565b60405180910390fd5b60088281548110610af057610aef6148c2565b5b90600052602060002001549050919050565b6000806002600084815260200190815260200160002060009054906101000a900473ffffffffffffffffffffffffffffffffffffffff169050600073ffffffffffffffffffffffffffffffffffffffff168173ffffffffffffffffffffffffffffffffffffffff161415610bab576040517f08c379a0000000000000000000000000000000000000000000000000000000008152600401610ba290614264565b60405180910390fd5b80915050919050565b60008073ffffffffffffffffffffffffffffffffffffffff168273ffffffffffffffffffffffffffffffffffffffff161415610c25576040517f08c379a0000000000000000000000000000000000000000000000000000000008152600401610c1c90614244565b60405180910390fd5b600360008373ffffffffffffffffffffffffffffffffffffffff1673ffffffffffffffffffffffffffffffffffffffff168152602001908152602001600020549050919050565b600f8181548110610c7c57600080fd5b90600052602060002090600c020160009150905080600001549080600101549080600201549080600301549080600401549080600501549080600601549080600701549080600801549080600901549080600a01549080600b015490508c565b80821415610ce957600080fd5b66470de4df820000341015610cfd57600080fd5b3373ffffffffffffffffffffffffffffffffffffffff16610d1d83610b02565b73ffffffffffffffffffffffffffffffffffffffff1614610d3d57600080fd5b600073ffffffffffffffffffffffffffffffffffffffff16610d5e82610b02565b73ffffffffffffffffffffffffffffffffffffffff161415610d7f57600080fd5b6000600f8381548110610d9557610d946148c2565b5b90600052602060002090600c02016040518061018001604052908160008201548152602001600182015481526020016002820154815260200160038201548152602001600482015481526020016005820154815260200160068201548152602001600782015481526020016008820154815260200160098201548152602001600a8201548152602001600b8201548152505090506000600f8381548110610e3f57610e3e6148c2565b5b90600052602060002090600c02016040518061018001604052908160008201548152602001600182015481526020016002820154815260200160038201548152602001600482015481526020016005820154815260200160068201548152602001600782015481526020016008820154815260200160098201548152602001600a8201548152602001600b8201548152505090506000610edd61202d565b90506000601967ffffffffffffffff811115610efc57610efb6148f1565b5b604051908082528060200260200182016040528015610f2a5781602001602082028036833780820191505090505b509050836000015181600081518110610f4657610f456148c2565b5b602002602001018181525050836020015181600181518110610f6b57610f6a6148c2565b5b602002602001018181525050836040015181600281518110610f9057610f8f6148c2565b5b602002602001018181525050836060015181600381518110610fb557610fb46148c2565b5b602002602001018181525050836080015181600481518110610fda57610fd96148c2565b5b6020026020010181815250508360a0015181600581518110610fff57610ffe6148c2565b5b6020026020010181815250508360c0015181600681518110611024576110236148c2565b5b6020026020010181815250508360e0015181600781518110611049576110486148c2565b5b6020026020010181815250508361010001518160088151811061106f5761106e6148c2565b5b60200260200101818152505083610120015181600981518110611095576110946148c2565b5b60200260200101818152505083610140015181600a815181106110bb576110ba6148c2565b5b60200260200101818152505083610160015181600b815181106110e1576110e06148c2565b5b602002602001018181525050826000015181600c81518110611106576111056148c2565b5b602002602001018181525050826020015181600d8151811061112b5761112a6148c2565b5b602002602001018181525050826040015181600e815181106111505761114f6148c2565b5b602002602001018181525050826060015181600f81518110611175576111746148c2565b5b60200260200101818152505082608001518160108151811061119a576111996148c2565b5b6020026020010181815250508260a00151816011815181106111bf576111be6148c2565b5b6020026020010181815250508260c00151816012815181106111e4576111e36148c2565b5b6020026020010181815250508260e0015181601381518110611209576112086148c2565b5b6020026020010181815250508261010001518160148151811061122f5761122e6148c2565b5b60200260200101818152505082610120015181601581518110611255576112546148c2565b5b6020026020010181815250508261014001518160168151811061127b5761127a6148c2565b5b602002602001018181525050826101600151816017815181106112a1576112a06148c2565b5b60200260200101818152505081816018815181106112c2576112c16148c2565b5b602002602001018181525050600a60009054906101000a900473ffffffffffffffffffffffffffffffffffffffff1673ffffffffffffffffffffffffffffffffffffffff16633e3aa6c534600b547f02d8dd67d94ff9987fba396772e78af45776e50ec5231a489977b2973c8ad302856040518563ffffffff1660e01b8152600401611350939291906143da565b6020604051808303818588803b15801561136957600080fd5b505af115801561137d573d6000803e3d6000fd5b50505050506040513d601f19601f820116820180604052508101906113a29190613a2f565b5060405180604001604052808581526020018481525060116000848152602001908152602001600020600082015181600001600082015181600001556020820151816001015560408201518160020155606082015181600301556080820151816004015560a0820151816005015560c0820151816006015560e082015181600701556101008201518160080155610120820151816009015561014082015181600a015561016082015181600b01555050602082015181600c01600082015181600001556020820151816001015560408201518160020155606082015181600301556080820151816004015560a0820151816005015560c0820151816006015560e082015181600701556101008201518160080155610120820151816009015561014082015181600a015561016082015181600b01555050905050505050505050565b6060600180546114f39061471f565b80601f016020809104026020016040519081016040528092919081815260200182805461151f9061471f565b801561156c5780601f106115415761010080835404028352916020019161156c565b820191906000526020600020905b81548152906001019060200180831161154f57829003601f168201915b5050505050905090565b6000811180156115865750603581105b6115c5576040517f08c379a00000000000000000000000000000000000000000000000000000000081526004016115bc90614344565b60405180910390fd5b60006115d1600e61204b565b905060006115df8383612059565b9050600f8190806001815401808255809150506001900390600052602060002090600c0201600090919091909150600082015181600001556020820151816001015560408201518160020155606082015181600301556080820151816004015560a0820151816005015560c0820151816006015560e082015181600701556101008201518160080155610120820151816009015561014082015181600a015561016082015181600b0155505061169533836127d6565b61169f600e6127f4565b505050565b6116b66116af611c27565b838361280a565b5050565b6000600467ffffffffffffffff8111156116d7576116d66148f1565b5b6040519080825280602002602001820160405280156117055781602001602082028036833780820191505090505b509050848160008151811061171d5761171c6148c2565b5b602002602001018181525050838160018151811061173e5761173d6148c2565b5b602002602001018181525050828160028151811061175f5761175e6148c2565b5b60200260200101818152505081816003815181106117805761177f6148c2565b5b602002602001018181525050600a60009054906101000a900473ffffffffffffffffffffffffffffffffffffffff1673ffffffffffffffffffffffffffffffffffffffff16632c9dd5c0600b54836040518363ffffffff1660e01b81526004016117eb9291906143aa565b602060405180830381600087803b15801561180557600080fd5b505af1158015611819573d6000803e3d6000fd5b505050506040513d601f19601f8201168201806040525081019061183d9190613a2f565b50600f8581548110611852576118516148c2565b5b90600052602060002090600c02016010600086815260200190815260200160002060008201548160000155600182015481600101556002820154816002015560038201548160030155600482015481600401556005820154816005015560068201548160060155600782015481600701556008820154816008015560098201548160090155600a82015481600a0155600b82015481600b01559050506001601260008781526020019081526020016000205461190e91906145a4565b60126000878152602001908152602001600020819055505050505050565b61193d611937611c27565b83611ce8565b61197c576040517f08c379a000000000000000000000000000000000000000000000000000000000815260040161197390614304565b60405180910390fd5b61198884848484612977565b50505050565b606061199982611bbb565b6119d8576040517f08c379a00000000000000000000000000000000000000000000000000000000081526004016119cf906142c4565b60405180910390fd5b60006119e26129d3565b90506000815111611a025760405180602001604052806000815250611a2d565b80611a0c846129ea565b604051602001611a1d92919061403f565b6040516020818303038152906040525b915050919050565b60126020528060005260406000206000915090505481565b601060205280600052604060002060009150905080600001549080600101549080600201549080600301549080600401549080600501549080600601549080600701549080600801549080600901549080600a01549080600b015490508c565b6000600560008473ffffffffffffffffffffffffffffffffffffffff1673ffffffffffffffffffffffffffffffffffffffff16815260200190815260200160002060008373ffffffffffffffffffffffffffffffffffffffff1673ffffffffffffffffffffffffffffffffffffffff16815260200190815260200160002060009054906101000a900460ff16905092915050565b60007f780e9d63000000000000000000000000000000000000000000000000000000007bffffffffffffffffffffffffffffffffffffffffffffffffffffffff1916827bffffffffffffffffffffffffffffffffffffffffffffffffffffffff19161480611bb45750611bb382612b4b565b5b9050919050565b60008073ffffffffffffffffffffffffffffffffffffffff166002600084815260200190815260200160002060009054906101000a900473ffffffffffffffffffffffffffffffffffffffff1673ffffffffffffffffffffffffffffffffffffffff1614159050919050565b600033905090565b816004600083815260200190815260200160002060006101000a81548173ffffffffffffffffffffffffffffffffffffffff021916908373ffffffffffffffffffffffffffffffffffffffff160217905550808273ffffffffffffffffffffffffffffffffffffffff16611ca283610b02565b73ffffffffffffffffffffffffffffffffffffffff167f8c5be1e5ebec7d5bd14f71427d1e84f3dd0314c0f7b2291e5b200ac8c7c3b92560405160405180910390a45050565b6000611cf382611bbb565b611d32576040517f08c379a0000000000000000000000000000000000000000000000000000000008152600401611d2990614204565b60405180910390fd5b6000611d3d83610b02565b90508073ffffffffffffffffffffffffffffffffffffffff168473ffffffffffffffffffffffffffffffffffffffff161480611d7f5750611d7e8185611aad565b5b80611dbd57508373ffffffffffffffffffffffffffffffffffffffff16611da584610698565b73ffffffffffffffffffffffffffffffffffffffff16145b91505092915050565b8273ffffffffffffffffffffffffffffffffffffffff16611de682610b02565b73ffffffffffffffffffffffffffffffffffffffff1614611e3c576040517f08c379a0000000000000000000000000000000000000000000000000000000008152600401611e3390614184565b60405180910390fd5b600073ffffffffffffffffffffffffffffffffffffffff168273ffffffffffffffffffffffffffffffffffffffff161415611eac576040517f08c379a0000000000000000000000000000000000000000000000000000000008152600401611ea3906141c4565b60405180910390fd5b611eb7838383612c2d565b611ec2600082611c2f565b6001600360008573ffffffffffffffffffffffffffffffffffffffff1673ffffffffffffffffffffffffffffffffffffffff1681526020019081526020016000206000828254611f12919061462b565b925050819055506001600360008473ffffffffffffffffffffffffffffffffffffffff1673ffffffffffffffffffffffffffffffffffffffff1681526020019081526020016000206000828254611f6991906145a4565b92505081905550816002600083815260200190815260200160002060006101000a81548173ffffffffffffffffffffffffffffffffffffffff021916908373ffffffffffffffffffffffffffffffffffffffff160217905550808273ffffffffffffffffffffffffffffffffffffffff168473ffffffffffffffffffffffffffffffffffffffff167fddf252ad1be2c89b69c2b068fc378daa952ba7f163c4a11628f55a4df523b3ef60405160405180910390a4612028838383612c3d565b505050565b6000600c600081548092919061204290614782565b91905055905090565b600081600001549050919050565b61206161371d565b600183141561209b57612094826098606f606a606f600360076003601e612086612c42565b61208e612c53565b8e612c70565b90506127d0565b60028314156120d5576120ce8260a7607d607b607e60036007600360286120c0612c42565b6120c8612c53565b8e612c70565b90506127d0565b600383141561210f576121088260bb60a7609160c060036007600360326120fa612c42565b612102612c53565b8e612c70565b90506127d0565b6004831415612149576121428260926072608060686001606360016028612134612c42565b61213c612c53565b8e612c70565b90506127d0565b60058314156121835761217c8260a5607f60916079600160636001602861216e612c42565b612176612c53565b8e612c70565b90506127d0565b60068314156121bd576121b68260b960c860a760b360016009600160326121a8612c42565b6121b0612c53565b8e612c70565b90506127d0565b60078314156121f7576121f0826097606e60686080600260636002601e6121e2612c42565b6121ea612c53565b8e612c70565b90506127d0565b60088314156122315761222a8260a6607e60796091600260636002602861221c612c42565b612224612c53565b8e612c70565b90506127d0565b600983141561226b576122648260ba6094608f60a76002606360026032612256612c42565b61225e612c53565b8e612c70565b90506127d0565b600a83141561228b5761228482600b6063866001612d24565b90506127d0565b600b8314156122ab576122a482600b6063866002612d24565b90506127d0565b600c8314156122cb576122c482600b6009866003612d24565b90506127d0565b600d8314156122eb576122e482600b6007866001612d24565b90506127d0565b600e83141561230b5761230482600b6007866002612d24565b90506127d0565b600f83141561232b5761232482600b6007866003612d24565b90506127d0565b601083141561234b576123448260006009866001612d24565b90506127d0565b601183141561236b576123648260006009866002612d24565b90506127d0565b601283141561238b576123848260006009866003612d24565b90506127d0565b60138314156123ab576123a48260006063866001612d24565b90506127d0565b60148314156123cb576123c48260006063866002612d24565b90506127d0565b60158314156123eb576123e48260006009866001612d24565b90506127d0565b601683141561240b576124048260006009866002612d24565b90506127d0565b601783141561242b576124248260076063866001612d24565b90506127d0565b601883141561244b576124448260076063866002612d24565b90506127d0565b601983141561246b576124648260046063866002612d24565b90506127d0565b601a83141561248b576124848260046063866003612d24565b90506127d0565b601b8314156124ab576124a48260086063866001612d24565b90506127d0565b601c8314156124cb576124c48260086063866002612d24565b90506127d0565b601d8314156124eb576124e48260076063866001612d24565b90506127d0565b601e83141561250b576125048260076063866001612d24565b90506127d0565b601f83141561252b576125248260076008866003612d24565b90506127d0565b602083141561254b576125448260076063866001612d24565b90506127d0565b602183141561256b576125648260076063866002612d24565b90506127d0565b602283141561258b576125848260076008866003612d24565b90506127d0565b60238314156125ab576125a48260116063866001612d24565b90506127d0565b60248314156125cb576125c48260116063866002612d24565b90506127d0565b60258314156125eb576125e48260016063866002612d24565b90506127d0565b602683141561260b576126048260016063866003612d24565b90506127d0565b602783141561262b576126248260006011866001612d24565b90506127d0565b602883141561264b576126448260006011866002612d24565b90506127d0565b602983141561266b576126648260076009866001612d24565b90506127d0565b602a83141561268b576126848260076009866002612d24565b90506127d0565b602b8314156126ab576126a48260036007866001612d24565b90506127d0565b602c8314156126cb576126c48260036007866002612d24565b90506127d0565b602d8314156126eb576126e48260036007866003612d24565b90506127d0565b602e83141561270b5761270482600b6003866001612d24565b90506127d0565b602f83141561272b5761272482600b6003866002612d24565b90506127d0565b603083141561274b5761274482600b6007866001612d24565b90506127d0565b603183141561276b5761276482600b6007866003612d24565b90506127d0565b603283141561278b576127848260086063866002612d24565b90506127d0565b60338314156127ab576127a48260086063866003612d24565b90506127d0565b60348314156127cb576127c48260006063866002612d24565b90506127d0565b600080fd5b92915050565b6127f0828260405180602001604052806000815250612e38565b5050565b6001816000016000828254019250508190555050565b8173ffffffffffffffffffffffffffffffffffffffff168373ffffffffffffffffffffffffffffffffffffffff161415612879576040517f08c379a0000000000000000000000000000000000000000000000000000000008152600401612870906141e4565b60405180910390fd5b80600560008573ffffffffffffffffffffffffffffffffffffffff1673ffffffffffffffffffffffffffffffffffffffff16815260200190815260200160002060008473ffffffffffffffffffffffffffffffffffffffff1673ffffffffffffffffffffffffffffffffffffffff16815260200190815260200160002060006101000a81548160ff0219169083151502179055508173ffffffffffffffffffffffffffffffffffffffff168373ffffffffffffffffffffffffffffffffffffffff167f17307eab39ab6107e8899845ad3d59bd9653f200f220920489ca2b5937696c318360405161296a9190614107565b60405180910390a3505050565b612982848484611dc6565b61298e84848484612e93565b6129cd576040517f08c379a00000000000000000000000000000000000000000000000000000000081526004016129c490614164565b60405180910390fd5b50505050565b606060405180602001604052806000815250905090565b60606000821415612a32576040518060400160405280600181526020017f30000000000000000000000000000000000000000000000000000000000000008152509050612b46565b600082905060005b60008214612a64578080612a4d90614782565b915050600a82612a5d91906145fa565b9150612a3a565b60008167ffffffffffffffff811115612a8057612a7f6148f1565b5b6040519080825280601f01601f191660200182016040528015612ab25781602001600182028036833780820191505090505b5090505b60008514612b3f57600182612acb919061462b565b9150600a85612ada91906147d5565b6030612ae691906145a4565b60f81b818381518110612afc57612afb6148c2565b5b60200101907effffffffffffffffffffffffffffffffffffffffffffffffffffffffffffff1916908160001a905350600a85612b3891906145fa565b9450612ab6565b8093505050505b919050565b60007f80ac58cd000000000000000000000000000000000000000000000000000000007bffffffffffffffffffffffffffffffffffffffffffffffffffffffff1916827bffffffffffffffffffffffffffffffffffffffffffffffffffffffff19161480612c1657507f5b5e139f000000000000000000000000000000000000000000000000000000007bffffffffffffffffffffffffffffffffffffffffffffffffffffffff1916827bffffffffffffffffffffffffffffffffffffffffffffffffffffffff1916145b80612c265750612c258261302a565b5b9050919050565b612c38838383613094565b505050565b505050565b6000612c4e60116131a8565b905090565b60006028612c6160326131a8565b612c6b91906145a4565b905090565b612c7861371d565b6040518061018001604052808e8152602001612c92613204565b8e612c9d91906145a4565b8152602001612caa613204565b8d612cb591906145a4565b8152602001612cc2613204565b8c612ccd91906145a4565b8152602001612cda613204565b8b612ce591906145a4565b81526020018981526020018881526020018781526020018681526020018581526020018481526020018381525090509c9b505050505050505050505050565b612d2c61371d565b6000606490506002831415612d4b57601481612d4891906145a4565b90505b6003831415612d6457603281612d6191906145a4565b90505b6004831415612d7d57604681612d7a91906145a4565b90505b604051806101800160405280888152602001612d97613204565b83612da291906145a4565b8152602001612daf613204565b83612dba91906145a4565b8152602001612dc7613204565b83612dd291906145a4565b8152602001612ddf613204565b83612dea91906145a4565b8152602001878152602001868152602001878152602001612e09612c53565b8152602001612e16612c42565b8152602001612e23612c53565b81526020018581525091505095945050505050565b612e428383613215565b612e4f6000848484612e93565b612e8e576040517f08c379a0000000000000000000000000000000000000000000000000000000008152600401612e8590614164565b60405180910390fd5b505050565b6000612eb48473ffffffffffffffffffffffffffffffffffffffff166133ef565b1561301d578373ffffffffffffffffffffffffffffffffffffffff1663150b7a02612edd611c27565b8786866040518563ffffffff1660e01b8152600401612eff94939291906140bb565b602060405180830381600087803b158015612f1957600080fd5b505af1925050508015612f4a57506040513d601f19601f82011682018060405250810190612f479190613a89565b60015b612fcd573d8060008114612f7a576040519150601f19603f3d011682016040523d82523d6000602084013e612f7f565b606091505b50600081511415612fc5576040517f08c379a0000000000000000000000000000000000000000000000000000000008152600401612fbc90614164565b60405180910390fd5b805181602001fd5b63150b7a0260e01b7bffffffffffffffffffffffffffffffffffffffffffffffffffffffff1916817bffffffffffffffffffffffffffffffffffffffffffffffffffffffff191614915050613022565b600190505b949350505050565b60007f01ffc9a7000000000000000000000000000000000000000000000000000000007bffffffffffffffffffffffffffffffffffffffffffffffffffffffff1916827bffffffffffffffffffffffffffffffffffffffffffffffffffffffff1916149050919050565b61309f838383613412565b600073ffffffffffffffffffffffffffffffffffffffff168373ffffffffffffffffffffffffffffffffffffffff1614156130e2576130dd81613417565b613121565b8173ffffffffffffffffffffffffffffffffffffffff168373ffffffffffffffffffffffffffffffffffffffff16146131205761311f8382613460565b5b5b600073ffffffffffffffffffffffffffffffffffffffff168273ffffffffffffffffffffffffffffffffffffffff1614156131645761315f816135cd565b6131a3565b8273ffffffffffffffffffffffffffffffffffffffff168273ffffffffffffffffffffffffffffffffffffffff16146131a2576131a1828261369e565b5b5b505050565b6000600d60008154809291906131bd90614782565b9190505550814442600d546040516020016131da93929190614063565b6040516020818303038152906040528051906020012060001c6131fd91906147d5565b9050919050565b600061321060146131a8565b905090565b600073ffffffffffffffffffffffffffffffffffffffff168273ffffffffffffffffffffffffffffffffffffffff161415613285576040517f08c379a000000000000000000000000000000000000000000000000000000000815260040161327c90614284565b60405180910390fd5b61328e81611bbb565b156132ce576040517f08c379a00000000000000000000000000000000000000000000000000000000081526004016132c5906141a4565b60405180910390fd5b6132da60008383612c2d565b6001600360008473ffffffffffffffffffffffffffffffffffffffff1673ffffffffffffffffffffffffffffffffffffffff168152602001908152602001600020600082825461332a91906145a4565b92505081905550816002600083815260200190815260200160002060006101000a81548173ffffffffffffffffffffffffffffffffffffffff021916908373ffffffffffffffffffffffffffffffffffffffff160217905550808273ffffffffffffffffffffffffffffffffffffffff16600073ffffffffffffffffffffffffffffffffffffffff167fddf252ad1be2c89b69c2b068fc378daa952ba7f163c4a11628f55a4df523b3ef60405160405180910390a46133eb60008383612c3d565b5050565b6000808273ffffffffffffffffffffffffffffffffffffffff163b119050919050565b505050565b6008805490506009600083815260200190815260200160002081905550600881908060018154018082558091505060019003906000526020600020016000909190919091505550565b6000600161346d84610bb4565b613477919061462b565b905060006007600084815260200190815260200160002054905081811461355c576000600660008673ffffffffffffffffffffffffffffffffffffffff1673ffffffffffffffffffffffffffffffffffffffff168152602001908152602001600020600084815260200190815260200160002054905080600660008773ffffffffffffffffffffffffffffffffffffffff1673ffffffffffffffffffffffffffffffffffffffff168152602001908152602001600020600084815260200190815260200160002081905550816007600083815260200190815260200160002081905550505b6007600084815260200190815260200160002060009055600660008573ffffffffffffffffffffffffffffffffffffffff1673ffffffffffffffffffffffffffffffffffffffff16815260200190815260200160002060008381526020019081526020016000206000905550505050565b600060016008805490506135e1919061462b565b9050600060096000848152602001908152602001600020549050600060088381548110613611576136106148c2565b5b906000526020600020015490508060088381548110613633576136326148c2565b5b90600052602060002001819055508160096000838152602001908152602001600020819055506009600085815260200190815260200160002060009055600880548061368257613681614893565b5b6001900381819060005260206000200160009055905550505050565b60006136a983610bb4565b905081600660008573ffffffffffffffffffffffffffffffffffffffff1673ffffffffffffffffffffffffffffffffffffffff168152602001908152602001600020600083815260200190815260200160002081905550806007600084815260200190815260200160002081905550505050565b6040518061018001604052806000815260200160008152602001600081526020016000815260200160008152602001600081526020016000815260200160008152602001600081526020016000815260200160008152602001600081525090565b600061379161378c846144f7565b6144d2565b9050828152602081018484840111156137ad576137ac614925565b5b6137b88482856146dd565b509392505050565b6000813590506137cf81614e12565b92915050565b6000813590506137e481614e29565b92915050565b6000815190506137f981614e40565b92915050565b60008135905061380e81614e57565b92915050565b60008151905061382381614e57565b92915050565b600082601f83011261383e5761383d614920565b5b813561384e84826020860161377e565b91505092915050565b60008135905061386681614e6e565b92915050565b6000602082840312156138825761388161492f565b5b6000613890848285016137c0565b91505092915050565b600080604083850312156138b0576138af61492f565b5b60006138be858286016137c0565b92505060206138cf858286016137c0565b9150509250929050565b6000806000606084860312156138f2576138f161492f565b5b6000613900868287016137c0565b9350506020613911868287016137c0565b925050604061392286828701613857565b9150509250925092565b600080600080608085870312156139465761394561492f565b5b6000613954878288016137c0565b9450506020613965878288016137c0565b935050604061397687828801613857565b925050606085013567ffffffffffffffff8111156139975761399661492a565b5b6139a387828801613829565b91505092959194509250565b600080604083850312156139c6576139c561492f565b5b60006139d4858286016137c0565b92505060206139e5858286016137d5565b9150509250929050565b60008060408385031215613a0657613a0561492f565b5b6000613a14858286016137c0565b9250506020613a2585828601613857565b9150509250929050565b600060208284031215613a4557613a4461492f565b5b6000613a53848285016137ea565b91505092915050565b600060208284031215613a7257613a7161492f565b5b6000613a80848285016137ff565b91505092915050565b600060208284031215613a9f57613a9e61492f565b5b6000613aad84828501613814565b91505092915050565b600060208284031215613acc57613acb61492f565b5b6000613ada84828501613857565b91505092915050565b60008060408385031215613afa57613af961492f565b5b6000613b0885828601613857565b9250506020613b1985828601613857565b9150509250929050565b60008060008060808587031215613b3d57613b3c61492f565b5b6000613b4b87828801613857565b9450506020613b5c87828801613857565b9350506040613b6d87828801613857565b9250506060613b7e87828801613857565b91505092959194509250565b6000613b96838361400a565b60208301905092915050565b613bab8161465f565b82525050565b6000613bbc82614538565b613bc68185614566565b9350613bd183614528565b8060005b83811015613c02578151613be98882613b8a565b9750613bf483614559565b925050600181019050613bd5565b5085935050505092915050565b613c1881614671565b82525050565b6000613c2982614543565b613c338185614577565b9350613c438185602086016146ec565b613c4c81614934565b840191505092915050565b6000613c628261454e565b613c6c8185614588565b9350613c7c8185602086016146ec565b613c8581614934565b840191505092915050565b6000613c9b8261454e565b613ca58185614599565b9350613cb58185602086016146ec565b80840191505092915050565b6000613cce602b83614588565b9150613cd982614945565b604082019050919050565b6000613cf1603283614588565b9150613cfc82614994565b604082019050919050565b6000613d14602583614588565b9150613d1f826149e3565b604082019050919050565b6000613d37601c83614588565b9150613d4282614a32565b602082019050919050565b6000613d5a602483614588565b9150613d6582614a5b565b604082019050919050565b6000613d7d601983614588565b9150613d8882614aaa565b602082019050919050565b6000613da0602c83614588565b9150613dab82614ad3565b604082019050919050565b6000613dc3603883614588565b9150613dce82614b22565b604082019050919050565b6000613de6602a83614588565b9150613df182614b71565b604082019050919050565b6000613e09602983614588565b9150613e1482614bc0565b604082019050919050565b6000613e2c602083614588565b9150613e3782614c0f565b602082019050919050565b6000613e4f602c83614588565b9150613e5a82614c38565b604082019050919050565b6000613e72602f83614588565b9150613e7d82614c87565b604082019050919050565b6000613e95602183614588565b9150613ea082614cd6565b604082019050919050565b6000613eb8603183614588565b9150613ec382614d25565b604082019050919050565b6000613edb602c83614588565b9150613ee682614d74565b604082019050919050565b6000613efe603083614588565b9150613f0982614dc3565b604082019050919050565b61018082016000820151613f2b600085018261400a565b506020820151613f3e602085018261400a565b506040820151613f51604085018261400a565b506060820151613f64606085018261400a565b506080820151613f77608085018261400a565b5060a0820151613f8a60a085018261400a565b5060c0820151613f9d60c085018261400a565b5060e0820151613fb060e085018261400a565b50610100820151613fc561010085018261400a565b50610120820151613fda61012085018261400a565b50610140820151613fef61014085018261400a565b5061016082015161400461016085018261400a565b50505050565b614013816146d3565b82525050565b614022816146d3565b82525050565b614039614034826146d3565b6147cb565b82525050565b600061404b8285613c90565b91506140578284613c90565b91508190509392505050565b600061406f8286614028565b60208201915061407f8285614028565b60208201915061408f8284614028565b602082019150819050949350505050565b60006020820190506140b56000830184613ba2565b92915050565b60006080820190506140d06000830187613ba2565b6140dd6020830186613ba2565b6140ea6040830185614019565b81810360608301526140fc8184613c1e565b905095945050505050565b600060208201905061411c6000830184613c0f565b92915050565b6000602082019050818103600083015261413c8184613c57565b905092915050565b6000602082019050818103600083015261415d81613cc1565b9050919050565b6000602082019050818103600083015261417d81613ce4565b9050919050565b6000602082019050818103600083015261419d81613d07565b9050919050565b600060208201905081810360008301526141bd81613d2a565b9050919050565b600060208201905081810360008301526141dd81613d4d565b9050919050565b600060208201905081810360008301526141fd81613d70565b9050919050565b6000602082019050818103600083015261421d81613d93565b9050919050565b6000602082019050818103600083015261423d81613db6565b9050919050565b6000602082019050818103600083015261425d81613dd9565b9050919050565b6000602082019050818103600083015261427d81613dfc565b9050919050565b6000602082019050818103600083015261429d81613e1f565b9050919050565b600060208201905081810360008301526142bd81613e42565b9050919050565b600060208201905081810360008301526142dd81613e65565b9050919050565b600060208201905081810360008301526142fd81613e88565b9050919050565b6000602082019050818103600083015261431d81613eab565b9050919050565b6000602082019050818103600083015261433d81613ece565b9050919050565b6000602082019050818103600083015261435d81613ef1565b9050919050565b60006103008201905061437a6000830185613f14565b614388610180830184613f14565b9392505050565b60006020820190506143a46000830184614019565b92915050565b60006040820190506143bf6000830185614019565b81810360208301526143d18184613bb1565b90509392505050565b60006060820190506143ef6000830186614019565b6143fc6020830185614019565b818103604083015261440e8184613bb1565b9050949350505050565b60006101808201905061442e600083018f614019565b61443b602083018e614019565b614448604083018d614019565b614455606083018c614019565b614462608083018b614019565b61446f60a083018a614019565b61447c60c0830189614019565b61448960e0830188614019565b614497610100830187614019565b6144a5610120830186614019565b6144b3610140830185614019565b6144c1610160830184614019565b9d9c50505050505050505050505050565b60006144dc6144ed565b90506144e88282614751565b919050565b6000604051905090565b600067ffffffffffffffff821115614512576145116148f1565b5b61451b82614934565b9050602081019050919050565b6000819050602082019050919050565b600081519050919050565b600081519050919050565b600081519050919050565b6000602082019050919050565b600082825260208201905092915050565b600082825260208201905092915050565b600082825260208201905092915050565b600081905092915050565b60006145af826146d3565b91506145ba836146d3565b9250827fffffffffffffffffffffffffffffffffffffffffffffffffffffffffffffffff038211156145ef576145ee614806565b5b828201905092915050565b6000614605826146d3565b9150614610836146d3565b9250826146205761461f614835565b5b828204905092915050565b6000614636826146d3565b9150614641836146d3565b92508282101561465457614653614806565b5b828203905092915050565b600061466a826146b3565b9050919050565b60008115159050919050565b6000819050919050565b60007fffffffff0000000000000000000000000000000000000000000000000000000082169050919050565b600073ffffffffffffffffffffffffffffffffffffffff82169050919050565b6000819050919050565b82818337600083830152505050565b60005b8381101561470a5780820151818401526020810190506146ef565b83811115614719576000848401525b50505050565b6000600282049050600182168061473757607f821691505b6020821081141561474b5761474a614864565b5b50919050565b61475a82614934565b810181811067ffffffffffffffff82111715614779576147786148f1565b5b80604052505050565b600061478d826146d3565b91507fffffffffffffffffffffffffffffffffffffffffffffffffffffffffffffffff8214156147c0576147bf614806565b5b600182019050919050565b6000819050919050565b60006147e0826146d3565b91506147eb836146d3565b9250826147fb576147fa614835565b5b828206905092915050565b7f4e487b7100000000000000000000000000000000000000000000000000000000600052601160045260246000fd5b7f4e487b7100000000000000000000000000000000000000000000000000000000600052601260045260246000fd5b7f4e487b7100000000000000000000000000000000000000000000000000000000600052602260045260246000fd5b7f4e487b7100000000000000000000000000000000000000000000000000000000600052603160045260246000fd5b7f4e487b7100000000000000000000000000000000000000000000000000000000600052603260045260246000fd5b7f4e487b7100000000000000000000000000000000000000000000000000000000600052604160045260246000fd5b600080fd5b600080fd5b600080fd5b600080fd5b6000601f19601f8301169050919050565b7f455243373231456e756d657261626c653a206f776e657220696e646578206f7560008201527f74206f6620626f756e6473000000000000000000000000000000000000000000602082015250565b7f4552433732313a207472616e7366657220746f206e6f6e20455243373231526560008201527f63656976657220696d706c656d656e7465720000000000000000000000000000602082015250565b7f4552433732313a207472616e736665722066726f6d20696e636f72726563742060008201527f6f776e6572000000000000000000000000000000000000000000000000000000602082015250565b7f4552433732313a20746f6b656e20616c7265616479206d696e74656400000000600082015250565b7f4552433732313a207472616e7366657220746f20746865207a65726f2061646460008201527f7265737300000000000000000000000000000000000000000000000000000000602082015250565b7f4552433732313a20617070726f766520746f2063616c6c657200000000000000600082015250565b7f4552433732313a206f70657261746f7220717565727920666f72206e6f6e657860008201527f697374656e7420746f6b656e0000000000000000000000000000000000000000602082015250565b7f4552433732313a20617070726f76652063616c6c6572206973206e6f74206f7760008201527f6e6572206e6f7220617070726f76656420666f7220616c6c0000000000000000602082015250565b7f4552433732313a2062616c616e636520717565727920666f7220746865207a6560008201527f726f206164647265737300000000000000000000000000000000000000000000602082015250565b7f4552433732313a206f776e657220717565727920666f72206e6f6e657869737460008201527f656e7420746f6b656e0000000000000000000000000000000000000000000000602082015250565b7f4552433732313a206d696e7420746f20746865207a65726f2061646472657373600082015250565b7f4552433732313a20617070726f76656420717565727920666f72206e6f6e657860008201527f697374656e7420746f6b656e0000000000000000000000000000000000000000602082015250565b7f4552433732314d657461646174613a2055524920717565727920666f72206e6f60008201527f6e6578697374656e7420746f6b656e0000000000000000000000000000000000602082015250565b7f4552433732313a20617070726f76616c20746f2063757272656e74206f776e6560008201527f7200000000000000000000000000000000000000000000000000000000000000602082015250565b7f4552433732313a207472616e736665722063616c6c6572206973206e6f74206f60008201527f776e6572206e6f7220617070726f766564000000000000000000000000000000602082015250565b7f455243373231456e756d657261626c653a20676c6f62616c20696e646578206f60008201527f7574206f6620626f756e64730000000000000000000000000000000000000000602082015250565b7f4f6e6c792076616c696420646578206e756d626572732e204d7573742062652060008201527f6265747765656e203120616e6420353200000000000000000000000000000000602082015250565b614e1b8161465f565b8114614e2657600080fd5b50565b614e3281614671565b8114614e3d57600080fd5b50565b614e498161467d565b8114614e5457600080fd5b50565b614e6081614687565b8114614e6b57600080fd5b50565b614e77816146d3565b8114614e8257600080fd5b5056fea26469706673582212208c8726e51c5c170ae116b90b9645cec14b9508385809d9d0032d299068d2ab5764736f6c63430008070033",
      "opcodes": "PUSH1 0x80 PUSH1 0x40 MSTORE PUSH31 0xB19ED1FB6E07D84D9B879743CAC13C79B344777CA7E6393C9612B214886DED PUSH1 0xB SSTORE PUSH1 0x0 PUSH1 0xC SSTORE PUSH1 0x0 PUSH1 0xD SSTORE CALLVALUE DUP1 ISZERO PUSH3 0x3E JUMPI PUSH1 0x0 DUP1 REVERT JUMPDEST POP PUSH1 0x40 MLOAD DUP1 PUSH1 0x40 ADD PUSH1 0x40 MSTORE DUP1 PUSH1 0xA DUP2 MSTORE PUSH1 0x20 ADD PUSH32 0x506F6B656D6F6E4E465400000000000000000000000000000000000000000000 DUP2 MSTORE POP PUSH1 0x40 MLOAD DUP1 PUSH1 0x40 ADD PUSH1 0x40 MSTORE DUP1 PUSH1 0x4 DUP2 MSTORE PUSH1 0x20 ADD PUSH32 0x504B4D4E00000000000000000000000000000000000000000000000000000000 DUP2 MSTORE POP DUP2 PUSH1 0x0 SWAP1 DUP1 MLOAD SWAP1 PUSH1 0x20 ADD SWAP1 PUSH3 0xC3 SWAP3 SWAP2 SWAP1 PUSH3 0x13A JUMP JUMPDEST POP DUP1 PUSH1 0x1 SWAP1 DUP1 MLOAD SWAP1 PUSH1 0x20 ADD SWAP1 PUSH3 0xDC SWAP3 SWAP2 SWAP1 PUSH3 0x13A JUMP JUMPDEST POP POP POP PUSH20 0xDE29D060D45901FB19ED6C6E959EB22D8626708E PUSH1 0xA PUSH1 0x0 PUSH2 0x100 EXP DUP2 SLOAD DUP2 PUSH20 0xFFFFFFFFFFFFFFFFFFFFFFFFFFFFFFFFFFFFFFFF MUL NOT AND SWAP1 DUP4 PUSH20 0xFFFFFFFFFFFFFFFFFFFFFFFFFFFFFFFFFFFFFFFF AND MUL OR SWAP1 SSTORE POP PUSH3 0x24F JUMP JUMPDEST DUP3 DUP1 SLOAD PUSH3 0x148 SWAP1 PUSH3 0x1EA JUMP JUMPDEST SWAP1 PUSH1 0x0 MSTORE PUSH1 0x20 PUSH1 0x0 KECCAK256 SWAP1 PUSH1 0x1F ADD PUSH1 0x20 SWAP1 DIV DUP2 ADD SWAP3 DUP3 PUSH3 0x16C JUMPI PUSH1 0x0 DUP6 SSTORE PUSH3 0x1B8 JUMP JUMPDEST DUP3 PUSH1 0x1F LT PUSH3 0x187 JUMPI DUP1 MLOAD PUSH1 0xFF NOT AND DUP4 DUP1 ADD OR DUP6 SSTORE PUSH3 0x1B8 JUMP JUMPDEST DUP3 DUP1 ADD PUSH1 0x1 ADD DUP6 SSTORE DUP3 ISZERO PUSH3 0x1B8 JUMPI SWAP2 DUP3 ADD JUMPDEST DUP3 DUP2 GT ISZERO PUSH3 0x1B7 JUMPI DUP3 MLOAD DUP3 SSTORE SWAP2 PUSH1 0x20 ADD SWAP2 SWAP1 PUSH1 0x1 ADD SWAP1 PUSH3 0x19A JUMP JUMPDEST JUMPDEST POP SWAP1 POP PUSH3 0x1C7 SWAP2 SWAP1 PUSH3 0x1CB JUMP JUMPDEST POP SWAP1 JUMP JUMPDEST JUMPDEST DUP1 DUP3 GT ISZERO PUSH3 0x1E6 JUMPI PUSH1 0x0 DUP2 PUSH1 0x0 SWAP1 SSTORE POP PUSH1 0x1 ADD PUSH3 0x1CC JUMP JUMPDEST POP SWAP1 JUMP JUMPDEST PUSH1 0x0 PUSH1 0x2 DUP3 DIV SWAP1 POP PUSH1 0x1 DUP3 AND DUP1 PUSH3 0x203 JUMPI PUSH1 0x7F DUP3 AND SWAP2 POP JUMPDEST PUSH1 0x20 DUP3 LT DUP2 EQ ISZERO PUSH3 0x21A JUMPI PUSH3 0x219 PUSH3 0x220 JUMP JUMPDEST JUMPDEST POP SWAP2 SWAP1 POP JUMP JUMPDEST PUSH32 0x4E487B7100000000000000000000000000000000000000000000000000000000 PUSH1 0x0 MSTORE PUSH1 0x22 PUSH1 0x4 MSTORE PUSH1 0x24 PUSH1 0x0 REVERT JUMPDEST PUSH2 0x4EBB DUP1 PUSH3 0x25F PUSH1 0x0 CODECOPY PUSH1 0x0 RETURN INVALID PUSH1 0x80 PUSH1 0x40 MSTORE PUSH1 0x4 CALLDATASIZE LT PUSH2 0x140 JUMPI PUSH1 0x0 CALLDATALOAD PUSH1 0xE0 SHR DUP1 PUSH4 0x70A08231 GT PUSH2 0xB6 JUMPI DUP1 PUSH4 0xAD5DBC29 GT PUSH2 0x6F JUMPI DUP1 PUSH4 0xAD5DBC29 EQ PUSH2 0x4A3 JUMPI DUP1 PUSH4 0xB88D4FDE EQ PUSH2 0x4CC JUMPI DUP1 PUSH4 0xC87B56DD EQ PUSH2 0x4F5 JUMPI DUP1 PUSH4 0xD5F39A5B EQ PUSH2 0x532 JUMPI DUP1 PUSH4 0xD82FE3B7 EQ PUSH2 0x56F JUMPI DUP1 PUSH4 0xE985E9C5 EQ PUSH2 0x5B7 JUMPI PUSH2 0x140 JUMP JUMPDEST DUP1 PUSH4 0x70A08231 EQ PUSH2 0x385 JUMPI DUP1 PUSH4 0x85831079 EQ PUSH2 0x3C2 JUMPI DUP1 PUSH4 0x85B1C79D EQ PUSH2 0x40A JUMPI DUP1 PUSH4 0x95D89B41 EQ PUSH2 0x426 JUMPI DUP1 PUSH4 0xA0712D68 EQ PUSH2 0x451 JUMPI DUP1 PUSH4 0xA22CB465 EQ PUSH2 0x47A JUMPI PUSH2 0x140 JUMP JUMPDEST DUP1 PUSH4 0x1992F36D GT PUSH2 0x108 JUMPI DUP1 PUSH4 0x1992F36D EQ PUSH2 0x23E JUMPI DUP1 PUSH4 0x23B872DD EQ PUSH2 0x27C JUMPI DUP1 PUSH4 0x2F745C59 EQ PUSH2 0x2A5 JUMPI DUP1 PUSH4 0x42842E0E EQ PUSH2 0x2E2 JUMPI DUP1 PUSH4 0x4F6CCCE7 EQ PUSH2 0x30B JUMPI DUP1 PUSH4 0x6352211E EQ PUSH2 0x348 JUMPI PUSH2 0x140 JUMP JUMPDEST DUP1 PUSH4 0x1FFC9A7 EQ PUSH2 0x145 JUMPI DUP1 PUSH4 0x6FDDE03 EQ PUSH2 0x182 JUMPI DUP1 PUSH4 0x81812FC EQ PUSH2 0x1AD JUMPI DUP1 PUSH4 0x95EA7B3 EQ PUSH2 0x1EA JUMPI DUP1 PUSH4 0x18160DDD EQ PUSH2 0x213 JUMPI JUMPDEST PUSH1 0x0 DUP1 REVERT JUMPDEST CALLVALUE DUP1 ISZERO PUSH2 0x151 JUMPI PUSH1 0x0 DUP1 REVERT JUMPDEST POP PUSH2 0x16C PUSH1 0x4 DUP1 CALLDATASIZE SUB DUP2 ADD SWAP1 PUSH2 0x167 SWAP2 SWAP1 PUSH2 0x3A5C JUMP JUMPDEST PUSH2 0x5F4 JUMP JUMPDEST PUSH1 0x40 MLOAD PUSH2 0x179 SWAP2 SWAP1 PUSH2 0x4107 JUMP JUMPDEST PUSH1 0x40 MLOAD DUP1 SWAP2 SUB SWAP1 RETURN JUMPDEST CALLVALUE DUP1 ISZERO PUSH2 0x18E JUMPI PUSH1 0x0 DUP1 REVERT JUMPDEST POP PUSH2 0x197 PUSH2 0x606 JUMP JUMPDEST PUSH1 0x40 MLOAD PUSH2 0x1A4 SWAP2 SWAP1 PUSH2 0x4122 JUMP JUMPDEST PUSH1 0x40 MLOAD DUP1 SWAP2 SUB SWAP1 RETURN JUMPDEST CALLVALUE DUP1 ISZERO PUSH2 0x1B9 JUMPI PUSH1 0x0 DUP1 REVERT JUMPDEST POP PUSH2 0x1D4 PUSH1 0x4 DUP1 CALLDATASIZE SUB DUP2 ADD SWAP1 PUSH2 0x1CF SWAP2 SWAP1 PUSH2 0x3AB6 JUMP JUMPDEST PUSH2 0x698 JUMP JUMPDEST PUSH1 0x40 MLOAD PUSH2 0x1E1 SWAP2 SWAP1 PUSH2 0x40A0 JUMP JUMPDEST PUSH1 0x40 MLOAD DUP1 SWAP2 SUB SWAP1 RETURN JUMPDEST CALLVALUE DUP1 ISZERO PUSH2 0x1F6 JUMPI PUSH1 0x0 DUP1 REVERT JUMPDEST POP PUSH2 0x211 PUSH1 0x4 DUP1 CALLDATASIZE SUB DUP2 ADD SWAP1 PUSH2 0x20C SWAP2 SWAP1 PUSH2 0x39EF JUMP JUMPDEST PUSH2 0x71D JUMP JUMPDEST STOP JUMPDEST CALLVALUE DUP1 ISZERO PUSH2 0x21F JUMPI PUSH1 0x0 DUP1 REVERT JUMPDEST POP PUSH2 0x228 PUSH2 0x835 JUMP JUMPDEST PUSH1 0x40 MLOAD PUSH2 0x235 SWAP2 SWAP1 PUSH2 0x438F JUMP JUMPDEST PUSH1 0x40 MLOAD DUP1 SWAP2 SUB SWAP1 RETURN JUMPDEST CALLVALUE DUP1 ISZERO PUSH2 0x24A JUMPI PUSH1 0x0 DUP1 REVERT JUMPDEST POP PUSH2 0x265 PUSH1 0x4 DUP1 CALLDATASIZE SUB DUP2 ADD SWAP1 PUSH2 0x260 SWAP2 SWAP1 PUSH2 0x3AB6 JUMP JUMPDEST PUSH2 0x842 JUMP JUMPDEST PUSH1 0x40 MLOAD PUSH2 0x273 SWAP3 SWAP2 SWAP1 PUSH2 0x4364 JUMP JUMPDEST PUSH1 0x40 MLOAD DUP1 SWAP2 SUB SWAP1 RETURN JUMPDEST CALLVALUE DUP1 ISZERO PUSH2 0x288 JUMPI PUSH1 0x0 DUP1 REVERT JUMPDEST POP PUSH2 0x2A3 PUSH1 0x4 DUP1 CALLDATASIZE SUB DUP2 ADD SWAP1 PUSH2 0x29E SWAP2 SWAP1 PUSH2 0x38D9 JUMP JUMPDEST PUSH2 0x96C JUMP JUMPDEST STOP JUMPDEST CALLVALUE DUP1 ISZERO PUSH2 0x2B1 JUMPI PUSH1 0x0 DUP1 REVERT JUMPDEST POP PUSH2 0x2CC PUSH1 0x4 DUP1 CALLDATASIZE SUB DUP2 ADD SWAP1 PUSH2 0x2C7 SWAP2 SWAP1 PUSH2 0x39EF JUMP JUMPDEST PUSH2 0x9CC JUMP JUMPDEST PUSH1 0x40 MLOAD PUSH2 0x2D9 SWAP2 SWAP1 PUSH2 0x438F JUMP JUMPDEST PUSH1 0x40 MLOAD DUP1 SWAP2 SUB SWAP1 RETURN JUMPDEST CALLVALUE DUP1 ISZERO PUSH2 0x2EE JUMPI PUSH1 0x0 DUP1 REVERT JUMPDEST POP PUSH2 0x309 PUSH1 0x4 DUP1 CALLDATASIZE SUB DUP2 ADD SWAP1 PUSH2 0x304 SWAP2 SWAP1 PUSH2 0x38D9 JUMP JUMPDEST PUSH2 0xA71 JUMP JUMPDEST STOP JUMPDEST CALLVALUE DUP1 ISZERO PUSH2 0x317 JUMPI PUSH1 0x0 DUP1 REVERT JUMPDEST POP PUSH2 0x332 PUSH1 0x4 DUP1 CALLDATASIZE SUB DUP2 ADD SWAP1 PUSH2 0x32D SWAP2 SWAP1 PUSH2 0x3AB6 JUMP JUMPDEST PUSH2 0xA91 JUMP JUMPDEST PUSH1 0x40 MLOAD PUSH2 0x33F SWAP2 SWAP1 PUSH2 0x438F JUMP JUMPDEST PUSH1 0x40 MLOAD DUP1 SWAP2 SUB SWAP1 RETURN JUMPDEST CALLVALUE DUP1 ISZERO PUSH2 0x354 JUMPI PUSH1 0x0 DUP1 REVERT JUMPDEST POP PUSH2 0x36F PUSH1 0x4 DUP1 CALLDATASIZE SUB DUP2 ADD SWAP1 PUSH2 0x36A SWAP2 SWAP1 PUSH2 0x3AB6 JUMP JUMPDEST PUSH2 0xB02 JUMP JUMPDEST PUSH1 0x40 MLOAD PUSH2 0x37C SWAP2 SWAP1 PUSH2 0x40A0 JUMP JUMPDEST PUSH1 0x40 MLOAD DUP1 SWAP2 SUB SWAP1 RETURN JUMPDEST CALLVALUE DUP1 ISZERO PUSH2 0x391 JUMPI PUSH1 0x0 DUP1 REVERT JUMPDEST POP PUSH2 0x3AC PUSH1 0x4 DUP1 CALLDATASIZE SUB DUP2 ADD SWAP1 PUSH2 0x3A7 SWAP2 SWAP1 PUSH2 0x386C JUMP JUMPDEST PUSH2 0xBB4 JUMP JUMPDEST PUSH1 0x40 MLOAD PUSH2 0x3B9 SWAP2 SWAP1 PUSH2 0x438F JUMP JUMPDEST PUSH1 0x40 MLOAD DUP1 SWAP2 SUB SWAP1 RETURN JUMPDEST CALLVALUE DUP1 ISZERO PUSH2 0x3CE JUMPI PUSH1 0x0 DUP1 REVERT JUMPDEST POP PUSH2 0x3E9 PUSH1 0x4 DUP1 CALLDATASIZE SUB DUP2 ADD SWAP1 PUSH2 0x3E4 SWAP2 SWAP1 PUSH2 0x3AB6 JUMP JUMPDEST PUSH2 0xC6C JUMP JUMPDEST PUSH1 0x40 MLOAD PUSH2 0x401 SWAP13 SWAP12 SWAP11 SWAP10 SWAP9 SWAP8 SWAP7 SWAP6 SWAP5 SWAP4 SWAP3 SWAP2 SWAP1 PUSH2 0x4418 JUMP JUMPDEST PUSH1 0x40 MLOAD DUP1 SWAP2 SUB SWAP1 RETURN JUMPDEST PUSH2 0x424 PUSH1 0x4 DUP1 CALLDATASIZE SUB DUP2 ADD SWAP1 PUSH2 0x41F SWAP2 SWAP1 PUSH2 0x3AE3 JUMP JUMPDEST PUSH2 0xCDC JUMP JUMPDEST STOP JUMPDEST CALLVALUE DUP1 ISZERO PUSH2 0x432 JUMPI PUSH1 0x0 DUP1 REVERT JUMPDEST POP PUSH2 0x43B PUSH2 0x14E4 JUMP JUMPDEST PUSH1 0x40 MLOAD PUSH2 0x448 SWAP2 SWAP1 PUSH2 0x4122 JUMP JUMPDEST PUSH1 0x40 MLOAD DUP1 SWAP2 SUB SWAP1 RETURN JUMPDEST CALLVALUE DUP1 ISZERO PUSH2 0x45D JUMPI PUSH1 0x0 DUP1 REVERT JUMPDEST POP PUSH2 0x478 PUSH1 0x4 DUP1 CALLDATASIZE SUB DUP2 ADD SWAP1 PUSH2 0x473 SWAP2 SWAP1 PUSH2 0x3AB6 JUMP JUMPDEST PUSH2 0x1576 JUMP JUMPDEST STOP JUMPDEST CALLVALUE DUP1 ISZERO PUSH2 0x486 JUMPI PUSH1 0x0 DUP1 REVERT JUMPDEST POP PUSH2 0x4A1 PUSH1 0x4 DUP1 CALLDATASIZE SUB DUP2 ADD SWAP1 PUSH2 0x49C SWAP2 SWAP1 PUSH2 0x39AF JUMP JUMPDEST PUSH2 0x16A4 JUMP JUMPDEST STOP JUMPDEST CALLVALUE DUP1 ISZERO PUSH2 0x4AF JUMPI PUSH1 0x0 DUP1 REVERT JUMPDEST POP PUSH2 0x4CA PUSH1 0x4 DUP1 CALLDATASIZE SUB DUP2 ADD SWAP1 PUSH2 0x4C5 SWAP2 SWAP1 PUSH2 0x3B23 JUMP JUMPDEST PUSH2 0x16BA JUMP JUMPDEST STOP JUMPDEST CALLVALUE DUP1 ISZERO PUSH2 0x4D8 JUMPI PUSH1 0x0 DUP1 REVERT JUMPDEST POP PUSH2 0x4F3 PUSH1 0x4 DUP1 CALLDATASIZE SUB DUP2 ADD SWAP1 PUSH2 0x4EE SWAP2 SWAP1 PUSH2 0x392C JUMP JUMPDEST PUSH2 0x192C JUMP JUMPDEST STOP JUMPDEST CALLVALUE DUP1 ISZERO PUSH2 0x501 JUMPI PUSH1 0x0 DUP1 REVERT JUMPDEST POP PUSH2 0x51C PUSH1 0x4 DUP1 CALLDATASIZE SUB DUP2 ADD SWAP1 PUSH2 0x517 SWAP2 SWAP1 PUSH2 0x3AB6 JUMP JUMPDEST PUSH2 0x198E JUMP JUMPDEST PUSH1 0x40 MLOAD PUSH2 0x529 SWAP2 SWAP1 PUSH2 0x4122 JUMP JUMPDEST PUSH1 0x40 MLOAD DUP1 SWAP2 SUB SWAP1 RETURN JUMPDEST CALLVALUE DUP1 ISZERO PUSH2 0x53E JUMPI PUSH1 0x0 DUP1 REVERT JUMPDEST POP PUSH2 0x559 PUSH1 0x4 DUP1 CALLDATASIZE SUB DUP2 ADD SWAP1 PUSH2 0x554 SWAP2 SWAP1 PUSH2 0x3AB6 JUMP JUMPDEST PUSH2 0x1A35 JUMP JUMPDEST PUSH1 0x40 MLOAD PUSH2 0x566 SWAP2 SWAP1 PUSH2 0x438F JUMP JUMPDEST PUSH1 0x40 MLOAD DUP1 SWAP2 SUB SWAP1 RETURN JUMPDEST CALLVALUE DUP1 ISZERO PUSH2 0x57B JUMPI PUSH1 0x0 DUP1 REVERT JUMPDEST POP PUSH2 0x596 PUSH1 0x4 DUP1 CALLDATASIZE SUB DUP2 ADD SWAP1 PUSH2 0x591 SWAP2 SWAP1 PUSH2 0x3AB6 JUMP JUMPDEST PUSH2 0x1A4D JUMP JUMPDEST PUSH1 0x40 MLOAD PUSH2 0x5AE SWAP13 SWAP12 SWAP11 SWAP10 SWAP9 SWAP8 SWAP7 SWAP6 SWAP5 SWAP4 SWAP3 SWAP2 SWAP1 PUSH2 0x4418 JUMP JUMPDEST PUSH1 0x40 MLOAD DUP1 SWAP2 SUB SWAP1 RETURN JUMPDEST CALLVALUE DUP1 ISZERO PUSH2 0x5C3 JUMPI PUSH1 0x0 DUP1 REVERT JUMPDEST POP PUSH2 0x5DE PUSH1 0x4 DUP1 CALLDATASIZE SUB DUP2 ADD SWAP1 PUSH2 0x5D9 SWAP2 SWAP1 PUSH2 0x3899 JUMP JUMPDEST PUSH2 0x1AAD JUMP JUMPDEST PUSH1 0x40 MLOAD PUSH2 0x5EB SWAP2 SWAP1 PUSH2 0x4107 JUMP JUMPDEST PUSH1 0x40 MLOAD DUP1 SWAP2 SUB SWAP1 RETURN JUMPDEST PUSH1 0x0 PUSH2 0x5FF DUP3 PUSH2 0x1B41 JUMP JUMPDEST SWAP1 POP SWAP2 SWAP1 POP JUMP JUMPDEST PUSH1 0x60 PUSH1 0x0 DUP1 SLOAD PUSH2 0x615 SWAP1 PUSH2 0x471F JUMP JUMPDEST DUP1 PUSH1 0x1F ADD PUSH1 0x20 DUP1 SWAP2 DIV MUL PUSH1 0x20 ADD PUSH1 0x40 MLOAD SWAP1 DUP2 ADD PUSH1 0x40 MSTORE DUP1 SWAP3 SWAP2 SWAP1 DUP2 DUP2 MSTORE PUSH1 0x20 ADD DUP3 DUP1 SLOAD PUSH2 0x641 SWAP1 PUSH2 0x471F JUMP JUMPDEST DUP1 ISZERO PUSH2 0x68E JUMPI DUP1 PUSH1 0x1F LT PUSH2 0x663 JUMPI PUSH2 0x100 DUP1 DUP4 SLOAD DIV MUL DUP4 MSTORE SWAP2 PUSH1 0x20 ADD SWAP2 PUSH2 0x68E JUMP JUMPDEST DUP3 ADD SWAP2 SWAP1 PUSH1 0x0 MSTORE PUSH1 0x20 PUSH1 0x0 KECCAK256 SWAP1 JUMPDEST DUP2 SLOAD DUP2 MSTORE SWAP1 PUSH1 0x1 ADD SWAP1 PUSH1 0x20 ADD DUP1 DUP4 GT PUSH2 0x671 JUMPI DUP3 SWAP1 SUB PUSH1 0x1F AND DUP3 ADD SWAP2 JUMPDEST POP POP POP POP POP SWAP1 POP SWAP1 JUMP JUMPDEST PUSH1 0x0 PUSH2 0x6A3 DUP3 PUSH2 0x1BBB JUMP JUMPDEST PUSH2 0x6E2 JUMPI PUSH1 0x40 MLOAD PUSH32 0x8C379A000000000000000000000000000000000000000000000000000000000 DUP2 MSTORE PUSH1 0x4 ADD PUSH2 0x6D9 SWAP1 PUSH2 0x42A4 JUMP JUMPDEST PUSH1 0x40 MLOAD DUP1 SWAP2 SUB SWAP1 REVERT JUMPDEST PUSH1 0x4 PUSH1 0x0 DUP4 DUP2 MSTORE PUSH1 0x20 ADD SWAP1 DUP2 MSTORE PUSH1 0x20 ADD PUSH1 0x0 KECCAK256 PUSH1 0x0 SWAP1 SLOAD SWAP1 PUSH2 0x100 EXP SWAP1 DIV PUSH20 0xFFFFFFFFFFFFFFFFFFFFFFFFFFFFFFFFFFFFFFFF AND SWAP1 POP SWAP2 SWAP1 POP JUMP JUMPDEST PUSH1 0x0 PUSH2 0x728 DUP3 PUSH2 0xB02 JUMP JUMPDEST SWAP1 POP DUP1 PUSH20 0xFFFFFFFFFFFFFFFFFFFFFFFFFFFFFFFFFFFFFFFF AND DUP4 PUSH20 0xFFFFFFFFFFFFFFFFFFFFFFFFFFFFFFFFFFFFFFFF AND EQ ISZERO PUSH2 0x799 JUMPI PUSH1 0x40 MLOAD PUSH32 0x8C379A000000000000000000000000000000000000000000000000000000000 DUP2 MSTORE PUSH1 0x4 ADD PUSH2 0x790 SWAP1 PUSH2 0x42E4 JUMP JUMPDEST PUSH1 0x40 MLOAD DUP1 SWAP2 SUB SWAP1 REVERT JUMPDEST DUP1 PUSH20 0xFFFFFFFFFFFFFFFFFFFFFFFFFFFFFFFFFFFFFFFF AND PUSH2 0x7B8 PUSH2 0x1C27 JUMP JUMPDEST PUSH20 0xFFFFFFFFFFFFFFFFFFFFFFFFFFFFFFFFFFFFFFFF AND EQ DUP1 PUSH2 0x7E7 JUMPI POP PUSH2 0x7E6 DUP2 PUSH2 0x7E1 PUSH2 0x1C27 JUMP JUMPDEST PUSH2 0x1AAD JUMP JUMPDEST JUMPDEST PUSH2 0x826 JUMPI PUSH1 0x40 MLOAD PUSH32 0x8C379A000000000000000000000000000000000000000000000000000000000 DUP2 MSTORE PUSH1 0x4 ADD PUSH2 0x81D SWAP1 PUSH2 0x4224 JUMP JUMPDEST PUSH1 0x40 MLOAD DUP1 SWAP2 SUB SWAP1 REVERT JUMPDEST PUSH2 0x830 DUP4 DUP4 PUSH2 0x1C2F JUMP JUMPDEST POP POP POP JUMP JUMPDEST PUSH1 0x0 PUSH1 0x8 DUP1 SLOAD SWAP1 POP SWAP1 POP SWAP1 JUMP JUMPDEST PUSH1 0x11 PUSH1 0x20 MSTORE DUP1 PUSH1 0x0 MSTORE PUSH1 0x40 PUSH1 0x0 KECCAK256 PUSH1 0x0 SWAP2 POP SWAP1 POP DUP1 PUSH1 0x0 ADD PUSH1 0x40 MLOAD DUP1 PUSH2 0x180 ADD PUSH1 0x40 MSTORE SWAP1 DUP2 PUSH1 0x0 DUP3 ADD SLOAD DUP2 MSTORE PUSH1 0x20 ADD PUSH1 0x1 DUP3 ADD SLOAD DUP2 MSTORE PUSH1 0x20 ADD PUSH1 0x2 DUP3 ADD SLOAD DUP2 MSTORE PUSH1 0x20 ADD PUSH1 0x3 DUP3 ADD SLOAD DUP2 MSTORE PUSH1 0x20 ADD PUSH1 0x4 DUP3 ADD SLOAD DUP2 MSTORE PUSH1 0x20 ADD PUSH1 0x5 DUP3 ADD SLOAD DUP2 MSTORE PUSH1 0x20 ADD PUSH1 0x6 DUP3 ADD SLOAD DUP2 MSTORE PUSH1 0x20 ADD PUSH1 0x7 DUP3 ADD SLOAD DUP2 MSTORE PUSH1 0x20 ADD PUSH1 0x8 DUP3 ADD SLOAD DUP2 MSTORE PUSH1 0x20 ADD PUSH1 0x9 DUP3 ADD SLOAD DUP2 MSTORE PUSH1 0x20 ADD PUSH1 0xA DUP3 ADD SLOAD DUP2 MSTORE PUSH1 0x20 ADD PUSH1 0xB DUP3 ADD SLOAD DUP2 MSTORE POP POP SWAP1 DUP1 PUSH1 0xC ADD PUSH1 0x40 MLOAD DUP1 PUSH2 0x180 ADD PUSH1 0x40 MSTORE SWAP1 DUP2 PUSH1 0x0 DUP3 ADD SLOAD DUP2 MSTORE PUSH1 0x20 ADD PUSH1 0x1 DUP3 ADD SLOAD DUP2 MSTORE PUSH1 0x20 ADD PUSH1 0x2 DUP3 ADD SLOAD DUP2 MSTORE PUSH1 0x20 ADD PUSH1 0x3 DUP3 ADD SLOAD DUP2 MSTORE PUSH1 0x20 ADD PUSH1 0x4 DUP3 ADD SLOAD DUP2 MSTORE PUSH1 0x20 ADD PUSH1 0x5 DUP3 ADD SLOAD DUP2 MSTORE PUSH1 0x20 ADD PUSH1 0x6 DUP3 ADD SLOAD DUP2 MSTORE PUSH1 0x20 ADD PUSH1 0x7 DUP3 ADD SLOAD DUP2 MSTORE PUSH1 0x20 ADD PUSH1 0x8 DUP3 ADD SLOAD DUP2 MSTORE PUSH1 0x20 ADD PUSH1 0x9 DUP3 ADD SLOAD DUP2 MSTORE PUSH1 0x20 ADD PUSH1 0xA DUP3 ADD SLOAD DUP2 MSTORE PUSH1 0x20 ADD PUSH1 0xB DUP3 ADD SLOAD DUP2 MSTORE POP POP SWAP1 POP DUP3 JUMP JUMPDEST PUSH2 0x97D PUSH2 0x977 PUSH2 0x1C27 JUMP JUMPDEST DUP3 PUSH2 0x1CE8 JUMP JUMPDEST PUSH2 0x9BC JUMPI PUSH1 0x40 MLOAD PUSH32 0x8C379A000000000000000000000000000000000000000000000000000000000 DUP2 MSTORE PUSH1 0x4 ADD PUSH2 0x9B3 SWAP1 PUSH2 0x4304 JUMP JUMPDEST PUSH1 0x40 MLOAD DUP1 SWAP2 SUB SWAP1 REVERT JUMPDEST PUSH2 0x9C7 DUP4 DUP4 DUP4 PUSH2 0x1DC6 JUMP JUMPDEST POP POP POP JUMP JUMPDEST PUSH1 0x0 PUSH2 0x9D7 DUP4 PUSH2 0xBB4 JUMP JUMPDEST DUP3 LT PUSH2 0xA18 JUMPI PUSH1 0x40 MLOAD PUSH32 0x8C379A000000000000000000000000000000000000000000000000000000000 DUP2 MSTORE PUSH1 0x4 ADD PUSH2 0xA0F SWAP1 PUSH2 0x4144 JUMP JUMPDEST PUSH1 0x40 MLOAD DUP1 SWAP2 SUB SWAP1 REVERT JUMPDEST PUSH1 0x6 PUSH1 0x0 DUP5 PUSH20 0xFFFFFFFFFFFFFFFFFFFFFFFFFFFFFFFFFFFFFFFF AND PUSH20 0xFFFFFFFFFFFFFFFFFFFFFFFFFFFFFFFFFFFFFFFF AND DUP2 MSTORE PUSH1 0x20 ADD SWAP1 DUP2 MSTORE PUSH1 0x20 ADD PUSH1 0x0 KECCAK256 PUSH1 0x0 DUP4 DUP2 MSTORE PUSH1 0x20 ADD SWAP1 DUP2 MSTORE PUSH1 0x20 ADD PUSH1 0x0 KECCAK256 SLOAD SWAP1 POP SWAP3 SWAP2 POP POP JUMP JUMPDEST PUSH2 0xA8C DUP4 DUP4 DUP4 PUSH1 0x40 MLOAD DUP1 PUSH1 0x20 ADD PUSH1 0x40 MSTORE DUP1 PUSH1 0x0 DUP2 MSTORE POP PUSH2 0x192C JUMP JUMPDEST POP POP POP JUMP JUMPDEST PUSH1 0x0 PUSH2 0xA9B PUSH2 0x835 JUMP JUMPDEST DUP3 LT PUSH2 0xADC JUMPI PUSH1 0x40 MLOAD PUSH32 0x8C379A000000000000000000000000000000000000000000000000000000000 DUP2 MSTORE PUSH1 0x4 ADD PUSH2 0xAD3 SWAP1 PUSH2 0x4324 JUMP JUMPDEST PUSH1 0x40 MLOAD DUP1 SWAP2 SUB SWAP1 REVERT JUMPDEST PUSH1 0x8 DUP3 DUP2 SLOAD DUP2 LT PUSH2 0xAF0 JUMPI PUSH2 0xAEF PUSH2 0x48C2 JUMP JUMPDEST JUMPDEST SWAP1 PUSH1 0x0 MSTORE PUSH1 0x20 PUSH1 0x0 KECCAK256 ADD SLOAD SWAP1 POP SWAP2 SWAP1 POP JUMP JUMPDEST PUSH1 0x0 DUP1 PUSH1 0x2 PUSH1 0x0 DUP5 DUP2 MSTORE PUSH1 0x20 ADD SWAP1 DUP2 MSTORE PUSH1 0x20 ADD PUSH1 0x0 KECCAK256 PUSH1 0x0 SWAP1 SLOAD SWAP1 PUSH2 0x100 EXP SWAP1 DIV PUSH20 0xFFFFFFFFFFFFFFFFFFFFFFFFFFFFFFFFFFFFFFFF AND SWAP1 POP PUSH1 0x0 PUSH20 0xFFFFFFFFFFFFFFFFFFFFFFFFFFFFFFFFFFFFFFFF AND DUP2 PUSH20 0xFFFFFFFFFFFFFFFFFFFFFFFFFFFFFFFFFFFFFFFF AND EQ ISZERO PUSH2 0xBAB JUMPI PUSH1 0x40 MLOAD PUSH32 0x8C379A000000000000000000000000000000000000000000000000000000000 DUP2 MSTORE PUSH1 0x4 ADD PUSH2 0xBA2 SWAP1 PUSH2 0x4264 JUMP JUMPDEST PUSH1 0x40 MLOAD DUP1 SWAP2 SUB SWAP1 REVERT JUMPDEST DUP1 SWAP2 POP POP SWAP2 SWAP1 POP JUMP JUMPDEST PUSH1 0x0 DUP1 PUSH20 0xFFFFFFFFFFFFFFFFFFFFFFFFFFFFFFFFFFFFFFFF AND DUP3 PUSH20 0xFFFFFFFFFFFFFFFFFFFFFFFFFFFFFFFFFFFFFFFF AND EQ ISZERO PUSH2 0xC25 JUMPI PUSH1 0x40 MLOAD PUSH32 0x8C379A000000000000000000000000000000000000000000000000000000000 DUP2 MSTORE PUSH1 0x4 ADD PUSH2 0xC1C SWAP1 PUSH2 0x4244 JUMP JUMPDEST PUSH1 0x40 MLOAD DUP1 SWAP2 SUB SWAP1 REVERT JUMPDEST PUSH1 0x3 PUSH1 0x0 DUP4 PUSH20 0xFFFFFFFFFFFFFFFFFFFFFFFFFFFFFFFFFFFFFFFF AND PUSH20 0xFFFFFFFFFFFFFFFFFFFFFFFFFFFFFFFFFFFFFFFF AND DUP2 MSTORE PUSH1 0x20 ADD SWAP1 DUP2 MSTORE PUSH1 0x20 ADD PUSH1 0x0 KECCAK256 SLOAD SWAP1 POP SWAP2 SWAP1 POP JUMP JUMPDEST PUSH1 0xF DUP2 DUP2 SLOAD DUP2 LT PUSH2 0xC7C JUMPI PUSH1 0x0 DUP1 REVERT JUMPDEST SWAP1 PUSH1 0x0 MSTORE PUSH1 0x20 PUSH1 0x0 KECCAK256 SWAP1 PUSH1 0xC MUL ADD PUSH1 0x0 SWAP2 POP SWAP1 POP DUP1 PUSH1 0x0 ADD SLOAD SWAP1 DUP1 PUSH1 0x1 ADD SLOAD SWAP1 DUP1 PUSH1 0x2 ADD SLOAD SWAP1 DUP1 PUSH1 0x3 ADD SLOAD SWAP1 DUP1 PUSH1 0x4 ADD SLOAD SWAP1 DUP1 PUSH1 0x5 ADD SLOAD SWAP1 DUP1 PUSH1 0x6 ADD SLOAD SWAP1 DUP1 PUSH1 0x7 ADD SLOAD SWAP1 DUP1 PUSH1 0x8 ADD SLOAD SWAP1 DUP1 PUSH1 0x9 ADD SLOAD SWAP1 DUP1 PUSH1 0xA ADD SLOAD SWAP1 DUP1 PUSH1 0xB ADD SLOAD SWAP1 POP DUP13 JUMP JUMPDEST DUP1 DUP3 EQ ISZERO PUSH2 0xCE9 JUMPI PUSH1 0x0 DUP1 REVERT JUMPDEST PUSH7 0x470DE4DF820000 CALLVALUE LT ISZERO PUSH2 0xCFD JUMPI PUSH1 0x0 DUP1 REVERT JUMPDEST CALLER PUSH20 0xFFFFFFFFFFFFFFFFFFFFFFFFFFFFFFFFFFFFFFFF AND PUSH2 0xD1D DUP4 PUSH2 0xB02 JUMP JUMPDEST PUSH20 0xFFFFFFFFFFFFFFFFFFFFFFFFFFFFFFFFFFFFFFFF AND EQ PUSH2 0xD3D JUMPI PUSH1 0x0 DUP1 REVERT JUMPDEST PUSH1 0x0 PUSH20 0xFFFFFFFFFFFFFFFFFFFFFFFFFFFFFFFFFFFFFFFF AND PUSH2 0xD5E DUP3 PUSH2 0xB02 JUMP JUMPDEST PUSH20 0xFFFFFFFFFFFFFFFFFFFFFFFFFFFFFFFFFFFFFFFF AND EQ ISZERO PUSH2 0xD7F JUMPI PUSH1 0x0 DUP1 REVERT JUMPDEST PUSH1 0x0 PUSH1 0xF DUP4 DUP2 SLOAD DUP2 LT PUSH2 0xD95 JUMPI PUSH2 0xD94 PUSH2 0x48C2 JUMP JUMPDEST JUMPDEST SWAP1 PUSH1 0x0 MSTORE PUSH1 0x20 PUSH1 0x0 KECCAK256 SWAP1 PUSH1 0xC MUL ADD PUSH1 0x40 MLOAD DUP1 PUSH2 0x180 ADD PUSH1 0x40 MSTORE SWAP1 DUP2 PUSH1 0x0 DUP3 ADD SLOAD DUP2 MSTORE PUSH1 0x20 ADD PUSH1 0x1 DUP3 ADD SLOAD DUP2 MSTORE PUSH1 0x20 ADD PUSH1 0x2 DUP3 ADD SLOAD DUP2 MSTORE PUSH1 0x20 ADD PUSH1 0x3 DUP3 ADD SLOAD DUP2 MSTORE PUSH1 0x20 ADD PUSH1 0x4 DUP3 ADD SLOAD DUP2 MSTORE PUSH1 0x20 ADD PUSH1 0x5 DUP3 ADD SLOAD DUP2 MSTORE PUSH1 0x20 ADD PUSH1 0x6 DUP3 ADD SLOAD DUP2 MSTORE PUSH1 0x20 ADD PUSH1 0x7 DUP3 ADD SLOAD DUP2 MSTORE PUSH1 0x20 ADD PUSH1 0x8 DUP3 ADD SLOAD DUP2 MSTORE PUSH1 0x20 ADD PUSH1 0x9 DUP3 ADD SLOAD DUP2 MSTORE PUSH1 0x20 ADD PUSH1 0xA DUP3 ADD SLOAD DUP2 MSTORE PUSH1 0x20 ADD PUSH1 0xB DUP3 ADD SLOAD DUP2 MSTORE POP POP SWAP1 POP PUSH1 0x0 PUSH1 0xF DUP4 DUP2 SLOAD DUP2 LT PUSH2 0xE3F JUMPI PUSH2 0xE3E PUSH2 0x48C2 JUMP JUMPDEST JUMPDEST SWAP1 PUSH1 0x0 MSTORE PUSH1 0x20 PUSH1 0x0 KECCAK256 SWAP1 PUSH1 0xC MUL ADD PUSH1 0x40 MLOAD DUP1 PUSH2 0x180 ADD PUSH1 0x40 MSTORE SWAP1 DUP2 PUSH1 0x0 DUP3 ADD SLOAD DUP2 MSTORE PUSH1 0x20 ADD PUSH1 0x1 DUP3 ADD SLOAD DUP2 MSTORE PUSH1 0x20 ADD PUSH1 0x2 DUP3 ADD SLOAD DUP2 MSTORE PUSH1 0x20 ADD PUSH1 0x3 DUP3 ADD SLOAD DUP2 MSTORE PUSH1 0x20 ADD PUSH1 0x4 DUP3 ADD SLOAD DUP2 MSTORE PUSH1 0x20 ADD PUSH1 0x5 DUP3 ADD SLOAD DUP2 MSTORE PUSH1 0x20 ADD PUSH1 0x6 DUP3 ADD SLOAD DUP2 MSTORE PUSH1 0x20 ADD PUSH1 0x7 DUP3 ADD SLOAD DUP2 MSTORE PUSH1 0x20 ADD PUSH1 0x8 DUP3 ADD SLOAD DUP2 MSTORE PUSH1 0x20 ADD PUSH1 0x9 DUP3 ADD SLOAD DUP2 MSTORE PUSH1 0x20 ADD PUSH1 0xA DUP3 ADD SLOAD DUP2 MSTORE PUSH1 0x20 ADD PUSH1 0xB DUP3 ADD SLOAD DUP2 MSTORE POP POP SWAP1 POP PUSH1 0x0 PUSH2 0xEDD PUSH2 0x202D JUMP JUMPDEST SWAP1 POP PUSH1 0x0 PUSH1 0x19 PUSH8 0xFFFFFFFFFFFFFFFF DUP2 GT ISZERO PUSH2 0xEFC JUMPI PUSH2 0xEFB PUSH2 0x48F1 JUMP JUMPDEST JUMPDEST PUSH1 0x40 MLOAD SWAP1 DUP1 DUP3 MSTORE DUP1 PUSH1 0x20 MUL PUSH1 0x20 ADD DUP3 ADD PUSH1 0x40 MSTORE DUP1 ISZERO PUSH2 0xF2A JUMPI DUP2 PUSH1 0x20 ADD PUSH1 0x20 DUP3 MUL DUP1 CALLDATASIZE DUP4 CALLDATACOPY DUP1 DUP3 ADD SWAP2 POP POP SWAP1 POP JUMPDEST POP SWAP1 POP DUP4 PUSH1 0x0 ADD MLOAD DUP2 PUSH1 0x0 DUP2 MLOAD DUP2 LT PUSH2 0xF46 JUMPI PUSH2 0xF45 PUSH2 0x48C2 JUMP JUMPDEST JUMPDEST PUSH1 0x20 MUL PUSH1 0x20 ADD ADD DUP2 DUP2 MSTORE POP POP DUP4 PUSH1 0x20 ADD MLOAD DUP2 PUSH1 0x1 DUP2 MLOAD DUP2 LT PUSH2 0xF6B JUMPI PUSH2 0xF6A PUSH2 0x48C2 JUMP JUMPDEST JUMPDEST PUSH1 0x20 MUL PUSH1 0x20 ADD ADD DUP2 DUP2 MSTORE POP POP DUP4 PUSH1 0x40 ADD MLOAD DUP2 PUSH1 0x2 DUP2 MLOAD DUP2 LT PUSH2 0xF90 JUMPI PUSH2 0xF8F PUSH2 0x48C2 JUMP JUMPDEST JUMPDEST PUSH1 0x20 MUL PUSH1 0x20 ADD ADD DUP2 DUP2 MSTORE POP POP DUP4 PUSH1 0x60 ADD MLOAD DUP2 PUSH1 0x3 DUP2 MLOAD DUP2 LT PUSH2 0xFB5 JUMPI PUSH2 0xFB4 PUSH2 0x48C2 JUMP JUMPDEST JUMPDEST PUSH1 0x20 MUL PUSH1 0x20 ADD ADD DUP2 DUP2 MSTORE POP POP DUP4 PUSH1 0x80 ADD MLOAD DUP2 PUSH1 0x4 DUP2 MLOAD DUP2 LT PUSH2 0xFDA JUMPI PUSH2 0xFD9 PUSH2 0x48C2 JUMP JUMPDEST JUMPDEST PUSH1 0x20 MUL PUSH1 0x20 ADD ADD DUP2 DUP2 MSTORE POP POP DUP4 PUSH1 0xA0 ADD MLOAD DUP2 PUSH1 0x5 DUP2 MLOAD DUP2 LT PUSH2 0xFFF JUMPI PUSH2 0xFFE PUSH2 0x48C2 JUMP JUMPDEST JUMPDEST PUSH1 0x20 MUL PUSH1 0x20 ADD ADD DUP2 DUP2 MSTORE POP POP DUP4 PUSH1 0xC0 ADD MLOAD DUP2 PUSH1 0x6 DUP2 MLOAD DUP2 LT PUSH2 0x1024 JUMPI PUSH2 0x1023 PUSH2 0x48C2 JUMP JUMPDEST JUMPDEST PUSH1 0x20 MUL PUSH1 0x20 ADD ADD DUP2 DUP2 MSTORE POP POP DUP4 PUSH1 0xE0 ADD MLOAD DUP2 PUSH1 0x7 DUP2 MLOAD DUP2 LT PUSH2 0x1049 JUMPI PUSH2 0x1048 PUSH2 0x48C2 JUMP JUMPDEST JUMPDEST PUSH1 0x20 MUL PUSH1 0x20 ADD ADD DUP2 DUP2 MSTORE POP POP DUP4 PUSH2 0x100 ADD MLOAD DUP2 PUSH1 0x8 DUP2 MLOAD DUP2 LT PUSH2 0x106F JUMPI PUSH2 0x106E PUSH2 0x48C2 JUMP JUMPDEST JUMPDEST PUSH1 0x20 MUL PUSH1 0x20 ADD ADD DUP2 DUP2 MSTORE POP POP DUP4 PUSH2 0x120 ADD MLOAD DUP2 PUSH1 0x9 DUP2 MLOAD DUP2 LT PUSH2 0x1095 JUMPI PUSH2 0x1094 PUSH2 0x48C2 JUMP JUMPDEST JUMPDEST PUSH1 0x20 MUL PUSH1 0x20 ADD ADD DUP2 DUP2 MSTORE POP POP DUP4 PUSH2 0x140 ADD MLOAD DUP2 PUSH1 0xA DUP2 MLOAD DUP2 LT PUSH2 0x10BB JUMPI PUSH2 0x10BA PUSH2 0x48C2 JUMP JUMPDEST JUMPDEST PUSH1 0x20 MUL PUSH1 0x20 ADD ADD DUP2 DUP2 MSTORE POP POP DUP4 PUSH2 0x160 ADD MLOAD DUP2 PUSH1 0xB DUP2 MLOAD DUP2 LT PUSH2 0x10E1 JUMPI PUSH2 0x10E0 PUSH2 0x48C2 JUMP JUMPDEST JUMPDEST PUSH1 0x20 MUL PUSH1 0x20 ADD ADD DUP2 DUP2 MSTORE POP POP DUP3 PUSH1 0x0 ADD MLOAD DUP2 PUSH1 0xC DUP2 MLOAD DUP2 LT PUSH2 0x1106 JUMPI PUSH2 0x1105 PUSH2 0x48C2 JUMP JUMPDEST JUMPDEST PUSH1 0x20 MUL PUSH1 0x20 ADD ADD DUP2 DUP2 MSTORE POP POP DUP3 PUSH1 0x20 ADD MLOAD DUP2 PUSH1 0xD DUP2 MLOAD DUP2 LT PUSH2 0x112B JUMPI PUSH2 0x112A PUSH2 0x48C2 JUMP JUMPDEST JUMPDEST PUSH1 0x20 MUL PUSH1 0x20 ADD ADD DUP2 DUP2 MSTORE POP POP DUP3 PUSH1 0x40 ADD MLOAD DUP2 PUSH1 0xE DUP2 MLOAD DUP2 LT PUSH2 0x1150 JUMPI PUSH2 0x114F PUSH2 0x48C2 JUMP JUMPDEST JUMPDEST PUSH1 0x20 MUL PUSH1 0x20 ADD ADD DUP2 DUP2 MSTORE POP POP DUP3 PUSH1 0x60 ADD MLOAD DUP2 PUSH1 0xF DUP2 MLOAD DUP2 LT PUSH2 0x1175 JUMPI PUSH2 0x1174 PUSH2 0x48C2 JUMP JUMPDEST JUMPDEST PUSH1 0x20 MUL PUSH1 0x20 ADD ADD DUP2 DUP2 MSTORE POP POP DUP3 PUSH1 0x80 ADD MLOAD DUP2 PUSH1 0x10 DUP2 MLOAD DUP2 LT PUSH2 0x119A JUMPI PUSH2 0x1199 PUSH2 0x48C2 JUMP JUMPDEST JUMPDEST PUSH1 0x20 MUL PUSH1 0x20 ADD ADD DUP2 DUP2 MSTORE POP POP DUP3 PUSH1 0xA0 ADD MLOAD DUP2 PUSH1 0x11 DUP2 MLOAD DUP2 LT PUSH2 0x11BF JUMPI PUSH2 0x11BE PUSH2 0x48C2 JUMP JUMPDEST JUMPDEST PUSH1 0x20 MUL PUSH1 0x20 ADD ADD DUP2 DUP2 MSTORE POP POP DUP3 PUSH1 0xC0 ADD MLOAD DUP2 PUSH1 0x12 DUP2 MLOAD DUP2 LT PUSH2 0x11E4 JUMPI PUSH2 0x11E3 PUSH2 0x48C2 JUMP JUMPDEST JUMPDEST PUSH1 0x20 MUL PUSH1 0x20 ADD ADD DUP2 DUP2 MSTORE POP POP DUP3 PUSH1 0xE0 ADD MLOAD DUP2 PUSH1 0x13 DUP2 MLOAD DUP2 LT PUSH2 0x1209 JUMPI PUSH2 0x1208 PUSH2 0x48C2 JUMP JUMPDEST JUMPDEST PUSH1 0x20 MUL PUSH1 0x20 ADD ADD DUP2 DUP2 MSTORE POP POP DUP3 PUSH2 0x100 ADD MLOAD DUP2 PUSH1 0x14 DUP2 MLOAD DUP2 LT PUSH2 0x122F JUMPI PUSH2 0x122E PUSH2 0x48C2 JUMP JUMPDEST JUMPDEST PUSH1 0x20 MUL PUSH1 0x20 ADD ADD DUP2 DUP2 MSTORE POP POP DUP3 PUSH2 0x120 ADD MLOAD DUP2 PUSH1 0x15 DUP2 MLOAD DUP2 LT PUSH2 0x1255 JUMPI PUSH2 0x1254 PUSH2 0x48C2 JUMP JUMPDEST JUMPDEST PUSH1 0x20 MUL PUSH1 0x20 ADD ADD DUP2 DUP2 MSTORE POP POP DUP3 PUSH2 0x140 ADD MLOAD DUP2 PUSH1 0x16 DUP2 MLOAD DUP2 LT PUSH2 0x127B JUMPI PUSH2 0x127A PUSH2 0x48C2 JUMP JUMPDEST JUMPDEST PUSH1 0x20 MUL PUSH1 0x20 ADD ADD DUP2 DUP2 MSTORE POP POP DUP3 PUSH2 0x160 ADD MLOAD DUP2 PUSH1 0x17 DUP2 MLOAD DUP2 LT PUSH2 0x12A1 JUMPI PUSH2 0x12A0 PUSH2 0x48C2 JUMP JUMPDEST JUMPDEST PUSH1 0x20 MUL PUSH1 0x20 ADD ADD DUP2 DUP2 MSTORE POP POP DUP2 DUP2 PUSH1 0x18 DUP2 MLOAD DUP2 LT PUSH2 0x12C2 JUMPI PUSH2 0x12C1 PUSH2 0x48C2 JUMP JUMPDEST JUMPDEST PUSH1 0x20 MUL PUSH1 0x20 ADD ADD DUP2 DUP2 MSTORE POP POP PUSH1 0xA PUSH1 0x0 SWAP1 SLOAD SWAP1 PUSH2 0x100 EXP SWAP1 DIV PUSH20 0xFFFFFFFFFFFFFFFFFFFFFFFFFFFFFFFFFFFFFFFF AND PUSH20 0xFFFFFFFFFFFFFFFFFFFFFFFFFFFFFFFFFFFFFFFF AND PUSH4 0x3E3AA6C5 CALLVALUE PUSH1 0xB SLOAD PUSH32 0x2D8DD67D94FF9987FBA396772E78AF45776E50EC5231A489977B2973C8AD302 DUP6 PUSH1 0x40 MLOAD DUP6 PUSH4 0xFFFFFFFF AND PUSH1 0xE0 SHL DUP2 MSTORE PUSH1 0x4 ADD PUSH2 0x1350 SWAP4 SWAP3 SWAP2 SWAP1 PUSH2 0x43DA JUMP JUMPDEST PUSH1 0x20 PUSH1 0x40 MLOAD DUP1 DUP4 SUB DUP2 DUP6 DUP9 DUP1 EXTCODESIZE ISZERO DUP1 ISZERO PUSH2 0x1369 JUMPI PUSH1 0x0 DUP1 REVERT JUMPDEST POP GAS CALL ISZERO DUP1 ISZERO PUSH2 0x137D JUMPI RETURNDATASIZE PUSH1 0x0 DUP1 RETURNDATACOPY RETURNDATASIZE PUSH1 0x0 REVERT JUMPDEST POP POP POP POP POP PUSH1 0x40 MLOAD RETURNDATASIZE PUSH1 0x1F NOT PUSH1 0x1F DUP3 ADD AND DUP3 ADD DUP1 PUSH1 0x40 MSTORE POP DUP2 ADD SWAP1 PUSH2 0x13A2 SWAP2 SWAP1 PUSH2 0x3A2F JUMP JUMPDEST POP PUSH1 0x40 MLOAD DUP1 PUSH1 0x40 ADD PUSH1 0x40 MSTORE DUP1 DUP6 DUP2 MSTORE PUSH1 0x20 ADD DUP5 DUP2 MSTORE POP PUSH1 0x11 PUSH1 0x0 DUP5 DUP2 MSTORE PUSH1 0x20 ADD SWAP1 DUP2 MSTORE PUSH1 0x20 ADD PUSH1 0x0 KECCAK256 PUSH1 0x0 DUP3 ADD MLOAD DUP2 PUSH1 0x0 ADD PUSH1 0x0 DUP3 ADD MLOAD DUP2 PUSH1 0x0 ADD SSTORE PUSH1 0x20 DUP3 ADD MLOAD DUP2 PUSH1 0x1 ADD SSTORE PUSH1 0x40 DUP3 ADD MLOAD DUP2 PUSH1 0x2 ADD SSTORE PUSH1 0x60 DUP3 ADD MLOAD DUP2 PUSH1 0x3 ADD SSTORE PUSH1 0x80 DUP3 ADD MLOAD DUP2 PUSH1 0x4 ADD SSTORE PUSH1 0xA0 DUP3 ADD MLOAD DUP2 PUSH1 0x5 ADD SSTORE PUSH1 0xC0 DUP3 ADD MLOAD DUP2 PUSH1 0x6 ADD SSTORE PUSH1 0xE0 DUP3 ADD MLOAD DUP2 PUSH1 0x7 ADD SSTORE PUSH2 0x100 DUP3 ADD MLOAD DUP2 PUSH1 0x8 ADD SSTORE PUSH2 0x120 DUP3 ADD MLOAD DUP2 PUSH1 0x9 ADD SSTORE PUSH2 0x140 DUP3 ADD MLOAD DUP2 PUSH1 0xA ADD SSTORE PUSH2 0x160 DUP3 ADD MLOAD DUP2 PUSH1 0xB ADD SSTORE POP POP PUSH1 0x20 DUP3 ADD MLOAD DUP2 PUSH1 0xC ADD PUSH1 0x0 DUP3 ADD MLOAD DUP2 PUSH1 0x0 ADD SSTORE PUSH1 0x20 DUP3 ADD MLOAD DUP2 PUSH1 0x1 ADD SSTORE PUSH1 0x40 DUP3 ADD MLOAD DUP2 PUSH1 0x2 ADD SSTORE PUSH1 0x60 DUP3 ADD MLOAD DUP2 PUSH1 0x3 ADD SSTORE PUSH1 0x80 DUP3 ADD MLOAD DUP2 PUSH1 0x4 ADD SSTORE PUSH1 0xA0 DUP3 ADD MLOAD DUP2 PUSH1 0x5 ADD SSTORE PUSH1 0xC0 DUP3 ADD MLOAD DUP2 PUSH1 0x6 ADD SSTORE PUSH1 0xE0 DUP3 ADD MLOAD DUP2 PUSH1 0x7 ADD SSTORE PUSH2 0x100 DUP3 ADD MLOAD DUP2 PUSH1 0x8 ADD SSTORE PUSH2 0x120 DUP3 ADD MLOAD DUP2 PUSH1 0x9 ADD SSTORE PUSH2 0x140 DUP3 ADD MLOAD DUP2 PUSH1 0xA ADD SSTORE PUSH2 0x160 DUP3 ADD MLOAD DUP2 PUSH1 0xB ADD SSTORE POP POP SWAP1 POP POP POP POP POP POP POP POP JUMP JUMPDEST PUSH1 0x60 PUSH1 0x1 DUP1 SLOAD PUSH2 0x14F3 SWAP1 PUSH2 0x471F JUMP JUMPDEST DUP1 PUSH1 0x1F ADD PUSH1 0x20 DUP1 SWAP2 DIV MUL PUSH1 0x20 ADD PUSH1 0x40 MLOAD SWAP1 DUP2 ADD PUSH1 0x40 MSTORE DUP1 SWAP3 SWAP2 SWAP1 DUP2 DUP2 MSTORE PUSH1 0x20 ADD DUP3 DUP1 SLOAD PUSH2 0x151F SWAP1 PUSH2 0x471F JUMP JUMPDEST DUP1 ISZERO PUSH2 0x156C JUMPI DUP1 PUSH1 0x1F LT PUSH2 0x1541 JUMPI PUSH2 0x100 DUP1 DUP4 SLOAD DIV MUL DUP4 MSTORE SWAP2 PUSH1 0x20 ADD SWAP2 PUSH2 0x156C JUMP JUMPDEST DUP3 ADD SWAP2 SWAP1 PUSH1 0x0 MSTORE PUSH1 0x20 PUSH1 0x0 KECCAK256 SWAP1 JUMPDEST DUP2 SLOAD DUP2 MSTORE SWAP1 PUSH1 0x1 ADD SWAP1 PUSH1 0x20 ADD DUP1 DUP4 GT PUSH2 0x154F JUMPI DUP3 SWAP1 SUB PUSH1 0x1F AND DUP3 ADD SWAP2 JUMPDEST POP POP POP POP POP SWAP1 POP SWAP1 JUMP JUMPDEST PUSH1 0x0 DUP2 GT DUP1 ISZERO PUSH2 0x1586 JUMPI POP PUSH1 0x35 DUP2 LT JUMPDEST PUSH2 0x15C5 JUMPI PUSH1 0x40 MLOAD PUSH32 0x8C379A000000000000000000000000000000000000000000000000000000000 DUP2 MSTORE PUSH1 0x4 ADD PUSH2 0x15BC SWAP1 PUSH2 0x4344 JUMP JUMPDEST PUSH1 0x40 MLOAD DUP1 SWAP2 SUB SWAP1 REVERT JUMPDEST PUSH1 0x0 PUSH2 0x15D1 PUSH1 0xE PUSH2 0x204B JUMP JUMPDEST SWAP1 POP PUSH1 0x0 PUSH2 0x15DF DUP4 DUP4 PUSH2 0x2059 JUMP JUMPDEST SWAP1 POP PUSH1 0xF DUP2 SWAP1 DUP1 PUSH1 0x1 DUP2 SLOAD ADD DUP1 DUP3 SSTORE DUP1 SWAP2 POP POP PUSH1 0x1 SWAP1 SUB SWAP1 PUSH1 0x0 MSTORE PUSH1 0x20 PUSH1 0x0 KECCAK256 SWAP1 PUSH1 0xC MUL ADD PUSH1 0x0 SWAP1 SWAP2 SWAP1 SWAP2 SWAP1 SWAP2 POP PUSH1 0x0 DUP3 ADD MLOAD DUP2 PUSH1 0x0 ADD SSTORE PUSH1 0x20 DUP3 ADD MLOAD DUP2 PUSH1 0x1 ADD SSTORE PUSH1 0x40 DUP3 ADD MLOAD DUP2 PUSH1 0x2 ADD SSTORE PUSH1 0x60 DUP3 ADD MLOAD DUP2 PUSH1 0x3 ADD SSTORE PUSH1 0x80 DUP3 ADD MLOAD DUP2 PUSH1 0x4 ADD SSTORE PUSH1 0xA0 DUP3 ADD MLOAD DUP2 PUSH1 0x5 ADD SSTORE PUSH1 0xC0 DUP3 ADD MLOAD DUP2 PUSH1 0x6 ADD SSTORE PUSH1 0xE0 DUP3 ADD MLOAD DUP2 PUSH1 0x7 ADD SSTORE PUSH2 0x100 DUP3 ADD MLOAD DUP2 PUSH1 0x8 ADD SSTORE PUSH2 0x120 DUP3 ADD MLOAD DUP2 PUSH1 0x9 ADD SSTORE PUSH2 0x140 DUP3 ADD MLOAD DUP2 PUSH1 0xA ADD SSTORE PUSH2 0x160 DUP3 ADD MLOAD DUP2 PUSH1 0xB ADD SSTORE POP POP PUSH2 0x1695 CALLER DUP4 PUSH2 0x27D6 JUMP JUMPDEST PUSH2 0x169F PUSH1 0xE PUSH2 0x27F4 JUMP JUMPDEST POP POP POP JUMP JUMPDEST PUSH2 0x16B6 PUSH2 0x16AF PUSH2 0x1C27 JUMP JUMPDEST DUP4 DUP4 PUSH2 0x280A JUMP JUMPDEST POP POP JUMP JUMPDEST PUSH1 0x0 PUSH1 0x4 PUSH8 0xFFFFFFFFFFFFFFFF DUP2 GT ISZERO PUSH2 0x16D7 JUMPI PUSH2 0x16D6 PUSH2 0x48F1 JUMP JUMPDEST JUMPDEST PUSH1 0x40 MLOAD SWAP1 DUP1 DUP3 MSTORE DUP1 PUSH1 0x20 MUL PUSH1 0x20 ADD DUP3 ADD PUSH1 0x40 MSTORE DUP1 ISZERO PUSH2 0x1705 JUMPI DUP2 PUSH1 0x20 ADD PUSH1 0x20 DUP3 MUL DUP1 CALLDATASIZE DUP4 CALLDATACOPY DUP1 DUP3 ADD SWAP2 POP POP SWAP1 POP JUMPDEST POP SWAP1 POP DUP5 DUP2 PUSH1 0x0 DUP2 MLOAD DUP2 LT PUSH2 0x171D JUMPI PUSH2 0x171C PUSH2 0x48C2 JUMP JUMPDEST JUMPDEST PUSH1 0x20 MUL PUSH1 0x20 ADD ADD DUP2 DUP2 MSTORE POP POP DUP4 DUP2 PUSH1 0x1 DUP2 MLOAD DUP2 LT PUSH2 0x173E JUMPI PUSH2 0x173D PUSH2 0x48C2 JUMP JUMPDEST JUMPDEST PUSH1 0x20 MUL PUSH1 0x20 ADD ADD DUP2 DUP2 MSTORE POP POP DUP3 DUP2 PUSH1 0x2 DUP2 MLOAD DUP2 LT PUSH2 0x175F JUMPI PUSH2 0x175E PUSH2 0x48C2 JUMP JUMPDEST JUMPDEST PUSH1 0x20 MUL PUSH1 0x20 ADD ADD DUP2 DUP2 MSTORE POP POP DUP2 DUP2 PUSH1 0x3 DUP2 MLOAD DUP2 LT PUSH2 0x1780 JUMPI PUSH2 0x177F PUSH2 0x48C2 JUMP JUMPDEST JUMPDEST PUSH1 0x20 MUL PUSH1 0x20 ADD ADD DUP2 DUP2 MSTORE POP POP PUSH1 0xA PUSH1 0x0 SWAP1 SLOAD SWAP1 PUSH2 0x100 EXP SWAP1 DIV PUSH20 0xFFFFFFFFFFFFFFFFFFFFFFFFFFFFFFFFFFFFFFFF AND PUSH20 0xFFFFFFFFFFFFFFFFFFFFFFFFFFFFFFFFFFFFFFFF AND PUSH4 0x2C9DD5C0 PUSH1 0xB SLOAD DUP4 PUSH1 0x40 MLOAD DUP4 PUSH4 0xFFFFFFFF AND PUSH1 0xE0 SHL DUP2 MSTORE PUSH1 0x4 ADD PUSH2 0x17EB SWAP3 SWAP2 SWAP1 PUSH2 0x43AA JUMP JUMPDEST PUSH1 0x20 PUSH1 0x40 MLOAD DUP1 DUP4 SUB DUP2 PUSH1 0x0 DUP8 DUP1 EXTCODESIZE ISZERO DUP1 ISZERO PUSH2 0x1805 JUMPI PUSH1 0x0 DUP1 REVERT JUMPDEST POP GAS CALL ISZERO DUP1 ISZERO PUSH2 0x1819 JUMPI RETURNDATASIZE PUSH1 0x0 DUP1 RETURNDATACOPY RETURNDATASIZE PUSH1 0x0 REVERT JUMPDEST POP POP POP POP PUSH1 0x40 MLOAD RETURNDATASIZE PUSH1 0x1F NOT PUSH1 0x1F DUP3 ADD AND DUP3 ADD DUP1 PUSH1 0x40 MSTORE POP DUP2 ADD SWAP1 PUSH2 0x183D SWAP2 SWAP1 PUSH2 0x3A2F JUMP JUMPDEST POP PUSH1 0xF DUP6 DUP2 SLOAD DUP2 LT PUSH2 0x1852 JUMPI PUSH2 0x1851 PUSH2 0x48C2 JUMP JUMPDEST JUMPDEST SWAP1 PUSH1 0x0 MSTORE PUSH1 0x20 PUSH1 0x0 KECCAK256 SWAP1 PUSH1 0xC MUL ADD PUSH1 0x10 PUSH1 0x0 DUP7 DUP2 MSTORE PUSH1 0x20 ADD SWAP1 DUP2 MSTORE PUSH1 0x20 ADD PUSH1 0x0 KECCAK256 PUSH1 0x0 DUP3 ADD SLOAD DUP2 PUSH1 0x0 ADD SSTORE PUSH1 0x1 DUP3 ADD SLOAD DUP2 PUSH1 0x1 ADD SSTORE PUSH1 0x2 DUP3 ADD SLOAD DUP2 PUSH1 0x2 ADD SSTORE PUSH1 0x3 DUP3 ADD SLOAD DUP2 PUSH1 0x3 ADD SSTORE PUSH1 0x4 DUP3 ADD SLOAD DUP2 PUSH1 0x4 ADD SSTORE PUSH1 0x5 DUP3 ADD SLOAD DUP2 PUSH1 0x5 ADD SSTORE PUSH1 0x6 DUP3 ADD SLOAD DUP2 PUSH1 0x6 ADD SSTORE PUSH1 0x7 DUP3 ADD SLOAD DUP2 PUSH1 0x7 ADD SSTORE PUSH1 0x8 DUP3 ADD SLOAD DUP2 PUSH1 0x8 ADD SSTORE PUSH1 0x9 DUP3 ADD SLOAD DUP2 PUSH1 0x9 ADD SSTORE PUSH1 0xA DUP3 ADD SLOAD DUP2 PUSH1 0xA ADD SSTORE PUSH1 0xB DUP3 ADD SLOAD DUP2 PUSH1 0xB ADD SSTORE SWAP1 POP POP PUSH1 0x1 PUSH1 0x12 PUSH1 0x0 DUP8 DUP2 MSTORE PUSH1 0x20 ADD SWAP1 DUP2 MSTORE PUSH1 0x20 ADD PUSH1 0x0 KECCAK256 SLOAD PUSH2 0x190E SWAP2 SWAP1 PUSH2 0x45A4 JUMP JUMPDEST PUSH1 0x12 PUSH1 0x0 DUP8 DUP2 MSTORE PUSH1 0x20 ADD SWAP1 DUP2 MSTORE PUSH1 0x20 ADD PUSH1 0x0 KECCAK256 DUP2 SWAP1 SSTORE POP POP POP POP POP POP JUMP JUMPDEST PUSH2 0x193D PUSH2 0x1937 PUSH2 0x1C27 JUMP JUMPDEST DUP4 PUSH2 0x1CE8 JUMP JUMPDEST PUSH2 0x197C JUMPI PUSH1 0x40 MLOAD PUSH32 0x8C379A000000000000000000000000000000000000000000000000000000000 DUP2 MSTORE PUSH1 0x4 ADD PUSH2 0x1973 SWAP1 PUSH2 0x4304 JUMP JUMPDEST PUSH1 0x40 MLOAD DUP1 SWAP2 SUB SWAP1 REVERT JUMPDEST PUSH2 0x1988 DUP5 DUP5 DUP5 DUP5 PUSH2 0x2977 JUMP JUMPDEST POP POP POP POP JUMP JUMPDEST PUSH1 0x60 PUSH2 0x1999 DUP3 PUSH2 0x1BBB JUMP JUMPDEST PUSH2 0x19D8 JUMPI PUSH1 0x40 MLOAD PUSH32 0x8C379A000000000000000000000000000000000000000000000000000000000 DUP2 MSTORE PUSH1 0x4 ADD PUSH2 0x19CF SWAP1 PUSH2 0x42C4 JUMP JUMPDEST PUSH1 0x40 MLOAD DUP1 SWAP2 SUB SWAP1 REVERT JUMPDEST PUSH1 0x0 PUSH2 0x19E2 PUSH2 0x29D3 JUMP JUMPDEST SWAP1 POP PUSH1 0x0 DUP2 MLOAD GT PUSH2 0x1A02 JUMPI PUSH1 0x40 MLOAD DUP1 PUSH1 0x20 ADD PUSH1 0x40 MSTORE DUP1 PUSH1 0x0 DUP2 MSTORE POP PUSH2 0x1A2D JUMP JUMPDEST DUP1 PUSH2 0x1A0C DUP5 PUSH2 0x29EA JUMP JUMPDEST PUSH1 0x40 MLOAD PUSH1 0x20 ADD PUSH2 0x1A1D SWAP3 SWAP2 SWAP1 PUSH2 0x403F JUMP JUMPDEST PUSH1 0x40 MLOAD PUSH1 0x20 DUP2 DUP4 SUB SUB DUP2 MSTORE SWAP1 PUSH1 0x40 MSTORE JUMPDEST SWAP2 POP POP SWAP2 SWAP1 POP JUMP JUMPDEST PUSH1 0x12 PUSH1 0x20 MSTORE DUP1 PUSH1 0x0 MSTORE PUSH1 0x40 PUSH1 0x0 KECCAK256 PUSH1 0x0 SWAP2 POP SWAP1 POP SLOAD DUP2 JUMP JUMPDEST PUSH1 0x10 PUSH1 0x20 MSTORE DUP1 PUSH1 0x0 MSTORE PUSH1 0x40 PUSH1 0x0 KECCAK256 PUSH1 0x0 SWAP2 POP SWAP1 POP DUP1 PUSH1 0x0 ADD SLOAD SWAP1 DUP1 PUSH1 0x1 ADD SLOAD SWAP1 DUP1 PUSH1 0x2 ADD SLOAD SWAP1 DUP1 PUSH1 0x3 ADD SLOAD SWAP1 DUP1 PUSH1 0x4 ADD SLOAD SWAP1 DUP1 PUSH1 0x5 ADD SLOAD SWAP1 DUP1 PUSH1 0x6 ADD SLOAD SWAP1 DUP1 PUSH1 0x7 ADD SLOAD SWAP1 DUP1 PUSH1 0x8 ADD SLOAD SWAP1 DUP1 PUSH1 0x9 ADD SLOAD SWAP1 DUP1 PUSH1 0xA ADD SLOAD SWAP1 DUP1 PUSH1 0xB ADD SLOAD SWAP1 POP DUP13 JUMP JUMPDEST PUSH1 0x0 PUSH1 0x5 PUSH1 0x0 DUP5 PUSH20 0xFFFFFFFFFFFFFFFFFFFFFFFFFFFFFFFFFFFFFFFF AND PUSH20 0xFFFFFFFFFFFFFFFFFFFFFFFFFFFFFFFFFFFFFFFF AND DUP2 MSTORE PUSH1 0x20 ADD SWAP1 DUP2 MSTORE PUSH1 0x20 ADD PUSH1 0x0 KECCAK256 PUSH1 0x0 DUP4 PUSH20 0xFFFFFFFFFFFFFFFFFFFFFFFFFFFFFFFFFFFFFFFF AND PUSH20 0xFFFFFFFFFFFFFFFFFFFFFFFFFFFFFFFFFFFFFFFF AND DUP2 MSTORE PUSH1 0x20 ADD SWAP1 DUP2 MSTORE PUSH1 0x20 ADD PUSH1 0x0 KECCAK256 PUSH1 0x0 SWAP1 SLOAD SWAP1 PUSH2 0x100 EXP SWAP1 DIV PUSH1 0xFF AND SWAP1 POP SWAP3 SWAP2 POP POP JUMP JUMPDEST PUSH1 0x0 PUSH32 0x780E9D6300000000000000000000000000000000000000000000000000000000 PUSH28 0xFFFFFFFFFFFFFFFFFFFFFFFFFFFFFFFFFFFFFFFFFFFFFFFFFFFFFFFF NOT AND DUP3 PUSH28 0xFFFFFFFFFFFFFFFFFFFFFFFFFFFFFFFFFFFFFFFFFFFFFFFFFFFFFFFF NOT AND EQ DUP1 PUSH2 0x1BB4 JUMPI POP PUSH2 0x1BB3 DUP3 PUSH2 0x2B4B JUMP JUMPDEST JUMPDEST SWAP1 POP SWAP2 SWAP1 POP JUMP JUMPDEST PUSH1 0x0 DUP1 PUSH20 0xFFFFFFFFFFFFFFFFFFFFFFFFFFFFFFFFFFFFFFFF AND PUSH1 0x2 PUSH1 0x0 DUP5 DUP2 MSTORE PUSH1 0x20 ADD SWAP1 DUP2 MSTORE PUSH1 0x20 ADD PUSH1 0x0 KECCAK256 PUSH1 0x0 SWAP1 SLOAD SWAP1 PUSH2 0x100 EXP SWAP1 DIV PUSH20 0xFFFFFFFFFFFFFFFFFFFFFFFFFFFFFFFFFFFFFFFF AND PUSH20 0xFFFFFFFFFFFFFFFFFFFFFFFFFFFFFFFFFFFFFFFF AND EQ ISZERO SWAP1 POP SWAP2 SWAP1 POP JUMP JUMPDEST PUSH1 0x0 CALLER SWAP1 POP SWAP1 JUMP JUMPDEST DUP2 PUSH1 0x4 PUSH1 0x0 DUP4 DUP2 MSTORE PUSH1 0x20 ADD SWAP1 DUP2 MSTORE PUSH1 0x20 ADD PUSH1 0x0 KECCAK256 PUSH1 0x0 PUSH2 0x100 EXP DUP2 SLOAD DUP2 PUSH20 0xFFFFFFFFFFFFFFFFFFFFFFFFFFFFFFFFFFFFFFFF MUL NOT AND SWAP1 DUP4 PUSH20 0xFFFFFFFFFFFFFFFFFFFFFFFFFFFFFFFFFFFFFFFF AND MUL OR SWAP1 SSTORE POP DUP1 DUP3 PUSH20 0xFFFFFFFFFFFFFFFFFFFFFFFFFFFFFFFFFFFFFFFF AND PUSH2 0x1CA2 DUP4 PUSH2 0xB02 JUMP JUMPDEST PUSH20 0xFFFFFFFFFFFFFFFFFFFFFFFFFFFFFFFFFFFFFFFF AND PUSH32 0x8C5BE1E5EBEC7D5BD14F71427D1E84F3DD0314C0F7B2291E5B200AC8C7C3B925 PUSH1 0x40 MLOAD PUSH1 0x40 MLOAD DUP1 SWAP2 SUB SWAP1 LOG4 POP POP JUMP JUMPDEST PUSH1 0x0 PUSH2 0x1CF3 DUP3 PUSH2 0x1BBB JUMP JUMPDEST PUSH2 0x1D32 JUMPI PUSH1 0x40 MLOAD PUSH32 0x8C379A000000000000000000000000000000000000000000000000000000000 DUP2 MSTORE PUSH1 0x4 ADD PUSH2 0x1D29 SWAP1 PUSH2 0x4204 JUMP JUMPDEST PUSH1 0x40 MLOAD DUP1 SWAP2 SUB SWAP1 REVERT JUMPDEST PUSH1 0x0 PUSH2 0x1D3D DUP4 PUSH2 0xB02 JUMP JUMPDEST SWAP1 POP DUP1 PUSH20 0xFFFFFFFFFFFFFFFFFFFFFFFFFFFFFFFFFFFFFFFF AND DUP5 PUSH20 0xFFFFFFFFFFFFFFFFFFFFFFFFFFFFFFFFFFFFFFFF AND EQ DUP1 PUSH2 0x1D7F JUMPI POP PUSH2 0x1D7E DUP2 DUP6 PUSH2 0x1AAD JUMP JUMPDEST JUMPDEST DUP1 PUSH2 0x1DBD JUMPI POP DUP4 PUSH20 0xFFFFFFFFFFFFFFFFFFFFFFFFFFFFFFFFFFFFFFFF AND PUSH2 0x1DA5 DUP5 PUSH2 0x698 JUMP JUMPDEST PUSH20 0xFFFFFFFFFFFFFFFFFFFFFFFFFFFFFFFFFFFFFFFF AND EQ JUMPDEST SWAP2 POP POP SWAP3 SWAP2 POP POP JUMP JUMPDEST DUP3 PUSH20 0xFFFFFFFFFFFFFFFFFFFFFFFFFFFFFFFFFFFFFFFF AND PUSH2 0x1DE6 DUP3 PUSH2 0xB02 JUMP JUMPDEST PUSH20 0xFFFFFFFFFFFFFFFFFFFFFFFFFFFFFFFFFFFFFFFF AND EQ PUSH2 0x1E3C JUMPI PUSH1 0x40 MLOAD PUSH32 0x8C379A000000000000000000000000000000000000000000000000000000000 DUP2 MSTORE PUSH1 0x4 ADD PUSH2 0x1E33 SWAP1 PUSH2 0x4184 JUMP JUMPDEST PUSH1 0x40 MLOAD DUP1 SWAP2 SUB SWAP1 REVERT JUMPDEST PUSH1 0x0 PUSH20 0xFFFFFFFFFFFFFFFFFFFFFFFFFFFFFFFFFFFFFFFF AND DUP3 PUSH20 0xFFFFFFFFFFFFFFFFFFFFFFFFFFFFFFFFFFFFFFFF AND EQ ISZERO PUSH2 0x1EAC JUMPI PUSH1 0x40 MLOAD PUSH32 0x8C379A000000000000000000000000000000000000000000000000000000000 DUP2 MSTORE PUSH1 0x4 ADD PUSH2 0x1EA3 SWAP1 PUSH2 0x41C4 JUMP JUMPDEST PUSH1 0x40 MLOAD DUP1 SWAP2 SUB SWAP1 REVERT JUMPDEST PUSH2 0x1EB7 DUP4 DUP4 DUP4 PUSH2 0x2C2D JUMP JUMPDEST PUSH2 0x1EC2 PUSH1 0x0 DUP3 PUSH2 0x1C2F JUMP JUMPDEST PUSH1 0x1 PUSH1 0x3 PUSH1 0x0 DUP6 PUSH20 0xFFFFFFFFFFFFFFFFFFFFFFFFFFFFFFFFFFFFFFFF AND PUSH20 0xFFFFFFFFFFFFFFFFFFFFFFFFFFFFFFFFFFFFFFFF AND DUP2 MSTORE PUSH1 0x20 ADD SWAP1 DUP2 MSTORE PUSH1 0x20 ADD PUSH1 0x0 KECCAK256 PUSH1 0x0 DUP3 DUP3 SLOAD PUSH2 0x1F12 SWAP2 SWAP1 PUSH2 0x462B JUMP JUMPDEST SWAP3 POP POP DUP2 SWAP1 SSTORE POP PUSH1 0x1 PUSH1 0x3 PUSH1 0x0 DUP5 PUSH20 0xFFFFFFFFFFFFFFFFFFFFFFFFFFFFFFFFFFFFFFFF AND PUSH20 0xFFFFFFFFFFFFFFFFFFFFFFFFFFFFFFFFFFFFFFFF AND DUP2 MSTORE PUSH1 0x20 ADD SWAP1 DUP2 MSTORE PUSH1 0x20 ADD PUSH1 0x0 KECCAK256 PUSH1 0x0 DUP3 DUP3 SLOAD PUSH2 0x1F69 SWAP2 SWAP1 PUSH2 0x45A4 JUMP JUMPDEST SWAP3 POP POP DUP2 SWAP1 SSTORE POP DUP2 PUSH1 0x2 PUSH1 0x0 DUP4 DUP2 MSTORE PUSH1 0x20 ADD SWAP1 DUP2 MSTORE PUSH1 0x20 ADD PUSH1 0x0 KECCAK256 PUSH1 0x0 PUSH2 0x100 EXP DUP2 SLOAD DUP2 PUSH20 0xFFFFFFFFFFFFFFFFFFFFFFFFFFFFFFFFFFFFFFFF MUL NOT AND SWAP1 DUP4 PUSH20 0xFFFFFFFFFFFFFFFFFFFFFFFFFFFFFFFFFFFFFFFF AND MUL OR SWAP1 SSTORE POP DUP1 DUP3 PUSH20 0xFFFFFFFFFFFFFFFFFFFFFFFFFFFFFFFFFFFFFFFF AND DUP5 PUSH20 0xFFFFFFFFFFFFFFFFFFFFFFFFFFFFFFFFFFFFFFFF AND PUSH32 0xDDF252AD1BE2C89B69C2B068FC378DAA952BA7F163C4A11628F55A4DF523B3EF PUSH1 0x40 MLOAD PUSH1 0x40 MLOAD DUP1 SWAP2 SUB SWAP1 LOG4 PUSH2 0x2028 DUP4 DUP4 DUP4 PUSH2 0x2C3D JUMP JUMPDEST POP POP POP JUMP JUMPDEST PUSH1 0x0 PUSH1 0xC PUSH1 0x0 DUP2 SLOAD DUP1 SWAP3 SWAP2 SWAP1 PUSH2 0x2042 SWAP1 PUSH2 0x4782 JUMP JUMPDEST SWAP2 SWAP1 POP SSTORE SWAP1 POP SWAP1 JUMP JUMPDEST PUSH1 0x0 DUP2 PUSH1 0x0 ADD SLOAD SWAP1 POP SWAP2 SWAP1 POP JUMP JUMPDEST PUSH2 0x2061 PUSH2 0x371D JUMP JUMPDEST PUSH1 0x1 DUP4 EQ ISZERO PUSH2 0x209B JUMPI PUSH2 0x2094 DUP3 PUSH1 0x98 PUSH1 0x6F PUSH1 0x6A PUSH1 0x6F PUSH1 0x3 PUSH1 0x7 PUSH1 0x3 PUSH1 0x1E PUSH2 0x2086 PUSH2 0x2C42 JUMP JUMPDEST PUSH2 0x208E PUSH2 0x2C53 JUMP JUMPDEST DUP15 PUSH2 0x2C70 JUMP JUMPDEST SWAP1 POP PUSH2 0x27D0 JUMP JUMPDEST PUSH1 0x2 DUP4 EQ ISZERO PUSH2 0x20D5 JUMPI PUSH2 0x20CE DUP3 PUSH1 0xA7 PUSH1 0x7D PUSH1 0x7B PUSH1 0x7E PUSH1 0x3 PUSH1 0x7 PUSH1 0x3 PUSH1 0x28 PUSH2 0x20C0 PUSH2 0x2C42 JUMP JUMPDEST PUSH2 0x20C8 PUSH2 0x2C53 JUMP JUMPDEST DUP15 PUSH2 0x2C70 JUMP JUMPDEST SWAP1 POP PUSH2 0x27D0 JUMP JUMPDEST PUSH1 0x3 DUP4 EQ ISZERO PUSH2 0x210F JUMPI PUSH2 0x2108 DUP3 PUSH1 0xBB PUSH1 0xA7 PUSH1 0x91 PUSH1 0xC0 PUSH1 0x3 PUSH1 0x7 PUSH1 0x3 PUSH1 0x32 PUSH2 0x20FA PUSH2 0x2C42 JUMP JUMPDEST PUSH2 0x2102 PUSH2 0x2C53 JUMP JUMPDEST DUP15 PUSH2 0x2C70 JUMP JUMPDEST SWAP1 POP PUSH2 0x27D0 JUMP JUMPDEST PUSH1 0x4 DUP4 EQ ISZERO PUSH2 0x2149 JUMPI PUSH2 0x2142 DUP3 PUSH1 0x92 PUSH1 0x72 PUSH1 0x80 PUSH1 0x68 PUSH1 0x1 PUSH1 0x63 PUSH1 0x1 PUSH1 0x28 PUSH2 0x2134 PUSH2 0x2C42 JUMP JUMPDEST PUSH2 0x213C PUSH2 0x2C53 JUMP JUMPDEST DUP15 PUSH2 0x2C70 JUMP JUMPDEST SWAP1 POP PUSH2 0x27D0 JUMP JUMPDEST PUSH1 0x5 DUP4 EQ ISZERO PUSH2 0x2183 JUMPI PUSH2 0x217C DUP3 PUSH1 0xA5 PUSH1 0x7F PUSH1 0x91 PUSH1 0x79 PUSH1 0x1 PUSH1 0x63 PUSH1 0x1 PUSH1 0x28 PUSH2 0x216E PUSH2 0x2C42 JUMP JUMPDEST PUSH2 0x2176 PUSH2 0x2C53 JUMP JUMPDEST DUP15 PUSH2 0x2C70 JUMP JUMPDEST SWAP1 POP PUSH2 0x27D0 JUMP JUMPDEST PUSH1 0x6 DUP4 EQ ISZERO PUSH2 0x21BD JUMPI PUSH2 0x21B6 DUP3 PUSH1 0xB9 PUSH1 0xC8 PUSH1 0xA7 PUSH1 0xB3 PUSH1 0x1 PUSH1 0x9 PUSH1 0x1 PUSH1 0x32 PUSH2 0x21A8 PUSH2 0x2C42 JUMP JUMPDEST PUSH2 0x21B0 PUSH2 0x2C53 JUMP JUMPDEST DUP15 PUSH2 0x2C70 JUMP JUMPDEST SWAP1 POP PUSH2 0x27D0 JUMP JUMPDEST PUSH1 0x7 DUP4 EQ ISZERO PUSH2 0x21F7 JUMPI PUSH2 0x21F0 DUP3 PUSH1 0x97 PUSH1 0x6E PUSH1 0x68 PUSH1 0x80 PUSH1 0x2 PUSH1 0x63 PUSH1 0x2 PUSH1 0x1E PUSH2 0x21E2 PUSH2 0x2C42 JUMP JUMPDEST PUSH2 0x21EA PUSH2 0x2C53 JUMP JUMPDEST DUP15 PUSH2 0x2C70 JUMP JUMPDEST SWAP1 POP PUSH2 0x27D0 JUMP JUMPDEST PUSH1 0x8 DUP4 EQ ISZERO PUSH2 0x2231 JUMPI PUSH2 0x222A DUP3 PUSH1 0xA6 PUSH1 0x7E PUSH1 0x79 PUSH1 0x91 PUSH1 0x2 PUSH1 0x63 PUSH1 0x2 PUSH1 0x28 PUSH2 0x221C PUSH2 0x2C42 JUMP JUMPDEST PUSH2 0x2224 PUSH2 0x2C53 JUMP JUMPDEST DUP15 PUSH2 0x2C70 JUMP JUMPDEST SWAP1 POP PUSH2 0x27D0 JUMP JUMPDEST PUSH1 0x9 DUP4 EQ ISZERO PUSH2 0x226B JUMPI PUSH2 0x2264 DUP3 PUSH1 0xBA PUSH1 0x94 PUSH1 0x8F PUSH1 0xA7 PUSH1 0x2 PUSH1 0x63 PUSH1 0x2 PUSH1 0x32 PUSH2 0x2256 PUSH2 0x2C42 JUMP JUMPDEST PUSH2 0x225E PUSH2 0x2C53 JUMP JUMPDEST DUP15 PUSH2 0x2C70 JUMP JUMPDEST SWAP1 POP PUSH2 0x27D0 JUMP JUMPDEST PUSH1 0xA DUP4 EQ ISZERO PUSH2 0x228B JUMPI PUSH2 0x2284 DUP3 PUSH1 0xB PUSH1 0x63 DUP7 PUSH1 0x1 PUSH2 0x2D24 JUMP JUMPDEST SWAP1 POP PUSH2 0x27D0 JUMP JUMPDEST PUSH1 0xB DUP4 EQ ISZERO PUSH2 0x22AB JUMPI PUSH2 0x22A4 DUP3 PUSH1 0xB PUSH1 0x63 DUP7 PUSH1 0x2 PUSH2 0x2D24 JUMP JUMPDEST SWAP1 POP PUSH2 0x27D0 JUMP JUMPDEST PUSH1 0xC DUP4 EQ ISZERO PUSH2 0x22CB JUMPI PUSH2 0x22C4 DUP3 PUSH1 0xB PUSH1 0x9 DUP7 PUSH1 0x3 PUSH2 0x2D24 JUMP JUMPDEST SWAP1 POP PUSH2 0x27D0 JUMP JUMPDEST PUSH1 0xD DUP4 EQ ISZERO PUSH2 0x22EB JUMPI PUSH2 0x22E4 DUP3 PUSH1 0xB PUSH1 0x7 DUP7 PUSH1 0x1 PUSH2 0x2D24 JUMP JUMPDEST SWAP1 POP PUSH2 0x27D0 JUMP JUMPDEST PUSH1 0xE DUP4 EQ ISZERO PUSH2 0x230B JUMPI PUSH2 0x2304 DUP3 PUSH1 0xB PUSH1 0x7 DUP7 PUSH1 0x2 PUSH2 0x2D24 JUMP JUMPDEST SWAP1 POP PUSH2 0x27D0 JUMP JUMPDEST PUSH1 0xF DUP4 EQ ISZERO PUSH2 0x232B JUMPI PUSH2 0x2324 DUP3 PUSH1 0xB PUSH1 0x7 DUP7 PUSH1 0x3 PUSH2 0x2D24 JUMP JUMPDEST SWAP1 POP PUSH2 0x27D0 JUMP JUMPDEST PUSH1 0x10 DUP4 EQ ISZERO PUSH2 0x234B JUMPI PUSH2 0x2344 DUP3 PUSH1 0x0 PUSH1 0x9 DUP7 PUSH1 0x1 PUSH2 0x2D24 JUMP JUMPDEST SWAP1 POP PUSH2 0x27D0 JUMP JUMPDEST PUSH1 0x11 DUP4 EQ ISZERO PUSH2 0x236B JUMPI PUSH2 0x2364 DUP3 PUSH1 0x0 PUSH1 0x9 DUP7 PUSH1 0x2 PUSH2 0x2D24 JUMP JUMPDEST SWAP1 POP PUSH2 0x27D0 JUMP JUMPDEST PUSH1 0x12 DUP4 EQ ISZERO PUSH2 0x238B JUMPI PUSH2 0x2384 DUP3 PUSH1 0x0 PUSH1 0x9 DUP7 PUSH1 0x3 PUSH2 0x2D24 JUMP JUMPDEST SWAP1 POP PUSH2 0x27D0 JUMP JUMPDEST PUSH1 0x13 DUP4 EQ ISZERO PUSH2 0x23AB JUMPI PUSH2 0x23A4 DUP3 PUSH1 0x0 PUSH1 0x63 DUP7 PUSH1 0x1 PUSH2 0x2D24 JUMP JUMPDEST SWAP1 POP PUSH2 0x27D0 JUMP JUMPDEST PUSH1 0x14 DUP4 EQ ISZERO PUSH2 0x23CB JUMPI PUSH2 0x23C4 DUP3 PUSH1 0x0 PUSH1 0x63 DUP7 PUSH1 0x2 PUSH2 0x2D24 JUMP JUMPDEST SWAP1 POP PUSH2 0x27D0 JUMP JUMPDEST PUSH1 0x15 DUP4 EQ ISZERO PUSH2 0x23EB JUMPI PUSH2 0x23E4 DUP3 PUSH1 0x0 PUSH1 0x9 DUP7 PUSH1 0x1 PUSH2 0x2D24 JUMP JUMPDEST SWAP1 POP PUSH2 0x27D0 JUMP JUMPDEST PUSH1 0x16 DUP4 EQ ISZERO PUSH2 0x240B JUMPI PUSH2 0x2404 DUP3 PUSH1 0x0 PUSH1 0x9 DUP7 PUSH1 0x2 PUSH2 0x2D24 JUMP JUMPDEST SWAP1 POP PUSH2 0x27D0 JUMP JUMPDEST PUSH1 0x17 DUP4 EQ ISZERO PUSH2 0x242B JUMPI PUSH2 0x2424 DUP3 PUSH1 0x7 PUSH1 0x63 DUP7 PUSH1 0x1 PUSH2 0x2D24 JUMP JUMPDEST SWAP1 POP PUSH2 0x27D0 JUMP JUMPDEST PUSH1 0x18 DUP4 EQ ISZERO PUSH2 0x244B JUMPI PUSH2 0x2444 DUP3 PUSH1 0x7 PUSH1 0x63 DUP7 PUSH1 0x2 PUSH2 0x2D24 JUMP JUMPDEST SWAP1 POP PUSH2 0x27D0 JUMP JUMPDEST PUSH1 0x19 DUP4 EQ ISZERO PUSH2 0x246B JUMPI PUSH2 0x2464 DUP3 PUSH1 0x4 PUSH1 0x63 DUP7 PUSH1 0x2 PUSH2 0x2D24 JUMP JUMPDEST SWAP1 POP PUSH2 0x27D0 JUMP JUMPDEST PUSH1 0x1A DUP4 EQ ISZERO PUSH2 0x248B JUMPI PUSH2 0x2484 DUP3 PUSH1 0x4 PUSH1 0x63 DUP7 PUSH1 0x3 PUSH2 0x2D24 JUMP JUMPDEST SWAP1 POP PUSH2 0x27D0 JUMP JUMPDEST PUSH1 0x1B DUP4 EQ ISZERO PUSH2 0x24AB JUMPI PUSH2 0x24A4 DUP3 PUSH1 0x8 PUSH1 0x63 DUP7 PUSH1 0x1 PUSH2 0x2D24 JUMP JUMPDEST SWAP1 POP PUSH2 0x27D0 JUMP JUMPDEST PUSH1 0x1C DUP4 EQ ISZERO PUSH2 0x24CB JUMPI PUSH2 0x24C4 DUP3 PUSH1 0x8 PUSH1 0x63 DUP7 PUSH1 0x2 PUSH2 0x2D24 JUMP JUMPDEST SWAP1 POP PUSH2 0x27D0 JUMP JUMPDEST PUSH1 0x1D DUP4 EQ ISZERO PUSH2 0x24EB JUMPI PUSH2 0x24E4 DUP3 PUSH1 0x7 PUSH1 0x63 DUP7 PUSH1 0x1 PUSH2 0x2D24 JUMP JUMPDEST SWAP1 POP PUSH2 0x27D0 JUMP JUMPDEST PUSH1 0x1E DUP4 EQ ISZERO PUSH2 0x250B JUMPI PUSH2 0x2504 DUP3 PUSH1 0x7 PUSH1 0x63 DUP7 PUSH1 0x1 PUSH2 0x2D24 JUMP JUMPDEST SWAP1 POP PUSH2 0x27D0 JUMP JUMPDEST PUSH1 0x1F DUP4 EQ ISZERO PUSH2 0x252B JUMPI PUSH2 0x2524 DUP3 PUSH1 0x7 PUSH1 0x8 DUP7 PUSH1 0x3 PUSH2 0x2D24 JUMP JUMPDEST SWAP1 POP PUSH2 0x27D0 JUMP JUMPDEST PUSH1 0x20 DUP4 EQ ISZERO PUSH2 0x254B JUMPI PUSH2 0x2544 DUP3 PUSH1 0x7 PUSH1 0x63 DUP7 PUSH1 0x1 PUSH2 0x2D24 JUMP JUMPDEST SWAP1 POP PUSH2 0x27D0 JUMP JUMPDEST PUSH1 0x21 DUP4 EQ ISZERO PUSH2 0x256B JUMPI PUSH2 0x2564 DUP3 PUSH1 0x7 PUSH1 0x63 DUP7 PUSH1 0x2 PUSH2 0x2D24 JUMP JUMPDEST SWAP1 POP PUSH2 0x27D0 JUMP JUMPDEST PUSH1 0x22 DUP4 EQ ISZERO PUSH2 0x258B JUMPI PUSH2 0x2584 DUP3 PUSH1 0x7 PUSH1 0x8 DUP7 PUSH1 0x3 PUSH2 0x2D24 JUMP JUMPDEST SWAP1 POP PUSH2 0x27D0 JUMP JUMPDEST PUSH1 0x23 DUP4 EQ ISZERO PUSH2 0x25AB JUMPI PUSH2 0x25A4 DUP3 PUSH1 0x11 PUSH1 0x63 DUP7 PUSH1 0x1 PUSH2 0x2D24 JUMP JUMPDEST SWAP1 POP PUSH2 0x27D0 JUMP JUMPDEST PUSH1 0x24 DUP4 EQ ISZERO PUSH2 0x25CB JUMPI PUSH2 0x25C4 DUP3 PUSH1 0x11 PUSH1 0x63 DUP7 PUSH1 0x2 PUSH2 0x2D24 JUMP JUMPDEST SWAP1 POP PUSH2 0x27D0 JUMP JUMPDEST PUSH1 0x25 DUP4 EQ ISZERO PUSH2 0x25EB JUMPI PUSH2 0x25E4 DUP3 PUSH1 0x1 PUSH1 0x63 DUP7 PUSH1 0x2 PUSH2 0x2D24 JUMP JUMPDEST SWAP1 POP PUSH2 0x27D0 JUMP JUMPDEST PUSH1 0x26 DUP4 EQ ISZERO PUSH2 0x260B JUMPI PUSH2 0x2604 DUP3 PUSH1 0x1 PUSH1 0x63 DUP7 PUSH1 0x3 PUSH2 0x2D24 JUMP JUMPDEST SWAP1 POP PUSH2 0x27D0 JUMP JUMPDEST PUSH1 0x27 DUP4 EQ ISZERO PUSH2 0x262B JUMPI PUSH2 0x2624 DUP3 PUSH1 0x0 PUSH1 0x11 DUP7 PUSH1 0x1 PUSH2 0x2D24 JUMP JUMPDEST SWAP1 POP PUSH2 0x27D0 JUMP JUMPDEST PUSH1 0x28 DUP4 EQ ISZERO PUSH2 0x264B JUMPI PUSH2 0x2644 DUP3 PUSH1 0x0 PUSH1 0x11 DUP7 PUSH1 0x2 PUSH2 0x2D24 JUMP JUMPDEST SWAP1 POP PUSH2 0x27D0 JUMP JUMPDEST PUSH1 0x29 DUP4 EQ ISZERO PUSH2 0x266B JUMPI PUSH2 0x2664 DUP3 PUSH1 0x7 PUSH1 0x9 DUP7 PUSH1 0x1 PUSH2 0x2D24 JUMP JUMPDEST SWAP1 POP PUSH2 0x27D0 JUMP JUMPDEST PUSH1 0x2A DUP4 EQ ISZERO PUSH2 0x268B JUMPI PUSH2 0x2684 DUP3 PUSH1 0x7 PUSH1 0x9 DUP7 PUSH1 0x2 PUSH2 0x2D24 JUMP JUMPDEST SWAP1 POP PUSH2 0x27D0 JUMP JUMPDEST PUSH1 0x2B DUP4 EQ ISZERO PUSH2 0x26AB JUMPI PUSH2 0x26A4 DUP3 PUSH1 0x3 PUSH1 0x7 DUP7 PUSH1 0x1 PUSH2 0x2D24 JUMP JUMPDEST SWAP1 POP PUSH2 0x27D0 JUMP JUMPDEST PUSH1 0x2C DUP4 EQ ISZERO PUSH2 0x26CB JUMPI PUSH2 0x26C4 DUP3 PUSH1 0x3 PUSH1 0x7 DUP7 PUSH1 0x2 PUSH2 0x2D24 JUMP JUMPDEST SWAP1 POP PUSH2 0x27D0 JUMP JUMPDEST PUSH1 0x2D DUP4 EQ ISZERO PUSH2 0x26EB JUMPI PUSH2 0x26E4 DUP3 PUSH1 0x3 PUSH1 0x7 DUP7 PUSH1 0x3 PUSH2 0x2D24 JUMP JUMPDEST SWAP1 POP PUSH2 0x27D0 JUMP JUMPDEST PUSH1 0x2E DUP4 EQ ISZERO PUSH2 0x270B JUMPI PUSH2 0x2704 DUP3 PUSH1 0xB PUSH1 0x3 DUP7 PUSH1 0x1 PUSH2 0x2D24 JUMP JUMPDEST SWAP1 POP PUSH2 0x27D0 JUMP JUMPDEST PUSH1 0x2F DUP4 EQ ISZERO PUSH2 0x272B JUMPI PUSH2 0x2724 DUP3 PUSH1 0xB PUSH1 0x3 DUP7 PUSH1 0x2 PUSH2 0x2D24 JUMP JUMPDEST SWAP1 POP PUSH2 0x27D0 JUMP JUMPDEST PUSH1 0x30 DUP4 EQ ISZERO PUSH2 0x274B JUMPI PUSH2 0x2744 DUP3 PUSH1 0xB PUSH1 0x7 DUP7 PUSH1 0x1 PUSH2 0x2D24 JUMP JUMPDEST SWAP1 POP PUSH2 0x27D0 JUMP JUMPDEST PUSH1 0x31 DUP4 EQ ISZERO PUSH2 0x276B JUMPI PUSH2 0x2764 DUP3 PUSH1 0xB PUSH1 0x7 DUP7 PUSH1 0x3 PUSH2 0x2D24 JUMP JUMPDEST SWAP1 POP PUSH2 0x27D0 JUMP JUMPDEST PUSH1 0x32 DUP4 EQ ISZERO PUSH2 0x278B JUMPI PUSH2 0x2784 DUP3 PUSH1 0x8 PUSH1 0x63 DUP7 PUSH1 0x2 PUSH2 0x2D24 JUMP JUMPDEST SWAP1 POP PUSH2 0x27D0 JUMP JUMPDEST PUSH1 0x33 DUP4 EQ ISZERO PUSH2 0x27AB JUMPI PUSH2 0x27A4 DUP3 PUSH1 0x8 PUSH1 0x63 DUP7 PUSH1 0x3 PUSH2 0x2D24 JUMP JUMPDEST SWAP1 POP PUSH2 0x27D0 JUMP JUMPDEST PUSH1 0x34 DUP4 EQ ISZERO PUSH2 0x27CB JUMPI PUSH2 0x27C4 DUP3 PUSH1 0x0 PUSH1 0x63 DUP7 PUSH1 0x2 PUSH2 0x2D24 JUMP JUMPDEST SWAP1 POP PUSH2 0x27D0 JUMP JUMPDEST PUSH1 0x0 DUP1 REVERT JUMPDEST SWAP3 SWAP2 POP POP JUMP JUMPDEST PUSH2 0x27F0 DUP3 DUP3 PUSH1 0x40 MLOAD DUP1 PUSH1 0x20 ADD PUSH1 0x40 MSTORE DUP1 PUSH1 0x0 DUP2 MSTORE POP PUSH2 0x2E38 JUMP JUMPDEST POP POP JUMP JUMPDEST PUSH1 0x1 DUP2 PUSH1 0x0 ADD PUSH1 0x0 DUP3 DUP3 SLOAD ADD SWAP3 POP POP DUP2 SWAP1 SSTORE POP POP JUMP JUMPDEST DUP2 PUSH20 0xFFFFFFFFFFFFFFFFFFFFFFFFFFFFFFFFFFFFFFFF AND DUP4 PUSH20 0xFFFFFFFFFFFFFFFFFFFFFFFFFFFFFFFFFFFFFFFF AND EQ ISZERO PUSH2 0x2879 JUMPI PUSH1 0x40 MLOAD PUSH32 0x8C379A000000000000000000000000000000000000000000000000000000000 DUP2 MSTORE PUSH1 0x4 ADD PUSH2 0x2870 SWAP1 PUSH2 0x41E4 JUMP JUMPDEST PUSH1 0x40 MLOAD DUP1 SWAP2 SUB SWAP1 REVERT JUMPDEST DUP1 PUSH1 0x5 PUSH1 0x0 DUP6 PUSH20 0xFFFFFFFFFFFFFFFFFFFFFFFFFFFFFFFFFFFFFFFF AND PUSH20 0xFFFFFFFFFFFFFFFFFFFFFFFFFFFFFFFFFFFFFFFF AND DUP2 MSTORE PUSH1 0x20 ADD SWAP1 DUP2 MSTORE PUSH1 0x20 ADD PUSH1 0x0 KECCAK256 PUSH1 0x0 DUP5 PUSH20 0xFFFFFFFFFFFFFFFFFFFFFFFFFFFFFFFFFFFFFFFF AND PUSH20 0xFFFFFFFFFFFFFFFFFFFFFFFFFFFFFFFFFFFFFFFF AND DUP2 MSTORE PUSH1 0x20 ADD SWAP1 DUP2 MSTORE PUSH1 0x20 ADD PUSH1 0x0 KECCAK256 PUSH1 0x0 PUSH2 0x100 EXP DUP2 SLOAD DUP2 PUSH1 0xFF MUL NOT AND SWAP1 DUP4 ISZERO ISZERO MUL OR SWAP1 SSTORE POP DUP2 PUSH20 0xFFFFFFFFFFFFFFFFFFFFFFFFFFFFFFFFFFFFFFFF AND DUP4 PUSH20 0xFFFFFFFFFFFFFFFFFFFFFFFFFFFFFFFFFFFFFFFF AND PUSH32 0x17307EAB39AB6107E8899845AD3D59BD9653F200F220920489CA2B5937696C31 DUP4 PUSH1 0x40 MLOAD PUSH2 0x296A SWAP2 SWAP1 PUSH2 0x4107 JUMP JUMPDEST PUSH1 0x40 MLOAD DUP1 SWAP2 SUB SWAP1 LOG3 POP POP POP JUMP JUMPDEST PUSH2 0x2982 DUP5 DUP5 DUP5 PUSH2 0x1DC6 JUMP JUMPDEST PUSH2 0x298E DUP5 DUP5 DUP5 DUP5 PUSH2 0x2E93 JUMP JUMPDEST PUSH2 0x29CD JUMPI PUSH1 0x40 MLOAD PUSH32 0x8C379A000000000000000000000000000000000000000000000000000000000 DUP2 MSTORE PUSH1 0x4 ADD PUSH2 0x29C4 SWAP1 PUSH2 0x4164 JUMP JUMPDEST PUSH1 0x40 MLOAD DUP1 SWAP2 SUB SWAP1 REVERT JUMPDEST POP POP POP POP JUMP JUMPDEST PUSH1 0x60 PUSH1 0x40 MLOAD DUP1 PUSH1 0x20 ADD PUSH1 0x40 MSTORE DUP1 PUSH1 0x0 DUP2 MSTORE POP SWAP1 POP SWAP1 JUMP JUMPDEST PUSH1 0x60 PUSH1 0x0 DUP3 EQ ISZERO PUSH2 0x2A32 JUMPI PUSH1 0x40 MLOAD DUP1 PUSH1 0x40 ADD PUSH1 0x40 MSTORE DUP1 PUSH1 0x1 DUP2 MSTORE PUSH1 0x20 ADD PUSH32 0x3000000000000000000000000000000000000000000000000000000000000000 DUP2 MSTORE POP SWAP1 POP PUSH2 0x2B46 JUMP JUMPDEST PUSH1 0x0 DUP3 SWAP1 POP PUSH1 0x0 JUMPDEST PUSH1 0x0 DUP3 EQ PUSH2 0x2A64 JUMPI DUP1 DUP1 PUSH2 0x2A4D SWAP1 PUSH2 0x4782 JUMP JUMPDEST SWAP2 POP POP PUSH1 0xA DUP3 PUSH2 0x2A5D SWAP2 SWAP1 PUSH2 0x45FA JUMP JUMPDEST SWAP2 POP PUSH2 0x2A3A JUMP JUMPDEST PUSH1 0x0 DUP2 PUSH8 0xFFFFFFFFFFFFFFFF DUP2 GT ISZERO PUSH2 0x2A80 JUMPI PUSH2 0x2A7F PUSH2 0x48F1 JUMP JUMPDEST JUMPDEST PUSH1 0x40 MLOAD SWAP1 DUP1 DUP3 MSTORE DUP1 PUSH1 0x1F ADD PUSH1 0x1F NOT AND PUSH1 0x20 ADD DUP3 ADD PUSH1 0x40 MSTORE DUP1 ISZERO PUSH2 0x2AB2 JUMPI DUP2 PUSH1 0x20 ADD PUSH1 0x1 DUP3 MUL DUP1 CALLDATASIZE DUP4 CALLDATACOPY DUP1 DUP3 ADD SWAP2 POP POP SWAP1 POP JUMPDEST POP SWAP1 POP JUMPDEST PUSH1 0x0 DUP6 EQ PUSH2 0x2B3F JUMPI PUSH1 0x1 DUP3 PUSH2 0x2ACB SWAP2 SWAP1 PUSH2 0x462B JUMP JUMPDEST SWAP2 POP PUSH1 0xA DUP6 PUSH2 0x2ADA SWAP2 SWAP1 PUSH2 0x47D5 JUMP JUMPDEST PUSH1 0x30 PUSH2 0x2AE6 SWAP2 SWAP1 PUSH2 0x45A4 JUMP JUMPDEST PUSH1 0xF8 SHL DUP2 DUP4 DUP2 MLOAD DUP2 LT PUSH2 0x2AFC JUMPI PUSH2 0x2AFB PUSH2 0x48C2 JUMP JUMPDEST JUMPDEST PUSH1 0x20 ADD ADD SWAP1 PUSH31 0xFFFFFFFFFFFFFFFFFFFFFFFFFFFFFFFFFFFFFFFFFFFFFFFFFFFFFFFFFFFFFF NOT AND SWAP1 DUP2 PUSH1 0x0 BYTE SWAP1 MSTORE8 POP PUSH1 0xA DUP6 PUSH2 0x2B38 SWAP2 SWAP1 PUSH2 0x45FA JUMP JUMPDEST SWAP5 POP PUSH2 0x2AB6 JUMP JUMPDEST DUP1 SWAP4 POP POP POP POP JUMPDEST SWAP2 SWAP1 POP JUMP JUMPDEST PUSH1 0x0 PUSH32 0x80AC58CD00000000000000000000000000000000000000000000000000000000 PUSH28 0xFFFFFFFFFFFFFFFFFFFFFFFFFFFFFFFFFFFFFFFFFFFFFFFFFFFFFFFF NOT AND DUP3 PUSH28 0xFFFFFFFFFFFFFFFFFFFFFFFFFFFFFFFFFFFFFFFFFFFFFFFFFFFFFFFF NOT AND EQ DUP1 PUSH2 0x2C16 JUMPI POP PUSH32 0x5B5E139F00000000000000000000000000000000000000000000000000000000 PUSH28 0xFFFFFFFFFFFFFFFFFFFFFFFFFFFFFFFFFFFFFFFFFFFFFFFFFFFFFFFF NOT AND DUP3 PUSH28 0xFFFFFFFFFFFFFFFFFFFFFFFFFFFFFFFFFFFFFFFFFFFFFFFFFFFFFFFF NOT AND EQ JUMPDEST DUP1 PUSH2 0x2C26 JUMPI POP PUSH2 0x2C25 DUP3 PUSH2 0x302A JUMP JUMPDEST JUMPDEST SWAP1 POP SWAP2 SWAP1 POP JUMP JUMPDEST PUSH2 0x2C38 DUP4 DUP4 DUP4 PUSH2 0x3094 JUMP JUMPDEST POP POP POP JUMP JUMPDEST POP POP POP JUMP JUMPDEST PUSH1 0x0 PUSH2 0x2C4E PUSH1 0x11 PUSH2 0x31A8 JUMP JUMPDEST SWAP1 POP SWAP1 JUMP JUMPDEST PUSH1 0x0 PUSH1 0x28 PUSH2 0x2C61 PUSH1 0x32 PUSH2 0x31A8 JUMP JUMPDEST PUSH2 0x2C6B SWAP2 SWAP1 PUSH2 0x45A4 JUMP JUMPDEST SWAP1 POP SWAP1 JUMP JUMPDEST PUSH2 0x2C78 PUSH2 0x371D JUMP JUMPDEST PUSH1 0x40 MLOAD DUP1 PUSH2 0x180 ADD PUSH1 0x40 MSTORE DUP1 DUP15 DUP2 MSTORE PUSH1 0x20 ADD PUSH2 0x2C92 PUSH2 0x3204 JUMP JUMPDEST DUP15 PUSH2 0x2C9D SWAP2 SWAP1 PUSH2 0x45A4 JUMP JUMPDEST DUP2 MSTORE PUSH1 0x20 ADD PUSH2 0x2CAA PUSH2 0x3204 JUMP JUMPDEST DUP14 PUSH2 0x2CB5 SWAP2 SWAP1 PUSH2 0x45A4 JUMP JUMPDEST DUP2 MSTORE PUSH1 0x20 ADD PUSH2 0x2CC2 PUSH2 0x3204 JUMP JUMPDEST DUP13 PUSH2 0x2CCD SWAP2 SWAP1 PUSH2 0x45A4 JUMP JUMPDEST DUP2 MSTORE PUSH1 0x20 ADD PUSH2 0x2CDA PUSH2 0x3204 JUMP JUMPDEST DUP12 PUSH2 0x2CE5 SWAP2 SWAP1 PUSH2 0x45A4 JUMP JUMPDEST DUP2 MSTORE PUSH1 0x20 ADD DUP10 DUP2 MSTORE PUSH1 0x20 ADD DUP9 DUP2 MSTORE PUSH1 0x20 ADD DUP8 DUP2 MSTORE PUSH1 0x20 ADD DUP7 DUP2 MSTORE PUSH1 0x20 ADD DUP6 DUP2 MSTORE PUSH1 0x20 ADD DUP5 DUP2 MSTORE PUSH1 0x20 ADD DUP4 DUP2 MSTORE POP SWAP1 POP SWAP13 SWAP12 POP POP POP POP POP POP POP POP POP POP POP POP JUMP JUMPDEST PUSH2 0x2D2C PUSH2 0x371D JUMP JUMPDEST PUSH1 0x0 PUSH1 0x64 SWAP1 POP PUSH1 0x2 DUP4 EQ ISZERO PUSH2 0x2D4B JUMPI PUSH1 0x14 DUP2 PUSH2 0x2D48 SWAP2 SWAP1 PUSH2 0x45A4 JUMP JUMPDEST SWAP1 POP JUMPDEST PUSH1 0x3 DUP4 EQ ISZERO PUSH2 0x2D64 JUMPI PUSH1 0x32 DUP2 PUSH2 0x2D61 SWAP2 SWAP1 PUSH2 0x45A4 JUMP JUMPDEST SWAP1 POP JUMPDEST PUSH1 0x4 DUP4 EQ ISZERO PUSH2 0x2D7D JUMPI PUSH1 0x46 DUP2 PUSH2 0x2D7A SWAP2 SWAP1 PUSH2 0x45A4 JUMP JUMPDEST SWAP1 POP JUMPDEST PUSH1 0x40 MLOAD DUP1 PUSH2 0x180 ADD PUSH1 0x40 MSTORE DUP1 DUP9 DUP2 MSTORE PUSH1 0x20 ADD PUSH2 0x2D97 PUSH2 0x3204 JUMP JUMPDEST DUP4 PUSH2 0x2DA2 SWAP2 SWAP1 PUSH2 0x45A4 JUMP JUMPDEST DUP2 MSTORE PUSH1 0x20 ADD PUSH2 0x2DAF PUSH2 0x3204 JUMP JUMPDEST DUP4 PUSH2 0x2DBA SWAP2 SWAP1 PUSH2 0x45A4 JUMP JUMPDEST DUP2 MSTORE PUSH1 0x20 ADD PUSH2 0x2DC7 PUSH2 0x3204 JUMP JUMPDEST DUP4 PUSH2 0x2DD2 SWAP2 SWAP1 PUSH2 0x45A4 JUMP JUMPDEST DUP2 MSTORE PUSH1 0x20 ADD PUSH2 0x2DDF PUSH2 0x3204 JUMP JUMPDEST DUP4 PUSH2 0x2DEA SWAP2 SWAP1 PUSH2 0x45A4 JUMP JUMPDEST DUP2 MSTORE PUSH1 0x20 ADD DUP8 DUP2 MSTORE PUSH1 0x20 ADD DUP7 DUP2 MSTORE PUSH1 0x20 ADD DUP8 DUP2 MSTORE PUSH1 0x20 ADD PUSH2 0x2E09 PUSH2 0x2C53 JUMP JUMPDEST DUP2 MSTORE PUSH1 0x20 ADD PUSH2 0x2E16 PUSH2 0x2C42 JUMP JUMPDEST DUP2 MSTORE PUSH1 0x20 ADD PUSH2 0x2E23 PUSH2 0x2C53 JUMP JUMPDEST DUP2 MSTORE PUSH1 0x20 ADD DUP6 DUP2 MSTORE POP SWAP2 POP POP SWAP6 SWAP5 POP POP POP POP POP JUMP JUMPDEST PUSH2 0x2E42 DUP4 DUP4 PUSH2 0x3215 JUMP JUMPDEST PUSH2 0x2E4F PUSH1 0x0 DUP5 DUP5 DUP5 PUSH2 0x2E93 JUMP JUMPDEST PUSH2 0x2E8E JUMPI PUSH1 0x40 MLOAD PUSH32 0x8C379A000000000000000000000000000000000000000000000000000000000 DUP2 MSTORE PUSH1 0x4 ADD PUSH2 0x2E85 SWAP1 PUSH2 0x4164 JUMP JUMPDEST PUSH1 0x40 MLOAD DUP1 SWAP2 SUB SWAP1 REVERT JUMPDEST POP POP POP JUMP JUMPDEST PUSH1 0x0 PUSH2 0x2EB4 DUP5 PUSH20 0xFFFFFFFFFFFFFFFFFFFFFFFFFFFFFFFFFFFFFFFF AND PUSH2 0x33EF JUMP JUMPDEST ISZERO PUSH2 0x301D JUMPI DUP4 PUSH20 0xFFFFFFFFFFFFFFFFFFFFFFFFFFFFFFFFFFFFFFFF AND PUSH4 0x150B7A02 PUSH2 0x2EDD PUSH2 0x1C27 JUMP JUMPDEST DUP8 DUP7 DUP7 PUSH1 0x40 MLOAD DUP6 PUSH4 0xFFFFFFFF AND PUSH1 0xE0 SHL DUP2 MSTORE PUSH1 0x4 ADD PUSH2 0x2EFF SWAP5 SWAP4 SWAP3 SWAP2 SWAP1 PUSH2 0x40BB JUMP JUMPDEST PUSH1 0x20 PUSH1 0x40 MLOAD DUP1 DUP4 SUB DUP2 PUSH1 0x0 DUP8 DUP1 EXTCODESIZE ISZERO DUP1 ISZERO PUSH2 0x2F19 JUMPI PUSH1 0x0 DUP1 REVERT JUMPDEST POP GAS CALL SWAP3 POP POP POP DUP1 ISZERO PUSH2 0x2F4A JUMPI POP PUSH1 0x40 MLOAD RETURNDATASIZE PUSH1 0x1F NOT PUSH1 0x1F DUP3 ADD AND DUP3 ADD DUP1 PUSH1 0x40 MSTORE POP DUP2 ADD SWAP1 PUSH2 0x2F47 SWAP2 SWAP1 PUSH2 0x3A89 JUMP JUMPDEST PUSH1 0x1 JUMPDEST PUSH2 0x2FCD JUMPI RETURNDATASIZE DUP1 PUSH1 0x0 DUP2 EQ PUSH2 0x2F7A JUMPI PUSH1 0x40 MLOAD SWAP2 POP PUSH1 0x1F NOT PUSH1 0x3F RETURNDATASIZE ADD AND DUP3 ADD PUSH1 0x40 MSTORE RETURNDATASIZE DUP3 MSTORE RETURNDATASIZE PUSH1 0x0 PUSH1 0x20 DUP5 ADD RETURNDATACOPY PUSH2 0x2F7F JUMP JUMPDEST PUSH1 0x60 SWAP2 POP JUMPDEST POP PUSH1 0x0 DUP2 MLOAD EQ ISZERO PUSH2 0x2FC5 JUMPI PUSH1 0x40 MLOAD PUSH32 0x8C379A000000000000000000000000000000000000000000000000000000000 DUP2 MSTORE PUSH1 0x4 ADD PUSH2 0x2FBC SWAP1 PUSH2 0x4164 JUMP JUMPDEST PUSH1 0x40 MLOAD DUP1 SWAP2 SUB SWAP1 REVERT JUMPDEST DUP1 MLOAD DUP2 PUSH1 0x20 ADD REVERT JUMPDEST PUSH4 0x150B7A02 PUSH1 0xE0 SHL PUSH28 0xFFFFFFFFFFFFFFFFFFFFFFFFFFFFFFFFFFFFFFFFFFFFFFFFFFFFFFFF NOT AND DUP2 PUSH28 0xFFFFFFFFFFFFFFFFFFFFFFFFFFFFFFFFFFFFFFFFFFFFFFFFFFFFFFFF NOT AND EQ SWAP2 POP POP PUSH2 0x3022 JUMP JUMPDEST PUSH1 0x1 SWAP1 POP JUMPDEST SWAP5 SWAP4 POP POP POP POP JUMP JUMPDEST PUSH1 0x0 PUSH32 0x1FFC9A700000000000000000000000000000000000000000000000000000000 PUSH28 0xFFFFFFFFFFFFFFFFFFFFFFFFFFFFFFFFFFFFFFFFFFFFFFFFFFFFFFFF NOT AND DUP3 PUSH28 0xFFFFFFFFFFFFFFFFFFFFFFFFFFFFFFFFFFFFFFFFFFFFFFFFFFFFFFFF NOT AND EQ SWAP1 POP SWAP2 SWAP1 POP JUMP JUMPDEST PUSH2 0x309F DUP4 DUP4 DUP4 PUSH2 0x3412 JUMP JUMPDEST PUSH1 0x0 PUSH20 0xFFFFFFFFFFFFFFFFFFFFFFFFFFFFFFFFFFFFFFFF AND DUP4 PUSH20 0xFFFFFFFFFFFFFFFFFFFFFFFFFFFFFFFFFFFFFFFF AND EQ ISZERO PUSH2 0x30E2 JUMPI PUSH2 0x30DD DUP2 PUSH2 0x3417 JUMP JUMPDEST PUSH2 0x3121 JUMP JUMPDEST DUP2 PUSH20 0xFFFFFFFFFFFFFFFFFFFFFFFFFFFFFFFFFFFFFFFF AND DUP4 PUSH20 0xFFFFFFFFFFFFFFFFFFFFFFFFFFFFFFFFFFFFFFFF AND EQ PUSH2 0x3120 JUMPI PUSH2 0x311F DUP4 DUP3 PUSH2 0x3460 JUMP JUMPDEST JUMPDEST JUMPDEST PUSH1 0x0 PUSH20 0xFFFFFFFFFFFFFFFFFFFFFFFFFFFFFFFFFFFFFFFF AND DUP3 PUSH20 0xFFFFFFFFFFFFFFFFFFFFFFFFFFFFFFFFFFFFFFFF AND EQ ISZERO PUSH2 0x3164 JUMPI PUSH2 0x315F DUP2 PUSH2 0x35CD JUMP JUMPDEST PUSH2 0x31A3 JUMP JUMPDEST DUP3 PUSH20 0xFFFFFFFFFFFFFFFFFFFFFFFFFFFFFFFFFFFFFFFF AND DUP3 PUSH20 0xFFFFFFFFFFFFFFFFFFFFFFFFFFFFFFFFFFFFFFFF AND EQ PUSH2 0x31A2 JUMPI PUSH2 0x31A1 DUP3 DUP3 PUSH2 0x369E JUMP JUMPDEST JUMPDEST JUMPDEST POP POP POP JUMP JUMPDEST PUSH1 0x0 PUSH1 0xD PUSH1 0x0 DUP2 SLOAD DUP1 SWAP3 SWAP2 SWAP1 PUSH2 0x31BD SWAP1 PUSH2 0x4782 JUMP JUMPDEST SWAP2 SWAP1 POP SSTORE POP DUP2 DIFFICULTY TIMESTAMP PUSH1 0xD SLOAD PUSH1 0x40 MLOAD PUSH1 0x20 ADD PUSH2 0x31DA SWAP4 SWAP3 SWAP2 SWAP1 PUSH2 0x4063 JUMP JUMPDEST PUSH1 0x40 MLOAD PUSH1 0x20 DUP2 DUP4 SUB SUB DUP2 MSTORE SWAP1 PUSH1 0x40 MSTORE DUP1 MLOAD SWAP1 PUSH1 0x20 ADD KECCAK256 PUSH1 0x0 SHR PUSH2 0x31FD SWAP2 SWAP1 PUSH2 0x47D5 JUMP JUMPDEST SWAP1 POP SWAP2 SWAP1 POP JUMP JUMPDEST PUSH1 0x0 PUSH2 0x3210 PUSH1 0x14 PUSH2 0x31A8 JUMP JUMPDEST SWAP1 POP SWAP1 JUMP JUMPDEST PUSH1 0x0 PUSH20 0xFFFFFFFFFFFFFFFFFFFFFFFFFFFFFFFFFFFFFFFF AND DUP3 PUSH20 0xFFFFFFFFFFFFFFFFFFFFFFFFFFFFFFFFFFFFFFFF AND EQ ISZERO PUSH2 0x3285 JUMPI PUSH1 0x40 MLOAD PUSH32 0x8C379A000000000000000000000000000000000000000000000000000000000 DUP2 MSTORE PUSH1 0x4 ADD PUSH2 0x327C SWAP1 PUSH2 0x4284 JUMP JUMPDEST PUSH1 0x40 MLOAD DUP1 SWAP2 SUB SWAP1 REVERT JUMPDEST PUSH2 0x328E DUP2 PUSH2 0x1BBB JUMP JUMPDEST ISZERO PUSH2 0x32CE JUMPI PUSH1 0x40 MLOAD PUSH32 0x8C379A000000000000000000000000000000000000000000000000000000000 DUP2 MSTORE PUSH1 0x4 ADD PUSH2 0x32C5 SWAP1 PUSH2 0x41A4 JUMP JUMPDEST PUSH1 0x40 MLOAD DUP1 SWAP2 SUB SWAP1 REVERT JUMPDEST PUSH2 0x32DA PUSH1 0x0 DUP4 DUP4 PUSH2 0x2C2D JUMP JUMPDEST PUSH1 0x1 PUSH1 0x3 PUSH1 0x0 DUP5 PUSH20 0xFFFFFFFFFFFFFFFFFFFFFFFFFFFFFFFFFFFFFFFF AND PUSH20 0xFFFFFFFFFFFFFFFFFFFFFFFFFFFFFFFFFFFFFFFF AND DUP2 MSTORE PUSH1 0x20 ADD SWAP1 DUP2 MSTORE PUSH1 0x20 ADD PUSH1 0x0 KECCAK256 PUSH1 0x0 DUP3 DUP3 SLOAD PUSH2 0x332A SWAP2 SWAP1 PUSH2 0x45A4 JUMP JUMPDEST SWAP3 POP POP DUP2 SWAP1 SSTORE POP DUP2 PUSH1 0x2 PUSH1 0x0 DUP4 DUP2 MSTORE PUSH1 0x20 ADD SWAP1 DUP2 MSTORE PUSH1 0x20 ADD PUSH1 0x0 KECCAK256 PUSH1 0x0 PUSH2 0x100 EXP DUP2 SLOAD DUP2 PUSH20 0xFFFFFFFFFFFFFFFFFFFFFFFFFFFFFFFFFFFFFFFF MUL NOT AND SWAP1 DUP4 PUSH20 0xFFFFFFFFFFFFFFFFFFFFFFFFFFFFFFFFFFFFFFFF AND MUL OR SWAP1 SSTORE POP DUP1 DUP3 PUSH20 0xFFFFFFFFFFFFFFFFFFFFFFFFFFFFFFFFFFFFFFFF AND PUSH1 0x0 PUSH20 0xFFFFFFFFFFFFFFFFFFFFFFFFFFFFFFFFFFFFFFFF AND PUSH32 0xDDF252AD1BE2C89B69C2B068FC378DAA952BA7F163C4A11628F55A4DF523B3EF PUSH1 0x40 MLOAD PUSH1 0x40 MLOAD DUP1 SWAP2 SUB SWAP1 LOG4 PUSH2 0x33EB PUSH1 0x0 DUP4 DUP4 PUSH2 0x2C3D JUMP JUMPDEST POP POP JUMP JUMPDEST PUSH1 0x0 DUP1 DUP3 PUSH20 0xFFFFFFFFFFFFFFFFFFFFFFFFFFFFFFFFFFFFFFFF AND EXTCODESIZE GT SWAP1 POP SWAP2 SWAP1 POP JUMP JUMPDEST POP POP POP JUMP JUMPDEST PUSH1 0x8 DUP1 SLOAD SWAP1 POP PUSH1 0x9 PUSH1 0x0 DUP4 DUP2 MSTORE PUSH1 0x20 ADD SWAP1 DUP2 MSTORE PUSH1 0x20 ADD PUSH1 0x0 KECCAK256 DUP2 SWAP1 SSTORE POP PUSH1 0x8 DUP2 SWAP1 DUP1 PUSH1 0x1 DUP2 SLOAD ADD DUP1 DUP3 SSTORE DUP1 SWAP2 POP POP PUSH1 0x1 SWAP1 SUB SWAP1 PUSH1 0x0 MSTORE PUSH1 0x20 PUSH1 0x0 KECCAK256 ADD PUSH1 0x0 SWAP1 SWAP2 SWAP1 SWAP2 SWAP1 SWAP2 POP SSTORE POP JUMP JUMPDEST PUSH1 0x0 PUSH1 0x1 PUSH2 0x346D DUP5 PUSH2 0xBB4 JUMP JUMPDEST PUSH2 0x3477 SWAP2 SWAP1 PUSH2 0x462B JUMP JUMPDEST SWAP1 POP PUSH1 0x0 PUSH1 0x7 PUSH1 0x0 DUP5 DUP2 MSTORE PUSH1 0x20 ADD SWAP1 DUP2 MSTORE PUSH1 0x20 ADD PUSH1 0x0 KECCAK256 SLOAD SWAP1 POP DUP2 DUP2 EQ PUSH2 0x355C JUMPI PUSH1 0x0 PUSH1 0x6 PUSH1 0x0 DUP7 PUSH20 0xFFFFFFFFFFFFFFFFFFFFFFFFFFFFFFFFFFFFFFFF AND PUSH20 0xFFFFFFFFFFFFFFFFFFFFFFFFFFFFFFFFFFFFFFFF AND DUP2 MSTORE PUSH1 0x20 ADD SWAP1 DUP2 MSTORE PUSH1 0x20 ADD PUSH1 0x0 KECCAK256 PUSH1 0x0 DUP5 DUP2 MSTORE PUSH1 0x20 ADD SWAP1 DUP2 MSTORE PUSH1 0x20 ADD PUSH1 0x0 KECCAK256 SLOAD SWAP1 POP DUP1 PUSH1 0x6 PUSH1 0x0 DUP8 PUSH20 0xFFFFFFFFFFFFFFFFFFFFFFFFFFFFFFFFFFFFFFFF AND PUSH20 0xFFFFFFFFFFFFFFFFFFFFFFFFFFFFFFFFFFFFFFFF AND DUP2 MSTORE PUSH1 0x20 ADD SWAP1 DUP2 MSTORE PUSH1 0x20 ADD PUSH1 0x0 KECCAK256 PUSH1 0x0 DUP5 DUP2 MSTORE PUSH1 0x20 ADD SWAP1 DUP2 MSTORE PUSH1 0x20 ADD PUSH1 0x0 KECCAK256 DUP2 SWAP1 SSTORE POP DUP2 PUSH1 0x7 PUSH1 0x0 DUP4 DUP2 MSTORE PUSH1 0x20 ADD SWAP1 DUP2 MSTORE PUSH1 0x20 ADD PUSH1 0x0 KECCAK256 DUP2 SWAP1 SSTORE POP POP JUMPDEST PUSH1 0x7 PUSH1 0x0 DUP5 DUP2 MSTORE PUSH1 0x20 ADD SWAP1 DUP2 MSTORE PUSH1 0x20 ADD PUSH1 0x0 KECCAK256 PUSH1 0x0 SWAP1 SSTORE PUSH1 0x6 PUSH1 0x0 DUP6 PUSH20 0xFFFFFFFFFFFFFFFFFFFFFFFFFFFFFFFFFFFFFFFF AND PUSH20 0xFFFFFFFFFFFFFFFFFFFFFFFFFFFFFFFFFFFFFFFF AND DUP2 MSTORE PUSH1 0x20 ADD SWAP1 DUP2 MSTORE PUSH1 0x20 ADD PUSH1 0x0 KECCAK256 PUSH1 0x0 DUP4 DUP2 MSTORE PUSH1 0x20 ADD SWAP1 DUP2 MSTORE PUSH1 0x20 ADD PUSH1 0x0 KECCAK256 PUSH1 0x0 SWAP1 SSTORE POP POP POP POP JUMP JUMPDEST PUSH1 0x0 PUSH1 0x1 PUSH1 0x8 DUP1 SLOAD SWAP1 POP PUSH2 0x35E1 SWAP2 SWAP1 PUSH2 0x462B JUMP JUMPDEST SWAP1 POP PUSH1 0x0 PUSH1 0x9 PUSH1 0x0 DUP5 DUP2 MSTORE PUSH1 0x20 ADD SWAP1 DUP2 MSTORE PUSH1 0x20 ADD PUSH1 0x0 KECCAK256 SLOAD SWAP1 POP PUSH1 0x0 PUSH1 0x8 DUP4 DUP2 SLOAD DUP2 LT PUSH2 0x3611 JUMPI PUSH2 0x3610 PUSH2 0x48C2 JUMP JUMPDEST JUMPDEST SWAP1 PUSH1 0x0 MSTORE PUSH1 0x20 PUSH1 0x0 KECCAK256 ADD SLOAD SWAP1 POP DUP1 PUSH1 0x8 DUP4 DUP2 SLOAD DUP2 LT PUSH2 0x3633 JUMPI PUSH2 0x3632 PUSH2 0x48C2 JUMP JUMPDEST JUMPDEST SWAP1 PUSH1 0x0 MSTORE PUSH1 0x20 PUSH1 0x0 KECCAK256 ADD DUP2 SWAP1 SSTORE POP DUP2 PUSH1 0x9 PUSH1 0x0 DUP4 DUP2 MSTORE PUSH1 0x20 ADD SWAP1 DUP2 MSTORE PUSH1 0x20 ADD PUSH1 0x0 KECCAK256 DUP2 SWAP1 SSTORE POP PUSH1 0x9 PUSH1 0x0 DUP6 DUP2 MSTORE PUSH1 0x20 ADD SWAP1 DUP2 MSTORE PUSH1 0x20 ADD PUSH1 0x0 KECCAK256 PUSH1 0x0 SWAP1 SSTORE PUSH1 0x8 DUP1 SLOAD DUP1 PUSH2 0x3682 JUMPI PUSH2 0x3681 PUSH2 0x4893 JUMP JUMPDEST JUMPDEST PUSH1 0x1 SWAP1 SUB DUP2 DUP2 SWAP1 PUSH1 0x0 MSTORE PUSH1 0x20 PUSH1 0x0 KECCAK256 ADD PUSH1 0x0 SWAP1 SSTORE SWAP1 SSTORE POP POP POP POP JUMP JUMPDEST PUSH1 0x0 PUSH2 0x36A9 DUP4 PUSH2 0xBB4 JUMP JUMPDEST SWAP1 POP DUP2 PUSH1 0x6 PUSH1 0x0 DUP6 PUSH20 0xFFFFFFFFFFFFFFFFFFFFFFFFFFFFFFFFFFFFFFFF AND PUSH20 0xFFFFFFFFFFFFFFFFFFFFFFFFFFFFFFFFFFFFFFFF AND DUP2 MSTORE PUSH1 0x20 ADD SWAP1 DUP2 MSTORE PUSH1 0x20 ADD PUSH1 0x0 KECCAK256 PUSH1 0x0 DUP4 DUP2 MSTORE PUSH1 0x20 ADD SWAP1 DUP2 MSTORE PUSH1 0x20 ADD PUSH1 0x0 KECCAK256 DUP2 SWAP1 SSTORE POP DUP1 PUSH1 0x7 PUSH1 0x0 DUP5 DUP2 MSTORE PUSH1 0x20 ADD SWAP1 DUP2 MSTORE PUSH1 0x20 ADD PUSH1 0x0 KECCAK256 DUP2 SWAP1 SSTORE POP POP POP POP JUMP JUMPDEST PUSH1 0x40 MLOAD DUP1 PUSH2 0x180 ADD PUSH1 0x40 MSTORE DUP1 PUSH1 0x0 DUP2 MSTORE PUSH1 0x20 ADD PUSH1 0x0 DUP2 MSTORE PUSH1 0x20 ADD PUSH1 0x0 DUP2 MSTORE PUSH1 0x20 ADD PUSH1 0x0 DUP2 MSTORE PUSH1 0x20 ADD PUSH1 0x0 DUP2 MSTORE PUSH1 0x20 ADD PUSH1 0x0 DUP2 MSTORE PUSH1 0x20 ADD PUSH1 0x0 DUP2 MSTORE PUSH1 0x20 ADD PUSH1 0x0 DUP2 MSTORE PUSH1 0x20 ADD PUSH1 0x0 DUP2 MSTORE PUSH1 0x20 ADD PUSH1 0x0 DUP2 MSTORE PUSH1 0x20 ADD PUSH1 0x0 DUP2 MSTORE PUSH1 0x20 ADD PUSH1 0x0 DUP2 MSTORE POP SWAP1 JUMP JUMPDEST PUSH1 0x0 PUSH2 0x3791 PUSH2 0x378C DUP5 PUSH2 0x44F7 JUMP JUMPDEST PUSH2 0x44D2 JUMP JUMPDEST SWAP1 POP DUP3 DUP2 MSTORE PUSH1 0x20 DUP2 ADD DUP5 DUP5 DUP5 ADD GT ISZERO PUSH2 0x37AD JUMPI PUSH2 0x37AC PUSH2 0x4925 JUMP JUMPDEST JUMPDEST PUSH2 0x37B8 DUP5 DUP3 DUP6 PUSH2 0x46DD JUMP JUMPDEST POP SWAP4 SWAP3 POP POP POP JUMP JUMPDEST PUSH1 0x0 DUP2 CALLDATALOAD SWAP1 POP PUSH2 0x37CF DUP2 PUSH2 0x4E12 JUMP JUMPDEST SWAP3 SWAP2 POP POP JUMP JUMPDEST PUSH1 0x0 DUP2 CALLDATALOAD SWAP1 POP PUSH2 0x37E4 DUP2 PUSH2 0x4E29 JUMP JUMPDEST SWAP3 SWAP2 POP POP JUMP JUMPDEST PUSH1 0x0 DUP2 MLOAD SWAP1 POP PUSH2 0x37F9 DUP2 PUSH2 0x4E40 JUMP JUMPDEST SWAP3 SWAP2 POP POP JUMP JUMPDEST PUSH1 0x0 DUP2 CALLDATALOAD SWAP1 POP PUSH2 0x380E DUP2 PUSH2 0x4E57 JUMP JUMPDEST SWAP3 SWAP2 POP POP JUMP JUMPDEST PUSH1 0x0 DUP2 MLOAD SWAP1 POP PUSH2 0x3823 DUP2 PUSH2 0x4E57 JUMP JUMPDEST SWAP3 SWAP2 POP POP JUMP JUMPDEST PUSH1 0x0 DUP3 PUSH1 0x1F DUP4 ADD SLT PUSH2 0x383E JUMPI PUSH2 0x383D PUSH2 0x4920 JUMP JUMPDEST JUMPDEST DUP2 CALLDATALOAD PUSH2 0x384E DUP5 DUP3 PUSH1 0x20 DUP7 ADD PUSH2 0x377E JUMP JUMPDEST SWAP2 POP POP SWAP3 SWAP2 POP POP JUMP JUMPDEST PUSH1 0x0 DUP2 CALLDATALOAD SWAP1 POP PUSH2 0x3866 DUP2 PUSH2 0x4E6E JUMP JUMPDEST SWAP3 SWAP2 POP POP JUMP JUMPDEST PUSH1 0x0 PUSH1 0x20 DUP3 DUP5 SUB SLT ISZERO PUSH2 0x3882 JUMPI PUSH2 0x3881 PUSH2 0x492F JUMP JUMPDEST JUMPDEST PUSH1 0x0 PUSH2 0x3890 DUP5 DUP3 DUP6 ADD PUSH2 0x37C0 JUMP JUMPDEST SWAP2 POP POP SWAP3 SWAP2 POP POP JUMP JUMPDEST PUSH1 0x0 DUP1 PUSH1 0x40 DUP4 DUP6 SUB SLT ISZERO PUSH2 0x38B0 JUMPI PUSH2 0x38AF PUSH2 0x492F JUMP JUMPDEST JUMPDEST PUSH1 0x0 PUSH2 0x38BE DUP6 DUP3 DUP7 ADD PUSH2 0x37C0 JUMP JUMPDEST SWAP3 POP POP PUSH1 0x20 PUSH2 0x38CF DUP6 DUP3 DUP7 ADD PUSH2 0x37C0 JUMP JUMPDEST SWAP2 POP POP SWAP3 POP SWAP3 SWAP1 POP JUMP JUMPDEST PUSH1 0x0 DUP1 PUSH1 0x0 PUSH1 0x60 DUP5 DUP7 SUB SLT ISZERO PUSH2 0x38F2 JUMPI PUSH2 0x38F1 PUSH2 0x492F JUMP JUMPDEST JUMPDEST PUSH1 0x0 PUSH2 0x3900 DUP7 DUP3 DUP8 ADD PUSH2 0x37C0 JUMP JUMPDEST SWAP4 POP POP PUSH1 0x20 PUSH2 0x3911 DUP7 DUP3 DUP8 ADD PUSH2 0x37C0 JUMP JUMPDEST SWAP3 POP POP PUSH1 0x40 PUSH2 0x3922 DUP7 DUP3 DUP8 ADD PUSH2 0x3857 JUMP JUMPDEST SWAP2 POP POP SWAP3 POP SWAP3 POP SWAP3 JUMP JUMPDEST PUSH1 0x0 DUP1 PUSH1 0x0 DUP1 PUSH1 0x80 DUP6 DUP8 SUB SLT ISZERO PUSH2 0x3946 JUMPI PUSH2 0x3945 PUSH2 0x492F JUMP JUMPDEST JUMPDEST PUSH1 0x0 PUSH2 0x3954 DUP8 DUP3 DUP9 ADD PUSH2 0x37C0 JUMP JUMPDEST SWAP5 POP POP PUSH1 0x20 PUSH2 0x3965 DUP8 DUP3 DUP9 ADD PUSH2 0x37C0 JUMP JUMPDEST SWAP4 POP POP PUSH1 0x40 PUSH2 0x3976 DUP8 DUP3 DUP9 ADD PUSH2 0x3857 JUMP JUMPDEST SWAP3 POP POP PUSH1 0x60 DUP6 ADD CALLDATALOAD PUSH8 0xFFFFFFFFFFFFFFFF DUP2 GT ISZERO PUSH2 0x3997 JUMPI PUSH2 0x3996 PUSH2 0x492A JUMP JUMPDEST JUMPDEST PUSH2 0x39A3 DUP8 DUP3 DUP9 ADD PUSH2 0x3829 JUMP JUMPDEST SWAP2 POP POP SWAP3 SWAP6 SWAP2 SWAP5 POP SWAP3 POP JUMP JUMPDEST PUSH1 0x0 DUP1 PUSH1 0x40 DUP4 DUP6 SUB SLT ISZERO PUSH2 0x39C6 JUMPI PUSH2 0x39C5 PUSH2 0x492F JUMP JUMPDEST JUMPDEST PUSH1 0x0 PUSH2 0x39D4 DUP6 DUP3 DUP7 ADD PUSH2 0x37C0 JUMP JUMPDEST SWAP3 POP POP PUSH1 0x20 PUSH2 0x39E5 DUP6 DUP3 DUP7 ADD PUSH2 0x37D5 JUMP JUMPDEST SWAP2 POP POP SWAP3 POP SWAP3 SWAP1 POP JUMP JUMPDEST PUSH1 0x0 DUP1 PUSH1 0x40 DUP4 DUP6 SUB SLT ISZERO PUSH2 0x3A06 JUMPI PUSH2 0x3A05 PUSH2 0x492F JUMP JUMPDEST JUMPDEST PUSH1 0x0 PUSH2 0x3A14 DUP6 DUP3 DUP7 ADD PUSH2 0x37C0 JUMP JUMPDEST SWAP3 POP POP PUSH1 0x20 PUSH2 0x3A25 DUP6 DUP3 DUP7 ADD PUSH2 0x3857 JUMP JUMPDEST SWAP2 POP POP SWAP3 POP SWAP3 SWAP1 POP JUMP JUMPDEST PUSH1 0x0 PUSH1 0x20 DUP3 DUP5 SUB SLT ISZERO PUSH2 0x3A45 JUMPI PUSH2 0x3A44 PUSH2 0x492F JUMP JUMPDEST JUMPDEST PUSH1 0x0 PUSH2 0x3A53 DUP5 DUP3 DUP6 ADD PUSH2 0x37EA JUMP JUMPDEST SWAP2 POP POP SWAP3 SWAP2 POP POP JUMP JUMPDEST PUSH1 0x0 PUSH1 0x20 DUP3 DUP5 SUB SLT ISZERO PUSH2 0x3A72 JUMPI PUSH2 0x3A71 PUSH2 0x492F JUMP JUMPDEST JUMPDEST PUSH1 0x0 PUSH2 0x3A80 DUP5 DUP3 DUP6 ADD PUSH2 0x37FF JUMP JUMPDEST SWAP2 POP POP SWAP3 SWAP2 POP POP JUMP JUMPDEST PUSH1 0x0 PUSH1 0x20 DUP3 DUP5 SUB SLT ISZERO PUSH2 0x3A9F JUMPI PUSH2 0x3A9E PUSH2 0x492F JUMP JUMPDEST JUMPDEST PUSH1 0x0 PUSH2 0x3AAD DUP5 DUP3 DUP6 ADD PUSH2 0x3814 JUMP JUMPDEST SWAP2 POP POP SWAP3 SWAP2 POP POP JUMP JUMPDEST PUSH1 0x0 PUSH1 0x20 DUP3 DUP5 SUB SLT ISZERO PUSH2 0x3ACC JUMPI PUSH2 0x3ACB PUSH2 0x492F JUMP JUMPDEST JUMPDEST PUSH1 0x0 PUSH2 0x3ADA DUP5 DUP3 DUP6 ADD PUSH2 0x3857 JUMP JUMPDEST SWAP2 POP POP SWAP3 SWAP2 POP POP JUMP JUMPDEST PUSH1 0x0 DUP1 PUSH1 0x40 DUP4 DUP6 SUB SLT ISZERO PUSH2 0x3AFA JUMPI PUSH2 0x3AF9 PUSH2 0x492F JUMP JUMPDEST JUMPDEST PUSH1 0x0 PUSH2 0x3B08 DUP6 DUP3 DUP7 ADD PUSH2 0x3857 JUMP JUMPDEST SWAP3 POP POP PUSH1 0x20 PUSH2 0x3B19 DUP6 DUP3 DUP7 ADD PUSH2 0x3857 JUMP JUMPDEST SWAP2 POP POP SWAP3 POP SWAP3 SWAP1 POP JUMP JUMPDEST PUSH1 0x0 DUP1 PUSH1 0x0 DUP1 PUSH1 0x80 DUP6 DUP8 SUB SLT ISZERO PUSH2 0x3B3D JUMPI PUSH2 0x3B3C PUSH2 0x492F JUMP JUMPDEST JUMPDEST PUSH1 0x0 PUSH2 0x3B4B DUP8 DUP3 DUP9 ADD PUSH2 0x3857 JUMP JUMPDEST SWAP5 POP POP PUSH1 0x20 PUSH2 0x3B5C DUP8 DUP3 DUP9 ADD PUSH2 0x3857 JUMP JUMPDEST SWAP4 POP POP PUSH1 0x40 PUSH2 0x3B6D DUP8 DUP3 DUP9 ADD PUSH2 0x3857 JUMP JUMPDEST SWAP3 POP POP PUSH1 0x60 PUSH2 0x3B7E DUP8 DUP3 DUP9 ADD PUSH2 0x3857 JUMP JUMPDEST SWAP2 POP POP SWAP3 SWAP6 SWAP2 SWAP5 POP SWAP3 POP JUMP JUMPDEST PUSH1 0x0 PUSH2 0x3B96 DUP4 DUP4 PUSH2 0x400A JUMP JUMPDEST PUSH1 0x20 DUP4 ADD SWAP1 POP SWAP3 SWAP2 POP POP JUMP JUMPDEST PUSH2 0x3BAB DUP2 PUSH2 0x465F JUMP JUMPDEST DUP3 MSTORE POP POP JUMP JUMPDEST PUSH1 0x0 PUSH2 0x3BBC DUP3 PUSH2 0x4538 JUMP JUMPDEST PUSH2 0x3BC6 DUP2 DUP6 PUSH2 0x4566 JUMP JUMPDEST SWAP4 POP PUSH2 0x3BD1 DUP4 PUSH2 0x4528 JUMP JUMPDEST DUP1 PUSH1 0x0 JUMPDEST DUP4 DUP2 LT ISZERO PUSH2 0x3C02 JUMPI DUP2 MLOAD PUSH2 0x3BE9 DUP9 DUP3 PUSH2 0x3B8A JUMP JUMPDEST SWAP8 POP PUSH2 0x3BF4 DUP4 PUSH2 0x4559 JUMP JUMPDEST SWAP3 POP POP PUSH1 0x1 DUP2 ADD SWAP1 POP PUSH2 0x3BD5 JUMP JUMPDEST POP DUP6 SWAP4 POP POP POP POP SWAP3 SWAP2 POP POP JUMP JUMPDEST PUSH2 0x3C18 DUP2 PUSH2 0x4671 JUMP JUMPDEST DUP3 MSTORE POP POP JUMP JUMPDEST PUSH1 0x0 PUSH2 0x3C29 DUP3 PUSH2 0x4543 JUMP JUMPDEST PUSH2 0x3C33 DUP2 DUP6 PUSH2 0x4577 JUMP JUMPDEST SWAP4 POP PUSH2 0x3C43 DUP2 DUP6 PUSH1 0x20 DUP7 ADD PUSH2 0x46EC JUMP JUMPDEST PUSH2 0x3C4C DUP2 PUSH2 0x4934 JUMP JUMPDEST DUP5 ADD SWAP2 POP POP SWAP3 SWAP2 POP POP JUMP JUMPDEST PUSH1 0x0 PUSH2 0x3C62 DUP3 PUSH2 0x454E JUMP JUMPDEST PUSH2 0x3C6C DUP2 DUP6 PUSH2 0x4588 JUMP JUMPDEST SWAP4 POP PUSH2 0x3C7C DUP2 DUP6 PUSH1 0x20 DUP7 ADD PUSH2 0x46EC JUMP JUMPDEST PUSH2 0x3C85 DUP2 PUSH2 0x4934 JUMP JUMPDEST DUP5 ADD SWAP2 POP POP SWAP3 SWAP2 POP POP JUMP JUMPDEST PUSH1 0x0 PUSH2 0x3C9B DUP3 PUSH2 0x454E JUMP JUMPDEST PUSH2 0x3CA5 DUP2 DUP6 PUSH2 0x4599 JUMP JUMPDEST SWAP4 POP PUSH2 0x3CB5 DUP2 DUP6 PUSH1 0x20 DUP7 ADD PUSH2 0x46EC JUMP JUMPDEST DUP1 DUP5 ADD SWAP2 POP POP SWAP3 SWAP2 POP POP JUMP JUMPDEST PUSH1 0x0 PUSH2 0x3CCE PUSH1 0x2B DUP4 PUSH2 0x4588 JUMP JUMPDEST SWAP2 POP PUSH2 0x3CD9 DUP3 PUSH2 0x4945 JUMP JUMPDEST PUSH1 0x40 DUP3 ADD SWAP1 POP SWAP2 SWAP1 POP JUMP JUMPDEST PUSH1 0x0 PUSH2 0x3CF1 PUSH1 0x32 DUP4 PUSH2 0x4588 JUMP JUMPDEST SWAP2 POP PUSH2 0x3CFC DUP3 PUSH2 0x4994 JUMP JUMPDEST PUSH1 0x40 DUP3 ADD SWAP1 POP SWAP2 SWAP1 POP JUMP JUMPDEST PUSH1 0x0 PUSH2 0x3D14 PUSH1 0x25 DUP4 PUSH2 0x4588 JUMP JUMPDEST SWAP2 POP PUSH2 0x3D1F DUP3 PUSH2 0x49E3 JUMP JUMPDEST PUSH1 0x40 DUP3 ADD SWAP1 POP SWAP2 SWAP1 POP JUMP JUMPDEST PUSH1 0x0 PUSH2 0x3D37 PUSH1 0x1C DUP4 PUSH2 0x4588 JUMP JUMPDEST SWAP2 POP PUSH2 0x3D42 DUP3 PUSH2 0x4A32 JUMP JUMPDEST PUSH1 0x20 DUP3 ADD SWAP1 POP SWAP2 SWAP1 POP JUMP JUMPDEST PUSH1 0x0 PUSH2 0x3D5A PUSH1 0x24 DUP4 PUSH2 0x4588 JUMP JUMPDEST SWAP2 POP PUSH2 0x3D65 DUP3 PUSH2 0x4A5B JUMP JUMPDEST PUSH1 0x40 DUP3 ADD SWAP1 POP SWAP2 SWAP1 POP JUMP JUMPDEST PUSH1 0x0 PUSH2 0x3D7D PUSH1 0x19 DUP4 PUSH2 0x4588 JUMP JUMPDEST SWAP2 POP PUSH2 0x3D88 DUP3 PUSH2 0x4AAA JUMP JUMPDEST PUSH1 0x20 DUP3 ADD SWAP1 POP SWAP2 SWAP1 POP JUMP JUMPDEST PUSH1 0x0 PUSH2 0x3DA0 PUSH1 0x2C DUP4 PUSH2 0x4588 JUMP JUMPDEST SWAP2 POP PUSH2 0x3DAB DUP3 PUSH2 0x4AD3 JUMP JUMPDEST PUSH1 0x40 DUP3 ADD SWAP1 POP SWAP2 SWAP1 POP JUMP JUMPDEST PUSH1 0x0 PUSH2 0x3DC3 PUSH1 0x38 DUP4 PUSH2 0x4588 JUMP JUMPDEST SWAP2 POP PUSH2 0x3DCE DUP3 PUSH2 0x4B22 JUMP JUMPDEST PUSH1 0x40 DUP3 ADD SWAP1 POP SWAP2 SWAP1 POP JUMP JUMPDEST PUSH1 0x0 PUSH2 0x3DE6 PUSH1 0x2A DUP4 PUSH2 0x4588 JUMP JUMPDEST SWAP2 POP PUSH2 0x3DF1 DUP3 PUSH2 0x4B71 JUMP JUMPDEST PUSH1 0x40 DUP3 ADD SWAP1 POP SWAP2 SWAP1 POP JUMP JUMPDEST PUSH1 0x0 PUSH2 0x3E09 PUSH1 0x29 DUP4 PUSH2 0x4588 JUMP JUMPDEST SWAP2 POP PUSH2 0x3E14 DUP3 PUSH2 0x4BC0 JUMP JUMPDEST PUSH1 0x40 DUP3 ADD SWAP1 POP SWAP2 SWAP1 POP JUMP JUMPDEST PUSH1 0x0 PUSH2 0x3E2C PUSH1 0x20 DUP4 PUSH2 0x4588 JUMP JUMPDEST SWAP2 POP PUSH2 0x3E37 DUP3 PUSH2 0x4C0F JUMP JUMPDEST PUSH1 0x20 DUP3 ADD SWAP1 POP SWAP2 SWAP1 POP JUMP JUMPDEST PUSH1 0x0 PUSH2 0x3E4F PUSH1 0x2C DUP4 PUSH2 0x4588 JUMP JUMPDEST SWAP2 POP PUSH2 0x3E5A DUP3 PUSH2 0x4C38 JUMP JUMPDEST PUSH1 0x40 DUP3 ADD SWAP1 POP SWAP2 SWAP1 POP JUMP JUMPDEST PUSH1 0x0 PUSH2 0x3E72 PUSH1 0x2F DUP4 PUSH2 0x4588 JUMP JUMPDEST SWAP2 POP PUSH2 0x3E7D DUP3 PUSH2 0x4C87 JUMP JUMPDEST PUSH1 0x40 DUP3 ADD SWAP1 POP SWAP2 SWAP1 POP JUMP JUMPDEST PUSH1 0x0 PUSH2 0x3E95 PUSH1 0x21 DUP4 PUSH2 0x4588 JUMP JUMPDEST SWAP2 POP PUSH2 0x3EA0 DUP3 PUSH2 0x4CD6 JUMP JUMPDEST PUSH1 0x40 DUP3 ADD SWAP1 POP SWAP2 SWAP1 POP JUMP JUMPDEST PUSH1 0x0 PUSH2 0x3EB8 PUSH1 0x31 DUP4 PUSH2 0x4588 JUMP JUMPDEST SWAP2 POP PUSH2 0x3EC3 DUP3 PUSH2 0x4D25 JUMP JUMPDEST PUSH1 0x40 DUP3 ADD SWAP1 POP SWAP2 SWAP1 POP JUMP JUMPDEST PUSH1 0x0 PUSH2 0x3EDB PUSH1 0x2C DUP4 PUSH2 0x4588 JUMP JUMPDEST SWAP2 POP PUSH2 0x3EE6 DUP3 PUSH2 0x4D74 JUMP JUMPDEST PUSH1 0x40 DUP3 ADD SWAP1 POP SWAP2 SWAP1 POP JUMP JUMPDEST PUSH1 0x0 PUSH2 0x3EFE PUSH1 0x30 DUP4 PUSH2 0x4588 JUMP JUMPDEST SWAP2 POP PUSH2 0x3F09 DUP3 PUSH2 0x4DC3 JUMP JUMPDEST PUSH1 0x40 DUP3 ADD SWAP1 POP SWAP2 SWAP1 POP JUMP JUMPDEST PUSH2 0x180 DUP3 ADD PUSH1 0x0 DUP3 ADD MLOAD PUSH2 0x3F2B PUSH1 0x0 DUP6 ADD DUP3 PUSH2 0x400A JUMP JUMPDEST POP PUSH1 0x20 DUP3 ADD MLOAD PUSH2 0x3F3E PUSH1 0x20 DUP6 ADD DUP3 PUSH2 0x400A JUMP JUMPDEST POP PUSH1 0x40 DUP3 ADD MLOAD PUSH2 0x3F51 PUSH1 0x40 DUP6 ADD DUP3 PUSH2 0x400A JUMP JUMPDEST POP PUSH1 0x60 DUP3 ADD MLOAD PUSH2 0x3F64 PUSH1 0x60 DUP6 ADD DUP3 PUSH2 0x400A JUMP JUMPDEST POP PUSH1 0x80 DUP3 ADD MLOAD PUSH2 0x3F77 PUSH1 0x80 DUP6 ADD DUP3 PUSH2 0x400A JUMP JUMPDEST POP PUSH1 0xA0 DUP3 ADD MLOAD PUSH2 0x3F8A PUSH1 0xA0 DUP6 ADD DUP3 PUSH2 0x400A JUMP JUMPDEST POP PUSH1 0xC0 DUP3 ADD MLOAD PUSH2 0x3F9D PUSH1 0xC0 DUP6 ADD DUP3 PUSH2 0x400A JUMP JUMPDEST POP PUSH1 0xE0 DUP3 ADD MLOAD PUSH2 0x3FB0 PUSH1 0xE0 DUP6 ADD DUP3 PUSH2 0x400A JUMP JUMPDEST POP PUSH2 0x100 DUP3 ADD MLOAD PUSH2 0x3FC5 PUSH2 0x100 DUP6 ADD DUP3 PUSH2 0x400A JUMP JUMPDEST POP PUSH2 0x120 DUP3 ADD MLOAD PUSH2 0x3FDA PUSH2 0x120 DUP6 ADD DUP3 PUSH2 0x400A JUMP JUMPDEST POP PUSH2 0x140 DUP3 ADD MLOAD PUSH2 0x3FEF PUSH2 0x140 DUP6 ADD DUP3 PUSH2 0x400A JUMP JUMPDEST POP PUSH2 0x160 DUP3 ADD MLOAD PUSH2 0x4004 PUSH2 0x160 DUP6 ADD DUP3 PUSH2 0x400A JUMP JUMPDEST POP POP POP POP JUMP JUMPDEST PUSH2 0x4013 DUP2 PUSH2 0x46D3 JUMP JUMPDEST DUP3 MSTORE POP POP JUMP JUMPDEST PUSH2 0x4022 DUP2 PUSH2 0x46D3 JUMP JUMPDEST DUP3 MSTORE POP POP JUMP JUMPDEST PUSH2 0x4039 PUSH2 0x4034 DUP3 PUSH2 0x46D3 JUMP JUMPDEST PUSH2 0x47CB JUMP JUMPDEST DUP3 MSTORE POP POP JUMP JUMPDEST PUSH1 0x0 PUSH2 0x404B DUP3 DUP6 PUSH2 0x3C90 JUMP JUMPDEST SWAP2 POP PUSH2 0x4057 DUP3 DUP5 PUSH2 0x3C90 JUMP JUMPDEST SWAP2 POP DUP2 SWAP1 POP SWAP4 SWAP3 POP POP POP JUMP JUMPDEST PUSH1 0x0 PUSH2 0x406F DUP3 DUP7 PUSH2 0x4028 JUMP JUMPDEST PUSH1 0x20 DUP3 ADD SWAP2 POP PUSH2 0x407F DUP3 DUP6 PUSH2 0x4028 JUMP JUMPDEST PUSH1 0x20 DUP3 ADD SWAP2 POP PUSH2 0x408F DUP3 DUP5 PUSH2 0x4028 JUMP JUMPDEST PUSH1 0x20 DUP3 ADD SWAP2 POP DUP2 SWAP1 POP SWAP5 SWAP4 POP POP POP POP JUMP JUMPDEST PUSH1 0x0 PUSH1 0x20 DUP3 ADD SWAP1 POP PUSH2 0x40B5 PUSH1 0x0 DUP4 ADD DUP5 PUSH2 0x3BA2 JUMP JUMPDEST SWAP3 SWAP2 POP POP JUMP JUMPDEST PUSH1 0x0 PUSH1 0x80 DUP3 ADD SWAP1 POP PUSH2 0x40D0 PUSH1 0x0 DUP4 ADD DUP8 PUSH2 0x3BA2 JUMP JUMPDEST PUSH2 0x40DD PUSH1 0x20 DUP4 ADD DUP7 PUSH2 0x3BA2 JUMP JUMPDEST PUSH2 0x40EA PUSH1 0x40 DUP4 ADD DUP6 PUSH2 0x4019 JUMP JUMPDEST DUP2 DUP2 SUB PUSH1 0x60 DUP4 ADD MSTORE PUSH2 0x40FC DUP2 DUP5 PUSH2 0x3C1E JUMP JUMPDEST SWAP1 POP SWAP6 SWAP5 POP POP POP POP POP JUMP JUMPDEST PUSH1 0x0 PUSH1 0x20 DUP3 ADD SWAP1 POP PUSH2 0x411C PUSH1 0x0 DUP4 ADD DUP5 PUSH2 0x3C0F JUMP JUMPDEST SWAP3 SWAP2 POP POP JUMP JUMPDEST PUSH1 0x0 PUSH1 0x20 DUP3 ADD SWAP1 POP DUP2 DUP2 SUB PUSH1 0x0 DUP4 ADD MSTORE PUSH2 0x413C DUP2 DUP5 PUSH2 0x3C57 JUMP JUMPDEST SWAP1 POP SWAP3 SWAP2 POP POP JUMP JUMPDEST PUSH1 0x0 PUSH1 0x20 DUP3 ADD SWAP1 POP DUP2 DUP2 SUB PUSH1 0x0 DUP4 ADD MSTORE PUSH2 0x415D DUP2 PUSH2 0x3CC1 JUMP JUMPDEST SWAP1 POP SWAP2 SWAP1 POP JUMP JUMPDEST PUSH1 0x0 PUSH1 0x20 DUP3 ADD SWAP1 POP DUP2 DUP2 SUB PUSH1 0x0 DUP4 ADD MSTORE PUSH2 0x417D DUP2 PUSH2 0x3CE4 JUMP JUMPDEST SWAP1 POP SWAP2 SWAP1 POP JUMP JUMPDEST PUSH1 0x0 PUSH1 0x20 DUP3 ADD SWAP1 POP DUP2 DUP2 SUB PUSH1 0x0 DUP4 ADD MSTORE PUSH2 0x419D DUP2 PUSH2 0x3D07 JUMP JUMPDEST SWAP1 POP SWAP2 SWAP1 POP JUMP JUMPDEST PUSH1 0x0 PUSH1 0x20 DUP3 ADD SWAP1 POP DUP2 DUP2 SUB PUSH1 0x0 DUP4 ADD MSTORE PUSH2 0x41BD DUP2 PUSH2 0x3D2A JUMP JUMPDEST SWAP1 POP SWAP2 SWAP1 POP JUMP JUMPDEST PUSH1 0x0 PUSH1 0x20 DUP3 ADD SWAP1 POP DUP2 DUP2 SUB PUSH1 0x0 DUP4 ADD MSTORE PUSH2 0x41DD DUP2 PUSH2 0x3D4D JUMP JUMPDEST SWAP1 POP SWAP2 SWAP1 POP JUMP JUMPDEST PUSH1 0x0 PUSH1 0x20 DUP3 ADD SWAP1 POP DUP2 DUP2 SUB PUSH1 0x0 DUP4 ADD MSTORE PUSH2 0x41FD DUP2 PUSH2 0x3D70 JUMP JUMPDEST SWAP1 POP SWAP2 SWAP1 POP JUMP JUMPDEST PUSH1 0x0 PUSH1 0x20 DUP3 ADD SWAP1 POP DUP2 DUP2 SUB PUSH1 0x0 DUP4 ADD MSTORE PUSH2 0x421D DUP2 PUSH2 0x3D93 JUMP JUMPDEST SWAP1 POP SWAP2 SWAP1 POP JUMP JUMPDEST PUSH1 0x0 PUSH1 0x20 DUP3 ADD SWAP1 POP DUP2 DUP2 SUB PUSH1 0x0 DUP4 ADD MSTORE PUSH2 0x423D DUP2 PUSH2 0x3DB6 JUMP JUMPDEST SWAP1 POP SWAP2 SWAP1 POP JUMP JUMPDEST PUSH1 0x0 PUSH1 0x20 DUP3 ADD SWAP1 POP DUP2 DUP2 SUB PUSH1 0x0 DUP4 ADD MSTORE PUSH2 0x425D DUP2 PUSH2 0x3DD9 JUMP JUMPDEST SWAP1 POP SWAP2 SWAP1 POP JUMP JUMPDEST PUSH1 0x0 PUSH1 0x20 DUP3 ADD SWAP1 POP DUP2 DUP2 SUB PUSH1 0x0 DUP4 ADD MSTORE PUSH2 0x427D DUP2 PUSH2 0x3DFC JUMP JUMPDEST SWAP1 POP SWAP2 SWAP1 POP JUMP JUMPDEST PUSH1 0x0 PUSH1 0x20 DUP3 ADD SWAP1 POP DUP2 DUP2 SUB PUSH1 0x0 DUP4 ADD MSTORE PUSH2 0x429D DUP2 PUSH2 0x3E1F JUMP JUMPDEST SWAP1 POP SWAP2 SWAP1 POP JUMP JUMPDEST PUSH1 0x0 PUSH1 0x20 DUP3 ADD SWAP1 POP DUP2 DUP2 SUB PUSH1 0x0 DUP4 ADD MSTORE PUSH2 0x42BD DUP2 PUSH2 0x3E42 JUMP JUMPDEST SWAP1 POP SWAP2 SWAP1 POP JUMP JUMPDEST PUSH1 0x0 PUSH1 0x20 DUP3 ADD SWAP1 POP DUP2 DUP2 SUB PUSH1 0x0 DUP4 ADD MSTORE PUSH2 0x42DD DUP2 PUSH2 0x3E65 JUMP JUMPDEST SWAP1 POP SWAP2 SWAP1 POP JUMP JUMPDEST PUSH1 0x0 PUSH1 0x20 DUP3 ADD SWAP1 POP DUP2 DUP2 SUB PUSH1 0x0 DUP4 ADD MSTORE PUSH2 0x42FD DUP2 PUSH2 0x3E88 JUMP JUMPDEST SWAP1 POP SWAP2 SWAP1 POP JUMP JUMPDEST PUSH1 0x0 PUSH1 0x20 DUP3 ADD SWAP1 POP DUP2 DUP2 SUB PUSH1 0x0 DUP4 ADD MSTORE PUSH2 0x431D DUP2 PUSH2 0x3EAB JUMP JUMPDEST SWAP1 POP SWAP2 SWAP1 POP JUMP JUMPDEST PUSH1 0x0 PUSH1 0x20 DUP3 ADD SWAP1 POP DUP2 DUP2 SUB PUSH1 0x0 DUP4 ADD MSTORE PUSH2 0x433D DUP2 PUSH2 0x3ECE JUMP JUMPDEST SWAP1 POP SWAP2 SWAP1 POP JUMP JUMPDEST PUSH1 0x0 PUSH1 0x20 DUP3 ADD SWAP1 POP DUP2 DUP2 SUB PUSH1 0x0 DUP4 ADD MSTORE PUSH2 0x435D DUP2 PUSH2 0x3EF1 JUMP JUMPDEST SWAP1 POP SWAP2 SWAP1 POP JUMP JUMPDEST PUSH1 0x0 PUSH2 0x300 DUP3 ADD SWAP1 POP PUSH2 0x437A PUSH1 0x0 DUP4 ADD DUP6 PUSH2 0x3F14 JUMP JUMPDEST PUSH2 0x4388 PUSH2 0x180 DUP4 ADD DUP5 PUSH2 0x3F14 JUMP JUMPDEST SWAP4 SWAP3 POP POP POP JUMP JUMPDEST PUSH1 0x0 PUSH1 0x20 DUP3 ADD SWAP1 POP PUSH2 0x43A4 PUSH1 0x0 DUP4 ADD DUP5 PUSH2 0x4019 JUMP JUMPDEST SWAP3 SWAP2 POP POP JUMP JUMPDEST PUSH1 0x0 PUSH1 0x40 DUP3 ADD SWAP1 POP PUSH2 0x43BF PUSH1 0x0 DUP4 ADD DUP6 PUSH2 0x4019 JUMP JUMPDEST DUP2 DUP2 SUB PUSH1 0x20 DUP4 ADD MSTORE PUSH2 0x43D1 DUP2 DUP5 PUSH2 0x3BB1 JUMP JUMPDEST SWAP1 POP SWAP4 SWAP3 POP POP POP JUMP JUMPDEST PUSH1 0x0 PUSH1 0x60 DUP3 ADD SWAP1 POP PUSH2 0x43EF PUSH1 0x0 DUP4 ADD DUP7 PUSH2 0x4019 JUMP JUMPDEST PUSH2 0x43FC PUSH1 0x20 DUP4 ADD DUP6 PUSH2 0x4019 JUMP JUMPDEST DUP2 DUP2 SUB PUSH1 0x40 DUP4 ADD MSTORE PUSH2 0x440E DUP2 DUP5 PUSH2 0x3BB1 JUMP JUMPDEST SWAP1 POP SWAP5 SWAP4 POP POP POP POP JUMP JUMPDEST PUSH1 0x0 PUSH2 0x180 DUP3 ADD SWAP1 POP PUSH2 0x442E PUSH1 0x0 DUP4 ADD DUP16 PUSH2 0x4019 JUMP JUMPDEST PUSH2 0x443B PUSH1 0x20 DUP4 ADD DUP15 PUSH2 0x4019 JUMP JUMPDEST PUSH2 0x4448 PUSH1 0x40 DUP4 ADD DUP14 PUSH2 0x4019 JUMP JUMPDEST PUSH2 0x4455 PUSH1 0x60 DUP4 ADD DUP13 PUSH2 0x4019 JUMP JUMPDEST PUSH2 0x4462 PUSH1 0x80 DUP4 ADD DUP12 PUSH2 0x4019 JUMP JUMPDEST PUSH2 0x446F PUSH1 0xA0 DUP4 ADD DUP11 PUSH2 0x4019 JUMP JUMPDEST PUSH2 0x447C PUSH1 0xC0 DUP4 ADD DUP10 PUSH2 0x4019 JUMP JUMPDEST PUSH2 0x4489 PUSH1 0xE0 DUP4 ADD DUP9 PUSH2 0x4019 JUMP JUMPDEST PUSH2 0x4497 PUSH2 0x100 DUP4 ADD DUP8 PUSH2 0x4019 JUMP JUMPDEST PUSH2 0x44A5 PUSH2 0x120 DUP4 ADD DUP7 PUSH2 0x4019 JUMP JUMPDEST PUSH2 0x44B3 PUSH2 0x140 DUP4 ADD DUP6 PUSH2 0x4019 JUMP JUMPDEST PUSH2 0x44C1 PUSH2 0x160 DUP4 ADD DUP5 PUSH2 0x4019 JUMP JUMPDEST SWAP14 SWAP13 POP POP POP POP POP POP POP POP POP POP POP POP POP JUMP JUMPDEST PUSH1 0x0 PUSH2 0x44DC PUSH2 0x44ED JUMP JUMPDEST SWAP1 POP PUSH2 0x44E8 DUP3 DUP3 PUSH2 0x4751 JUMP JUMPDEST SWAP2 SWAP1 POP JUMP JUMPDEST PUSH1 0x0 PUSH1 0x40 MLOAD SWAP1 POP SWAP1 JUMP JUMPDEST PUSH1 0x0 PUSH8 0xFFFFFFFFFFFFFFFF DUP3 GT ISZERO PUSH2 0x4512 JUMPI PUSH2 0x4511 PUSH2 0x48F1 JUMP JUMPDEST JUMPDEST PUSH2 0x451B DUP3 PUSH2 0x4934 JUMP JUMPDEST SWAP1 POP PUSH1 0x20 DUP2 ADD SWAP1 POP SWAP2 SWAP1 POP JUMP JUMPDEST PUSH1 0x0 DUP2 SWAP1 POP PUSH1 0x20 DUP3 ADD SWAP1 POP SWAP2 SWAP1 POP JUMP JUMPDEST PUSH1 0x0 DUP2 MLOAD SWAP1 POP SWAP2 SWAP1 POP JUMP JUMPDEST PUSH1 0x0 DUP2 MLOAD SWAP1 POP SWAP2 SWAP1 POP JUMP JUMPDEST PUSH1 0x0 DUP2 MLOAD SWAP1 POP SWAP2 SWAP1 POP JUMP JUMPDEST PUSH1 0x0 PUSH1 0x20 DUP3 ADD SWAP1 POP SWAP2 SWAP1 POP JUMP JUMPDEST PUSH1 0x0 DUP3 DUP3 MSTORE PUSH1 0x20 DUP3 ADD SWAP1 POP SWAP3 SWAP2 POP POP JUMP JUMPDEST PUSH1 0x0 DUP3 DUP3 MSTORE PUSH1 0x20 DUP3 ADD SWAP1 POP SWAP3 SWAP2 POP POP JUMP JUMPDEST PUSH1 0x0 DUP3 DUP3 MSTORE PUSH1 0x20 DUP3 ADD SWAP1 POP SWAP3 SWAP2 POP POP JUMP JUMPDEST PUSH1 0x0 DUP2 SWAP1 POP SWAP3 SWAP2 POP POP JUMP JUMPDEST PUSH1 0x0 PUSH2 0x45AF DUP3 PUSH2 0x46D3 JUMP JUMPDEST SWAP2 POP PUSH2 0x45BA DUP4 PUSH2 0x46D3 JUMP JUMPDEST SWAP3 POP DUP3 PUSH32 0xFFFFFFFFFFFFFFFFFFFFFFFFFFFFFFFFFFFFFFFFFFFFFFFFFFFFFFFFFFFFFFFF SUB DUP3 GT ISZERO PUSH2 0x45EF JUMPI PUSH2 0x45EE PUSH2 0x4806 JUMP JUMPDEST JUMPDEST DUP3 DUP3 ADD SWAP1 POP SWAP3 SWAP2 POP POP JUMP JUMPDEST PUSH1 0x0 PUSH2 0x4605 DUP3 PUSH2 0x46D3 JUMP JUMPDEST SWAP2 POP PUSH2 0x4610 DUP4 PUSH2 0x46D3 JUMP JUMPDEST SWAP3 POP DUP3 PUSH2 0x4620 JUMPI PUSH2 0x461F PUSH2 0x4835 JUMP JUMPDEST JUMPDEST DUP3 DUP3 DIV SWAP1 POP SWAP3 SWAP2 POP POP JUMP JUMPDEST PUSH1 0x0 PUSH2 0x4636 DUP3 PUSH2 0x46D3 JUMP JUMPDEST SWAP2 POP PUSH2 0x4641 DUP4 PUSH2 0x46D3 JUMP JUMPDEST SWAP3 POP DUP3 DUP3 LT ISZERO PUSH2 0x4654 JUMPI PUSH2 0x4653 PUSH2 0x4806 JUMP JUMPDEST JUMPDEST DUP3 DUP3 SUB SWAP1 POP SWAP3 SWAP2 POP POP JUMP JUMPDEST PUSH1 0x0 PUSH2 0x466A DUP3 PUSH2 0x46B3 JUMP JUMPDEST SWAP1 POP SWAP2 SWAP1 POP JUMP JUMPDEST PUSH1 0x0 DUP2 ISZERO ISZERO SWAP1 POP SWAP2 SWAP1 POP JUMP JUMPDEST PUSH1 0x0 DUP2 SWAP1 POP SWAP2 SWAP1 POP JUMP JUMPDEST PUSH1 0x0 PUSH32 0xFFFFFFFF00000000000000000000000000000000000000000000000000000000 DUP3 AND SWAP1 POP SWAP2 SWAP1 POP JUMP JUMPDEST PUSH1 0x0 PUSH20 0xFFFFFFFFFFFFFFFFFFFFFFFFFFFFFFFFFFFFFFFF DUP3 AND SWAP1 POP SWAP2 SWAP1 POP JUMP JUMPDEST PUSH1 0x0 DUP2 SWAP1 POP SWAP2 SWAP1 POP JUMP JUMPDEST DUP3 DUP2 DUP4 CALLDATACOPY PUSH1 0x0 DUP4 DUP4 ADD MSTORE POP POP POP JUMP JUMPDEST PUSH1 0x0 JUMPDEST DUP4 DUP2 LT ISZERO PUSH2 0x470A JUMPI DUP1 DUP3 ADD MLOAD DUP2 DUP5 ADD MSTORE PUSH1 0x20 DUP2 ADD SWAP1 POP PUSH2 0x46EF JUMP JUMPDEST DUP4 DUP2 GT ISZERO PUSH2 0x4719 JUMPI PUSH1 0x0 DUP5 DUP5 ADD MSTORE JUMPDEST POP POP POP POP JUMP JUMPDEST PUSH1 0x0 PUSH1 0x2 DUP3 DIV SWAP1 POP PUSH1 0x1 DUP3 AND DUP1 PUSH2 0x4737 JUMPI PUSH1 0x7F DUP3 AND SWAP2 POP JUMPDEST PUSH1 0x20 DUP3 LT DUP2 EQ ISZERO PUSH2 0x474B JUMPI PUSH2 0x474A PUSH2 0x4864 JUMP JUMPDEST JUMPDEST POP SWAP2 SWAP1 POP JUMP JUMPDEST PUSH2 0x475A DUP3 PUSH2 0x4934 JUMP JUMPDEST DUP2 ADD DUP2 DUP2 LT PUSH8 0xFFFFFFFFFFFFFFFF DUP3 GT OR ISZERO PUSH2 0x4779 JUMPI PUSH2 0x4778 PUSH2 0x48F1 JUMP JUMPDEST JUMPDEST DUP1 PUSH1 0x40 MSTORE POP POP POP JUMP JUMPDEST PUSH1 0x0 PUSH2 0x478D DUP3 PUSH2 0x46D3 JUMP JUMPDEST SWAP2 POP PUSH32 0xFFFFFFFFFFFFFFFFFFFFFFFFFFFFFFFFFFFFFFFFFFFFFFFFFFFFFFFFFFFFFFFF DUP3 EQ ISZERO PUSH2 0x47C0 JUMPI PUSH2 0x47BF PUSH2 0x4806 JUMP JUMPDEST JUMPDEST PUSH1 0x1 DUP3 ADD SWAP1 POP SWAP2 SWAP1 POP JUMP JUMPDEST PUSH1 0x0 DUP2 SWAP1 POP SWAP2 SWAP1 POP JUMP JUMPDEST PUSH1 0x0 PUSH2 0x47E0 DUP3 PUSH2 0x46D3 JUMP JUMPDEST SWAP2 POP PUSH2 0x47EB DUP4 PUSH2 0x46D3 JUMP JUMPDEST SWAP3 POP DUP3 PUSH2 0x47FB JUMPI PUSH2 0x47FA PUSH2 0x4835 JUMP JUMPDEST JUMPDEST DUP3 DUP3 MOD SWAP1 POP SWAP3 SWAP2 POP POP JUMP JUMPDEST PUSH32 0x4E487B7100000000000000000000000000000000000000000000000000000000 PUSH1 0x0 MSTORE PUSH1 0x11 PUSH1 0x4 MSTORE PUSH1 0x24 PUSH1 0x0 REVERT JUMPDEST PUSH32 0x4E487B7100000000000000000000000000000000000000000000000000000000 PUSH1 0x0 MSTORE PUSH1 0x12 PUSH1 0x4 MSTORE PUSH1 0x24 PUSH1 0x0 REVERT JUMPDEST PUSH32 0x4E487B7100000000000000000000000000000000000000000000000000000000 PUSH1 0x0 MSTORE PUSH1 0x22 PUSH1 0x4 MSTORE PUSH1 0x24 PUSH1 0x0 REVERT JUMPDEST PUSH32 0x4E487B7100000000000000000000000000000000000000000000000000000000 PUSH1 0x0 MSTORE PUSH1 0x31 PUSH1 0x4 MSTORE PUSH1 0x24 PUSH1 0x0 REVERT JUMPDEST PUSH32 0x4E487B7100000000000000000000000000000000000000000000000000000000 PUSH1 0x0 MSTORE PUSH1 0x32 PUSH1 0x4 MSTORE PUSH1 0x24 PUSH1 0x0 REVERT JUMPDEST PUSH32 0x4E487B7100000000000000000000000000000000000000000000000000000000 PUSH1 0x0 MSTORE PUSH1 0x41 PUSH1 0x4 MSTORE PUSH1 0x24 PUSH1 0x0 REVERT JUMPDEST PUSH1 0x0 DUP1 REVERT JUMPDEST PUSH1 0x0 DUP1 REVERT JUMPDEST PUSH1 0x0 DUP1 REVERT JUMPDEST PUSH1 0x0 DUP1 REVERT JUMPDEST PUSH1 0x0 PUSH1 0x1F NOT PUSH1 0x1F DUP4 ADD AND SWAP1 POP SWAP2 SWAP1 POP JUMP JUMPDEST PUSH32 0x455243373231456E756D657261626C653A206F776E657220696E646578206F75 PUSH1 0x0 DUP3 ADD MSTORE PUSH32 0x74206F6620626F756E6473000000000000000000000000000000000000000000 PUSH1 0x20 DUP3 ADD MSTORE POP JUMP JUMPDEST PUSH32 0x4552433732313A207472616E7366657220746F206E6F6E204552433732315265 PUSH1 0x0 DUP3 ADD MSTORE PUSH32 0x63656976657220696D706C656D656E7465720000000000000000000000000000 PUSH1 0x20 DUP3 ADD MSTORE POP JUMP JUMPDEST PUSH32 0x4552433732313A207472616E736665722066726F6D20696E636F727265637420 PUSH1 0x0 DUP3 ADD MSTORE PUSH32 0x6F776E6572000000000000000000000000000000000000000000000000000000 PUSH1 0x20 DUP3 ADD MSTORE POP JUMP JUMPDEST PUSH32 0x4552433732313A20746F6B656E20616C7265616479206D696E74656400000000 PUSH1 0x0 DUP3 ADD MSTORE POP JUMP JUMPDEST PUSH32 0x4552433732313A207472616E7366657220746F20746865207A65726F20616464 PUSH1 0x0 DUP3 ADD MSTORE PUSH32 0x7265737300000000000000000000000000000000000000000000000000000000 PUSH1 0x20 DUP3 ADD MSTORE POP JUMP JUMPDEST PUSH32 0x4552433732313A20617070726F766520746F2063616C6C657200000000000000 PUSH1 0x0 DUP3 ADD MSTORE POP JUMP JUMPDEST PUSH32 0x4552433732313A206F70657261746F7220717565727920666F72206E6F6E6578 PUSH1 0x0 DUP3 ADD MSTORE PUSH32 0x697374656E7420746F6B656E0000000000000000000000000000000000000000 PUSH1 0x20 DUP3 ADD MSTORE POP JUMP JUMPDEST PUSH32 0x4552433732313A20617070726F76652063616C6C6572206973206E6F74206F77 PUSH1 0x0 DUP3 ADD MSTORE PUSH32 0x6E6572206E6F7220617070726F76656420666F7220616C6C0000000000000000 PUSH1 0x20 DUP3 ADD MSTORE POP JUMP JUMPDEST PUSH32 0x4552433732313A2062616C616E636520717565727920666F7220746865207A65 PUSH1 0x0 DUP3 ADD MSTORE PUSH32 0x726F206164647265737300000000000000000000000000000000000000000000 PUSH1 0x20 DUP3 ADD MSTORE POP JUMP JUMPDEST PUSH32 0x4552433732313A206F776E657220717565727920666F72206E6F6E6578697374 PUSH1 0x0 DUP3 ADD MSTORE PUSH32 0x656E7420746F6B656E0000000000000000000000000000000000000000000000 PUSH1 0x20 DUP3 ADD MSTORE POP JUMP JUMPDEST PUSH32 0x4552433732313A206D696E7420746F20746865207A65726F2061646472657373 PUSH1 0x0 DUP3 ADD MSTORE POP JUMP JUMPDEST PUSH32 0x4552433732313A20617070726F76656420717565727920666F72206E6F6E6578 PUSH1 0x0 DUP3 ADD MSTORE PUSH32 0x697374656E7420746F6B656E0000000000000000000000000000000000000000 PUSH1 0x20 DUP3 ADD MSTORE POP JUMP JUMPDEST PUSH32 0x4552433732314D657461646174613A2055524920717565727920666F72206E6F PUSH1 0x0 DUP3 ADD MSTORE PUSH32 0x6E6578697374656E7420746F6B656E0000000000000000000000000000000000 PUSH1 0x20 DUP3 ADD MSTORE POP JUMP JUMPDEST PUSH32 0x4552433732313A20617070726F76616C20746F2063757272656E74206F776E65 PUSH1 0x0 DUP3 ADD MSTORE PUSH32 0x7200000000000000000000000000000000000000000000000000000000000000 PUSH1 0x20 DUP3 ADD MSTORE POP JUMP JUMPDEST PUSH32 0x4552433732313A207472616E736665722063616C6C6572206973206E6F74206F PUSH1 0x0 DUP3 ADD MSTORE PUSH32 0x776E6572206E6F7220617070726F766564000000000000000000000000000000 PUSH1 0x20 DUP3 ADD MSTORE POP JUMP JUMPDEST PUSH32 0x455243373231456E756D657261626C653A20676C6F62616C20696E646578206F PUSH1 0x0 DUP3 ADD MSTORE PUSH32 0x7574206F6620626F756E64730000000000000000000000000000000000000000 PUSH1 0x20 DUP3 ADD MSTORE POP JUMP JUMPDEST PUSH32 0x4F6E6C792076616C696420646578206E756D626572732E204D75737420626520 PUSH1 0x0 DUP3 ADD MSTORE PUSH32 0x6265747765656E203120616E6420353200000000000000000000000000000000 PUSH1 0x20 DUP3 ADD MSTORE POP JUMP JUMPDEST PUSH2 0x4E1B DUP2 PUSH2 0x465F JUMP JUMPDEST DUP2 EQ PUSH2 0x4E26 JUMPI PUSH1 0x0 DUP1 REVERT JUMPDEST POP JUMP JUMPDEST PUSH2 0x4E32 DUP2 PUSH2 0x4671 JUMP JUMPDEST DUP2 EQ PUSH2 0x4E3D JUMPI PUSH1 0x0 DUP1 REVERT JUMPDEST POP JUMP JUMPDEST PUSH2 0x4E49 DUP2 PUSH2 0x467D JUMP JUMPDEST DUP2 EQ PUSH2 0x4E54 JUMPI PUSH1 0x0 DUP1 REVERT JUMPDEST POP JUMP JUMPDEST PUSH2 0x4E60 DUP2 PUSH2 0x4687 JUMP JUMPDEST DUP2 EQ PUSH2 0x4E6B JUMPI PUSH1 0x0 DUP1 REVERT JUMPDEST POP JUMP JUMPDEST PUSH2 0x4E77 DUP2 PUSH2 0x46D3 JUMP JUMPDEST DUP2 EQ PUSH2 0x4E82 JUMPI PUSH1 0x0 DUP1 REVERT JUMPDEST POP JUMP INVALID LOG2 PUSH5 0x6970667358 0x22 SLT KECCAK256 DUP13 DUP8 0x26 0xE5 SHR 0x5C OR EXP 0xE1 AND 0xB9 SIGNEXTEND SWAP7 GASLIMIT 0xCE 0xC1 0x4B SWAP6 ADDMOD CODESIZE PC MULMOD 0xD9 0xD0 SUB 0x2D 0x29 SWAP1 PUSH9 0xD2AB5764736F6C6343 STOP ADDMOD SMOD STOP CALLER "
    },
    "gasEstimates": {
      "creation": {
        "codeDepositCost": "4031000",
        "executionCost": "infinite",
        "totalCost": "infinite"
      },
      "external": {
        "approve(address,uint256)": "infinite",
        "balanceOf(address)": "2902",
        "consumeMessage(uint256,uint256,uint256,uint256)": "infinite",
        "fightIDToFighters(uint256)": "infinite",
        "fightIDToWinnerPokemon(uint256)": "infinite",
        "getApproved(uint256)": "5228",
        "isApprovedForAll(address,address)": "infinite",
        "mint(uint256)": "infinite",
        "name()": "infinite",
        "ownerOf(uint256)": "3110",
        "pokemonIDToFightsWon(uint256)": "infinite",
        "pokemons(uint256)": "infinite",
        "safeTransferFrom(address,address,uint256)": "infinite",
        "safeTransferFrom(address,address,uint256,bytes)": "infinite",
        "sendPokemonsToL2(uint256,uint256)": "infinite",
        "setApprovalForAll(address,bool)": "infinite",
        "supportsInterface(bytes4)": "929",
        "symbol()": "infinite",
        "tokenByIndex(uint256)": "infinite",
        "tokenOfOwnerByIndex(address,uint256)": "infinite",
        "tokenURI(uint256)": "3395",
        "totalSupply()": "2557",
        "transferFrom(address,address,uint256)": "infinite"
      },
      "internal": {
        "_beforeTokenTransfer(address,address,uint256)": "infinite",
        "createFightID()": "24378",
        "createPokemon(uint256,uint256,uint256,uint256,uint256,uint256,uint256,uint256,uint256,uint256,uint256,uint256)": "infinite",
        "createPokemonByNameId(uint256,uint256)": "infinite",
        "createPokemonOther(uint256,uint256,uint256,uint256,uint256)": "infinite",
        "getDamage()": "infinite",
        "getDv()": "infinite",
        "getType()": "infinite",
        "random(uint256)": "infinite"
      }
    },
    "methodIdentifiers": {
      "approve(address,uint256)": "095ea7b3",
      "balanceOf(address)": "70a08231",
      "consumeMessage(uint256,uint256,uint256,uint256)": "ad5dbc29",
      "fightIDToFighters(uint256)": "1992f36d",
      "fightIDToWinnerPokemon(uint256)": "d82fe3b7",
      "getApproved(uint256)": "081812fc",
      "isApprovedForAll(address,address)": "e985e9c5",
      "mint(uint256)": "a0712d68",
      "name()": "06fdde03",
      "ownerOf(uint256)": "6352211e",
      "pokemonIDToFightsWon(uint256)": "d5f39a5b",
      "pokemons(uint256)": "85831079",
      "safeTransferFrom(address,address,uint256)": "42842e0e",
      "safeTransferFrom(address,address,uint256,bytes)": "b88d4fde",
      "sendPokemonsToL2(uint256,uint256)": "85b1c79d",
      "setApprovalForAll(address,bool)": "a22cb465",
      "supportsInterface(bytes4)": "01ffc9a7",
      "symbol()": "95d89b41",
      "tokenByIndex(uint256)": "4f6ccce7",
      "tokenOfOwnerByIndex(address,uint256)": "2f745c59",
      "tokenURI(uint256)": "c87b56dd",
      "totalSupply()": "18160ddd",
      "transferFrom(address,address,uint256)": "23b872dd"
    }
  },
  "abi": [
    {
      "inputs": [],
      "stateMutability": "nonpayable",
      "type": "constructor"
    },
    {
      "anonymous": false,
      "inputs": [
        {
          "indexed": true,
          "internalType": "address",
          "name": "owner",
          "type": "address"
        },
        {
          "indexed": true,
          "internalType": "address",
          "name": "approved",
          "type": "address"
        },
        {
          "indexed": true,
          "internalType": "uint256",
          "name": "tokenId",
          "type": "uint256"
        }
      ],
      "name": "Approval",
      "type": "event"
    },
    {
      "anonymous": false,
      "inputs": [
        {
          "indexed": true,
          "internalType": "address",
          "name": "owner",
          "type": "address"
        },
        {
          "indexed": true,
          "internalType": "address",
          "name": "operator",
          "type": "address"
        },
        {
          "indexed": false,
          "internalType": "bool",
          "name": "approved",
          "type": "bool"
        }
      ],
      "name": "ApprovalForAll",
      "type": "event"
    },
    {
      "anonymous": false,
      "inputs": [
        {
          "indexed": true,
          "internalType": "address",
          "name": "from",
          "type": "address"
        },
        {
          "indexed": true,
          "internalType": "address",
          "name": "to",
          "type": "address"
        },
        {
          "indexed": true,
          "internalType": "uint256",
          "name": "tokenId",
          "type": "uint256"
        }
      ],
      "name": "Transfer",
      "type": "event"
    },
    {
      "inputs": [
        {
          "internalType": "address",
          "name": "to",
          "type": "address"
        },
        {
          "internalType": "uint256",
          "name": "tokenId",
          "type": "uint256"
        }
      ],
      "name": "approve",
      "outputs": [],
      "stateMutability": "nonpayable",
      "type": "function"
    },
    {
      "inputs": [
        {
          "internalType": "address",
          "name": "owner",
          "type": "address"
        }
      ],
      "name": "balanceOf",
      "outputs": [
        {
          "internalType": "uint256",
          "name": "",
          "type": "uint256"
        }
      ],
      "stateMutability": "view",
      "type": "function"
    },
    {
      "inputs": [
        {
          "internalType": "uint256",
          "name": "pokemonWinnerID",
          "type": "uint256"
        },
        {
          "internalType": "uint256",
          "name": "fightID",
          "type": "uint256"
        },
        {
          "internalType": "uint256",
          "name": "effFast",
          "type": "uint256"
        },
        {
          "internalType": "uint256",
          "name": "effSlow",
          "type": "uint256"
        }
      ],
      "name": "consumeMessage",
      "outputs": [],
      "stateMutability": "nonpayable",
      "type": "function"
    },
    {
      "inputs": [
        {
          "internalType": "uint256",
          "name": "",
          "type": "uint256"
        }
      ],
      "name": "fightIDToFighters",
      "outputs": [
        {
          "components": [
            {
              "internalType": "uint256",
              "name": "id",
              "type": "uint256"
            },
            {
              "internalType": "uint256",
              "name": "hp",
              "type": "uint256"
            },
            {
              "internalType": "uint256",
              "name": "atk",
              "type": "uint256"
            },
            {
              "internalType": "uint256",
              "name": "init",
              "type": "uint256"
            },
            {
              "internalType": "uint256",
              "name": "def",
              "type": "uint256"
            },
            {
              "internalType": "uint256",
              "name": "type1",
              "type": "uint256"
            },
            {
              "internalType": "uint256",
              "name": "type2",
              "type": "uint256"
            },
            {
              "internalType": "uint256",
              "name": "atk1_type",
              "type": "uint256"
            },
            {
              "internalType": "uint256",
              "name": "atk1_damage",
              "type": "uint256"
            },
            {
              "internalType": "uint256",
              "name": "atk2_type",
              "type": "uint256"
            },
            {
              "internalType": "uint256",
              "name": "atk2_damage",
              "type": "uint256"
            },
            {
              "internalType": "uint256",
              "name": "name_id",
              "type": "uint256"
            }
          ],
          "internalType": "struct NFT.Pokemon",
          "name": "pok1",
          "type": "tuple"
        },
        {
          "components": [
            {
              "internalType": "uint256",
              "name": "id",
              "type": "uint256"
            },
            {
              "internalType": "uint256",
              "name": "hp",
              "type": "uint256"
            },
            {
              "internalType": "uint256",
              "name": "atk",
              "type": "uint256"
            },
            {
              "internalType": "uint256",
              "name": "init",
              "type": "uint256"
            },
            {
              "internalType": "uint256",
              "name": "def",
              "type": "uint256"
            },
            {
              "internalType": "uint256",
              "name": "type1",
              "type": "uint256"
            },
            {
              "internalType": "uint256",
              "name": "type2",
              "type": "uint256"
            },
            {
              "internalType": "uint256",
              "name": "atk1_type",
              "type": "uint256"
            },
            {
              "internalType": "uint256",
              "name": "atk1_damage",
              "type": "uint256"
            },
            {
              "internalType": "uint256",
              "name": "atk2_type",
              "type": "uint256"
            },
            {
              "internalType": "uint256",
              "name": "atk2_damage",
              "type": "uint256"
            },
            {
              "internalType": "uint256",
              "name": "name_id",
              "type": "uint256"
            }
          ],
          "internalType": "struct NFT.Pokemon",
          "name": "pok2",
          "type": "tuple"
        }
      ],
      "stateMutability": "view",
      "type": "function"
    },
    {
      "inputs": [
        {
          "internalType": "uint256",
          "name": "",
          "type": "uint256"
        }
      ],
      "name": "fightIDToWinnerPokemon",
      "outputs": [
        {
          "internalType": "uint256",
          "name": "id",
          "type": "uint256"
        },
        {
          "internalType": "uint256",
          "name": "hp",
          "type": "uint256"
        },
        {
          "internalType": "uint256",
          "name": "atk",
          "type": "uint256"
        },
        {
          "internalType": "uint256",
          "name": "init",
          "type": "uint256"
        },
        {
          "internalType": "uint256",
          "name": "def",
          "type": "uint256"
        },
        {
          "internalType": "uint256",
          "name": "type1",
          "type": "uint256"
        },
        {
          "internalType": "uint256",
          "name": "type2",
          "type": "uint256"
        },
        {
          "internalType": "uint256",
          "name": "atk1_type",
          "type": "uint256"
        },
        {
          "internalType": "uint256",
          "name": "atk1_damage",
          "type": "uint256"
        },
        {
          "internalType": "uint256",
          "name": "atk2_type",
          "type": "uint256"
        },
        {
          "internalType": "uint256",
          "name": "atk2_damage",
          "type": "uint256"
        },
        {
          "internalType": "uint256",
          "name": "name_id",
          "type": "uint256"
        }
      ],
      "stateMutability": "view",
      "type": "function"
    },
    {
      "inputs": [
        {
          "internalType": "uint256",
          "name": "tokenId",
          "type": "uint256"
        }
      ],
      "name": "getApproved",
      "outputs": [
        {
          "internalType": "address",
          "name": "",
          "type": "address"
        }
      ],
      "stateMutability": "view",
      "type": "function"
    },
    {
      "inputs": [
        {
          "internalType": "address",
          "name": "owner",
          "type": "address"
        },
        {
          "internalType": "address",
          "name": "operator",
          "type": "address"
        }
      ],
      "name": "isApprovedForAll",
      "outputs": [
        {
          "internalType": "bool",
          "name": "",
          "type": "bool"
        }
      ],
      "stateMutability": "view",
      "type": "function"
    },
    {
      "inputs": [
        {
          "internalType": "uint256",
          "name": "_name_id",
          "type": "uint256"
        }
      ],
      "name": "mint",
      "outputs": [],
      "stateMutability": "nonpayable",
      "type": "function"
    },
    {
      "inputs": [],
      "name": "name",
      "outputs": [
        {
          "internalType": "string",
          "name": "",
          "type": "string"
        }
      ],
      "stateMutability": "view",
      "type": "function"
    },
    {
      "inputs": [
        {
          "internalType": "uint256",
          "name": "tokenId",
          "type": "uint256"
        }
      ],
      "name": "ownerOf",
      "outputs": [
        {
          "internalType": "address",
          "name": "",
          "type": "address"
        }
      ],
      "stateMutability": "view",
      "type": "function"
    },
    {
      "inputs": [
        {
          "internalType": "uint256",
          "name": "",
          "type": "uint256"
        }
      ],
      "name": "pokemonIDToFightsWon",
      "outputs": [
        {
          "internalType": "uint256",
          "name": "",
          "type": "uint256"
        }
      ],
      "stateMutability": "view",
      "type": "function"
    },
    {
      "inputs": [
        {
          "internalType": "uint256",
          "name": "",
          "type": "uint256"
        }
      ],
      "name": "pokemons",
      "outputs": [
        {
          "internalType": "uint256",
          "name": "id",
          "type": "uint256"
        },
        {
          "internalType": "uint256",
          "name": "hp",
          "type": "uint256"
        },
        {
          "internalType": "uint256",
          "name": "atk",
          "type": "uint256"
        },
        {
          "internalType": "uint256",
          "name": "init",
          "type": "uint256"
        },
        {
          "internalType": "uint256",
          "name": "def",
          "type": "uint256"
        },
        {
          "internalType": "uint256",
          "name": "type1",
          "type": "uint256"
        },
        {
          "internalType": "uint256",
          "name": "type2",
          "type": "uint256"
        },
        {
          "internalType": "uint256",
          "name": "atk1_type",
          "type": "uint256"
        },
        {
          "internalType": "uint256",
          "name": "atk1_damage",
          "type": "uint256"
        },
        {
          "internalType": "uint256",
          "name": "atk2_type",
          "type": "uint256"
        },
        {
          "internalType": "uint256",
          "name": "atk2_damage",
          "type": "uint256"
        },
        {
          "internalType": "uint256",
          "name": "name_id",
          "type": "uint256"
        }
      ],
      "stateMutability": "view",
      "type": "function"
    },
    {
      "inputs": [
        {
          "internalType": "address",
          "name": "from",
          "type": "address"
        },
        {
          "internalType": "address",
          "name": "to",
          "type": "address"
        },
        {
          "internalType": "uint256",
          "name": "tokenId",
          "type": "uint256"
        }
      ],
      "name": "safeTransferFrom",
      "outputs": [],
      "stateMutability": "nonpayable",
      "type": "function"
    },
    {
      "inputs": [
        {
          "internalType": "address",
          "name": "from",
          "type": "address"
        },
        {
          "internalType": "address",
          "name": "to",
          "type": "address"
        },
        {
          "internalType": "uint256",
          "name": "tokenId",
          "type": "uint256"
        },
        {
          "internalType": "bytes",
          "name": "_data",
          "type": "bytes"
        }
      ],
      "name": "safeTransferFrom",
      "outputs": [],
      "stateMutability": "nonpayable",
      "type": "function"
    },
    {
      "inputs": [
        {
          "internalType": "uint256",
          "name": "myPok",
          "type": "uint256"
        },
        {
          "internalType": "uint256",
          "name": "enemyPok",
          "type": "uint256"
        }
      ],
      "name": "sendPokemonsToL2",
      "outputs": [],
      "stateMutability": "payable",
      "type": "function"
    },
    {
      "inputs": [
        {
          "internalType": "address",
          "name": "operator",
          "type": "address"
        },
        {
          "internalType": "bool",
          "name": "approved",
          "type": "bool"
        }
      ],
      "name": "setApprovalForAll",
      "outputs": [],
      "stateMutability": "nonpayable",
      "type": "function"
    },
    {
      "inputs": [
        {
          "internalType": "bytes4",
          "name": "interfaceId",
          "type": "bytes4"
        }
      ],
      "name": "supportsInterface",
      "outputs": [
        {
          "internalType": "bool",
          "name": "",
          "type": "bool"
        }
      ],
      "stateMutability": "view",
      "type": "function"
    },
    {
      "inputs": [],
      "name": "symbol",
      "outputs": [
        {
          "internalType": "string",
          "name": "",
          "type": "string"
        }
      ],
      "stateMutability": "view",
      "type": "function"
    },
    {
      "inputs": [
        {
          "internalType": "uint256",
          "name": "index",
          "type": "uint256"
        }
      ],
      "name": "tokenByIndex",
      "outputs": [
        {
          "internalType": "uint256",
          "name": "",
          "type": "uint256"
        }
      ],
      "stateMutability": "view",
      "type": "function"
    },
    {
      "inputs": [
        {
          "internalType": "address",
          "name": "owner",
          "type": "address"
        },
        {
          "internalType": "uint256",
          "name": "index",
          "type": "uint256"
        }
      ],
      "name": "tokenOfOwnerByIndex",
      "outputs": [
        {
          "internalType": "uint256",
          "name": "",
          "type": "uint256"
        }
      ],
      "stateMutability": "view",
      "type": "function"
    },
    {
      "inputs": [
        {
          "internalType": "uint256",
          "name": "tokenId",
          "type": "uint256"
        }
      ],
      "name": "tokenURI",
      "outputs": [
        {
          "internalType": "string",
          "name": "",
          "type": "string"
        }
      ],
      "stateMutability": "view",
      "type": "function"
    },
    {
      "inputs": [],
      "name": "totalSupply",
      "outputs": [
        {
          "internalType": "uint256",
          "name": "",
          "type": "uint256"
        }
      ],
      "stateMutability": "view",
      "type": "function"
    },
    {
      "inputs": [
        {
          "internalType": "address",
          "name": "from",
          "type": "address"
        },
        {
          "internalType": "address",
          "name": "to",
          "type": "address"
        },
        {
          "internalType": "uint256",
          "name": "tokenId",
          "type": "uint256"
        }
      ],
      "name": "transferFrom",
      "outputs": [],
      "stateMutability": "nonpayable",
      "type": "function"
    }
  ]
}